:020000040000FA
:06000000E4EF06F012001F
:0800080007ED00F012000600F4
:0600100004EF08F01200ED
:060018000CEF08F01200DD
:02002A000000D4
:06003000E1EF06F01200F2
:10004000020000000000FFFFFFFFFFFFFFFFFFFFB8
:10005000FFFFFFFFFFFFFFFFFFFFFFFFFFFFFFFFB0
:10006000FFFFFFFFFFFFFFFFFFFFFFFFFFFFFFFFA0
:10007000FFFFFFFFFFFFFFFFFFFFFFFFFFFFFFFF90
:100080004C6F636174696F6E206E6F742079657454
:1000900020646566696E6564000000000000000071
:1000A0000000000000000000000000000000000050
:1000B0000000000000000000000000000000000040
:1000C0003C6364693E3C69643E3C6C6F616465728C
:1000D0003E4F70656E4C4342205049432043414E91
:1000E00020426F6F74204C6F61646572204D61799E
:1000F00020323220323031322031363A35383A31FE
:10010000373C2F6C6F616465723E3C2F69643E3CE6
:100110007365206E613D224C6F6322206F723D2219
:100120002330303430222073703D22234645222074
:1001300062753D2223313433223E3C6279206E6168
:100140003D224E6F6465204964222073693D22364A
:10015000222F3E3C62792073693D223538222F3EA2
:100160003C6368206E613D224C6F63222073693DC1
:10017000223634222F3E3C2F73653E3C2F63646948
:020180003E003F
:0E018200310EB16ECF0EB36E2C0EB26E1200A7
:10019000A1A206D0CF0EB36E2C0EB26EA192010CAE
:1001A000000CD9CFE6FFE1CFD9FFD950FC0FE96EA3
:1001B000FF0EDA20EA6EEF50F66ED950FD0FE96EB1
:1001C000FF0EDA20EA6EEF50F76ED950FE0FE96E9F
:1001D000FF0EDA20EA6EEF50F86ED950FB0FE96E91
:1001E000FF0EDA20EA6EEF50EF0600090DE009007D
:1001F000F90EDBCFE9FFDB2AFA0EDBCFEAFF01E3E2
:10020000DB2AF5CFEFFFE9D7E552E7CFD9FF1200A0
:10021000D9CFE6FFE1CFD9FFD950FC0FE96EFF0E31
:10022000DA20EA6EEF50F66ED950FD0FE96EFF0E40
:10023000DA20EA6EEF50F76ED950FE0FE96EFF0E2E
:10024000DA20EA6EEF50F86E940EA66EF2CF0CF242
:10025000F29EF29C550EA76EAA0EA76EA6820CC245
:10026000F2FF0A00D950FB0FE96EFF0EDA20EA6EAA
:10027000EF50EF06000926E0F90EDBCFE9FFDB2A9D
:10028000FA0EDBCFEAFF01E3DB2AEF50F56E0F0039
:100290001F0EF6141F0808E0D950FB0FE96EFF0E81
:1002A000DA20EA6EEF500DE1840EA66EF2CF0CF26A
:1002B000F29EF29C550EA76EAA0EA76EA6820CC2E5
:1002C000F2FFD0D7A694E552E7CFD9FF1200D9CFDD
:1002D000E6FFE1CFD9FFE150FE0FE96EFF0EDA2015
:1002E000EA6EEFCF00F2020100511CE1120EE66E41
:1002F000000EE66E0E0EE66E400EE66EE66AE66AEA
:1003000050DF256E060EE15E25501250186E135018
:10031000196E14501A6E15501B6E16501C6E175025
:100320001D6E8BD00201010E006F026B18C003F22C
:1003300019C004F21AC005F21BC006F21CC007F275
:10034000050EE96E020EEA6ED890EF36010EEB361E
:10035000020EEB3604BF0581020EE96E020EEA6E54
:10036000D890EF36010EEB36020EEB36020EE96E38
:10037000020EEA6EEECF08F2EECF09F2EFCF0AF2EC
:100380000B6B286A18500827195009231A500A23A2
:1003900028500B23A90E08274B0E09237A0E0A2397
:1003A000000E0B23080EE96E020EEA6EEECF18F077
:1003B000EECF19F0EFCF1AF00A0EE96E020EEA6ED8
:1003C000EF50E66E080EE96E020EEA6EE552E75057
:1003D000EF6E050EE96E020EEA6EEECF25F0EECF5F
:1003E00026F0EFCF27F0286A25500827265009234A
:1003F00027500A2328500B231BC025F01CC026F0D1
:100400001DC027F0286A1B5008271C5009231D50C7
:100410000A2328500B23A30E08270C0E09231B0EBA
:100420000A23000E0B23080EE96E020EEA6EEECFD1
:100430001BF0EECF1CF0EFCF1DF00201000508E02D
:100440001E501F1005E000011E1C29E11F1C27E1A2
:1004500018C01EF019C01FF019C025F01AC026F0F0
:10046000040ED89026322532E804FBE125501E1AEE
:1004700026501F1A1B501E1A1C501F1A1CC025F094
:100480001DC026F0040ED89026322532E804FBE188
:1004900025501E1A26501F1A0201010E006F0F0E62
:1004A0001F160201016B0F0140B764D01EC000F09F
:1004B0001FC001F00C6A0201015115E1026A700EC1
:1004C000036E16C025F017C026F0040ED890263211
:1004D0002532E804FBE12550021226500312C2DA4D
:1004E0000201010E46D0010511E1026A600E036EA1
:1004F000FF0E1514256E0F0E1614266E25500212CF
:1005000026500312AFDA0201020E33D0020E015D53
:1005100015E1026A500E036E13C025F014C026F0D8
:10052000040ED89026322532E804FBE12550021251
:100530002650031297DA0201030E1BD0030E015D51
:1005400011E1026A400E036EFF0E1214256E0F0EAB
:100550001314266E255002122650031283DA02016C
:10056000040E07D0040E015D05E10BDE0201026BF3
:10057000050E016F79DA000907E01E50001804E14A
:100580001F50011801E1CED603DE00098CE0020104
:10059000022B0251080801E386D700050FE1120E75
:1005A000E66E000EE66E0E0EE66E400EE66EE66A33
:1005B000E66A2EDE256E060EE15E2550026A070E03
:1005C000036E1EC000F01FC001F00C6A4BDA000978
:1005D000FDE0010EE66E070EE66E06D8E552E55226
:1005E000E552E7CFD9FF1200D9CFE6FFE1CFD9FF1F
:1005F000E150FD0FE96EFF0EDA20EA6EEECF02F059
:10060000EDCF03F01EC000F01FC001F0060E0C6E0F
:100610001750046E1650056E1550066E1450076E76
:100620001350086E1250096E1DDA0009FDE0E55204
:10063000E7CFD9FF1200D9CFE6FFE1CFD9FF1EC027
:1006400000F01FC001F0E150FD0FE96EFF0EDA204F
:10065000EA6EEECF02F0EFCF03F0E00E0312010ED0
:100660000C6E4C0E046EFED90009FDE0E552E7CF9A
:10067000D9FF1200D9CFE6FFE1CFD9FF1EC000F0AD
:100680001FC001F0E150FD0FE96EFF0EDA20EA6EA7
:10069000EECF02F0EFCF03F0E00E0312030E0C6E6C
:1006A0004D0E046EE150FC0FE96EFF0EDA20EA6E8B
:1006B000EF50056EE150FB0FE96EFF0EDA20EA6E97
:1006C000EF50066ECFD90009FDE0E552E7CFD9FF24
:1006D0001200D9CFE6FF0001300EA16F0E6AE15083
:1006E000FE0FE96EFF0EDA20EA6EEF500F6EE1505A
:1006F000FC0FE96EFF0EDA20EA6EEECF10F0EDCFC0
:1007000011F0E552E7CFD9FF12000F500E5C70E2F6
:10071000080E0F01401501E012001EC000F01FC0BE
:1007200001F0026AC00E036E0E5003E1026AB00EC1
:10073000036E080E0C6E0E500F5C08080CE30E5092
:100740000F5C0C6E0F50080803E3026AA00E02D083
:10075000026AD00E036E10500212115003120E5096
:10076000EA6AA00FE96E000EEA22EF50046E0E282E
:10077000EA6AA00FE96E000EEA22EF50056E020E43
:100780000E24EA6AA00FE96E000EEA22EF50066E10
:10079000030E0E24EA6AA00FE96E000EEA22EF5063
:1007A000076E040E0E24EA6AA00FE96E000EEA221C
:1007B000EF50086E050E0E24EA6AA00FE96E000ED7
:1007C000EA22EF50096E060E0E24EA6AA00FE96EC7
:1007D000000EEA22EF500A6E070E0E24EA6AA00FFE
:1007E000E96E000EEA22EF500B6E080E0E263AD983
:1007F000120000C0E6FF01C0E6FF1DDFE552E55232
:1008000018EF00F012001F0E6F166F8EE00E6F14BF
:100810008008FCE1030E706EDE0E716E030E726EC8
:10082000200E736E800E776E778A0D01F86B606A0A
:100830000F01506B0E01206B306B406B506B606B87
:10084000706B0F01186B1C6B080E196F1D6F1A6B04
:100850001E6B1B6B1F6B0D01D469D569D86BF06BD8
:10086000F16BF26BF36B0F01016F056F096F0D6F89
:10087000116F156F0D01616F656F696F716F756F26
:10088000796F816F856F896F916F1F0E6F16E00E04
:100890006F14FDE112000F0140B7000CFC0E401771
:1008A0000CC045FF03407F0B8009416F300E0214DE
:1008B000E8380F0B266EC00E0214E8407F0B256E41
:1008C000010E0314800DF350251008092610426F05
:1008D0000F0E0214100D0F0E0114F310436F00C021
:1008E00044FF04C046FF05C047FF06C048FF07C0DD
:1008F00049FF08C04AFF09C04BFF0AC04CFF0BC0AC
:100900004DFF4087010C74AE000C070E6F14060AF1
:100910002AE0030A23E0010A1CE0070A15E0010AA5
:100920000EE0030A07E0010A23E10201600E0D6FE9
:100930000F0E22D00201500E0D6F0F0E1DD00201BE
:10094000200E0D6F0E0E18D00201300E0D6F0E0E20
:1009500013D00201400E0D6F0E0E0ED00201500E8C
:100960000D6F0E0E09D00201600E0D6F0E0E04D039
:100970000201700E0D6F0E0E0E6F0D6A74AC02D078
:100980000D86749C010EEA6A0D25E96E0E51EA226D
:10099000EF50E824036E020EEA6A0D25E96E0E514F
:1009A000EA22EF50800BE844010B0312020EEA6AC0
:1009B0000D25E96E0E51EA22EF50600BE824026E1D
:1009C000020EEA6A0D25E96E0E51EA22EF50030B82
:1009D000100DF3500212030EEA6A0D25E96E0E5156
:1009E000EA22EF380F0B0212030EEA6A0D25E96EB8
:1009F0000E51EA22EF500F0B016E040EEA6A0D252C
:100A0000E96E0E51EA22EF50006E050EEA6A0D25DE
:100A1000E96E0E51EA22EF500F0B0C6E0C6B0C506E
:100A20000C5D14E2060E0C25EA6A0D25E96E0E51E6
:100A3000EA22EF50E66E0C51EA6A040FE96E000EEE
:100A4000EA22E552E750EF6E0C2BE9D7A4AE02D0B4
:100A50000D88A49E0DC2E9FF0EC2EAFFEF9EA4928C
:100A6000749E010C4BEF04F083EF04F01E5000184D
:100A700002E11F50011815E10350800B0DE11EC06B
:100A800000F01FC001F0026A070E036E0C6AEADF75
:100A9000000901E1FCD704D0010EE66E18DCE55236
:100AA00070D1A70E021802E1880E031808E1B70EF4
:100AB000E66E880EE66E98DDE552E55262D11E5074
:100AC000256EC00E1F10266E2550021802E126501A
:100AD000031822E01E50276ED00E1F10286E2750DC
:100AE000021802E12850031817E01E50296EB00EBC
:100AF0001F102A6E2950021802E12A5003180CE038
:100B00001E502B6EA00E1F102C6E2B50021802E1EF
:100B10002C50031801E035D1F00E0314256E266A1F
:100B2000A00E251801E1265009E0F00E0314276EEF
:100B3000286AB00E271801E1285006E1206A00C09B
:100B400021F001C022F013D00050211802E1015021
:100B500022180DE0000EE66EE66A00C0E6FF01C056
:100B6000E6FF88DDE552E552E552E5520AD1020181
:100B70000F6B0C5002010F5D19E2480E205C16E26B
:100B800002010F51EA6A040FE96E000EEA22EF50EB
:100B9000E66E2050202AEA6AA00FE96E000EEA22D3
:100BA000E552E750EF6E02010F2BE3D7F00E03146E
:100BB000256E266AD00E251801E126500AE0F00EB7
:100BC0000314276E286AA00E271801E1285001E0BF
:100BD000D8D021682268206A200E0001A05D01E0C3
:100BE000C4D0EA0EE96E000EEA6EA3C0EFFFE90E74
:100BF000E96E000EEA6EA4C0EFFFE80EE96E000E8B
:100C0000EA6EA5C0EFFF200E0001A15D1FE1FE0E00
:100C10000001A65D1AE1A70EE66E000EE66E400E1C
:100C2000E66EE8C0E6FFE9C0E6FFEAC0E6FF08ECD2
:100C300001F0256E060EE15E255000C0E6FF01C002
:100C4000E6FFF9DCE552E5529CD08FD0600E000142
:100C5000A15D59E1FF0E0001A65D2FE1C00E256EDA
:100C6000000E266E276A25500001E8272650000155
:100C7000E92327500001EA23A7C00FF2A70EE66E72
:100C8000000EE66E0FC2E6FFE8C0E6FFE9C0E6FF31
:100C9000EAC0E6FFD1EC00F0256E060EE15E2550BD
:100CA00000C0E6FF01C0E6FF070E02010F25E66E59
:100CB00010DDE552E552E55264D0FE0E0001A65D5E
:100CC00021E1A7C00FF2A70EE66E000EE66E0FC27E
:100CD000E6FFE8C0E6FFE9C0E6FFEAC0E6FFD1ECC8
:100CE00000F0256E060EE15E255000C0E6FF01C053
:100CF000E6FF070E02010F25E66EEBDCE552E5523A
:100D0000E5523FD032D0A40E055C29E1A00EE66E7C
:100D1000000EE66E400EE66EE66A100EE66EE66ABD
:100D2000D1EC00F0256E060EE15E25500001C051A9
:100D300012E00001C06BA00EE66E000EE66E400EE3
:100D4000E66EE66A100EE66EE66A08EC01F0256EC5
:100D5000060EE15E2550FF0000EF00F006D0A50E64
:100D6000055C03E1FF0000EF00F0000EE66EE66AAE
:100D700000C0E6FF01C0E6FF7DDCE552E552E5522A
:100D8000E5521200870EE66E800EE66E2DDCE5520F
:100D9000E552206A21682268B8DC66DE0009FCE0C2
:100DA00065DEFAD70F0EC16E3C0E926E3B0E936E4F
:100DB000040E816E9468F16A236A246A818C818EA4
:100DC0001200F0DFC2EF06F010EE60F020EE60F0EF
:100DD000FDEC06F0200EF66E100EF76EF86A0800B5
:100DE000F55002E100EF08F0DDDF0DDDE66A67ECAB
:0A0DF00001F0E552C7DFFED7120044
:060DFA00000EF36E00EE96
:100E000000F0030E01D81200EA6002D0EE6AFCD7AF
:0A0E1000F350E9601200EE6AFCD70F
:0610000035EF13F01200B1
:021006000000E8
:0810080007ED08F012000600DC
:0610100091EF10F0120048
:0610180098EF10F0120039
:0110200000CF
:1010400000000000000000000000000000000000A0
:101050000000000000000000000000000000000090
:101060000000000000000000000000000000000080
:101070000000000000000000000000000000000070
:10184000310EB16ECF0EB36E2C0EB26E1200A1A28D
:1018500006D0CF0EB36E2C0EB26EA192010C000C0E
:10186000D9CFE6FFE1CFD9FFD950FC0FE96EFF0ECB
:10187000DA20EA6EEF50F66ED950FD0FE96EFF0EDA
:10188000DA20EA6EEF50F76ED950FE0FE96EFF0EC8
:10189000DA20EA6EEF50F86ED950FB0FE96EFF0EBA
:1018A000DA20EA6EEF50EF0600090DE00900F90EAC
:1018B000DBCFE9FFDB2AFA0EDBCFEAFF01E3DB2A0D
:1018C000F5CFEFFFE9D7E552E7CFD9FF1200D9CF27
:1018D000E6FFE1CFD9FFD950FC0FE96EFF0EDA2009
:1018E000EA6EEF50F66ED950FD0FE96EFF0EDA206A
:1018F000EA6EEF50F76ED950FE0FE96EFF0EDA2058
:10190000EA6EEF50F86E940EA66EF2CF11F1F29ED1
:10191000F29C550EA76EAA0EA76EA68211C1F2FF09
:101920000A00D950FB0FE96EFF0EDA20EA6EEF5085
:10193000EF06000926E0F90EDBCFE9FFDB2AFA0EFD
:10194000DBCFEAFF01E3DB2AEF50F56E0F001F0E3D
:10195000F6141F0808E0D950FB0FE96EFF0EDA20DD
:10196000EA6EEF500DE1840EA66EF2CF11F1F29EF9
:10197000F29C550EA76EAA0EA76EA68211C1F2FFA9
:10198000D0D7A694E552E7CFD9FF1200D9CFE6FF12
:10199000E1CFD9FFE150FE0FE96EFF0EDA20EA6ECB
:1019A000EFCF00F1010100511CE1120EE66E000EB6
:1019B000E66E0E0EE66E400EE66EE66AE66A50DFF2
:1019C000506E060EE15E50501250186E1350196E94
:1019D00014501A6E15501B6E16501C6E17501D6E4B
:1019E0008BD00101010E006F026B18C003F119C00A
:1019F00004F11AC005F11BC006F11CC007F1050E69
:101A0000E96E010EEA6ED890EF36010EEB36020E4B
:101A1000EB3604BF0581020EE96E010EEA6ED89026
:101A2000EF36010EEB36020EEB36020EE96E010EBA
:101A3000EA6EEECF08F1EECF09F1EFCF0AF10B6BB2
:101A4000536A18500827195009231A500A23535073
:101A50000B23A90E08274B0E09237A0E0A23000E2A
:101A60000B23080EE96E010EEA6EEECF18F0EECFF2
:101A700019F0EFCF1AF00A0EE96E010EEA6EEF5080
:101A8000E66E080EE96E010EEA6EE552E750EF6E63
:101A9000050EE96E010EEA6EEECF50F0EECF51F07A
:101AA000EFCF52F0536A505008275150092352503B
:101AB0000A2353500B231BC050F01CC051F01DC013
:101AC00052F0536A1B5008271C5009231D500A234B
:101AD00053500B23A30E08270C0E09231B0E0A23B9
:101AE000000E0B23080EE96E010EEA6EEECF1BF01E
:101AF000EECF1CF0EFCF1DF00101000508E01E50F5
:101B00001F1005E000011E1C29E11F1C27E118C061
:101B10001EF019C01FF019C050F01AC051F0040E89
:101B2000D89051325032E804FBE150501E1A515007
:101B30001F1A1B501E1A1C501F1A1CC050F01DC02B
:101B400051F0040ED89051325032E804FBE150506D
:101B50001E1A51501F1A0101010E006F0F0E1F16A1
:101B60000101016B0F0140B764D01EC000F01FC01F
:101B700001F00C6A0101015115E1026A700E036E59
:101B800016C050F017C051F0040ED89051325032A8
:101B9000E804FBE15050021251500312DBD901015D
:101BA000010E46D0010511E1026A600E036EFF0EC0
:101BB0001514506E0F0E1614516E505002125150E3
:101BC0000312C8D90101020E33D0020E015D15E1E6
:101BD000026A500E036E13C050F014C051F0040E90
:101BE000D89051325032E804FBE15050021251506B
:101BF0000312B0D90101030E1BD0030E015D11E1E8
:101C0000026A400E036EFF0E1214506E0F0E131474
:101C1000516E50500212515003129CD90101040E12
:101C200007D0040E015D05E10BDE0101026B050E1C
:101C3000016FC8D9000907E01E50001804E11F50C9
:101C4000011801E1CED603DE00098CE00101022B70
:101C50000251080801E386D700050FE1120EE66E77
:101C6000000EE66E0E0EE66E400EE66EE66AE66A60
:101C70002EDE506E060EE15E5050026A070E036EB5
:101C80001EC000F01FC001F00C6A64D90009FDE01D
:101C9000010EE66E070EE66E06D8E552E552E552F5
:101CA000E7CFD9FF1200D9CFE6FFE1CFD9FFE1504E
:101CB000FD0FE96EFF0EDA20EA6EEECF02F0EDCFF7
:101CC00003F01EC000F01FC001F0060E0C6E17508E
:101CD000046E1650056E1550066E1450076E1350A4
:101CE000086E1250096E36D90009FDE0E552E7CFC3
:101CF000D9FF1200D9CFE6FFE1CFD9FF1EC000F017
:101D00001FC001F0E150FD0FE96EFF0EDA20EA6E10
:101D1000EECF02F0EFCF03F0E00E0312010E0C6ED7
:101D20004C0E046E17D90009FDE0E552E7CFD9FF4C
:101D30001200D9CFE6FFE1CFD9FF1EC000F01FC0CF
:101D400001F0E150FD0FE96EFF0EDA20EA6EEECFF2
:101D500002F0EFCF03F0E00E0312030E0C6E4D0EF7
:101D6000046EE150FC0FE96EFF0EDA20EA6EEF50D0
:101D7000056EE150FB0FE96EFF0EDA20EA6EEF50C0
:101D8000066EE8D80009FDE0E552E7CFD9FF120062
:101D9000D9CFE6FF0001300EA16F0E6AE150FE0FB1
:101DA000E96EFF0EDA20EA6EEF500F6EE150FC0F85
:101DB000E96EFF0EDA20EA6EEECF10F0EDCF11F0F3
:101DC000E552E7CFD9FF12000F500E5C70E2080E0B
:101DD0000F01401501E012001EC000F01FC001F00D
:101DE000026AC00E036E0E5003E1026AB00E036E6B
:101DF000080E0C6E0E500F5C08080CE30E500F5CC2
:101E00000C6E0F50080803E3026AA00E02D0026AAB
:101E1000D00E036E10500212115003120E50EA6AD7
:101E2000A00FE96E000EEA22EF50046E0E28EA6A57
:101E3000A00FE96E000EEA22EF50056E020E0E248E
:101E4000EA6AA00FE96E000EEA22EF50066E030E5A
:101E50000E24EA6AA00FE96E000EEA22EF50076E28
:101E6000040E0E24EA6AA00FE96E000EEA22EF507B
:101E7000086E050E0E24EA6AA00FE96E000EEA2233
:101E8000EF50096E060E0E24EA6AA00FE96E000EEE
:101E9000EA22EF500A6E070E0E24EA6AA00FE96EDE
:101EA000000EEA22EF500B6E080E0E2653D81200D9
:101EB00000C0E6FF01C0E6FF1DDFE552E55218EF66
:101EC00000F012001F0E6F166F8EE00E6F14800868
:101ED000FCE1030E706EDE0E716E030E726E200E4C
:101EE000736E800E776E778A0D01F86B606A0F0152
:101EF000506B0E01206B306B406B506B606B706BE6
:101F00000F01186B1C6B080E196F1D6F1A6B1E6B7F
:101F10001B6B1F6B0D01D469D569D86BF06BF16B2E
:101F2000F26BF36B0F01016F056F096F0D6F116F8E
:101F3000156F0D01616F656F696F716F756F796FE7
:101F4000816F856F896F916F1F0E6F16E00E6F1492
:101F5000FDE112000F0140B7000CFC0E40170CC051
:101F600045FF03407F0B8009416F300E0214E838B3
:101F70000F0B516EC00E0214E8407F0B506E010E25
:101F80000314800DF350501008095110426F0F0ECA
:101F90000214100D0F0E0114F310436F00C044FF24
:101FA00004C046FF05C047FF06C048FF07C049FF01
:101FB00008C04AFF09C04BFF0AC04CFF0BC04DFFD1
:101FC0004087010C74AE000C070E6F14060A2AE05D
:101FD000030A23E0010A1CE0070A15E0010A0EE0EB
:101FE000030A07E0010A23E10101600E126F0F0EE0
:101FF00022D00101500E126F0F0E1DD00101200ED4
:10200000126F0E0E18D00101300E126F0E0E13D08B
:102010000101400E126F0E0E0ED00101500E126F14
:102020000E0E09D00101600E126F0E0E04D00101D8
:10203000700E126F0E0E136F0D6A74AC02D00D8607
:10204000749C010EEA6A1225E96E1351EA22EF50E0
:10205000E824036E020EEA6A1225E96E1351EA22A1
:10206000EF50800BE844010B0312020EEA6A1225BE
:10207000E96E1351EA22EF50600BE824026E020E63
:10208000EA6A1225E96E1351EA22EF50030B100D94
:10209000F3500212030EEA6A1225E96E1351EA2286
:1020A000EF380F0B0212030EEA6A1225E96E135184
:1020B000EA22EF500F0B016E040EEA6A1225E96E58
:1020C0001351EA22EF50006E050EEA6A1225E96EFE
:1020D0001351EA22EF500F0B0C6E116B0C50115D77
:1020E00014E2060E1125EA6A1225E96E1351EA225E
:1020F000EF50E66E1151EA6A040FE96E000EEA2213
:10210000E552E750EF6E112BE9D7A4AE02D00D884F
:10211000A49E12C1E9FF13C1EAFFEF9EA492749E30
:10212000010CDACFE4FFE652E552E5CFDAFF110009
:10213000D8CFE4FFE0CFE4FFE46EDACFE4FFE6526D
:10214000E552E5CFDAFFE550E5CFE0FFE5CFD8FF78
:1021500010000101026B036B000E025D080E0359B3
:1021600059E2016B400E015D38E20151516A0225CE
:10217000506E03515122030ED89051325032E80470
:10218000FBE101010151EA6AA00FE96E000EEA22AB
:1021900050C0EFFF0129EA6AA00FE96E000EEA22A3
:1021A000EF6A006B060E005D15E20051EA6A120F3D
:1021B000E96E000EEA22EF50E66E01510025020F93
:1021C000EA6AA00FE96E000EEA22E552E750EF6ED0
:1021D000002BE8D7080E0127C5D7A00EE66E000E2B
:1021E000E66E400EE66E400E0225506E100E032184
:1021F000516E526A50C0E6FFE66E52C0E6FF67ECD1
:102200000CF0536E060EE15E400E01010227000E37
:102210000323A2D712000101036B100E035D01E33B
:10222000ADD0F00E80140311806E850E046F04078C
:10223000FEE182CF02F10351EA6A200FE96E000E3F
:10224000EA22EF500219506E0351EA6A300FE96E2C
:10225000000EEA22EF500219E81C5014006F0351DF
:10226000EA6A300FE96E000EEA2202C1EFFF016B4D
:10227000005101E181D00151EA6A400FE96E000E80
:10228000EA22EF50001576E00151EA6A400FE96E4C
:10229000000EEA22EF1C00170151E824506E0339AA
:1022A000F00B5010046F0151EA6A400FE96E000E06
:1022B000EA22EF50021501E104810451066F076B19
:1022C000D89006370737D89006370737D8900637A3
:1022D00007371EC000F01FC001F0DF0E026E8A0E2D
:1022E000036E080E0C6E056B046B080E045D2BE28A
:1022F000070E516A0625506E075151220451526E45
:10230000536A5250505CF66E53505158F76E400E5F
:10231000F626100EF7220800F550E66E0451EA6A20
:10232000040FE96E000EEA22E552E750EF6E045109
:10233000EA6A040FE96E000EEA22EF5002E0010E95
:10234000056F042BD2D7055104E004DE000901E13A
:10235000120001010151EA6A400FE96E000EEA2203
:10236000EFCF50F00351EA6A200FE96E000EEA2227
:102370005050EF1A012B7CD7032B4FD712001E5061
:10238000001818E11F50011815E10350800B0CE1F3
:102390001EC000F01FC001F0026A070E036E0C6A37
:1023A000D9DD000906E1FCD7010EE66EC6EC0CF0A3
:1023B000E5521200A70E02180BE1880E031808E17F
:1023C000B70EE66E880EE66E6EDCE552E552120040
:1023D000DF0E021805E18A0E031802E1010E486EB5
:1023E0001200F00E0314506E516AB00E501801E145
:1023F000515009E0F00E0314526E536AA00E5218A9
:1024000001E1535006E14B6A00C04CF001C04DF0B1
:1024100013D000504C1802E101504D180DE0000E91
:10242000E66EE66A00C0E6FF01C0E6FF82DCE55228
:10243000E552E552E55218D1496A0C50495C17E261
:10244000480E4B5C14E24950EA6A040FE96E000E34
:10245000EA22EF50E66E4B504B2AEA6AA00FE96E73
:10246000000EEA22E552E750EF6E492AE6D7F00E59
:102470000314506E516AD00E501801E151500AE019
:10248000F00E0314526E536AA00E521801E153501D
:1024900001E0EAD04C684D684B6A200E0001A05D57
:1024A00001E0D5D0EA0EE96E000EEA6EA3C0EFFFA0
:1024B000E90EE96E000EEA6EA4C0EFFFE80EE96EC9
:1024C000000EEA6EA5C0EFFF200E0001A15D34E111
:1024D0000001A6510EE1400E506E100E516E526A70
:1024E00050500001E82751500001E92352500001EB
:1024F000EA23FE0E0001A65D03E00001A6511BE1E8
:10250000A70EE66E000EE66E400EE66EE8C0E6FF31
:10251000E9C0E6FFEAC0E6FF67EC0CF0506E060E7D
:10252000E15E505000C0E6FF01C0E6FF7AEC0EF01D
:10253000E552E55299D08BD0600E0001A15D6DE1AE
:10254000FF0E0001A65D2FE1D40E506E280E516ED5
:10255000526A50500001E82751500001E9235250BF
:102560000001EA23A7C049F0A70EE66E000EE66E52
:102570004950E66EE8C0E6FFE9C0E6FFEAC0E6FFC4
:1025800030EC0CF0506E060EE15E505000C0E6FFDD
:1025900001C0E6FF070E4924E66EC8EC0EF0E552D6
:1025A000E552E55261D00001A6510EE1400E506E99
:1025B000100E516E526A50500001E8275150000130
:1025C000E92352500001EA23FE0E0001A65D03E05C
:1025D0000001A65121E1A7C049F0A70EE66E000E4A
:1025E000E66E4950E66EE8C0E6FFE9C0E6FFEAC0E5
:1025F000E6FF30EC0CF0506E060EE15E505000C06D
:10260000E6FF01C0E6FF070E4924E66EC8EC0EF0B7
:10261000E552E552E55228D01AD0A50E055C04E13A
:10262000FF0000EF00F013D0A70E055C04E1F29E5E
:10263000F29C3EDC0CD0A60E055C09E18ADD00C0F0
:10264000E6FF01C0E6FF7AEC0EF0E552E5520550D8
:10265000E66EE66A00C0E6FF01C0E6FF99EC0EF008
:10266000E552E552E552E5521200F26AC26A0F0ED7
:10267000C16E100E926E380E936E81849468D08E67
:10268000A66A20DCA56A9F6AA26A9D6AA06AA36AFC
:10269000F16AF06A9E6AA16AA46A010E406E020E97
:1026A000416E040E426E080E436E100E446E200EF4
:1026B000456E400E466E800E476EE66AC6EC0CF024
:1026C000E552800E4E6E500E4F6E818E819C4C688E
:1026D0004D684B6AA00EE66E000EE66E400EE66E8A
:1026E000400E506E100E516E526A50C0E6FFE66EFC
:1026F00052C0E6FF30EC0CF0536E060EE15E535014
:1027000001010D6B400E0D5D0FE20D51EA6AA00F45
:10271000E96E000EEA22EF5007E13F0E0D5D01E188
:1027200018DD01010D2BEED70D6B100E0D5D18E2BB
:102730000DC180FF850E0E6F0E07FEE10D51EA6A96
:10274000300FE96E000EEA2282CFEFFF0D51EA6AE8
:10275000200FE96E000EEA2282CFEFFF0D2BE5D7A6
:10276000870EE66E800EE66E53EC0EF0E552E552F3
:1027700027EC0CF0000975E0485002E0818C01D094
:10278000819C486A4F5001E04F0645DD4F5069E19A
:102790004E5067E04E061EC000F01FC001F0DF0E75
:1027A000026E8A0E036E080E0C6E4E504E2401010E
:1027B0000F6F106B070E4E14EA6A400FE96E000EA1
:1027C000EA22EFCF50F04E504E40E840E8401F0B59
:1027D000EA6A200FE96E000EEA22EF50501401E180
:1027E0000F81D8900F371037D8900F371037D89007
:1027F0000F3710370E6B0D6B080E0D5D2BE2070EB9
:10280000516A0F25506E105151220D51526E536A6C
:102810005250505CF66E53505158F76E400EF626EB
:10282000100EF7220800F550E66E0D51EA6A040F0B
:10283000E96E000EEA22E552E750EF6E0D51EA6AAA
:10284000040FE96E000EEA22EF5002E0010E0E6F57
:102850000D2BD2D70E5105E0AAEC0FF0000901E1D3
:102860004E2AE4EC0EF0E2EC0FF0000901E180D713
:102870001E50506EC00E1F10516E1E50021802E105
:102880005150031821E01E50526ED00E1F10536E8F
:102890001E50021802E15350031816E01E50546EE9
:1028A000B00E1F10556E1E50021802E1555003184D
:1028B0000BE01E50566EA00E1F10576E1E500218D1
:1028C00007E15750031804E1010E486E8ADD50D726
:0428D00056DD4ED7AC
:0C28D4003C6364693E3C69643E3C736FE9
:1028E0006674776172653E4F70656E4C434220504E
:1028F00049432043414E41434533204D61792032C5
:102900003220323031322031363A35383A33313CA8
:102910002F736F6674776172653E3C2F69643E3C2D
:102920007365206E613D224C6F636174696F6E2226
:10293000206F723D222330303830222073703D22C8
:10294000234645222062753D2223333233223E3C0A
:102950006368206E613D224C6F636174696F6E2203
:102960002073693D223634222F3E3C2F73653E3C56
:102970007365206E613D224E6F646520496422209C
:102980006F723D222330303430222073703D222379
:102990004645222062753D2223333433223E3C6972
:1029A0006E206E613D2253657269616C22207369ED
:1029B0003D2231222F3E3C696E206E613D224D65E5
:1029C0006D626572222073693D2233222F3E3C6284
:1029D00079206E613D2247726F7570222073693DC8
:1029E0002232222F3E3C2F73653E3C7365206E6180
:1029F0003D224576656E74204461746122207370B7
:102A00003D2230222062753D2223333633223E3C64
:102A10006772207265703D22313238223E3C627905
:102A2000206E613D224576656E74204F66662220D9
:102A300073697A653D2238222F3E3C6279206E61AF
:102A40003D224576656E74204F6E222073697A654B
:102A50003D2238222F3E3C2F67723E3C2F73653E4D
:072A60003C2F6364693E0096
:082A6800000EF36E00EE00F019
:102A7000030E01D81200EA6002D0EE6AFCD7F350D0
:082A8000E9601200EE6AFCD7C8
:020000040030CA
:0100010046B8
:0100020006F7
:010003001AE2
:01000500807A
:010006008178
:010008000FE8
:01000900C036
:01000A000FE6
:01000B00E014
:01000C000FE4
:01000D0040B2
:00000001FF
