:020000040000FA
:060000001EEF07F01200E4
:0800080007ED00F012000600F4
:0600100004EF08F01200ED
:060018000CEF08F01200DD
:06002000010001000100D7
:02002A000000D4
:060030001BEF07F01200B7
:09003600204572726F720D0A0080
:10004000010000000000FFFFFFFFFFFFFFFFFFFFB9
:10005000FFFFFFFFFFFFFFFFFFFFFFFFFFFFFFFFB0
:10006000FFFFFFFFFFFFFFFFFFFFFFFFFFFFFFFFA0
:10007000FFFFFFFFFFFFFFFFFFFFFFFFFFFFFFFF90
:100080004F70656E4C4342205049432052533233E7
:100090003220426F6F74204C6F616465722044653A
:1000A0006320303320323030392032333A30343A22
:1000B00033330000000000000000000000000000DA
:1000C00055736572206964656E74696669636174ED
:1000D000696F6E206E6F742079657420646566693F
:1000E0006E656400000000000000000000000000D9
:1000F0000000000000000000000000000000000000
:0E01000001002A00000046000000020000007E
:02010E00310EB0
:10011000B16E3C0EB36EB00EB26E1200A1A206D04C
:100120003C0EB36EB00EB26EA192010C000CD9CF92
:10013000E6FFE1CFD9FFD950FC0FE96EFF0EDA20C0
:10014000EA6EEF50F66ED950FD0FE96EFF0EDA2021
:10015000EA6EEF50F76ED950FE0FE96EFF0EDA200F
:10016000EA6EEF50F86ED950FB0FE96EFF0EDA2001
:10017000EA6EEF50EF0600090DE00900F90EDBCF43
:10018000E9FFDB2AFA0EDBCFEAFF01E3DB2AF5CF3A
:10019000EFFFE9D7E552E7CFD9FF1200D9CFE6FF4D
:1001A000E1CFD9FFD950FC0FE96EFF0EDA20EA6EDD
:1001B000EF50F66ED950FD0FE96EFF0EDA20EA6EB1
:1001C000EF50F76ED950FE0FE96EFF0EDA20EA6E9F
:1001D000EF50F86E940EA66EF2CF0DF1F29EF29CE7
:1001E000550EA76EAA0EA76EA6820DC1F2FF0A00D9
:1001F000D950FB0FE96EFF0EDA20EA6EEF50EF06E2
:10020000000926E0F90EDBCFE9FFDB2AFA0EDBCF8F
:10021000EAFF01E3DB2AEF50F56E0F00070EF6143C
:10022000070808E0D950FB0FE96EFF0EDA20EA6EEE
:10023000EF500DE1840EA66EF2CF0DF1F29EF29C0E
:10024000550EA76EAA0EA76EA6820DC1F2FFD0D7DB
:10025000A694E552E7CFD9FF1200D9CFE6FFE1CF50
:10026000D9FFE150FE0FE96EFF0EDA20EA6EEFCF04
:1002700000F1010100511CE10E0EE66E000EE66E6B
:100280000E0EE66E400EE66EE66AE66A50DF426EDD
:10029000060EE15E42500EC014F00FC015F010C003
:1002A00016F011C017F012C018F013C019F087D063
:1002B0000101010E006F036B14C004F115C005F1BC
:1002C00016C006F117C007F118C008F1060EE96E56
:1002D000010EEA6ED890EF36010EEB36020EEB36C9
:1002E00005BF0681030EE96E010EEA6ED890EF3667
:1002F000010EEB36020EEB36030EE96E010EEA6ECE
:10030000EECF09F1EECF0AF1EFCF0BF10C6B456A9E
:100310001450092715500A2316500B2345500C235F
:10032000A90E09274B0E0A237A0E0B23000E0C236D
:10033000090EE96E010EEA6EEECF14F0EECF15F065
:10034000EFCF16F00B0EE96E010EEA6EEF50E66E7F
:10035000090EE96E010EEA6EE552E750EF6E060EE9
:10036000E96E010EEA6EEECF42F0EECF43F0EFCF32
:1003700044F0456A4250092743500A2344500B2356
:1003800045500C2319C044F0456A175009271850EE
:100390000A2319500B2345500C23A30E09270C0EDA
:1003A0000A231B0E0B23000E0C23090EE96E010E0F
:1003B000EA6EEECF17F0EECF18F0EFCF19F0010193
:1003C000000508E01A501B1005E000011A1C2BE183
:1003D0001B1C29E114C01AF015C01BF015C042F017
:1003E00016C043F0040ED89043324232E804FBE1D9
:1003F00042501A1A43501B1A17501A1A18501B1A37
:1004000018C042F019C043F0040ED8904332423273
:10041000E804FBE142501A1A43501B1A0F0E1B1638
:100420000101010E006F1AC000F01BC001F0026A4A
:10043000036AF00E1214426EFF0E1314436E040E84
:10044000D89043324232E804FBE14250021243505A
:1004500003120C6A1ADB0009FDE0026A100E036E3B
:10046000FF0E1114426E0F0E1214436E4250021210
:10047000435003120ADB0009FDE0026A200E036EFE
:10048000F00E0F14426EFF0E1014436E040ED8903F
:1004900043324232E804FBE142500212435003125D
:1004A000F4DA0009FDE0026A300E036EFF0E0E144E
:1004B000426E0F0E0F14436E42500212435003124D
:1004C000E4DA0009FDE023DE0101036B0A0E0101FD
:1004D000035D0FE223DE000902E00101032BD7DAFE
:1004E0000009F4E01A500018F1E11B500118EEE188
:1004F000DFD600050FE10E0EE66E000EE66E0E0E64
:10050000E66E400EE66EE66AE66A48DE426E060E6B
:10051000E15E4250E552E7CFD9FF1200D9CFE6FFA6
:10052000E1CFD9FF1AC000F01BC001F0E150FC0F71
:10053000E96EFF0EDA20EA6EEECF02F0EFCF03F0A5
:10054000E00E0312020E0C6E100E046EE150FE0F50
:10055000E96EFF0EDA20EA6EEF50056E96DA0009BA
:10056000FDE0E552E7CFD9FF1200D9CFE6FFE1CF9A
:10057000D9FFE20EE96E000EEA6E05C0EFFFE10E54
:10058000E96E000EEA6E06C0EFFFE00EE96E000EA7
:10059000EA6E07C0EFFFA00EE66E000EE66E400E9C
:1005A000E66EE0C0E6FFE1C0E6FFE2C0E6FFBFDDC9
:1005B000426E060EE15E42500101006B016B400E7F
:1005C000005D5AE21AC000F01BC001F0D950FD0FC7
:1005D000E96EFF0EDA20EA6EEECF02F0EFCF03F005
:1005E0000250E00E0312080E0C6E01C104F000511F
:1005F000EA6AA00FE96E000EEA22EF50056E0029AC
:10060000EA6AA00FE96E000EEA22EF50066E020EB3
:100610000025EA6AA00FE96E000EEA22EF50076E8D
:10062000030E0025EA6AA00FE96E000EEA22EF50E1
:10063000086E040E0025EA6AA00FE96E000EEA2299
:10064000EF50096E050E0025EA6AA00FE96E000E54
:10065000EA22EF500A6E060E0025EA6AA00FE96E44
:10066000000EEA22EF500B6E10DA0009FDE0070ED3
:1006700001010027012BA3D7E552E7CFD9FF1200D4
:1006800000C0E6FF01C0E6FFE66A48DFE552E5523A
:10069000E55218EF00F01200D9CFE6FFA69EA69C07
:1006A000E150FD0FE96EFF0EDA20EA6EEF50A96E01
:1006B000A680A850E552E7CFD9FF1200D9CFE6FFB8
:1006C000A69EA69CE150FD0FE96EFF0EDA20EA6EB1
:1006D000EF50A96EE150FC0FE96EFF0EDA20EA6ED2
:1006E000EF50A86EA684F2CF00F1F29EF29C550E58
:1006F000A76EAA0EA76EA68200C1F2FFA694A6B2AC
:10070000FED7E552E7CFD9FF12003A0E936E040EE2
:10071000816EBF0E946E220EAF6EB06A080EB86E78
:10072000240EAC6E900EAB6E81900101800E006FB6
:100730000007FEE11C6A1200D9CFE6FFE1CFD9FF26
:10074000E150FE0FE96EFF0EDA20EA6EEF500F0B5C
:10075000300F01010D6FE850390802E2070E0D2736
:100760000DC1E6FF80D9E552E552E7CFD9FF12006F
:10077000D9CFE6FFE1CFD9FFE150FE0FE96EFF0EC2
:10078000DA20EA6EEF380F0BE66ED6DFE552D9506D
:10079000FE0FE96EFF0EDA20EA6EEF50E66ECCDF58
:1007A000E552E552E7CFD9FF1200D9CFE6FFE1CFFE
:1007B000D9FFD950FC0FE96EFF0EDA20EA6EEECFBA
:1007C000F6FFEECFF7FFEFCFF8FF0800F55016E089
:1007D000D950FC0FE96EFF0EDA20EA6EEFCFF6FF7C
:1007E000EE2AEFCFF7FF000EEE22EFCFF8FFEE225A
:1007F0000800F550E66E37D9E552DBD7E552E7CF72
:10080000D9FF1200D9CFE6FFE150FE0FE96EFF0ECF
:10081000DA20EA6EEFCF10F1300E0101105D06E331
:100820001051390803E3300E105D15D0410E105DF4
:1008300005E31051460802E3410E07D0610E105D3A
:1008400007E31051660804E3610E105D0A0F03D040
:10085000010E3C6E000EE552E7CFD9FF1200D9CF52
:10086000E6FFE1CFD9FFE150FD0FE96EFF0EDA2080
:10087000EA6EEF50E66EC6DFE552426EE66ED95084
:10088000FE0FE96EFF0EDA20EA6EEF50E66EBADF79
:10089000E552E552E7CF42F0100DF3504210E55219
:1008A000E7CFD9FF12003A0EE66EDDD8E552580EBA
:1008B000E66ED9D8E552010EE66E3EDFE5520350F2
:1008C000E66E56DFE5520250E66E52DFE552015009
:1008D000E66E32DFE5520050E66E4ADFE5524E0E1C
:1008E000E66EC1D8E55201010E6B0C500E5D0DE2B3
:1008F0000E51EA6A040FE96E000EEA22EF50E66E2E
:1009000037DFE55201010E2BF0D73B0EE66EABD878
:10091000E5520D0EE66EA7D8E5520A0EE66EA3D894
:10092000E552010C9AD8000901E1000C3A0E3B5C3B
:1009300002E11C6A000C3B0E3B5C0EE01D0E1C5CD1
:1009400001E31C6A1C501C2AEA6A1D0FE96E000EA6
:10095000EA223BC0EFFF000C1C501C2AEA6A1D0F64
:10096000E96E000EEA223BC0EFFF3C6A580E1D5CA8
:1009700003E0780E1D5C61E11E50E66E43DFE55238
:10098000036E2050E66E1F50E66E69DFE552E552B9
:10099000036E2250E66E2150E66E61DFE552E552AD
:1009A000026E2350E66E2EDFE552016E2550E66E94
:1009B0002450E66E54DFE552E552006E3C503DE1B6
:1009C0004E0E265C03E06E0E265C37E101010A0E36
:1009D0000E6F0D6B080E0D5D2BE20E51EA6A1D0FB6
:1009E000E96E000EEA22EF503B0822E00E29EA6A87
:1009F0001D0FE96E000EEA22EF50E66E0E51EA6A14
:100A00001D0FE96E000EEA22EF50E66E28DFE55278
:100A1000E552E66E01010D51EA6A040FE96E000E1F
:100A2000EA22E552E750EF6E0D2B020E0E27D2D7C9
:100A30000DC10CF01C6A3C500FE0360E426E000EE9
:100A4000436E446A42C0E6FFE66E44C0E6FFADDE98
:100A5000E552E552E552000C010C9EAA03D0AE50BF
:100A60003B6E010C000CD9CFE6FFE1CFD9FF9EA869
:100A7000FED7D950FE0FE96EFF0EDA20EA6EEF5076
:100A8000AD6EE552E7CFD9FF12000DDF010C92EFFA
:100A900004F01A50001802E11B50011816E103502F
:100AA000800B0DE11AC000F01BC001F002687F0E40
:100AB000036E0C6AEADF000901E1FCD705D0010EE4
:100AC000E66E2DEC01F0E55275D1010E021802E13F
:100AD000800E03181EE10050026EE00E0110036E3E
:100AE0001AC000F01BC001F0070E0C6E500E046E11
:100AF0001350056E1250066E1150076E1050086E9E
:100B00000F50096E0E500A6EC0DF000901E1FCD7DC
:100B100051D11A50426EE00E1B10436E4250021823
:100B200002E14350031801E045D1230E045C1CE1AF
:100B300000C046F001C047F0E20EE96E000EEA6E1A
:100B400005C0EFFFE10EE96E000EEA6E06C0EFFF92
:100B5000E00EE96E000EEA6E07C0EFFF3F68030E7D
:100B6000406E3D6A3E6A26D1F00E041401E09DD02D
:100B70003F50401001E199D00050461802E1015069
:100B800047180CE000C0E6FF01C0E6FF050EE66E68
:100B9000C5DCE552E552E5520DD186D00450416ED8
:100BA0004150F66EF76AD890F636F7368C0EF62678
:100BB0000E0EF7220900F5503F160900F5504016B9
:100BC000070E4102F350416E0101010E0F6F080E36
:100BD00001010F5D19E2400E415C16E201010F5167
:100BE000EA6A040FE96E000EEA22EF50E66E415009
:100BF000412AEA6AA00FE96E000EEA22E552E750A8
:100C0000EF6E01010F2BE3D73F5040104DE1E20E94
:100C1000E96E000EEA6EEF50010813E3A00EE66ED7
:100C2000000EE66E400EE66EE0C0E6FFE1C0E6FFB5
:100C3000E2C0E6FFCEEC00F0426E060EE15E4250EE
:100C40002AD0E20EE96E000EEA6EEF50F00823E1C2
:100C5000416A400E415C1FE24150EA6AA00FE96E12
:100C6000000EEA22EF50E66E4150446E456AE00EF7
:100C7000E96E000EEA6E4450EE24426E4550EE20BE
:100C8000436E42C0E6FF43C0E6FF18DDE552E55281
:100C9000E552412ADED746C0E6FF47C0E6FFE66AD6
:100CA0003DDCE552E552E55285D0220E045C08E1B8
:100CB00000C0E6FF01C0E6FF58DCE552E5527AD0FD
:100CC000200E045C0AE100C0E6FF01C0E6FFE66A10
:100CD00025DCE552E552E5526DD0520E045C04E18C
:100CE000FF0000EF00F066D0210E045C29E1A00EA9
:100CF000E66E000EE66E400EE66EE66A100EE66EDA
:100D0000E66A97EC00F0426E060EE15E425000018A
:100D1000C75112E00001C76BA00EE66E000EE66E32
:100D2000400EE66EE66A100EE66EE66ACEEC00F065
:100D3000426E060EE15E4250FF0000EF00F03AD036
:100D4000300E045C03E0510E045C0BE100C0E6FFD2
:100D500001C0E6FFE66A8EEC02F0E552E552E5528C
:100D600029D0400E045C06E0320E045C03E0370E2E
:100D7000045C0CE100C0E6FF01C0E6FF030EE66E76
:100D80008EEC02F0E552E552E55214D0410E045CBF
:100D900006E0340E045C03E0380E045C0BE100C096
:100DA000E6FF01C0E6FF040EE66E8EEC02F0E552AF
:100DB000E552E55212001AC000F01BC001F0030E0C
:100DC000026E800E036E0C6A60DE0009FDE08EECA0
:100DD00000F0000919E03D2A000E3E223F5040106D
:100DE00013E0140ED8803D54000E3E540DE246C070
:100DF000E6FF47C0E6FF020EE66E8EEC02F0E5521B
:100E0000E552E5523F6A406A42DE0009E0E041DE19
:100E1000DED70F0EC16E3C0E926E3B0E936E040E2B
:100E2000816E9468F16A71DC87EC00F03D6A3E6A7D
:100E3000818C818E1200EDDFDBEF06F010EE60F0AA
:100E400020EE60F036EC07F0270EF66E100EF76E0F
:100E5000F86A0800F55002E100EF08F0DADFE66A10
:0C0E60002DEC01F0E552A7DFFED71200D8
:040E6C00000EF36E13
:100E700000EE00F0030E01D81200EA6002D0EE6A24
:0C0E8000FCD7F350E9601200EE6AFCD7CA
:040E8C00FE03FD0361
:100E9000FB03F703EF03DF03BF037F03FF02FF0141
:06100000F7EF0FF01200F3
:021006000000E8
:0810080007ED08F012000600DC
:0610100037EF0EF01200A4
:061018003EEF0EF0120095
:1010200000010001000100005E2100008D00FFFFB3
:10103000FFFFFFFFFFFFFFFFFFFFFFFFFFFFFFFFC0
:101040004F70656E4C434220504943205253323317
:101050003220446563203034203230303920313042
:101060003A34333A3534000000000000000000003C
:101070000000000000000000000000000000000070
:10108000310EB16E3C0EB36EB00EB26E1200A1A264
:1010900006D03C0EB36EB00EB26EA192010C000CE5
:1010A000D9CFE6FFE1CFD9FFD950FC0FE96EFF0E93
:1010B000DA20EA6EEF50F66ED950FD0FE96EFF0EA2
:1010C000DA20EA6EEF50F76ED950FE0FE96EFF0E90
:1010D000DA20EA6EEF50F86ED950FB0FE96EFF0E82
:1010E000DA20EA6EEF50EF0600090DE00900F90E74
:1010F000DBCFE9FFDB2AFA0EDBCFEAFF01E3DB2AD5
:10110000F5CFEFFFE9D7E552E7CFD9FF1200D9CFEE
:10111000E6FFE1CFD9FFD950FC0FE96EFF0EDA20D0
:10112000EA6EEF50F66ED950FD0FE96EFF0EDA2031
:10113000EA6EEF50F76ED950FE0FE96EFF0EDA201F
:10114000EA6EEF50F86E940EA66EF2CF8DF2F29E1C
:10115000F29C550EA76EAA0EA76EA6828DC2F2FF54
:101160000A00D950FB0FE96EFF0EDA20EA6EEF504D
:10117000EF06000926E0F90EDBCFE9FFDB2AFA0EC5
:10118000DBCFEAFF01E3DB2AEF50F56E0F00070E1D
:10119000F614070808E0D950FB0FE96EFF0EDA20BD
:1011A000EA6EEF500DE1840EA66EF2CF8DF2F29E44
:1011B000F29C550EA76EAA0EA76EA6828DC2F2FFF4
:1011C000D0D7A694E552E7CFD9FF1200D9CFE6FFDA
:1011D000E1CFD9FFE150FE0FE96EFF0EDA20EA6E93
:1011E000EFCF80F2020180511CE10E0EE66E000E80
:1011F000E66E0E0EE66E400EE66EE66AE66A50DFBA
:101200004C6E060EE15E4C500EC014F00FC015F08F
:1012100010C016F011C017F012C018F013C019F06A
:1012200087D00201010E806F836B14C084F215C059
:1012300085F216C086F217C087F218C088F2860EB3
:10124000E96E020EEA6ED890EF36010EEB36020E12
:10125000EB3685BF8681830EE96E020EEA6ED8906A
:10126000EF36010EEB36020EEB36830EE96E020E00
:10127000EA6EEECF89F2EECF8AF2EFCF8BF28C6B73
:101280004F6A1450892715508A2316508B234F50CC
:101290008C23A90E89274B0E8A237A0E8B23000EEE
:1012A0008C23890EE96E020EEA6EEECF14F0EECFBB
:1012B00015F0EFCF16F08B0EE96E020EEA6EEF50CE
:1012C000E66E890EE96E020EEA6EE552E750EF6EA9
:1012D000860EE96E020EEA6EEECF4CF0EECF4DF0C8
:1012E000EFCF4EF04F6A4C5089274D508A234E5015
:1012F0008B234F508C2319C04EF04F6A175089270B
:1013000018508A2319508B234F508C23A30E892702
:101310000C0E8A231B0E8B23000E8C23890EE96E84
:10132000020EEA6EEECF17F0EECF18F0EFCF19F005
:101330000201800508E01A501B1005E000011A1C8C
:101340002BE11B1C29E114C01AF015C01BF015C0BD
:101350004CF016C04DF0040ED8904D324C32E804DB
:10136000FBE14C501A1A4D501B1A17501A1A1850FC
:101370001B1A18C04CF019C04DF0040ED8904D3215
:101380004C32E804FBE14C501A1A4D501B1A0F0E58
:101390001B160201010E806F1AC000F01BC001F085
:1013A000026A036AF00E12144C6EFF0E13144D6E97
:1013B000040ED8904D324C32E804FBE14C5002123E
:1013C0004D5003120C6AB9EC0EF00009FCE0026A01
:1013D000100E036EFF0E11144C6E0F0E12144D6E94
:1013E0004C5002124D500312B9EC0EF00009FCE013
:1013F000026A200E036EF00E0F144C6EFF0E1014D6
:101400004D6E040ED8904D324C32E804FBE14C5046
:1014100002124D500312B9EC0EF00009FCE0026A12
:10142000300E036EFF0E0E144C6E0F0E0F144D6E29
:101430004C5002124D500312B9EC0EF00009FCE0C2
:101440001FDE0201836B0A0E0201835D10E21FDEC4
:10145000000902E00201832BBFEC0EF00009F3E06B
:101460001A500018F0E11B500118EDE1DAD68005A2
:101470000FE10E0EE66E000EE66E0E0EE66E400EEC
:10148000E66EE66AE66A43DE4C6E060EE15E4C509E
:10149000E552E7CFD9FF1200D9CFE6FFE1CFD9FF60
:1014A0001AC000F01BC001F0E150FC0FE96EFF0E06
:1014B000DA20EA6EEECF02F0EFCF03F0E00E031277
:1014C000020E0C6E100E046EE150FE0FE96EFF0E60
:1014D000DA20EA6EEF50056EB9EC0EF00009FCE080
:1014E000E552E7CFD9FF1200D9CFE6FFE1CFD9FF10
:1014F000E20EE96E000EEA6E05C0EFFFE10EE96E46
:10150000000EEA6E06C0EFFFE00EE96E000EEA6E16
:1015100007C0EFFFA00EE66E000EE66E400EE66E10
:10152000E0C0E6FFE1C0E6FFE2C0E6FFB9DD4C6ED9
:10153000060EE15E4C500201806B816B400E805DB7
:101540005AE21AC000F01BC001F0D950FD0FE96E3D
:10155000FF0EDA20EA6EEECF02F0EFCF03F002507A
:10156000E00E0312080E0C6E81C204F08051EA6A8C
:10157000A00FE96E000EEA22EF50056E8029EA6A9C
:10158000A00FE96E000EEA22EF50066E020E8025D3
:10159000EA6AA00FE96E000EEA22EF50076E030E12
:1015A0008025EA6AA00FE96E000EEA22EF50086E6D
:1015B000040E8025EA6AA00FE96E000EEA22EF50C1
:1015C000096E050E8025EA6AA00FE96E000EEA2278
:1015D000EF500A6E060E8025EA6AA00FE96E000E33
:1015E000EA22EF500B6EC5DB0009FDE0070E020199
:1015F0008027812BA3D7E552E7CFD9FF120000C087
:10160000E6FF01C0E6FFE66A47DFE552E552E55234
:1016100018EF00F012001F0E6F166F8EE00E6F14A1
:101620008008FCE1030E706EDE0E716E030E726EAA
:10163000200E736E800E776E778A0D01F86B606AEC
:101640000F01506B0E01206B306B406B506B606B69
:10165000706B0F01186B1C6B080E196F1D6F1A6BE6
:101660001E6B1B6B1F6B0D01D469D569D86BF06BBA
:10167000F16BF26BF36B0F01016F056F096F0D6F6B
:10168000116F156F0D01616F656F696F716F756F08
:10169000796F816F856F896F916F1F0E6F16E00EE6
:1016A0006F14FDE112000201400E8D6F0F0E8E6F60
:1016B0008DC2E9FFEA6EEF50080B15E0300E8D6F1A
:1016C0000F0E8E6F8DC2E9FFEA6EEF50080B0BE034
:1016D000200E8D6F0F0E8E6F8DC2E9FFEA6EEF50F8
:1016E000080B01E0000CFC0E8DC2E9FF8EC2EAFF80
:1016F000E850EF16050EEA6A8D25E96E8E51EA2252
:101700000CC0EFFF03407F0B8009E66E010EEA6A12
:101710008D25E96E8E51EA22E552E750EF6E300ECC
:101720000214E8380F0B4D6EC00E0214E8407F0B18
:101730004C6E010E0314800DF3504C1008094D102F
:10174000E66E020EEA6A8D25E96E8E51EA22E552B6
:10175000E750EF6E0F0E0214100D0F0E0114F31070
:10176000E66E030EEA6A8D25E96E8E51EA22E55295
:10177000E750EF6E040EEA6A8D25E96E8E51EA227B
:1017800000C0EFFF8F6B0C508F5D14E28F51EA6A3F
:10179000040FE96E000EEA22EF50E66E060E8F256A
:1017A000EA6A8D25E96E8E51EA22E552E750EF6E26
:1017B0008F2BE9D78DC2E9FF8EC2EAFFEF86010CBD
:1017C00074AE000C070E6F14060A2AE0030A23E029
:1017D000010A1CE0070A15E0010A0EE0030A07E00F
:1017E000010A23E10201600E8E6F0F0E22D002016A
:1017F000500E8E6F0F0E1DD00201200E8E6F0E0E3A
:1018000018D00201300E8E6F0E0E13D00201400E62
:101810008E6F0E0E0ED00201500E8E6F0E0E09D07E
:101820000201600E8E6F0E0E04D00201700E8E6FDC
:101830000E0E8F6F0D6A74AC02D00D86749C010E73
:10184000EA6A8E25E96E8F51EA22EF50E824036E92
:10185000020EEA6A8E25E96E8F51EA22EF50800B64
:10186000E844010B0312020EEA6A8E25E96E8F51DD
:10187000EA22EF50600BE824026E020EEA6A8E251F
:10188000E96E8F51EA22EF50030B100DF350021254
:10189000030EEA6A8E25E96E8F51EA22EF380F0BAC
:1018A0000212030EEA6A8E25E96E8F51EA22EF508A
:1018B0000F0B016E040EEA6A8E25E96E8F51EA2243
:1018C000EF50006E050EEA6A8E25E96E8F51EA220E
:1018D000EF500F0B0C6E8D6B0C508D5D14E2060EED
:1018E0008D25EA6A8E25E96E8F51EA22EF50E66E69
:1018F0008D51EA6A040FE96E000EEA22E552E750C4
:10190000EF6E8D2BE9D7A4AE02D00D88A49E8EC2B7
:10191000E9FF8FC2EAFFEF9EA492749E010C3A0E7B
:10192000936E040E816EBF0E946E220EAF6EB06A7F
:10193000080EB86E240EAC6E900EAB6E8190020154
:10194000800E806F8007FEE11C6A1200D9CFE6FF8F
:10195000E1CFD9FFE150FE0FE96EFF0EDA20EA6E0B
:10196000EF500F0B300F02018D6FE850390802E283
:10197000070E8D278DC2E6FFDDD9E552E552E7CF90
:10198000D9FF1200D9CFE6FFE1CFD9FFE150FE0F1A
:10199000E96EFF0EDA20EA6EEF380F0BE66ED6DF47
:1019A000E552D950FE0FE96EFF0EDA20EA6EEF50D5
:1019B000E66ECCDFE552E552E7CFD9FF1200D9CF72
:1019C000E6FFE1CFD9FFD950FC0FE96EFF0EDA2018
:1019D000EA6EEECFF6FFEECFF7FFEFCFF8FF08008D
:1019E000F55016E0D950FC0FE96EFF0EDA20EA6ED2
:1019F000EFCFF6FFEE2AEFCFF7FF000EEE22EFCF8C
:101A0000F8FFEE220800F550E66E94D9E552DBD7D8
:101A1000E552E7CFD9FF1200D9CFE6FFE150FE0F24
:101A2000E96EFF0EDA20EA6EEFCF8FF2300E020180
:101A30008F5D06E38F51390803E3300E8F5D15D0BB
:101A4000410E8F5D05E38F51460802E3410E07D03A
:101A5000610E8F5D07E38F51660804E3610E8F5DB1
:101A60000A0F03D0010E3C6E000EE552E7CFD9FFFE
:101A70001200D9CFE6FFE1CFD9FFE150FD0FE96EAB
:101A8000FF0EDA20EA6EEF50E66EC6DFE5524C6ECE
:101A9000E66ED950FE0FE96EFF0EDA20EA6EEF50C7
:101AA000E66EBADFE552E552E7CF4CF0100DF35089
:101AB0004C10E552E7CFD9FF12003A0EE66E3AD944
:101AC000E552580EE66E36D9E552010EE66E3EDF5F
:101AD000E5520350E66E56DFE5520250E66E52DFE5
:101AE000E5520150E66E32DFE5520050E66E4ADF05
:101AF000E5524E0EE66E1ED9E55202018E6B0C5079
:101B00008E5D0DE28E51EA6A040FE96E000EEA2244
:101B1000EF50E66E37DFE55202018E2BF0D73B0E19
:101B2000E66E08D9E5520D0EE66E04D9E5520A0EAE
:101B3000E66E00D9E552010CE0D8000901E1000C85
:101B40003A0E3B5C02E11C6A000C3B0E3B5C0EE073
:101B50001D0E1C5C01E31C6A1C501C2AEA6A1D0F46
:101B6000E96E000EEA223BC0EFFF000C1C501C2A5D
:101B7000EA6A1D0FE96E000EEA223BC0EFFF3C6AE5
:101B8000580E1D5C03E0780E1D5C61E11E50E66E90
:101B900043DFE552036E2050E66E1F50E66E69DFAC
:101BA000E552E552036E2250E66E2150E66E61DF8B
:101BB000E552E552026E2350E66E2EDFE552016ECD
:101BC0002550E66E2450E66E54DFE552E552006E75
:101BD0003C503DE14E0E265C03E06E0E265C37E184
:101BE00002010A0E8E6F8D6B080E8D5D2BE28E51F9
:101BF000EA6A1D0FE96E000EEA22EF503B0822E070
:101C00008E29EA6A1D0FE96E000EEA22EF50E66E99
:101C10008E51EA6A1D0FE96E000EEA22EF50E66E61
:101C200028DFE552E552E66E02018D51EA6A040FA3
:101C3000E96E000EEA22E552E750EF6E8D2B020EA0
:101C40008E27D2D78DC20CF01C6A3C500FE0860E56
:101C50004C6E220E4D6E4E6A4CC0E6FFE66E4EC0D4
:101C6000E6FFADDEE552E552E552000C010CDACF9D
:101C7000E4FFE652E552E5CFDAFF1100D8CFE4FFEA
:101C8000E0CFE4FFE46EDACFE4FFE9CFE4FFEACF90
:101C9000E4FFE6529EAA14D04A504A2AEA6A000F8C
:101CA000E96E020EEA22AECFEFFF4A9EABB2AB98CE
:101CB0004A504B5C7F0B506E0A0E505C01E28180F3
:101CC0009EA80ED04950485C02E19D9809D0495029
:101CD000492AEA6A000FE96E010EEA22EF50AD6E62
:101CE000E552E5CFEAFFE5CFE9FFE5CFDAFFE550C2
:101CF000E5CFE0FFE5CFD8FF10009D9A4B504A5C3E
:101D000003E102018F6B13D04B504B2AEA6A000F9C
:101D1000E96E020EEA22EF503B6E4B9E0201010E6D
:101D20008F6F4A504B5C7F0B140801E281909D8AB3
:101D30008F511200D9CFE6FF9D98E150FE0FE96E5A
:101D4000FF0EDA20EA6EEF50E66E4850482AEA6A43
:101D5000000FE96E010EEA22E552E750EF6E49509E
:101D6000485C02E14804486E9D88E552E7CFD9FF00
:101D7000120099DC000901E1000C9FDE010C20DD5E
:101D8000000902E09ADE010CD7DE000904E08BDCDA
:101D90000009FDE0010C000C1A50001802E11B5074
:101DA000011816E10350800B0DE11AC000F01BC0B2
:101DB00001F002687F0E036E0C6ADBDF000901E1AF
:101DC000FCD705D0010EE66EE6EC08F0E5520ED128
:101DD000010E021802E1800E03181EE10050026E8F
:101DE000E00E0110036E1AC000F01BC001F0070ED8
:101DF0000C6E500E046E1350056E1250066E11508C
:101E0000076E1050086E0F50096E0E500A6EB1DF4B
:101E1000000901E1FCD7EAD01A504C6EE00E1B100D
:101E20004D6E4C50021802E14D50031801E0DED017
:101E3000200E045C05E1F29EF29CFFEC0AF0D6D085
:101E4000520E045C04E1FF0000EF00F0CFD0220E40
:101E5000045C09E100C0E6FF01C0E6FF74EC0AF093
:101E6000E552E552C3D0230E045C1BE100C046F0EE
:101E700001C047F0E20EE96E000EEA6E05C0EFFF0A
:101E8000E10EE96E000EEA6E06C0EFFFE00EE96EAD
:101E9000000EEA6E07C0EFFF4468030E456E436A0A
:101EA000A5D0F00E041468E14450451065E00050E0
:101EB000461802E1015047180DE000C0E6FF01C0DE
:101EC000E6FF050EE66E4CEC0AF0E552E552E552EF
:101ED0008DD051D00450406E4050F66EF76AD890C5
:101EE000F636F736EB0EF626210EF7220900F550EE
:101EF00044160900F5504516070E4002F350406E97
:101F0000010E3D6E080E3D5C17E2400E405C14E28F
:101F10003D50EA6A040FE96E000EEA22EF50E66EC9
:101F20004050402AEA6AA00FE96E000EEA22E5520C
:101F3000E750EF6E3D2AE6D7445045101CE1A00E55
:101F4000E66E000EE66E400EE66EE0C0E6FFE1C013
:101F5000E6FFE2C0E6FF87EC08F04C6E060EE15E9D
:101F60004C5046C0E6FF47C0E6FFE66A4CEC0AF07C
:101F7000E552E552E5523AD0300E045C03E0510ED2
:101F8000045C0BE100C0E6FF01C0E6FFE66A4CEC32
:101F90000AF0E552E552E55229D0400E045C06E015
:101FA000320E045C03E0370E045C0CE100C0E6FF77
:101FB00001C0E6FF030EE66E4CEC0AF0E552E55276
:101FC000E55214D0410E045C06E0340E045C03E0DC
:101FD000380E045C0BE100C0E6FF01C0E6FF040E12
:101FE000E66E4CEC0AF0E552E552E55212000F0E97
:101FF000C16E200E926E93DC40EC08F00BEC0BF0FF
:10200000D08E9F6AA26AA56A9D8AF28CF28E818E1A
:10201000819CE66AE6EC08F0E552550E4C6E220E05
:102020004D6E4E6A4CC0E6FFE66E4EC0E6FFC7DC62
:10203000E552E552E5521C6A1AC000F01BC001F0DF
:10204000020E026E800E036E0C6A93DE0009FDE044
:1020500047EC08F0000914E0432A4450451010E012
:10206000435014080DE246C0E6FF47C0E6FF020EEB
:10207000E66E4CEC0AF0E552E552E552446A456AD8
:102080007EDE000921E00DA60ED03C0E4C6E220E25
:102090004D6E4E6A4CC0E6FFE66E4EC0E6FF8FDC2A
:1020A000E552E552E5520DA80ED0230E4C6E220EDD
:1020B0004D6E4E6A4CC0E6FFE66E4EC0E6FF7FDC1A
:1020C000E552E552E55268DE4150765C22E07650FA
:1020D000416E130E4C6E220E4D6E4E6A4CC0E6FFE2
:1020E000E66E4EC0E6FF6BDCE552E552E5527650F7
:1020F000E66E48DCE5520F0E4C6E220E4D6E4E6AB7
:102100004CC0E6FFE66E4EC0E6FF59DCE552E552F4
:10211000E5524250755C9CE07550426EFF0E4C6E6D
:10212000210E4D6E4E6A4CC0E6FFE66E4EC0E6FFD5
:1021300046DCE552E552E5527550E66E23DCE55289
:102140000F0E4C6E220E4D6E4E6A4CC0E6FFE66ED0
:0E2150004EC0E6FF34DCE552E552E55279D789
:02215E003C58EB
:102160004D4C3E0D0A3C4E6F6465537472696E6748
:102170003E4F70656E4C43422050494320525332CB
:1021800033322044656320303420323030392031FE
:10219000303A34333A35343C2F4E6F6465537472A1
:1021A000696E673E0D0A3C4576656E7444617461E4
:1021B0003E0D0A3C2F4576656E74446174613E0D98
:1021C0000A3C4E6F64655661726961626C653E0DD2
:1021D0000A3C2F4E6F64655661726961626C653EA0
:1021E0000D0A3C2F584D4C3E0D0A00FE03FD03FB2B
:0F21F00003F703EF03DF03BF037F03FF02FF01CA
:0121FF002DB2
:102200004543414E205258455252434E5420002DD2
:102210000D0A002D4543414E205458455252434E1D
:102220005420002D4543414E20496E76616C69640F
:10223000206D6573736167652D0D0A002D4543415F
:102240004E20427566666572206F766572666C6FA9
:10225000772D0D0A000D0A5374617274204F70655A
:102260006E4C434220504943205253323332204473
:10227000656320303420323030392031303A343305
:0F2280003A35340D0A00204572726F720D0A0054
:10229000000EF36E00EE00F0030E01D81200EA60AB
:1022A00002D0EE6AFCD7F350E9601200EE6AFCD768
:020000040030CA
:0100010046B8
:010002000EEF
:010003001AE2
:01000500807A
:010006008178
:010008000FE8
:01000900C036
:01000A000FE6
:01000B00E014
:01000C000FE4
:01000D0040B2
:00000001FF
