:10000000863D040000000000000000000000000029
:1000100000000000000000000000000000000000E0
:1000200000000000000000000000000000000000D0
:1000300000000000663D000000000000000000001D
:1000400000000000000000000000000000000000B0
:1000500000000000000000000000000000000000A0
:100060000000000000000000000000000000000090
:100070000000000000000000000000000000000080
:107B0C006F962100F0FF270020A0B7001020200066
:107B1C0032A0B700400020004420B7008A1F780034
:107B2C008B1F78008B0021006A02210014FE0700D5
:107B3C00CDFF0700D2FF0700FEFF3700CF0578000E
:087B4C004F057800FFFF370030
:10738C006A00FA008A1F78008B1F78008C1F780027
:10739C008D1F7800BA0178002A027800C000200006
:1073AC0083007800040178000000E9000300350038
:1073BC000201D1008180D300FBFF370000002F00B9
:1073CC00008360009A007800F0FF2000808260004B
:1073DC001A01BE00000020000180200000006100A6
:1073EC00818061006000E1006088E100A9003A0042
:1073FC000020EF001007980010C4B300804D7800F7
:10740C00BA0178002A027800C000200083007800BE
:10741C00040178000000E900030035000201D100EE
:10742C008180D300FBFF37008101780000002F0022
:10743C00008060006000E1000300360000002F00B7
:10744C000083610001003700030378008A9FBE00AF
:10745C006DAA2B00050678000B05780086057800D0
:10746C000020EF00801F780060AA2B00801F78009E
:10747C000020EF00801F7800F0F807006F00B100CB
:10748C004F05BE007C814500EC00450064004500C2
:10749C008B1F7800800678001186FB001620EF0009
:1074AC00120578000020EF00801F780007F9070014
:1074BC002F00B100CF057800107020000030E100E3
:1074CC0001003A0003003700307020000030E1006A
:1074DC006A003A0062804500680040008B1F78000B
:1074EC0010057800F2F80700CF0578000007980027
:1074FC000E0090006000E100100032008A9FBE0078
:10750C000E059000E5F807004F05BE008A1F7800B5
:10751C000E0590008BF807004F057800628045003F
:10752C00680040008A9FBE0010057800E0F8070054
:10753C004F05BE0000079800EDFF37006280450044
:10754C00680040008A9FBE0010057800DBFC070035
:10755C004F05BE00000798000E0090006000E1008F
:10756C00100032008A9FBE000E059000DAFC070066
:10757C004F05BE008A1F78000E05900071F80700B9
:10758C004F05780062804500680040008A9FBE006D
:10759C0010057800C9FC07004F05BE0000079800D5
:1075AC00EDFF370062804500680040008A9FBE00F6
:1075BC0010057800B5FC07004F05BE0000079800C9
:1075CC000E0090006000E100100032008A9FBE00A7
:1075DC000E059000B4FC07004F05BE008A1F780012
:1075EC000E05900057F807004F05780062804500A3
:1075FC00680040008A9FBE0010057800A3FC0700BD
:10760C004F05BE0000079800EDFF37006280450073
:10761C00680040008A9FBE0010057800B3FC07008C
:10762C004F05BE0080007800010078006000E1008A
:10763C0011003200801F78008A9FBE000005780080
:10764C0037FF07004F05BE004F0078008A1F7800F7
:10765C00000578003BF807004F0578006280450074
:10766C00680040008A9FBE00100578009FFC070050
:10767C004F05BE00EDFF3700000037008A9FBE00AB
:10768C000B0578009E0590009FFC07004F05BE007F
:10769C00EF00370010C0B300804D780000002900C7
:1076AC000030E10067003A00BA0178002A02780045
:1076BC00C000200083007800040178000000E9007D
:1076CC00030035000201D1008180D300FBFF37009D
:1076DC00F0FF20000080600000017800680060006E
:1076EC006800E10038003A00640045001040780062
:1076FC000080FB00C800DD00640045000020EC00A9
:10770C001080FB0080807000F0FF20000080600083
:10771C0080017800829FBE00851F78008A9FBE0082
:10772C000005780034FC07004F05BE00CF0278003E
:10773C004F01BE001007980064004500104078000F
:10774C008080FB00000F2000008060008A9FBE003C
:10775C006DAA2B00050678000B05780082057800D1
:10776C00801F780060AA2B00801F7800831F780090
:10777C0032F807006F00B1004F05BE007C81450058
:10778C006C0045001080FB00E200500064004500D6
:10779C008B1F780080067800010678001620EF0019
:1077AC001205780020002000801F780047F80700A1
:1077BC002F00B100CF0578000B0578009E059000D6
:1077CC0051FC07001E0037008A9FBE006DAA2B00DB
:1077DC00050678000B057800820578000020EF0084
:1077EC00801F780060AA2B00801F78000020EF001B
:1077FC00801F780011F807006F00B1004F05BE0024
:10780C007C814500EC004500640045008B1F78002E
:10781C00800678001186FB001620EF001205780018
:10782C000020EF00801F780028F807002F00B1001F
:10783C00CF0578000B0578009E05900032FC070000
:10784C008300370000002A000030E10001003A00FC
:10785C000B00370000002B000030E10001003A0063
:10786C000700370000002C000030E10001003A0056
:10787C000300370000002D000030E10070003A00DA
:10788C00BA0178002A027800C0002000830078003A
:10789C00040178000000E900030035000201D1006A
:1078AC008180D300FBFF3700F0FF200000806000D8
:1078BC0080007800811F7800851F7800861F780073
:1078CC008A9FBE0000057800CBFB07004F05BE0069
:1078DC004F037800CF027800CF0078001007980093
:1078EC006000E100550032008A9FBE006DAA2B009B
:1078FC00050678000B057800860578000020EF005F
:10790C00801F780060AA2B00801F7800811F7800F0
:10791C00CAF707006F00B1004F05BE007C8145001F
:10792C00EC004500640045008B1F78008006780051
:10793C001186FB001620EF00120578000020EF00E6
:10794C00801F7800E1F707002F00B100CF05780009
:10795C00600047008B1F78000B05780080057800CD
:10796C00FEF90700CF057800004178006004E100C3
:10797C0007003A000E0090006000E10003003200A6
:10798C009E0590000E059000DFFB070030003700CD
:10799C000E0090006000E100020032000E05900025
:1079AC0068F707006214E10003003A0060AB2B009B
:1079BC00200798000A0037006314E10003003A0026
:1079CC00A0AB2B0020079800050037006414E100E1
:1079DC0003003A0080AB2B00200798000000370012
:1079EC004002200000004700101798006602470074
:1079FC006C804500E80140006C81450062804500C8
:107A0C0068004000E280450090067800020678008D
:107A1C00930578000405780064004700901F7800F7
:107A2C00811F7800BEFA07004F00B10066004700C6
:107A3C000005780025F60700050037000400370024
:107A4C0000002F000030E10001003A000000370078
:107A5C00CF0678004F067800CF0578004F057800E8
:087A6C000080FA000000060092
:105848000000FA00CEB897003EB99700CEF1970055
:105858007A0045000B0878006C004500680040009D
:1058680001087800EC0045000200780003000900F8
:10587800B018780062004500680040000C08780005
:10588800E20045000D00780003000900B018780018
:1058980076004500034878000080FA000000060002
:0058A80000
:1058D8000000FA004EB89700801F78008000200072
:1058E800801F7800AEF607004F00B1000080FA0074
:0458F80000000600A6
:1033A8000000FA004EB89700BEB9970061004500CA
:1033B8000B487800620045000C0878006068E1005E
:1033C8000D0032000820EF00610156000220E100E4
:1033D80009003C00640045008400400003004200EE
:1033E80000804600904878000220E1000200320088
:1033F8000820EC00F4FF37000080FA000000060007
:00340800C4
:1058BC008B1F78002B80800070FC07008000780024
:0C58CC0001007800CF0578000000060005
:104A88000420EF006058E100160032006C804500F9
:104A980068004000100078000050E1000220EF009C
:104AA80001003A0002A0EE00628045006800400064
:104AB800100078000050E1000020EF0001003A00EB
:104AC80000A0EE00008070000000E200020032004A
:104AD8008B00780004003700788045009005780046
:104AE800E8FF370082007800010078000000060027
:004AF800BE
:1058A8008B1F78004B00210091FC0700CF05780082
:0458B80000000600E6
:104AF8001B0078006000E100170032001B007800FE
:104B08000A00E10003003A0078004500900D7800A3
:104B1800110037009B007800788040001001780071
:104B2800010078006010E1000B0032000A10E1007B
:104B380004003A00F800400078004100900878002E
:104B480005003700820078007800410010017800E5
:0C4B580001007800F3FF370000000600A9
:105750000200FA001A4078008080FB000008200058
:10576000008060006000E100300032007C004500F5
:10577000100078006000E100270032001A40780035
:105780000080FB006F006000000798006100E100EE
:1057900006003A007C0045008A1F7800100578005A
:1057A000F0FC07004F0578001B0037000E0090004A
:1057B0006200E10006003A007C0045008A1F780084
:1057C00010057800A5FC07004F057800120037008F
:1057D0000E0090006400E10006003A007C004500E5
:1057E0008A1F78001005780015F807004F0578002B
:1057F000090037000E0090006800E10006003A0042
:105800007C0045008A1F78001005780017F8070013
:105810004F057800000037000020EF00004D7800B1
:10582000E0AA80000020ED00E0AA88000080FA00D5
:04583000000006006E
:104B64001A4078000080FB00610060006000E100F2
:104B740005003200009880000020ED0000988800B5
:0C4B84000020EF00004D7800000006004B
:104A5C001A4078000080FB00610060006000E100FB
:104A6C0005003200209480000020ED002094880086
:0C4A7C000020EF00004D78000000060054
:103840001A4078000080FB00610060006000E10029
:103850000500320020CB80000020ED0020CB880046
:0C3860000020EF00004D78000000060082
:10386C001A4078000080FB00610060006000E100FD
:10387C0005003200E09180000020ED00E09188000E
:0C388C000020EF00004D78000000060056
:1068C8008B1F78000B8080006DF80700800078002F
:0C68D80001007800CF05780000000600E9
:1068E4008B1F78000B00210082F80700CF05780089
:0468F400000006009A
:106898008B1F78002B80800079F807008000780033
:0C68A80001007800CF0578000000060019
:1068B4008B1F78002B0021008EF80700CF0578008D
:0468C40000000600CA
:1068F8008B1F78001B98800061F8070080007800E3
:0C69080001007800CF05780000000600B8
:10732C008B1F78002B302100F0F50700CF0578007B
:04733C000000060047
:106914002A00FA008A1F78008B1F78008C1F7800E9
:106924008D1F78008B1F78001620EF005CF10700A4
:10693400CF057800800178006000E1002C0032006F
:106944001A4078008080FB00000420000080600072
:106954006000E100220032007A0045001001780056
:10696400000027000010E1000220EF0001003A00BF
:1069740002A0EE00000026000010E1000020EF005D
:1069840001003A0000A0EE008080700000002500A5
:106994000010E1000020EF0001003A0000A0EE002A
:1069A40080807000000024000010E1000020EF004F
:1069B40001003A0000A0EE000080700004003200E4
:1069C4004BC0B30003057800ACF1070003003700A7
:1069D4002BC0B30003057800A8F1070003003700BB
:1069E4002BC0B30003057800A4F107004802370068
:1069F4001A4078008080FB000004200000806000C2
:106A04006000E100480032007A0045009000780000
:106A140021179800207020000008E10023003A00AC
:106A24007C0045001000780000A0EC001000780005
:106A34006000E10003003A008A002000FCFA07002D
:106A4400190037007C00450010007800E400400085
:106A54006C0045008A9FBE0080057800010578001F
:106A6400A9F807004F05BE006C004500000578003A
:106A740073F80700800578006000E1000A00320026
:106A84008B1F78000B0578002BC0B300CAF90700F0
:106A9400CF0578000000E200030032000B05780007
:106AA4008BC0B30075F10700190237001170200084
:106AB4002E1090000100E1001A003A007C0045000D
:106AC40010007800E40040006C0045008A9FBE007E
:106AD40080057800010578008BF807004F05BE009B
:106AE4006C0045000005780055F807008005780023
:106AF4006000E1000A0032008B1F78000B0578006B
:106B04002BC0B300ACF90700CF0578000000E20009
:106B1400030032000B0578001BC0B30057F10700D7
:106B2400FB013700FA0137001A4078000080FB00AF
:106B34006F006000401798006100E10072013A00A4
:106B44007A00450010007800680060006800E100E9
:106B540091003A006058E1008D0032007A0045004F
:106B6400900078002117980080DE20000008E100E2
:106B740018003A000020EF00200798006C0245003E
:106B8400E801420062014500E8004100640047005A
:106B94008B1F780084067800130678008BA02000F1
:106BA40000057800821F7800911F7800F7F707002E
:106BB4004F00B100CF0578000000E200040032006D
:106BC4000B057800AE059000ACF907000000370013
:106BD4006E003700814820002E1090000100E10073
:106BE40004003A000B0578000BC1B30023F1070041
:106BF40066003700819620002E1090000100E1000D
:106C040009003A008B1F78000B0578003BC0B300E5
:106C14000BF90700CF0578000B0578003BC0B300E3
:106C240070F9070059003700818220002E1090006F
:106C34000100E1001E003A00760045009080FB0050
:106C440000002200008060006000E10017003A00AC
:106C54000020EF00200798006C024500E801420084
:106C640062014500E8004100640047008B1F780082
:106C740084067800130678008B66200000057800EF
:106C8400821F7800911F7800C0F707004F00B10001
:106C9400CF0578000000E200040032000B05780004
:106CA400AE05900075F90700000037003700370083
:106CB40080062000AE1090000008E10001003A00B8
:106CC4003200370080A220000008E1000D003A00E5
:106CD400EC0045006200450080057800010578005D
:106CE40062F90700200798006000E1000400320008
:106CF4002E0590004CFA07002E05900093FA070029
:106D04002200370081A420002E1090000100E10031
:106D14000D003A00EC004500620045008005780053
:106D24000105780051F90700200798006000E10090
:106D3400040032002E0590003BFA07002E05900057
:106D440080FA070011003700E60247006C02450094
:106D5400E801420062014500E80041007A00450074
:106D640091067800040678009305780005057800FC
:106D7400901F7800821F7800BEF907004F00B10011
:106D8400660047000005780052F90700010037004B
:106D94005F013700DB0037007A004500900078007F
:106DA40031179800004920000008E1001D003A0056
:106DB4007C0045001000780000A0EC001000780072
:106DC4006000E10003003A000A01200018FA0700FD
:106DD400130037007C00450010007800E4004000F8
:106DE4006C0045008A9FBE0080057800010578008C
:106DF400C5F707004F05BE008B1F78001BC0B3000A
:106E040027F00700CF057800800578006000E100D6
:106E1400030032000B0578000BC1B30097F00700A4
:106E24003B013700418F20003E1090000100E1003B
:106E340044003A00F0FF2F0000079800F0FF2F00F5
:106E4400100798000E20EF00808D80000020ED00D8
:106E5400201798000038E10039003C00C138DD00FB
:106E6400C019210001004000900578008A9FBE00EF
:106E74008BC0B30010057800CFF807004F05BE00A3
:106E84000000E200150032007C004500100078008C
:106E9400E4004000600047008A9FBE0000067800BE
:106EA4000B05780081057800CEF707004F05BE007A
:106EB4000000E200080032006280450000A0EC00FF
:106EC4008A9FBE003CC0B3008E0590000005780088
:106ED40044EC07004F05BE00140037007C00450059
:106EE40010007800E4004000620047008A9FBE0062
:106EF400000678000B0578008105780074F8070017
:106F04004F05BE000000E200080032006280450028
:106F140000A0EC008A9FBE003CC0B3009E05900018
:106F2400000578002FEC07004F05BE002E109000DE
:106F34000038E100020032000E20EC00C2FF3700EE
:106F4400F3003700404A2000BE1090000008E10022
:106F540001003A00EE003700409120000008E100F3
:106F640042003A00F0FF2F0000079800F0FF2F00C6
:106F7400100798000E20EF00808D80000020ED00A7
:106F8400201798000038E10037003C00C138DD00CC
:106F9400C019210001004000900578008A9FBE00BE
:106FA4008BC0B3001005780083F807004F05BE00BE
:106FB4000000E200140032007C004500100078005C
:106FC400E4004000600047008A9FBE00000678008D
:106FD4000B05780081057800ECF807004F05BE002A
:106FE4000000E20007003200628045008A9FBE0074
:106FF4003CC0B3008E05900000057800F9EB070053
:107004004F05BE00130037007C00450010007800D7
:10701400E4004000620047008A9FBE00000678003A
:107024000B0578008105780045F907004F05BE007F
:107034000000E20007003200628045008A9FBE0023
:107044003CC0B3009E05900000057800E5EB070006
:107054004F05BE002E1090000038E10002003200FF
:107064000E20EC00C4FF3700A90037004052200076
:10707400BE1090000008E10001003A00A4003700AF
:10708400405920000008E10001003A00A000370048
:10709400009720000008E1001A003A001020EF00D9
:1070A400808D80000020ED00201798000040E10052
:1070B40013003C00C140DD00C01921000100400064
:1070C400900578008A9FBE003BC0B300100578008D
:1070D40044F807004F05BE008A9FBE000B057800E8
:1070E4003BC0B300D6F707004F05BE002E1090003A
:1070F4000040E100020032001020EC00E8FF3700FD
:1071040083003700820037004E1090006200E100D7
:1071140040003A00618045001080FB007000600070
:107124006000E10033003A001A4078008080FB00E0
:1071340000082000008060006000E10005003200CB
:107144008B1F78008A0578004F0578004BF80700FC
:10715400270037007A034500E202450068824200B6
:10716400EC014500688141007600450090407800BC
:10717400640047008A9FBE008506780014067800E4
:1071840096057800000578000180FB00801F7800D8
:10719400831F7800921F78004CF707006F00B1003E
:1071A4004F05BE000000E200110032002E009000E6
:1071B400FC0140007C01450012007800E40040001E
:1071C4001200780000A0EC008B1F7800FDFF2F0058
:1071D40010067800810578001305780096F70700FB
:1071E400CF0578000B057800AE05900023F8070062
:1071F400070037001A4078008080FB000008200058
:10720400008060006000E100010032004FF90700D7
:107214003F0037004E1090006400E1003C003A004B
:10722400618045001080FB00700060006000E10098
:107234002F003A001A4078008080FB0000082000EC
:10724400008060006000E100050032008B1F7800C0
:107254008A0578004F05780008F8070023003700F6
:10726400FA02450062024500E80142006C01450053
:10727400E8004100640047008A9FBE00840678004D
:10728400130678009505780000057800821F7800C1
:10729400911F78003BF707004F00B1004F05BE0077
:1072A4000000E200110032002E009000FC014000BA
:1072B4007C01450012007800E400400012007800D0
:1072C40000A0EC008B1F7800FDFF2F001006780053
:1072D400810578001305780057F70700CF0578007B
:1072E4000B057800AE059000E4F7070007003700AF
:1072F4001A4078008080FB000008200000806000B5
:107304006000E1000100320010F9070000003700BE
:10731400CF0678004F067800CF0578004F05780037
:087324000080FA0000000600E1
:102EA4000A00FA000020EF0000079800605CE100CF
:102EB40008003A0062014500680041009001780072
:102EC400E20047000200780003000900B01878000F
:102ED400070037006C01450068004100900178004C
:102EE400E20047000200780003000900B0187800EF
:102EF4006018E100220032000820EF00808D80007D
:102F0400610150000220E1001C003C00C120DD00F2
:102F1400C019210001004000100078006800400042
:102F240068004000100078000300E1000F003A0040
:102F3400C120DD00C019210001004000100078000C
:102F44000020EC001080FB00700060006000E100D5
:102F540006003A00C120DD00C01921000100400034
:102F64001000780000079800340037000220E100C8
:102F7400020032000820EC00E0FF37002F00370089
:102F84000820EF00808D8000E10150000320E10063
:102F94002A003C00C120DD00C019210001004000CE
:102FA4001000780068004000B0007800200178002C
:102FB400620047003008E1002090E1001B003A0065
:102FC400C120DD00C019210001004000100078007C
:102FD4006800400064004000B000780020017800E0
:102FE400660047003008E1002090E1000F003A003D
:102FF400C120DD00C019210001004000100078004C
:103004000020EC001080FB00700060006000E10014
:1030140006003A00C120DD00C01921000100400073
:103024001000780000079800040037000320E10036
:10303400020032000820EC00D2FF37000E0090009E
:083044000080FA000000060004
:10308000FC0045000B80FB001100700080087800F8
:043090000000060036
:105634000200FA000620EF00808D80006101500016
:105644000218E1001C003C00C118DD00C019210053
:105654000100400010007800000798000020EC00D2
:105664001080FB00620060006200E1000E003A005E
:105674000E0090000020EC001080FB007000600021
:105684006000E10004003A000E0090007C0040003D
:1056940010087500040037000E009000FC00400064
:1056A4000020EF00800878000218E10002003200B8
:1056B4000620EC00E0FF37000080FA00000006003E
:0056C400E6
:104D0C0064814500620045001080FB008000EB00D0
:104D1C000089BE0064834500E482450061004500C3
:104D2C009081FB000002EB00820020000300780061
:104D3C00840078000201E900030035000000D00077
:104D4C008180D200FBFF3700351B7000259370006B
:104D5C00E4814500648145001A4078000080FB0026
:104D6C008000EB00800078000000EB00B2197000AE
:104D7C00A2917000650045001080FB008000EB00E4
:104D8C00808DBE00640045001082FB008002EB00A9
:104D9C00800020000401BE000000E9000300350083
:104DAC000201D0008381D200FBFF37001B00BE0044
:104DBC00821D700083957000630045001080FB001D
:104DCC008000EB00800178000001EB001B00BE00AE
:0C4DDC00821D700083957000000006002E
:104C44000C20EF000E20EF00808D8000E102500068
:104C54000538E10029003C00C138DD00C0192100FD
:104C64000100400010007800680240001A01BE00F4
:104C74001400BE000200E1000388E1001B003A00BA
:104C8400C138DD00C0192100010040001000780087
:104C94006800400064024000640045001001BE004A
:104CA4001400BE000200E1000388E1000F003A0096
:104CB400C138DD00C0192100010040001000780057
:104CC4000020EC001080FB00700060006000E10038
:104CD40006003A00C138DD00C0192100010040007F
:104CE4001000780080007800050037000538E100E6
:104CF400020032000E20EC00D3FF3700860078005B
:084D0400010078000000060028
:1051BC00610045009080FB000B80FB00808060004C
:1051CC000B80FB000008E1000220EF0001003A0018
:0C51DC0002A0EE000100780000000600B8
:104B90000200FA004EBB9700BEBB97001020EF004A
:104BA00047F507000000E200220032009A0078007A
:104BB00010C8B30080487800600047008A1F780062
:104BC0000005780061F507004F0578000000E2005D
:104BD000100032008A1F78001A0578000020EF00CC
:104BE000801F7800871F7800861F78001603070053
:104BF0006F00B1004F0578001A007800FC004000FB
:104C00000E00900080087800F0FF2F0080007800F0
:104C1000070037008A1F78001A057800CC020700C9
:104C20004F0578000020EF00000D78008800780024
:104C30000100370088007800010078000080FA0049
:044C4000000006006A
:1020C0008A1F78000820EF000A20EF00E0012000BE
:1020D0000501B800403021000200400010407800A7
:1020E0008080FB0000082000008060006000E100AC
:1020F0000E003A00E00120000501B8004030210048
:10210000020D40009A00780000C8B30080487800B3
:102110001A057800B9F90700E0AA80000020EC0059
:10212000E0AA8800F1FF2F00050037007328E100C6
:10213000020032000A20EC00E4FF3700840078003F
:0C214000010078004F0578000000060048
:1007FC000020EF00004D7800FA0045000020EF00CB
:10080C0080087800F80045000020EF008008780090
:10081C006C004500E80040000020EF0080087800E4
:10082C006C01450061AA2B00030009003119780006
:10083C0062004500E80040000020EF0080087800CE
:10084C006201450061AA2B000300090031197800F0
:10085C00FC0045000020EF0080087800F600450001
:0C086C000020EF0080487800000006002B
:10214C008A1F78008B1F78000220EF000098800017
:10215C006A00E100210031000820EF00C0002000DF
:10216C000401B800802821000200400010407800D3
:10217C000080FB00610060006000E10012003A008A
:10218C00C00020000401B80080282100020D40008E
:10219C001620EF001A0578008BF90700C00020000C
:1021AC000401B800802821008200400010C0B30058
:1021BC0080487800009880000020EC00009888008F
:1021CC00F1FF2F00050037006920E100020032000A
:1021DC000820EC00E1FF3700000037000100780018
:0C21EC00CF0578004F05780000000600C9
:1007D4008B1F78001600E200030032008B0020001B
:1007E40082FF0700020037001620EF007FFF07009A
:0807F400CF05780000000600AB
:1005F000E10045000020EF00804878000020EF0077
:10060000004D7800E20045000020EF0080087800EF
:100610000620EF00618155000218E10008003C004F
:1006200064004500830040000020EF00804878000F
:100630000218E100020032000620EC00F5FF37004E
:0406400000000600B0
:105280000002200000004500100078006000E100EE
:1052900004003A0000022000000045000B087800DE
:1052A0000C0037000002200000004500900078004C
:1052B00078804000100078006000E10003003200B8
:1052C0007880400090007800F9FF37007880400037
:0852D0000B0878000000060045
:105044008C1F78008B1F78008BC0B3005A000700B8
:10505400CF0578000000E2000E0032000E20EF00C1
:105064006200450000A0EC008A9FBE000B46780059
:105074008705780000057800DAF307004F05BE00C5
:105084006138E100020032000E20EC00F4FF37002A
:105094000D0037000E20EF006200450000A0EC0078
:1050A4008A9FBE000B4678008705780000057800CB
:1050B400CCF307004F05BE006138E1000200320066
:1050C4000E20EC00F4FF37004F06780000000600C5
:0050D400DC
:101FE80042DADE00840278004220DD0000805500DD
:101FF8000003780032C0B300C100DD000280FB009E
:102008000100DD0080C1EA0004014500040045002C
:102018009080FB000380FB0000806000004978008E
:10202800C130DD000C80FB008101DD0005014500A9
:10203800050045009080FB000380FB0000807000D5
:082048000049780000000600C9
:1051E8008C1F78008B1F78008BC0B300F1FF07007D
:1051F800CF0578000000E2000D0032000E20EF001D
:10520800620045008A9FBE000B467800870578003B
:105218000005780072F307004F05BE006138E10011
:10522800020032000E20EC00F5FF37000C003700BA
:105238000E20EF00620045008A9FBE000B467800F2
:10524800870578000005780065F307004F05BE0064
:105258006138E100020032000E20EC00F5FF370053
:085268004F067800000006006B
:1052700077F3070080007800010078000000060046
:005280002E
:102050000200FA00158080006028E10015003200BF
:10206000628042008B1F780080057800DBFA070051
:10207000CF0578000000E2000A0032006C804200C8
:102080008A9FBE000B05780080057800D3FA070010
:102090004F05BE000000E200020032000507980074
:1020A0000400370010808000780040009002780023
:1020B000E9FF37000E0090000080FA0000000600E3
:0020C00020
:100BDC000200FA000020EF000007980068014500B1
:100BEC006880450090007800120078000100E10058
:100BFC000E003A001B01BE001A00BE000200E1000C
:100C0C000388E10009003A00640245006480450055
:100C1C001001BE001400BE000200E1000388E100D8
:100C2C0002003A00F0FF2F00000798000E00900021
:080C3C000080FA000000060030
:08562C00A104070000000600C4
:08574800ABF2070000000600AF
:1021F8008B1F78007C004500900078004004200088
:10220800808040000020EF00800878004B0021000B
:0C22180002FA0700CF0578000000060065
:100A24001B0078006000E10002003A008A0D7800A3
:100A34000B0037001B0078008000780078804000AD
:100A4400100078006000E10003003200788040006C
:100A540090007800F9FF3700788040000A08780099
:040A64000000060088
:105478000000FA008B1F78008C1F78008D1F7800C1
:10548800CEB897000020EF00801F7800811F7800B9
:105498008D1F78008C0678000B0678008B0620009C
:1054A800E70007006F00B10010C0B300004D78009E
:1054B8007C00450010007800E20040004000200019
:1054C800800878007C00450010007800E400400067
:1054D80000C2B300804878007C00450010007800C6
:1054E80064004000E10040000020EF0080487800A0
:1054F8007C0045001000780064004000E200400095
:105508006A0057000020EC001040780080487800BE
:105518007C0045001000780064004000E300400073
:105528006EF0970080487800CF0678004F06780024
:0C553800CF0578000080FA00000006009B
:0852D800DBEE070000000600F8
:100E48002E00FA008B1F78001A4078000080FB0003
:100E58006F006000601798006100E1002D013A0002
:100E68000020EF00206F98001A4078008080FB0077
:100E780000042000008060006000E100AB00320048
:100E88007A00450090037800000027000038E10050
:100E98001F003A007A004500900078000001EB003E
:100EA800C000200081027800020378000000E900F9
:100EB800030035008502D0000683D200FBFF37000F
:100EC80062024500640042001001BE0000002F00CD
:100ED800F10F200000006100818061000081720034
:100EE8008101730068004200100078008000EB0068
:100EF80000027100818271000100200002002100BF
:100F08007E004700011872000290720086003700C8
:100F1800000026000038E10025003A007A0045006C
:100F2800900078000001EB00C000200081027800EA
:100F3800020378000000E900030035008502D000B4
:100F48000683D200FBFF370062024500E40042003E
:100F5800C00020001101BE000000E90003003500B8
:100F68000201D0008381D200FBFF370000002F0070
:100F7800F10F200000006100818061000081720093
:100F88008101730068004200100078008000EB00C7
:100F9800000271008182710001002000020021001E
:100FA8007E00470001187200029072005E00370050
:100FB800000025000038E1001E003A007A004500D4
:100FC800900078000001EB00C0002000810278004A
:100FD800020378000000E900030035008502D00014
:100FE8000683D200FBFF3700620245001401BE00F1
:100FF80000002F00F10F20000000610081806100D7
:1010080000817200810173006800420010007800BE
:101018008000EB0000027100818271000100200055
:10102800020021007E004700011872000290720041
:101038003D003700000024000038E10025003A0098
:101048007A004500900078000001EB00C000200005
:1010580081037800020478000000E90003003500ED
:101068008703D0000884D200FBFF370062034500E5
:101078001602BE00C00020000401BE000000E90006
:10108800030035000201D0008381D200FBFF370046
:1010980000002F00F10F2000000061008180610036
:1010A800008173008101740068004300100078001B
:1010B8008000EB00000271008182710001002000B5
:1010C800020021007E0047000118720002907200A1
:1010D800150037007A004500100278008002EB0006
:1010E800C00020000401BE000000E9000300350034
:1010F8000201D0008381D200FBFF37006200450067
:1011080068004000100078008000EB0000027100C9
:101118008182710001002000020021007E0047004A
:101128000118720002907200550037007A004500DD
:101138009000780000002F008080600000002900E7
:101148000008E10023003E007A03450016027800FB
:101158008002EB00C00020000401BE000000E9008E
:10116800030035000201D0008381D200FBFF370065
:101178006200450068004000100078008000EB0025
:10118800000271008182710001002000029021009C
:101198007E00470001187200029072001600780065
:1011A800680060006800E10009003A006C00450032
:1011B800E8004000618040001040780020679800F7
:1011C800114078003067980020C0B300206F980065
:1011D8002B0037007A0045009000780000002F00AF
:1011E8008080600000002F000008E10024003E001D
:1011F8007A004500900078000001EB00C000200054
:1012080081027800020378000000E900030035003D
:101218008502D0000683D200FBFF37006C00450032
:1012280068004000900178000002EB00C200200036
:1012380003007800840078000201E900030035000B
:101248000000D0008180D200FBFF370000817200CF
:1012580081017300620045006800400010007800BA
:101268008000EB0000027100818271000100200003
:10127800020021007E0047000118720002907200EF
:101288000620EF007C0045001000780000A0EC006C
:1012980010007800610150000218E10014003C00C1
:1012A800A0022000000047009080FB0020022000E0
:1012B80000004700810040007C00450010007800D5
:1012C800640040000300400090487800A00220001D
:1012D800000047001080FB000020EC00206F980001
:1012E8000218E100020032000620EC00E5FF37009A
:1012F800E00047007E0047008A1F780081057800DB
:10130800000578005AFD07004F0578000E11070008
:10131800100037006E1090006200E10002003A00F1
:10132800B30307000B0037006E1090006400E10063
:1013380002003A0004110700060037006E10900002
:101348006800E10002003A00C5FD0700010037000F
:10135800FD100700CF0578000080FA0000000600A5
:0013680085
:100878000C00FA008C1F7800A0C3B300804D7800EC
:10088800E180450080C5B3008048780060004700DB
:100898008A9FBE00000678001A05BE00D6FE070033
:1008A8004F05BE00E28045000E4090008048780069
:1008B800E38045001E40900080487800E4804500B1
:1008C8002E40900080487800E58045003E4090002A
:1008D80080487800E68045004E40900080487800C7
:1008E800E78045005E40900080487800E880450039
:1008F8006E40900080487800E98045007E40900076
:1009080080487800EA804500E0C4B3008048780059
:10091800B50020006C004500104078006004E1003C
:10092800220036000820EF006C0045001080FB0014
:100938000020ED00500798000020E10019003C005D
:100948006400450084004000600047008A9FBE00A4
:10095800800578001185FB00FBFE07004F05BE00EF
:1009680005007800808045000E409000804878009F
:1009780061804200808045001E40900080487800D9
:10098800E28042005E0090000020E1000300320097
:100998000820EC0081027800E3FF370001017800AD
:1009A80001003700050178000100370005017800D3
:1009B8000200780080804500B0C3B300804878000A
:1009C8000420EC00020078008080450000C0B300DD
:1009D80080487800020078004F0678000080FA000E
:0409E8000000060005
:100400000200FA000B079800E001470061804100FC
:10041000104078000080FB004400DE008080FB007C
:1004200050A52B008100400011407800004E78005C
:100430006101460061804100104078000080FB00AF
:10044000EF00600050A52B008100400011407800B3
:100450000049780062014600600047001080FB0000
:100460004400DE008080FB0050A52B00810040008E
:1004700011407800004978006301460060004700A1
:100480001080FB00EF00600050A52B0081004000B1
:1004900011407800004978000A079800640146007E
:1004A00061804100104078000080FB004400DE00C5
:1004B0008080FB0050A52B00810040001140780097
:1004C00000497800650146006180410010407800D5
:1004D0000080FB00EF00600050A52B008100400071
:1004E000114078000049780066014600600047002E
:1004F0001080FB004400DE008080FB0050A52B0034
:1005000081004000114078000049780067014600F2
:10051000600047001080FB00EF00600050A52B003A
:10052000810040001140780000497800E800460052
:100530000020EF00804878000080FA0000000600EC
:00054000BB
:100550000000FA0043012000618041001040780053
:100560000080FB004400DE008080FB0050A52B00D3
:100570008100400011407800804D78006181450085
:1005800061804100104078000080FB00EF006000B7
:1005900050A52B00810040001140780000497800F0
:1005A000628145000A80FB004400DE008080FB0081
:1005B00050A52B00810040001140780000497800D0
:1005C000638145000A80FB00EF00600050A52B000E
:1005D000810040001140780000497800E480450027
:1005E0000020EF00804878000080FA00000006003C
:0005F0000B
:100A68008B1F78007C00450090007800600820000B
:100A7800808040000020EF00800878002B302100A3
:0C0A8800E6FF0700CF0578000000060024
:104DE8000800FA000820EF000020EF00000E78000D
:104DF8001C0078006200E10010003D001C007800F3
:104E0800C300DD0060A92B00010040008A1F780064
:104E180000057800F6EF07004F0578000000E20073
:104E280002003200F1FF2F00240037001C00780038
:104E38000020EC00000E7800EDFF37000020EF00A6
:104E4800000E78001C0078006000E1001A003D00A8
:104E5800600047008C1F78008B1F78009C05780045
:104E680000067800DFEF0700CF0578004F067800CE
:104E78000000E2000C003200600047008A1F780042
:104E880000057800DAEF07004F0578000000E2001F
:104E9800050032001C00780000A0EC00000E78002D
:104EA800F1FF2F00050037001C0078000020EC00FF
:104EB800000E7800E3FF37008400780001007800D6
:084EC8000080FA000000060062
:100DF800F2FF2F000620EF006818E1000020EF0046
:100E080001003D0000A0EE00020060000900320071
:100E18000300450083804500104078001104E1007C
:100E2800020032000220EF00030037000620EC0029
:100E3800F1FF37008200780001007800000006000A
:000E4800AA
:0C0DEC000220EF0001007800000006006B
:1050D4000800FA000820EF000020EF00000E78001E
:1050E4001C0078006200E10010003D001C00780004
:1050F400C300DD0060A62B00010040008A1F780079
:10510400000578003BEF07004F0578000000E2003F
:1051140002003200F1FF2F00240037001C00780049
:105124000020EC00000E7800EDFF37000020EF00B7
:10513400000E78001C0078006000E1001A003D00B9
:10514400600047008C1F78008B1F78009C05780056
:105154000006780089F00700CF0578004F06780034
:105164000000E2000C003200600047008A1F780053
:10517400000578001FEF07004F0578000000E200EB
:10518400050032001C00780000A0EC00000E78003E
:10519400F1FF2F00050037001C0078000020EC0010
:1051A400000E7800E3FF37008400780001007800E7
:0851B4000080FA000000060073
:0C1380000220EF000100780000000600D1
:105390000800FA000820EF000020EF00000E78005F
:1053A0001C0078006200E10010003D001C00780045
:1053B000C300DD0060A72B00010040008A1F7800B9
:1053C000000578008CEE07004F0578000000E20031
:1053D00002003200F1FF2F00240037001C0078008B
:1053E0000020EC00000E7800EDFF37000020EF00F9
:1053F000000E78001C0078006000E1001A003D00FB
:10540000600047008C1F78008B1F78009C05780097
:1054100000067800D7EF0700CF0578004F06780028
:105420000000E2000C003200600047008A1F780094
:105430000005780070EE07004F0578000000E200DC
:10544000050032001C00780000A0EC00000E78007F
:10545000F1FF2F00050037001C0078000020EC0051
:10546000000E7800E3FF3700840078000100780028
:085470000080FA0000000600B4
:0C1374000220EF000100780000000600DD
:105544000800FA000820EF000020EF00000E7800A9
:105554001C0078006200E10010003D001C0078008F
:10556400C300DD0060A82B00010040008A1F780002
:10557400000578001FEE07004F0578000000E200E8
:1055840002003200F1FF2F00240037001C007800D5
:105594000020EC00000E7800EDFF37000020EF0043
:1055A400000E78001C0078006000E1001A003D0045
:1055B400600047008C1F78008B1F78009C057800E2
:1055C4000006780067EF0700CF0578004F067800E3
:1055D4000000E2000C003200600047008A1F7800DF
:1055E4000005780003EE07004F0578000000E20094
:1055F400050032001C00780000A0EC00000E7800CA
:10560400F1FF2F00050037001C0078000020EC009B
:10561400000E7800E3FF3700840078000100780072
:085624000080FA0000000600FE
:0C1368000220EF000100780000000600E9
:104ED0000200FA004EBB9700BEBB97004EF497004D
:104EE0001220EF0076F407000000E20022003200FA
:104EF0009A00780020C8B30080487800600047001E
:104F00008A1F7800000578008DEF07004F057800B4
:104F10000000E200100032008A1F78001A057800B5
:104F20000880FB00801F7800871F7800861F7800AC
:104F3000450207006F00B1004F0578001A007800A5
:104F4000FC0040000E00900080087800F0FF2F0069
:104F500080007800070037008A1F78001A05780063
:104F6000FB0107004F0578000020EF00000D7800DE
:104F7000890078000100370089007800010078007E
:084F80000080FA0000000600A9
:100D40008A1F78008B1F78000220EF00209480001B
:100D50006100E100210031000820EF006004200064
:100D60000401B800E0232100020040001040780098
:100D70000080FB00610060006000E10012003A00AA
:100D8000600420000401B800E0232100020D4000AF
:100D90001620EF001A05780080FE0700600420008E
:100DA0000401B800E02321008200400010C0B3001D
:100DB00080487800209480000020EC002094880077
:100DC000F1FF2F00050037006020E1000200320033
:100DD0000820EC00E1FF3700000037000100780038
:0C0DE000CF0578004F05780000000600E9
:10079C008B1F78001600E200030032000B042000CF
:1007AC0090FF0700020037001620EF008DFF0700B6
:1007BC0040042000800045000020EF0080087800F5
:0807CC00CF05780000000600D3
:08503C002CEF07000000060044
:100CF0001A00E20003003200E20045000020EF008D
:100D0000800878000420EF000C10E1000B003D008B
:100D1000E4004500620045009080400002804500EC
:100D200090487800E2004500110078000020EC00B7
:100D3000800878000420EC00F3FF37000000060074
:000D4000B3
:104F88000200FA004EBB9700BEBB97001020EF004E
:104F980049F407000000E200220032009A0078007D
:104FA80040C8B30080487800600047008A1F780036
:104FB8000005780021EF07004F0578000000E200A7
:104FC800100032008A1F78001A0578000020EF00D0
:104FD800801F7800871F7800861F78001802070056
:104FE8006F00B1004F0578001A007800FC004000FF
:104FF8000E00900080087800F0FF2F0080007800F5
:10500800070037008A1F78001A057800CE010700CC
:105018004F0578000020EF00000D78008800780028
:105028000100370088007800010078000080FA004D
:04503800000006006E
:100C44008A1F78008B1F78000220EF0020CB8000E1
:100C54006100E100210031000820EF006040200025
:100C64000401B800E0552100020040001040780063
:100C74000080FB00610060006000E10012003A00A7
:100C8400604020000401B800E0552100020D40003E
:100C94001620EF001A05780053FF0700604020007B
:100CA4000401B800E05521008200400010C0B300E8
:100CB4008048780020CB80000020EC0020CB880006
:100CC400F1FF2F00050037006020E1000200320030
:100CD4000820EC00E1FF3700000037000100780035
:0C0CE400CF0578004F05780000000600E6
:1009EC008B1F78001600E200030032000B40200041
:1009FC00FCFE0700020037001620EF00F9FE07008E
:100A0C0040402000800045000020EF008008780066
:080A1C00CF0578000000060080
:106804000620EF000820EF00808D80006101500019
:106814000220E1001C003C00C120DD00C019210061
:10682400010040001000780068004000680040004B
:10683400100078000A00E1000F003A00C120DD00DA
:10684400C019210001004000100078000020EC0075
:106854001080FB00700060006000E10006003A0058
:10686400C120DD00C01921000100400010007800A3
:1068740080007800050037000220E10002003200A9
:106884000820EC00E0FF3700830078000100780066
:0468940000000600FA
:106168000800FA008A1F78008B1F78008C1F7800BF
:106178008D1F78000020EF00004798000020EF00F6
:10618800800D78008B1F78000B8080004BFD070086
:10619800CF057800100798007A0045009000780035
:1061A8003107980000002A000008E10042003A0088
:1061B8001E0090006000E1003E003A007C004500AF
:1061C80010007800640040009040780000C2B300DE
:1061D800000CE10001003A000300370000C3B300DF
:1061E800000CE10030003A0062024500E80142007C
:1061F8006C014500E8004100620047008A9FBE002C
:1062080084067800130678008BC421000005780006
:106218000020EF00801F7800821F7800911F78000F
:1062280029FB07006F00B1004F05BE000000E20027
:106238001A0032001E0090007C0040001000780018
:10624800E20040007C0045001000780000A0EC004F
:10625800900878001E009000FC0040007C0045007B
:106268008B1F7800900578001105780027FD07003E
:10627800CF0578001E0090007C0040009000780058
:1062880040042000808040000020EF008008780053
:106298001E009000800D78009B00370020C0B300DE
:1062A800004798000200370040C0B300004798003C
:1062B800000037009400370001002B003E009000DA
:1062C8000100E10035003A001E0090006000E10086
:1062D80031003A0062024500E80142006C014500C5
:1062E800E8004100620047008A1F780084067800B1
:1062F800130678008BC42100000578000020EF0009
:10630800801F7800821F7800911F7800EEFA07003E
:106318006F00B1004F0578000000E2001D00320058
:106328001E0090007C00400010007800E200400051
:106338007C0045001000780000A0EC009008780070
:106348001E009000FC0040007C0045008A1F780079
:106358009005780011057800ECFC07004F057800DF
:106368001E0090007C00400090007800400420004F
:10637800808040007C0045001000780000A0EC0000
:10638800900878000B0021001E059000A3E9070083
:106398005D003700000037005B00370001002C006B
:1063A8003E0090000100E10021003A001E0090002C
:1063B8006000E1001D0032001E009000FC0140005A
:1063C8007C01450012007800E400400012007800CB
:1063D80000A0EC008A1F78001A20EF001006780051
:1063E80081057800130578003FEA07004F0578001B
:1063F8001E0090007C0140009200780040042000BC
:10640800808140000200780090007800400420005D
:10641800008140007C00450010007800E200400048
:106428001200780091094000370037003600370025
:1064380001002D003E0090000100E10032003A000A
:106448001E0090006000E1002C0032001E00900049
:10645800FC0140007C01450012007800E400400087
:106468001200780000A0EC008B1F78001A20EF00C3
:106478001006780081057800130578001AEA0700ED
:106488001E0090007C00400090007800400420002E
:10649800808040000020EF00800878000B00210079
:1064A8001E05900092F90700CF0578001E009000A5
:1064B800800D78001E0090007C00400010007800DD
:1064C800640040009040780000C2B300000CE10076
:1064D80001003A000300370000C3B300000CE100DC
:1064E80003003A000020EF00004798000200370040
:1064F80040C0B300004798000200370030C0B30026
:1065080000479800000037000E409000CF06780042
:106518004F067800CF0578004F0578000080FA0014
:046528000000060069
:1056C4000C20EF008B0278006028E1000D0032000E
:1056D4008A9FBE008A057800050578002DF1070031
:1056E4004F05BE000000E200030032000500780010
:1056F400800078000400370078804200900278002F
:10570400F1FF3700860078000100780000000600F1
:0057140095
:101B98000200FA008A1F78008B1F78000020EF00EF
:101BA80000079800EC0045006C8045008A9FBE0045
:101BB800800578000105780006FC07004F05BE0087
:101BC8000000E20009003200E200450062804500A2
:101BD8008005780001057800FEFB07000000E200A0
:101BE80002003200F0FF2F00000798000E0090005E
:101BF800CF0578004F0578000080FA000000060045
:001C0800DC
:105714000420EF0062804500100078000010E100D2
:1057240007003D006400450082004000648045009D
:1057340002004000904878000420EC00F5FF370098
:04574400000006005B
:10652C000000FA008A1F78008B1F78008C1F7800FF
:10653C008D1F7800CEB897003EBA97000020EF0070
:10654C00801F7800811F78008D1F78008C067800E2
:10655C000B0678008BA42000B8FC07006F00B1007C
:10656C0010C0B300004D78007C004500FDFF2F00EB
:10657C002C0020008405780010057800ACFA070088
:10658C00CF0678004F067800CF0578004F057800CD
:08659C000080FA000000060077
:107A74000020EF003080880037FB0700C8FA0700B9
:087A840003FB070000000600EF
:10675C008A1F78000C20EF00400220000601B800D0
:10676C0040032100020040008002780006487800B7
:10677C0005057800D7FA070000022000808042004F
:10678C000020EF008008780020022000808042006A
:10679C000020EF0080087800688242000601780033
:1067AC00CF91DE000070200011002000020040009C
:1067BC0083804800008ABE0068804200640140006B
:1067CC0010102000510020000089BE007280420091
:1067DC00E20040006880420003000900B018780015
:1067EC006930E100020032000C20EC00DAFF3700C7
:0867FC004F05780000000600C3
:1052E00072004500E10040000020EF008048780097
:1052F000F20045000020EF0080487800680045007B
:10530000E80040000020EF0080087800FE00450023
:105310000020EF00804878000420EF006200450084
:1053200000A0EC00820040000020EF0080487800E0
:105330006010E100020032000420EC00F7FF3700AB
:105340000420EF0062004500820040000020EF00D2
:10535000804878006010E100020032000420EC0078
:10536000F8FF37000420EF006200450064004000B1
:10537000820040000020EF00804878006010E100CB
:10538000020032000420EC00F7FF370000000600A6
:005390001D
:1065A4008A1F78008B1F78000820EF00C0002000AD
:1065B4000401B8008028210002004000FBFF2F00E6
:1065C4000005780082E807006920E100020032003B
:1065D4000820EC00F5FF37000020EF000098880049
:1065E4000820EF00600420000401B800E02321002B
:1065F40002004000FBFF2F000005780066E807005A
:106604006020E100020032000820EC00F5FF3700B2
:106614000020EF00209488000820EF006040200054
:106624000401B800E055210002004000FBFF2F00E8
:1066340000057800ECE807006020E1000200320069
:106644000820EC00F5FF37000020EF0020CB880085
:106654000820EF00E00120000401B80040302100D0
:10666400020040000005780063E807007420E100A0
:10667400020032000820EC00F6FF37000020EF0093
:10668400E0AA8800CF0578004F05780000000600D6
:0066940006
:106694000200FA008A1F78008B1F78000100200096
:1066A400808D80006A00E10026003D00CDEF0700E8
:1066B400800478006048E100200032000905780079
:1066C40006FB07001BC0B300090578001EF0070095
:1066D40009007800104078006004E10003003600EF
:1066E4008BC0B3000905780017F007000900780093
:1066F4006800400068004000000798000900780026
:106704007200400000A0EC001620EF0000057800A5
:106714004DF207008E00900080087800808D800084
:10672400C100DD00C0192100010040000908780003
:10673400808D80000020EC00808D88008900780026
:106744000000370001007800CF0578004F0578007D
:086754000080FA0000000600BD
:1025E8000220EF000820EF00400220000401B8009C
:1025F8004003210002004000000178000020EC00A8
:102608001080FB00610060006000E10003003A00F8
:102618000200780080007800040037006920E1009B
:10262800020032000820EC00EFFF370001007800BC
:042638000000060098
:10274C00610145009280FB000B80FB000080700053
:08275C000049780000000600AE
:10304C001600E20001003200ECFA0700ADFA0700AE
:10305C00800078006008E10004003A00E7FA0700FD
:10306C00A8FA070080007800000037000100780003
:04307C00000006004A
:101C0800E4004500900020001103BE000000E90038
:101C1800030035000603D0008783D200FBFF37009E
:101C28001A02BE00F00020000401BE000000E90016
:101C3800030035008301D1000281D300FBFF370088
:101C4800F01F200001002000000061008180610079
:101C58000001730081817300F0FF2F00F10F200055
:101C680000036100818361001A02BE009000200019
:101C78000401BE000000E900030035000201D000A5
:101C88008381D200FBFF3700F0FF2F00F10F200007
:101C980000016100818161001A00BE00020140005C
:101CA8008381480090BA2400A1072000001D41004C
:101CB8000195490064024500640045003001430075
:101CC800A0814B0030CA2000B1012000001A410059
:101CD8000192490064044500640045001001BE00FB
:101CE800F0FF2F00F10F20000003610081836100E5
:101CF8001A01BE000000200001F02F000002610060
:101D080081826100820120000400BE000201E90016
:101D1800030035008100D1000080D300FBFF3700AD
:101D2800001C7300019473001A01BE00F0FF2F001D
:101D3800F10F2000001D6100019561000000060000
:001D48009B
:101B1000E40045001A00780091026800BA017800DC
:101B20002A027800C20020000300780084007800B8
:101B30000201E900030035008100D1000080D300DC
:101B4000FBFF370000826A00E4014500C20020006C
:101B50001300BE000201E900030035008100D1003E
:101B60000080D300FBFF370000016A00F0FF200077
:0C1B700080006100010078000000060009
:107A8C008A1F780030808000610060006000E10097
:107A9C000900320096F70700800078006000E100D2
:107AAC000200320001057800A9F707005EF7070015
:107ABC005FF7070060F707004F057800000006002D
:007ACC00BA
:1058FC00E5F5070001002000808D80006000E100CC
:10590C0010003400808D8000E1005000201B21002D
:10591C001008E10002003D000020EF00908D88008F
:10592C00908D8000C100DD00C019210001004000F5
:10593C0090007800908D80000020EC00908D880005
:10594C0000003700EAF507000100780000000600AF
:00595C004B
:10309400309480000020EC0030948800000006008A
:0030A4002C
:1030FC00309480000020ED003094880030948000E3
:10310C006000E10002003C000020EF0030948800D9
:04311C0000000600A9
:10595C000A00FA008A1F78008B1F78008C1F7800D1
:10596C008D1F78000020EF00000798007E00450096
:10597C0010417800024F98006014E10008003A00D2
:10598C0072004500E10040000020EF0080487800E4
:10599C00FE00450030C0B30080487800E9013700B4
:1059AC006114E10014003A006800450068004000F2
:1059BC00300798007200450000A0EC008A1F7800A8
:1059CC001620EF00000578009DF507004F057800C4
:1059DC00BE0090008008780072004500E100400095
:1059EC000020EF0080487800FE00450030C0B30076
:1059FC0080487800D30137000E4890006204E10023
:105A0C000A003A007200450000A0EC008A1F7800E2
:105A1C000005780079F007004F057800FE0045007E
:105A2C0010C0B30080487800C60137000E489000C3
:105A3C006304E1003E003A00AAF507000000E20012
:105A4C003A003200720045006101400012407800BB
:105A5C006004E10005003A0000002700010020006E
:105A6C0010079800210798001800370012407800A2
:105A7C006104E10005003A0000002600010020004E
:105A8C00100798002107980010003700124078008A
:105A9C006204E10005003A0000002500010020002E
:105AAC001007980021079800080037001240780072
:105ABC006304E10005003A0000002400010020000E
:105ACC001007980021079800000037006801450076
:105ADC00E8004100600047008A1F780082067800C9
:105AEC00110678009E0590000005780060AA2B0036
:105AFC00801F78000020EF00801F780066F50700FB
:105B0C004F00B1004F0578000000E20007003200A2
:105B1C008A1F78000E059000C8EC07004F0578002E
:105B2C00FE00450040C0B300804878008501370076
:105B3C000E4990006414E10015003A007200450013
:105B4C000020EC00104078006304E10009003100F3
:105B5C0072004500E10040001180FB000020EC00C9
:105B6C0080487800FE00450030C0B30080487800C3
:105B7C0006003700FE00450050C0B3008048780096
:105B8C00F20045000020EF00804878006D013700DE
:105B9C006514E10008003A007200450010407800DE
:105BAC006504E10003003600FE00450060C0B30050
:105BBC0080487800630137006614E10025003A0044
:105BCC00FCFF2F002B00200052F207000000E20027
:105BDC0004003200FE00450020C0B300804878006D
:105BEC001B0037003FF507000000E20018003200F0
:105BFC0068014500E8004100600047008A1F7800FA
:105C0C0082067800110678000B70200000057800E1
:105C1C0060AA2B00801F78000020EF00801F780006
:105C2C001DF507004F00B1004F0578000000E200A1
:105C3C00070032008A1F78000E0590007FEC0700E9
:105C4C004F057800FE00450080C0B3008048780006
:105C5C003C0137000E4890006804E10035003A0022
:105C6C00FCFF2F002B0020002AF207000000E200AE
:105C7C0004003200FE00450020C0B30080487800CC
:105C8C002B00370017F507000000E2002800320057
:105C9C0068014500E8004100600047008A1F780059
:105CAC0082067800110678001B7020000005780031
:105CBC0060AA2B00801F78000020EF00801F780066
:105CCC00F5F407004F00B1004F0578000000E2002A
:105CDC0017003200E80045000E0090007C004000E8
:105CEC0010007800640040008A1F7800800578005E
:105CFC000105780012F207000E0090007C004000B5
:105D0C0010007800E200400060002000800878005D
:105D1C000E05900049EC07004F0578002BC0B3002E
:105D2C0087F20700FE00450090C0B3008048780061
:105D3C00040137000E4890006904E10035003A0078
:105D4C00FCFF2F002B002000F2F107000000E20006
:105D5C0004003200FE00450020C0B30080487800EB
:105D6C002B003700DFF407000000E20028003200AF
:105D7C0068014500E8004100600047008A1F780078
:105D8C0082067800110678000B10200000057800C0
:105D9C0060AA2B00801F78000020EF00801F780085
:105DAC0078FB07004F00B1004F0578000000E200BF
:105DBC0017003200E80045000E0090007C00400007
:105DCC0010007800640040008A1F7800800578007D
:105DDC0001057800DAF107000E0090007C0040000D
:105DEC0010007800E200400060002000800878007D
:105DFC000E05900011EC07004F0578004BC0B30066
:105E0C004FF20700FE004500A0C0B30080487800A8
:105E1C00CC0037000E4890006A04E1001A003A00EA
:105E2C0068014500E8004100600047008A1F7800C7
:105E3C006DAA2B001820EF000B97200000057800AE
:105E4C00821F7800911F78004EFB07004F00B100B5
:105E5C004F0578000000E2000A003200FE00450009
:105E6C00B0C0B3008048780087F407008A0578003A
:105E7C000E059000A40207000E05900031FE0700ED
:105E8C009BF40700AF0037000E4890006B04E10054
:105E9C0019003A007CF407008A1F7800DEF0070036
:105EAC004F05780000A0EE000D0032008A1F78002C
:105EBC0029F207004F05780000A0EE000800320020
:105ECC008A1F7800DAF107004F05780000A0EE0079
:105EDC00030032008A1F78006CF607004F0578002B
:105EEC008A1F780091F407004F05780089F40700A9
:105EFC007FF40700930037000E4890006C04E1001B
:105F0C002D003A0077F407000000E200290032006F
:105F1C0068014500E8004100600047008A1F7800D6
:105F2C0082067800110678003B702000000578008E
:105F3C0060AA2B00801F78000020EF00801F7800E3
:105F4C0055F407004F00B1004F0578000000E20047
:105F5C0018003200E80045000E0090007C00400064
:105F6C0010007800640040008A1F780080057800DB
:105F7C000105780072F107000E0090007C004000D3
:105F8C0010007800E20040006000200080087800DB
:105F9C000E059000A9EB07004F0578002BC0B3004D
:105FAC0016F507001FF60700FE00450020C0B300E1
:105FBC0080487800630037000E4890006D04E100C3
:105FCC002D003A0047F407000000E20029003200DF
:105FDC0068014500E8004100600047008A1F780016
:105FEC0082067800110678003B70200000057800CE
:105FFC0060AA2B00801F78000020EF00801F780023
:10600C0025F407004F00B1004F0578000000E200B6
:10601C0018003200E80045000E0090007C004000A3
:10602C0010007800640040008A1F7800800578001A
:10603C000105780042F107000E0090007C00400042
:10604C0010007800E200400060002000800878001A
:10605C000E05900079EB07004F0578002BC0B300BC
:10606C00E6F40700EFF50700FE004500E0C0B300C2
:10607C0080487800330037000E4890006E04E10031
:10608C0029003A0017F407000000E2002500320056
:10609C0068014500E8004100600047008A1F780055
:1060AC0082067800110678004B5B20000005780012
:1060BC0060AA2B00801F78000020EF00801F780062
:1060CC00B0FA07004F00B1004F0578000000E20065
:1060DC00140032000E0090007C004000100078008C
:1060EC00E200400080002000800878000E00900044
:1060FC007C0040001000780064014000E1AA2B00F5
:10610C0007000900315978008A1F78000E059000AD
:10611C004AEB07004F057800FE004500F0C0B300C5
:10612C0080487800070037000E4890006F04E100AB
:10613C0001003A0003003700FE004500C0C0B30068
:10614C0080487800CF0678004F067800CF0578009D
:0C615C004F0578000080FA0000000600EB
:0C30F000F1FF2F00010078000000060036
:1030A4000000FA004EB89700BEB89700811F780060
:1030B400801F7800B50607004F00B100800178003A
:1030C4000600E200060032001A017800124078007F
:1030D4008080FB000004200000807000004978001C
:0C30E400030078000080FA0000000600E5
:102520007C004500108065000B00E1000420EF00F6
:1025300001003A0004A0EE001800E20001003200A1
:0C2540008EFD070002007800000006007D
:101B7C00FC0045000B40780000E0EE000080FB000C
:0C1B8C00110060008008780000000600D6
:10254C00640145001200BE00010078008000EB0021
:10255C00804D780061824500E40145008200200036
:10256C001300BE000201E900030035008100D10018
:10257C000080D300FBFF3700004A7800E280450062
:10258C006400450090487800638145001A00BE0045
:10259C00010078008000EB0000497800E4824500DF
:1025AC00BA0178002A02780082002000030078002B
:1025BC00840078000201E900030035008100D1009D
:1025CC000080D300FBFF3700804A7800658145000E
:0C25DC001A00BE00004978000000060054
:102224000200FA008A1F78008B1F78008C1F780048
:102234008D1F78001220EF000020EF0000079800A7
:102244007C004500100078006000E100AB00320023
:10225400A60307000000E200A60032007C0045004F
:1022640010007800670060006000E1003E0032006A
:102274007C00450010007800610060006000E1000F
:1022840009003200FC004500E00F2000110060004E
:1022940080087800FE004500D0C0B3008048780074
:1022A400F0FF2F002F0037007C004500100078005D
:1022B400620060006000E10009003200FC0045009B
:1022C400D00F20001100600080087800FE00450057
:1022D400C0C0B30080487800F0FF2F002100370011
:1022E4007C00450010007800640060006000E1009C
:1022F4001B00320068014500E8004100600047000F
:102304008A1F780082067800110678000B7020007E
:102314000005780060AA2B00801F78000020EF00E1
:10232400801F78005E0307004F00B1004F0578005E
:102334000000E20008003200FC004500B00F20005D
:1023440011006000800878000E059000BDFA0700B7
:10235400F0FF2F000100370009007800010037006A
:1023640009007800610037007C0045001000780007
:10237400680060006000E1002B0032006801450045
:10238400E8004100600047008A1F78008206780058
:10239400110678001B7020000005780060AA2B004D
:1023A400801F78000020EF00801F78003C030700A6
:1023B4004F00B1004F0578000000E2001800320021
:1023C400E80045000E0090007C00400010007800FA
:1023D400640040008A1F78008005780001057800B9
:1023E400590007004F057800FC004500700F2000DD
:1023F40011006000800878000E0090007C0040000E
:1024040010007800E200400060002000800878009E
:102414000E0590008BFA0700F0FF2F000100370033
:1024240009007800310037007C0045001000780076
:10243400700060006000E1002B003200680145007C
:10244400E8004100600047008A1F78008206780097
:10245400110678000B1720000005780060AA2B00F5
:10246400801F78000020EF00801F7800C709070054
:102474004F00B1004F0578000000E2001800320060
:10248400E80045000E0090007C0040001000780039
:10249400640040008A1F78008005780001057800F8
:1024A400290007004F057800FC004500F00E2000CD
:1024B40011006000800878000E0090007C0040004D
:1024C40010007800E20040006000200080087800DE
:1024D4000E0590005BFA0700F0FF2F0001003700A3
:1024E40009007800010037000900780080007800B6
:1024F4000100370089007800010037008900780066
:1025040001007800CF0678004F067800CF057800E8
:0C2514004F0578000080FA00000006006F
:102764000E00FA008A1F78008B1F78008C1F7800F7
:102774008D1F78001220EF006200450000A0EC00DD
:102784008A1F7800000578006EFD07004F05780069
:102794000000E200DC0032000020EF000047980057
:1027A40062004500E2004000600047008A1F780094
:1027B4008005780001057800BCFD07004F0578000E
:1027C40080017800F1FF2F000100E100CC0034000B
:1027D4000020EF00200798000E4090006304E10001
:1027E40003003A00704C2000100798000C003700DA
:1027F4000E4090006104E10003003A00404C2000C8
:1028040010079800060037000E4090006204E100B3
:1028140003003A00504C20001007980000003700D5
:10282400610045001080FB00680060006000E1006A
:10283400590032006218E100300035006218E100EE
:102844002C003D00E280510066004700000678003D
:102854008105780064F907000000E20023003200DB
:1028640068014500E80041006400470082067800E2
:10287400110678009E0590000005780060AA2B00E0
:10288400801F78000020EF00801F7800BF08070039
:102894004F00B1000000E20012003200E6004700E1
:1028A4002E0090007C00400010007800640040007E
:1028B4008005780001057800B2FD07002E00900025
:1028C4007C00400010007800E200400080002000FE
:1028D400800878002E0590005AF90700F0FF2F00B9
:1028E4000100370009007800010037000900780072
:1028F4000100370009007800260037006801450010
:10290400E800410064004700831F780082067800D5
:10291400110678009E0590000005780060AA2B003F
:10292400801F78000020EF00801F780097080700C0
:102934004F00B100CF0178000000E2001400320023
:10294400C318DD0060A92B00810040002E00900018
:102954007C0040001000780064004000800578008E
:102964000105780087FD07002E0090007C004000E0
:1029740010007800E2004000800020008008780009
:102984002E0590002FF90700F0FF2F0001003700FB
:1029940009007800580037006218E1003000350063
:1029A4006218E1002C003D00E280510066004700FF
:1029B400000678008105780070FA07000000E20044
:1029C4002300320068014500E8004100640047002C
:1029D40082067800110678009E05900000057800B4
:1029E40060AA2B00801F78000020EF00801F780071
:1029F400660807004F00B1000000E2001200320038
:102A0400E60047002E0090007C0040001000780093
:102A140064004000800578000105780059FD070036
:102A24002E0090007C00400010007800E20040007E
:102A340080002000800878002E05900001F907002E
:102A4400F0FF2F0001003700090078000100370073
:102A540009007800010037000900780026003700DB
:102A640068014500E800410064004700831F7800C6
:102A740082067800110678009E0590000005780013
:102A840060AA2B00801F78000020EF00801F7800D0
:102A94003E0807004F00B100CF0178000000E200BB
:102AA40014003200C318DD0060A62B008100400032
:102AB4002E0090007C00400010007800640040006C
:102AC40080057800010578002EFD07002E00900097
:102AD4007C00400010007800E200400080002000EC
:102AE400800878002E059000D6F80700F0FF2F002C
:102AF40001003700090078008000780001003700E9
:102B040089007800DF003700620045008A1F7800E2
:102B1400000578008BFC07004F0578000000E200F8
:102B2400D7003200E2004500600047008A1F7800A9
:102B34008005780001057800DCFC07004F0578006B
:102B440080017800F1FF2F000100E100C90034008A
:102B54000E4090006304E10003003A00705420002A
:102B6400100798000C0037000E4090006104E1004B
:102B740003003A0040542000100798000600370074
:102B84000E4090006204E10003003A00505420001B
:102B94001007980000003700610045001080FB001A
:102BA400680060006000E100590032006218E10032
:102BB400300035006218E1002C003D00E280510035
:102BC400660047000006780081057800E8F90700F0
:102BD4000000E2002300320068014500E8004100E3
:102BE4006400470082067800110678009E05900074
:102BF4000005780060AA2B00801F78000020EF00F9
:102C0400801F7800E10707004F00B1000000E200D8
:102C140012003200E60047002E0090007C004000C5
:102C240010007800640040008005780001057800F9
:102C3400D4FC07002E0090007C00400010007800B7
:102C4400E200400080002000800878002E059000FB
:102C54007CF80700F0FF2F0001003700090078001E
:102C640001003700090078000100370009007800EE
:102C74002600370068014500E80041006400470071
:102C8400831F780082067800110678009E05900064
:102C94000005780060AA2B00801F78000020EF0058
:102CA400801F7800B90707004F00B100CF017800FA
:102CB4000000E20014003200C318DD0060A72B00FE
:102CC400810040002E0090007C004000100078003D
:102CD400640040008005780001057800A9FC070025
:102CE4002E0090007C00400010007800E2004000BC
:102CF40080002000800878002E05900051F807001D
:102D0400F0FF2F0001003700090078005800370059
:102D14006218E100300035006218E1002C003D002B
:102D2400E2805100660047000006780081057800C3
:102D34008CF907000000E20023003200680145001E
:102D4400E80041006400470082067800110678001C
:102D54009E0590000005780060AA2B00801F780073
:102D64000020EF00801F7800880707004F00B100A3
:102D74000000E20012003200E60047002E0090003E
:102D84007C0040001000780064004000800578005A
:102D9400010578007BFC07002E0090007C004000B9
:102DA40010007800E20040008000200080087800D5
:102DB4002E05900023F80700F0FF2F0001003700D4
:102DC400090078000100370009007800010037008D
:102DD400090078002600370068014500E80041003A
:102DE40064004700831F780082067800110678008B
:102DF4009E0590000005780060AA2B00801F7800D3
:102E04000020EF00801F7800600707004F00B1002A
:102E1400CF0178000000E20014003200C318DD0086
:102E240060A82B00810040002E0090007C00400030
:102E340010007800640040008005780001057800E7
:102E440050FC07002E0090007C0040001000780029
:102E5400E200400080002000800878002E059000E9
:102E6400F8F70700F0FF2F00010037000900780091
:102E74000100370009007800800078000100370065
:102E84008900780001007800CF0678004F067800AA
:102E9400CF0578004F0578000080FA000000060096
:002EA4002E
:101D48000220EF000020EF000001780002004500AB
:101D5800104078006004E10002003200F1FF2F001B
:101D6800040037006010E100020032000420EC009B
:0C1D7800F6FF37000100780000000600B4
:101EB0000600FA008C1F7800F0FF2F000007980042
:101EC0000220EF0001004500104078006004E100AE
:101ED000240032000100450010407800404798007F
:101EE0000020EF001007980081017800640047008F
:101EF0001080FB0063006000804D78001B4078007C
:101F00006004E1000A0032004219DD00E2004700EF
:101F100060004700110841008B1F78001820EF0077
:101F20008E05900030000700CF05780012003700C2
:101F3000640047001080FB004200DE00404798002C
:101F40001E0090006300E100040032001100200038
:101F50006200470010884000E4FF3700030078006B
:101F600001003700010078006000E100020032004B
:101F7000E1004000D3FF37000E0090004F067800CC
:081F80000080FA0000000600D9
:101F88001A407800804D7800E180450061004500E6
:101F980090487800E280450062004500904878004B
:101FA800E38045006300450090487800E4804500E0
:101FB8006400450090487800E580450065004500CC
:101FC80090487800E6804500660045009048780013
:101FD800E78045006700450090487800000006004B
:001FE800F9
:10263C000600FA008A1F78008B1F78008C1F780028
:10264C008D1F78000020EF0000079800CAFD0700DE
:10265C000000E20033003200D8FD0700100798009C
:10266C00F1FF2F000100E1002E0034000020EF00EC
:10267C002007980068014500E8004100640047000D
:10268C008A1F780082067800110678004B5B2000C8
:10269C000005780060AA2B00801F78000020EF0056
:1026AC00801F7800370907004F00B1004F057800F4
:1026BC000000E2001B003200610045001080FB00AE
:1026CC00680060006000E1000C0032001E00900009
:1026DC00C300DD0060A72B00810040002E0090009D
:1026EC007C004000100078006400400080057800F9
:1026FC000105780021FE0700000037002E00900035
:10270C007C00400010007800E200400080002000B7
:10271C00800878002E059000C8F90700F0FF2F0004
:10272C00000798000E009000CF0678004F06780046
:10273C00CF0578004F0578000080FA0000000600F5
:00274C008D
:101D84000220EF000020EF0000017800620045000F
:101D94006400400002004000104078006004E1004C
:101DA40002003200F1FF2F00040037006010E10050
:101DB400020032000420EC00F4FF37000100780038
:041DC4000000060015
:101DC8000400FA008B1F78008C1F7800F2FF2F00A8
:101DD8000220EF006200450064004000010040005E
:101DE800104078006004E1002300320062004500E2
:101DF800640040000100400010407800204798002F
:101E08000020EF0000079800810178006200470079
:101E18001080FB00610060006000E10008003200F3
:101E2800C318DD006000470090824000FCFF2F00CF
:101E3800850578003AFA0700850078001500370014
:101E4800620047001080FB004100DE002047980038
:101E58000E0090006700E10004003200110020002D
:101E68006000470010884000E8FF370083007800D2
:101E78000200780001003700020078006008E100E5
:101E8800030032000220EC0000017800D1FF370087
:101E980080007800010078004F067800CF057800B0
:081EA8000080FA0000000600B2
:1007280043D8DE000002780013C0B3008200200026
:10073800110009008205D8000380FB000100DD00DC
:10074800804178001800E2000A0032000340780077
:1007580080C1EA00620045006400400004014000D6
:100768009280FB000380FB00008060000049780055
:1007780007003700620045006400400004014000A3
:100788009280FB000380FB00008070000049780025
:040798000000060057
:103898004400FA008A1F78008B1F78008C1F78007C
:1038A8008D1F78000020EF000007980091F80700AE
:1038B800000378006000E1005F0432007A004300F2
:1038C800900078000127980080A020000008E100FF
:1038D8008A003A0004FE07000000E2008600320079
:1038E800FA02430062024300E80142006C0143000F
:1038F800E800410062004700861F78008A1F7800B0
:10390800840678001306780095057800000578008D
:10391800821F7800911F780050F707004F00B10010
:103928004F0578004F0378000000E2007200320073
:103938001E0090007C004000100078008001780094
:10394800E20040000020EF0080087800E480410099
:10395800628041009080400010C0B3008048780029
:10396800E2804100110078000020EC008008780017
:103978000020EF00101F98008BC0B3000D06070051
:103988000000E20018003200060278001E189000BD
:103998007A00E10012003D00E480410062804100AD
:1039A8001081400011A22B002003200000004700D6
:1039B800908040001140780000497800E280410082
:1039C800110078000020EC00800878009E18900014
:1039D800200320000000470061884000EBFF37000B
:1039E8000401780017003700060278001E189000BE
:1039F8007A00E10012003D00E4804100628041004D
:103A080010814000B1A32B002003200000004700D4
:103A1800908040001140780000497800E280410021
:103A2800110078000020EC00800878009E189000B3
:103A3800200320000000470061884000EBFF3700AA
:103A480004017800E48041006280410090804000D9
:103A580010C0B30080487800E2804100110078006F
:103A68000020EC00800878000020EF00101F98006C
:103A7800831F7800820178004F0178001E1890009B
:103A88006200E1000E003D00E400410062004100D8
:103A9800908040000020EF0080487800E20041005C
:103AA800110078000020EC00800878009E18900033
:103AB800200320000000470061884000EFFF370026
:103AC800831F78008A1F78001E059000DCF4070029
:103AD8004F057800CF017800831F780083057800B0
:103AE8000BF70700CF0178008A1F780003057800DC
:103AF800150707004F057800CF03370081662000BF
:103B08000E2090000100E1006F003A0076FD0700EA
:103B18000000E2006B0032008BC0B300A50507006F
:103B28000000E200300032000020EF00001F980083
:103B38000020EF00101F98007C0043001000780060
:103B4800E40040000003200000004700908240008D
:103B580005027800610020002003200000004700D3
:103B68001009B800709C2B00820040000003200060
:103B78000000470090804000114078009480FB00CE
:103B88000080FB0000807000804A78001E189000BA
:103B98006700E1000500320011002000200320002A
:103BA8000000470010884000E3FF37000E1890001F
:103BB8006500E1000500320011002000000320002C
:103BC8000000470010884000D9FF37007C00430000
:103BD80010007800E20040006000200080087800B3
:103BE800060278002F0037000020EF00001F980021
:103BF8000020EF00101F98007C00430010007800A0
:103C0800E4004000000320000000470090824000CC
:103C18000502780061002000200320000000470012
:103C28001009B800709F2B0082004000000320009C
:103C38000000470090804000114078009480FB000D
:103C48000080FB0000807000804A78001E189000F9
:103C58006600E1000500320011002000200320006A
:103C68000000470010884000E3FF37000E1890005E
:103C78006500E100050032008E1890000003200066
:103C88000000470061884000D9FF37007C004300EE
:103C980010007800E20040006000200080087800F2
:103CA800060278008405780099F607008A1F7800D4
:103CB8000405780062F407004F057800F0FF2F0034
:103CC800000798005C03370081C421000E20900093
:103CD8000100E10058033A007C004300900078009E
:103CE800711798000020EF0040779800648040002A
:103CF8009040780021C7980000C2B300000CE10092
:103D080016033A000020EF00407798007E109000DC
:103D1800104078000080FB00620060006000E10055
:103D28000D0332007E1090006402400063032000FF
:103D380083014700C20320000201470081032000DD
:103D4800810047005003200000004700861F7800CC
:103D5800810678000006780084057800831F7800C3
:103D6800821F780087F507004F00B1004F037800E5
:103D78007E109000640040000020EC009080FB0062
