:1000000036C50400000000001CD900003ED90000E5
:100010000000000060D9000014C5000000000000CE
:1000200000000000000000000000000000000000D0
:1000300000000000A4D90000000000000000000043
:100040000000000030DA00005CDB0000000000006F
:100050000000000000000000000000007CDA00004A
:100060000000000000000000000000000000000090
:100070000000000000000000000000000000000080
:100080000000000000000000000000000000000070
:10009000000000000000000082D900000000000005
:1000A0000000000000000000000000000000000050
:1000B0000000000000000000000000000000000040
:1000C0000000000000000000000000000000000030
:1000D0000000000000000000000000000000000020
:020000040001F9
:108A6C008FB42400F0FF270020A0B70020202000A6
:108A7C0032A0B700400020004420B700F000FA00FC
:108A8C0092DB0200000000008A1F78008B1F780028
:108A9C008C1F78008D1F7800F1F12F00200420002E
:108AAC00108860000E2EEF001E2EEF00008EA90025
:108ABC00048EA9000020EF00D0CE89000020EF002A
:108ACC00C0CE8900F10021000020EF008048780022
:108ADC000C7020001D0020001A1020005B002000EC
:108AEC00DAF10700E4F10700BFF107009FF107007E
:108AFC001420EF00BBF1070056F20700042EA9006A
:108B0C00140EA900142EA900148EA900002EA90081
:108B1C00100EA900102EA900108EA90015EEA800A9
:108B2C0015CEA90011EEA90011CEA900E000470056
:108B3C0030C5B3008058780040C7B3008058780027
:108B4C0010C6B3008058780020C7B3008058780056
:108B5C0040C7B3008058780090C6B30080587800A6
:108B6C00E0C6B3008058780070C6B3008058780017
:108B7C0000C2B3008058780040C4B300805878001D
:108B8C0030C4B3008058780030C4B30080587800EB
:108B9C0000C2B3008058780000C5B300805878003C
:108BAC0010C6B3008058780030C6B30080587800E7
:108BBC00B0C6B3008058780050C6B3008058780017
:108BCC0040C7B3008058780030C7B3008058780095
:108BDC00D0C0B30080587800A0C0B3008058780093
:108BEC0000C0B30080587800600047000005780092
:108BFC00AFF2070021A8A80011E1A80005E1A80028
:108C0C0007A02F000E20ED00FEFF3A000000000030
:108C1C0000000000BAF20700E000470090C4B30067
:108C2C0080587800E0C6B3008058780090C6B30036
:108C3C008058780040C7B3008058780090C6B300C5
:108C4C008058780010C6B30080587800C0C6B300B6
:108C5C008058780090C6B30080587800A0C7B30045
:108C6C008058780090C6B30080587800E0C6B300F6
:108C7C008058780070C6B3008058780000C2B300EA
:108C8C0080587800F0C4B30080587800C0C6B30098
:108C9C008058780030C6B3008058780020C6B300E6
:108CAC008058780020C4B3008058780050C7B300B7
:108CBC008058780030C7B30080587800D0C0B3001B
:108CCC0080587800A0C0B3008058780000C0B30072
:108CDC0080587800600047000005780074F20700A7
:108CEC0008F2070028062000A7832A000E20ED00BA
:108CFC00FEFF3A001020ED00FCFF3A005AC0B30012
:108D0C00D5F1070070B798006000E10067003A00E9
:108D1C00E0004700E0C6B3008058780050C6B300AE
:108D2C008058780040C7B3008058780070C7B300F3
:108D3C0080587800F0C6B3008058780020C7B30084
:108D4C0080587800B0C6B3008058780000C2B300D9
:108D5C008058780000C7B3008058780010C6B30064
:108D6C008058780020C7B3008058780010C6B30034
:108D7C0080587800D0C6B3008058780050C6B30035
:108D8C008058780040C7B3008058780050C6B300B4
:108D9C008058780020C7B3008058780030C7B300E3
:108DAC008058780000C2B3008058780070C7B300B8
:108DBC008058780050C6B3008058780020C7B300A4
:108DCC008058780050C6B3008058780000C2B300B9
:108DDC0080587800F0C6B3008058780020C6B300E5
:108DEC008058780040C7B3008058780010C6B30094
:108DFC008058780090C6B30080587800E0C6B30065
:108E0C008058780050C6B3008058780040C6B30034
:108E1C008058780000C2B3008058780030C7B30087
:108E2C008058780050C7B3008058780030C6B30023
:108E3C008058780030C6B3008058780050C6B30014
:108E4C008058780030C7B3008058780030C7B30022
:108E5C008058780060C6B3008058780050C7B300C3
:108E6C0080587800C0C6B30080587800C0C6B300E4
:108E7C008058780090C7B30080587800E0C2B300E7
:108E8C0080587800D0C0B30080587800A0C0B300E0
:108E9C008058780000C0B30080587800600047000C
:108EAC000005780002F20700580037007EB09000F1
:108EBC006100E10055003A00E0004700E0C6B30055
:108ECC008058780050C6B3008058780040C7B30073
:108EDC008058780070C7B30080587800F0C6B30093
:108EEC008058780020C7B30080587800B0C6B30013
:108EFC008058780000C2B3008058780000C7B300D7
:108F0C008058780010C6B3008058780020C7B30092
:108F1C008058780010C6B30080587800D0C6B300D3
:108F2C008058780050C6B3008058780040C7B30012
:108F3C008058780050C6B3008058780020C7B30022
:108F4C008058780030C7B3008058780000C2B30056
:108F5C008058780070C7B3008058780050C6B300B2
:108F6C008058780020C7B3008058780050C6B300F2
:108F7C008058780000C2B30080587800E0C6B30077
:108F8C0080587800F0C6B3008058780040C7B30012
:108F9C008058780000C2B30080587800F0C6B30047
:108FAC008058780020C6B3008058780040C7B300C2
:108FBC008058780010C6B3008058780090C6B30073
:108FCC0080587800E0C6B3008058780050C6B300D3
:108FDC008058780040C6B30080587800E0C2B300D7
:108FEC0080587800D0C0B30080587800A0C0B3007F
:108FFC008058780000C0B3008058780060004700AB
:10900C0000057800AAF107000000370028062000B0
:10901C00A7832A000E20ED00FEFF3A001020ED0081
:10902C00FCFF3A0033F107004C002000800578006B
:10903C00CA6F230040F007003DEA07004C002000F7
:10904C00800578008A6F23003BF007003CEA07009C
:10905C004C002000800578007A7E230036F0070053
:10906C002FEA07004C002000800578003A7E230090
:10907C0031F00700E000470040C4B300805878008E
:10908C0080C4B3008058780030C4B3008058780096
:10909C0000C5B3008058780000C2B3008058780037
:1090AC0020C5B3008058780050C6B30080587800B3
:1090BC0030C7B3008058780050C7B3008058780090
:1090CC00C0C6B3008058780040C7B3008058780001
:1090DC0030C7B30080587800D0C0B30080587800F7
:1090EC00A0C0B3008058780000C0B300805878004E
:1090FC0060004700000578006DF107002B7C230011
:10910C00CA6F2300D8E907001006200000004700B2
:10911C0092C4B3000258780002C7B300025878001A
:10912C0002C2B3000258780012C4B300025878008F
:10913C0042C6B3000258780042C6B3000258780009
:10914C0022C7B3000258780052C6B3000258780008
:10915C0032C7B3000258780032C7B3000258780007
:10916C00A2C3B3000258780002C2B30002587800C0
:10917C00217C2300E2E90700A1B82B00E0E90700FD
:10918C00800078000020EF00805878001006200046
:10919C00000047000005780045F107002B7C2300F8
:1091AC008A6F2300B0E9070010062000000047007A
:1091BC0072C4B3000258780012C6B300025878008B
:1091CC0042C7B3000258780052C6B3000258780068
:1091DC0072C7B3000258780012C6B3000258780068
:1091EC0092C7B3000258780002C2B300025878004C
:1091FC0012C4B3000258780042C6B300025878007B
:10920C0042C6B3000258780022C7B3000258780057
:10921C0052C6B3000258780032C7B3000258780027
:10922C0032C7B30002587800A2C3B30002587800CA
:10923C0002C2B30002587800217C2300B0E9070079
:10924C00A1B82B00AEE90700800078000020EF00E9
:10925C0080587800100620000000470000057800B8
:10926C0013F107002B7C23003A7E23007EE90700D4
:10927C001006200000004700D2C4B300025878004A
:10928C0012C6B3000258780032C7B30002587800F7
:10929C00B2C6B30002587800A2C3B30002587800DB
:1092AC0002C2B30002587800217C230094E9070025
:1092BC00A1B82B0092E90700800078000020EF0095
:1092CC008058780010062000000047000005780048
:1092DC00F7F007002B7C23007A7E230062E907005D
:1092EC00100620000000470042C4B300025878006A
:1092FC00E2C4B3000258780032C5B30002587800BB
:10930C0002C2B3000258780012C4B30002587800AD
:10931C0042C6B3000258780042C6B3000258780027
:10932C0022C7B3000258780052C6B3000258780026
:10933C0032C7B3000258780032C7B3000258780025
:10934C00A2C3B3000258780002C2B30002587800DE
:10935C00217C23006AE90700A1B82B0068E907000B
:10936C00800078000020EF00805878001006200064
:10937C000000470000057800CDF00700F0FF2F003B
:10938C0060BF890072E90700A09D23001000E00077
:10939C002A003200209D2300104078006004E10078
:1093AC000220EF0001003A0002A0EE00A0CE8100E6
:1093BC006000E1000020EF000100360000A0EE008C
:1093CC00008060000000320062ED070080CE890052
:1093DC00010020000100E100020032008ACE810071
:1093EC0076ED07004AED07000000E20002003200B3
:1093FC0034ED07000E003700C0CE81007400E10090
:10940C000220EF0001003A0002A0EE00C09C2300F5
:10941C0010807000060032002BED07000000E20007
:10942C000100320027ED07000020EF00C0CE8900BC
:10943C0011002000809D23001088400009FA0700CD
:10944C006000E100020032005AC0B30012FA0700BB
:10945C00C2E6070070B798006100E100C7003A004F
:10946C00E000470050C7B3008058780000C7B30035
:10947C0080587800F0C6B30080587800E0C6B3007E
:10948C008058780000C2B3008058780020C7B30021
:10949C008058780050C6B3008058780030C6B300AE
:1094AC008058780050C6B3008058780000C7B300CD
:1094BC008058780040C7B3008058780090C6B3003D
:1094CC0080587800F0C6B30080587800E0C6B3002E
:1094DC008058780000C2B3008058780050C6B300A2
:1094EC008058780020C7B3008058780020C7B3009C
:1094FC0080587800F0C6B3008058780020C7B300BD
:10950C008058780000C2B30080587800F0C6B300D1
:10951C008058780020C7B3008058780000C2B30090
:10952C008058780020C7B3008058780050C6B3002C
:10953C008058780030C6B3008058780050C6B3000D
:10954C008058780090C6B3008058780060C7B3008C
:10955C008058780050C6B3008058780000C2B30021
:10956C008058780020C6B3008058780050C7B300EC
:10957C008058780060C6B3008058780060C6B3008D
:10958C008058780050C6B3008058780020C7B300CC
:10959C008058780000C2B3008058780030C6B30001
:1095AC0080587800F0C6B3008058780020C7B3000C
:1095BC008058780020C7B3008058780050C7B3009B
:1095CC008058780000C7B3008058780040C7B300BB
:1095DC008058780090C6B30080587800F0C6B3006D
:1095EC0080587800E0C6B30080587800E0C2B30021
:1095FC008058780000C2B3008058780050C4B30083
:10960C0080587800E0C4B3008058780030C4B300B0
:10961C008058780020C3B3008058780040C3B30052
:10962C0080587800A0C4B3008058780060C3B300A1
:10963C008058780000C3B3008058780000C3B30092
:10964C008058780000C2B3008058780030C6B30050
:10965C0080587800F0C6B30080587800E0C6B3009C
:10966C008058780040C7B3008058780020C7B300FA
:10967C0080587800F0C6B30080587800C0C6B3009C
:10968C0080587800C0C6B3008058780050C6B3002C
:10969C008058780020C7B3008058780000C2B3000F
:1096AC0080587800E0C6B3008058780050C6B300EC
:1096BC008058780050C6B3008058780040C6B3007C
:1096CC008058780030C7B3008058780000C2B300CF
:1096DC008058780040C7B30080587800F0C6B300BB
:1096EC008058780000C2B3008058780020C6B300C0
:1096FC008058780050C6B3008058780000C2B30080
:10970C008058780020C7B3008058780050C6B3004A
:10971C008058780030C7B3008058780040C7B30039
:10972C008058780010C6B3008058780020C7B3006A
:10973C008058780040C7B3008058780050C6B300FA
:10974C008058780040C6B30080587800E0C2B3005F
:10975C0080587800D0C0B30080587800A0C0B30007
:10976C008058780000C0B300805878006000470033
:10977C0000057800CEEF0700640137007EB0900042
:10978C006200E1009F003A00E000470020C7B300F0
:10979C008058780050C6B3008058780030C6B300AB
:1097AC008058780050C6B3008058780090C6B3003B
:1097BC008058780060C7B3008058780050C6B3005A
:1097CC008058780040C6B3008058780000C2B300BF
:1097DC008058780000C7B3008058780010C6B300DA
:1097EC008058780030C6B30080587800B0C6B300FB
:1097FC008058780050C6B3008058780040C7B3003A
:10980C008058780000C2B3008058780070C7B3004D
:10981C008058780010C6B3008058780030C7B30069
:10982C008058780000C2B30080587800E0C6B300BE
:10983C0080587800F0C6B3008058780040C7B30059
:10984C008058780000C2B3008058780030C7B3004D
:10985C008058780050C6B30080587800E0C6B3003A
:10986C008058780040C7B3008058780000C2B3001D
:10987C008058780040C7B30080587800F0C6B30019
:10988C008058780000C2B3008058780050C7B300ED
:10989C008058780030C7B3008058780000C2B300FD
:1098AC008058780080C2B30080587800E0C6B300BE
:1098BC0080587800F0C6B3008058780040C7B300D9
:1098CC008058780000C2B30080587800F0C6B3000E
:1098DC008058780050C7B3008058780020C7B30078
:1098EC008058780000C2B3008058780090C4B30050
:1098FC008058780000C5B30080587800C0C2B3000F
:10990C008058780000C2B30080587800E0C6B300DD
:10991C0080587800F0C6B3008058780020C7B30098
:10992C008058780000C2B3008058780090C4B3000F
:10993C008058780000C5B3008058780000C2B3008E
:10994C008058780020C6B3008058780020C7B30038
:10995C0080587800F0C6B3008058780010C6B30069
:10996C008058780040C6B3008058780030C6B300E9
:10997C008058780010C6B3008058780030C7B30008
:10998C008058780040C7B3008058780000C2B300FC
:10999C008058780010C6B3008058780040C6B300D9
:1099AC008058780040C6B3008058780020C7B300B8
:1099BC008058780050C6B3008058780030C7B30088
:1099CC008058780030C7B3008058780090C2B3003C
:1099DC0080587800E0C2B30080587800D0C0B30043
:1099EC0080587800A0C0B3008058780000C0B30045
:1099FC008058780060004700000578002CEF0700C5
:109A0C00C20037007EB090006300E1004B003A00CA
:109A1C00E000470020C7B3008058780050C6B30060
:109A2C008058780030C6B3008058780050C6B30018
:109A3C008058780090C6B3008058780060C7B30097
:109A4C008058780050C6B3008058780040C6B300E8
:109A5C008058780000C2B3008058780090C4B300DE
:109A6C008058780000C5B3008058780000C2B3005D
:109A7C008058780000C7B3008058780010C6B30037
:109A8C008058780030C6B30080587800B0C6B30058
:109A9C008058780050C6B3008058780040C7B30097
:109AAC008058780000C2B3008058780070C7B300AB
:109ABC008058780010C6B3008058780030C7B300C7
:109ACC008058780000C2B30080587800E0C6B3001C
:109ADC0080587800F0C6B3008058780040C7B300B7
:109AEC008058780000C2B3008058780090C4B3004E
:109AFC008058780000C5B3008058780060C7B30068
:109B0C008058780040C3B30080587800E0C2B3009E
:109B1C0080587800D0C0B30080587800A0C0B30043
:109B2C008058780000C0B30080587800600047006F
:109B3C0000057800DEEE0700740037007EB0900060
:109B4C006400E10071003A00E000470020C7B30058
:109B5C008058780050C6B3008058780030C6B300E7
:109B6C008058780050C6B3008058780090C6B30077
:109B7C008058780060C7B3008058780050C6B30096
:109B8C008058780040C6B3008058780000C2B300FB
:109B9C008058780000C7B3008058780010C6B30016
:109BAC008058780030C6B30080587800B0C6B30037
:109BBC008058780050C6B3008058780040C7B30076
:109BCC008058780000C2B3008058780070C7B3008A
:109BDC008058780010C6B3008058780030C7B300A6
:109BEC008058780000C2B30080587800F0C6B300EB
:109BFC008058780060C6B3008058780000C2B3006B
:109C0C008058780040C7B3008058780090C7B300E4
:109C1C008058780000C7B3008058780050C6B30055
:109C2C008058780000C2B3008058780050C7B30049
:109C3C0080587800E0C6B30080587800B0C6B300F6
:109C4C0080587800E0C6B30080587800F0C6B300A6
:109C5C008058780070C7B30080587800E0C6B30015
:109C6C008058780000C2B3008058780040C7B30019
:109C7C0080587800F0C6B3008058780000C2B3005A
:109C8C008058780040C7B3008058780080C6B30075
:109C9C008058780050C6B3008058780000C2B300DA
:109CAC0080587800C0C6B3008058780090C6B300C6
:109CBC008058780020C6B3008058780020C7B300C5
:109CCC008058780010C6B3008058780020C7B300C5
:109CDC008058780090C7B30080587800E0C2B30079
:109CEC0080587800D0C0B30080587800A0C0B30072
:109CFC008058780000C0B30080587800600047009E
:109D0C00000578006AEE07000000370087F70700AF
:109D1C006100E1003E053A00E0004700B0C3B3002B
:109D2C00805878000020EF008058780060004700D1
:109D3C000CC8B300800578006A70230082F7070016
:109D4C00100620000000470052C4B30002587800EF
:109D5C0032C6B3000258780082C6B30002587800AD
:109D6C00F2C6B3000258780002C2B3000258780061
:109D7C0032C4B30002587800D2C6B300025878003F
:109D8C0042C6B30002587800A2C3B3000258780050
:109D9C0002C2B3000258780061702300D8E60700B5
:109DAC00A1B82B00D6E60700800078000020EF0059
:109DBC00805878001006200000004700000578004D
:109DCC00FCD20700607023009040780050C7B300AD
:109DDC00000CE10001003A00050037006070230020
:109DEC009040780050C5B300000CE10083003A00AD
:109DFC002AB88100C8F7070060EF99006004E10001
:109E0C0039003A00E000470030C7B30080587800B2
:109E1C0050C7B3008058780030C6B3008058780023
:109E2C0030C6B3008058780050C6B3008058780014
:109E3C0030C7B3008058780030C7B3008058780022
:109E4C0060C6B3008058780050C7B30080587800C3
:109E5C00C0C6B3008058780000C2B30080587800A8
:109E6C0060C4B3008058780090C5B3008058780067
:109E7C00E0C4B3008058780000C2B300805878006A
:109E8C0040C7B3008058780020C7B30080587800D2
:109E9C0010C6B30080587800E0C6B3008058780034
:109EAC0030C7B30080587800D0C6B3008058780013
:109EBC0090C6B3008058780040C7B3008058780033
:109ECC00D0C0B30080587800A0C0B3008058780090
:109EDC0000C0B3008058780060004700000578008F
:109EEC00F3ED0700420037006EE891006104E100D9
:109EFC003F003A00E0004700E0C6B300805878000D
:109F0C00F0C6B3008058780000C2B30080587800C7
:109F1C0030C7B3008058780050C7B3008058780021
:109F2C0030C6B3008058780030C6B3008058780033
:109F3C0050C6B3008058780030C7B3008058780002
:109F4C0030C7B3008058780060C6B30080587800E2
:109F5C0050C7B30080587800C0C6B3008058780052
:109F6C0000C2B3008058780060C4B30080587800F9
:109F7C0090C5B30080587800E0C4B30080587800D6
:109F8C0000C2B3008058780040C7B30080587800F6
:109F9C0020C7B3008058780010C6B30080587800F2
:109FAC00E0C6B3008058780030C7B3008058780002
:109FBC00D0C6B3008058780090C6B30080587800A3
:109FCC0040C7B30080587800D0C0B30080587800E8
:109FDC00A0C0B3008058780000C0B300805878004F
:109FEC006000470000057800B1ED07000000370065
:109FFC000020EF00D0CE8900800437006070230071
:10A00C009040780030C7B300000CE10001003A002A
:10A01C0005003700607023009040780030C5B30015
:10A02C00000CE100FF003A000B7023002AB22B0059
:10A03C0027FA07004D702300EC2125005BEF22006E
:10A04C000A702300C0F7070060EF99006004E1007C
:10A05C004F003A00E0004700E0C6B300805878009B
:10A06C00F0C6B3008058780000C2B3008058780066
:10A07C0030C7B3008058780050C7B30080587800C0
:10A08C0030C6B3008058780030C6B30080587800D2
:10A09C0050C6B3008058780030C7B30080587800A1
:10A0AC0030C7B3008058780060C6B3008058780081
:10A0BC0050C7B30080587800C0C6B30080587800F1
:10A0CC0000C2B3008058780040C7B30080587800B5
:10A0DC0020C7B3008058780010C6B30080587800B1
:10A0EC00E0C6B3008058780030C7B30080587800C1
:10A0FC00D0C6B3008058780090C6B3008058780062
:10A10C0040C7B3008058780000C2B3008058780074
:10A11C0030C5B3008058780090C5B30080587800E3
:10A12C00E0C4B3008058780000C2B30080587800B7
:10A13C0030C7B3008058780050C6B3008058780000
:10A14C0070C6B30080587800D0C6B3008058780031
:10A15C0050C6B30080587800E0C6B3008058780031
:10A16C0040C7B30080587800D0C0B3008058780046
:10A17C00A0C0B3008058780000C0B30080587800AD
:10A18C00600047000005780049ED0700A400370087
:10A19C006EE891006104E1004B003A00E0004700DA
:10A1AC0030C7B3008058780050C7B300805878008F
:10A1BC0030C6B3008058780030C6B30080587800A1
:10A1CC0050C6B3008058780030C7B3008058780070
:10A1DC0030C7B3008058780060C6B3008058780050
:10A1EC0050C7B30080587800C0C6B30080587800C0
:10A1FC0000C2B3008058780040C7B3008058780084
:10A20C0020C7B3008058780010C6B300805878007F
:10A21C00E0C6B3008058780030C7B300805878008F
:10A22C00D0C6B3008058780090C6B3008058780030
:10A23C0040C7B3008058780000C2B3008058780043
:10A24C0030C5B3008058780090C5B30080587800B2
:10A25C00E0C4B3008058780000C2B3008058780086
:10A26C0030C7B3008058780050C6B30080587800CF
:10A27C0070C6B30080587800D0C6B3008058780000
:10A28C0050C6B30080587800E0C6B3008058780000
:10A29C0040C7B30080587800D0C0B3008058780015
:10A2AC00A0C0B3008058780000C0B300805878007C
:10A2BC006000470000057800FDEC0700F0FF2F0060
:10A2CC00D0CE8900560037006EE891006204E100A0
:10A2DC0031003A00E0004700E0C4B3008058780039
:10A2EC00F0C6B3008058780000C2B30080587800E4
:10A2FC0010C6B3008058780060C7B300805878004F
:10A30C0010C6B3008058780090C6B300805878000F
:10A31C00C0C6B3008058780010C6B30080587800CF
:10A32C0020C6B30080587800C0C6B30080587800AF
:10A33C0050C6B3008058780000C2B3008058780033
:10A34C0030C7B30080587800F0C6B300805878004E
:10A35C0030C6B30080587800B0C6B300805878007F
:10A36C0050C6B3008058780040C7B30080587800BE
:10A37C00D0C0B30080587800A0C0B30080587800DB
:10A38C0000C0B300805878006000470000057800DA
:10A39C00C7EC0700220037006EE891006304E1006F
:10A3AC001F003A00E000470010C4B300805878004A
:10A3BC0020C5B3008058780000C5B30080587800E1
:10A3CC0000C2B3008058780060C4B3008058780095
:10A3DC0010C6B3008058780090C6B300805878003F
:10A3EC00C0C6B3008058780050C6B30080587800BF
:10A3FC0040C6B30080587800D0C0B30080587800B5
:10A40C00A0C0B3008058780000C0B300805878001A
:10A41C006000470000057800A5EC0700000037003D
:10A42C0076033700607023009040780000C5B300BD
:10A43C00000CE10001003A0070033700607023004B
:10A44C009040780080C5B300000CE10004003A0095
:10A45C001620EF008ACE81004EF607006703370006
:10A46C00607023009040780010C4B300000CE10031
:10A47C0001003A000500370060702300904078001E
:10A48C0010C6B300000CE10004003A008BD70700A3
:10A49C0074F6070037D707005803370060702300A5
:10A4AC009040780040C4B300000CE10001003A0079
:10A4BC0005003700607023009040780040C6B30060
:10A4CC00000CE1000F003A007CD707003FEF0700BB
:10A4DC0040BC89006000E100080032004ABC8100E9
:10A4EC006EAB070000BE8900904078000181FB0034
:10A4FC00E10F200081006100014878001DD70700A2
:10A50C003E033700607023009040780060C4B300B5
:10A51C00000CE10001003A000500370060702300D8
:10A52C009040780060C6B300000CE10009003A00CE
:10A53C0062D7070025EF070040BC89006000E100EE
:10A54C00020032004ABC81006FAB070009D707003C
:10A55C002A0337006070230090407800A0C5B30038
:10A56C00000CE10001003A00050037006070230088
:10A57C0090407800A0C7B300000CE10001003A0045
:10A58C001E033700607023009040780060C5B30054
:10A59C00000CE10003003A00FAFF2F0023EF070044
:10A5AC0016033700607023009040780060C7B3003A
:10A5BC00000CE10003003A001420EF001BEF070031
:10A5CC000E033700607023009040780090C3B300F6
:10A5DC00000CE1008E003A00807923002B7C2300D4
:10A5EC001045780041AA0700100620000000470023
:10A5FC00F2C4B3000258780052C7B3000258780076
:10A60C0042C7B3000258780002C7B3000258780062
:10A61C0052C7B3000258780042C7B3000258780002
:10A62C0002C2B30002587800D2C4B30002587800BA
:10A63C00F2C6B3000258780042C6B3000258780044
:10A64C0052C6B30002587800A2C3B3000258780077
:10A65C0002C2B30002587800217C2300A8E4070052
:10A66C00A1B82B00A6E40700800078000020EF00C2
:10A67C008058780010062000000047000005780084
:10A68C000BEC0700907923002B7C230010457800FD
:10A69C0016AA0700100620000000470002C5B300F0
:10A6AC000258780022C7B30002587800F2C6B300F3
:10A6BC000258780072C6B3000258780022C7B30063
:10A6CC000258780012C6B30002587800D2C6B30004
:10A6DC0002587800D2C6B3000258780092C6B30074
:10A6EC0002587800E2C6B3000258780072C6B30074
:10A6FC000258780002C2B30002587800D2C4B300EA
:10A70C0002587800F2C6B3000258780042C6B30073
:10A71C000258780052C6B30002587800A2C3B300A6
:10A72C000258780002C2B30002587800217C230042
:10A73C0073E40700A1B82B0071E4070080007800D7
:10A74C000020EF0080587800100620000000470021
:10A75C0000057800D6EB0700A07923002B7C2300A2
:10A76C0010457800E1A90700100620000000470002
:10A77C0042C4B3000258780032C4B30002587800C7
:10A78C0032C4B3000258780002C2B30002587800F9
:10A79C0022C4B3000258780052C7B30002587800A4
:10A7AC0032C7B3000258780002C2B30002587800D6
:10A7BC00D2C4B30002587800F2C6B3000258780035
:10A7CC0042C6B3000258780052C6B3000258780053
:10A7DC00A2C3B3000258780002C2B300025878003A
:10A7EC00217C230046E40700A1B82B0044E40700B9
:10A7FC00800078000020EF008058780010062000C0
:10A80C000000470000057800A9EB07007B02370029
:10A81C00607023009040780010C3B300000CE1007E
:10A82C0002003A00DFEB070074023700607023006F
:10A83C009040780020C3B300000CE10028023A00DD
:10A84C002B7C23005ABC810029D407001006200061
:10A85C000000470032C5B3000258780012C6B3009E
:10A86C0002587800D2C6B3000258780002C7B30071
:10A87C0002587800C2C6B3000258780052C6B30022
:10A88C000258780042C5B3000258780092C6B30053
:10A89C0002587800D2C6B3000258780052C6B300F2
:10A8AC000258780032C5B3000258780042C7B30092
:10A8BC000258780052C6B3000258780002C7B300A1
:10A8CC0002587800C2C4B3000258780092C6B30094
:10A8DC0002587800D2C6B3000258780092C6B30072
:10A8EC000258780042C7B3000258780032C5B30052
:10A8FC000258780082C6B3000258780052C7B300E1
:10A90C000258780042C7B3000258780042C4B30022
:10A91C0002587800F2C6B3000258780072C7B30030
:10A92C0002587800E2C6B30002587800A2C3B30004
:10A93C000258780002C2B30002587800217C230030
:10A94C00EFE30700A1B82B00EDE3070080007800CF
:10A95C000020EF008058780010062000000047000F
:10A96C000005780052EB07002B7C23006ABC8100A9
:10A97C00DFD30700100620000000470032C5B300EB
:10A98C000258780012C6B30002587800D2C6B30041
:10A99C000258780002C7B30002587800C2C6B30050
:10A9AC000258780052C6B3000258780042C5B30072
:10A9BC000258780092C6B30002587800D2C6B30091
:10A9CC000258780052C6B3000258780032C5B30062
:10A9DC000258780042C7B3000258780052C6B30040
:10A9EC000258780002C7B30002587800C2C4B30002
:10A9FC000258780092C6B30002587800D2C6B30051
:10AA0C000258780092C6B3000258780042C7B300CF
:10AA1C000258780022C5B3000258780052C6B30021
:10AA2C000258780032C7B3000258780042C7B3000E
:10AA3C000258780012C6B3000258780022C7B3003F
:10AA4C000258780042C7B30002587800A2C3B30082
:10AA5C000258780002C2B30002587800217C23000F
:10AA6C00A7E30700A1B82B00A5E30700800078003E
:10AA7C000020EF00805878001006200000004700EE
:10AA8C00000578000AEB07002B7C23007ABC8100C0
:10AA9C0097D30700100620000000470032C5B30012
:10AAAC000258780012C6B30002587800D2C6B30020
:10AABC000258780002C7B30002587800C2C6B3002F
:10AACC000258780052C6B3000258780042C5B30051
:10AADC000258780092C6B30002587800D2C6B30070
:10AAEC000258780052C6B3000258780032C5B30041
:10AAFC000258780042C7B3000258780052C6B3001F
:10AB0C000258780002C7B30002587800C2C4B300E0
:10AB1C000258780092C6B30002587800D2C6B3002F
:10AB2C000258780092C6B3000258780042C7B300AE
:10AB3C000258780032C4B30002587800F2C6B30051
:10AB4C000258780052C7B30002587800E2C6B3002E
:10AB5C000258780042C7B3000258780052C6B300BE
:10AB6C000258780022C7B30002587800A2C3B30081
:10AB7C000258780002C2B30002587800217C2300EE
:10AB8C005FE30700A1B82B005DE3070080007800AD
:10AB9C000020EF00805878001006200000004700CD
:10ABAC0000057800C2EA07002B7C23009ABC8100C8
:10ABBC004FD307001006200000004700F2C4B3007A
:10ABCC000258780062C7B3000258780052C6B3002E
:10ABDC000258780022C7B3000258780002C2B300B2
:10ABEC000258780032C4B3000258780052C7B30040
:10ABFC000258780022C7B3000258780022C7B3006D
:10AC0C000258780052C6B30002587800E2C6B3006E
:10AC1C000258780042C7B3000258780002C2B30051
:10AC2C0002587800C2C4B3000258780092C6B30030
:10AC3C0002587800D2C6B3000258780092C6B3000E
:10AC4C000258780042C7B30002587800A2C3B30080
:10AC5C000258780002C2B30002587800217C23000D
:10AC6C0027E30700A1B82B0025E30700800078003C
:10AC7C000020EF00805878001006200000004700EC
:10AC8C00000578008AEA07002B7C2300AABC81000F
:10AC9C0017D307001006200000004700F2C4B300D1
:10ACAC000258780062C7B3000258780052C6B3004D
:10ACBC000258780022C7B3000258780002C2B300D1
:10ACCC000258780032C4B3000258780052C7B3005F
:10ACDC000258780022C7B3000258780022C7B3008C
:10ACEC000258780052C6B30002587800E2C6B3008E
:10ACFC000258780042C7B3000258780002C2B30071
:10AD0C000258780032C4B30002587800F2C6B3007F
:10AD1C000258780052C7B30002587800E2C6B3005C
:10AD2C000258780042C7B3000258780052C6B300EC
:10AD3C000258780022C7B30002587800A2C3B300AF
:10AD4C000258780002C2B30002587800217C23001C
:10AD5C00EBE20700A1B82B00E9E2070080007800C5
:10AD6C000020EF00805878001006200000004700FB
:10AD7C00000578004EEA07002B7C23008ABC81007A
:10AD8C00DBD20700100620000000470022C4B300ED
:10AD9C000258780092C6B3000258780042C7B3003C
:10ADAC000258780062C5B3000258780012C6B3008E
:10ADBC0002587800C2C6B3000258780052C7B300DC
:10ADCC000258780052C6B30002587800A2C3B300F0
:10ADDC000258780002C2B30002587800217C23008C
:10ADEC00C7E20700A1B82B00C5E20700800078007D
:10ADFC000020EF008058780010062000000047006B
:10AE0C00000578002AEA070080BC81008000EB0076
:10AE1C00FED007002276220063FF230084A90700DE
:10AE2C003234230033B5230081A907002C7C230086
:10AE3C000005BE0008EC07001006200000004700CB
:10AE4C00D2C4B3000258780052C6B300025878003E
:10AE5C0012C6B3000258780032C7B300025878000B
:10AE6C0052C7B3000258780022C7B30002587800CA
:10AE7C0052C6B3000258780042C6B300025878009C
:10AE8C0002C2B3000258780032C4B30002587800F2
:10AE9C0052C7B3000258780022C7B300025878009A
:10AEAC0022C7B3000258780052C6B300025878008B
:10AEBC00E2C6B3000258780042C7B30002587800CB
:10AECC00A2C3B3000258780002C2B3000258780043
:10AEDC00217C23008AE2070012C4B30002587800D8
:10AEEC00A1B82B0086E20700800078000020EF005C
:10AEFC0080587800100620000000470000057800FC
:10AF0C00EBE907002B7C2300EABC8100C8EC0700AE
:10AF1C00100620000000470092C4B30002587800CD
:10AF2C0002C2B30002587800C2C4B30002587800C1
:10AF3C0052C6B3000258780062C7B30002587800BA
:10AF4C0052C6B30002587800C2C6B300025878004B
:10AF5C00A2C3B3000258780002C2B30002587800B2
:10AF6C00217C230066E20700A1B82B0064E20700F5
:10AF7C00800078000020EF00805878001006200038
:10AF8C000000470000057800C9E907002B7C23006E
:10AF9C00FABC8100A6EC0700100620000000470058
:10AFAC0092C4B3000258780002C2B3000258780071
:10AFBC0042C5B3000258780092C6B300025878001C
:10AFCC00D2C6B3000258780052C6B30002587800BB
:10AFDC00A2C3B3000258780002C2B3000258780032
:10AFEC00217C230046E20700A1B82B0044E20700B5
:10AFFC00800078000020EF008058780010062000B8
:10B00C000000470000057800A9E907002B7C23000D
:10B01C00BACE810086EC0700100620000000470025
:10B02C00F2C4B3000258780062C7B300025878002B
:10B03C0052C6B3000258780022C7B30002587800F9
:10B04C00C2C6B30002587800F2C6B30002587800AA
:10B05C0012C6B3000258780042C6B30002587800FA
:10B06C0042C4B3000258780052C6B30002587800AC
:10B07C0042C7B3000258780052C6B3000258780099
:10B08C0032C6B3000258780042C7B30002587800A9
:10B09C0052C6B3000258780042C6B300025878007A
:10B0AC00A2C3B3000258780002C2B3000258780061
:10B0BC00217C230012E20700A1B82B0010E207004C
:10B0CC00800078000020EF008058780010062000E7
:10B0DC00000047000005780075E9070047003700BD
:10B0EC00607023009040780030C3B300000CE10086
:10B0FC002D003A000020EF00E0CE8900905982002C
:10B10C00E100500071B79800C09D23001008E100C9
:10B11C0024003500E0CE8100C100DD00E0A8240051
:10B12C000100400090057800EACE81007AEC07001F
:10B13C00E0CE8100C100DD00E0A824000100400049
:10B14C001620EF00100578002CF10700E0004700F6
:10B15C00D0C0B30080587800A0C0B30080587800ED
:10B16C00D0C0B30080587800A0C0B30080587800DD
:10B17C0000C0B300805878006000470000057800DC
:10B18C004BE90700C19D23007EB090001100E10047
:10B19C000400320011002000C09D230010884000E4
:10B1AC00D6FF370015003700607023009040780000
:10B1BC0040C3B300000CE10002003A003BEC070076
:10B1CC000E003700607023009040780050C3B3002D
:10B1DC00000CE10009003A000020EF000220EF0013
:10B1EC0020CE890031CE89000020EF000220EF0034
:10B1FC0040CE890051CE8900000037004BF2070089
:10B20C006100E10002003A0052C20700FBFF370068
:10B21C005DF83700CF0678004F067800CF05780030
:0CB22C004F0578000080FA00FFFF37009B
:10525800DBEA070044E607001AEC070027EC070022
:105268008C9FBE008A9FBE00E8E707004F05BE007E
:0C5278004F06BE0096E60700000006008E
:020000040000FA
:10FDC8008A1F78000820EF00E00020000401B80036
:10FDD800005A220002004000000578006BF207007C
:10FDE800100520000020E100020032000820EC008D
:10FDF800F5FF370010002000A0CE8900219D2300C8
:10FE08000020EF00804878000020EF00B0CE890085
:10FE1800817923000020EF00804878008179230051
:10FE28000020EF0080487800917923000020EF003F
:10FE380080487800A17923000020EF0080487800EE
:10FE4800B17923000020EF0080487800803E200030
:10FE5800E0BC890040062000F0BC8900217A23001C
:10FE68000020EF00804878000420EF00307A23005B
:10FE7800820040000020EF00804878007B10E100FD
:10FE8800020032000420EC00F8FF3700F17B230069
:10FE98000020EF00804878000020EF0080BC890037
:10FEA8001000200050BC8900800C200060BC890034
:10FEB8000020EF0070BC8900803E200090BC8900C3
:10FEC8000020EF00A0BC8900617923000020EF002A
:0CFED800804878004F057800000006000C
:10C794000020EF00004D7800E20045000020EF008B
:10C7A40080087800660145000020EF000220EF00B9
:10C7B4000089BE00EA0045000020EF0080087800F0
:10C7C400E4004500C0C1B30080487800EC00450097
:0CC7D4000020EF00800878000000060044
:10EB70000020EF0060598900E17E23000020EF00B3
:10EB800080487800F17E23000020EF008048780064
:10EB90000020EF000220EF0080BF890091BF8900B4
:10EBA000417F23000020EF0080487800D17F2300C0
:10EBB0000020EF00804878000820EF00E0002000EF
:10EBC0000401B800A0812300020140000020EF00F2
:10EBD0000220EF000089BE00E00020000401B80020
:10EBE000A081230002004000E40040000020EF006C
:10EBF00080487800E00020000401B800A0812300D4
:10EC000002004000ED0040000020EF008048780046
:10EC10007D20E100020032000820EC00E7FF370011
:10EC20000020EF000220EF00F0BF890001C0890042
:10EC3000218023000020EF0080487800B18023006D
:10EC40000020EF00804878000020EF000220EF0055
:10EC500060C0890071C08900018123000020EF009D
:10EC600080487800918123000020EF0080487800E0
:10EC70000020EF00F0CD89000020EF0000CE8900D9
:10EC80000020EF0010CE89000020EF000220EF00EE
:10EC900040CE890051CE89000020EF000220EF0015
:10ECA00020CE890031CE89000020EF0060CE89009F
:0CECB0000020EF0070CE8900000006007C
:020000040001F9
:1002CC0000002000E0B5890000002000F0B5890096
:0402DC000000060018
:100304008A1F78000820EF00A00020000401B80034
:1003140040F6220002004000000578002FF107009B
:10032400300A20000020E100020032000820EC0026
:10033400F5FF3700D15C23000020EF0080487800EF
:10034400C15C23000020EF00804878000820EF0003
:10035400A00520000401B800E0BD22000200400016
:1003640000057800B3F107006920E10002003200C3
:100374000820EC00F6FF370031F622000020EF00E1
:100384008048780021F622000020EF0080487800A1
:100394000820EF00600520000401B80000B322002B
:1003A4000200400000057800E1F207006120E1004E
:1003B400020032000820EC00F6FF3700D1BD220015
:1003C4000020EF0080487800C1BD22000020EF002B
:1003D400804878000820EF00400120000401B800A4
:1003E400E05C230002004000000578006CE5070093
:1003F4006920E100020032000820EC00F6FF37001B
:10040400716923000020EF008048780061692300AF
:100414000020EF00804878004F05780000000600B7
:00042400D8
:020000040000FA
:10C7E0000020EF00004D7800E20045000020EF003F
:10C7F00080087800E40045000020EF008008780001
:10C80000E60045000020EF0080487800E800450081
:10C810000020EF0080087800E70045000020EF00CE
:08C820008048780000000600CA
:10CA38006050E100340032000020EF00004D780023
:10CA4800E20045000020EF0080087800E40045007F
:10CA58000020EF0080087800E60045000020EF0085
:10CA680080487800E70045000020EF008048780003
:10CA7800E80045000020EF0080087800EA00450043
:10CA88000020EF0080487800600520008000450005
:10CA98000020EF00800878003005200000004500E5
:10CAA800E200400010C0B300804878003005200044
:10CAB800800045000020EF00804878003005200005
:10CAC80000004500E10040000020EF0080487800A9
:10CAD80080052000800045000020EF008048780095
:10CAE8000420EF006B004500820040000020EF00AA
:10CAF80080487800700420000010E1000200320035
:0CCB08000420EC00F7FF370000000600DE
:10CF34000020EF00004D7800E20045000020EF00E3
:10CF440080087800E40045000020EF0080087800A5
:10CF5400E60045000020EF0080487800E700450027
:10CF64000020EF0080487800E80045000020EF0032
:10CF7400804878006A0145000020EF000220EF009D
:10CF84000089BE00EE0045000020EF0080487800D4
:10CF9400F0042000800045000020EF008048780065
:10CFA4000420EF006F004500820040000020EF00E5
:10CFB40080487800F00320000010E10002003200F5
:10CFC4000420EC00F7FF3700000520008000450036
:10CFD40000C8B30080487800200520008000450088
:10CFE4000020EF0080087800400520008000450004
:0CCFF4000000200080087800000006000B
:1099A4000020EF00004D7800E20045000020EF00A9
:1099B40080087800E40045000020EF00800878006B
:1099C400E60045000020EF0080487800E7004500ED
:1099D4000020EF0080487800E80045000020EF00F8
:1099E40080087800EA0045000020EF0080487800F5
:1099F4000420EF006B004500820040000020EF00CF
:109A0400804878006710E100020032000420EC0076
:089A1400F8FF37000000060016
:04F2140000000600F0
:10ECD8000200FA000020EF00A0598A000020EF008F
:10ECE80090598A000820EF006020E10009003400F4
:10ECF800400320000401B800609E23000200400089
:10ED08008A9FBE008BC0B3000005780043FB070054
:10ED18004F05BE00400320000401B800609E230098
:10ED280002004000841F78008C9FBE008A9FBE00AE
:10ED38008405780000057800BBF807004F05BE0081
:10ED48004F06BE004F027800400320000401B800BF
:10ED5800609E230002004000841F78008C9FBE0044
:10ED68008A9FBE0084057800000578007FFC0700B4
:10ED78004F05BE004F06BE004F027800400320003A
:10ED88000401B800609E23000201400004007800DE
:10ED9800CF80DE000000460081804E00841F78008E
:10EDA8008C9FBE008A9FBE000B0678008A057800FB
:10EDB80002057800809FBE00A2F607004F00B10050
:10EDC8004F05BE004F06BE004F02780040032000EA
:10EDD8000401B800609E2300020040000448780047
:10EDE800100520000020E100020032000820EC009D
:10EDF800BDFF3700699E2300E28044007080400018
:10EE080000079800688040008A9FBE001620EF0027
:10EE18000005780038F807008E0090008008780018
:10EE28001BC0B30009057800FCFA07004F05BE00B7
:10EE380090598200C100DD00E0A8240001004000D4
:10EE480009087800905982000020EC0090598A0047
:10EE58008C9FBE008A9FBE0009057800EDFE070062
:10EE68004F05BE004F06BE000080FA0000000600F5
:00EE78009A
:10DA2400610145009280FB000B80FB0000807000C8
:08DA3400004978000000060023
:10D030000200FA008B1F78008BC0B300F3DE0700FC
:10D04000CF0578000000E20012003200400220000C
:10D0500000004500000798000B0078008000EB00FE
:10D0600061005000E08058000270200003002000A2
:10D0700084E007000220200003002000000141009E
:10D08000818149000E00900002187800031078009A
:10D090000500370040022000000145000020EF009D
:10D0A0000220EF000089BE000080FA0000000600A8
:00D0B00080
:104C0C00610045009080FB000B80FB008080600001
:104C1C000B80FB000008E1000220EF0001003A00CD
:0C4C2C0002A0EE0001007800000006006D
:105284000000FA00020AB800500088000200B800CA
:1052940081004200032AB800810042000080FA0025
:0452A4000000060000
:10DF74000003200000024500E00020000B01B8006F
:10DF8400005A2200020040008000EB00008ABE001C
:04DF94000000060083
:10C84C000000FA003EB99700CEB99700FC004500F5
:10C85C000020EF0080087800FE0045000020EF006B
:10C86C008008780000022000800045000020EF00C6
:10C87C008008780020022000800045000020EF0096
:10C88C0080087800E10045000020EF008048780027
:10C89C00F60045000020EF0080487800F7004500C6
:10C8AC000020EF00804878008002200080004500C6
:10C8BC000020EF0080087800A002200080004500D6
:10C8CC000020EF00800878006058E10060E0E10093
:10C8DC000220EF000100320002A0EE006010E10027
:10C8EC006098E1000020EF000100320000A0EE0093
:10C8FC000080600011003200620045000288BE001A
:10C90C0062004500640040000B1878000C107800A1
:10C91C0062004500E800400003000900B0187800F0
:10C92C00F40045000020EF008048780074004500BA
:10C93C00E10040000020EF00804878000420EF0068
:10C94C0079004500820040000020EF00804878000C
:10C95C006010E100020032000420EC00F8FF370008
:10C96C000420EF0078004500820040000020EF001A
:10C97C00804878006010E100020032000420EC00D6
:10C98C00F8FF37000420EF007A00450082004000D9
:10C99C000020EF00804878006010E10002003200B7
:10C9AC000420EC00F8FF3700FB0045000020EF00EE
:10C9BC008048780080022000800045000020EF00B5
:10C9CC0080087800A0022000800045000020EF00C5
:10C9DC0080087800C0022000800045000020EF0095
:10C9EC0080087800E0022000800045000020EF0065
:10C9FC0080087800F40045000020EF0080487800A3
:10CA0C0074004500E10040000020EF0080487800F1
:10CA1C0022E207008A1F7800000578005AFF070001
:0CCA2C004F0578000080FA0000000600B2
:1052A8000220EF006050E1000400320000032000FB
:1052B80000004500900078000000370001007800E9
:0452C80000000600DC
:10CF00001600E200010032006AE0070045E0070079
:10CF1000800078006008E10004003A0065E0070046
:10CF200040E0070080007800000037000100780032
:04CF300000000600F7
:1050B400E4004500900020001103BE000000E90058
:1050C400030035000603D0008783D200FBFF3700BE
:1050D4001A02BE00F00020000401BE000000E90036
:1050E400030035008301D1000281D300FBFF3700A8
:1050F400F01F200001002000000061008180610099
:105104000001730081817300F0FF2F00F10F200074
:1051140000036100818361001A02BE009000200038
:105124000401BE000000E900030035000201D000C4
:105134008381D200FBFF3700F0FF2F00F10F200026
:1051440000016100818161001A00BE00020140007B
:105154008381480090BA2400A1072000001D41006B
:105164000195490064024500640045003001430094
:10517400A0814B0030CA2000B1012000001A410078
:105184000192490064044500640045001001BE001A
:10519400F0FF2F00F10F2000000361008183610004
:1051A4001A01BE000000200001F02F00000261007F
:1051B40081826100820120000400BE000201E90036
:1051C400030035008100D1000080D300FBFF3700CD
:1051D400001C7300019473001A01BE00F0FF2F003D
:1051E400F10F2000001D6100019561000000060020
:0051F400BB
:10502400E40045001A00780091026800BA01780093
:105034002A027800C200200003007800840078006F
:105044000201E900030035008100D1000080D30093
:10505400FBFF370000826A00E4014500C200200023
:105064001300BE000201E900030035008100D100F5
:105074000080D300FBFF370000016A00F0FF20002E
:0C508400800061000100780000000600C0
:10EA1C0022DA0700800178000220EF00014878001C
:10EA2C00EA8041000020EF0080087800E28041007D
:10EA3C000020EF0080087800668141000020EF0084
:0CEA4C000220EF000089BE000000060060
:020000040001F9
:105284008A1F78008B1F78008C1F78000E2EEF0089
:105294001E2EEF00F18F2F00207420001088600074
:1052A4004207A8004207AF00FEFF370001FE2F00AF
:1052B4004074200010886000E001200046A7B70079
:1052C40044E7A90044C7A90001302000207420004D
:1052D400108870004207A8004207AF00FEFF3700A5
:1052E40042A7AE00FEFF370007A02F000E20ED00FE
:1052F400FEFF3A00000000000000000096EB0700EB
:10530400ECC0B3001BC0B300CAC2B300ECF5070085
:105314001CC0B3001620EF00AAC2B300E8F50700D2
:105324005ABF07000A4028003B00200026F7070068
:10533400A800200057402C000E20ED00FEFF3A008C
:105344001020ED00FCFF3A00000000000421A90039
:105354004188A80041A8A80041C8A800A073200063
:1053640002A1B7000068A9002068A8001021A900C4
:105374004388A90043A8A80043C8A9001081A80035
:1053840010A1A800400D23000CA1B70000E8A9005B
:1053940020E8A80011E1A8001221A9004408A900EE
:1053A4004428A8004448A9001281A80012A1A8001A
:1053B40040422F000EA1B7000108A9002108A8004F
:1053C40013E1A8002021A9004E08A8004E28A90036
:1053D4004E48A8002081A80020A1A8001027200082
:1053E4001CA1B7000388A9002388A8000E0EA800FA
:1053F400F0FF210024A3B7002043A8002083A900C4
:1054040020A3A80020C3A80020E3A8003303A90018
:105414002243A8002263A8002283A80022A3A80094
:1054240022C3A9004688A80046A8A80046C8A90027
:1054340001A8A90021E3A800070820000E20ED0020
:10544400FEFF3A0000000000000000004F06780054
:0C545400CF0578004F057800000006002E
:10015C000000FA00217420006204200073052000C6
:10016C00824878008348780042C7A9000080FA00D2
:04017C000000060079
:102AC4000000FA008D1F78001A20EF0077E9070054
:102AD4008000780001007800CF0678000080FA00BA
:042AE40000000600E8
:020000040000FA
:10D0B0000200FA00F00F200000079800605CE10019
:10D0C00043003A006168E10001003A00230C0700C8
:10D0D0007454E10003003A00006820000C48780016
:10D0E0003800370030C2B3000054E10003003A00BA
:10D0F000106820000C4878003200370040C2B300AE
:10D100000054E10003003A00206820000C48780039
:10D110002C00370050C2B3000054E10003003A0075
:10D12000306820000C4878002600370060C2B30049
:10D130000054E10003003A00406820000C487800E9
:10D140002000370070C2B3000054E10003003A0031
:10D15000506820000C4878001A00370080C2B300E5
:10D160000054E10003003A00606820000C48780099
:10D170001400370090C2B3000054E10003003A00ED
:10D18000706820000C4878000E003700A0C2B30081
:10D190000054E10003003A00806820000C48780049
:10D1A00008003700B0C2B3000054E10003003A00A9
:10D1B000906820000C487800020037000020EF0043
:10D1C000000798006168E10001003A00B0DF070045
:10D1D000615CE1004E003A006168E10001003A0044
:10D1E000DE0B07006064E10003003A00106A2000D3
:10D1F0000A487800430037006164E10003003A0008
:10D20000206A20000A4878003E0037006264E1008E
:10D2100003003A00606A20000A48780039003700AD
:10D220006364E10003003A00E06A20000A487800E5
:10D23000340037006464E10003003A00E06A200033
:10D240000A4878002F0037006564E10003003A00C7
:10D25000106B20000A4878002A0037006664E1005D
:10D2600003003A00006B20000A48780025003700D0
:10D270006764E10003003A00606B20000A48780010
:10D28000200037006E64E10003003A00406C20008B
:10D290000A4878001B0037006F64E10003003A0081
:10D2A000606C20000A487800160037007064E100C6
:10D2B00003003A00C06C20000A48780011003700D3
:10D2C0007164E10003003A00D06C20000A48780045
:10D2D0000C0037007264E10003003A00E06C2000AB
:10D2E0000A487800070037007364E10003003A0041
:10D2F000406D20000A487800020037000020EF004F
:10D30000000798006168E10001003A0060DF070053
:10D310007454E10005003A001600AE00008EA9002A
:10D320001600AF00008EA8004A00370030C2B300DC
:10D330000054E10005003A001600AE00106EA9008E
:10D340001600AF00106EA8004200370040C2B300C4
:10D350000054E10005003A001600AE00108EA9004E
:10D360001600AF00108EA8003A00370050C2B3007C
:10D370000054E10005003A001600AE0010AEA9000E
:10D380001600AF0010AEA8003200370060C2B30034
:10D390000054E10005003A001600AE0010CEA900CE
:10D3A0001600AF0010CEA8002A00370070C2B300EC
:10D3B0000054E10005003A001600AE0010EEA9008E
:10D3C0001600AF0010EEA8002200370080C2B300A4
:10D3D0000054E10005003A001600AE00110EA9004D
:10D3E0001600AF00110EA8001A00370090C2B3005B
:10D3F0000054E10005003A001600AE00112EA9000D
:10D400001600AF00112EA80012003700A0C2B30012
:10D410000054E10005003A001600AE00114EA900CC
:10D420001600AF00114EA8000A003700B0C2B300CA
:10D430000054E10005003A001600AE00116EA9008C
:10D440001600AF00116EA800020037000020EF00A8
:10D45000000798000E0090000080FA00000006000F
:00D46000CC
:105090000000FA0021742000620420007305200043
:1050A000824878008348780042C7A8000080FA0050
:0450B00000000600F6
:020000040001F9
:102FCC000C00FA00205A270010B6890000DB2500FF
:102FDC0000B68900C0D92B0020B6890080A8250036
:102FEC0030B689002022EF000000280022A2B70092
:102FFC002062A90005ED0700823E2000030020009E
:10300C009DC8070000079800110798005400200085
:10301C000A01BE000402E900030035000201D000E1
:10302C008381D200FBFF37002207980033079800FA
:10303C008A9FBE000082EB000DE00700400798005D
:10304C00510798002E019000BE0190000E009000D8
:10305C009E0090000082EB0031E007004F05BE009F
:10306C00000798001107980064004700B000780032
:10307C00200178000201D1008180D3006800470054
:10308C003008E1002090E10005003D008E0090002A
:10309C001E019000600047006198400060104900DC
:1030AC000E0090009E0090006000E1006088E1003E
:1030BC002A003A00D5EC0700823E200003002000D5
:1030CC006DC8070000079800110798003400200015
:1030DC000A01BE000402E900030035000201D00021
:1030EC008381D200FBFF370022079800330798003A
:1030FC000082EB00DEDF07004007980051079800C4
:10310C002E019000BE0190000E0090009E009000D9
:10311C000082EB0002E007000007980011079800FE
:10312C0064004700B0007800200178000201D10053
:10313C008180D300680047003008E1002090E10056
:10314C0005003D008E0090001E01900060004700BD
:10315C0061984000601049002062A8008E00900029
:10316C0080222000618850002222A90021E2A800C0
:10317C002342A800F8D907000080FA0000000600DE
:00318C0043
:020000040000FA
:10E4180002A02F00030020000200BE00000006003A
:00E42800F4
:1099640007A02F000E20ED00FEFF3A0000000000CB
:089974000000000000000600E5
:10B07C000000FA00020007009258040000000000D3
:10B08C000800E20002003A00100007000000060071
:10B09C00811F78000200E20002003D0060001000F9
:10B0AC00E08018000600E20002003D006001110083
:10B0BC00E0811900050007004F00E00002003B0092
:10B0CC0060001000E080180000000600020007007D
:10B0DC000480BE00000006006022B80006022000BA
:10B0EC000000D0008180D2000482D2008582D20080
:10B0FC000000A8000202520083825A0003003B00A9
:10B10C000202420083824A000000A1000603E9000B
:10B11C00F3FF3A00000006000080FA000000060071
:00B12C0023
:10B12C000000FA0002000700E458040000000000D0
:10B13C000800E20002003A001000070000000600C0
:10B14C00839F68000200E20002003D0060001000D6
:10B15C00E08018000600E20002003D0060011100D2
:10B16C00E0811900050007004F00E00002003B00E1
:10B17C0060001000E0801800000006006022B8009B
:10B18C00060220000000D0008180D2000482D20090
:10B19C008582D2000000A8000202520083825A006D
:10B1AC0003003B000202420083824A000000A1001F
:10B1BC000603E900F3FF3A00000006000080FA00E5
:04B1CC000000060079
:020000040001F9
:1051F4008A1F78008B1F78008C1F78008D1F780021
:105204000DC1B300ECA42200EBAA22008A6923009A
:1052140000012000801F7800A1F407002F00B100D6
:105224001A20EF001820EF001620EF00CAA1220078
:105234000020EF00801F780099F407002F00B100D0
:10524400CF0678004F067800CF0578004F05780028
:045254000000060050
:1024A4000000FA000EFA970021DF07000B0D7800F8
:1024B400E20045000020EF008048780063004500FA
:1024C4000D487800E40045000020EF0080487800C3
:1024D400E50045000020EF0080487800E600450054
:1024E4000020EF0080487800E80045000020EF005D
:1024F400800878000A20EF00630045001080FB008C
:10250400E10150000328E1000C003C001A007800AF
:1025140000017800600020000500B80000004100C0
:10252400E50040000020EF00804878000328E10027
:10253400020032000A20EC00EFFF37006A00450079
:102544000C0878006A004500E20040000020EF001B
:10255400804878006A004500630040000448780021
:102564006A004500E40040000020EF008048780045
:102574006A004500E50040000020EF008048780034
:102584006A004500E60040000020EF008048780023
:102594006A004500E80040000020EF008008780051
:1025A4000820EF006A004500630040001080FB0033
:1025B400E10150000320E1000D003C006A004500E9
:1025C4001000780000017800600020000400B800CA
:1025D40000004100E50040000020EF008048780042
:1025E4000320E100020032000820EC00EDFF370078
:0825F4000080FA00000006005F
:020000040000FA
:10A13400FB0045000020EF0080487800FD0045004A
:10A1440070C0B30080487800FE0045000020EF0096
:10A1540080487800FA0045000020EF00804878002D
:10A1640030022000800045000020EF008048780085
:10A174002002200080004500F0CFB3008048780022
:04A1840000000600D1
:020000040001F9
:1051780071A422000020EF008048780001A42200DA
:1051880000C8B3008048780091A422000020EF00F6
:105198008048780011A422000020EF0080487800A1
:1051A80021A422000020EF00804878000020EF00B2
:1051B8002052890061A422000020EF008048780076
:1051C80081A422000020EF0080487800A1A42200DA
:1051D8000020EF0080487800F0FF2F00605289001F
:0851E800104EA80000000600B3
:0451F00000000600B5
:045460000000060042
:1056BC000000FA000220EF001A4078000041780048
:1056CC0002407800014178006004E1000A003200D9
:1056DC008A1F78000085FB0017E507004F0578004E
:1056EC00E14041000180FB000000450010407800C3
:1056FC0001417800F4FF37000080FA00000006003A
:00570C009D
:020000040000FA
:10EB44000000FA0011118000001020000080600015
:10EB54006000E10002003A0000000000F9FF370005
:0CEB64002A1188000080FA000000060062
:020000040001F9
:10570C000600FA008A1F78008B1F78008C1F780027
:10571C008D1F7800600047001A20EF001820EF0062
:10572C00FBCFB3000005780020002000801F78001C
:10573C000020EF00801F78000020EF00801F780011
:10574C00CAE507006F00B1001020EF0060004700B1
:10575C00FCFF2F00800578008A692300D4E5070040
:10576C0000A0EE000500320007C820000E20ED005E
:10577C00FEFF3A0000000000000000007340E10052
:10578C00020032001020EC00F0FF3700CF0678004A
:10579C004F067800CF0578004F0578000080FA009E
:0457AC0000000600F3
:020000040000FA
:10EE78000000FA008EF897006EF19700CEF1970027
:10EE88000B4D7800610045000C4878006200450091
:10EE98000D4878006300450001487800640045008B
:10EEA8000248780065004500034878000080FA00B1
:04EEB8000000060050
:10EEBC008B1F78008C1F78008D1F78000420EF00CA
:10EECC001800E2004B003200EA004500628040006E
:10EEDC00E3804000104078001104E1004300310051
:10EEEC00EA014500648041001082FB0013007800A9
:10EEFC0000017800600020000400B800000341000D
:10EF0C00E1004200810378006380410010407800EA
:10EF1C000080FB000008E100020035000E20EF002D
:10EF2C0000003700E182450062824500E381450024
:10EF3C00E4804500658045001080FB00670160009F
:10EF4C0011407800934078008A1F7800944678002E
:10EF5C00154678009B45780006057800821F7800DE
:10EF6C000080FB00801F78000180FB00801F780070
:10EF7C00BEFF07006F00B1000605780018F507000A
:10EF8C004F0578006A00450064004000074878008F
:10EF9C006A014500620041001080FB00E100400066
:10EFAC0066004100104078000080FB000008E10082
:10EFBC00060036006A004500E600400000A0EC00A8
:10EFCC001080FB000020EC00804878006A004500AF
:10EFDC00E20040001180FB000020EC00804878002B
:10EFEC00F0FF2F00800078000100370082007800CD
:10EFFC004400370062004500E300450010407800F3
:10F00C001104E1003E003100640045009081FB00DA
:10F01C001A00780000017800600020000300B8009E
:10F02C0000034100E180410081037800630045004A
:10F03C00104078000080FB000008E1000200350061
:10F04C000E20EF0000003700E1824500628245008F
:10F05C00E3814500E4804500658045001080FB009D
:10F06C006701600011407800934078008A1F780097
:10F07C0094467800154678009B4578000605780084
:10F08C00821F78000080FB00801F78000180FB004D
:10F09C00801F780075FF07006F00B100060578002F
:10F0AC00CFF407004F05780064004500074878004E
:10F0BC00620045001080FB00E10040006600450046
:10F0CC00104078000080FB000008E10005003600CD
:10F0DC00E6004500620045001080FB000020EC00BB
:10F0EC0080487800E20045001180FB000020EC0015
:10F0FC0080487800F0FF2F00800078000100370076
:10F10C008200780001007800CF0678004F06780066
:08F11C00CF0578000000060099
:10C3EC00E50045001180FB00670060008048780084
:10C3FC001A4178006014E1000220EF0001003A00BD
:10C40C0002A0EE00F0CFB3000014E1000020EF001A
:10C41C0001003A0000A0EE0080807000E0CFB30075
:10C42C000014E1000020EF0001003A0000A0EE0033
:10C43C000080700006003200650145009280FB0010
:10C44C0000082000008070000049780021003700AF
:10C45C009A40780000C8B300000CE10005003100E0
:10C46C00E50045001180FB006800700080487800F2
:10C47C00180037009A40780000CCB300000CE100A3
:10C48C0005003100E50045001180FB0070007000D4
:10C49C00804878000F0037009A40780080CEB300B7
:10C4AC00000CE10006003100650145009280FB00A4
:10C4BC000002200000807000004978000500370061
:10C4CC00650145009280FB00000420000080700094
:08C4DC00004978000000060091
:020000040001F9
:105510008A1F78008B1F78008C1F78008D1F780001
:1055200061B324000020EF008048780071B32400AC
:1055300040C1B3008048780081B3240050CAB30052
:105540008048780091B3240060C7B3008048780099
:10555000A1B3240090C1B30080487800B1B3240007
:10556000F0C3B3008048780041B4240000CCB300FD
:105570008048780051B4240080CAB3008048780085
:1055800061B424000020EF008048780071B424004A
:10559000F0C7B3008048780001B4240000CCB30009
:1055A0008048780011B4240080CAB3008048780095
:1055B00021B424000020EF008048780031B424009A
:1055C00010C0B30080487800C1B3240000CCB30001
:1055D00080487800D1B3240080CAB30080487800A6
:1055E000E1B324000020EF0080487800F1B32400EC
:1055F00010C0B30080487800E19D2300F0CFB300D5
:1056000080487800F19D2300F0CFB30080487800F7
:10561000019E2300F0CFB30080487800119E230044
:105620000020EF00804878002D002000CC012000F1
:105630001620EF000A02200000102000801F7800D2
:105640000020EF00801F78000020EF00801F78000E
:105650000020EF00801F780020F607008F00B100C7
:1056600041E2A90001FE2F002024200010886000E4
:105670004282BF00E3007000202420007888700080
:1056800041E2A800F3F507008CCFB3004BB424002F
:105690006AB3240054F40700CCB324000BB42400F4
:1056A000EA9D230061F30700CF0678004F067800DB
:0C56B000CF0578004F05780000000600D0
:102EDC000000FA00CEB897003EBA97002EB99700C2
:102EEC009EB997004022EF004222EF0060C72000FD
:102EFC0010828800A03E2200308288000B007500F2
:102F0C000C0070000D0070000100700004007000D7
:102F1C0082007000202420000388700040C2A900A9
:0C2F2C0041E2A8000080FA00000006004E
:102E54000000FA008A1F78000820EF0050C0B30079
:102E64000024E100190031000445780070E40700F3
:102E7400410320000480FB000009B8008004210005
:102E84008200400020022000808040000020EF00EB
:102E940080487800410320000480FB000009B8004A
:102EA4008004210082004000200320008081400033
:102EB400C21421008480FB00004020000008B800F8
:102EC400800941000860EC00E4FF37004F057800FA
:082ED4000080FA000000060076
:020000040000FA
:10C034000000FA00410320000A80FB000009B80058
:10C044008004210082004000200220008080400003
:10C0540010C0B30080487800410320000A80FB0030
:10C064000009B80080042100820040006002200022
:10C07400808040000020EF00800878004103200009
:10C084000A80FB000009B8008004210082004000FF
:10C0940080022000808040000020EF0080087800AB
:10C0A400410320000A80FB000009B800800421003D
:10C0B40082004000A0022000808040000020EF00A9
:10C0C40080087800410320000A80FB000009B800C2
:10C0D4008004210082004000C002200080804000D3
:10C0E4000020EF0080087800410320000A80FB0054
:10C0F4000009B8008004210082004000E002200012
:10C10400808040000020EF00800878004103200078
:10C114000A80FB000009B80080042100820040006E
:10C124000002200080804000101020008008780069
:10C13400410320000A80FB000009B80080042100AC
:10C1440002004000EA0040000020EF008008780070
:10C15400410320000A80FB000009B800800421008C
:10C1640002004000EC0040000020EF00800878004E
:10C17400410320000A80FB000009B800800421006C
:10C1840002004000FF0040000020EF0080487800DB
:10C19400410320000A80FB000009B800800421004C
:10C1A40002004000FE0040000020EF0080487800BC
:10C1B400410320000A80FB000009B800800421002C
:10C1C4008200400050022000808040000020EF00E8
:10C1D40080487800410320000A80FB000009B80071
:10C1E40080042100020040007A0140000020EF009A
:10C1F4000220EF000089BE00410320000A80FB00FA
:10C204000009B800800421000200400076014000CB
:10C214000020EF000220EF000089BE00410320004F
:10C224000A80FB000009B8008004210002004000DD
:10C23400F4004000E0012000800878004103200061
:10C244000A80FB000009B8008004210002004000BD
:10C25400F2004000E0012000800878004103200043
:10C264000A80FB000009B80080042100820040001D
:10C2740030022000008040000A487800410320007A
:10C284000A80FB000009B8008004210082004000FD
:10C29400400220008080400010C0B3008048780035
:08C2A4000080FA000000060012
:020000040001F9
:1027E8000000FA008A1F78008B1F780010CEA9001D
:1027F800DEE40700DDE40700DCE4070014CEA800EF
:102808008C1F78008A9FBE006C0020008A05780023
:10281800CA55220063D907004F05BE008A1F7800F9
:102828004C0020006A0321005ED9070031D9070057
:1028380014CEA9000A0C200030828000000001009C
:102848004F0578004F067800C8E40700C7E4070082
:10285800C6E4070014CEA8008C1F78008A1F7800F1
:102868000B3425004AC0B30006DE0700DBFF250055
:102878006AC0B30003DE07001620EF001420EF0043
:1028880000DE070014CEA9004A0C20003082800028
:10289800000001004F0578004F067800B3E40700F8
:1028A800B2E40700B1E4070014CEA8008C1F78003A
:1028B8008A1F7800EB5E2000AAC0B300F1DD070094
:1028C8004F0578004F0678000C40780000E0EE00D5
:1028D8000000AE000300370050C1B300804078000C
:1028E8000200370020C1B300804078008C1F7800B8
:1028F8008A1F7800814578004AC0B300D2D6070005
:102908002BC1B3006AC0B300CFD6070014CEA9000C
:102918006A0C200030828000000001004F0578001A
:102928004F06780091E4070090E407008FE4070061
:1029380014CEA8000C80FB00680060006000E10075
:102948001D003A00C05522008C1F78008A1F7800AD
:10295800904578004AC0B300BBD60700D055220086
:10296800904578005AC0B300B7D60700E05522005A
:10297800904578002AC0B300B3D60700F05522006E
:10298800904578003AC0B300AFD607000056220041
:10299800904578001420EF00ABD6070010562200AF
:1029A800904578001AC0B300A7D607004F057800F5
:1029B8004F0678001C0037008C1F78008A1F7800AB
:1029C8004AC0B300B5D60700C15522008048780038
:1029D8005AC0B300B1D60700D1552200804878000C
:1029E8002AC0B300ADD60700E15522008048780020
:1029F8003AC0B300A9D60700F155220080487800F4
:102A08001420EF00A5D60700015622008048780060
:102A18001AC0B300A1D607004F0578004F0678000A
:102A28001156220080487800C0552200104D7800C9
:102A3800E1004500D055220090487800E2004500AA
:102A4800E055220090487800E3004500F055220048
:102A580090487800E400450000562200904878002D
:102A6800E500450010562200904878008C1F780039
:102A78001820EF001620EF002A56220074DD070008
:102A880014CEA9004A0C200030828000000001000A
:102A98004F06780035E4070034E4070033E4070004
:102AA80014CEA8000C457800B5DD0700CF057800E6
:0C2AB8004F0578000080FA0000000600C6
:020000040000FA
:10BB7400670020000E20ED00FEFF3A0000000000E8
:10BB840000000000000000000000000000000600AB
:00BB9400B1
:108DAC000000FA000B0178008A0178008C00780032
:108DBC0061005600000678000200E2000400320058
:108DCC00924978000620EC000420EC00F7FF3700F5
:0C8DDC000A0078000080FA000000060089
:108CFC000200FA008A1F78008B1F78004BC3B30068
:108D0C006AC1B300CFFD07002BC1B3007AC1B30019
:108D1C00CCFD07006AC1B300DFFD070000479800D7
:108D2C007AC1B300DCFD0700104798008E4090001C
:108D3C0040C3B300000CE10004003A001E40900058
:108D4C007204E10001003A0001003700EBFF37002C
:108D5C00BAC1B300D0FD0700004798000080AE00F8
:108D6C000100370001003700F9FF370014CEA900CD
:108D7C00AA0C200030828000000001007A0B070052
:108D8C00790B0700780B070014CEA800A2FD070092
:108D9C00CF0578004F0578000080FA00000006002F
:008DAC00C7
:108450000000FA008A1F780014CEA9000104200051
:108460000A80FB00008070008B1F780000057800F8
:108470003082800000000100CF0578000B85FB00F2
:108480003082800000000100BA0D0700B90D07001E
:10849000B80D070014CEA8004F0578000080FA0040
:0484A00000000600D2
:1047D4000000FA0044F407000080FA00000006001C
:0047E400D5
:1018EC000000FA0040C2A9004082BF006200600004
:1018FC006100E10002003A0000000000FAFF37002E
:10190C004A1288004082BF00610060006000E10064
:10191C0002003A0000000000FAFF3700411280007C
:0C192C00010078000080FA0000000600B6
:1047C4000000FA00ECF307000080FA000000060085
:0047D400E5
:10177C000000FA0060C2A9006082BF006200600035
:10178C006100E10002003A0000000000FAFF37009F
:10179C004A1388006082BF00610060006000E100B5
:1017AC0002003A0000000000FAFF370041138000ED
:0C17BC00010078000080FA000000060028
:1047E4000000FA0091118000001020000080600099
:1047F4006000E10002003A0000000000F9FF370009
:0C480400AA1188000080FA0000000600E5
:1084A4000000FA008A1F780014CEA90000C8B300A7
:1084B4000054E100090039008A1F78000A022000F4
:1084C40030828000000001004F0578000A85FB001F
:1084D4003082800000000100040037000A80FB00A5
:1084E4000005780030828000000001001420EF00B5
:1084F4001182800001000100804078009C0D07007B
:108504009B0D07009A0D070014CEA80001407800C7
:0C8514004F0578000080FA00000006000F
:104828000000FA006150E10005003E001000200081
:104838008A00DD00E0E02000108870000F003700DB
:104848006150E1000220EF000100360002A0EE00F6
:104858006550E1000020EF0001003E0000A0EE00DE
:104868000080600005003200E200550010002000C2
:104878008100DD00E0E12000108870004A198800FE
:104888002023A8002003AF0002003700000000002A
:10489800FCFF37002003A900011880000100780000
:0848A8000080FA000000060088
:108424000000FA000220EF00800C20000008E100A8
:1084340004003100F5F00700F4F007000220EC001E
:0C844400F9FF37000080FA00000006007D
:1048100007C820000E20ED00FEFF3A000000000057
:0848200000000000000006008A
:10A08C000000FA008A1F780014CEA90000C8B300A3
:10A09C000054E1000B0039008A9FBE002A02200008
:10A0AC0030828000000001004F05BE008B1F78003D
:10A0BC000A85FB003082800000000100CF0578008B
:10A0CC0008003700010420000A80FB0000807000AB
:10A0DC008B1F7800000578003082800000000100A2
:10A0EC00CF0578008B1F78000B057800308280003C
:10A0FC0000000100CF057800600120000020EC007A
:10A10C001085FB00308280000000010096060700DD
:10A11C00950607009406070014CEA8004F0578009A
:08A12C000080FA0000000600AB
:10A058000000FA000A0178008C00780061005600C0
:10A06800000678000200E200030032000B49780085
:10A078000420EC00F8FF37000A0078000080FA009E
:04A0880000000600CE
:10A188000200FA008A1F78008B1F78008C1F780065
:10A198000A40780000E0EE000000AE00030037003F
:10A1A8001003240080007800020037000003240018
:10A1B800800078008A1F7800810578002AC0B300E3
:10A1C800B0FF0700FB7023008AC0B300ADFF070093
:10A1D80014CEA9006A0C2000308280000000010023
:10A1E8004F05780061060700600607005F06070054
:10A1F80014CEA8008A1F78001620EF00CAC0B3004A
:10A2080091F807000BC1B300DAC0B3008EF807005D
:10A21800FBC0B3000AC1B3008BF807000BC1B30041
:10A228001AC1B30088F807000BC8B300EAC0B3002E
:10A2380050F80700FBC0B300FAC0B30062F807008B
:10A248004AC1B30095F807008080FB004004210054
:10A258007F886000E1004700600047000106780041
:10A26800800578001420EF00ABF807004F05780050
:10A278000A40780000C1EA000280FB00E1006000AB
:10A288000280FB00620060004400DD0080807000F6
:10A298000280FB00640060004200DD000080700066
:10A2A8001E469000804578001420EF0033F907001F
:10A2B8001BC0B300EAC1B3002EF8070057F8070027
:10A2C80014CEA9000A0C2000308280000000010092
:10A2D80026060700250607002406070014CEA80056
:10A2E8004F067800CF0578004F0578000080FA0007
:04A2F800000006005C
:10837C000000FA008A1F780014CEA9000108200022
:10838C000A80FB00008070008B1F780000057800CD
:10839C003082800000000100CF0578000B85FB00C7
:1083AC003082800000000100EF0D0700EE0D070089
:1083BC00ED0D070014CEA8004F0578000080FA00E0
:0483CC0000000600A7
:1083D0000000FA008A1F780014CEA900010A2000CC
:1083E0000A80FB00008070008B1F78000005780079
:1083F0003082800000000100CF0578000B85FB0073
:108400003082800000000100DA0D0700D90D07005E
:10841000D80D070014CEA8004F0578000080FA00A0
:048420000000060052
:108520000000FA008A1F780014CEA9008C1F780082
:108530008A9FBE004A0C20003082800000000100AB
:108540004F05BE004F0678008A0D0700890D070011
:10855000880D070014CEA8008C1F78008B1F7800B0
:108560008A4578004AC1B300B9FF07001BC0B300B9
:108570002AC1B30081FF070014CEA9006A0C2000B5
:108580003082800000000100CF0578004F0678009F
:10859000780D0700770D0700760D070014CEA800B0
:1085A0008C1F78008A9FBE00AAC0B300BDFF0700E1
:1085B0004F05BE004F0678000000AE0001003700F6
:1085C000F7FF370014CEA9008C1F78008A9FBE00E9
:1085D0004A0C200030828000000001004F05BE00E0
:1085E0004F067800630D0700620D0700610D07005C
:1085F00014CEA8008C1F78008A9FBE001BC0B30059
:108600002AC1B30072FF070014CEA9006A0C200033
:1086100030828000000001004F05BE004F06780048
:10862000540D0700530D0700520D070014CEA8008B
:108630008C1F78008A9FBE008AC0B30099FF070094
:108640004F05BE004F067800004E78008C1F780062
:108650008A9FBE009AC0B30092FF07004F05BE007C
:108660004F067800804D78004F0578000080FA00B2
:048670000000060000
:108784000000FA008A1F780014CEA9008C1F78001C
:108794008A9FBE004A0C2000308280000000010045
:1087A4004F05BE004F067800F10C0700F00C0700DF
:1087B400EF0C070014CEA80014CEA9008C1F78007B
:1087C4008A9FBE004A05200030828000000001001C
:1087D4004F05BE008B1F78000A85FB0030828000A5
:1087E400000001001A002000308280000000010017
:1087F400CF0578004F067800DD0C0700DC0C07007D
:10880400DB0C070014CEA80014CEA9008C1F78003E
:108814008B1F78006A0C2000308280000000010069
:10882400CF0578004F067800D10C0700D00C070064
:10883400CF0C070014CEA80014CEA9008C1F78001A
:108844008B1F78006A042000308280000000010041
:10885400CF0578004F0678008B1F78000C85FB004D
:108864003082800000000100CF0578000B85FB00FA
:108874003082800000000100BD0C0700BC0C070022
:10888400BB0C070014CEA8008C1F78008A9FBE0082
:10889400AAC0B30002FF07004F05BE004F067800D0
:1088A4000000AE0001003700F7FF37004F057800E5
:0888B4000080FA00000006003C
:020000040001F9
:10242C000000FA008A1F78008B1F78008C1F780040
:10243C008C1F78008B1F78004C0020008A057800D8
:10244C002A55220056DA0700CF0578004C002000F0
:10245C00EA03210052DA07004F0678008C05780059
:10246C004C002000EA5422004DDA07006A55220085
:10247C001FDD07004F067800CF0578004F05780068
:08248C000080FA0000000600C8
:020000040000FA
:1098FC000000FA008B1F78008C1F78004C002000B1
:10990C006B03210026FD07000620EF00631CE1001D
:10991C000D003E000380FB00000145008380FB002E
:10992C0020552200010040009080FB00F00F200029
:10993C00808068001280FB000100700000497800F4
:10994C000660EC00F1FF37004F067800CF05780079
:08995C000080FA000000060083
:020000040001F9
:105464000000FA008B1F78008C1F78008A1F7800D8
:105474004C0020001620EF004A6E2300F5D20700EE
:1054840020002000A08188005BF407004F0578000D
:105494004481800055818000600321001040780021
:1054A4006004E10010003A00849FBE008A1F780067
:1054B400ACF607004F0578004F02BE000A80FB00DF
:1054C4008000EB000001420081814A00800221003B
:1054D4003010E1002098E100020031000020EF00CC
:1054E40002003700ECFF3700100020004F06780060
:0C54F400CF0578000080FA0000000600E0
:1025FC000000FA008A1F78008B1F78008C1F78006F
:10260C00560037004C0020001620EF006A03210012
:10261C008EDE07001620EF001AC0B300B0E90700E9
:10262C00408180005181800050B6890061B68900DC
:10263C0030002000A08188005700370050B6810080
:10264C0061B6810065014000E081480080022100F4
:10265C003010E1002098E100020031002000200041
:10266C00A081880049EE07006200E10003003A00F7
:10267C0040002000A0818800010037004600370090
:10268C003B8180003AC0B30095E90700408180008F
:10269C005181800050B6890061B68900500020003D
:1026AC00A08188003C00370038EE070080007800DD
