:100000005AE5040000000000F4E4000016E50000DA
:100010000000000038E50000F2E3000000000000EE
:1000200000000000000000000000000000000000D0
:1000300000000000D2FA00000000000000000000F4
:1000400000000000B6FB000080FB00000000000084
:1000500000000000000000000000000014E40000A8
:100060000000000000000000000000000000000090
:100070000000000000000000000000000000000080
:100080000000000000000000000000000000000070
:1000900000000000000000005EFB00000000000007
:1000A0000000000000000000000000000000000050
:1000B0000000000000000000000000000000000040
:1000C0000000000000000000000000000000000030
:1000D0000000000000000000000000000000000020
:020000040001F9
:10CAB4002F452500F0FF270020A0B70020202000EC
:10CAC40032A0B700400020004420B700F000FA0074
:10CAD40002FC0200000000008A1F78008B1F78000F
:10CAE4008C1F78008D1F7800F1F12F0020042000A6
:10CAF400108860000E2EEF001E2EEF00008EA9009D
:10CB0400048EA9000020EF0040108A000020EF00EE
:10CB140030108A000020EF0020108A0050EF22001D
:10CB240050108A00710021000020EF008048780036
:10CB34000C7020001D0020001A1020005B00200053
:10CB4400F9E1070003E20700FDE20700CAEA070073
:10CB54001420EF003AFC0700EDE30700042EA900BF
:10CB6400140EA900142EA900148EA900002EA900E9
:10CB7400100EA900102EA900108EA90015EEA80011
:10CB840015CEA90011EEA90011CEA900E0004700BE
:10CB940030C5B3008058780040C7B300805878008F
:10CBA40010C6B3008058780020C7B30080587800BE
:10CBB40040C7B3008058780090C6B300805878000E
:10CBC400E0C6B3008058780070C6B300805878007F
:10CBD40000C2B3008058780040C4B3008058780085
:10CBE40030C4B3008058780030C4B3008058780053
:10CBF40000C2B3008058780000C5B30080587800A4
:10CC040010C6B3008058780030C6B300805878004E
:10CC1400B0C6B3008058780050C6B300805878007E
:10CC240040C7B3008058780030C7B30080587800FC
:10CC3400D0C0B30080587800A0C0B30080587800FA
:10CC440000C0B300805878006000470000057800F9
:10CC5400D9E3070021A8A80011E1A80005E1A80074
:10CC640007A02F000E20ED00FEFF3A000000000098
:10CC740000000000A7E30700E000470090C4B300F1
:10CC840080587800E0C6B3008058780090C6B3009E
:10CC94008058780040C7B3008058780090C6B3002D
:10CCA4008058780010C6B30080587800C0C6B3001E
:10CCB4008058780090C6B30080587800A0C7B300AD
:10CCC4008058780090C6B30080587800E0C6B3005E
:10CCD4008058780070C6B3008058780000C2B30052
:10CCE40080587800F0C4B30080587800C0C6B30000
:10CCF4008058780030C6B3008058780020C6B3004E
:10CD04008058780020C4B3008058780050C7B3001E
:10CD14008058780030C7B30080587800D0C0B30082
:10CD240080587800A0C0B3008058780000C0B300D9
:10CD34008058780060004700000578009EE30700F3
:10CD4400B1E3070028062000A7832A000E20ED0087
:10CD5400FEFF3A001020ED00FCFF3A005AC0B30079
:10CD640009EA070070B798006100E10067003A0023
:10CD7400E0004700E0C6B3008058780050C6B30016
:10CD84008058780040C7B3008058780070C7B3005B
:10CD940080587800F0C6B3008058780020C7B300EC
:10CDA40080587800B0C6B3008058780000C2B30041
:10CDB4008058780000C7B3008058780010C6B300CC
:10CDC4008058780020C7B3008058780010C6B3009C
:10CDD40080587800D0C6B3008058780050C6B3009D
:10CDE4008058780040C7B3008058780050C6B3001C
:10CDF4008058780020C7B3008058780030C7B3004B
:10CE04008058780000C2B3008058780070C7B3001F
:10CE14008058780050C6B3008058780020C7B3000B
:10CE24008058780050C6B3008058780000C2B30020
:10CE340080587800F0C6B3008058780020C6B3004C
:10CE44008058780040C7B3008058780010C6B300FB
:10CE54008058780090C6B30080587800E0C6B300CC
:10CE64008058780050C6B3008058780040C6B3009C
:10CE74008058780000C2B3008058780030C7B300EF
:10CE84008058780050C7B3008058780030C6B3008B
:10CE94008058780030C6B3008058780050C6B3007C
:10CEA4008058780030C7B3008058780030C7B3008A
:10CEB4008058780060C6B3008058780050C7B3002B
:10CEC40080587800C0C6B30080587800C0C6B3004C
:10CED4008058780090C7B30080587800E0C2B3004F
:10CEE40080587800D0C0B30080587800A0C0B30048
:10CEF4008058780000C0B300805878006000470074
:10CF0400000578002CE30700580037007EB090003D
:10CF14006000E10055003A00E0004700E0C6B300BD
:10CF24008058780050C6B3008058780040C7B300DA
:10CF34008058780070C7B30080587800F0C6B300FA
:10CF44008058780020C7B30080587800B0C6B3007A
:10CF54008058780000C2B3008058780000C7B3003E
:10CF64008058780010C6B3008058780020C7B300FA
:10CF74008058780010C6B30080587800D0C6B3003B
:10CF84008058780050C6B3008058780040C7B3007A
:10CF94008058780050C6B3008058780020C7B3008A
:10CFA4008058780030C7B3008058780000C2B300BE
:10CFB4008058780070C7B3008058780050C6B3001A
:10CFC4008058780020C7B3008058780050C6B3005A
:10CFD4008058780000C2B30080587800E0C6B300DF
:10CFE40080587800F0C6B3008058780040C7B3007A
:10CFF4008058780000C2B30080587800F0C6B300AF
:10D004008058780020C6B3008058780040C7B30029
:10D014008058780010C6B3008058780090C6B300DA
:10D0240080587800E0C6B3008058780050C6B3003A
:10D034008058780040C6B30080587800E0C2B3003E
:10D0440080587800D0C0B30080587800A0C0B300E6
:10D054008058780000C0B300805878006000470012
:10D0640000057800D4E207000000370028062000FD
:10D07400A7832A000E20ED00FEFF3A001020ED00E9
:10D08400FCFF3A003CE907004C00200080057800D2
:10D094008AF5230063E9070073E907004C002000C8
:10D0A400800578004A1D24005EE907006AE907004C
:10D0B4004C002000800578000A1D240059E907006F
:10D0C40029E907004C00200080057800CA1C2400D0
:10D0D40054E90700E000470040C4B30080587800DA
:10D0E40080C4B3008058780030C4B30080587800FE
:10D0F40000C5B3008058780000C2B300805878009F
:10D1040020C5B3008058780050C6B300805878001A
:10D1140030C7B3008058780050C7B30080587800F7
:10D12400C0C6B3008058780040C7B3008058780068
:10D1340030C7B30080587800D0C0B300805878005E
:10D14400A0C0B3008058780000C0B30080587800B5
:10D15400600047000005780097E207008B1D24005B
:10D164008AF523001BE30700100620000000470097
:10D1740092C4B3000258780002C7B3000258780082
:10D1840002C2B3000258780012C4B30002587800F7
:10D1940042C6B3000258780042C6B3000258780071
:10D1A40022C7B3000258780052C6B3000258780070
:10D1B40032C7B3000258780032C7B300025878006F
:10D1C400A2C3B3000258780002C2B3000258780028
:10D1D400811D2400F7E20700A1B82B00F5E2070047
:10D1E400800078000020EF008058780010062000AE
:10D1F40000004700000578006FE207008B1D240043
:10D204004A1D2400F3E20700100620000000470036
:10D2140072C4B3000258780012C6B30002587800F2
:10D2240042C7B3000258780052C6B30002587800CF
:10D2340072C7B3000258780012C6B30002587800CF
:10D2440092C7B3000258780002C2B30002587800B3
:10D2540012C4B3000258780042C6B30002587800E2
:10D2640042C6B3000258780022C7B30002587800BF
:10D2740052C6B3000258780032C7B300025878008F
:10D2840032C7B30002587800A2C3B3000258780032
:10D2940002C2B30002587800811D2400C5E20700D1
:10D2A400A1B82B00C3E20700800078000020EF0043
:10D2B4008058780010062000000047000005780020
:10D2C4003DE207008B1D2400CA1C2400C1E20700B4
:10D2D4001006200000004700D2C4B30002587800B2
:10D2E40012C6B3000258780032C7B300025878005F
:10D2F400B2C6B30002587800A2C3B3000258780043
:10D3040002C2B30002587800811D2400A9E207007C
:10D31400A1B82B00A7E20700800078000020EF00EE
:10D3240080587800100620000000470000057800AF
:10D3340021E207008B1D24000A1D2400A5E207003A
:10D34400100620000000470042C4B30002587800D1
:10D35400E2C4B3000258780032C5B3000258780022
:10D3640002C2B3000258780012C4B3000258780015
:10D3740042C6B3000258780042C6B300025878008F
:10D3840022C7B3000258780052C6B300025878008E
:10D3940032C7B3000258780032C7B300025878008D
:10D3A400A2C3B3000258780002C2B3000258780046
:10D3B400811D24007FE20700A1B82B007DE2070055
:10D3C400800078000020EF008058780010062000CC
:10D3D4000000470000057800F7E10700F0FF2F0088
:10D3E40010108A00A1E20700802024001000E00051
:10D3F40032003200C01F2400104078006004E100B5
:10D404000220EF0001003A0002A0EE00F00F8200BB
:10D414006000E1000020EF000100360000A0EE00F3
:10D42400008060000000320035E80700D00F8A0059
:10D43400010020000100E10002003200DA0F820046
:10D4440067E60700510220004020240010804000BD
:10D45400104078006304E10015003A0010E1070071
:10D464000000E200030032002A1082001DE10700E0
:10D474000F003700301082007400E1000220EF003A
:10D4840001003A0002A0EE00E01B240010807000AE
:10D4940007003200878E07000000E200020032001D
:10D4A4002A1082000FE107000020EF0030108A00EC
:10D4B400110020006020240010884000EBE00700E9
:10D4C4006000E100020032005AC0B300C0E007006F
:10D4D40052DA070070B798006100E100C7003A0013
:10D4E400E000470050C7B3008058780000C7B3007D
:10D4F40080587800F0C6B30080587800E0C6B300C6
:10D504008058780000C2B3008058780020C7B30068
:10D514008058780050C6B3008058780030C6B300F5
:10D524008058780050C6B3008058780000C7B30014
:10D534008058780040C7B3008058780090C6B30084
:10D5440080587800F0C6B30080587800E0C6B30075
:10D554008058780000C2B3008058780050C6B300E9
:10D564008058780020C7B3008058780020C7B300E3
:10D5740080587800F0C6B3008058780020C7B30004
:10D584008058780000C2B30080587800F0C6B30019
:10D594008058780020C7B3008058780000C2B300D8
:10D5A4008058780020C7B3008058780050C6B30074
:10D5B4008058780030C6B3008058780050C6B30055
:10D5C4008058780090C6B3008058780060C7B300D4
:10D5D4008058780050C6B3008058780000C2B30069
:10D5E4008058780020C6B3008058780050C7B30034
:10D5F4008058780060C6B3008058780060C6B300D5
:10D604008058780050C6B3008058780020C7B30013
:10D614008058780000C2B3008058780030C6B30048
:10D6240080587800F0C6B3008058780020C7B30053
:10D634008058780020C7B3008058780050C7B300E2
:10D644008058780000C7B3008058780040C7B30002
:10D654008058780090C6B30080587800F0C6B300B4
:10D6640080587800E0C6B30080587800E0C2B30068
:10D674008058780000C2B3008058780050C4B300CA
:10D6840080587800E0C4B3008058780030C4B300F8
:10D694008058780020C3B3008058780040C3B3009A
:10D6A40080587800A0C4B3008058780060C3B300E9
:10D6B4008058780000C3B3008058780000C3B300DA
:10D6C4008058780000C2B3008058780030C6B30098
:10D6D40080587800F0C6B30080587800E0C6B300E4
:10D6E4008058780040C7B3008058780020C7B30042
:10D6F40080587800F0C6B30080587800C0C6B300E4
:10D7040080587800C0C6B3008058780050C6B30073
:10D714008058780020C7B3008058780000C2B30056
:10D7240080587800E0C6B3008058780050C6B30033
:10D734008058780050C6B3008058780040C6B300C3
:10D744008058780030C7B3008058780000C2B30016
:10D754008058780040C7B30080587800F0C6B30002
:10D764008058780000C2B3008058780020C6B30007
:10D774008058780050C6B3008058780000C2B300C7
:10D784008058780020C7B3008058780050C6B30092
:10D794008058780030C7B3008058780040C7B30081
:10D7A4008058780010C6B3008058780020C7B300B2
:10D7B4008058780040C7B3008058780050C6B30042
:10D7C4008058780040C6B30080587800E0C2B300A7
:10D7D40080587800D0C0B30080587800A0C0B3004F
:10D7E4008058780000C0B30080587800600047007B
:10D7F40000057800F0E00700640137007EB0900077
:10D804006200E1009F003A00E000470020C7B30037
:10D814008058780050C6B3008058780030C6B300F2
:10D824008058780050C6B3008058780090C6B30082
:10D834008058780060C7B3008058780050C6B300A1
:10D844008058780040C6B3008058780000C2B30006
:10D854008058780000C7B3008058780010C6B30021
:10D864008058780030C6B30080587800B0C6B30042
:10D874008058780050C6B3008058780040C7B30081
:10D884008058780000C2B3008058780070C7B30095
:10D894008058780010C6B3008058780030C7B300B1
:10D8A4008058780000C2B30080587800E0C6B30006
:10D8B40080587800F0C6B3008058780040C7B300A1
:10D8C4008058780000C2B3008058780030C7B30095
:10D8D4008058780050C6B30080587800E0C6B30082
:10D8E4008058780040C7B3008058780000C2B30065
:10D8F4008058780040C7B30080587800F0C6B30061
:10D904008058780000C2B3008058780050C7B30034
:10D914008058780030C7B3008058780000C2B30044
:10D924008058780080C2B30080587800E0C6B30005
:10D9340080587800F0C6B3008058780040C7B30020
:10D944008058780000C2B30080587800F0C6B30055
:10D954008058780050C7B3008058780020C7B300BF
:10D964008058780000C2B3008058780090C4B30097
:10D974008058780000C5B30080587800C0C2B30056
:10D984008058780000C2B30080587800E0C6B30025
:10D9940080587800F0C6B3008058780020C7B300E0
:10D9A4008058780000C2B3008058780090C4B30057
:10D9B4008058780000C5B3008058780000C2B300D6
:10D9C4008058780020C6B3008058780020C7B30080
:10D9D40080587800F0C6B3008058780010C6B300B1
:10D9E4008058780040C6B3008058780030C6B30031
:10D9F4008058780010C6B3008058780030C7B30050
:10DA04008058780040C7B3008058780000C2B30043
:10DA14008058780010C6B3008058780040C6B30020
:10DA24008058780040C6B3008058780020C7B300FF
:10DA34008058780050C6B3008058780030C7B300CF
:10DA44008058780030C7B3008058780090C2B30083
:10DA540080587800E0C2B30080587800D0C0B3008A
:10DA640080587800A0C0B3008058780000C0B3008C
:10DA74008058780060004700000578004EE00700F9
:10DA8400C20037007EB090006300E1004B003A0012
:10DA9400E000470020C7B3008058780050C6B300A8
:10DAA4008058780030C6B3008058780050C6B30060
:10DAB4008058780090C6B3008058780060C7B300DF
:10DAC4008058780050C6B3008058780040C6B30030
:10DAD4008058780000C2B3008058780090C4B30026
:10DAE4008058780000C5B3008058780000C2B300A5
:10DAF4008058780000C7B3008058780010C6B3007F
:10DB04008058780030C6B30080587800B0C6B3009F
:10DB14008058780050C6B3008058780040C7B300DE
:10DB24008058780000C2B3008058780070C7B300F2
:10DB34008058780010C6B3008058780030C7B3000E
:10DB44008058780000C2B30080587800E0C6B30063
:10DB540080587800F0C6B3008058780040C7B300FE
:10DB64008058780000C2B3008058780090C4B30095
:10DB74008058780000C5B3008058780060C7B300AF
:10DB84008058780040C3B30080587800E0C2B300E6
:10DB940080587800D0C0B30080587800A0C0B3008B
:10DBA4008058780000C0B3008058780060004700B7
:10DBB4000005780000E00700740037007EB0900094
:10DBC4006400E10071003A00E000470020C7B300A0
:10DBD4008058780050C6B3008058780030C6B3002F
:10DBE4008058780050C6B3008058780090C6B300BF
:10DBF4008058780060C7B3008058780050C6B300DE
:10DC04008058780040C6B3008058780000C2B30042
:10DC14008058780000C7B3008058780010C6B3005D
:10DC24008058780030C6B30080587800B0C6B3007E
:10DC34008058780050C6B3008058780040C7B300BD
:10DC44008058780000C2B3008058780070C7B300D1
:10DC54008058780010C6B3008058780030C7B300ED
:10DC64008058780000C2B30080587800F0C6B30032
:10DC74008058780060C6B3008058780000C2B300B2
:10DC84008058780040C7B3008058780090C7B3002C
:10DC94008058780000C7B3008058780050C6B3009D
:10DCA4008058780000C2B3008058780050C7B30091
:10DCB40080587800E0C6B30080587800B0C6B3003E
:10DCC40080587800E0C6B30080587800F0C6B300EE
:10DCD4008058780070C7B30080587800E0C6B3005D
:10DCE4008058780000C2B3008058780040C7B30061
:10DCF40080587800F0C6B3008058780000C2B300A2
:10DD04008058780040C7B3008058780080C6B300BC
:10DD14008058780050C6B3008058780000C2B30021
:10DD240080587800C0C6B3008058780090C6B3000D
:10DD34008058780020C6B3008058780020C7B3000C
:10DD44008058780010C6B3008058780020C7B3000C
:10DD54008058780090C7B30080587800E0C2B300C0
:10DD640080587800D0C0B30080587800A0C0B300B9
:10DD74008058780000C0B3008058780060004700E5
:10DD8400000578008CDF070000003700B0DE0700D4
:10DD94006100E100FB053A00E0004700B0C3B300B6
:10DDA400805878000020EF00805878006000470019
:10DDB4000CC8B30080057800EAF52300E1DE070013
:10DDC400100620000000470052C4B3000258780037
:10DDD40032C6B3000258780082C6B30002587800F5
:10DDE400F2C6B3000258780002C2B30002587800A9
:10DDF40032C4B30002587800D2C6B3000258780087
:10DE040042C6B30002587800A2C3B3000258780097
:10DE140002C2B30002587800E1F52300E5DF0700F1
:10DE2400A1B82B00E3DF0700800078000020EF009A
:10DE34008058780010062000000047000005780094
:10DE4400EEC70700E0F523009040780050C7B30008
:10DE5400000CE10001003A0005003700E0F5230062
:10DE64009040780050C5B300000CE10088003A00EF
:10DE74002A108200FADE070060EF99006004E100D6
:10DE840039003A00E000470030C7B30080587800FA
:10DE940050C7B3008058780030C6B300805878006B
:10DEA40030C6B3008058780050C6B300805878005C
:10DEB40030C7B3008058780030C7B300805878006A
:10DEC40060C6B3008058780050C7B300805878000B
:10DED400C0C6B3008058780000C2B30080587800F0
:10DEE40060C4B3008058780090C5B30080587800AF
:10DEF400E0C4B3008058780000C2B30080587800B2
:10DF040040C7B3008058780020C7B3008058780019
:10DF140010C6B30080587800E0C6B300805878007B
:10DF240030C7B30080587800D0C6B300805878005A
:10DF340090C6B3008058780040C7B300805878007A
:10DF4400D0C0B30080587800A0C0B30080587800D7
:10DF540000C0B300805878006000470000057800D6
:10DF640015DF0700420037006EE891006104E1000C
:10DF74003F003A00E0004700E0C6B3008058780054
:10DF8400F0C6B3008058780000C2B300805878000F
:10DF940030C7B3008058780050C7B3008058780069
:10DFA40030C6B3008058780030C6B300805878007B
:10DFB40050C6B3008058780030C7B300805878004A
:10DFC40030C7B3008058780060C6B300805878002A
:10DFD40050C7B30080587800C0C6B300805878009A
:10DFE40000C2B3008058780060C4B3008058780041
:10DFF40090C5B30080587800E0C4B300805878001E
:10E0040000C2B3008058780040C7B300805878003D
:10E0140020C7B3008058780010C6B3008058780039
:10E02400E0C6B3008058780030C7B3008058780049
:10E03400D0C6B3008058780090C6B30080587800EA
:10E0440040C7B30080587800D0C0B300805878002F
:10E05400A0C0B3008058780000C0B3008058780096
:10E064006000470000057800D3DE07000000370099
:10E074000020EF0040108A0011002000A02024009E
:10E08400108840000020EF0020108A003805370077
:10E09400E0F523009040780030C7B300000CE100A5
:10E0A40001003A0005003700E0F5230090407800B5
:10E0B40030C5B300000CE10077013A0010002000E5
:10E0C400E0FA89000020EF00100E8A00E1F5230039
:10E0D400C0F52300108040009040780000C0B300D9
:10E0E400000CE10015003200E1F52300C0F5230027
:10E0F400108040001045780078DE07000000E20040
:10E104000A003200811D2400201C240010814000DC
:10E11400E1F52300C0F52300108040001049780089
:10E1240011002000201C2400108840001100200051
:10E13400C0F5230010884000E4FF3700811D24004F
:10E14400201C24009080400000C0B3008048780068
:10E154008A1D240002F607006000E1000400360076
:10E164008A1D24005CF60700500E8A000300370065
:10E174008B1D24005A0E820092F607006B1C2400AB
:10E184007AB22B0001F6070011002000A020240021
:10E1940010884000100620000000470032C4B3007D
:10E1A40002587800F2C6B30002587800E2C6B30001
:10E1B40002587800E2C6B3000258780052C6B30091
:10E1C4000258780032C6B3000258780042C7B30040
:10E1D4000258780092C6B30002587800E2C6B30031
:10E1E4000258780072C6B3000258780002C2B30025
:10E1F4000258780042C7B30002587800F2C6B30050
:10E204000258780002C2B3000258780012C3B30067
:10E214000258780092C3B3000258780022C3B300B6
:10E2240002587800E2C2B3000258780012C3B30067
:10E234000258780062C3B3000258780082C3B30066
:10E2440002587800E2C2B3000258780002C3B30057
:10E2540002587800E2C2B3000258780012C3B30037
:10E264000258780022C3B3000258780072C3B30086
:10E2740002587800A2C3B30002587800811D24001C
:10E28400CCDE0700A1B82B00CADE070080007800AE
:10E294000020EF008058780010062000000047009E
:10E2A4000005780044DE07004D2024005C10820045
:10E2B4005B0E82006A1C2400B3F6070060EF99002D
:10E2C4006004E1004F003A00E0004700E0C6B300FC
:10E2D40080587800F0C6B3008058780000C2B300BC
:10E2E4008058780030C7B3008058780050C7B30016
:10E2F4008058780030C6B3008058780030C6B30028
:10E304008058780050C6B3008058780030C7B300F6
:10E314008058780030C7B3008058780060C6B300D6
:10E324008058780050C7B30080587800C0C6B30046
:10E334008058780000C2B3008058780040C7B3000A
:10E344008058780020C7B3008058780010C6B30006
:10E3540080587800E0C6B3008058780030C7B30016
:10E3640080587800D0C6B3008058780090C6B300B7
:10E374008058780040C7B3008058780000C2B300CA
:10E384008058780030C5B3008058780090C5B30039
:10E3940080587800E0C4B3008058780000C2B3000D
:10E3A4008058780030C7B3008058780050C6B30056
:10E3B4008058780070C6B30080587800D0C6B30087
:10E3C4008058780050C6B30080587800E0C6B30087
:10E3D4008058780040C7B30080587800D0C0B3009C
:10E3E40080587800A0C0B3008058780000C0B30003
:10E3F400805878006000470000057800EEDD0700D3
:10E40400A40037006EE891006104E1004B003A007B
:10E41400E000470030C7B3008058780050C7B3000D
:10E424008058780030C6B3008058780030C6B300F6
:10E434008058780050C6B3008058780030C7B300C5
:10E444008058780030C7B3008058780060C6B300A5
:10E454008058780050C7B30080587800C0C6B30015
:10E464008058780000C2B3008058780040C7B300D9
:10E474008058780020C7B3008058780010C6B300D5
:10E4840080587800E0C6B3008058780030C7B300E5
:10E4940080587800D0C6B3008058780090C6B30086
:10E4A4008058780040C7B3008058780000C2B30099
:10E4B4008058780030C5B3008058780090C5B30008
:10E4C40080587800E0C4B3008058780000C2B300DC
:10E4D4008058780030C7B3008058780050C6B30025
:10E4E4008058780070C6B30080587800D0C6B30056
:10E4F4008058780050C6B30080587800E0C6B30056
:10E504008058780040C7B30080587800D0C0B3006A
:10E5140080587800A0C0B3008058780000C0B300D1
:10E52400805878006000470000057800A2DD0700ED
:10E53400F0FF2F0040108A00560037006EE891006B
:10E544006204E10031003A00E0004700E0C4B30097
:10E5540080587800F0C6B3008058780000C2B30039
:10E564008058780010C6B3008058780060C7B300A4
:10E574008058780010C6B3008058780090C6B30065
:10E5840080587800C0C6B3008058780010C6B30025
:10E594008058780020C6B30080587800C0C6B30005
:10E5A4008058780050C6B3008058780000C2B30089
:10E5B4008058780030C7B30080587800F0C6B300A4
:10E5C4008058780030C6B30080587800B0C6B300D5
:10E5D4008058780050C6B3008058780040C7B30014
:10E5E40080587800D0C0B30080587800A0C0B30031
:10E5F4008058780000C0B30080587800600047005D
:10E60400000578006CDD0700220037006EE89100F9
:10E614006304E1001F003A00E000470010C4B300A7
:10E624008058780020C5B3008058780000C5B30036
:10E634008058780000C2B3008058780060C4B300EA
:10E644008058780010C6B3008058780090C6B30094
:10E6540080587800C0C6B3008058780050C6B30014
:10E664008058780040C6B30080587800D0C0B3000A
:10E6740080587800A0C0B3008058780000C0B30070
:10E684008058780060004700000578004ADD0700E4
:10E6940000003700B6033700E0F52300904078000F
:10E6A40000C5B300000CE10001003A00B0033700DC
:10E6B400E0F523009040780080C5B300000CE10031
:10E6C40004003A001620EF00DA0F820010F8070069
:10E6D400A7033700E0F523009040780010C4B3008E
:10E6E400000CE10001003A0005003700E0F52300CA
:10E6F4009040780010C6B300000CE10004003A001A
:10E70400CCD407004FF507003FD507009803370026
:10E71400E0F523009040780040C4B300000CE10011
:10E7240001003A0005003700E0F52300904078002E
:10E7340040C6B300000CE1000F003A00BDD407004E
:10E7440079F50700200E8A006000E100080032001D
:10E754002A0E8200449D070060108A0090407800D1
:10E764000181FB00E10F2000810061000148780075
:10E7740025D507007E033700E0F52300904078009C
:10E7840060C4B300000CE10001003A00050037004A
:10E79400E0F523009040780060C6B300000CE1006F
:10E7A40009003A00A3D407005FF50700200E8A0091
:10E7B4006000E100020032002A0E820059A1070025
:10E7C40011D507006A033700E0F523009040780074
:10E7D400A0C5B300000CE10001003A0005003700B9
:10E7E400E0F5230090407800A0C7B300000CE100DE
:10E7F40001003A005E033700E0F523009040780002
:10E8040060C5B300000CE10003003A00FAFF2F00DA
:10E8140064E5070056033700E0F5230090407800D4
:10E8240060C7B300000CE10003003A001420EF00BD
:10E834005CE507004E033700E0F5230090407800C4
:10E8440080C3B300000CE1003B003A0020108200BA
:10E854006000E100030032002A10820052E5070044
:10E8640034003700E0004700F0C4B300805878005B
:10E87400C0C6B3008058780030C6B3008058780012
:10E8840020C6B3008058780030C5B30080587800A3
:10E89400F0C6B3008058780030C6B30080587800C2
:10E8A400B0C6B3008058780050C6B30080587800D2
:10E8B40040C7B3008058780000C2B3008058780085
:10E8C400E0C6B30080587800F0C6B30080587800E2
:10E8D40040C7B3008058780000C2B3008058780065
:10E8E40010C6B3008058780030C7B3008058780051
:10E8F40030C7B3008058780090C6B30080587800C1
:10E9040070C6B30080587800E0C6B3008058780021
:10E9140050C6B3008058780040C6B30080587800D1
:10E924000020EF0080587800600047000005780060
:10E93400A1DC07000E033700E0F5230090407800C7
:10E9440090C3B300000CE1008E003A00C0412500E2
:10E954008B1D240010457800CF9D07001006200071
:10E9640000004700F2C4B3000258780052C7B30055
:10E974000258780042C7B3000258780002C7B300B7
:10E984000258780052C7B3000258780042C7B30057
:10E994000258780002C2B30002587800D2C4B3000F
:10E9A40002587800F2C6B3000258780042C6B30099
:10E9B4000258780052C6B30002587800A2C3B300CC
:10E9C4000258780002C2B30002587800811D240066
:10E9D400F8DC0700A1B82B00F6DC07008000780003
:10E9E4000020EF0080587800100620000000470047
:10E9F4000005780070DC0700D04125008B1D240041
:10EA040010457800A49D0700100620000000470070
:10EA140002C5B3000258780022C7B3000258780038
:10EA2400F2C6B3000258780072C6B30002587800E8
:10EA340022C7B3000258780012C6B3000258780007
:10EA4400D2C6B30002587800D2C6B3000258780088
:10EA540092C6B30002587800E2C6B30002587800A8
:10EA640072C6B3000258780002C2B300025878009C
:10EA7400D2C4B30002587800F2C6B300025878003A
:10EA840042C6B3000258780052C6B3000258780058
:10EA9400A2C3B3000258780002C2B300025878003F
:10EAA400811D2400C3DC0700A1B82B00C1DC0700D2
:10EAB400800078000020EF008058780010062000C5
:10EAC40000004700000578003BDC0700E04125001A
:10EAD4008B1D2400104578006F9D07001006200050
:10EAE4000000470042C4B3000258780032C4B300A7
:10EAF4000258780032C4B3000258780002C2B3004E
:10EB04000258780022C4B3000258780052C7B300F8
:10EB14000258780032C7B3000258780002C2B3002A
:10EB240002587800D2C4B30002587800F2C6B30089
:10EB34000258780042C6B3000258780052C6B300A7
:10EB440002587800A2C3B3000258780002C2B3008E
:10EB540002587800811D240096DC0700A1B82B0020
:10EB640094DC0700800078000020EF0080587800D3
:10EB74001006200000004700000578000EDC0700A6
:10EB84007B023700E0F523009040780010C3B30007
:10EB9400000CE10002003A00D5E2070074023700DD
:10EBA400E0F523009040780020C3B300000CE1009E
:10EBB40028023A008B1D24007AA082000AC90700AB
:10EBC400100620000000470032C5B3000258780048
:10EBD40012C6B30002587800D2C6B30002587800B7
:10EBE40002C7B30002587800C2C6B30002587800C6
:10EBF40052C6B3000258780042C5B30002587800E8
:10EC040092C6B30002587800D2C6B3000258780006
:10EC140052C6B3000258780032C5B30002587800D7
:10EC240042C7B3000258780052C6B30002587800B5
:10EC340002C7B30002587800C2C4B3000258780077
:10EC440092C6B30002587800D2C6B30002587800C6
:10EC540092C6B3000258780042C7B3000258780045
:10EC640032C5B3000258780082C6B3000258780057
:10EC740052C7B3000258780042C7B3000258780064
:10EC840042C4B30002587800F2C6B30002587800B8
:10EC940072C7B30002587800E2C6B3000258780085
:10ECA400A2C3B3000258780002C2B300025878002D
:10ECB400811D24003FDC0700A1B82B003DDC0700C8
:10ECC400800078000020EF008058780010062000B3
:10ECD4000000470000057800B7DB07008B1D240007
:10ECE4008AA08200C0C80700100620000000470068
:10ECF40032C5B3000258780012C6B3000258780037
:10ED0400D2C6B3000258780002C7B3000258780094
:10ED1400C2C6B3000258780052C6B3000258780045
:10ED240042C5B3000258780092C6B3000258780076
:10ED3400D2C6B3000258780052C6B3000258780015
:10ED440032C5B3000258780042C7B30002587800B5
:10ED540052C6B3000258780002C7B30002587800C4
:10ED6400C2C4B3000258780092C6B30002587800B7
:10ED7400D2C6B3000258780092C6B3000258780095
:10ED840042C7B3000258780022C5B3000258780085
:10ED940052C6B3000258780032C7B3000258780054
:10EDA40042C7B3000258780012C6B3000258780074
:10EDB40022C7B3000258780042C7B3000258780053
:10EDC400A2C3B3000258780002C2B300025878000C
:10EDD400811D2400F7DB0700A1B82B00F5DB070039
:10EDE400800078000020EF00805878001006200092
:10EDF40000004700000578006FDB07008B1D24002E
:10EE04009AA0820078C8070010062000000047007E
:10EE140032C5B3000258780012C6B3000258780015
:10EE2400D2C6B3000258780002C7B3000258780073
:10EE3400C2C6B3000258780052C6B3000258780024
:10EE440042C5B3000258780092C6B3000258780055
:10EE5400D2C6B3000258780052C6B30002587800F4
:10EE640032C5B3000258780042C7B3000258780094
:10EE740052C6B3000258780002C7B30002587800A3
:10EE8400C2C4B3000258780092C6B3000258780096
:10EE9400D2C6B3000258780092C6B3000258780074
:10EEA40042C7B3000258780032C4B3000258780055
:10EEB400F2C6B3000258780052C7B3000258780073
:10EEC400E2C6B3000258780042C7B3000258780083
:10EED40052C6B3000258780022C7B3000258780023
:10EEE400A2C3B3000258780002C2B30002587800EB
:10EEF400811D2400AFDB0700A1B82B00ADDB0700A8
:10EF0400800078000020EF00805878001006200070
:10EF1400000047000005780027DB07008B1D240054
:10EF2400BAA0820030C80700100620000000470085
:10EF3400F2C4B3000258780062C7B30002587800E4
:10EF440052C6B3000258780022C7B30002587800B2
:10EF540002C2B3000258780032C4B30002587800E9
:10EF640052C7B3000258780022C7B3000258780091
:10EF740022C7B3000258780052C6B3000258780082
:10EF8400E2C6B3000258780042C7B30002587800C2
:10EF940002C2B30002587800C2C4B3000258780019
:10EFA40092C6B30002587800D2C6B3000258780063
:10EFB40092C6B3000258780042C7B30002587800E2
:10EFC400A2C3B3000258780002C2B300025878000A
:10EFD400811D240077DB0700A1B82B0075DB070037
:10EFE400800078000020EF00805878001006200090
:10EFF4000000470000057800EFDA07008B1D2400AD
:10F00400CAA08200F8C707001006200000004700CD
:10F01400F2C4B3000258780062C7B3000258780003
:10F0240052C6B3000258780022C7B30002587800D1
:10F0340002C2B3000258780032C4B3000258780008
:10F0440052C7B3000258780022C7B30002587800B0
:10F0540022C7B3000258780052C6B30002587800A1
:10F06400E2C6B3000258780042C7B30002587800E1
:10F0740002C2B3000258780032C4B30002587800C8
:10F08400F2C6B3000258780052C7B30002587800A1
:10F09400E2C6B3000258780042C7B30002587800B1
:10F0A40052C6B3000258780022C7B3000258780051
:10F0B400A2C3B3000258780002C2B3000258780019
:10F0C400811D24003BDB0700A1B82B0039DB0700BE
:10F0D400800078000020EF0080587800100620009F
:10F0E4000000470000057800B3DA07008B1D2400F8
:10F0F400AAA08200BCC70700100620000000470039
:10F1040022C4B3000258780092C6B30002587800B3
:10F1140042C7B3000258780062C5B30002587800B1
:10F1240012C6B30002587800C2C6B3000258780071
:10F1340052C7B3000258780052C6B3000258780090
:10F14400A2C3B3000258780002C2B3000258780088
:10F15400811D240017DB0700A1B82B0015DB070075
:10F16400800078000020EF0080587800100620000E
:10F1740000004700000578008FDA0700A0A0820095
:10F184008000EB0000C407002276220063FF230006
:10F194007C9D07003234230033B52300799D07009A
:10F1A4008C1D24000005BE00F0EA070010062000B4
:10F1B40000004700D2C4B3000258780052C6B3001E
:10F1C4000258780012C6B3000258780032C7B30060
:10F1D4000258780052C7B3000258780022C7B3001F
:10F1E4000258780052C6B3000258780042C6B300F1
:10F1F4000258780002C2B3000258780032C4B30047
:10F204000258780052C7B3000258780022C7B300EE
:10F214000258780022C7B3000258780052C6B300DF
:10F2240002587800E2C6B3000258780042C7B3001F
:10F2340002587800A2C3B3000258780002C2B30097
:10F2440002587800811D2400DADA070012C4B300E2
:10F2540002587800A1B82B00D6DA070080007800A5
:10F264000020EF00805878001006200000004700BE
:10F274000005780050DA07008B1D24000AA18200E3
:10F2840050F20700100620000000470092C4B300AB
:10F294000258780002C2B30002587800C2C4B30016
:10F2A4000258780052C6B3000258780062C7B3000F
:10F2B4000258780052C6B30002587800C2C6B300A0
:10F2C40002587800A2C3B3000258780002C2B30007
:10F2D40002587800811D2400B6DA0700A1B82B007B
:10F2E400B4DA0700800078000020EF00805878002E
:10F2F4001006200000004700000578002EDA070001
:10F304008B1D24001AA182002EF207001006200093
:10F314000000470092C4B3000258780002C2B30050
:10F324000258780042C5B3000258780092C6B30070
:10F3340002587800D2C6B3000258780052C6B3000F
:10F3440002587800A2C3B3000258780002C2B30086
:10F3540002587800811D240096DA0700A1B82B001A
:10F3640094DA0700800078000020EF0080587800CD
:10F374001006200000004700000578000EDA0700A0
:10F384008B1D24000A1082000EF2070010062000D4
:10F3940000004700F2C4B3000258780062C7B3000B
:10F3A4000258780052C6B3000258780022C7B3004E
:10F3B40002587800C2C6B30002587800F2C6B300FF
:10F3C4000258780012C6B3000258780042C6B3004F
:10F3D4000258780042C4B3000258780052C6B30001
:10F3E4000258780042C7B3000258780052C6B300EE
:10F3F4000258780032C6B3000258780042C7B300FE
:10F404000258780052C6B3000258780042C6B300CE
:10F4140002587800A2C3B3000258780002C2B300B5
:10F4240002587800811D240062DA0700A1B82B007D
:10F4340060DA0700800078000020EF008058780030
:10F44400100620000000470000057800DAD9070004
:10F4540047003700E0F523009040780030C3B30044
:10F46400000CE1002D003A000020EF00E0FA8900D2
:10F4740050A08200E100500071B79800C0F523004D
:10F484001008E10024003500E0FA8100C100DD002D
:10F49400603625000100400090057800EAFA8100FA
:10F4A4002AEB0700E0FA8100C100DD006036250088
:10F4B400010040001620EF0010057800DCEF070083
:10F4C400E0004700D0C0B30080587800A0C0B3006B
:10F4D40080587800D0C0B30080587800A0C0B30032
:10F4E4008058780000C0B30080587800600047005E
:10F4F40000057800B0D90700C1F523007EB0900064
:10F504001100E1000400320011002000C0F52300C6
:10F5140010884000D6FF370015003700E0F52300BF
:10F524009040780040C3B300000CE10002003A00B0
:10F53400EBEA07000E003700E0F523009040780066
:10F5440050C3B300000CE10009003A000020EF00B2
:10F554000220EF00B00D8A00C10D8A000020EF00E8
:10F564000220EF00D00D8A00E10D8A000000370070
:10F57400B7D807006100E10002003A0055B2070065
:10F58400FBFF370098F73700CF0678004F06780066
:10F59400CF0578004F0578000080FA00FFFF3700A0
:00F5A40067
:10532C007BF9070025F907001FF9070002FF0700AA
:10533C008C9FBE008A9FBE00A0F007004F05BE00E8
:0C534C004F06BE00E9EB07000000060061
:10391C008A1F78000820EF00E00020000401B800A6
:10392C00E05E2200020040000005780049EB070031
:10393C00100520000020E100020032000820EC00FD
:10394C00F5FF370010002000F00F8A00C11F240083
:10395C000020EF00804878000020EF0000108A0063
:10396C00C14125000020EF0080487800C1412500AE
:10397C000020EF0080487800D14125000020EF00A6
:10398C0080487800E14125000020EF008048780055
:10399C00F14125000020EF0080487800803E200097
:1039AC0000A18A004006200010A18A006142250077
:1039BC000020EF00804878000420EF0070422500C2
:1039CC00820040000020EF00804878007B10E1006E
:1039DC00020032000420EC00F8FF370031442500CF
:1039EC000020EF00804878000020EF00A0A08A00A3
:1039FC001000200070A08A00800C200080A08A009B
:103A0C000020EF0090A08A00803E2000B0A08A0029
:103A1C000020EF00C0A08A00A14125000020EF008B
:0C3A2C00804878004F057800000006007C
:020000040000FA
:10E660000020EF00004D7800E20045000020EF00A0
:10E6700080087800660145000020EF000220EF00CE
:10E680000089BE00EA0045000020EF008008780005
:10E69000E4004500C0C1B30080487800EC004500AC
:0CE6A0000020EF00800878000000060059
:020000040001F9
:1037C8000020EF00705A890001FE23000020EF005E
:1037D8008048780011FE23000020EF008048780020
:1037E8000020EF000220EF0010FF890021FF890070
:1037F80061FE23000020EF0080487800F1FE2300DE
:103808000020EF00804878000820EF00E00020004A
:103818000401B800C0002400020140000020EF00AD
:103828000220EF000089BE00E00020000401B8007B
:10383800C000240002004000E40040000020EF0027
:1038480080487800E00020000401B800C00024008F
:1038580002004000ED0040000020EF0080487800A2
:103868007D20E100020032000820EC00E7FF37006D
:103878000020EF000220EF0080FF890091FF8900FF
:1038880041FF23000020EF0080487800D1FF23008B
:103898000020EF00804878000020EF000220EF00B1
:1038A800F0FF890001008A00210024000020EF00B9
:1038B80080487800B10024000020EF00804878009C
:1038C8000020EF00800D8A000020EF00900D8A0094
:1038D8000020EF00A00D8A000020EF000220EF007A
:1038E800D00D8A00E10D8A000020EF000220EF00D1
:1038F800B00D8A00C10D8A000020EF00F00D8A008B
:103908000020EF00000E8A0050EF2200500E8A00BF
:0439180000000600A5
:1037B4000000200090C589000000200080C5890019
:0437C40000000600FB
:104F44008A1F78008B1F78000820EF00A000200043
:104F54000401B800408B23000200400000057800E3
:104F640041EA0700300A20000020E100020032007C
:104F74000820EC00F5FF3700D1F123000020EF00FA
:104F840080487800C1F123000020EF0080487800B9
:104F94000820EF00A00520000401B800004623000B
:104FA400020040000005780019E807006920E100CC
:104FB400020032000820EC00F6FF3700517E230087
:104FC4000020EF0080487800417E23000020EF009D
:104FD400804878000820EF00A00520000401B800F4
:104FE40020B522000200400000057800E5E8070033
:104FF4006120E100020032000820EC00F6FF3700D7
:1050040071C022000020EF008048780061C02200B7
:105014000020EF00804878000820EF0040012000C5
:105024000401B800607E23000200400000057800FF
:10503400B6E807006920E100020032000820EC0015
:10504400F6FF3700F18A23000020EF008048780043
:10505400E18A23000020EF00804878000820EF0058
:10506400A04220000401B80080C0220002004000D9
:105074001620EF000005780042E807006120E100F7
:10508400020032000820EC00F5FF3700D145230070
:105094000020EF0080487800C14523000020EF0085
:1050A40080487800CF0578004F057800000006009E
:0050B400FC
:020000040000FA
:10F86C000020EF00004D7800E20045000020EF0082
:10F87C0080087800E40045000020EF008008780044
:10F88C00E60045000020EF0080487800E8004500C5
:10F89C000020EF0080087800E70045000020EF0012
:08F8AC0080487800000006000E
:10F014006050E100340032000020EF00004D780021
:10F02400E20045000020EF0080087800E40045007D
:10F034000020EF0080087800E60045000020EF0083
:10F0440080487800E70045000020EF008048780001
:10F05400E80045000020EF0080087800EA00450041
:10F064000020EF0080487800600520008000450003
:10F074000020EF00800878003005200000004500E3
:10F08400E200400010C0B300804878003005200042
:10F09400800045000020EF00804878003005200003
:10F0A40000004500E10040000020EF0080487800A7
:10F0B40080052000800045000020EF008048780093
:10F0C4000420EF006B004500820040000020EF00A8
:10F0D40080487800700420000010E1000200320033
:0CF0E4000420EC00F7FF370000000600DD
:10F388000020EF00004D7800E20045000020EF006B
:10F3980080087800E40045000020EF00800878002D
:10F3A800E60045000020EF0080487800E7004500AF
:10F3B8000020EF0080487800E80045000020EF00BA
:10F3C800804878006A0145000020EF000220EF0025
:10F3D8000089BE00EE0045000020EF00800878009C
:10F3E80000052000800045000020EF0080487800DC
:10F3F80020052000800045000020EF0080087800EC
:10F408000420EF0070004500820040000020EF005B
:10F4180080487800F00320000010E100020032006C
:10F428000420EC00F7FF370040052000800045006D
:10F4380000C8B3008048780050052000000145004E
:10F4480061B92B00010009003159780080052000BE
:10F4580080004500000020008008780000000600B9
:00F46800A4
:10F310000020EF00004D7800E20045000020EF00E3
:10F3200080087800E40045000020EF0080087800A5
:10F33000E60045000020EF0080487800E700450027
:10F340000020EF0080487800E80045000020EF0032
:10F3500080087800EA0045000020EF00804878002F
:10F360000420EF006B004500820040000020EF0009
:10F37000804878006710E100020032000420EC00B1
:08F38000F8FF37000000060051
:10F188000200FA006050E1005D0032000020EF004C
:10F19800004D7800E20045000020EF00800878006C
:10F1A800E40045000020EF0080087800E6004500F4
:10F1B8000020EF0080487800E70045000020EF00BD
:10F1C80080487800E80045000020EF0080087800BB
:10F1D8006041200000004500E200400010C0B3007C
:10F1E8008048780060412000800045000020EF0042
:10F1F800804878006041200000004500E1004000A0
:10F208000020EF00804878006A0145000020EF00E8
:10F218000220EF000089BE006E0145000020EF00CB
:10F228000220EF000089BE00720145000020EF00B7
:10F238000220EF000089BE000420EF0076004500A0
:10F24800820040000020EF0080487800F03F200056
:10F258000010E100020032000420EC00F7FF370044
:10F268001600E2000700320040422000000045007E
:10F2780000079800B6DE07008E00900080487800EE
:10F288000400370040422000800045000020EF00C5
:10F2980080487800A0412000800045000020EF0051
:10F2A800800878000420EF00A041200000004500FD
:10F2B80000A0EC00820040000020EF0080487800A9
:10F2C8006710E100020032000420EC00F6FF37006E
:10F2D80050422000800045000020EF008048780060
:10F2E80060422000800045000020EF008008780080
:10F2F80080422000800045000020EF008048780010
:08F308000080FA00000006007D
:106D5800E045230010417800E04523001080FB0047
:106D6800E1004000E0452300014878000240780037
:046D78000000060011
:020000040001F9
:0415C8000000060019
:1002F8000200FA000020EF0060A08A000020EF0052
:1003080050A08A000820EF006020E10009003400B6
:10031800600320000401B800A0212400020040006E
:100328008A9FBE008BC0B300000578006EFB0700F3
:100338004F05BE00600320000401B800A02124007E
:1003480002004000841F78008C9FBE008A9FBE0078
:10035800840578000005780069FB07004F05BE009A
:100368004F06BE004F027800600320000401B80069
:10037800A021240002004000841F78008C9FBE004A
:100388008A9FBE00840578000005780034FC0700C9
:100398004F05BE004F06BE004F02780060032000E4
:1003A8000401B800A02124000201400004007800E4
:1003B800CF80DE000000460081804E00841F780058
:1003C8008C9FBE008A9FBE000B0678008A057800C5
:1003D80002057800809FBE0034FD07004F00B10081
:1003E8004F05BE004F06BE004F0278006003200094
:1003F8000401B800A021240002004000044878004D
:10040800100520000020E100020032000820EC0066
:10041800BDFF3700A9212400E2804400708040001D
:1004280000079800688040008A9FBE001620EF00F1
:1004380000057800B1FC07008E0090008008780065
:100448001BC0B3000905780027FB07004F05BE0055
:1004580050A08200C100DD00603625000100400088
:100468000908780050A082000020EC0050A08A0003
:100478008C9FBE008A9FBE0009057800ACFC07006F
:100488004F05BE004F06BE000080FA0000000600BF
:0004980064
:020000040000FA
:10F0F000610145009280FB000B80FB0000807000E6
:08F10000004978000000060040
:10F108000200FA008B1F78008BC0B30044DE0700B2
:10F11800CF0578000000E2001200320060022000F3
:10F1280000004500000798000B0078008000EB0005
:10F1380061005000E08058000270200003002000A9
:10F14800F3DB07000220200003002000000141003B
:10F15800818149000E0090000218780003107800A1
:10F168000500370060022000000145000020EF0084
:10F178000220EF000089BE000080FA0000000600AF
:00F1880087
:106A2800610045009080FB000B80FB0080806000C7
:106A38000B80FB000008E1000220EF0001003A0093
:0C6A480002A0EE00010078000000060033
:106118000000FA00020AB800500088000200B80027
:1061280081004200032AB800810042000080FA0082
:04613800000006005D
:10F468002003200000024500E00020000B01B80046
:10F47800E05E2200020040008000EB00008ABE002F
:04F48800000006007A
:10F8B4000000FA003EB99700CEB99700FC0045005D
:10F8C4000020EF0080087800FE0045000020EF00D3
:10F8D4008008780000022000800045000020EF002E
:10F8E4008008780020022000800045000020EF00FE
:10F8F40080087800E10045000020EF00804878008F
:10F90400F60045000020EF0080487800F70045002D
:10F914000020EF0080487800A0022000800045000D
:10F924000020EF0080087800C0022000800045001D
:10F934000020EF00800878006058E10060E0E100FA
:10F944000220EF000100320002A0EE006010E1008E
:10F954006098E1000020EF000100320000A0EE00FA
:10F964000080600011003200620045000288BE0081
:10F9740062004500640040000B1878000C10780009
:10F9840062004500E800400003000900B018780058
:10F99400F40045000020EF00804878007400450022
:10F9A400E10040000020EF00804878000420EF00D0
:10F9B40079004500820040000020EF008048780074
:10F9C4006010E100020032000420EC00F8FF370070
:10F9D4000420EF0078004500820040000020EF0082
:10F9E400804878006010E100020032000420EC003E
:10F9F400F8FF37000420EF007A0045008200400041
:10FA04000020EF00804878006010E100020032001E
:10FA14000420EC00F8FF3700FB0045000020EF0055
:10FA240080487800A0022000800045000020EF00FC
:10FA340080087800C0022000800045000020EF000C
:10FA440080087800E0022000800045000020EF00DC
:10FA54008008780000032000800045000020EF00AB
:10FA640080087800F40045000020EF00804878000A
:10FA740074004500E10040000020EF008048780059
:10FA840079D807008A1F780000057800F3FA070088
:0CFA94004F0578000080FA00000006001A
:105C6C000220EF006050E10004003200200320000D
:105C7C00000045009000780000003700010078001B
:045C8C00000006000E
:10F704001600E200010032000FDB07005EDB070099
:10F71400800078006008E10004003A000ADB07007A
:10F7240059DB0700800078000000370001007800F2
:04F7340000000600CB
:10634C00E4004500900020001103BE000000E900AD
:10635C00030035000603D0008783D200FBFF370013
:10636C001A02BE00F00020000401BE000000E9008B
:10637C00030035008301D1000281D300FBFF3700FD
:10638C00F01F2000010020000000610081806100EE
:10639C000001730081817300F0FF2F00F10F2000CA
:1063AC0000036100818361001A02BE00900020008E
:1063BC000401BE000000E900030035000201D0001A
:1063CC008381D200FBFF3700F0FF2F00F10F20007C
:1063DC0000016100818161001A00BE0002014000D1
:1063EC008381480090BA2400A1072000001D4100C1
:1063FC0001954900640245006400450030014300EA
:10640C00A0814B0030CA2000B1012000001A4100CD
:10641C000192490064044500640045001001BE006F
:10642C00F0FF2F00F10F2000000361008183610059
:10643C001A01BE000000200001F02F0000026100D4
:10644C0081826100820120000400BE000201E9008B
:10645C00030035008100D1000080D300FBFF370022
:10646C00001C7300019473001A01BE00F0FF2F0092
:10647C00F10F2000001D6100019561000000060075
:00648C0010
:10648C00E40045001A00780091026800BA01780017
:10649C002A027800C20020000300780084007800F3
:1064AC000201E900030035008100D1000080D30017
:1064BC00FBFF370000826A00E4014500C2002000A7
:1064CC001300BE000201E900030035008100D10079
:1064DC000080D300FBFF370000016A00F0FF2000B2
:0C64EC0080006100010078000000060044
:10F738004CD90700800178000220EF0001487800CA
:10F74800EA8041000020EF0080087800E280410054
:10F758000020EF0080087800668141000020EF005B
:0CF768000220EF000089BE000000060037
:020000040001F9
:105358008A1F78008B1F78008C1F78000E2EEF00B4
:105368001E2EEF00F18F2F0020742000108860009F
:105378004207A8004207AF00FEFF370001FE2F00DA
:105388004074200010886000E001200046A7B700A4
:1053980044E7A90044C7A900013020002074200078
:1053A800108870004207A8004207AF00FEFF3700D0
:1053B80042A7AE00FEFF370007A02F000E20ED0029
:1053C800FEFF3A000000000000000000EBEC0700C0
:1053D800ECC0B3001BC0B300CAC2B300DEEC0700C8
:1053E8001CC0B3001620EF00AAC2B300DAEC070015
:1053F8008AC307000A4028003B002000E8EC0700A9
:10540800A800200057402C000E20ED00FEFF3A00B7
:105418001020ED00FCFF3A00000000000421A90064
:105428004188A80041A8A80041C8A800A07320008E
:1054380002A1B7000068A9002068A8001021A900EF
:105448004388A90043A8A80043C8A9001081A80060
:1054580010A1A800400D23000CA1B70000E8A90086
:1054680020E8A80011E1A8001221A9004408A90019
:105478004428A8004448A9001281A80012A1A80045
:1054880040422F000EA1B7000108A9002108A8007A
:1054980013E1A8002021A9004E08A8004E28A90061
:1054A8004E48A8002081A80020A1A80010272000AD
:1054B8001CA1B7000388A9002388A8000E0EA80025
:1054C800F0FF210024A3B7002043A8002083A900EF
:1054D80020A3A80020C3A80020E3A8003303A90044
:1054E8002243A8002263A8002283A80022A3A800C0
:1054F80022C3A9004688A80046A8A80046C8A90053
:1055080001A8A90021E3A800070820000E20ED004B
:10551800FEFF3A0000000000000000004F0678007F
:0C552800CF0578004F0578000000060059
:100784000000FA0021742000620420007305200098
:10079400824878008348780042C7A9000080FA00A4
:0407A400000006004B
:100760000000FA008D1F78001A20EF003DF9070005
:100770008000780001007800CF0678000080FA0041
:04078000000006006F
:020000040000FA
:10EC64000200FA00F00F200000079800605CE10049
:10EC740043003A006168E10001003A00C006070061
:10EC84007454E10003003A00006820000C48780046
:10EC94003800370030C2B3000054E10003003A00EA
:10ECA400106820000C4878003200370040C2B300DE
:10ECB4000054E10003003A00206820000C4878006A
:10ECC4002C00370050C2B3000054E10003003A00A6
:10ECD400306820000C4878002600370060C2B3007A
:10ECE4000054E10003003A00406820000C4878001A
:10ECF4002000370070C2B3000054E10003003A0062
:10ED0400506820000C4878001A00370080C2B30015
:10ED14000054E10003003A00606820000C487800C9
:10ED24001400370090C2B3000054E10003003A001D
:10ED3400706820000C4878000E003700A0C2B300B1
:10ED44000054E10003003A00806820000C48780079
:10ED540008003700B0C2B3000054E10003003A00D9
:10ED6400906820000C487800020037000020EF0073
:10ED7400000798006168E10001003A0028DD0700FF
:10ED8400615CE1004E003A006168E10001003A0074
:10ED94007B0607006064E10003003A00106A20006B
:10EDA4000A487800430037006164E10003003A0038
:10EDB400206A20000A4878003E0037006264E100BF
:10EDC40003003A00606A20000A48780039003700DE
:10EDD4006364E10003003A00E06A20000A48780016
:10EDE400340037006464E10003003A00E06A200064
:10EDF4000A4878002F0037006564E10003003A00F8
:10EE0400106B20000A4878002A0037006664E1008D
:10EE140003003A00006B20000A4878002500370000
:10EE24006764E10003003A00606B20000A48780040
:10EE3400200037006E64E10003003A00406C2000BB
:10EE44000A4878001B0037006F64E10003003A00B1
:10EE5400606C20000A487800160037007064E100F6
:10EE640003003A00C06C20000A4878001100370003
:10EE74007164E10003003A00D06C20000A48780075
:10EE84000C0037007264E10003003A00E06C2000DB
:10EE94000A487800070037007364E10003003A0071
:10EEA400406D20000A487800020037000020EF007F
:10EEB400000798006168E10001003A00D8DC07000F
:10EEC4007454E10005003A001600AE00008EA9005B
:10EED4001600AF00008EA8004A00370030C2B3000D
:10EEE4000054E10005003A001600AE00106EA900BF
:10EEF4001600AF00106EA8004200370040C2B300F5
:10EF04000054E10005003A001600AE00108EA9007E
:10EF14001600AF00108EA8003A00370050C2B300AC
:10EF24000054E10005003A001600AE0010AEA9003E
:10EF34001600AF0010AEA8003200370060C2B30064
:10EF44000054E10005003A001600AE0010CEA900FE
:10EF54001600AF0010CEA8002A00370070C2B3001C
:10EF64000054E10005003A001600AE0010EEA900BE
:10EF74001600AF0010EEA8002200370080C2B300D4
:10EF84000054E10005003A001600AE00110EA9007D
:10EF94001600AF00110EA8001A00370090C2B3008B
:10EFA4000054E10005003A001600AE00112EA9003D
:10EFB4001600AF00112EA80012003700A0C2B30043
:10EFC4000054E10005003A001600AE00114EA900FD
:10EFD4001600AF00114EA8000A003700B0C2B300FB
:10EFE4000054E10005003A001600AE00116EA900BD
:10EFF4001600AF00116EA800020037000020EF00D9
:10F00400000798000E0090000080FA00000006003F
:00F01400FC
:106224000000FA002174200062042000730520009D
:10623400824878008348780042C7A8000080FA00AA
:046244000000060050
:020000040001F9
:1007A8000C00FA002030280050F98900C0F6250016
:1007B80040F98900A0C22A0010F9890060F72500D5
:1007C80030F989002022EF000000280022A2B7009B
:1007D8002062A900B0FC0700823E20000300200030
:1007E8004BD6070000079800110798005400200016
:1007F8000A01BE000402E900030035000201D0002E
:100808008381D200FBFF3700220798003307980046
:100818008A9FBE000082EB0019FD07004007980080
:10082800510798002E019000BE0190000E00900024
:100838009E0090000082EB0046FD07004F05BE00B9
:10084800000798001107980064004700B00078007E
:10085800200178000201D1008180D30068004700A0
:100868003008E1002090E10005003D008E00900076
:100878001E01900060004700619840006010490028
:100888000E0090009E0090006000E1006088E1008A
:100898002A003A0080FC0700823E20000300200066
:1008A8001BD60700000798001107980034002000A5
:1008B8000A01BE000402E900030035000201D0006D
:1008C8008381D200FBFF3700220798003307980086
:1008D8000082EB00EAFC07004007980051079800E7
:1008E8002E019000BE0190000E0090009E00900026
:1008F8000082EB0017FD0700000798001107980019
:1009080064004700B0007800200178000201D1009F
:100918008180D300680047003008E1002090E100A2
:1009280005003D008E0090001E0190006000470009
:1009380061984000601049002062A8008E00900075
:1009480080222000618850002222A90021E2A8000C
:100958002342A800FEFD07000080FA000000060000
:000968008F
:020000040000FA
:10FAA00002A02F00030020000200BE00000006009C
:00FAB00056
:020000040001F9
:1001580007A02F000E20ED00FEFF3A00000000006F
:08016800000000000000060089
:020000040000FA
:10FC88000000FA0002000700987E0400000000004F
:10FC98000800E20002003A00100007000000060019
:10FCA800811F78000200E20002003D0060001000A1
:10FCB800E08018000600E20002003D00600111002B
:10FCC800E0811900050007004F00E00002003B003A
:10FCD80060001000E0801800000006000200070025
:10FCE8000480BE00000006006022B8000602200062
:10FCF8000000D0008180D2000482D2008582D20028
:10FD08000000A8000202520083825A0003003B0050
:10FD18000202420083824A000000A1000603E900B3
:10FD2800F3FF3A00000006000080FA000000060019
:00FD3800CB
:10FD5C000000FA0002000700FC7E04000000000016
:10FD6C000800E20002003A00100007000000060044
:10FD7C00839F68000200E20002003D00600010005A
:10FD8C00E08018000600E20002003D006001110056
:10FD9C00E0811900050007004F00E00002003B0065
:10FDAC0060001000E0801800000006006022B8001F
:10FDBC00060220000000D0008180D2000482D20014
:10FDCC008582D2000000A8000202520083825A00F1
:10FDDC0003003B000202420083824A000000A100A3
:10FDEC000603E900F3FF3A00000006000080FA0069
:04FDFC0000000600FD
:020000040001F9
:105744008A1F78008B1F78008C1F78008D1F7800CB
:105754000DC1B300ACA62200ABAC2200AAB2220059
:1057640000012000801F78004FEB07002F00B100DC
:105774001A20EF001820EF001620EF00CA5B220069
:105784000020EF00801F780047EB07002F00B100D6
:10579400CF0678004F067800CF0578004F057800D3
:0457A40000000600FB
:1004AC000000FA000EFA97009BFE07000B0D780077
:1004BC00E20045000020EF00804878006300450012
:1004CC000D487800E40045000020EF0080487800DB
:1004DC00E50045000020EF0080487800E60045006C
:1004EC000020EF0080487800E80045000020EF0075
:1004FC00800878000A20EF00630045001080FB00A4
:10050C00E10150000328E1000C003C001A007800C7
:10051C0000017800600020000500B80000004100D8
:10052C00E50040000020EF00804878000328E1003F
:10053C00020032000A20EC00EFFF37006A00450091
:10054C000C0878006A004500E20040000020EF0033
:10055C00804878006A004500630040000448780039
:10056C006A004500E40040000020EF00804878005D
:10057C006A004500E50040000020EF00804878004C
:10058C006A004500E60040000020EF00804878003B
:10059C006A004500E80040000020EF008008780069
:1005AC000820EF006A004500630040001080FB004B
:1005BC00E10150000320E1000D003C006A00450001
:1005CC001000780000017800600020000400B800E2
:1005DC0000004100E50040000020EF00804878005A
:1005EC000320E100020032000820EC00EDFF370090
:0805FC000080FA000000060077
:020000040000FA
:10FF2400FB0045000020EF0080487800FD004500FC
:10FF340070C0B30080487800FE0045000020EF0048
:10FF440080487800FA0045000020EF0080487800DF
:10FF540030022000800045000020EF008048780037
:10FF64002002200080004500F0CFB30080487800D4
:04FF74000000060083
:020000040001F9
:10767C00715E22000020EF0080487800015E22003D
:10768C0000C8B30080487800915E22000020EF0013
:10769C0080487800115E22000020EF0080487800BE
:1076AC00215E22000020EF00804878000020EF00CF
:1076BC00202F8900615E22000020EF0080487800B6
:1076CC00815E22000020EF0080487800A15E22003D
:1076DC000020EF0080487800F0FF2F00602F890019
:0876EC00104EA800000006008A
:04BC440000000600F6
:045B14000000060087
:105BBC000000FA000220EF001A4078000041780043
:105BCC0002407800014178006004E1000A003200D4
:105BDC008A1F78000085FB0087EA07004F057800D4
:105BEC00E14041000180FB000000450010407800BE
:105BFC0001417800F4FF37000080FA000000060035
:005C0C0098
:100604000000FA001111800000102000008060003A
:100614006000E10002003A0000000000F9FF37002A
:0C0624002A1188000080FA000000060087
:105B18000600FA008A1F78008B1F78008C1F780017
:105B28008D1F7800600047001A20EF001820EF0052
:105B3800FBCFB3000005780020002000801F78000C
:105B48000020EF00801F78000020EF00801F780001
:105B5800B5EA07006F00B1001020EF0060004700B1
:105B6800FCFF2F0080057800AAB2220099FA0700EE
:105B780000A0EE000500320007C820000E20ED004E
:105B8800FEFF3A0000000000000000007340E10042
:105B9800020032001020EC00F0FF3700CF0678003A
:105BA8004F067800CF0578004F0578000080FA008E
:045BB80000000600E3
:100630000000FA008EF897006EF19700CEF1970057
:100640000B4D7800610045000C48780062004500C1
:100650000D487800630045000148780064004500BB
:100660000248780065004500034878000080FA00E1
:040670000000060080
:1045DC008B1F78008C1F78008D1F78000420EF0053
:1045EC001800E2004B003200EA00450062804000F7
:1045FC00E3804000104078001104E10043003100DA
:10460C00EA014500648041001082FB001300780031
:10461C0000017800600020000400B8000003410095
:10462C00E100420081037800638041001040780073
:10463C000080FB000008E100020035000E20EF00B6
:10464C0000003700E182450062824500E3814500AD
:10465C00E4804500658045001080FB006701600028
:10466C0011407800934078008A1F780094467800B7
:10467C00154678009B45780006057800821F780067
:10468C000080FB00801F78000180FB00801F7800F9
:10469C00E4EF07006F00B1000605780032EC07006C
:1046AC004F0578006A004500640040000748780018
:1046BC006A014500620041001080FB00E1004000EF
:1046CC0066004100104078000080FB000008E1000B
:1046DC00060036006A004500E600400000A0EC0031
:1046EC001080FB000020EC00804878006A00450038
:1046FC00E20040001180FB000020EC0080487800B4
:10470C00F0FF2F0080007800010037008200780055
:10471C004400370062004500E3004500104078007B
:10472C001104E1003E003100640045009081FB0063
:10473C001A00780000017800600020000300B80027
:10474C0000034100E18041008103780063004500D3
:10475C00104078000080FB000008E10002003500EA
:10476C000E20EF0000003700E18245006282450018
:10477C00E3814500E4804500658045001080FB0026
:10478C006701600011407800934078008A1F780020
:10479C0094467800154678009B457800060578000D
:1047AC00821F78000080FB00801F78000180FB00D6
:1047BC00801F78009BEF07006F00B10006057800A2
:1047CC00E9EB07004F0578006400450007487800C6
:1047DC00620045001080FB00E100400066004500CF
:1047EC00104078000080FB000008E1000500360056
:1047FC00E6004500620045001080FB000020EC0044
:10480C0080487800E20045001180FB000020EC009D
:10481C0080487800F0FF2F008000780001003700FE
:10482C008200780001007800CF0678004F067800EF
:08483C00CF0578000000060022
:020000040000FA
:10F77400E50045001180FB006700600080487800C8
:10F784001A4178006014E1000220EF0001003A0001
:10F7940002A0EE00F0CFB3000014E1000020EF005F
:10F7A40001003A0000A0EE0080807000E0CFB300BA
:10F7B4000014E1000020EF0001003A0000A0EE0078
:10F7C4000080700006003200650145009280FB0055
:10F7D40000082000008070000049780021003700F4
:10F7E4009A40780000C8B300000CE1000500310025
:10F7F400E50045001180FB00680070008048780037
:10F80400180037009A40780000CCB300000CE100E7
:10F8140005003100E50045001180FB007000700018
:10F82400804878000F0037009A40780080CEB300FB
:10F83400000CE10006003100650145009280FB00E8
:10F8440000022000008070000049780005003700A5
:10F85400650145009280FB000004200000807000D8
:08F864000049780000000600D5
:020000040001F9
:105C0C008A1F78008B1F78008C1F78008D1F7800FE
:105C1C00A14425000020EF0080487800B144250005
:105C2C0040C1B30080487800C144250050CAB3007D
:105C3C0080487800D144250060C7B30080487800C4
:105C4C00E144250090C1B30080487800F144250060
:105C5C00F0C3B300804878006144250000CCB30049
:105C6C00804878007144250080CAB30080487800D1
:105C7C00814425000020EF008048780091442500E5
:105C8C00F0C7B300804878006121240000CCB30039
:105C9C00804878007121240080CAB30080487800C5
:105CAC00812124000020EF008048780091212400FD
:105CBC0010C0B300804878002121240000CCB30030
:105CCC00804878003121240080CAB30080487800D5
:105CDC00412124000020EF0080487800512124004D
:105CEC0010C0B30080487800E1202400F0CFB3004E
:105CFC0080487800F1202400F0CFB3008048780071
:105D0C0001212400F0CFB300804878001121240039
:105D1C000020EF00804878002D002000CC012000EE
:105D2C001620EF000A02200000102000801F7800CF
:105D3C000020EF00801F78000020EF00801F78000B
:105D4C000020EF00801F78009BF907008F00B10046
:105D5C0041E2A90001FE2F002024200010886000E1
:105D6C004282BF00E300700020242000788870007D
:105D7C0041E2A8006EF907008CCFB3006B442500FC
:105D8C00AA4425002CFB07002C2124006B212400A5
:105D9C00EA202400DFFB0700CF0678004F067800CE
:0C5DAC00CF0578004F05780000000600CD
:1043C4000000FA00CEB897003EBA97002EB99700C5
:1043D4009EB997004022EF004222EF00C000220065
:1043E400B0818800C0D52200508388000B0075007E
:1043F4000C0070000D0070000100700004007000DB
:1044040082007000202420000388700040C2A900AC
:0C44140041E2A8000080FA000000060051
:10433C000000FA008A1F78000820EF0050C0B3007C
:10434C000024E10019003100044578004CEC070012
:10435C00410320000480FB000009B8006007210025
:10436C008200400020022000808040000020EF00EE
:10437C0080487800410320000480FB000009B8004D
:10438C006007210082004000200320008081400053
:10439C00E21721008480FB00004020000008B800D8
:1043AC00800941000860EC00E4FF37004F057800FD
:0843BC000080FA000000060079
:020000040000FA
:10F48C000000FA00410320000A80FB000009B800CC
:10F49C006007210082004000200220008080400094
:10F4AC0010C0B30080487800410320000A80FB00A4
:10F4BC000009B800600721008200400060022000B3
:10F4CC00808040000020EF0080087800410320007D
:10F4DC000A80FB000009B800600721008200400090
:10F4EC0080022000808040000020EF00800878001F
:10F4FC00410320000A80FB000009B80060072100CE
:10F50C0082004000A0022000808040000020EF001C
:10F51C0080087800410320000A80FB000009B80035
:10F52C006007210082004000C00220008080400063
:10F53C000020EF0080087800410320000A80FB00C7
:10F54C000009B8006007210082004000E0022000A2
:10F55C00808040000020EF008008780041032000EC
:10F56C000A80FB000009B8006007210082004000FF
:10F57C0000022000808040001010200080087800DD
:10F58C00410320000A80FB000009B800600721003D
:10F59C0002004000EA0040000020EF0080087800E4
:10F5AC00410320000A80FB000009B800600721001D
:10F5BC0002004000EC0040000020EF0080087800C2
:10F5CC00410320000A80FB000009B80060072100FD
:10F5DC0002004000FF0040000020EF00804878004F
:10F5EC00410320000A80FB000009B80060072100DD
:10F5FC0002004000FE0040000020EF008048780030
:10F60C00410320000A80FB000009B80060072100BC
:10F61C008200400050022000808040000020EF005B
:10F62C0080487800410320000A80FB000009B800E4
:10F63C0060072100020040007A0140000020EF002A
:10F64C000220EF000089BE00410320000A80FB006D
:10F65C000009B8006007210002004000760140005C
:10F66C000020EF000220EF000089BE0041032000C3
:10F67C000A80FB000009B80060072100020040006E
:10F68C00F400400000402000800878004103200076
:10F69C000A80FB000009B80060072100020040004E
:10F6AC00F200400000402000800878004103200058
:10F6BC000A80FB000009B8006007210082004000AE
:10F6CC0030022000008040000A48780041032000EE
:10F6DC000A80FB000009B80060072100820040008E
:10F6EC00400220008080400010C0B30080487800A9
:08F6FC000080FA000000060086
:020000040001F9
:104A44000000FA008A1F78008B1F780010CEA9009E
:104A5400E6E30700E5E30700E4E3070014CEA8005B
:104A64008C1F78008A9FBE006C0020008A057800A5
:104A74000A072100E5E307004F05BE008A1F7800FE
:104A84004C0020002A582200E0E30700EEE3070070
:104A940014CEA9000A0C20005083800000000100FD
:104AA4004F0578004F067800D0E30700CFE30700F6
:104AB400CEE3070014CEA8008C1F78008A1F78006C
:104AC4000B3425004AC0B30034E30700DBFF2500A4
:104AD4006AC0B30031E307001620EF001420EF0092
:104AE4002EE3070014CEA9004A0C20005083800056
:104AF400000001004F0578004F067800BBE3070073
:104B0400BAE30700B9E3070014CEA8008C1F7800AD
:104B14008A1F7800EB5E2000AAC0B3001FE30700E1
:104B24004F0578004F0678000C40780000E0EE0056
:104B34000000AE000300370050C1B300804078008D
:104B44000200370020C1B300804078008C1F780039
:104B54008A1F7800814578004AC0B300ECCF070073
:104B64002BC1B3006AC0B300E9CF070014CEA9007B
:104B74006A0C200050838000000001004F0578007B
:104B84004F06780099E3070098E3070097E30700CE
:104B940014CEA8000C80FB00680060006000E100F7
:104BA4001D003A00000721008C1F78008A1F78003E
:104BB400904578004AC0B300D5CF07001007210004
:104BC400904578005AC0B300D1CF070020072100D8
:104BD400904578002AC0B300CDCF070030072100EC
:104BE400904578003AC0B300C9CF070040072100C0
:104BF400904578001420EF00C5CF0700500721002E
:104C0400904578001AC0B300C1CF07004F05780063
:104C14004F0678001C0037008C1F78008A1F78002C
:104C24004AC0B300CFCF07000107210080487800B5
:104C34005AC0B300CBCF0700110721008048780089
:104C44002AC0B300C7CF070021072100804878009D
:104C54003AC0B300C3CF0700310721008048780071
:104C64001420EF00BFCF07004107210080487800DF
:104C74001AC0B300BBCF07004F0578004F06780079
:104C8400510721008048780000072100104D78006A
:104C9400E10045001007210090487800E20045003B
:104CA4002007210090487800E300450030072100E8
:104CB40090487800E40045004007210090487800BF
:104CC400E500450050072100904878008C1F7800CB
:104CD4001820EF001620EF008A582200D9E20700BE
:104CE40014CEA9004A0C200050838000000001006B
:104CF4004F0678003DE307003CE307003BE3070071
:104D040014CEA8000C457800DBE20700CF0578003C
:0C4D14004F0578000080FA000000060047
:020000040000FA
:10D9F000670020000E20ED00FEFF3A00000000004E
:10DA00000000000000000000000000000000060010
:00DA100016
:10DA10000000FA000B0178008A0178008C00780081
:10DA200061005600000678000200E20004003200A7
:10DA3000924978000620EC000420EC00F7FF370044
:0CDA40000A0078000080FA0000000600D8
:10DA4C000200FA008A1F78008B1F78004BC3B300CA
:10DA5C006AC1B3002CEC07002BC1B3007AC1B30030
:10DA6C0029EC07006AC1B3003CEC070000479800A2
:10DA7C007AC1B30039EC0700104798008E40900033
:10DA8C0040C3B300000CE10004003A001E409000BB
:10DA9C007204E10001003A0001003700EBFF37008F
:10DAAC00BAC1B3002DEC0700004798000080AE000F
:10DABC000100370001003700F9FF370014CEA90030
:10DACC00AA0C20005083800000000100C5FF070055
:10DADC00C4FF0700C3FF070014CEA800EAEB070041
:10DAEC00CF0578004F0578000080FA000000060092
:00DAFC002A
:108B14000000FA008A1F780014CEA9000104200086
:108B24000A80FB00008070008B1F7800000578002D
:108B34005083800000000100CF0578000B85FB0006
:108B44005083800000000100A8130700A71307004A
:108B5400A613070014CEA8004F0578000080FA0081
:048B64000000060007
:105AB8000000FA0056F907000080FA00000006000E
:005AC800DE
:104018000000FA0040C2A9004082BF0062006000B0
:104028006100E10002003A0000000000FAFF3700DA
:104038004A1288004082BF00610060006000E10011
:1040480002003A0000000000FAFF37004112800029
:0C405800010078000080FA000000060063
:105A5C000000FA008EF207000080FA000000060039
:005A6C003A
:10249C000000FA0060C2A9006082BF006200600008
:1024AC006100E10002003A0000000000FAFF370072
:1024BC004A1388006082BF00610060006000E10088
:1024CC0002003A0000000000FAFF370041138000C0
:0C24DC00010078000080FA0000000600FB
:105A6C000000FA00911180000010200000806000FE
:105A7C006000E10002003A0000000000F9FF37006E
:0C5A8C00AA1188000080FA00000006004B
:108B68000000FA008A1F780014CEA90000C8B300DC
:108B78000054E100090039008A1F78000A02200029
:108B880050838000000001004F0578000A85FB0033
:108B98005083800000000100040037000A80FB00B9
:108BA8000005780050838000000001001420EF00C9
:108BB800B181800001000100804078008A1307001D
:108BC800891307008813070014CEA8000140780015
:0C8BD8004F0578000080FA000000060045
:105758000000FA006150E10005003E001000200042
:105768008A00DD00E0E02000108870000F0037009C
:105778006150E1000220EF000100360002A0EE00B7
:105788006550E1000020EF0001003E0000A0EE009F
:105798000080600005003200E20055001000200083
:1057A8008100DD00E0E12000108870004A198800BF
:1057B8002023A8002003AF000200370000000000EB
:1057C800FCFF37002003A9000118800001007800C1
:0857D8000080FA000000060049
:108A94000000FA000220EF00800C20000008E10032
:108AA40004003100D5F20700D4F207000220EC00E4
:0C8AB400F9FF37000080FA000000060007
:1056000007C820000E20ED00FEFF3A000000000059
:0856100000000000000006008C
:10D7A0000000FA008A1F780014CEA90000C8B30058
:10D7B0000054E1000B0039008A9FBE002A022000BD
:10D7C00050838000000001004F05BE008B1F7800D1
:10D7D0000A85FB005083800000000100CF0578001F
:10D7E00008003700010420000A80FB000080700060
:10D7F0008B1F780000057800508380000000010036
:10D80000CF0578008B1F78000B05780050838000CF
:10D8100000000100CF057800600120000020EC002E
:10D820001085FB005083800000000100700007009D
:10D830006F0007006E00070014CEA8004F057800A7
:08D840000080FA000000060060
:10D848000000FA000A0178008C0078006100560098
:10D85800000678000200E200030032000B4978005D
:10D868000420EC00F8FF37000A0078000080FA0076
:04D8780000000600A6
:10D87C000200FA008A1F78008B1F78008C1F78003A
:10D88C000A40780000E0EE000000AE000300370014
:10D89C0010032400800078000200370000032400ED
:10D8AC00800078008A1F7800810578002AC0B300B8
:10D8BC00B8FF0700FB7023008AC0B300B5FF070058
:10D8CC0014CEA9006A0C20005083800000000100D7
:10D8DC004F05780043000700420007004100070095
:10D8EC0014CEA8008A1F78001620EF00CAC0B3001F
:10D8FC0085EC07000BC1B300DAC0B30082EC070063
:10D90C00FBC0B3000AC1B3007FEC07000BC1B3002E
:10D91C001AC1B3007CEC07000BC8B300EAC0B3001B
:10D92C0044EC0700FBC0B300FAC0B30061EC070085
:10D93C004AC1B30089EC07008080FB008003210002
:10D94C007F886000E1004700600047000106780016
:10D95C00800578001420EF009FEC07004F0578003D
:10D96C000A40780000C1EA000280FB00E100600080
:10D97C000280FB00620060004400DD0080807000CB
:10D98C000280FB00640060004200DD00008070003B
:10D99C001E469000804578001420EF003EEE0700F4
:10D9AC001BC0B300EAC1B30022EC070036EC070041
:10D9BC0014CEA9000A0C2000508380000000010046
:10D9CC0008000700070007000600070014CEA80097
:10D9DC004F067800CF0578004F0578000080FA00DC
:04D9EC000000060031
:108A40000000FA008A1F780014CEA9000108200057
:108A50000A80FB00008070008B1F78000005780002
:108A60005083800000000100CF0578000B85FB00DB
