:020000040000FA
:0600000034EF07F01200CE
:0800080007ED00F012000600F4
:0600100004EF08F01200ED
:060018000CEF08F01200DD
:02002A000000D4
:0600300031EF07F01200A1
:10004000020000000000FFFFFFFFFFFFFFFFFFFFB8
:10005000FFFFFFFFFFFFFFFFFFFFFFFFFFFFFFFFB0
:10006000FFFFFFFFFFFFFFFFFFFFFFFFFFFFFFFFA0
:10007000FFFFFFFFFFFFFFFFFFFFFFFFFFFFFFFF90
:100080004C6F636174696F6E206E6F742079657454
:1000900020646566696E6564000000000000000071
:1000A0000000000000000000000000000000000050
:1000B0000000000000000000000000000000000040
:1000C0003C6364693E3C69643E3C6C6F616465728C
:1000D0003E4F70656E4C4342205049432043414E91
:1000E00020426F6F74204C6F61646572204E6F7692
:1000F00020323920323031312031393A33373A31F8
:10010000393C2F6C6F616465723E3C2F69643E3CE4
:100110007365206E613D224C6F6322206F723D2219
:100120002330303430222073703D22234645222074
:1001300062753D2223313433223E3C6279206E6168
:100140003D224E6F6465204964222073693D22364A
:10015000222F3E3C62792073693D223538222F3EA2
:100160003C6368206E613D224C6F63222073693DC1
:10017000223634222F3E3C2F73653E3C2F63646948
:020180003E003F
:0E018200310EB16ECF0EB36E2C0EB26E1200A7
:10019000A1A206D0CF0EB36E2C0EB26EA192010CAE
:1001A000000CD9CFE6FFE1CFD9FFD950FC0FE96EA3
:1001B000FF0EDA20EA6EEF50F66ED950FD0FE96EB1
:1001C000FF0EDA20EA6EEF50F76ED950FE0FE96E9F
:1001D000FF0EDA20EA6EEF50F86ED950FB0FE96E91
:1001E000FF0EDA20EA6EEF50EF0600090DE009007D
:1001F000F90EDBCFE9FFDB2AFA0EDBCFEAFF01E3E2
:10020000DB2AF5CFEFFFE9D7E552E7CFD9FF1200A0
:10021000D9CFE6FFE1CFD9FFD950FC0FE96EFF0E31
:10022000DA20EA6EEF50F66ED950FD0FE96EFF0E40
:10023000DA20EA6EEF50F76ED950FE0FE96EFF0E2E
:10024000DA20EA6EEF50F86E940EA66EF2CF0CF242
:10025000F29EF29C550EA76EAA0EA76EA6820CC245
:10026000F2FF0A00D950FB0FE96EFF0EDA20EA6EAA
:10027000EF50EF06000926E0F90EDBCFE9FFDB2A9D
:10028000FA0EDBCFEAFF01E3DB2AEF50F56E0F0039
:10029000070EF614070808E0D950FB0FE96EFF0EB1
:1002A000DA20EA6EEF500DE1840EA66EF2CF0CF26A
:1002B000F29EF29C550EA76EAA0EA76EA6820CC2E5
:1002C000F2FFD0D7A694E552E7CFD9FF1200D9CFDD
:1002D000E6FFE1CFD9FFE150FE0FE96EFF0EDA2015
:1002E000EA6EEFCF00F2020100511CE1120EE66E41
:1002F000000EE66E0E0EE66E400EE66EE66AE66AEA
:1003000050DF256E060EE15E25501250186E135018
:10031000196E14501A6E15501B6E16501C6E175025
:100320001D6E8BD00201010E006F026B18C003F22C
:1003300019C004F21AC005F21BC006F21CC007F275
:10034000050EE96E020EEA6ED890EF36010EEB361E
:10035000020EEB3604BF0581020EE96E020EEA6E54
:10036000D890EF36010EEB36020EEB36020EE96E38
:10037000020EEA6EEECF08F2EECF09F2EFCF0AF2EC
:100380000B6B286A18500827195009231A500A23A2
:1003900028500B23A90E08274B0E09237A0E0A2397
:1003A000000E0B23080EE96E020EEA6EEECF18F077
:1003B000EECF19F0EFCF1AF00A0EE96E020EEA6ED8
:1003C000EF50E66E080EE96E020EEA6EE552E75057
:1003D000EF6E050EE96E020EEA6EEECF25F0EECF5F
:1003E00026F0EFCF27F0286A25500827265009234A
:1003F00027500A2328500B231BC025F01CC026F0D1
:100400001DC027F0286A1B5008271C5009231D50C7
:100410000A2328500B23A30E08270C0E09231B0EBA
:100420000A23000E0B23080EE96E020EEA6EEECFD1
:100430001BF0EECF1CF0EFCF1DF00201000508E02D
:100440001E501F1005E000011E1C29E11F1C27E1A2
:1004500018C01EF019C01FF019C025F01AC026F0F0
:10046000040ED89026322532E804FBE125501E1AEE
:1004700026501F1A1B501E1A1C501F1A1CC025F094
:100480001DC026F0040ED89026322532E804FBE188
:1004900025501E1A26501F1A0201010E006F0F0E62
:1004A0001F160201016B0F0140B764D01EC000F09F
:1004B0001FC001F00C6A0201015115E1026A700EC1
:1004C000036E16C025F017C026F0040ED890263211
:1004D0002532E804FBE1255002122650031210DBFE
:1004E0000201010E46D0010511E1026A600E036EA1
:1004F000FF0E1514256E0F0E1614266E25500212CF
:1005000026500312FDDA0201020E33D0020E015D05
:1005100015E1026A500E036E13C025F014C026F0D8
:10052000040ED89026322532E804FBE12550021251
:1005300026500312E5DA0201030E1BD0030E015D03
:1005400011E1026A400E036EFF0E1214256E0F0EAB
:100550001314266E2550021226500312D1DA02011E
:10056000040E07D0040E015D05E10BDE0201026BF3
:10057000050E016FC7DA000907E01E50001804E1FC
:100580001F50011801E1CED603DE00098CE0020104
:10059000022B0251080801E386D700050FE1120E75
:1005A000E66E000EE66E0E0EE66E400EE66EE66A33
:1005B000E66A2EDE256E060EE15E2550026A070E03
:1005C000036E1EC000F01FC001F00C6A99DA00092A
:1005D000FDE0010EE66E070EE66E06D8E552E55226
:1005E000E552E7CFD9FF1200D9CFE6FFE1CFD9FF1F
:1005F000E150FD0FE96EFF0EDA20EA6EEECF02F059
:10060000EDCF03F01EC000F01FC001F0060E0C6E0F
:100610001750046E1650056E1550066E1450076E76
:100620001350086E1250096E6BDA0009FDE0E552B6
:10063000E7CFD9FF1200D9CFE6FFE1CFD9FF1EC027
:1006400000F01FC001F0E150FD0FE96EFF0EDA204F
:10065000EA6EEECF02F0EFCF03F0E00E0312010ED0
:100660000C6E4C0E046E4CDA0009FDE0E552E7CF4B
:10067000D9FF1200D9CFE6FFE1CFD9FF1EC000F0AD
:100680001FC001F0E150FD0FE96EFF0EDA20EA6EA7
:10069000EECF02F0EFCF03F0E00E0312030E0C6E6C
:1006A0004D0E046EE150FC0FE96EFF0EDA20EA6E8B
:1006B000EF50056EE150FB0FE96EFF0EDA20EA6E97
:1006C000EF50066E1DDA0009FDE0E552E7CFD9FFD5
:1006D0001200D9CFE6FF0001300EA16F0E6AE15083
:1006E000FE0FE96EFF0EDA20EA6EEF500F6EE1505A
:1006F000FC0FE96EFF0EDA20EA6EEECF10F0EDCFC0
:1007000011F0E552E7CFD9FF12000F500E5C73E2F3
:10071000080E0F01401504E0080E301501E012002C
:100720001EC000F01FC001F0026AC00E036E0E5022
:1007300003E1026AB00E036E080E0C6E0E500F5CE1
:1007400008080CE30E500F5C0C6E0F50080803E312
:10075000026AE00E02D0026AD00E036E105002123E
:10076000115003120E50EA6AA00FE96E000EEA2241
:10077000EF50046E0E28EA6AA00FE96E000EEA221E
:10078000EF50056E020E0E24EA6AA00FE96E000E0D
:10079000EA22EF50066E030E0E24EA6AA00FE96EFD
:1007A000000EEA22EF50076E040E0E24EA6AA00F34
:1007B000E96E000EEA22EF50086E050E0E24EA6A7A
:1007C000A00FE96E000EEA22EF50096E060E0E240D
:1007D000EA6AA00FE96E000EEA22EF500A6E070ED9
:1007E0000E24EA6AA00FE96E000EEA22EF500B6EAB
:1007F000080E0E2685D9120000C0E6FF01C0E6FFF4
:100800001ADFE552E55218EF00F012001F0E6F16C6
:100810006F8EE00E6F148008FCE1030E706EDE0E2A
:10082000716E030E726E200E736E800E776E778A75
:100830000D01F86B606A0F01506B0E01206B306B7D
:10084000406B506B606B706B0F01186B1C6B080E6C
:10085000196F1D6F1A6B1E6B1B6B1F6B0D01D4691B
:10086000D569D86BF06BF16BF26BF36B0F01016F15
:10087000056F096F0D6F116F156F0D01616F656F5A
:10088000696F716F756F796F816F856F896F916F08
:100890001F0E6F16E00E6F14FDE112000201400EF4
:1008A0000C6F0F0E0D6F0CC2E9FFEA6EEF50080BD4
:1008B0000BE0300E0C6F0F0E0D6F0CC2E9FFEA6EED
:1008C000EF50080B01E0000CFC0E0CC2E9FF0DC25A
:1008D000EAFFE850EF16050EEA6A0C25E96E0D51A5
:1008E000EA220CC0EFFF03407F0B8009E66E010E89
:1008F000EA6A0C25E96E0D51EA22E552E750EF6EE7
:10090000300E0214E8380F0B266EC00E0214E840B9
:100910007F0B256E010E0314800DF350251008097E
:100920002610E66E020EEA6A0C25E96E0D51EA22E7
:10093000E552E750EF6E0F0E0214100D0F0E01146A
:10094000F310E66E030EEA6A0C25E96E0D51EA22F9
:10095000E552E750EF6E040EEA6A0C25E96E0D5180
:10096000EA2200C0EFFF0E6B0C500E5D14E20E5138
:10097000EA6A040FE96E000EEA22EF50E66E060EF8
:100980000E25EA6A0C25E96E0D51EA22E552E75080
:10099000EF6E0E2BE9D70CC2E9FF0DC2EAFFEF861E
:1009A000010C74AE000C070E6F14060A2AE0030A4D
:1009B00023E0010A1CE0070A15E0010A0EE0030A21
:1009C00007E0010A23E10201600E0D6F0F0E22D035
:1009D0000201500E0D6F0F0E1DD00201200E0D6F83
:1009E0000E0E18D00201300E0D6F0E0E13D0020144
:1009F000400E0D6F0E0E0ED00201500E0D6F0E0E3A
:100A000009D00201600E0D6F0E0E04D00201700EAF
:100A10000D6F0E0E0E6F0D6A74AC02D00D86749CB5
:100A2000010EEA6A0D25E96E0E51EA22EF50E82424
:100A3000036E020EEA6A0D25E96E0E51EA22EF50AE
:100A4000800BE844010B0312020EEA6A0D25E96EE1
:100A50000E51EA22EF50600BE824026E020EEA6AA1
:100A60000D25E96E0E51EA22EF50030B100DF350E5
:100A70000212030EEA6A0D25E96E0E51EA22EF38E2
:100A80000F0B0212030EEA6A0D25E96E0E51EA22DF
:100A9000EF500F0B016E040EEA6A0D25E96E0E5140
:100AA000EA22EF50006E050EEA6A0D25E96E0E513E
:100AB000EA22EF500F0B0C6E0C6B0C500C5D14E225
:100AC000060E0C25EA6A0D25E96E0E51EA22EF505A
:100AD000E66E0C51EA6A040FE96E000EEA22E55256
:100AE000E750EF6E0C2BE9D7A4AE02D00D88A49E80
:100AF0000DC2E9FF0EC2EAFFEF9EA492749E010CA4
:100B00004EEF04F0D1EF04F01E50001802E11F5028
:100B1000011816E10350800B0DE11EC000F01FC04C
:100B200001F0026A070E036E0C6AEADF000901E1B8
:100B3000FCD705D0010EE66E67EC01F0E55270D1EE
:100B4000A70E021802E1800E031808E1B70EE66E48
:100B5000900EE66E49DDE552E55262D11E50256EDB
:100B6000B00E1F10266E2550021802E12650031801
:100B700022E01E50276EC00E1F10286E275002184C
:100B800002E12850031817E01E50296ED00E1F10E6
:100B90002A6E2950021802E12A5003180CE01E5058
:100BA0002B6EE00E1F102C6E2B50021802E12C5001
:100BB000031801E035D1F00E0314256E266AB00E3D
:100BC000251801E1265009E0F00E0314276E286A6B
:100BD000E00E271801E1285006E1206A00C021F04C
:100BE00001C022F013D00050211802E10150221858
:100BF0000DE0000EE66EE66A00C0E6FF01C0E6FF0B
:100C000039DDE552E552E552E5520AD102010F6B9A
:100C10000C5002010F5D19E2480E205C16E2020141
:100C20000F51EA6A040FE96E000EEA22EF50E66EF9
:100C30002050202AEA6AA00FE96E000EEA22E5524F
:100C4000E750EF6E02010F2BE3D7F00E0314256E71
:100C5000266AD00E251801E126500AE0F00E031492
:100C6000276E286AE00E271801E1285001E0D8D04D
:100C700021682268206A200E0001A05D01E0C4D036
:100C8000EA0EE96E000EEA6EA3C0EFFFE90EE96E10
:100C9000000EEA6EA4C0EFFFE80EE96E000EEA6EE9
:100CA000A5C0EFFF200E0001A15D1FE1FE0E0001B7
:100CB000A65D1AE1A70EE66E000EE66E400EE66E29
:100CC000E8C0E6FFE9C0E6FFEAC0E6FF08EC01F095
:100CD000256E060EE15E255000C0E6FF01C0E6FF6E
:100CE000AADCE552E5529CD08FD0600E0001A15DD8
:100CF00059E1FF0E0001A65D2FE1C00E256E000E2A
:100D0000266E276A25500001E82726500001E923B6
:100D100027500001EA23A7C00FF2A70EE66E000ECF
:100D2000E66E0FC2E6FFE8C0E6FFE9C0E6FFEAC0F4
:100D3000E6FFD1EC00F0256E060EE15E255000C006
:100D4000E6FF01C0E6FF070E02010F25E66EC1DCDB
:100D5000E552E552E55264D0FE0E0001A65D21E1A8
:100D6000A7C00FF2A70EE66E000EE66E0FC2E6FFFA
:100D7000E8C0E6FFE9C0E6FFEAC0E6FFD1EC00F01C
:100D8000256E060EE15E255000C0E6FF01C0E6FFBD
:100D9000070E02010F25E66E9CDCE552E552E55296
:100DA0003FD032D0A40E055C29E1A00EE66E000E05
:100DB000E66E400EE66EE66A100EE66EE66AD1EC6E
:100DC00000F0256E060EE15E25500001C05112E0D4
:100DD0000001C06BA00EE66E000EE66E400EE66EE1
:100DE000E66A100EE66EE66A08EC01F0256E060E65
:100DF000E15E2550FF0000EF00F006D0A50E055C77
:100E000003E1FF0000EF00F0000EE66EE66A00C0AE
:100E1000E6FF01C0E6FF2EDCE552E552E552E55261
:100E20001200870EE66E900EE66EF4EC02F0E552CC
:100E3000E552206A2168226868DC64DE0009FCE073
:100E400063DEFAD70F0EC16E3C0E926E3B0E936EB0
:100E5000040E816E9468F16A236A246A818C818E03
:100E60001200F0DF11EF07F010EE60F020EE60F0FE
:100E70004DEC07F0200EF66E100EF76EF86A0800C3
:100E8000F55002E100EF08F0DDDFC0DCE66A67EC58
:0A0E900001F0E552C6DFFED71200A4
:060E9A00000EF36E00EEF5
:100EA00000F0030E01D81200EA6002D0EE6AFCD70F
:0A0EB000F350E9601200EE6AFCD76F
:0610000029EF10F01200C0
:021006000000E8
:0810080007ED08F012000600DC
:06101000D0EF0CF012000D
:06101800D7EF0CF01200FE
:0110200000CF
:0E102200310EB16ECF0EB36E2C0EB26E1200F8
:10103000A1A206D0CF0EB36E2C0EB26EA192010CFF
:10104000000CD9CFE6FFE1CFD9FFD950FC0FE96EF4
:10105000FF0EDA20EA6EEF50F66ED950FD0FE96E02
:10106000FF0EDA20EA6EEF50F76ED950FE0FE96EF0
:10107000FF0EDA20EA6EEF50F86ED950FB0FE96EE2
:10108000FF0EDA20EA6EEF50EF0600090DE00900CE
:10109000F90EDBCFE9FFDB2AFA0EDBCFEAFF01E333
:1010A000DB2AF5CFEFFFE9D7E552E7CFD9FF1200F2
:1010B000D9CFE6FFE1CFD9FFD950FC0FE96EFF0E83
:1010C000DA20EA6EEF50F66ED950FD0FE96EFF0E92
:1010D000DA20EA6EEF50F76ED950FE0FE96EFF0E80
:1010E000DA20EA6EEF50F86E940EA66EF2CF0CF195
:1010F000F29EF29C550EA76EAA0EA76EA6820CC198
:10110000F2FF0A00D950FB0FE96EFF0EDA20EA6EFB
:10111000EF50EF06000926E0F90EDBCFE9FFDB2AEE
:10112000FA0EDBCFEAFF01E3DB2AEF50F56E0F008A
:10113000070EF614070808E0D950FB0FE96EFF0E02
:10114000DA20EA6EEF500DE1840EA66EF2CF0CF1BC
:10115000F29EF29C550EA76EAA0EA76EA6820CC137
:10116000F2FFD0D7A694E552E7CFD9FF1200D9CF2E
:10117000E6FFE1CFD9FFE150FE0FE96EFF0EDA2066
:10118000EA6EEFCF00F1010100511CE1120EE66E94
:10119000000EE66E0E0EE66E400EE66EE66AE66A3B
:1011A00050DF276E060EE15E27501250186E135066
:1011B000196E14501A6E15501B6E16501C6E175077
:1011C0001D6E8BD00101010E006F026B18C003F180
:1011D00019C004F11AC005F11BC006F11CC007F1CB
:1011E000050EE96E010EEA6ED890EF36010EEB3671
:1011F000020EEB3604BF0581020EE96E010EEA6EA7
:10120000D890EF36010EEB36020EEB36020EE96E89
:10121000010EEA6EEECF08F1EECF09F1EFCF0AF141
:101220000B6B2A6A18500827195009231A500A23F1
:101230002A500B23A90E08274B0E09237A0E0A23E6
:10124000000E0B23080EE96E010EEA6EEECF18F0C9
:10125000EECF19F0EFCF1AF00A0EE96E010EEA6E2A
:10126000EF50E66E080EE96E010EEA6EE552E750A9
:10127000EF6E050EE96E010EEA6EEECF27F0EECFAF
:1012800028F0EFCF29F02A6A275008272850092391
:1012900029500A232A500B231BC027F01CC028F01A
:1012A0001DC029F02A6A1B5008271C5009231D5015
:1012B0000A232A500B23A30E08270C0E09231B0E0A
:1012C0000A23000E0B23080EE96E010EEA6EEECF24
:1012D0001BF0EECF1CF0EFCF1DF00101000508E080
:1012E0001E501F1005E000011E1C29E11F1C27E1F4
:1012F00018C01EF019C01FF019C027F01AC028F03E
:10130000040ED89028322732E804FBE127501E1A39
:1013100028501F1A1B501E1A1C501F1A1CC027F0E1
:101320001DC028F0040ED89028322732E804FBE1D3
:1013300027501E1A28501F1A0101010E006F0F0EB0
:101340001F160101016B0F0140B764D01EC000F0F1
:101350001FC001F00C6A0101015115E1026A700E13
:10136000036E16C027F017C028F0040ED89028325C
:101370002732E804FBE12750021228500312DED97D
:101380000101010E46D0010511E1026A600E036EF3
:10139000FF0E1514276E0F0E1614286E275002121A
:1013A00028500312CBD90101020E33D0020E015D89
:1013B00015E1026A500E036E13C027F014C028F026
:1013C000040ED89028322732E804FBE1275002129D
:1013D00028500312B3D90101030E1BD0030E015D87
:1013E00011E1026A400E036EFF0E1214276E0F0EFB
:1013F0001314286E27500212285003129FD901019E
:10140000040E07D0040E015D05E10BDE0101026B45
:10141000050E016F16DA000907E01E50001804E1FE
:101420001F50011801E1CED603DE00098CE0010156
:10143000022B0251080801E386D700050FE1120EC6
:10144000E66E000EE66E0E0EE66E400EE66EE66A84
:10145000E66A2EDE276E060EE15E2750026A070E50
:10146000036E1EC000F01FC001F00C6A67D90009AE
:10147000FDE0010EE66E070EE66E06D8E552E55277
:10148000E552E7CFD9FF1200D9CFE6FFE1CFD9FF70
:10149000E150FD0FE96EFF0EDA20EA6EEECF02F0AA
:1014A000EDCF03F01EC000F01FC001F0060E0C6E61
:1014B0001750046E1650056E1550066E1450076EC8
:1014C0001350086E1250096E39D90009FDE0E5523B
:1014D000E7CFD9FF1200D9CFE6FFE1CFD9FF1EC079
:1014E00000F01FC001F0E150FD0FE96EFF0EDA20A1
:1014F000EA6EEECF02F0EFCF03F0E00E0312010E22
:101500000C6E4C0E046E1AD90009FDE0E552E7CFCF
:10151000D9FF1200D9CFE6FFE1CFD9FF1EC000F0FE
:101520001FC001F0E150FD0FE96EFF0EDA20EA6EF8
:10153000EECF02F0EFCF03F0E00E0312030E0C6EBD
:101540004D0E046EE150FC0FE96EFF0EDA20EA6EDC
:10155000EF50056EE150FB0FE96EFF0EDA20EA6EE8
:10156000EF50066EEBD80009FDE0E552E7CFD9FF5A
:101570001200D9CFE6FF0201300EA16F0E6AE150D2
:10158000FE0FE96EFF0EDA20EA6EEF500F6EE150AB
:10159000FC0FE96EFF0EDA20EA6EEECF10F0EDCF11
:1015A00011F0E552E7CFD9FF12000F500E5C73E245
:1015B000080E0F01401504E0080E301501E012007E
:1015C0001EC000F01FC001F0026AC00E036E0E5074
:1015D00003E1026AB00E036E080E0C6E0E500F5C33
:1015E00008080CE30E500F5C0C6E0F50080803E364
:1015F000026AE00E02D0026AD00E036E1050021290
:10160000115003120E50EA6AA00FE96E020EEA2290
:10161000EF50046E0E28EA6AA00FE96E020EEA226D
:10162000EF50056E020E0E24EA6AA00FE96E020E5C
:10163000EA22EF50066E030E0E24EA6AA00FE96E4E
:10164000020EEA22EF50076E040E0E24EA6AA00F83
:10165000E96E020EEA22EF50086E050E0E24EA6AC9
:10166000A00FE96E020EEA22EF50096E060E0E245C
:10167000EA6AA00FE96E020EEA22EF500A6E070E28
:101680000E24EA6AA00FE96E020EEA22EF500B6EFA
:10169000080E0E2653D8120000C0E6FF01C0E6FF78
:1016A0001ADFE552E55218EF00F012001F0E6F1618
:1016B0006F8EE00E6F148008FCE1030E706EDE0E7C
:1016C000716E030E726E200E736E800E776E778AC7
:1016D0000D01F86B606A0F01506B0E01206B306BCF
:1016E000406B506B606B706B0F01186B1C6B080EBE
:1016F000196F1D6F1A6B1E6B1B6B1F6B0D01D4696D
:10170000D569D86BF06BF16BF26BF36B0F01016F66
:10171000056F096F0D6F116F156F0D01616F656FAB
:10172000696F716F756F796F816F856F896F916F59
:101730001F0E6F16E00E6F14FDE112000101400E46
:101740000C6F0F0E0D6F0CC1E9FFEA6EEF50080B26
:101750000BE0300E0C6F0F0E0D6F0CC1E9FFEA6E3F
:10176000EF50080B01E0000CFC0E0CC1E9FF0DC1AD
:10177000EAFFE850EF16050EEA6A0C25E96E0D51F6
:10178000EA220CC0EFFF03407F0B8009E66E010EDA
:10179000EA6A0C25E96E0D51EA22E552E750EF6E38
:1017A000300E0214E8380F0B286EC00E0214E84009
:1017B0007F0B276E010E0314800DF35027100809CC
:1017C0002810E66E020EEA6A0C25E96E0D51EA2237
:1017D000E552E750EF6E0F0E0214100D0F0E0114BC
:1017E000F310E66E030EEA6A0C25E96E0D51EA224B
:1017F000E552E750EF6E040EEA6A0C25E96E0D51D2
:10180000EA2200C0EFFF0E6B0C500E5D14E20E5189
:10181000EA6A040FE96E000EEA22EF50E66E060E49
:101820000E25EA6A0C25E96E0D51EA22E552E750D1
:10183000EF6E0E2BE9D70CC1E9FF0DC1EAFFEF8671
:10184000010C74AE000C070E6F14060A2AE0030A9E
:1018500023E0010A1CE0070A15E0010A0EE0030A72
:1018600007E0010A23E10101600E0D6F0F0E22D087
:101870000101500E0D6F0F0E1DD00101200E0D6FD6
:101880000E0E18D00101300E0D6F0E0E13D0010197
:10189000400E0D6F0E0E0ED00101500E0D6F0E0E8C
:1018A00009D00101600E0D6F0E0E04D00101700E03
:1018B0000D6F0E0E0E6F0D6A74AC02D00D86749C07
:1018C000010EEA6A0D25E96E0E51EA22EF50E82476
:1018D000036E020EEA6A0D25E96E0E51EA22EF5000
:1018E000800BE844010B0312020EEA6A0D25E96E33
:1018F0000E51EA22EF50600BE824026E020EEA6AF3
:101900000D25E96E0E51EA22EF50030B100DF35036
:101910000212030EEA6A0D25E96E0E51EA22EF3833
:101920000F0B0212030EEA6A0D25E96E0E51EA2230
:10193000EF500F0B016E040EEA6A0D25E96E0E5191
:10194000EA22EF50006E050EEA6A0D25E96E0E518F
:10195000EA22EF500F0B0C6E0C6B0C500C5D14E276
:10196000060E0C25EA6A0D25E96E0E51EA22EF50AB
:10197000E66E0C51EA6A040FE96E000EEA22E552A7
:10198000E750EF6E0C2BE9D7A4AE02D00D88A49ED1
:101990000DC1E9FF0EC1EAFFEF9EA492749E010CF7
:1019A000DACFE4FFE652E552E5CFDAFF1100D8CFF7
:1019B000E4FFE0CFE4FFE46EDACFE4FFE652E55265
:1019C000E5CFDAFFE550E5CFE0FFE5CFD8FF100027
:1019D000D9CFE6FFE1CFD9FFD950FE0FE96EFF0E58
:1019E000DA20EA6EEF50EF0600090CE001013B0E31
:1019F000006F020E016F0007000E015B0051011124
:101A0000EBE0F9D7E552E7CFD9FF1200D9CFE6FFD7
:101A1000E1CFD9FFD950FE0FE96EFF0EDA20EA6E52
:101A2000EF50826E0000828C00000000829C00005B
:101A3000E552E7CFD9FF12000101FA0E006F010154
:101A4000000702E00000FBD71200D9CFE6FFE1CF8C
:101A5000D9FFF2DFD950FE0FE96EFF0EDA20EA6EF1
:101A6000EF380F0BE66ED2DFE552D950FE0FE96E6C
:101A7000FF0EDA20EA6EEF500F0BE66EC7DFE5527D
:101A8000E552E7CFD9FF1200D9CFE6FFE1CFD9FF6A
:101A9000D3DFD950FE0FE96EFF0EDA20EA6EEF3881
:101AA0000F0B2009E66EB2DFE552D950FE0FE96E4A
:101AB000FF0EDA20EA6EEF500F0B2009E66EA6DF6C
:101AC000E552E552E7CFD9FF1200D9CFE6FFE1CFCB
:101AD000D9FF256A010EE66EB8DFE552020EE66E0A
:101AE00077DFE552800EE66EB0DFE552D950FC0F8D
:101AF000E96EFF0EDA20EA6EEECFF6FFEECFF7FFCB
:101B0000EFCFF8FF0800F55035E0D950FC0FE96E33
:101B1000FF0EDA20EA6EEECFF6FFEECFF7FFEFCF43
:101B2000F8FF0800F5500A0810E1D950FC0FE96EE3
:101B3000FF0EDA20EA6EEE2A000EEE22EE22252AB1
:101B4000280E2502F350800FCED7D950FC0FE96E36
:101B5000FF0EDA20EA6EEFCFF6FFEE2AEFCFF7FFA7
:101B6000000EEE22EFCFF8FFEE220800F550E66EF1
:101B70008BDFBBD7E552E7CFD9FF1200D9CFE6FF05
:101B8000E1CFD9FF256A010EE66E5FDFE552020E56
:101B9000E66E1EDFE552800EE66E57DFE552D95045
:101BA000FD0FE96EFF0EDA20EA6EEE50EFCFEAFF8E
:101BB000E96EEF5031E0D950FD0FE96EFF0EDA20EB
:101BC000EA6EEE50EFCFEAFFE96EEF500A080FE140
:101BD000D950FD0FE96EFF0EDA20EA6EEE2A000EF4
:101BE000EF22252A280E2502F350800FD5D7D95091
:101BF000FD0FE96EFF0EDA20EA6EEECFF3FFEDCFB8
:101C0000F4FFEE2A000EEF22F3CFE9FFF4CFEAFF54
:101C1000EF50E66E39DFC2D7E552E7CFD9FF1200A9
:101C2000946A826A0F0EE66ED3DEE552030EE66E0C
:101C3000EDDEE552050EE66ECBDEE552030EE66EF6
:101C4000E5DEE552020EE66EC3DEE552030EE66EF9
:101C5000DDDEE552F1DE020EE66ED8DEE552280E3C
:101C6000E66EF3DEE552010EE66EEFDEE552020EA1
:101C7000E66EAEDEE5520C0EE66EE7DEE552AC0E29
:101C8000276E220E286E296A27C0E6FFE66E29C05D
:101C9000E6FF1BDFE552E552E552120010EF0EF0B1
:101CA0001E50001818E11F50011815E10350800B59
:101CB0000CE11EC000F01FC001F0026A070E036EA7
:101CC0000C6A3CDD000906E1FCD7010EE66EB7ECBC
:101CD00008F0E5521200A70E02180CE1800E03185E
:101CE00009E1B70EE66E900EE66E44EC0AF0E5529E
:101CF000E5521200DF0E021805E1820E031802E120
:101D0000010E266E1200F00E0314276E286AB00E24
:101D1000271801E1285009E0F00E0314296E2A6A01
:101D2000E00E291801E12A5006E1226A00C020F0E5
:101D300001C021F014D00050201802E101502118F8
:101D40000EE0000EE66EE66A00C0E6FF01C0E6FFA8
:101D50008AEC0AF0E552E552E552E55279D10101EB
:101D6000026B0C500101025D19E2480E225C16E282
:101D700001010251EA6A040FE96E000EEA22EF50F7
:101D8000E66E2250222AEA6AA00FE96E020EEA22CB
:101D9000E552E750EF6E0101022BE3D7F00E03147A
:101DA000276E286AD00E271801E128500AE0F00EAD
:101DB0000314296E2A6AE00E291801E12A5001E075
:101DC00047D120682168226A200E0201A05D01E04F
:101DD00032D1EA0EE96E020EEA6EA3C2EFFFE90EFF
:101DE000E96E020EEA6EA4C2EFFFE80EE96E020E83
:101DF000EA6EA5C2EFFF200E0201A15D76E1FE0EA4
:101E00000201A65D1BE1A70EE66E020EE66E400E15
:101E1000E66EE8C2E6FFE9C2E6FFEAC2E6FF58EC7A
:101E200008F0276E060EE15E275000C0E6FF01C0F5
:101E3000E6FF6BEC0AF0E552E5520AD10201A65129
:101E400053E1E80EE96E020EEA6EEFCF03F1800E69
:101E500001010311E66EF9DDE5520101070E026F83
:101E6000470E0101025D37E201010251EA6AA00F4B
:101E7000E96E020EEA22EF5001E12DD0010102517C
:101E8000EA6AA00FE96E020EEA22EF500A0813E197
:101E9000280E0101035D08E20101280E036FA80E60
:101EA000E66ED3DDE55206D00101036B800EE66ECF
:101EB000CCDDE5520DD001010251EA6AA00FE96EB6
:101EC000020EEA22EF50E66EDFDDE5520101032B40
:101ED0000101022BC5D700C0E6FF01C0E6FF6BEC95
:101EE0000AF0E552E552B4D0A6D0600E0201A15D21
:101EF0005BE1FF0E0201A65D30E1300E276E210E80
:101F0000286E296A27500201E82728500201E92398
:101F100029500201EA23A7C202F1A70EE66E020EC3
:101F2000E66E02C1E6FFE8C2E6FFE9C2E6FFEAC2EA
:101F3000E6FF21EC08F0276E060EE15E275000C098
:101F4000E6FF01C0E6FF070E01010225E66EB9ECCF
:101F50000AF0E552E552E5527BD0FE0E0201A65D85
:101F600022E1A7C202F1A70EE66E020EE66E02C1E2
:101F7000E6FFE8C2E6FFE9C2E6FFEAC2E6FF21ECBF
:101F800008F0276E060EE15E275000C0E6FF01C094
:101F9000E6FF070E01010225E66EB9EC0AF0E552F4
:101FA000E552E55255D047D0A40E055C29E1A00EBC
:101FB000E66E020EE66E400EE66EE66A100EE66E05
:101FC000E66A21EC08F0276E060EE15E275002015A
:101FD000C75112E00201C76BA00EE66E020EE66E5C
:101FE000400EE66EE66A100EE66EE66A58EC08F001
:101FF000276E060EE15E2750FF0000EF00F01BD0B9
:10200000A50E055C04E1FF0000EF00F014D0A70E60
:10201000055C05E1F29EF29C4CEC0BF00CD0A60E98
:10202000055C09E13BDE00C0E6FF01C0E6FF6BECAA
:102030000AF0E552E5520550E66EE66A00C0E6FF9A
:1020400001C0E6FF8AEC0AF0E552E552E552E5529E
:102050001200F26AC26A0F0EC16E070E926E3B0E3C
:10206000936E816A8184946A826AD08EA66AA56A18
:102070009F6AA26A9D6AA06AA36AF16AF06A9E6A70
:10208000A16AA46A818E819C56EC0BF0C9DDE66AD8
:10209000B7EC08F0E552870EE66E900EE66E44EC63
:1020A0000AF0E552E55220682168226A18EC08F02F
:1020B000000906E0265002E0818C01D0819C266A4E
:1020C000D5EC0AF021EC0CF00009F0E01E50276E70
:1020D000B00E1F10286E1E50021802E1285003187F
:1020E00021E01E50296EC00E1F102A6E1E500218CD
:1020F00002E12A50031816E01E502B6ED00E1F105E
:102100002C6E1E50021802E12C5003180BE01E50DA
:102110002D6EE00E1F102E6E1E50021807E12E507D
:10212000031804E1010E266EEEDDC0D7B9DDBED77F
:102130003C6364693E3C69643E3C736F66747761DE
:1021400072653E4F70656E4C434220504943204CAF
:10215000434420646973706C6179206472697665A8
:1021600072204E6F762032392032303131203139B1
:102170003A33373A33393C2F736F6674776172653F
:102180003E3C2F69643E3C7365206E613D224C6F7E
:10219000636174696F6E22206F723D222330303884
:1021A00030222073703D22234645222062753D2255
:1021B00023333233223E3C6368206E613D224C6FF4
:1021C000636174696F6E222073693D223634222F59
:1021D0003E3C2F73653E3C7365206E613D224E6F21
:1021E000646520496422206F723D222330303430F0
:1021F000222073703D22234645222062753D222312
:10220000333433223E3C696E206E613D2253657249
:1022100069616C222073693D2231222F3E3C696E38
:10222000206E613D224D656D626572222073693DAD
:102230002233222F3E3C6279206E613D2247726F2D
:102240007570222073693D2232222F3E3C2F736528
:102250003E3C7365206E613D225465787422206295
:10226000753D22233233223E3C6368206E613D225D
:1022700054657874222073693D223830222F3E3C09
:0B2280002F73653E3C2F6364693E0035
:04228C00000EF36EDF
:1022900000EE00F0030E01D81200EA6002D0EE6AF0
:0C22A000FCD7F350E9601200EE6AFCD796
:0422AC004F70656E9C
:1022B0004C43422031393A33373A33390A4E6F763C
:0922C000203239203230313100A6
:020000040030CA
:0100010046B8
:0100020006F7
:010003001AE2
:01000500807A
:010006008178
:010008000FE8
:01000900C036
:01000A000FE6
:01000B00E014
:01000C000FE4
:01000D0040B2
:00000001FF
OpenLCB for CBUS-PIC CANLCD 29 November 2011 19:37:41
