:1000000000020400000000000000000000000000EA
:1000100000000000000000000000000000000000E0
:1000200000000000000000000000000000000000D0
:1000300000000000000000000000000000000000C0
:10004000000000002C020100000000000000000081
:1000500000000000000000000000000000000000A0
:100060000000000000000000000000000000000090
:100070000000000000000000000000000000000080
:100080000000000000000000000000000000000070
:100090000000000000000000000000000000000060
:1000A0000000000000000000000000000000000050
:1000B000000000004E0001000000000000000000F1
:1000C0000000000000000000000000000000000030
:1000D0000000000000000000000000000000000020
:1000E0000000000000000000000000000000000010
:1000F0000000000000000000000000000000000000
:1004000072010400010000000A0004000100000065
:1004100038000400010000004E000400010000004C
:1004200020000400010000002C0204000100000074
:020000040002F8
:1002E400EF3C2200F07F270020A0B7003000200060
:1002F40034A0B700400020004420B7002000FA00DA
:100304008A1F7800C622A900C642A900CA22A800F2
:10031400CA42A800F4FE07000CFE0700E3FE070033
:10032400D4FE07002CFE07001FFE070038FF07005D
:10033400FAFF2F004DFF0700E0004700D0C4B300D0
:100344008058780050C7B3008058780030C7B30095
:100354008058780040C7B3008058780010C6B300B6
:1003640080587800E0C6B3008058780070C6B300A7
:100374008058780000C7B3008058780050C6B30096
:100384008058780010C6B30080587800B0C6B30017
:100394008058780000C2B30080587800F0C4B300DD
:1003A4008058780000C7B3008058780050C6B30066
:1003B40080587800E0C6B30080587800C0C4B30009
:1003C4008058780030C4B3008058780020C4B3004B
:1003D4008058780000C2B3008058780040C5B3004C
:1003E4008058780080C6B3008058780020C7B300D6
:1003F40080587800F0C6B3008058780040C7B30036
:100404008058780040C7B30080587800C0C6B30055
:100414008058780050C6B30080587800D0C0B3002C
:1004240080587800A0C0B3008058780000C0B300A2
:10043400805878006000470000057800E0FE07005F
:10044400A1FD0700FEFF37004F0578000080FA0089
:04045400FFFF37006F
:020000040001F9
:10FEEC008A1F78002AE007006FE20700A8012000B3
:10FEFC0027E726000E20ED00FEFF3A001020ED0053
:10FF0C00FCFF3A001420EF0025E2070036EC070056
:10FF1C001420EF0022E207004AED07000014200035
:10FF2C0050458800000F2000604588000A0028001A
:0CFF3C00B4FB07004F0578000000060031
:107F9C008A1F78008B1F78008C1F7800D822EF0086
:107FAC00C062EF0001FE2F004074200010886000BA
:107FBC00E001200046A7B70044E7A90044C7A90088
:107FCC004800200007092D000E20ED00FEFF3A00AE
:107FDC001020ED00FCFF3A006FF907001420EF00B1
:107FEC00B3FD07008CB62B002BCC20002AD9200027
:107FFC0093FD07004F067800CF0578004F057800F9
:04800C00000006006A
:1065A4000000FA000020EF00304B880081962000A4
:1065B4000020EF0080487800A19720000020EF0021
:1065C40080487800519520000020EF008048780032
:0865D4000080FA00000006003F
:1076BC000000FA00809120000A4878000080FA004F
:0476CC0000000600B4
:10764C000000FA00BA4B8800CB4B88009C4B88009A
:10765C0010002000304B88000080FA00000006006B
:00766C001E
:1088B4008A1F78008B1F78008C1F78008D1F78002A
:1088C400D2FC07008CB62B002BCC20002AD9200028
:1088D4005DFB07000B0F20000A1420003FFD07007A
:1088E400CDC0B300DCC0B3000B0F20000A1420007D
:1088F400FCFB07000A322000ECF90700018220008B
:108904000020EF00804878000020EF000220EF00F4
:108914003041880041418800F0FF2F001041880059
:10892400CF0678004F067800CF0578004F05780011
:048934000000060039
:107C1000F0FF2C002CA3B700F0FF2C002AA3B70024
:087C200021DC07000000060052
:020000040000FA
:10ECA8000000FA002096200080418800000E200015
:10ECB80020A3B7002143A9002223EF00F0F321008D
:10ECC80024A3B7003223EF003023EF002E23EF00F8
:0CECD80021E3A8000080FA000000060004
:020000040001F9
:107DE0008A1F78008B1F78008C1F78008D1F780009
:107DF000BCDB07006104E1000600320080CB2000FC
:107E0000B04B8800E0CC2000C04B880020242A0022
:107E1000904B88004A4A88009B4A88000B50E1003A
:107E200004003900919620000020EF00804878007F
:107E30000300370091962000A0C5B3008048780069
:107E40001B0020001420EF0089DB07008DDB0700FA
:107E50001A20EF001820EF001620EF001420EF008A
:107E60000020EF00801F78000020EF00801F7800C6
:107E700095DC07004F00B1001620EF001420EF0042
:107E80009DDB0700C062EF00A0DB0700C07C2B0079
:107E9000B04A8800CF0678004F067800CF057800FA
:087EA0004F0578000000060008
:020000040000FA
:10ECE4000000FA00314B8000014078000080FA00F7
:04ECF4000000060016
:10EC70000000FA007A4A88006B4A88000080FA0097
:04EC8000000006008A
:10EC84000000FA00919120000020EF0080487800F5
:10EC9400419520000020EF00804878000080FA00B1
:04ECA4000000060066
:10F0C8000000FA004EB89700BEB89700AA4B880017
:10F0D800FB4B88008C4B88006D4B8800704B880078
:0CF0E800E14B88000080FA0000000600E8
:10ECF8000000FA002A4A88001B4A88000080FA00AF
:04ED08000000060001
:10ED0C008A1F78008B1F7800D022A900CC22A90082
:10ED1C00CBE2A800C7E2A900D062A800CC62A9008F
:10ED2C00D382A900D3A2A900D782A800D7A2A80099
:10ED3C0075E00700D022A80073E0070072E007001E
:10ED4C001620EF00AACEB300BEE007000BC2B30042
:10ED5C00BACEB300BBE00700CBC0B300CACEB30041
:10ED6C00B8E007004BCCB300DACEB300B5E0070037
:10ED7C000BC4B3008ACEB300B2E007008BC3B30060
:10ED8C009ACEB300AFE007001BC0B3001ACFB3009C
:10ED9C00ACE007000BC1B3002ACFB300A9E0070019
:10EDAC003BCAB3007AC2B300A6E007001620EF00FE
:10EDBC000AC4B300A3E007001620EF001AC4B30086
:10EDCC00A0E007001BC0B3002AC4B3009DE00700FD
:10EDDC003BC1B3003AC4B3009AE007000BC1B300C7
:10EDEC004AC4B30097E007006BC2B3005AC4B30027
:10EDFC0094E007008BC0B3006AC4B30091E0070035
:10EE0C001BC5B3007AC4B3008EE007002BC0B3005F
:10EE1C008AC4B3008BE007002BC1B3009AC4B300C3
:10EE2C0088E007008BC1B300AAC4B30085E00700DB
:10EE3C009BC1B300BAC4B30082E007004BC1B3005E
:10EE4C00CAC4B3007FE007009BC1B3000AC5B3007E
:10EE5C007CE00700FBC2B3001AC5B30079E00700E1
:10EE6C00CBC2B3002AC5B30076E00700EBC3B300F6
:10EE7C003AC5B30073E00700FBC3B3004AC5B30047
:10EE8C0070E00700FBC3B3005AC5B3006DE0070088
:10EE9C00EBC2B3006AC5B3006AE007007BC7B300DE
:10EEAC007AC5B30067E00700BBC0B3008AC5B300E6
:10EEBC0064E007006BC0B3009AC5B30061E00700C3
:10EECC007BC0B300AAC5B3005EE00700DBC0B30093
:10EEDC00BAC5B3005BE00700DBC1B300CAC5B30021
:10EEEC0058E00700CBCCB300DAC5B30055E00700FF
:10EEFC009096200090407800A0C5B300000CE10073
:10EF0C000D003A001620EF004AC0B3004DE0070098
:10EF1C00FBCEB3005AC0B3004AE007001BC0B300DD
:10EF2C008AC0B30047E00700FBC3B3009AC0B3002C
:10EF3C0044E007000C0037001BC0B3004AC0B3000C
:10EF4C0040E00700FBC3B3005AC0B3003DE007002C
:10EF5C001620EF008AC0B3003AE00700FBCEB300E6
:10EF6C009AC0B30037E007009096200090407800DC
:10EF7C00A0C5B300000CE1000B003A002BE0070029
:10EF8C006104E10004003A008BCCB3006AC1B30009
:10EF9C002CE00700030037008BC0B3006AC1B3003C
:10EFAC0028E007000A00370020E007006104E100B8
:10EFBC0004003A008BCAB3006AC1B30021E0070019
:10EFCC00030037008BC6B3006AC1B3001DE0070015
:10EFDC00BBC1B300BAC1B3001AE007001BC0B30039
:10EFEC00AAC1B30017E00700FBC2B3004AC2B300CA
:10EFFC0014E007007BC5B3005AC2B30011E0070050
:10F00C00DBC8B3003AC2B3000EE007006BC3B30019
:10F01C008AC1B3000BE007001BC0B3009AC1B30058
:10F02C0008E007001620EF001AC0B30005E0070047
:10F03C008BC8B300FAC1B30002E0070013E007006D
:10F04C000BC8B300FAC1B300FEDF07000FE00700E6
:10F05C000BC9B300FAC1B300FADF07000BE00700DD
:10F06C000BCDB300FAC1B300F6DF070007E00700D1
:10F07C005BC0B3007AC1B300F2DF07001620EF00CB
:10F08C006AC3B300EFDF07008BC3B3008AC2B300BF
:10F09C00ECDF0700F7DF0700F6DF0700F5DF0700FE
:10F0AC00F4DF0700CBC3B3008AC2B300E5DF07006F
:0CF0BC00CF0578004F057800000006002A
:106F140038002000A7B028000E20ED00FEFF3A0044
:106F24001020ED00FCFF3A00000000000000060005
:006F34005D
:107050008A1F7800D062A9008B1F7800B04B800097
:1070600000000100CF0578000B457800C04B800080
:1070700000000100D062A8004F0578000000060063
:0070800010
:101B2400CBE2A900402C20000A487800D7A2A900E3
:081B3400D7A2A8000000060082
:10198400CBE2A800402C20000A487800D7A2A90086
:08199400D7A2A8000000060024
:10197000CBE2A900402C20000A487800EEFA0700CC
:04198000000006005D
:10053800D7A2A90000000000D7A2A800000006006A
:00054800B3
:10199C00CBE2A800402C20000A487800E3FA0700AC
:0419AC000000060031
:101B500073FA070072FA0700D062A900D782A800C2
:101B6000CBE2A900402C20000A487800D7A2A900A7
:0C1B7000D7A2A800D062A8000000060068
:1005200000000000000000000000000000000000CB
:080530000000000000000600BD
:101C3C00D062A900D782A800CBE2A800402C2000DB
:101C4C000A487800D7A2A900D7A2A800D062A800A1
:0C1C5C0030FA07002FFA07000000060015
:107038000000FA0080962000904078000140780017
:087048000080FA0000000600C0
:10709800D70822000E20ED00FEFF3A000000000095
:0470A80000000600DE
:10708000A71124000E20ED00FEFF3A0000000000D2
:087090000000000000000600F2
:020000040001F9
:1078E8000000FA0040382000F04888006A49880003
:1078F8007B498800509120000C48780010822000B5
:107908000D4878000020EF00504988000020EF0063
:0C791800404988000080FA0000000600D2
:1070B0000000FA00FA4888000080FA00000006008C
:0070C000D0
:1087AC000600FA008B1F78008C1F78008D1F780054
:1087BC00D062A900A4F707000040E2000D003200CF
:1087CC00404A8000E1005000904A80000020ED00FB
:1087DC008A1F780080067800010678001620EF00CA
:1087EC001420EF00F0498000000001004F057800D4
:1087FC00060037008A1F78001620EF001420EF00C7
:10880C00B04A8000000001004F0578000420EF0002
:10881C00904A80000020ED00200798000010E10035
:10882C001B003E000020EF0000079800404A80002B
:10883C00E100500011079800600047001008E100AB
:10884C000E003900821F78008A1F7800904B800040
:10885C00000001004F0578004F017800E000470050
:10886C001E0090001100E1000400320011002000F5
:10887C006000470010884000ECFF37002E0090008D
:10888C000010E100020032000420EC00E0FF370091
:10889C00D062A800CF0678004F067800CF0578008C
:0888AC000080FA000000060044
:106654000000FA0050952000904078000140780036
:086664000080FA0000000600AE
:1068B0000800FA008A1F7800414A8000001E20006C
:1068C0000008E1000420EF000100360004A0EE0003
:1068D000914A8000001E20000008E1000020EF0027
:1068E0000100360000A0EE0000007100030032003D
:1068F00003322000021E200002003700031E200089
:10690000021120009096200090407800A0C5B300AE
:10691000000CE10013003A00C7C107000040E2008C
:1069200008003200E1805100600047000D885000EF
:10693000620047000B8850002A0798003C07980027
:10694000070037000B0798001D079800E100510071
:10695000640047000C885000660047000A88500019
:1069600012003700B4C107000040E2000B00320003
:10697000E1805100600047000C8850006200470031
:106980000A885000E1005100640047000D88500063
:10699000660047000B885000040037000A07980083
:1069A0001C0798002B0798003D079800AAC2B30067
:1069B000B04B8000000001000E0090004800DE0097
:1069C00000457800C04B8000000001000E4590009B
:1069D000C04B8000000001001E0090004800DE0057
:1069E00000457800C04B8000000001002E4590005B
:1069F000C04B800000000100BAC2B300B04B800061
:106A0000000001002E0090004800DE0000457800E4
:106A1000C04B8000000001004E459000C04B80003C
:106A2000000001003E0090004800DE0000457800B4
:106A3000C04B8000000001006E459000C04B8000FC
:106A400000000100CAC2B300B04B8000000001008A
:0C6A50004F0578000080FA0000000600EE
:106F98008A1F78008A9FBE002AC0B300B04B8000C9
:106FA800000001004F05BE00400120000020EC0059
:106FB800104078008A9FBE0000457800C04B8000D2
:106FC800000001003AC0B300B04B8000000001008F
:106FD8004F05BE008B1F7800C04B800000000100E9
:106FE8006AC0B300B04B800000000100CF057800F4
:106FF800600120000020EC00104078008B1F780012
:1070080000457800C04B8000000001007AC0B30042
:10701800B04B800000000100CF0578000B457800D8
:10702800C04B8000000001002AC2B300B04B8000B2
:0C703800000001004F0578000000060079
:106AE0008A1F78008A9FBE00AAC2B300B04B800004
:106AF000000001004F05BE00400120000020EC0016
:106B0000104078008A9FBE0000457800C04B80008E
:106B1000000001004F05BE008B1F7800C04B8000B5
:106B200000000100BAC2B300B04B800000000100B9
:106B3000CF057800600120000020EC0010407800B4
:106B40008B1F780000457800C04B800000000100DA
:106B5000CF0578000B457800C04B80000000010095
:106B6000CAC2B300B04B8000000001004F0578009E
:046B7000000006001B
:106A5C008A1F78008A9FBE00AAC2B300B04B800088
:106A6C00000001004F05BE004850DE008A9FBE00AA
:106A7C0000457800C04B8000000001004F05BE00AF
:106A8C008B1F7800C04B800000000100BAC2B3001D
:106A9C00B04B800000000100CF0578004858DE00A4
:106AAC008B1F780000457800C04B8000000001006F
:106ABC00CF0578000B457800C04B8000000001002A
:106ACC00CAC2B300B04B8000000001004F05780033
:046ADC0000000600B0
:106E2C008A1F78009096200090407800A0C5B3008F
:106E3C00000CE10022003A008A9FBE002AC0B30079
:106E4C00B04B8000000001004F05BE004850DE0032
:106E5C008A9FBE0000457800C04B800000000100F6
:106E6C003AC0B300B04B8000000001004F05BE00DB
:106E7C008B1F7800C04B8000000001006AC0B3007B
:106E8C00B04B800000000100CF0578004858DE00B0
:106E9C008B1F780000457800C04B8000000001007B
:106EAC007AC0B300B04B800000000100CF05780021
:106EBC000B457800C04B800000000100210037001A
:106ECC008A9FBE002AC0B300B04B800000000100B6
:106EDC004F05BE004858DE008A9FBE000045780072
:106EEC00C04B8000000001003AC0B300B04B8000E2
:106EFC00000001004F05BE008A1F78000B4578008A
:106F0C00C04B8000000001006AC0B300B04B800091
:106F1C00000001004F0578004850DE008A1F780001
:106F2C0000457800C04B8000000001007AC0B3001F
:106F3C00B04B8000000001004F057800C04B800072
:106F4C00000001002AC2B300B04B80000000010019
:086F5C004F057800000006005B
:10678C008A1F78008A9FBE00AAC2B300B04B80005B
:10679C00000001004F05BE004850DE008A9FBE007D
:1067AC0000457800C04B8000000001004F05BE0082
:1067BC008B1F7800C04B800000000100BAC2B300F0
:1067CC00B04B800000000100CF0578004858DE0077
:1067DC008B1F780000457800C04B80000000010042
:1067EC00CF0578000B457800C04B800000000100FD
:1067FC00CAC2B300B04B8000000001004F05780006
:04680C000000060082
:1076FC008A1F78008A9FBE00AAC2B300B04B8000DC
:10770C00000001004F05BE004850DE008A9FBE00FD
:10771C0000457800C04B8000000001004F05BE0002
:10772C008B1F7800C04B800000000100BAC2B30070
:10773C00B04B800000000100CF0578004858DE00F7
:10774C008B1F780000457800C04B800000000100C2
:10775C00CF0578000B457800C04B8000000001007D
:10776C00CAC2B300B04B8000000001004F05780086
:04777C000000060003
:107780008A1F78008A9FBE00AAC2B300B04B800057
:10779000000001004F05BE004850DE008A9FBE0079
:1077A00000457800C04B8000000001004F05BE007E
:1077B0008B1F7800C04B800000000100BAC2B300EC
:1077C000B04B800000000100CF0578004858DE0073
:1077D0008B1F780000457800C04B8000000001003E
:1077E000CF0578000B457800C04B800000000100F9
:1077F000CAC2B300B04B8000000001004F05780002
:04780000000006007E
:1076D000CBE2A800400120000020EC0090407800A0
:1076E000C02D200001487800402C20000A48780076
:0C76F000D7A2A900D7A2A8000000060045
:1018F8000000FA0089F607000080FA0000000600E0
:00190800DF
:020000040000FA
:10F324000000FA0040C2A9004082BF0062006000F1
:10F334006100E10002003A0000000000FAFF37001B
:10F344004A1288004082BF00610060006000E10052
:10F3540002003A0000000000FAFF3700411280006A
:0CF36400010078000080FA0000000600A4
:020000040001F9
:100E6C000000FA00EFFC07000080FA00000006000A
:000E7C0076
:100230000000FA0060C2A9006082BF006200600096
:100240006100E10002003A0000000000FAFF370000
:100250004A1388006082BF00610060006000E10016
:1002600002003A0000000000FAFF3700411380004E
:0C027000010078000080FA000000060089
:100E40000000FA00111180000010200000806000F6
:100E50006000E10002003A0000000000F9FF3700E6
:0C0E60002A1188000080FA000000060043
:10B424000000FA00911180000010200000806000EC
:10B434006000E10002003A0000000000F9FF37005C
:0CB44400AA1188000080FA000000060039
:10448400CBE2A800400120000020EC00904078001E
:10449400402C20000148780026B00700402C200062
:0C44A4000A48780023B007000000060062
:10409C00CBE2A800402C20000A08780023B10700CE
:0440AC00000006000A
:102DA0008A1F78004B50DE00804078000180FB00D5
:102DB0004300DD00804078000180FB004700DE001A
:102DC0006104E10002003A0067C0400001003700E2
:102DD000014078008A1F78000045780097BB070003
:102DE0004F0578004550DE00804078000180FB00F0
:102DF0004200DD00804078000180FB004700DE00DB
:102E00006104E10002003A0063C0400001003700A5
:102E1000014078008A1F78000045780087BB0700D2
:102E20004F0578004350DD00804078000180FB00B2
:102E30004700DE006104E10002003A0067C0400084
:102E40000100370001407800004578007BBB070097
:082E50004F05780000000600A8
:10AFF4002800FA008A1F78008B1F78008C1F7800C5
:10B004008D1F78003B002000FAFF2F0017CF0700A8
:10B014001A20EF00FCFF2F00AA2428002B00200098
:10B0240032DD0700E000470040C5B30080587800D7
:10B03400F0C6B3008058780050C7B3008058780039
:10B0440030C6B3008058780080C6B30080587800BA
:10B0540000C2B3008058780030C7B300805878002D
:10B0640050C6B30080587800C0C6B300805878003A
:10B0740050C6B3008058780030C6B30080587800BA
:10B0840040C7B3008058780050C6B3008058780099
:10B0940040C6B3008058780000C2B30080587800DE
:10B0A40030C6B30080587800F0C6B30080587800EA
:10B0B40020C7B30080587800E0C6B30080587800F9
:10B0C40050C6B3008058780020C7B3008058780079
:10B0D40030C7B3008058780000C2B30080587800AD
:10B0E40060C6B30080587800F0C6B300805878007A
:10B0F40020C7B3008058780000C2B300805878009D
:10B1040030C6B3008058780010C6B3008058780069
:10B11400C0C6B3008058780090C6B3008058780049
:10B1240020C6B3008058780020C7B3008058780048
:10B1340010C6B3008058780040C7B3008058780028
:10B1440090C6B30080587800F0C6B30080587800E9
:10B15400E0C6B300805878000020EF0080587800E3
:10B16400600047000C0520002B0320000005780038
:10B17400AFDC07001D002000FC1320001B00200092
:10B18400BA1320002BDD07001D002000FC13200053
:10B19400AB0020006A13200026DD07001D002000FC
:10B1A400FC1320005B002000FA13200021DD0700BF
:10B1B400E000470060C6B3008058780090C6B30032
:10B1C4008058780020C7B3008058780030C7B30097
:10B1D4008058780040C7B3008058780000C2B3009C
:10B1E4008058780080C6B3008058780050C6B300F9
:10B1F4008058780020C7B3008058780050C6B30048
:10B20400805878000020EF008058780060004700E4
:10B214004C0120006B0E20000005780084DC070040
:10B2240099E20700D800200087732B000E20ED0060
:10B23400FEFF3A001020ED00FCFF3A000000000081
:10B244003B0020001420EF0088CE07001A20EF00F6
:10B254001820EF00AA2428002B002000A3DC0700FC
:10B264001D002000FC1320001B002000BA13200046
:10B27400F0DC07001D002000FC132000AB002000C0
:10B284006A132000EBDC07001D002000FC132000E3
:10B294005B002000FA132000E6DC0700E000470012
:10B2A40060C6B3008058780090C6B3008058780018
:10B2B40020C7B3008058780030C7B30080587800A6
:10B2C40040C7B3008058780000C2B30080587800AB
:10B2D40080C6B3008058780050C6B3008058780008
:10B2E40020C7B3008058780050C6B3008058780057
:10B2F4000020EF0080587800600047004C012000D7
:10B304006B0E20000005780049DC07003B0020009C
:10B31400FAFF2F0055CE07001A20EF00FCFF2F0084
:10B32400AA2428002B00200070DC0700BD0E20009A
:10B334001820EF00FB0E20001420EF00BDDC0700F6
:10B34400FD0E20005C002000FB0E20001420EF0006
:10B35400B8DC07006D0E2000AC002000FB0E2000BE
:10B364001420EF00B3DC0700E0004700E0C6B300A0
:10B3740080587800F0C6B3008058780070C7B300D6
:10B384008058780000C2B3008058780080C6B300AB
:10B394008058780050C6B3008058780020C7B300A6
:10B3A4008058780050C6B3008058780000C2B300BB
:10B3B400805878000020EF00805878006000470033
:10B3C4008C0C2000FB0020000005780018DC07002E
:10B3D400F6E10700D800200087732B000E20ED0053
:10B3E400FEFF3A001020ED00FCFF3A0000000000D0
:10B3F400CF0678004F067800CF0578004F05780017
:08B404000080FA0000000600C0
:1024F0000400FA008A1F78008B1F78000A079800F2
:102500001B0798000E0090009E009000A0498800D4
:10251000B1498800600047008C1F78002B00200024
:102520000C0020000005780067F407000E00900002
:102530009E009000A1018800104078000080FB0000
:10254000E0498800600047001B0020000C002000CC
:10255000000578005CF407000E0090009E009000DB
:10256000A1018800104078000080FB00C800DD0059
:10257000C093200010884000600047001B0020002E
:102580000C002000000578004FF407000E009000BA
:102590009E009000A1018800104078000080FB00A0
:1025A000D0498800600047001B0020000C0020007C
:1025B0000005780044F407000E0090009E00900093
:1025C000A1018800104078000080FB00C800DD00F9
:1025D000A093200010884000600047001B002000EE
:1025E0000C0020000005780037F407004F06780043
:1025F0000E0090009E009000A1018800104078001D
:102600000080FB00804A88000C4A8800CD49880081
:102610009191200010C0B3008048780041952000BF
:102620000020EF0080487800CF0578004F05780043
:082630000080FA000000060022
:020000040000FA
:10F6C8000000FA0000002800010020000058E100B6
:10F6D80001E0E100070031001A00BE000B01400004
:10F6E8008C81480005E0AE0002003700028DBE00A4
:10F6F8002A0037000A0078008000EB006201400011
:10F70800E0814800020278000A0078008000EB00DF
:10F7180061004000E08048008002780012407800D4
:10F728000080FB00610060006000E10004003A0016
:10F738009580FB00F007200000806000804A780078
:10F74800144078000080FB004100DE00004A780089
:10F758001A00BE000B1D40000C95480014407800AC
:10F768000080FB004100DD00004A78009580FB0026
:10F7780000082000008060006000E1000300320003
:10F788001480FB0061007000004A78009580FB003F
:10F798000008200000807000804A78000080FA008D
:04F7A8000000060057
:020000040001F9
:102434000000FA008B1F7800809420001058E100FF
:102444000100390026003700209520001060E100CB
:1024540001003900220037000220EF008A1F7800B3
:102464000B0578008C05780022F207004F057800F0
:10247400010045001004E0001900320040952000DE
:10248400104078006104E1000A003A0001004500B0
:10249400811F78008C1F78008A9FBE001085FB0086
:1024A40011F607004F05BE004F067800CF007800F4
:1024B4000900370001004500811F78008C1F780057
:1024C4008A9FBE001085FB00EDF407004F05BE0097
:1024D4004F067800CF0078000220EC00E4FF3700BC
:0C24E400CF0578000080FA000000060020
:020000040000FA
:10FCEC002400FA008A1F78008B1F78008C1F780084
:10FCFC008D1F7800C09320001050E10001003100EE
:10FD0C0042013700A09320001050E10001003600A2
:10FD1C003E0137000020EF00200798000020EF0084
:10FD2C00004F9800C0932000100055004202DD00E7
:10FD3C00C04A8000D14A800068014000E081480040
:10FD4C00040078008000EB00000041008180490035
:10FD5C004C0020000005BE0089DA0700C095200089
:10FD6C00300F98003E0890009043780007479800A9
:10FD7C003E0890000020EC009082FB000003EB009A
:10FD8C00610240001481FB008001EB00C818DD000B
:10FD9C004810DE00810070004810DD000081420038
:10FDAC0081014B00610042001080FB008000EB00E1
:10FDBC00800078000000EB000002410081824900C5
:10FDCC00819520006A0047003118420021904A00BA
:10FDDC000780FB00C301DE00029520001218B8005A
:10FDEC00000F9800600047009080FB00700020001E
:10FDFC00008060006000E100040032000E099000F9
:10FE0C000195200070004700110841000E08900079
:10FE1C00200F98006E004700800678000E0E9000B0
:10FE2C005E059000EE059000504B80000000010034
:10FE3C00300F98007E0190008001EB00EA00470033
:10FE4C006A00470031184100219049000E099000CA
:10FE5C00EE00470070004700110851000020EF0031
:10FE6C00100F9800C04980006000E10074003A0057
:10FE7C00104A8000300798000020EF0020479800BF
:10FE8C00804A8000E1005000111798006200470082
:10FE9C001080FB000100E10065003E00204A80005C
:10FEAC00200798000020EF00104F98000020EF0072
:10FEBC0010479800600047001080FB00E1005000E4
:10FECC0001179800610047001080FB000100E10061
:10FEDC004B003E001E4890006004E1002B003A00ED
:10FEEC009E0890007200470061884000FE00900060
:10FEFC00740047001008E1001C0031009E089000BF
:10FF0C006E0047001008E1001800360010002000B9
:10FF1C00100F98006E0047008A1F7800800678004A
:10FF2C000E0E90005E059000EE059000504B800088
:10FF3C00000001004F057800300F98000E0890006B
:10FF4C00200F98007E0190008001EB00EA00470032
:10FF5C006A00470031184100219049000E099000B9
:10FF6C00EE00470070004700110851003E08900059
:10FF7C0010407800004F9800BE08900076004700B3
:10FF8C006188400010C0B300104F98006800470013
:10FF9C009080FB00690047001080FB00008060002F
:10FFAC006000E100060032008A1F78000C4A8000D5
:10FFBC00BE0590002E05900041DA07004F05780031
:10FFCC00AE00900064004700618840006900470063
:10FFDC001080FB004100DD00104F980061004700CD
:10FFEC009080FB000E1090000008E100040032002D
:04FFFC0011C0B3007D
:020000040001F9
:100000006100470010C84000ADFF3700BE009000FF
:100010006600470061884000620047009080FB0056
:100020001E1090000008E10004003200AE40900075
:100030006200470061C8400094FF3700AE009000A6
:10004000409420006188400073003700204A8000FF
:10005000300798000020EF0020479800804A800079
:10006000E100500011179800620047001080FB006B
:100070000100E10065003E00104A80002007980062
:100080000020EF00104F98000020EF00104798006C
:10009000600047001080FB00E1005000011798004D
:1000A000610047001080FB000100E1004B003E00B2
:1000B0001E4890006004E1002B003A009E0890006A
:1000C0007200470061884000FE0090007400470005
:1000D0001008E1001C0031009E0890006E004700EF
:1000E0001008E1001800360010002000100F9800E2
:1000F0006E0047008A1F7800800678000E0E900080
:100100005E059000EE059000504B8000000001005D
:100110004F057800300F98000E089000200F9800CF
:100120007E0190008001EB00EA0047006A00470072
:1001300031184100219049000E099000EE0047005F
:1001400070004700110851003E08900010407800F0
:10015000004F9800BE08900076004700618840007C
:1001600010C0B300104F9800680047009080FB005B
:10017000690047001080FB00008060006000E10023
:10018000060032008A1F78000C4A8000AE059000FD
:100190003E059000CDD907004F057800AE009000D5
:1001A0006400470061885000690047001080FB0030
:1001B0004100DD00104F9800610047009080FB0077
:1001C0000E1090000008E1000400320011C0B300DE
:1001D0006100470010C84000ADFF3700BE0090002E
:1001E0006600470061884000620047009080FB0085
:1001F0001E1090000008E10004003200AE409000A4
:100200006200470061C8400094FF3700AE009000D4
:100210002094200061885000CF0678004F067800B7
:10022000CF0578004F0578000080FA000000060036
:00023000CE
:020000040000FA
:10678C000400FA008D1F7800C095200010079800B7
:10679C006060E10025003600600047008C1F780027
:1067AC008A9FBE0080067800504B800000000100DC
:1067BC004F05BE004F067800000278001300200041
:1067CC000301780084017800600047001010E1009C
:1067DC000D003E001E009000134878009E009000B3
:1067EC006200470061884000618241006000470000
:1067FC001010E10004003200E101410003017800B7
:10680C0084017800F0FF370060004700100056004C
:10681C00000678000E0090008000EB0000004500A0
:10682C0081804D000005BE00D9FF3700CF067800EF
:08683C000080FA0000000600D4
:1068CC000000FA008A1F78008D1F78006050E100EC
:1068DC000220EF0001003D0002A0EE008094200099
:1068EC001050E1000020EF000100350000A0EE0088
:1068FC0000807000010032001F0037006058E1007A
:10690C000220EF0001003D0002A0EE0020952000C7
:10691C001058E1000020EF000100350000A0EE004F
:10692C00008070000100320013003700D062A90013
:10693C00453F07000040E200070032008C1F780042
:10694C008B0678000A067800F049800000000100F0
:10695C004F067800040037008C1F7800B04A800086
:10696C00000001004F0678000C057800904B800069
:10697C0000000100D062A800CF0678004F05780017
:08698C000080FA000000060083
:10F884002000FA008A1F78008B1F78008C1F7800F4
:10F894008D1F780090912000104078006004E100F2
:10F8A4000A003A008A1F78001A20EF001820EF009F
:10F8B400AA2428002B0020000C0B07004F05780019
:10F8C4009191200010C0B30080487800C0932000BC
:10F8D4001050E10001003100FB003700A09320002C
:10F8E4001050E10001003600F70037000020EF005F
:10F8F400700798000020EF0020579800C093200064
:10F90400100055004201DD00A0498000B14980008B
:10F914000007980011079800020078008000EB00AF
:10F9240068014000E08148006000470082057800DB
:10F93400030678000005780062FF07000E009000BF
:10F944009E009000A1018800104078000080FB0018
:10F9540040079800600047001B0020000C002000B6
:10F964000005780057FF07000E0090009E009000ED
:10F97400A1018800104078000080FB008000EB00AB
:10F98400200F9800310F9800600047001B002000F2
:10F994000C002000000578004AFF07000E009000CC
:10F9A4009E009000A1018800104078000080FB00B8
:10F9B4008000EB00C809DD004801DE00830171000E
:10F9C4004801DD00F400470074004700311841008D
:10F9D40021904900600047001B0020000C0020001B
:10F9E4000005780037FF07000E0090009E0090008D
:10F9F400A1018800104078000080FB008000EB002B
:10FA0400800278000002EB007400470030014200DD
:10FA1400A0814A00A0498000B149800020079800D5
:10FA240031079800640047008205780003067800D7
:10FA34000005780023FF0700C04980006000E10052
:10FA440051003A00104A8000000F98000020EF0097
:10FA540060079800804A8000E1005000710F980010
:10FA64006C0047001008E10043003900204A800080
:10FA7400700798000020EF00305798000020EF0036
:10FA8400500798004E009000E1005000610F98006C
:10FA94006A0047001008E1002C0039003E50900035
:10FAA4006004E1000E003A002E009000BE009000B9
:10FAB400A101880010407800205798006400470096
:10FAC4008A1F78001B0020000C002000000578002D
:10FAD400FCFE07004F05780010C0B30030579800B3
:10FAE400720047009080FB00730047001080FB0009
:10FAF40000806000060032008A1F78000C4A8000F3
:10FB04008E0D90007E0590006FDB07004F05780096
:10FB1400FE0090006E0047006188400073004700BB
:10FB24001080FB004100DD0030579800EA004700D8
:10FB34006E0890001100E100040032001100200062
:10FB44006A00470010884000CEFF37008E089000FE
:10FB54007000470061884000EC0047007E08900078
:10FB64001100E10004003200EE0090006C00470038
:10FB740061884000B7FF3700FE00900040942000E9
:10FB84006188400050003700204A8000000F980030
:10FB94000020EF0060079800804A8000E1005000D8
:10FBA400710F98006C0047001008E1004300390011
:10FBB400104A8000700798000020EF00305798002A
:10FBC4000020EF00500798004E009000E100500024
:10FBD400610F98006A0047001008E1002C0039000A
:10FBE4003E5090006004E1000E003A002E009000A8
:10FBF400BE009000A10188001040780020579800B2
:10FC0400640047008A1F78001B0020000C002000BD
:10FC140000057800ABFE07004F05780010C0B30064
:10FC240030579800720047009080FB007300470033
:10FC34001080FB0000806000060032008A1F7800FC
:10FC44000C4A8000FE0590000E0D90001EDB07009C
:10FC54004F057800FE0090006E0047006188500058
:10FC6400730047001080FB004100DD00305798000E
:10FC7400EA0047006E0890001100E1000400320021
:10FC8400110020006A00470010884000CEFF3700B2
:10FC94008E0890007000470061884000EC00470027
:10FCA4007E0890001100E10004003200EE00900094
:10FCB4006C00470061884000B7FF3700FE009000E9
:10FCC4002094200061885000CF0678004F06780009
:10FCD400CF0578004F0578000080FA000000060088
:00FCE40020
:020000040001F9
:102638001200FA008A1F78008B1F78008C1F780020
:102648008A9FBE008D0578000C057800A8F1070068
:102658004F05BE000C50E10005003A000A0678005C
:102668000B0578008D057800DCF20700CA003700FA
:102678000D58E10005003A008C1F78000B06780021
:10268800CF05780038F30700C30037000020EF00BB
:10269800500798000A005600000798006000E10003
:1026A80007003D008E009000600047006088100021
:1026B800DE0090006A004700618850000300370080
:1026C800DE0090006A004700618840000020EF00AB
:1026D800600798000B805600100798006000E10022
:1026E80007003D009E0090006200470060881000CF
:1026F800EE0090006C00470061885000030037002E
:10270800EE0090006C004700618840000020EF0058
:10271800700798008E009000620047001008E100E2
:102728002F003D00FE0090006E00470061884000C9
:102738008E0090001E009000000798001107980076
:102748000A0078000B05780080057800DE0090000C
:102758006E0090005007980061079800170020004D
:1027680007017800C09420001010E1001B003E0013
:10277800020F9800610061006000E10003003A0068
:102788008E08900070004700608810000E089000C6
:102798004180DE00000F980000804500821F78000D
:1027A8008C9FBE008A9FBE007C4A80008A05780004
:1027B8000005780043D007004F05BE004F06BE0055
:1027C8004F017800C09420001010E100030032008F
:1027D800E103410007017800E2FF37001F003700DE
:1027E8001700200007017800C09420001010E100B5
:1027F8001A003E00020F9800610061006000E100CD
:1028080003003A008E0890007000470060881000AE
:102818000E0890004180DE00000F980000804500FF
:10282800821F78008C9FBE008A9FBE007C4A800071
:102838008005780023D007004F05BE004F06BE0074
:102848004F017800C09420001010E100030032000E
:10285800E103410007017800E3FF37000E00900014
:102868004100DD00400798001E0090004101DD0096
:1028780032079800E0004700640047001108510043
:102888000E0090000020ED00000798006000E100B5
:10289800410035002E0090006000E100070035007F
:1028A8006C00470010804500800578002E019000DC
:1028B800E800470064004700110851006A0047001B
:1028C80010004500000578002E019000E600470042
:1028D800640047001108410012002000C094200045
:1028E8001010E1002B003E00020F9800610061000B
:1028F8006000E10003003A008E0890007000470075
:10290800608810000E0890004180DE00000F9800DB
:102918006E0047001000E0000D0032007000470014
:1029280010804500821F78008C9FBE008A9FBE00E1
:102938007C4A80008A05780000057800E1CF07000E
:102948004F05BE004F06BE004F0178000B00370050
:102958007000470010804500821F78008C9FBE00E1
:102968008A9FBE007C4A800080057800D5CF07008A
:102978004F05BE004F06BE004F017800C0942000EE
:102988001010E10003003200E10241000501780067
:10299800D2FF3700BAFF37004F067800CF0578001E
:0C29A8004F0578000080FA0000000600D7
:020000040000FA
:10F1E4000200FA000B50E100030034000A0078002A
:10F1F4000B057800800578006050E10002003D00B6
:10F204001420EF0004003700209520001050E10086
:10F2140001003500400037006058E10001003D0066
:10F224003D003700209520001058E1000300350010
:10F23400904A80000020ED00800578001300200033
:10F24400C09420001018E10033003E00030798002A
:10F25400618061006000E10003003A008E009000CC
:10F2640060004700608810000E0090004180DE00BE
:10F2740000079800000146006010E1000220EF0042
:10F2840001003D0002A0EE00809420001010E10077
:10F294000020EF000100350000A0EE0000807000A7
:10F2A4000200320083007800160037000A0178005B
:10F2B400830078000B10E10012003C00600047005E
:10F2C40010004600811F7800821F78008C1F780090
:10F2D4008A9FBE007C4A8000820578000005780081
:10F2E40079DD07004F05BE004F0678004F01780016
:10F2F400CF0078000B10E100020032000420EC0083
:10F30400ECFF3700C09420001008E1000200320036
:10F31400E1814000CAFF37000080FA0000000600C7
:00F32400E9
:10F370000400FA008D1F78000B50E10003003400F8
:10F380000A0078000B057800800578006050E100E5
:10F3900002003D001420EF0004003700809420009C
:10F3A0001050E10001003500730037006058E100A3
:10F3B00001003D0070003700809420001058E100EB
:10F3C00003003500404A80000020ED0080057800F1
:10F3D00010002000000798008E009000C0942000CC
:10F3E0001008E10064003E000E0090001007980035
:10F3F0000E009000610060006000E10003003A0030
:10F400009E00900062004700608810001E0090007F
:10F410004180DE0010079800000146006010E10006
:10F420000220EF0001003D0002A0EE002095200028
:10F430001010E1000020EF000100350000A0EE00F8
:10F44000008070000100320043003700A0972000C8
:10F45000104078006004E1002C003A00D062A9005E
:10F460007C1C07000040E2000C00320062004700F4
:10F47000100046008C1F78008A9FBE00800678002E
:10F480000B06780080057800F0498000000001003C
:10F490004F05BE004F0678000900370062004700A4
:10F4A000100046008C1F78008A9FBE0080057800FF
:10F4B000B04A8000000001004F05BE004F067800F2
:10F4C0008A0078000B08E1000E003C00811F7800E4
:10F4D0008C1F78008A9FBE007A4A8000904B800083
:10F4E000000001004F05BE004F067800CF007800F5
:10F4F0000B08E100030032006180400080007800CA
:10F50000F0FF3700D062A800130037008A007800AF
:10F51000010078000B00E1000F003C00801F780024
:10F520008C1F78008A9FBE008C0578007C4A800082
:10F5300000057800E5DC07004F05BE004F067800A7
:10F540004F0078000B00E10003003200E1004000B2
:10F5500001007800EFFF37008E009000C09420007B
:10F560001008E100040032008E00900060004700A7
:10F570006188400098FF3700CF0678000080FA00CD
:04F580000000060081
:020000040001F9
:103C8C000000FA0008F207006004E100FDFF3200BA
:103C9C0099F107000049880066E90700E0488800B0
:083CAC000080FA000000060090
:1004B4000000FA008A1F78007ADE070053DE070086
:1004C400108220001045780039DE0700E1912000F9
:1004D4001100E1000020EF000100310000A0EE0057
:1004E40080407800014078004F0578000080FA00D1
:0404F40000000600FE
:020000040000FA
:107EA8000000FA00C7A2A800C782A800C762A900FC
:107EB800CB62A900C742A8000080FA0000000600B3
:007EC800BA
:107E1000276820000E20ED00FEFF3A000000000061
:087E2000000000000000060054
:107DB4000000FA000A85FB008041800000000100F9
:107DC400B048880080007800010078000080FA0044
:047DD40000000600A5
:1012C4000000FA006F50E100070036001100200012
:1012D400700055000008DD008080EA00A032200084
:1012E4001088600005003700110020000A08DD00A6
:1012F4008080EA00C0322000108860004A1988000B
:101304002023A8002003AF000200370000000000E3
:10131400FCFF37002003A9000118800001007800B9
:081324000080FA000000060041
:10132C000000FA00110020000A08DD008080EA00AD
:10133C00C0362000108860004A1B88006023A8007B
:10134C006003AF000200370000000000FCFF370014
:10135C006003A900011A8000010078000080FA00E7
:04136C000000060077
:020000040001F9
:100304000000FA008A1F7800B7DE0700BFDE07008E
:100314005091200010457800A5DE07008000780089
:10032400010078004F0578000080FA000000060004
:00033400C9
:020000040000FA
:107DEC000000FA00C762A800C7A2A800C742A900F9
:107DFC00CB42A900C782A900CB82A8000080FA0060
:047E0C00000006006C
:10E240000000FA008A1F780026E70700F0E60700C2
:10E250001082200010457800D6E607008000780084
:10E26000010078004F0578000080FA0000000600E9
:00E27000AE
:107EE4000000FA00C742A800C782A800C762A90020
:107EF400CB62A900C7A2A900CBA2A8000080FA0007
:047F04000000060073
:020000040001F9
:103BB0000000FA003FF207006004E100FDFF320060
:103BC000D0F10700D04888009DE90700104988001F
:083BD0000080FA00000006006D
:10B45000A06B2D0040C988000014200050C988004E
:10B46000000F200060C988000020EF0080C988001C
:10B4700090002000B0C9880020062D003100200077
:10B48000C0C98800D1C9880080002000E0C98800B8
:10B4900040072D0031002000F0C9880001CA880053
:10B4A0000020EF0010CA88001000200040CA880069
:10B4B00040092D003100200050CA880061CA880070
:10B4C0000020EF0070CA88000020EF00A0CA8800AA
:10B4D00020002000D0CA880080092D003100200003
:10B4E000E0CA8800F1CA88002000200000CB880054
:10B4F000C0092D003100200010CB880021CB88002E
:10B500001000200030CB8800000A2D003100200000
:10B5100040CB880051CB88007001200070C98800A2
:10B52000A06B2D0000C588000014200010C5880005
:10B53000000F200020C588000020EF0040C58800D3
:10B540000020EF0070C58800E0002000A0C5880042
:10B55000200A2D0031002000B0C58800C1C5880038
:10B5600010002000D0C58800A00D2D003100200063
:10B57000E0C58800F1C588001000200000C68800E2
:10B58000C00D2D003100200010C6880021C68800A3
:10B590002000200030C68800000E2D003100200061
:10B5A00040C6880051C688001000200060C6880090
:10B5B000400E2D003100200070C6880081C6880032
:10B5C0003000200090C68800800E2D003100200041
:10B5D000A0C68800B1C6880050002000C0C6880000
:10B5E000E00E2D0031002000D0C68800E1C68800A2
:10B5F0000020EF00F0C68800B001200030C58800B0
:10B60000A06B2D0020C788000014200030C78800E0
:10B61000000F200040C788001000200060C788008D
:10B62000800F2D003100200070C7880081C788007E
:10B630002000200090C78800A00F2D0031002000BE
:10B64000A0C78800B1C788000020EF00C0C78800ED
:10B6500020002000F0C78800E00F2D0031002000FE
:10B6600000C8880011C888001000200020C8880089
:10B6700020102D003100200030C8880041C888000B
:10B680000020EF0050C888000020EF0080C888002C
:10B690000020EF00B0C888000020EF00E0C888005C
:10B6A0000020EF0010C988006000200050C788000B
:10B6B000A06B2D0020D188000014200030D188001C
:10B6C000000F200040D188000020EF0060D18800EA
:10B6D0006000200090D1880060102D003100200013
:10B6E000A0D18800B1D1880030002000C0D18800EE
:10B6F00020112D0031002000D0D18800E1D1880038
:10B700000020EF00F0D188000020EF0020D2880058
:10B710000020EF0050D288000020EF0080D2880087
:10B720000020EF00B0D288000020EF00E0D28800B7
:10B730000020EF0010D388009000200050D1880036
:10B7400000002800A0E7880061CF210030C0B300CE
:10B750008048780090032000C0E788006004200043
:10B76000D0E78800A00C2000E0E788005006200009
:10B77000F0E7880001D0210010C0B30080487800B5
:10B780000020EF0010E8880041D0210010C0B30075
:10B790008048780051D021000020EF0080487800D8
:10B7A00061D0210010C0B3008048780071D0210022
:10B7B00010C0B3008048780081D021000020EF0045
:10B7C00080487800F0FF2F0050E8880080612C004E
:10B7D00060E8880080612C0070E8880011D12100A9
:10B7E00010C0B300804878000041280090E888002D
:10B7F00001D1210030C0B300804878000020EF0064
:10B80000A0E888000020EF00B0E888000020EF00EA
:10B81000C0E888000020EF00D0E888000000280081
:10B82000C0E68800A1CD210040C0B3008048780068
:10B8300020052000E0E6880090052000F0E6880062
:10B84000B009200000E788000004200010E788000D
:10B85000A1CE21000020EF0080487800B1CE210069
:10B8600010C0B30080487800E0112D0031002000A6
:10B8700020E7880031E7880081CE210010C0B300A6
:10B880008048780091CE210010C0B3008048780035
:10B890000020EF0060E788000020EF0070E78800DC
:10B8A0000020EF0080E788000020EF0090E788008C
:10B8B0000000280020E5880061CA210050C0B300C4
:10B8C00080487800C003200040E58800700D20000B
:10B8D00050E58800100C200060E588001001200071
:10B8E00070E5880001CB210010C0B30080487800CB
:10B8F0000020EF0090E5880041CB210010C0B3008C
:10B900008048780051CB210010C0B30080487800F7
:10B9100080872000B0E588008187200000C3B30045
:10B920008058780050C2B300805878000020EF00A3
:10B930008058780040DB2A0031002000C0E58800F4
:10B94000D1E588000020EF00E0E58800E1CB210090
:10B9500010C0B30080487800F1CB21000020EF0038
:10B9600080487800F0FF2F0000E68800007E20006D
:10B9700010E68800E0652A0020E6880000412800E3
:10B9800030E688000020EF0040E6880090012000AB
:10B9900050E688000020EF0060E68800E1CC21003E
:10B9A00010C0B30080487800F1CC210010C0B30073
:10B9B0008048780001CD210010C0B3008048780095
:10B9C00011CD210010C0B3008048780021CD2100A6
:10B9D00010C0B300804878000000280090FF880065
:10B9E00041FF210060C0B300804878006000200063
:10B9F000B0FF8800300C2000C0FF880060132000DA
:10BA0000D0FF880010012000E0FF8800E1FF210046
:10BA10000020EF00804878000020EF00000089003F
:10BA20002100220010C0B3008048780031002200BD
:10BA30000020EF00804878004100220010C0B300D1
:10BA400080487800E087200030008900E1872000EE
:10BA500020C4B30080587800F0C6B3008058780046
:10BA6000F0C6B3008058780040C7B3008058780013
:10BA700090C6B30080587800E0C6B30080587800C4
:10BA800070C6B30080587800E0C2B30080587800D8
:10BA9000E0C2B30080587800E0C2B300805878005C
:10BAA000E0C2B300805878000020EF008058780092
:10BAB0008100220030C0B3008048780040DB2A00BB
:10BAC00031002000500089006100890081012200BE
:10BAD00010C0B3008048780090E72C007000890007
:10BAE000010122000020EF008048780011012200AF
:10BAF0000020EF0080487800F0FF2F0090008900C0
:10BB000080612C00A000890040122200B000890052
:10BB1000C0712E00D00089000020EF00E0008900F5
:10BB20000020EF00F00089000020EF0000018900F4
:10BB30000020EF00100189000020EF00F0038900D1
:10BB40000108220030C0B300804878005000200077
:10BB5000100489000020EF0020048900D007200095
:10BB6000300489003002200040048900A10822002E
:10BB70000020EF00804878000020EF00600489007A
:10BB8000E108220010C0B30080487800F1082200CC
:10BB900010C0B300804878000109220010C0B30033
:10BBA0008048780060872000900489006187200029
:10BBB0000020EF00805878004109220030C0B30017
:10BBC0008048780040DB2A0031002000B004890062
:10BBD000C1048900510A220010C0B30080487800D7
:10BBE0000020EF00D0048900C109220010C0B3007A
:10BBF00080487800D10922000020EF0080487800BA
:10BC0000F0FF2F00F0048900C030260000058900F5
:10BC100080612C0010058900C0712E00300589005C
:10BC2000410A220010C0B300804878000020EF00D5
:10BC3000400589000020EF005005890040F12300F5
:10BC4000600589000020EF00700589000020EF00EA
:10BC5000A0158900612B220040C0B3008048780005
:10BC600050002000C015890030022000D015890046
:10BC7000D0072000E015890030022000F01589006F
:10BC8000012C22000020EF00804878000020EF0007
:10BC900010168900412C220010C0B30080487800A3
:10BCA000512C220010C0B30080487800612C220083
:10BCB00010C0B3008048780020872000401689001B
:10BCC000218720000020EF0080587800A12C22005E
:10BCD00030C0B3008048780040DB2A0031002000EB
:10BCE0006016890071168900B12D220010C0B300C2
:10BCF000804878000020EF0080168900212D220066
:10BD000010C0B30080487800312D22000020EF00E1
:10BD100080487800F0FF2F00A0168900C030260070
:10BD2000B016890080612C00C0168900C0712E00F9
:10BD3000E0168900A12D220010C0B30080487800D1
:10BD40000020EF00F01689000020EF0000178900A6
:10BD500020F32300101789000020EF00201789002E
:10BD60000020EF0030178900812E220050C0B30060
:10BD7000804878005000200050178900600420009F
:10BD800060178900D007200070178900300220005A
:10BD900080178900212F22000020EF0080487800C2
:10BDA0000020EF00A0178900612F220010C0B3000F
:10BDB00080487800712F220010C0B30080487800BE
:10BDC000812F220010C0B3008048780040872000F7
:10BDD000D0178900418720000020EF0080587800AC
:10BDE000C12F220030C0B3008048780040DB2A0019
:10BDF00031002000F017890001188900D13022009D
:10BE000010C0B300804878000020EF0010188900AF
:10BE10004130220010C0B300804878005130220029
:10BE20000020EF0080487800F0FF2F0030188900D4
:10BE3000C03026004018890080612C00501889000D
:10BE4000C0712E0070188900C130220010C0B300EC
:10BE5000804878000020EF00801889000020EF0063
:10BE60009018890060852300A01889000020EF0049
:10BE7000B01889000020EF0010148900412822002A
:10BE800060C0B30080487800500020003014890062
:10BE90009006200040148900D0072000501489002B
:10BEA0003002200060148900E12822000020EF0009
:10BEB000804878000020EF008014890021292200AA
:10BEC00010C0B300804878003129220010C0B300B0
:10BED000804878004129220010C0B30080487800D3
:10BEE00040892000B0148900418920000020EF0023
:10BEF000805878008129220030C0B3008048780043
:10BF000040DB2A0031002000D0148900E1148900B0
:10BF1000912A220010C0B300804878000020EF0072
:10BF2000F0148900012A220010C0B3008048780074
:10BF3000112A22000020EF0080487800F0FF2F0037
:10BF400010158900C03026002015890080612C0062
:10BF500030158900C0712E0050158900812A2200F9
:10BF600010C0B300804878000020EF006015890001
:10BF70000020EF00701589004044230080158900DF
:10BF80000020EF00901589000020EF00F0108900DC
:10BF90000122220070C0B3008048780050002000C9
:10BFA00010118900C008200020118900D00720004E
:10BFB000301189003002200040118900A1222200A6
:10BFC0000020EF00804878000020EF006011890019
:10BFD000E122220010C0B30080487800F122220044
:10BFE00010C0B300804878000123220010C0B300C5
:10BFF00080487800608920009011890061892000C4
:10C000000020EF00805878004123220030C0B300A8
:10C010008048780040DB2A0031002000B011890000
:10C02000C11189005124220010C0B300804878005B
:10C030000020EF00D0118900C123220010C0B300FE
:10C0400080487800D12322000020EF00804878004B
:10C05000F0FF2F00F0118900C03026000012890087
:10C0600080612C0010128900C0712E0030128900EE
:10C070004124220010C0B300804878000020EF0067
:10C08000401289000020EF00501289002042230056
:10C09000601289000020EF00701289000020EF007C
:10C0A000801289002125220080C0B30080487800DA
:10C0B00050002000A0128900F00A2000B012890070
:10C0C000D0072000C012890030022000D012890061
:10C0D000C12522000020EF00804878000020EF00FA
:10C0E000F01289000126220010C0B30080487800B9
:10C0F0001126220010C0B3008048780021262200BB
:10C1000010C0B300804878002089200020138900E7
:10C11000218920000020EF0080587800612622004D
:10C1200030C0B3008048780040DB2A003100200096
:10C1300040138900511389007127220010C0B300F9
:10C14000804878000020EF0060138900E12622007B
:10C1500010C0B30080487800F12622000020EF00D4
:10C1600080487800F0FF2F0080138900C03026003F
:10C170009013890080612C00A0138900C0712E00EB
:10C18000C01389006127220010C0B30080487800E6
:10C190000020EF00D01389000020EF00E013890099
:10C1A000C0512300F01389000020EF000014890023
:10C1B0000020EF0030E9880081D22100C0C0B30028
:10C1C000804878001009200050E98800E00B20002A
:10C1D00060E98800A00A200070E988004001200082
:10C1E00080E9880021D321000020EF0080487800FA
:10C1F0000020EF00A0E9880061D3210010C0B30047
:10C200008048780071D3210010C0B30080487800C6
:10C21000A0882000C0E98800A188200000C3B300E6
:10C22000805878000020EF008058780040DB2A001A
:10C2300031002000D0E98800E1E988000020EF000B
:10C24000F0E9880001D4210010C0B30080487800D4
:10C2500011D421000020EF0080487800F04328002E
:10C2600010EA8800F001200020EA8800E0652A003A
:10C2700030EA880080612C0040EA88000020EF004E
:10C2800050EA88004006200060EA88000020EF00A5
:10C2900070EA880001D5210010C0B3008048780002
:10C2A00011D521000020EF008048780021D5210021
:10C2B00010C0B3008048780031D521000020EF0085
:10C2C0008048780041D5210040C0B3008048780004
:10C2D0000020EF00501B8900C1362200D0C0B300FF
:10C2E00080487800400B2000701B8900300D200032
:10C2F000801B890050052000901B8900C001200090
:10C30000A01B8900613722000020EF0080487800E0
:10C310000020EF00C01B8900A137220010C0B3002D
:10C3200080487800B137220010C0B3008048780000
:10C33000C137220010C0B300804878000089200077
:10C34000F01B89000189200030C3B30080587800B9
:10C350000020EF00805878000138220030C0B30080
:10C360008048780040262A0031002000101C8900F7
:10C37000211C89001139220010C0B30080487800C8
:10C380000020EF00301C89008138220010C0B3006B
:10C3900080487800913822000020EF008048780023
:10C3A000F0FF2F00501C8900C0302600601C89005F
:10C3B00080612C00701C8900C0712E00901C8900C7
:10C3C0000139220030C0B300804878000020EF001F
:10C3D000A01C89000020EF00B01C8900E0A623000B
:10C3E000C01C89000020EF00D01C89000020EF0055
:10C3F000C0188900A1312200E0C0B3008048780055
:10C4000080082000E01889000020EF00F018890063
:10C410008008200000198900200D200010198900D3
:10C420005132220010C0B30080487800413222000F
:10C4300030C0B300804878000041280030198900DE
:10C440000020EF0040198900A1322200F0C0B300A3
:10C4500080487800B0082000601989003002200070
:10C4600070198900B008200080198900500F200041
:10C47000901989005133220010C0B3008048780021
:10C480004133220030C0B3008048780080612C0026
:10C49000B01989000020EF00E01C8900E13922007A
:10C4A00000C1B30080487800C0122000001D890040
:10C4B000300D2000101D890040012000201D890042
:10C4C000C0012000301D8900813A22000020EF00C9
:10C4D000804878000020EF00501D8900C13A2200FA
:10C4E00010C0B30080487800D13A22000020EF004D
:10C4F00080487800E13A220010C0B30080487800FC
:10C50000A0842000801D8900A18420000020EF006D
:10C5100080587800213B220030C0B300804878006A
:10C5200040262A0031002000A01D8900B11D89008D
:10C53000313C220010C0B300804878000020EF009A
:10C54000C01D8900A13B220010C0B30080487800C4
:10C55000B13B22000020EF0080487800F0FF2F0060
:10C56000E01D8900C0302600F01D890080612C008C
:10C57000001E8900C0712E00201E8900213C22006F
:10C5800030C0B300804878000020EF00301E8900E2
:10C590000020EF00401E89000020EF00501E89009F
:10C5A0000020EF00601E89000020EF00C019890004
:10C5B000A133220010C1B300804878009010200001
:10C5C000E0198900300D2000F01989004002200098
:10C5D000001A8900C0012000101A8900413422008D
:10C5E0000020EF00804878000020EF00301A89001A
:10C5F0008134220010C0B3008048780091342200BA
:10C600000020EF0080487800A134220010C0B30061
:10C6100080487800C0842000601A8900C18420000E
:10C620000020EF0080587800E134220030C0B300D1
:10C630008048780040262A0031002000801A8900B6
:10C64000911A8900F135220010C0B30080487800AB
:10C650000020EF00A01A89006135220010C0B3004D
:10C6600080487800713522000020EF008048780073
:10C67000F0FF2F00C01A8900C0302600D01A8900B0
:10C6800080612C00E01A8900C0712E00001B890017
:10C69000E135220030C0B300804878000020EF0070
:10C6A000101B89000020EF00201B89000020EF00F4
:10C6B000301B89000020EF00401B89000020EF00A4
:10C6C000800889002111220030C1B3008048780021
:10C6D000B0092000A008890020032000B0088900CC
:10C6E000C0042000C0088900F0012000D0088900A3
:10C6F000C111220010C0B300804878000020EF0074
:10C70000F00889000112220010C0B30080487800B0
:10C710001112220010C0B3008048780021122200BC
:10C7200010C0B300804878003112220010C0B3005E
:10C73000804878002084200020098900218420007E
:10C7400060C4B30080587800F0C6B3008058780009
:10C7500020C7B3008058780070C7B30080587800B5
:10C7600010C6B3008058780020C7B3008058780006
:10C7700040C6B300805878000020EF008058780051
:10C780006112220020C0B3008048780040DB2A00FC
:10C7900031002000400989005109890081132200DD
:10C7A00010C0B300804878000020EF0060098900C5
:10C7B000E112220010C0B30080487800F11222007C
:10C7C0000020EF0080487800F0FF2F0080098900EA
:10C7D00080612C009009890080612C00A0098900EB
:10C7E000C0712E00D009890000412800B0098900DD
:10C7F0000020EF00E00989000020EF00F009890027
:10C80000E0532300000A89000020EF00100A89008D
:10C810000020EF00B0EA880081D5210040C1B300BC
:10C8200080487800B00E2000D0EA88002003200065
:10C83000E0EA8800B0042000F0EA8800F00120005F
:10C8400000EB880021D6210010C0B300804878009A
:10C850000020EF0020EB880061D6210010C0B3005B
:10C860008048780071D6210010C0B300804878005D
:10C8700081D621000020EF008048780091D6210069
:10C8800010C0B300804878004083200050EB88003F
:10C890004183200020C5B3008058780050C6B30003
:10C8A0008058780060C7B3008058780050C6B30045
:10C8B0008058780020C7B3008058780030C7B30094
:10C8C0008058780050C6B300805878000020EF00F0
:10C8D00080587800C1D6210020C0B300804878007D
:10C8E00040DB2A003100200070EB880081EB8800DB
:10C8F000E1D7210010C0B300804878000020EF008D
:10C9000090EB880041D7210010C0B3008048780028
:10C9100051D721000020EF0080487800F0FF2F0061
:10C92000B0EB880080612C00C0EB880080612C0097
:10C93000D0EB8800C0712E0000EC88000041280078
:10C94000E0EB88000020EF0010EC88000020EF00F2
:10C9500020EC8800A04C230030EC88000020EF0081
:10C9600040EC88001000200040078900A10E220042
:10C970000020EF0080487800400B2000600789000D
:10C98000A00020007007890070082000800789003F
:10C99000C003200090078900410F22000020EF0013
:10C9A000804878000020EF00B0078900810F220046
:10C9B00010C0B30080487800910F220010C0B3006F
:10C9C00080487800A10F220010C0B3008048780092
:10C9D000B10F220010C0B30080487800C10F2200C0
:10C9E0000020EF0080487800F0FF2F00F00789005A
:10C9F000C03026000008890080612C0010088900E2
:10CA00005110220010C0B30080487800C0712E0081
:10CA1000300889004110220010C0B300804878001F
:10CA20000020EF00400889000020EF005008890036
:10CA30000020EF00600889000020EF0070088900E6
:10CA40001000200080058900210B220010C0B300D7
:10CA500080487800400B2000A00589006004200079
:10CA6000B005890070082000C00589003002200050
:10CA7000D0058900C10B22000020EF00804878001B
:10CA80000020EF00F0058900010C220010C0B30067
:10CA900080487800110C220010C0B3008048780054
:10CAA000210C220010C0B30080487800310C220015
:10CAB00010C0B30080487800410C22000020EF0035
:10CAC00080487800F0FF2F0030068900C030260033
:10CAD0004006890080612C0050068900D10C22009C
:10CAE00010C0B30080487800C0712E007006890025
:10CAF000C10C220010C0B300804878000020EF0075
:10CB0000800689000020EF00900689000020EF00D9
:10CB1000A00689000020EF00B00689001000200068
:10CB2000500E8900C11C220030C0B300804878003C
:10CB3000000C2000700E890000052000800E890086
:10CB4000E0022000900E8900F0002000A00E890075
:10CB5000611D220010C0B300804878000020EF0063
:10CB6000C00E8900A11D220010C0B30080487800CB
:10CB7000B11D220010C0B30080487800C11D220002
:10CB80000020EF0080487800D11D220010C0B300C3
:10CB900080487800C0832000F00E8900C183200007
:10CBA00030C5B3008058780080C6B3008058780044
:10CBB000F0C6B3008058780020C7B30080587800D2
:10CBC00040C7B300805878000020EF0080587800FC
:10CBD000011E220020C0B3008048780040DB2A00FC
:10CBE00031002000100F8900210F8900211F220031
:10CBF00010C0B300804878000020EF00300F89009B
:10CC0000811E220010C0B30080487800911E2200CF
:10CC10000020EF0080487800F0FF2F00500F8900BF
:10CC200080612C00600F890080612C00700F8900EA
:10CC3000C0712E00A00F890000412800800F8900DC
:10CC40000020EF00B00F89000020EF00C00F890026
:10CC5000604F2300D00F89000020EF00E00F890013
:10CC600010002000100B89004116220040C0B300C4
:10CC70008048780000102000300B8900000520005B
:10CC8000400B8900C0022000500B890000012000E9
:10CC9000600B8900E116220010C0B30080487800C4
:10CCA0000020EF00800B89002117220010C0B30084
:10CCB000804878003117220010C0B3008048780007
:10CCC0004117220010C0B30080487800511722009D
:10CCD00010C0B3008048780070862000B00B890037
:10CCE00071862000C0C4B30080587800F0C6B3003D
:10CCF00080587800E0C6B3008058780070C6B30052
:10CD0000805878000020EF008058780081172200BA
:10CD100020C0B3008048780040DB2A0031002000AA
:10CD2000D00B8900E10B8900A118220010C0B300CC
:10CD3000804878000020EF00F00B890001182200E5
:10CD400010C0B30080487800111822000020EF00C6
:10CD500080487800F0FF2F00100C890080612C00C3
:10CD6000200C890080612C00300C8900C0712E00DD
:10CD7000600C890000412800400C89000020EF0071
:10CD8000700C89000020EF00800C8900003A23001D
:10CD9000900C89000020EF00A00C890010002000FA
:10CDA000200A89006114220050C0B3008048780036
:10CDB000700D2000400A890090012000500A89006F
:10CDC00040042000600A890000022000700A8900E7
:10CDD0008115220010C0B300804878009115220010
:10CDE00010C0B30080487800C0862000800A890007
:10CDF000C186200000C3B3008058780000C3B30090
:10CE00008058780000C3B3008058780000C3B30096
:10CE10008058780030C3B300805878000020EF00BD
:10CE20008058780040642B0031002000900A89006F
:10CE3000A10A89000020EF00B00A89000020EF005D
:10CE4000D00A89000020EF00E00A89000020EF00EE
:10CE5000F00A89000020EF00000B8900100020007C
:10CE6000C0068900A10D220080C0B3008048780070
:10CE7000F00A2000E00689000020EF00F00689009B
:10CE8000000B200000078900000F20001007890018
:10CE9000510E220010C0B30080487800410E2200DD
:10CEA00010C0B300804878000020EF0030078900F0
:10CEB00010002000F00F89000120220050C1B300B3
:10CEC00080487800E00B200010108900400120000D
:10CED000201089000013200030108900400120003C
:10CEE00040108900B120220010C0B30080487800B3
:10CEF000A120220020C0B3008048780080612C006F
:10CF000060108900100020007010890001212200AB
:10CF100060C1B30080487800E00B200090108900C9
:10CF200040012000A0108900E00B2000B010890013
:10CF3000B0032000C0108900B121220010C0B3004E
:10CF400080487800A121220020C0B30080487800EA
:10CF500080612C00E010890010002000B00C8900D6
:10CF60008119220080C1B30080487800E00B2000C6
:10CF7000D00C8900E0062000E00C8900A00320000E
:10CF8000F00C890000012000000D8900211A220008
:10CF900010C0B300804878000020EF00200D890009
:10CFA000611A220010C0B30080487800711A220074
:10CFB00010C0B30080487800811A22000020EF00E2
:10CFC00080487800911A220010C0B3008048780091
:10CFD000F0852000500D8900F185200010C3B300BA
:10CFE0008058780040C3B3008058780000C2B30076
:10CFF0008058780030C5B3008058780040C7B3002F
:10D000008058780050C6B3008058780000C7B3003D
:10D01000805878000020EF0080587800C11A220064
:10D0200020C0B3008048780040DB2A003100200097
:10D03000700D8900810D8900E11B220010C0B30032
:10D04000804878000020EF00900D8900411B2200ED
:10D0500010C0B30080487800511B22000020EF0070
:10D0600080487800F0FF2F00B00D890080612C000F
:10D07000C00D890080612C00D00D8900C0712E0088
:10D08000000E890000412800E00D89000020EF001B
:10D09000100E89000020EF00200E8900C02D230013
:10D0A000300E89000020EF00400E890010002000A3
:10D0B00040E38800A1C6210090C1B30080487800F9
:10D0C000E00B200060E388007008200070E3880017
:10D0D0000004200080E388000001200090E3880025
:10D0E00041C7210010C0B300804878000020EF0045
:10D0F000B0E3880081C7210010C0B30080487800E9
:10D1000091C7210010C0B30080487800A1C721005A
:10D110000020EF0080487800B1C7210010C0B300A4
:10D1200080487800E0842000E0E38800E18420006B
:10D1300010C3B3008058780020C3B3008058780033
:10D1400080C3B3008058780000C2B30080587800D4
:10D1500030C5B3008058780040C7B30080587800CD
:10D1600050C6B3008058780000C7B30080587800DC
:10D170000020EF0080587800E1C7210020C0B300F4
:10D180008048780040DB2A003100200000E488005D
:10D1900011E4880001C9210010C0B3008048780064
:10D1A0000020EF0020E4880061C8210010C0B30017
:10D1B0008048780071C821000020EF008048780086
:10D1C000F0FF2F0040E4880080612C0050E48800CC
:10D1D00080612C0060E48800C0712E0090E488001B
:10D1E0000041280070E488000020EF00A0E48800DF
:10D1F0000020EF00B0E48800C0302300C0E48800C5
:10D200000020EF00D0E488001000200050D78800F4
:10D21000C1AE2100A0C1B30080487800F00F20000B
:10D2200070D78800E006200080D78800A003200087
:10D2300090D7880000012000A0D7880061AF2100AE
:10D2400010C0B300804878000020EF00C0D78800ED
:10D25000A1AF210010C0B30080487800B1AF210019
:10D2600010C0B30080487800C1AF210010C0B300E7
:10D2700080487800D1AF210010C0B300804878000A
:10D2800070852000F0D788007185200020C3B3008E
:10D290008058780080C3B3008058780000C2B30083
:10D2A0008058780030C5B3008058780040C7B3007C
:10D2B0008058780050C6B3008058780000C7B3008B
:10D2C000805878000020EF008058780001B02100DD
:10D2D00020C0B3008048780040DB2A0031002000E5
:10D2E00010D8880021D8880021B1210010C0B300D7
:10D2F000804878000020EF0030D8880081B02100FD
:10D3000010C0B3008048780091B021000020EF00E9
:10D3100080487800F0FF2F0050D8880080612C00F2
:10D3200060D8880080612C0070D88800C0712E0001
:10D33000A0D888000041280080D888000020EF0095
:10D34000B0D888000020EF00C0D888002028230033
:10D35000D0D888000020EF00E0D88800200020000E
:10D36000C0D58800A1AB21000020EF0080487800E4
:10D3700070032000E0D5880060042000F0D588000C
:10D38000800C200000D688007003200010D6880092
:10D3900041AC21000020EF00804878000020EF0021
:10D3A00030D6880081AC210010C0B30080487800DE
:10D3B00091AC210010C0B30080487800A1AC2100DE
:10D3C00010C0B300804878008089200060D68800B3
:10D3D0008189200020C4B3008058780090C7B30032
:10D3E0008058780000C2B3008058780040C4B30071
:10D3F0008058780030C4B3008058780030C4B3003F
:10D400008058780000C2B3008058780010C4B30080
:10D410008058780040C6B3008058780040C6B300FA
:10D420008058780020C7B3008058780050C6B300F9
:10D430008058780030C7B3008058780030C7B300F8
:10D4400080587800E0C2B30080587800E0C2B30092
:10D4500080587800E0C2B300805878000020EF00C8
:10D4600080587800E1AC210030C0B30080487800DB
:10D4700040262A003100200080D6880091D68800FE
:10D48000F1AD210010C0B300804878000020EF000B
:10D49000A0D6880061AD210010C0B300804878009C
:10D4A00071AD21000020EF0080487800F0FF2F00D0
:10D4B000C0D68800C0302600D0D6880080612C00FD
:10D4C000E0D68800C0712E0000D78800E1AD2100B1
:10D4D00010C0B300804878000020EF0010D788000B
:10D4E0000020EF0020D78800202B230030D78800B1
:10D4F0000020EF0040D788002000200040D38800A3
:10D50000A1A6210010C0B30080487800700320005D
:10D5100060D38800D007200070D38800800C2000E2
:10D5200080D388007003200090D3880041A7210099
:10D530000020EF00804878000020EF00B0D3880082
:10D5400081A7210010C0B3008048780091A7210076
:10D5500010C0B30080487800A1A7210010C0B3001C
:10D5600080487800208E2000E0D38800218E2000A3
:10D5700020C4B3008058780090C7B300805878006A
:10D5800000C2B30080587800F0C4B300805878001F
:10D5900000C7B3008058780050C6B30080587800A8
:10D5A000E0C6B30080587800C0C4B300805878004B
:10D5B00030C4B3008058780020C4B300805878008D
:10D5C00000C2B30080587800C0C4B300805878000F
:10D5D00090C6B3008058780030C7B30080587800F8
:10D5E00040C7B30080587800E0C2B300805878008C
:10D5F000E0C2B30080587800E0C2B30080587800E1
:10D600000020EF0080587800E1A7210030C0B3006F
:10D610008048780040262A003100200000D488008D
:10D6200011D48800F1A8210010C0B3008048780010
:10D630000020EF0020D4880061A8210010C0B300B2
:10D640008048780071A821000020EF008048780011
:10D65000F0FF2F0040D48800C030260050D488004E
:10D6600080612C0060D48800C0712E0080D48800B6
:10D67000E1A8210010C0B300804878000020EF002E
:10D6800090D488000020EF00A0D488004038230008
:10D69000B0D488000020EF00C0D488002000200013
:10D6A000D0D48800C1A9210030C0B30080487800E0
:10D6B00000052000F0D488005000200000D588002C
:10D6C000B009200010D588005001200020D5880026
:10D6D000E1AA210010C0B30080487800F1AA21001F
:10D6E00010C0B30080487800508F200030D58800EB
:10D6F000518F200040C5B3008058780020C7B30088
:10D700008058780010C6B3008058780090C6B300E7
:10D7100080587800E0C6B3008058780000C2B3009B
:10D720008058780030C5B3008058780050C6B300E8
:10D7300080587800C0C6B3008058780050C6B30047
:10D740008058780030C6B3008058780040C7B300D6
:10D7500080587800F0C6B3008058780020C7B30026
:10D760008058780000C2B3008058780070C5B300BC
:10D770008058780090C6B30080587800A0C7B300E6
:10D780008058780010C6B3008058780020C7B300D6
:10D790008058780040C6B300805878000020EF0021
:10D7A0008058780040262A003100200040D58800AB
:10D7B00051D588000020EF0060D588000020EF00E0
:10D7C00080D588000020EF0090D588000020EF0071
:10D7D000A0D588000020EF00B0D5880020002000F0
:10D7E000F0D8880001B2210040C0B3008048780022
:10D7F0007003200010D98800300C200020D9880048
:10D80000800C200030D988007002200040D98800A8
:10D81000A1B221000020EF00804878000020EF0036
:10D8200060D98800E1B2210010C0B30080487800C0
:10D83000F1B2210010C0B3008048780001B321008C
:10D8400010C0B30080487800B08D200090D98800C7
:10D85000B18D200030C4B3008058780010C6B300EA
:10D8600080587800E0C6B3008058780030C6B30016
:10D870008058780050C6B30080587800C0C6B30006
:10D88000805878000020EF008058780041B32100D4
:10D8900030C0B3008048780040262A0031002000C4
:10D8A000B0D98800C1D9880041B4210010C0B300AC
:10D8B000804878000020EF00D0D98800C1B3210053
:10D8C00010C0B30080487800D1B321000020EF00E1
:10D8D00080487800F0FF2F00F0D98800C030260083
:10D8E00000DA880080612C0010DA8800C0712E00F8
:10D8F00030DA88000020EF0040DA88000020EF00D6
:10D9000050DA88002039230060DA88000020EF0018
:10D9100070DA88002000200030DF880081BE2100FE
:10D9200050C0B300804878004001200050DF8800DC
:10D930008002200060DF88008012200070DF8800F5
:10D940005001200080DF8800A1BF210010C0B3007B
:10D9500080487800B1BF210010C0B3008048780033
:10D96000008B200090DF8800018B200080C4B30072
:10D9700080587800F0C6B3008058780070C7B300B4
:10D980008058780000C2B3008058780070C7B30098
:10D9900080587800F0C6B3008058780050C7B300B4
:10D9A00080587800C0C6B3008058780040C6B300E5
:10D9B0008058780000C2B3008058780090C7B30048
:10D9C00080587800F0C6B3008058780050C7B30084
:10D9D0008058780000C2B30080587800C0C6B300F9
:10D9E0008058780090C6B30080587800B0C6B30065
:10D9F0008058780050C6B3008058780000C2B30049
:10DA00008058780040C7B30080587800F0C6B30053
:10DA10008058780000C2B3008058780030C7B30047
:10DA20008058780050C6B30080587800C0C6B30054
:10DA30008058780050C6B3008058780030C6B300D4
:10DA40008058780040C7B3008058780000C2B30007
:10DA50008058780090C7B30080587800F0C6B300B3
:10DA60008058780050C7B3008058780020C7B300B2
:10DA70008058780000C2B3008058780040C5B300D9
:10DA80008058780020C7B3008058780010C6B300D3
:10DA90008058780090C6B30080587800E0C6B30084
:10DAA00080587800F0C3B300805878000020EF0061
:10DAB0008058780040262A0031002000A0DF88002E
:10DAC000B1DF88000020EF00C0DF88000020EF00F9
:10DAD000E0DF88000020EF00F0DF88000020EF008A
:10DAE00000E088000020EF0010E0880030002000F7
:10DAF00020E0880061C021000020EF00804878000D
:10DB00000020EF0040E088001000200050E0880076
:10DB10000014200060E088003002200070E08800DF
:10DB200001C121000020EF00804878000020EF00B4
:10DB300090E0880041C1210010C0B3008048780007
:10DB400051C1210010C0B3008048780061C121009C
:10DB500010C0B30080487800908D2000C0E088009D
:10DB6000918D20000020EF0080587800A1C1210095
:10DB700030C0B3008048780040DB2A00310020002C
:10DB8000E0E08800F1E08800B1C2210010C0B300DD
:10DB9000804878000020EF0000E1880021C22100C9
:10DBA00010C0B3008048780031C221000020EF008F
:10DBB00080487800F0FF2F0020E18800C030260068
:10DBC00030E1880080612C0040E18800C0712E00A7
:10DBD00060E18800A1C2210010C0B3008048780035
:10DBE0000020EF0070E188000020EF0080E1880055
:10DBF0000020EF0090E188000020EF00A0E1880005
:10DC000030002000A0DD880061BB210010C0B300FF
:10DC1000804878000020EF00C0DD8800300220003E
:10DC2000D0DD880000142000E0DD880030022000F4
:10DC3000F0DD880001BC21000020EF008048780062
:10DC40000020EF0010DE880041BC210010C0B300AE
:10DC50008048780051BC210010C0B3008048780093
:10DC600061BC210010C0B3008048780010912000F2
:10DC700040DE8800119120000020EF0080587800DD
:10DC8000A1BC210030C0B3008048780040DB2A00EE
:10DC90003100200060DE880071DE8800B1BD210007
:10DCA00010C0B300804878000020EF0080DE8800BC
:10DCB00021BD210010C0B3008048780031BD210093
:10DCC0000020EF0080487800F0FF2F00A0DE8800E1
:10DCD000C0302600B0DE880080612C00C0DE8800E5
:10DCE000C0712E00E0DE8800A1BD210010C0B3008D
:10DCF000804878000020EF00F0DE88000020EF0070
:10DD000000DF88000020EF0010DF88000020EF0017
:10DD100020DF88003000200080DA880021B5210053
:10DD200020C0B300804878000020EF00A0DA88000F
:10DD300070042000B0DA880000142000C0DA8800E7
:10DD400030022000D0DA8800C1B521000020EF00A9
:10DD5000804878000020EF00F0DA880001B621004A
:10DD600010C0B3008048780011B6210010C0B30085
:10DD70008048780021B6210010C0B30080487800A8
:10DD80003091200020DB8800319120000020EF003E
:10DD90008058780061B6210030C0B3008048780018
:10DDA00040DB2A003100200040DB880051DB880086
