:10000000488B040000000000000000000000000019
:1000100000000000000000000000000000000000E0
:1000200000000000000000000000000000000000D0
:1000300000000000E68A0000000000000000000050
:1000400000000000268B00000000000000000000FF
:1000500000000000000000000000000000000000A0
:100060000000000000000000000000000000000090
:100070000000000000000000000000000000000080
:100080000000000000000000000000000000000070
:100090000000000000000000000000000000000060
:1000A0000000000000000000000000000000000050
:1000B00000000000E28900000000000000000000D5
:1000C0000000000000000000000000000000000030
:1000D0000000000000000000000000000000000020
:1000E0000000000000000000000000000000000010
:1000F0000000000000000000000000000000000000
:020000040001F9
:101690006FDC2100F0FF270020A0B70020202000F1
:1016A00032A0B700400020004420B7008A1F780015
:1016B000108EA90010AEA90010CEA90010EEA9004E
:1016C000D5FE0700C8FE070007FF07007FFE0700E2
:1016D00098FE0700304EA900344EA800C0FC070059
:1016E00016FC070072FD0700B3FE0700E4FE0700CA
:1016F000FAFF2F00E7F9070068012000C7CC25009A
:101700000E20ED00FEFF3A001020ED00FCFF3A0035
:101710000000000000000000CDF6070092FC07006A
:0C172000FEFF37004F057800FFFF370088
:101218008A1F78008B1F78008C1F78008D1F78003C
:10122800102EA9000DC1B300ACA22100EBAA210029
:10123800EAB0210000012000801F78006BF307004E
:101248002F00B1001A20EF001820EF001620EF0041
:10125800AAA821000020EF00801F780063F3070090
:101268002F00B100CF0678004F067800CF05780030
:081278004F057800000006009C
:020000040000FA
:10DFF4000000FA000EFA970097F407000B0D780062
:10E00400E20045000020EF008048780063004500EE
:10E014000D487800E40045000020EF0080487800B7
:10E02400E50045000020EF0080487800E600450048
:10E034000020EF0080487800E80045000020EF0051
:10E04400800878000A20EF00630045001080FB0080
:10E05400E10150000328E1000C003C001A007800A4
:10E0640000017800600020000500B80000004100B5
:10E07400E50040000020EF00804878000328E1001C
:10E08400020032000A20EC00EFFF37006A0045006E
:10E094000C0878006A004500E20040000020EF0010
:10E0A400804878006A004500630040000448780016
:10E0B4006A004500E40040000020EF00804878003A
:10E0C4006A004500E50040000020EF008048780029
:10E0D4006A004500E60040000020EF008048780018
:10E0E4006A004500E80040000020EF008008780046
:10E0F4000820EF006A004500630040001080FB0028
:10E10400E10150000320E1000D003C006A004500DD
:10E114001000780000017800600020000400B800BE
:10E1240000004100E50040000020EF008048780036
:10E134000320E100020032000820EC00EDFF37006C
:08E144000080FA000000060053
:10B25C00FB0045000020EF0080487800FD00450011
:10B26C0070C0B30080487800FE0045000020EF005D
:10B27C0080487800FA0045000020EF0080487800F4
:10B28C0030022000800045000020EF00804878004C
:10B29C002002200080004500F0CFB30080487800E9
:04B2AC000000060098
:020000040001F9
:1011E8004004200046A7B7004427EF004207AF009D
:1011F800FEFF37000E2EEF001E2EEF002E2EEF0002
:101208003E2EEF004E2EEF006E2EEF00000006007F
:00121800D6
:1012E8008A1F78008B1F78008C1F78008D1F78006C
:1012F800FCC1B3001620EF008AC6B3008DF20700C8
:101308003CC3B3001BC0B3002AC6B30089F2070070
:101318000CC2B3001620EF00FAC4B30085F2070030
:101328001D0020000C0120001620EF000A022000FA
:101338000020EF00801F780000042000801F780044
:1013480000202000801F78000020EF00801F780018
:101358007BF007008F00B10068012000C7CC250092
:101368000E20ED00FEFF3A001020ED00FCFF3A00D1
:10137800000000000000000088F00700F5F10700F9
:1013880068012000C7CC25000E20ED00FEFF3A00C2
:101398001020ED00FCFF3A000000000000000000F3
:1013A800CF0678004F067800CF0578004F05780003
:0413B800000006002B
:020000040000FA
:10DD3C000000FA008D1F78001D00200086F50700FA
:10DD4C008000780001007800CF0678000080FA008F
:04DD5C0000000600BD
:10B364000200FA00F00F200000079800605CE10082
:10B37400BC003A006168E10001003A0056EB0700A6
:10B3840000C4B3000054E10003003A000068200048
:10B394000C487800B000370010C4B3000054E1003A
:10B3A40003003A00106820000C487800AA00370017
:10B3B40020C4B3000054E10003003A0020682000D8
:10B3C4000C487800A400370030C4B3000054E100F6
:10B3D40003003A00306820000C4878009E003700D3
:10B3E40040C4B3000054E10003003A004068200068
:10B3F4000C4878009800370050C4B3000054E100B2
:10B4040003003A00506820000C487800920037008E
:10B4140060C4B3000054E10003003A0060682000F7
:10B424000C4878008C00370070C4B3000054E1006D
:10B4340003003A00706820000C487800860037004A
:10B44400F0C4B3000054E10003003A008068200017
:10B454000C4878008000370000C5B3000054E100B8
:10B4640003003A00906820000C4878007A00370006
:10B4740020C5B3000054E10003003A00A068200096
:10B484000C4878007400370040C5B3000054E10054
:10B4940003003A00B06820000C4878006E003700C2
:10B4A40050C5B3000054E10003003A00C068200016
:10B4B4000C4878006800370070C5B3000054E10000
:10B4C40003003A00D06820000C487800620037007E
:10B4D40000C6B3000054E10003003A00E068200015
:10B4E4000C4878005C00370010C6B3000054E1003B
:10B4F40003003A00F06820000C487800560037003A
:10B5040020C6B3000054E10003003A0000692000A3
:10B514000C4878005000370030C6B3000054E100F6
:10B5240003003A00106920000C4878004A003700F4
:10B5340040C6B3000054E10003003A002069200033
:10B544000C4878004400370050C6B3000054E100B2
:10B5540003003A00306920000C4878003E003700B0
:10B5640080C6B3000054E10003003A006069200083
:10B574000C48780038003700C0C6B3000054E1001E
:10B5840003003A00706920000C487800320037004C
:10B59400D0C6B3000054E10003003A0080692000E3
:10B5A4000C4878002C00370000C7B3000054E100B9
:10B5B40003003A00906920000C4878002600370008
:10B5C40010C7B3000054E10003003A00A069200052
:10B5D4000C4878002000370060C7B3000054E10035
:10B5E40003003A00B06920000C4878001A003700C4
:10B5F40080C7B3000054E10003003A00C069200092
:10B604000C48780014003700D0C7B3000054E100A0
:10B6140003003A00D06920000C4878000E0037007F
:10B62400E0C7B3000054E10003003A00E0692000E1
:10B634000C48780008003700F0C7B3000054E1005C
:10B6440003003A00F06920000C487800020037003B
:10B654000020EF00000798006168E10001003A0053
:10B66400A6EA0700615CE100BC013A006168E10000
:10B6740001003A0098EA07006064E10003003A0020
:10B68400106A20000A487800B10137006164E100C3
:10B6940003003A00206A20000A487800AC01370011
:10B6A4006264E10003003A00306A20000A4878002E
:10B6B400A70137006364E10003003A00406A2000F8
:10B6C4000A487800A20137006464E10003003A00EC
:10B6D400606A20000A4878009D0137006564E10033
:10B6E40003003A00706A20000A4878009801370085
:10B6F4006664E10003003A00806A20000A4878008A
:10B70400930137006764E10003003A00906A200067
:10B714000A4878008E0137006864E10003003A00AB
:10B72400A06A20000A487800890137006964E100B2
:10B7340003003A00B06A20000A4878008401370008
:10B744006A64E10003003A00C06A20000A487800F5
:10B754007F0137006B64E10003003A00D06A2000E7
:10B764000A4878007A0137006C64E10003003A006B
:10B77400E06A20000A487800750137006D64E10032
:10B7840003003A00F06A20000A487800700137008C
:10B794006E64E10003003A00006B20000A48780060
:10B7A4006B0137006F64E10003003A00106B200066
:10B7B4000A487800660137007064E10003003A002B
:10B7C400206B20000A487800610137007164E100B1
:10B7D40003003A00306B20000A4878005C0137000F
:10B7E4007264E10003003A00406B20000A487800CC
:10B7F400570137007364E10003003A00506B2000E6
:10B804000A487800520137007464E10003003A00EA
:10B81400606B20000A4878004D0137007564E10030
:10B8240003003A00706B20000A4878004801370092
:10B834007664E10003003A00806B20000A48780037
:10B84400430137007764E10003003A00906B200065
:10B854000A4878003E0137007864E10003003A00AA
:10B86400A06B20000A487800390137007964E100B0
:10B8740003003A00B06B20000A4878003401370016
:10B884007A64E10003003A00C06B20000A487800A3
:10B894002F0137007B64E10003003A00D06B2000E5
:10B8A4000A4878002A0137007C64E10003003A006A
:10B8B400E06B20000A487800250137007D64E10030
:10B8C40003003A00F06B20000A487800200137009A
:10B8D4007E64E10003003A00006C20000A4878000E
:10B8E4001B0137007F64E10003003A00106C200064
:10B8F4000A4878001601370000C2B3000064E10072
:10B9040003003A00206C20000A4878001001370038
:10B9140010C2B3000064E10003003A00306C200060
:10B924000A4878000A01370020C2B3000064E1002D
:10B9340003003A00406C20000A48780004013700F4
:10B9440030C2B3000064E10003003A00506C2000F0
:10B954000A487800FE00370040C2B3000064E100EA
:10B9640003003A00606C20000A487800F8003700B1
:10B9740050C2B3000064E10003003A00706C200080
:10B984000A487800F200370060C2B3000064E100A6
:10B9940003003A00806C20000A487800EC0037006D
:10B9A40070C2B3000064E10003003A00906C200010
:10B9B4000A487800E600370080C2B3000064E10062
:10B9C40003003A00A06C20000A487800E000370029
:10B9D40090C2B3000064E10003003A00E06C200070
:10B9E4000A487800DA003700A0C2B3000064E1001E
:10B9F40003003A00006D20000A487800D4003700A4
:10BA0400B0C2B3000064E10003003A00106D2000EE
:10BA14000A487800CE003700C0C2B3000064E100D9
:10BA240003003A00206D20000A487800C80037005F
:10BA3400D0C2B3000064E10003003A00406D20006E
:10BA44000A487800C2003700E0C2B3000064E10095
:10BA540003003A00506D20000A487800BC0037000B
:10BA6400F0C2B3000064E10003003A00606D2000FE
:10BA74000A487800B600370000C3B3000064E10050
:10BA840003003A00706D20000A487800B0003700C7
:10BA940010C3B3000064E10003003A00806D20008D
:10BAA4000A487800AA00370020C3B3000064E1000C
:10BAB40003003A00906D20000A487800A400370083
:10BAC40030C3B3000064E10003003A00A06D20001D
:10BAD4000A4878009E00370040C3B3000064E100C8
:10BAE40003003A00B06D20000A487800980037003F
:10BAF40050C3B3000064E10003003A00C06D2000AD
:10BB04000A4878009200370060C3B3000064E10083
:10BB140003003A00E06D20000A4878008C003700EA
:10BB240070C3B3000064E10003003A00F06D20002C
:10BB34000A4878008600370080C3B3000064E1003F
:10BB440003003A00006E20000A48780080003700A5
:10BB540090C3B3000064E10003003A00206E2000AB
:10BB64000A4878007A003700A0C3B3000064E100FB
:10BB740003003A00306E20000A4878007400370051
:10BB8400B0C3B3000064E10003003A00406E20003B
:10BB94000A4878006E003700C0C3B3000064E100B7
:10BBA40003003A00506E20000A487800680037000D
:10BBB400D0C3B3000064E10003003A00606E2000CB
:10BBC4000A48780062003700E0C3B3000064E10073
:10BBD40003003A00706E20000A4878005C003700C9
:10BBE400F0C3B3000064E10003003A00806E20005B
:10BBF4000A4878005600370000C4B3000064E1002E
:10BC040003003A00906E20000A4878005000370084
:10BC140010C4B3000064E10003003A00A06E2000E9
:10BC24000A4878004A00370020C4B3000064E100E9
:10BC340003003A00406F20000A48780044003700AF
:10BC440030C4B3000064E10003003A00506F2000E8
:10BC54000A4878003E00370040C4B3000064E100A5
:10BC640003003A00606F20000A487800380037006B
:10BC740050C4B3000064E10003003A00D06E200019
:10BC84000A4878003200370060C4B3000064E10061
:10BC940003003A00E06E20000A4878002C003700C8
:10BCA40070C4B3000064E10003003A00F06E2000A9
:10BCB4000A4878002600370080C4B3000064E1001D
:10BCC40003003A00006F20000A4878002000370083
:10BCD40090C4B3000064E10003003A00106F200038
:10BCE4000A4878001A003700A0C4B3000064E100D9
:10BCF40003003A00206F20000A487800140037003F
:10BD0400B0C4B3000064E10003003A00306F2000C7
:10BD14000A4878000E003700C0C4B3000064E10094
:10BD240003003A00B06E20000A487800080037008B
:10BD3400D0C4B3000064E10003003A00C06E2000E8
:10BD44000A487800020037000020EF00000798003E
:10BD54006168E10001003A00E8E807007054E1007E
:10BD640005003A001600AE00000EA9001600AF0050
:10BD7400000EA800590237007154E10005003A0092
:10BD84001600AE00002EA9001600AF00002EA80079
:10BD9400520237007254E10005003A001600AE006A
:10BDA400004EA9001600AF00004EA8004B02370059
:10BDB4007354E10005003A001600AE00006EA900BD
:10BDC4001600AF00006EA800440237007454E1006E
:10BDD40005003A001600AE00008EA9001600AF0060
:10BDE400008EA8003D0237007554E10005003A00BA
:10BDF4001600AE0000AEA9001600AF0000AEA80009
:10BE0400360237007654E10005003A001600AE0011
:10BE140000CEA9001600AF0000CEA8002F02370004
:10BE24007754E10005003A001600AE0000EEA900C8
:10BE34001600AF0000EEA800280237007E54E1008F
:10BE440005003A001600AE0001CEA9001600AF00AE
:10BE540001CEA800210237007F54E10005003A001A
:10BE64001600AE0001EEA9001600AF0001EEA80016
:10BE74001A023700F0C2B3000054E10005003A0092
:10BE84001600AE0011EEA9001600AF0011EEA800D6
:10BE940012023700E0C2B3000054E10005003A008A
:10BEA4001600AE0011CEA9001600AF0011CEA800F6
:10BEB4000A023700D0C2B3000054E10005003A0082
:10BEC4001600AE0011AEA9001600AF0011AEA80016
:10BED40002023700C0C2B3000054E10005003A007A
:10BEE4001600AE00118EA9001600AF00118EA80036
:10BEF400FA013700B0C2B3000054E10005003A0073
:10BF04001600AE00116EA9001600AF00116EA80055
:10BF1400F2013700A0C2B3000054E10005003A006A
:10BF24001600AE00114EA9001600AF00114EA80075
:10BF3400EA01370090C2B3000054E10005003A0062
:10BF44001600AE00112EA9001600AF00112EA80095
:10BF5400E201370080C2B3000054E10005003A005A
:10BF64001600AE00110EA9001600AF00110EA800B5
:10BF7400DA01370070C2B3000054E10005003A0052
:10BF84001600AE0010EEA9001600AF0010EEA800D7
:10BF9400D201370060C2B3000054E10005003A004A
:10BFA4001600AE0010CEA9001600AF0010CEA800F7
:10BFB400CA01370050C2B3000054E10005003A0042
:10BFC4001600AE0010AEA9001600AF0010AEA80017
:10BFD400C201370040C2B3000054E10005003A003A
:10BFE4001600AE00108EA9001600AF00108EA80037
:10BFF400BA01370030C2B3000054E10005003A0032
:10C004001600AE00106EA9001600AF00106EA80056
:10C01400B201370020C2B3000054E10005003A0029
:10C024001600AE00104EA9001600AF00104EA80076
:10C03400AA01370010C2B3000054E10005003A0021
:10C044001600AE00102EA9001600AF00102EA80096
:10C05400A201370000C2B3000054E10005003A0019
:10C064001600AE00100EA9001600AF00100EA800B6
:10C074009A01370010C3B3000054E10005003A00F0
:10C084001600AE00202EA9001600AF00202EA80036
:10C094009201370020C3B3000054E10005003A00C8
:10C0A4001600AE00204EA9001600AF00204EA800D6
:10C0B4008A01370030C3B3000054E10005003A00A0
:10C0C4001600AE00206EA9001600AF00206EA80076
:10C0D4008201370040C3B3000054E10005003A0078
:10C0E4001600AE00208EA9001600AF00208EA80016
:10C0F4007A013700E0C3B3000054E10005003A00C0
:10C104001600AE0021CEA9001600AF0021CEA80073
:10C1140072013700D0C3B3000054E10005003A00B7
:10C124001600AE0021AEA9001600AF0021AEA80093
:10C134006A013700C0C3B3000054E10005003A00AF
:10C144001600AE00218EA9001600AF00218EA800B3
:10C1540062013700F0C4B3000054E10005003A0066
:10C164001600AE0031EEA9001600AF0031EEA800B3
:10C174005A013700E0C4B3000054E10005003A005E
:10C184001600AE0031CEA9001600AF0031CEA800D3
:10C1940052013700D0C4B3000054E10005003A0056
:10C1A4001600AE0031AEA9001600AF0031AEA800F3
:10C1B4004A013700C0C4B3000054E10005003A004E
:10C1C4001600AE00318EA9001600AF00318EA80013
:10C1D40042013700B0C4B3000054E10005003A0046
:10C1E4001600AE00316EA9001600AF00316EA80033
:10C1F4003A013700A0C4B3000054E10005003A003E
:10C204001600AE00314EA9001600AF00314EA80052
:10C214003201370090C4B3000054E10005003A0035
:10C224001600AE00312EA9001600AF00312EA80072
:10C234002A01370080C4B3000054E10005003A002D
:10C244001600AE00310EA9001600AF00310EA80092
:10C254002201370070C4B3000054E10005003A0025
:10C264001600AE0030EEA9001600AF0030EEA800B4
:10C274001A01370060C4B3000054E10005003A001D
:10C284001600AE0030CEA9001600AF0030CEA800D4
:10C294001201370050C4B3000054E10005003A0015
:10C2A4001600AE0030AEA9001600AF0030AEA800F4
:10C2B4000A01370040C4B3000054E10005003A000D
:10C2C4001600AE00308EA9001600AF00308EA80014
:10C2D4000201370030C4B3000054E10005003A0005
:10C2E4001600AE00306EA9001600AF00306EA80034
:10C2F400FA00370020C4B3000054E10005003A00FE
:10C304001600AE00304EA9001600AF00304EA80053
:10C31400F200370010C4B3000054E10005003A00F5
:10C324001600AE00302EA9001600AF00302EA80073
:10C33400EA00370000C4B3000054E10005003A00ED
:10C344001600AE00300EA9001600AF00300EA80093
:10C35400E200370090C5B3000054E10005003A0044
:10C364001600AE00412EA9001600AF00412EA80011
:10C37400DA00370080C5B3000054E10005003A003C
:10C384001600AE00410EA9001600AF00410EA80031
:10C39400D200370060C5B3000054E10005003A0044
:10C3A4001600AE0040CEA9001600AF0040CEA80093
:10C3B400CA00370050C5B3000054E10005003A003C
:10C3C4001600AE0040AEA9001600AF0040AEA800B3
:10C3D400C200370040C5B3000054E10005003A0034
:10C3E4001600AE00408EA9001600AF00408EA800D3
:10C3F400BA00370030C5B3000054E10005003A002C
:10C404001600AE00406EA9001600AF00406EA800F2
:10C41400B200370020C5B3000054E10005003A0023
:10C424001600AE00404EA9001600AF00404EA80012
:10C43400AA00370010C5B3000054E10005003A001B
:10C444001600AE00402EA9001600AF00402EA80032
:10C45400A200370000C5B3000054E10005003A0013
:10C464001600AE00400EA9001600AF00400EA80052
:10C474009A003700D0C6B3000054E10005003A002A
:10C484001600AE0051AEA9001600AF0051AEA800D0
:10C4940092003700C0C6B3000054E10005003A0022
:10C4A4001600AE00518EA9001600AF00518EA800F0
:10C4B4008A00370080C6B3000054E10005003A004A
:10C4C4001600AE00510EA9001600AF00510EA800D0
:10C4D4008200370050C6B3000054E10005003A0062
:10C4E4001600AE0050AEA9001600AF0050AEA80072
:10C4F4007A00370040C6B3000054E10005003A005A
:10C504001600AE00508EA9001600AF00508EA80091
:10C514007200370030C6B3000054E10005003A0051
:10C524001600AE00506EA9001600AF00506EA800B1
:10C534006A00370020C6B3000054E10005003A0049
:10C544001600AE00504EA9001600AF00504EA800D1
:10C554006200370010C6B3000054E10005003A0041
:10C564001600AE00502EA9001600AF00502EA800F1
:10C574005A00370000C6B3000054E10005003A0039
:10C584001600AE00500EA9001600AF00500EA80011
:10C594005200370000C7B3000054E10005003A0020
:10C5A4001600AE00600EA9001600AF00600EA800D1
:10C5B4004A00370010C7B3000054E10005003A00F8
:10C5C4001600AE00602EA9001600AF00602EA80071
:10C5D4004200370060C7B3000054E10005003A0090
:10C5E4001600AE0060CEA9001600AF0060CEA80011
:10C5F4003A00370070C7B3000054E10005003A0068
:10C604001600AE0060EEA9001600AF0060EEA800B0
:10C614003200370080C7B3000054E10005003A003F
:10C624001600AE00610EA9001600AF00610EA8004E
:10C634002A00370090C7B3000054E10005003A0017
:10C644001600AE00612EA9001600AF00612EA800EE
:10C6540022003700C0C7B3000054E10005003A00CF
:10C664001600AE00618EA9001600AF00618EA8000E
:10C674001A003700D0C7B3000054E10005003A00A7
:10C684001600AE0061AEA9001600AF0061AEA800AE
:10C6940012003700E0C7B3000054E10005003A007F
:10C6A4001600AE0061CEA9001600AF0061CEA8004E
:10C6B4000A003700F0C7B3000054E10005003A0057
:10C6C4001600AE0061EEA9001600AF0061EEA800EE
:10C6D400020037000020EF00000798000E009000D1
:08C6E4000080FA0000000600CE
:1060DC000000FA00217420006204200073052000E7
:1060EC00824878008348780042C7A9000080FA00F3
:0460FC00000006009A
:106100000000FA00217420006204200073052000C2
:10611000824878008348780042C7A8000080FA00CF
:046120000000060075
:10D548000000FA00CEB897003EBA97002EB99700AF
:10D558009EB99700A022EF00A222EF00A0032300AB
:10D568002081880080872600908288000B00750043
:10D578000C0070000D0070000100700004007000C5
:10D5880082007000202A200003887000A0C2A90031
:0CD59800A1E2A8000080FA0000000600DC
:0CD5A40035CEA80031CEA9000000060022
:10DB5C008A1F780035CEA9006A00200090828000D0
:10DB6C000000010035CEA8004F057800000006002B
:00DB7C00A9
:10D27C000000FA00EFE307000080FA00000006004F
:00D28C00A2
:106240000000FA0040C2A9004082BF006200600066
:106250006100E10002003A0000000000FAFF370090
:106260004A1288004082BF00610060006000E100C7
:1062700002003A0000000000FAFF370041128000DF
:0C628000010078000080FA000000060019
:10D26C000000FA000DE407000080FA000000060040
:00D27C00B2
:1062A8000000FA0060C2A9006082BF0062006000BE
:1062B8006100E10002003A0000000000FAFF370028
:1062C8004A1388006082BF00610060006000E1003E
:1062D80002003A0000000000FAFF37004113800076
:0C62E800010078000080FA0000000600B1
:10D0F0000000FA00DFE307000080FA0000000600ED
:00D100002F
:106074000000FA00A0C2A900A082BF006200600074
:106084006100E10002003A0000000000FAFF37005E
:106094004A158800A082BF00610060006000E10032
:1060A40002003A0000000000FAFF370041158000AA
:0C60B400010078000080FA0000000600E7
:10CF1C000000FA0011118000001020000080600059
:10CF2C006000E10002003A0000000000F9FF370049
:0CCF3C002A1188000080FA0000000600A6
:10CEC8000000FA009111800000102000008060002E
:10CED8006000E10002003A0000000000F9FF37009E
:0CCEE800AA1188000080FA00000006007B
:10CF48000000FA00911280000010200000806000AC
:10CF58006000E10002003A0000000000F9FF37001D
:0CCF6800AA1288000080FA0000000600F9
:10D0C4000000FA009115800000102000008060002C
:10D0D4006000E10002003A0000000000F9FF3700A0
:0CD0E400AA1588000080FA000000060079
:10B15400352EA800400120000020EC00904078002B
:10B1640040E420000148780080EA070040E4200021
:0CB174000A4878007DEA07000000060091
:105B7000348EA90000000000348EA800000006004A
:005B800025
:1093EC00352EA80040E420000A087800DDF10700C3
:0493FC000000060067
:109400008A1F78004B50DE00804078000180FB000E
:109410004300DD00804078000180FB004700DE0053
:109420006104E10002003A0067C04000010037001B
:10943000014078008A1F78000045780039F1070064
:109440004F0578004550DE00804078000180FB0029
:109450004200DD00804078000180FB004700DE0014
:109460006104E10002003A0063C0400001003700DF
:10947000014078008A1F78000045780029F1070034
:109480004F0578004350DD00804078000180FB00EC
:109490004700DE006104E10002003A0067C04000BE
:1094A0000100370001407800004578001DF10700F9
:0894B0004F05780000000600E2
:10592400354EA90034AEA800352EA80040E420006E
:105934000A487800348EA900348EA800354EA80099
:0C59440006F9070005F907000000060046
:103D6000E70020000E20ED00FEFF3A0000000000FA
:083D7000000000000000060045
:020000040001F9
:1010CC008A1F78008B1F78008C1F78002CC2B3000D
:1010DC001BC0B3004AC6B30015F307001CC0B30015
:1010EC001620EF005AC6B30011F307000A4028007F
:1010FC003B0020009EF2070068012000C7CC2500B1
:10110C000E20ED00FEFF3A001020ED00FCFF3A002F
:10111C0000000000000000004F067800CF057800AA
:08112C004F05780000000600E9
:020000040000FA
:10DB7C000C00FA00E078260000808800F0FF2F00EF
:10DB8C0010808800F0FF2F0030808800F0FF2F00FD
:10DB9C00408088002022EF000000280022A2B7005D
:10DBAC002062A900FDED0700823E2000030020004A
:10DBBC0089EE070000079800110798005400200018
:10DBCC000A01BE000402E900030035000201D00086
:10DBDC008381D200FBFF370022079800330798009F
:10DBEC008A9FBE000082EB0084EE0700400798007D
:10DBFC00510798002E019000BE0190000E0090007D
:10DC0C009E0090000082EB004AEE07004F05BE001C
:10DC1C00000798001107980064004700B0007800D6
:10DC2C00200178000201D1008180D30068004700F8
:10DC3C003008E1002090E10005003D008E009000CE
:10DC4C001E01900060004700619840006010490080
:10DC5C000E0090009E0090006000E1006088E100E2
:10DC6C002A003A00CDED0700823E20000300200080
:10DC7C0059EE0700000798001107980034002000A7
:10DC8C000A01BE000402E900030035000201D000C5
:10DC9C008381D200FBFF37002207980033079800DE
:10DCAC000082EB0055EE07004007980051079800E2
:10DCBC002E019000BE0190000E0090009E0090007E
:10DCCC000082EB001BEE070000079800110798007C
:10DCDC0064004700B0007800200178000201D100F8
:10DCEC008180D300680047003008E1002090E100FB
:10DCFC0005003D008E0090001E0190006000470062
:10DD0C0061984000601049002062A8008E009000CD
:10DD1C0080222000618850002222A90021E2A80064
:10DD2C002342A800A1ED07000080FA0000000600C5
:00DD3C00E7
:1093A800022E2200230020000200BE00000006005A
:0093B800B5
:1093B80038002000172E22000E20ED00FEFF3A0094
:0C93C8001020ED00FCFF3A000000060041
:1095E4000000FA00020AB800500088000200B80027
:1095F40081004200032AB800810042000080FA0082
:04960400000006005C
:109608000000FA0002000700584B040000000000A8
:109618000800E20002003A001000070000000600FF
:10962800811F78000200E20002003D006000100087
:10963800E08018000600E20002003D006001110011
:10964800E0811900050007004F00E00002003B0020
:1096580060001000E080180000000600020007000B
:109668000480BE00000006006022B8000602200048
:109678000000D0008180D2000482D2008582D2000E
:109688000000A8000202520083825A0003003B0037
:109698000202420083824A000000A1000603E9009A
:1096A800F3FF3A00000006000080FA000000060000
:0096B800B2
:109540000000FA0002000700EE4A040000000000DC
:109550000800E20002003A001000070000000600C8
:10956000839F68000200E20002003D0060001000DE
:10957000E08018000600E20002003D0060011100DA
:10958000E0811900050007004F00E00002003B00E9
:1095900060001000E0801800000006006022B800A3
:1095A000060220000000D0008180D2000482D20098
:1095B0008582D2000000A8000202520083825A0075
:1095C00003003B000202420083824A000000A10027
:1095D0000603E900F3FF3A00000006000080FA00ED
:0495E0000000060081
:020000040001F9
:101134008A1F78008B1F7800F4F007000B0F200043
:101144000A142000BFF0070038002000172E2200E8
:101154000E20ED00FEFF3A001020ED00FCFF3A00E7
:0C116400CF0578004F0578000000060061
:020000040000FA
:10D510000000FA000020EF0080818800E102210075
:10D520000020EF0080487800C10221000020EF00B9
:10D5300080487800D10221000020EF008048780068
:08D540000080FA000000060063
:10D448008A1F78008B1F78008C1F78008D1F78004A
:10D4580040EE07006104E10006003200407E230030
:10D4680050808800E07E230060808800A08A250024
:10D47800C0818800DA808800EB8088000B50E100CA
:10D4880004003900410021000020EF0080487800A6
:10D498000300370041002100A0C5B3008048780090
:10D4A8001B0020001420EF0023EE07001A20EF00D5
:10D4B8001820EF001620EF001420EF000020EF00E6
:10D4C800801F78000020EF00801F78000AEE070018
:10D4D8004F00B1001620EF001420EF0011EE0700F6
:10D4E80021EE0700406EEF0028EE070040E0240020
:10D4F800E0818800CF0678004F067800CF057800D5
:08D508004F0578000000060049
:108D5C000000FA0081818000014078000080FA0058
:048D6C0000000600FD
:108D40000000FA003A828800DB8188000080FA0087
:048D50000000060019
:108D00000000FA004EB89700BEB897005A8188005C
:108D10003B8188004C818800AD818800B08188004B
:0C8D2000918188000080FA00000006002D
:108D2C000000FA001A8188008B8088000080FA000D
:048D3C00000006002D
:108D70000000FA00510021000020EF008048780038
:108D8000F10221000020EF00804878000080FA0006
:048D900000000600D9
:108D94008A1F780034EEA90030EEA900352EA80011
:108DA400312EA900354EA800314EA90030AEA900DD
:108DB400308EA90034AEA800348EA80035F4070024
:108DC40034EEA80033F4070032F40700354EA9004E
:108DD4001AC0B300508080000000010083F807002F
:108DE4008AC2B3005080800000000100FACCB300B6
:108DF40050808000000001001420EF00608080009B
:108E0400000001003AC8B300608080000000010047
:108E14000AC3B3006080800000000100DACEB30012
:108E240050808000000001004AC6B30060808000CA
:108E3400000001003AC0B30060808000000001001F
:108E44002AC1B30060808000000001001AC8B3008A
:108E540060808000000001008ACEB3005080800052
:108E6400000001005AC8B3006080800000000100C7
:108E74001AC0B30060808000000001009AC7B300EC
:108E84006080800000000100BACCB30050808000F4
:108E9400000001009AC3B30060808000000001005C
:108EA400CAC2B30060808000000001001420EF00FB
:108EB40060808000000001004AC3B300608080002D
:108EC400000001002AC0B30060808000000001009F
:108ED4007ACFB30050808000000001000AC2B300C2
:108EE4006080800000000100AACEB30050808000A2
:108EF400000001001420EF006080800000000100E9
:108F04001420EF0060808000000001000ACCB30050
:108F140050808000000001006AC2B30060808000BD
:108F2400000001001ACCB300508080000000010052
:108F34001AC1B30060808000000001005ACCB30065
:108F440050808000000001005AC3B300608080009C
:108F540000000100EAC3B30060808000000001004B
:108F64007ACCB3005080800000000100EACBB3004B
:108F740060808000000001006AC3B300508080005C
:108F8400000001004000210090407800A0C5B3001B
:108F9400000CE1000B003A002BF707006104E1002C
:108FA40004003A008AC8B300608080000000010019
:108FB400030037008AC4B300608080000000010011
:108FC4000A00370020F707006104E10004003A00BA
:108FD4008ACEB300608080000000010003003700E7
:108FE4008AC2B3006080800000000100AAC3B300FD
:108FF40050808000000001005AC5B30060808000EA
:10900400000001001ACBB300508080000000010072
:109014001420EF006080800000000100BAC1B3009A
:1090240060808000000001002ACFB30050808000DF
:10903400000001008AC0B3006080800000000100CD
:109044006AC2B30050808000000001001AC0B3005F
:1090540060808000000001000ACEB30050808000D0
:1090640000000100FAC1B30060808000000001002C
:10907400AAC1B30060808000000001008AC1B3006F
:109084006080800000000100AAC0B30060808000FE
:1090940000000100FAC0B3006080800000000100FD
:1090A4006AC0B30060808000000001005AC4B300AD
:1090B40060808000000001007AC8B30060808000F6
:1090C400000001002AC3B30060808000000001009A
:1090D400AAC0B30060808000000001007AC0B30021
:1090E40060808000000001002AC0B300608080001E
:1090F400000001007AC0B30060808000000001001D
:109104005AC0B30060808000000001001420EF000A
:1091140060808000000001001ACEB30050808000FF
:10912400000001001420EF006080800000000100B6
:109134005AC2B30060808000000001007AC2B3000C
:1091440060808000000001005AC0B300608080008D
:10915400000001000AC1B30060808000000001002B
:109164009AC0B3006080800000000100AAC3B3006D
:1091740060808000000001008AC7B3006080800026
:1091840000000100DAC4B300608080000000010028
:109194005AC0B30060808000000001008AC1B3009F
:1091A4006080800000000100DAC0B30060808000AD
:1091B400000001008AC3B300608080000000010049
:1091C400AAC3B3006080800000000100FAC1B300AC
:1091D4006080800000000100AAC2B30050808000BB
:1091E400000001001420EF006080800000000100F6
:1091F4001420EF006080800000000100D080800017
:109204000020ED004800DE0000457800608080000A
:1092140000000100D08080000020ED0000457800AF
:109224006080800000000100BAC2B300508080005A
:10923400000001001420EF006080800000000100A5
:109244001420EF006080800000000100E0808000B6
:109254000020ED004800DE000045780060808000BA
:1092640000000100E08080000020ED00004578004F
:1092740060808000000001007ACBB3005080800041
:10928400000001007AC0B30060808000000001008B
:109294006ACBB3005080800000000100AAC0B30074
:1092A40060808000000001002AC8B3006080800054
:1092B400000001007AC2B300608080000000010059
:1092C4001420EF0060808000000001001AC1B30088
:1092D4005080800000000100EEF207009AC2B30043
:1092E4005080800000000100EAF20700CAC2B30007
:1092F4005080800000000100354EA8004F05780022
:04930400000006005F
:105E980068012000C7CC25000E20ED00FEFF3A0067
:105EA8001020ED00FCFF3A00000000000000000098
:045EB80000000600E0
:106FC800352EA90040E420000A487800E6FA0700B8
:046FD80000000600AF
:106FDC00352EA80040E420000A487800E1FA0700AA
:046FEC00000006009B
:106D9C00F0F30700EFF30700354EA90034AEA8005E
:106DAC00352EA90040E420000A487800348EA90052
:0C6DBC00348EA800354EA8000000060030
:106FF00028002000071721000E20ED00FEFF3A00B8
:107000001020ED00FCFF3A0000000000000000002E
:047010000000060076
:106C4C000000FA00E002210090407800014078003A
:086C5C000080FA0000000600B0
:020000040001F9
:1009E0001C00FA008A1F78008B1F78008C1F78008B
:1009F0008D1F7800FAFF2F00E7F407001B0020008E
:100A00001420EF00CEE00700CD0D2000CC12200016
:100A1000CB0D20004A012000AAFB0700ED022000B8
:100A2000CC122000EB0220004A012000A5FB0700A9
:100A3000202020001A20EF000C802F000A00280040
:100A400080057800A4FC0700E000470050C5B30013
:100A500080587800C0C6B3008058780040C7B30003
:100A60008058780090C6B30080587800D0C6B30094
:100A70008058780010C6B3008058780040C7B30093
:100A80008058780050C6B3008058780000C2B30088
:100A90008058780040C4B3008058780030C4B30058
:100AA0008058780030C4B3008058780000C2B3008A
:100AB0008058780030C4B30080587800F0C6B30086
:100AC00080587800D0C6B30080587800D0C6B300F4
:100AD0008058780010C6B30080587800E0C6B30094
:100AE0008058780040C6B3008058780030C5B30005
:100AF0008058780040C7B3008058780010C6B30013
:100B00008058780040C7B3008058780090C6B30082
:100B100080587800F0C6B30080587800E0C6B30073
:100B2000805878000020EF0080587800600047006F
:100B3000EC002000FB00200000057800C9FA070047
:100B4000202020001A20EF001820EF00AA602A00C1
:100B50008005780060FC0700E0004700F0C4B300A7
:100B60008058780000C7B3008058780050C6B300A2
:100B700080587800E0C6B30080587800C0C4B30045
:100B80008058780030C4B3008058780020C4B30087
:100B9000805878000020EF008058780060004700FF
:100BA000FC0D20003B01200000057800ADFA070095
:100BB000202020001A20EF000C802F00AA602A00BD
:100BC0008005780044FC0700E000470070C7B300D0
:100BD0008058780070C7B3008058780070C7B300A1
:100BE00080587800E0C2B30080587800F0C6B300A7
:100BF0008058780000C7B3008058780050C6B30012
:100C000080587800E0C6B30080587800C0C6B300B2
:100C10008058780030C6B3008058780020C6B300F2
:100C200080587800E0C2B30080587800F0C6B30066
:100C30008058780020C7B3008058780070C6B30091
:100C4000805878000020EF0080587800600047004E
:100C5000FC0D20008B0C20000005780081FA0700B5
:100C6000202020001A20EF001820EF00EA002900C1
:100C70008005780018FC0700CF0678004F06780042
:100C8000CF0578004F0578000080FA0000000600CC
:000C900064
:020000040000FA
:10DD98000600FA008B1F78008C1F78008D1F780012
:10DDA800354EA9009BF207000040E2000D0032004A
:10DDB800D0808000E1005000E08080000020ED006D
:10DDC8008A1F780080067800010678001620EF0088
:10DDD8001420EF00F0818000000001004F0578005A
:10DDE800060037008A1F78001620EF001420EF0085
:10DDF800E0818000000001004F0578000420EF005A
:10DE0800E08080000020ED00200798000010E1006D
:10DE18001B003E000020EF0000079800D080800023
:10DE2800E100500011079800600047001008E10069
:10DE38000E003900821F78008A1F7800C081800098
:10DE4800000001004F0578004F017800E00047000E
:10DE58001E0090001100E1000400320011002000B3
:10DE68006000470010884000ECFF37002E0090004B
:10DE78000010E100020032000420EC00E0FF37004F
:10DE8800354EA800CF0678004F067800CF057800F9
:08DE98000080FA000000060002
:10A81C000000FA00D002210090407800014078003E
:08A82C000080FA0000000600A4
:10A834000800FA008A1F7800D1808000001E2000E2
:10A844000008E1000420EF000100360004A0EE003F
:10A85400E1808000001E20000008E1000020EF00DD
:10A864000100360000A0EE00000071000300320079
:10A8740003322000021E200002003700031E2000C5
:10A88400021120004000210090407800A0C5B300D0
:10A89400000CE10013003A00EBF007000040E20076
:10A8A40008003200E1805100600047000D8850002C
:10A8B400620047000B8850002A0798003C07980064
:10A8C400070037000B0798001D079800E1005100AE
:10A8D400640047000C885000660047000A88500056
:10A8E40012003700D8F007000040E2000B003200ED
:10A8F400E1805100600047000C885000620047006E
:10A904000A885000E1005100640047000D8850009F
:10A91400660047000B885000040037000A079800BF
:10A924001C0798002B0798003D079800AAC2B300A3
:10A9340050808000000001000E0090004800DE00FE
:10A944000045780060808000000001000E45900002
:10A9540060808000000001001E0090004800DE00BE
:10A964000045780060808000000001002E459000C2
:10A974006080800000000100BAC2B30050808000F3
:10A98400000001002E0090004800DE000045780021
:10A9940060808000000001004E45900060808000CF
:10A9A400000001003E0090004800DE0000457800F1
:10A9B40060808000000001006E459000608080008F
:10A9C40000000100CAC2B3005080800000000100F2
:0CA9D4004F0578000080FA00000006002B
:10B0A8008A1F78008A9FBE002AC0B30050808000A3
:10B0B800000001004F05BE00400120000020EC0008
:10B0C800104078008A9FBE000045780060808000AC
:10B0D800000001003AC0B300508080000000010069
:10B0E8004F05BE008B1F78006080800000000100C3
:10B0F8006AC0B3005080800000000100CF057800CE
:10B10800600120000020EC00104078008B1F7800C0
:10B118000045780060808000000001007AC0B3001C
:10B128005080800000000100CF0578000B457800B2
:10B1380060808000000001002AC2B30050808000B7
:0CB14800000001004F0578000000060028
:10AD4C008A1F78008A9FBE00AAC2B3005080800080
:10AD5C00000001004F05BE00400120000020EC0067
:10AD6C00104078008A9FBE0000457800608080000B
:10AD7C00000001004F05BE008B1F78006080800032
:10AD8C0000000100BAC2B300508080000000010036
:10AD9C00CF057800600120000020EC001040780006
:10ADAC008B1F780000457800608080000000010057
:10ADBC00CF0578000B457800608080000000010012
:10ADCC00CAC2B30050808000000001004F0578001B
:04ADDC00000006006D
:10A120008A1F78008A9FBE00AAC2B30050808000B8
:10A13000000001004F05BE004850DE008A9FBE00AF
:10A140000045780060808000000001004F05BE00DF
:10A150008B1F78006080800000000100BAC2B3004D
:10A160005080800000000100CF0578004858DE00D4
:10A170008B1F78000045780060808000000001009F
:10A18000CF0578000B45780060808000000001005A
:10A19000CAC2B30050808000000001004F05780063
:04A1A00000000600B5
:10A1A4008A1F78004000210090407800A0C5B300C9
:10A1B400000CE10022003A008A9FBE002AC0B300CE
:10A1C40050808000000001004F05BE004850DE00B2
:10A1D4008A9FBE0000457800608080000000010076
:10A1E4003AC0B30050808000000001004F05BE005B
:10A1F4008B1F780060808000000001006AC0B300FB
:10A204005080800000000100CF0578004858DE002F
:10A214008B1F7800004578006080800000000100FA
:10A224007AC0B3005080800000000100CF057800A0
:10A234000B45780060808000000001002100370099
:10A244008A9FBE002AC0B300508080000000010035
:10A254004F05BE004858DE008A9FBE0000457800C6
:10A2640060808000000001003AC0B300508080008C
:10A27400000001004F05BE008A1F78000B457800DE
:10A2840060808000000001006AC0B300508080003C
:10A29400000001004F0578004850DE008A1F780056
:10A2A4000045780060808000000001007AC0B3009F
:10A2B40050808000000001004F057800608080001D
:10A2C400000001002AC2B300508080000000010099
:08A2D4004F05780000000600B0
:109C08008A1F78008A9FBE00AAC2B30050808000D5
:109C1800000001004F05BE004850DE008A9FBE00CC
:109C28000045780060808000000001004F05BE00FC
:109C38008B1F78006080800000000100BAC2B3006A
:109C48005080800000000100CF0578004858DE00F1
:109C58008B1F7800004578006080800000000100BC
:109C6800CF0578000B457800608080000000010077
:109C7800CAC2B30050808000000001004F05780080
:049C880000000600D2
:10A798008A1F78008A9FBE00AAC2B300508080003A
:10A7A800000001004F05BE004850DE008A9FBE0031
:10A7B8000045780060808000000001004F05BE0061
:10A7C8008B1F78006080800000000100BAC2B300CF
:10A7D8005080800000000100CF0578004858DE0056
:10A7E8008B1F780000457800608080000000010021
:10A7F800CF0578000B4578006080800000000100DC
:10A80800CAC2B30050808000000001004F057800E4
:04A818000000060036
:10A41C008A1F78008A9FBE00AAC2B30050808000B9
:10A42C00000001004F05BE004850DE008A9FBE00B0
:10A43C000045780060808000000001004F05BE00E0
:10A44C008B1F78006080800000000100BAC2B3004E
:10A45C005080800000000100CF0578004858DE00D5
:10A46C008B1F7800004578006080800000000100A0
:10A47C00CF0578000B45780060808000000001005B
:10A48C00CAC2B30050808000000001004F05780064
:04A49C0000000600B6
:10F8C4001200FA008A1F78008B1F78008C1F7800C2
:10F8D4008A9FBE008D0578000C05780012E50700AC
:10F8E4004F05BE000C50E10005003A000A067800FE
:10F8F4000B0578008D05780077EA0700CA00370009
:10F904000D58E10005003A008C1F78000B067800C2
:10F91400CF057800E1EA0700C30037000020EF00BC
:10F92400500798000A005600000798006000E100A4
:10F9340007003D008E0090006000470060881000C2
:10F94400DE0090006A004700618850000300370021
:10F95400DE0090006A004700618840000020EF004C
:10F96400600798000B805600100798006000E100C3
:10F9740007003D009E009000620047006088100070
:10F98400EE0090006C0047006188500003003700CF
:10F99400EE0090006C004700618840000020EF00FA
:10F9A400700798008E009000620047001008E10084
:10F9B4002F003D00FE0090006E004700618840006B
:10F9C4008E0090001E009000000798001107980018
:10F9D4000A0078000B05780080057800DE009000AE
:10F9E4006E009000500798006107980017002000EF
:10F9F40007017800A00321001010E1001B003E0065
:10FA0400020F9800610061006000E10003003A0009
:10FA14008E08900070004700608810000E08900067
:10FA24004180DE00000F980000804500821F7800AE
:10FA34008C9FBE008A9FBE003C8280008A057800AD
:10FA4400000578006DDA07004F05BE004F06BE00C2
:10FA54004F017800A00321001010E10003003200E0
:10FA6400E103410007017800E2FF37001F0037007F
:10FA74001700200007017800A00321001010E10006
:10FA84001A003E00020F9800610061006000E1006E
:10FA940003003A008E089000700047006088100050
:10FAA4000E0890004180DE00000F980000804500A1
:10FAB400821F78008C9FBE008A9FBE003C8280001B
:10FAC400800578004DDA07004F05BE004F06BE00E2
:10FAD4004F017800A00321001010E1000300320060
:10FAE400E103410007017800E3FF37000E009000B6
:10FAF4004100DD00400798001E0090004101DD0038
:10FB040032079800E00047006400470011085100E4
:10FB14000E0090000020ED00000798006000E10056
:10FB2400410035002E0090006000E1000700350020
:10FB34006C00470010804500800578002E0190007D
:10FB4400E800470064004700110851006A004700BC
:10FB540010004500000578002E019000E6004700E3
:10FB6400640047001108410012002000A003210096
:10FB74001010E1002B003E00020F980061006100AC
:10FB84006000E10003003A008E0890007000470016
:10FB9400608810000E0890004180DE00000F98007D
:10FBA4006E0047001000E0000D00320070004700B6
:10FBB40010804500821F78008C9FBE008A9FBE0083
:10FBC4003C8280008A057800000578000BDA070083
:10FBD4004F05BE004F06BE004F0178000B003700F2
:10FBE4007000470010804500821F78008C9FBE0083
:10FBF4008A9FBE003C82800080057800FFD9070000
:10FC04004F05BE004F06BE004F017800A00321003F
:10FC14001010E10003003200E10241000501780008
:10FC2400D2FF3700BAFF37004F067800CF057800BF
:0CFC34004F0578000080FA000000060078
:10A2DC000200FA000B50E100030034000A00780081
:10A2EC000B057800800578006050E10002003D000D
:10A2FC001420EF0004003700C00121001050E100D1
:10A30C0001003500400037006058E10001003D00BD
:10A31C003D003700C00121001058E100030035005A
:10A32C00E08080000020ED00800578001300200004
:10A33C00A00321001018E10033003E000307980031
:10A34C00618061006000E10003003A008E00900023
:10A35C0060004700608810000E0090004180DE0015
:10A36C0000079800000146006010E1000220EF0099
:10A37C0001003D0002A0EE00A00121001010E10040
:10A38C000020EF000100350000A0EE0000807000FE
:10A39C000200320083007800160037000A017800B2
:10A3AC00830078000B10E10012003C0060004700B5
:10A3BC0010004600811F7800821F78008C1F7800E7
:10A3CC008A9FBE003C8280008205780000057800E0
:10A3DC0008F007004F05BE004F0678004F017800CB
:10A3EC00CF0078000B10E100020032000420EC00DA
:10A3FC00ECFF3700A00321001008E100020032003E
:10A40C00E1814000CAFF37000080FA00000006001E
:00A41C0040
:106400000000FA008A1F78008D1F78006050E100BC
:106410000220EF0001003D0002A0EE00A0012100DB
:106420001050E1000020EF000100350000A0EE0058
:1064300000807000010032001F0037006058E1004A
:106440000220EF0001003D0002A0EE00C00121008B
:106450001058E1000020EF000100350000A0EE0020
:10646000008070000100320013003700354EA90093
:10647000EA1007000040E200070032008C1F78009D
:106480008B0678000A067800F08180000000010089
:106490004F067800040037008C1F7800E0818000F0
:1064A000000001004F0678000C057800C0818000D4
:1064B00000000100354EA800CF0678004F05780097
:0864C0000080FA000000060054
:10A4A0000400FA008D1F78000B50E1000300340017
:10A4B0000A0078000B057800800578006050E10004
:10A4C00002003D001420EF0004003700A00121002D
:10A4D0001050E10001003500730037006058E100C2
:10A4E00001003D0070003700A00121001058E1007C
:10A4F00003003500D08080000020ED00800578004A
:10A5000010002000000798008E009000A00321009A
:10A510001008E10064003E000E0090001007980053
:10A520000E009000610060006000E10003003A004E
:10A530009E00900062004700608810001E0090009E
:10A540004180DE0010079800000146006010E10025
:10A550000220EF0001003D0002A0EE00C00121003A
:10A560001010E1000020EF000100350000A0EE0017
:10A57000008070000100320043003700C00221005B
:10A58000104078006004E1002C003A00354EA9002C
:10A59000A20007000040E2000C0032006200470009
:10A5A000100046008C1F78008A9FBE00800678004D
:10A5B0000B06780080057800F08180000000010023
:10A5C0004F05BE004F0678000900370062004700C3
:10A5D000100046008C1F78008A9FBE00800578001E
:10A5E000E0818000000001004F05BE004F067800AA
:10A5F0008A0078000B08E1000E003C00811F780003
:10A600008C1F78008A9FBE003A828000C081800043
:10A61000000001004F05BE004F067800CF00780013
:10A620000B08E100030032006180400080007800E8
:10A63000F0FF3700354EA800130037008A0078007D
:10A64000010078000B00E1000F003C00801F780043
:10A650008C1F78008A9FBE008C0578003C828000A9
:10A660000005780066EF07004F05BE004F06780032
:10A670004F0078000B00E10003003200E1004000D1
:10A6800001007800EFFF37008E009000A00321004A
:10A690001008E100040032008E00900060004700C6
:10A6A0006188400098FF3700CF0678000080FA00EC
:04A6B00000000600A0
:10FCD8000400FA008A1F78008B1F78000A07980032
:10FCE8001B0798000E0090009E00900090808800EE
:10FCF800A1808800600047008C1F78002B0020003E
:10FD08000C0020000005780068EA07000E0090004B
:10FD18009E009000910188000000000010407800CB
:10FD28000080FB00B0808800600047001B002000B6
:10FD38000C002000000578005CEA07000E00900027
:10FD48009E0090009101880000000000104078009B
:10FD58000080FB00C800DD00600121001088400021
:10FD6800600047001B0020000C0020000005780000
:10FD78004EEA07000E0090009E0090009101880056
:10FD880000000000104078000080FB00C080880060
:10FD9800600047001B0020000C00200000057800D0
:10FDA80042EA07000E0090009E0090009101880032
:10FDB80000000000104078000080FB00C800DD0053
:10FDC8008001210010884000600047001B002000CF
:10FDD8000C0020000005780034EA07004F06780080
:10FDE8000E0090009E009000910188000000000025
:10FDF800104078000080FB0000818800FC808800AB
:10FE08007D8088005100210010C0B3008048780030
:10FE1800F10221000020EF0080487800CF0578002B
:0CFE28004F0578000080FA000000060082
:10A6B4000000FA0000002800010020000058E1001A
:10A6C40001E0E100070031001A00BE000B01400068
:10A6D4008C81480005E0AE0002003700028DBE0008
:10A6E4002A0037000A0078008000EB006201400075
:10A6F400E0814800020278000A0078008000EB0044
:10A7040061004000E0804800800278001240780038
:10A714000080FB00610060006000E10004003A007A
:10A724009580FB00F007200000806000804A7800DC
:10A73400144078000080FB004100DE00004A7800ED
:10A744001A00BE000B1D40000C9548001440780010
:10A754000080FB004100DD00004A78009580FB008A
:10A7640000082000008060006000E1000300320067
:10A774001480FB0061007000004A78009580FB00A3
:10A784000008200000807000804A78000080FA00F1
:04A7940000000600BB
:10F664000000FA008B1F7800A00121001058E1006F
:10F674000100390026003700C00121001060E100BC
:10F6840001003900220037000220EF008A1F7800B1
:10F694000B0578008C057800A3E507004F0578007A
:10F6A400010045001004E00019003200F0022100BE
:10F6B400104078006104E1000A003A0001004500AE
:10F6C400811F78008C1F78008A9FBE001085FB0084
:10F6D400F8E707004F05BE004F067800CF0078001A
:10F6E4000900370001004500811F78008C1F780055
:10F6F4008A9FBE001085FB0063E907004F05BE002A
:10F704004F067800CF0078000220EC00E4FF3700B9
:0CF71400CF0578000080FA00000006001D
:1096B8002400FA008A1F78008B1F78008C1F78001E
:1096C8008D1F7800600121001050E1000100310079
:1096D80045013700800121001050E10001003600EB
:1096E800410137000020EF00200798000020EF001C
:1096F800004F980060012100100055004202DD0073
:10970800008280001182800068014000E0814800EA
:10971800040078008000EB000000410081804900CF
:109728004C0020000005BE0069F4070080042100F9
:10973800300F98003E0890001044780008479800C1
:109748003E0890000020EC001083FB008003EB0033
:10975800E10240009581FB000002EB00820020003E
:1097680003007800840078000201E9000300350056
:109778000000D0008180D200FBFF370000014300C9
:1097880081814B00618042001080FB008000EB006B
:10979800800078000000EB0000024100818249004F
:1097A800010421006A0047003118420021904A0054
:1097B8000880FB00C301DE00020221001218B80075
:1097C800000F9800600047001080FB0067006000F1
:1097D8006000E100040032000E099000010221003F
:1097E80070004700110841000E089000200F9800F3
:1097F8006E004700800678000E0E90005E0590000F
:10980800EE0590002082800000000100300F9800D3
:109818007E0190008001EB00EA0047006A004700E3
:1098280031184100219049000E099000EE004700D0
:1098380070004700110851000020EF00100F980039
:10984800708080006000E10074003A008080800031
:10985800300798000020EF00204798000081800022
:10986800E100500011179800620047001080FB00CB
:109878000100E10065003E0010818000200798008B
:109888000020EF00104F98000020EF0010479800CC
:10989800600047001080FB00E100500001179800AD
:1098A800610047001080FB000100E1004B003E0012
:1098B8001E4890006004E1002B003A009E089000CA
:1098C8007200470061884000FE0090007400470065
:1098D8001008E1001C0031009E0890006E0047004F
:1098E8001008E1001800360010002000100F980042
:1098F8006E0047008A1F7800800678000E0E9000E0
:109908005E059000EE0590002082800000000100B6
:109918004F057800300F98000E089000200F98002F
:109928007E0190008001EB00EA0047006A004700D2
:1099380031184100219049000E099000EE004700BF
:1099480070004700110851003E0890001040780050
:10995800004F9800BE0890007600470061884000DC
:1099680010C0B300104F9800680047009080FB00BB
:10997800690047001080FB00008060006000E10083
:10998800060032008A1F7800FC808000BE05900027
:109998002E05900098F207004F057800AE00900061
:1099A8006400470061884000690047001080FB00A0
:1099B8004100DD00104F9800610047009080FB00D7
:1099C8000E1090000008E1000400320011C0B3003E
:1099D8006100470010C84000ADFF3700BE0090008E
:1099E8006600470061884000620047009080FB00E5
:1099F8001E1090000008E10004003200AE40900004
:109A08006200470061C8400094FF3700AE00900034
:109A18002002210061884000730037001081800017
:109A2800300798000020EF00204798000081800050
:109A3800E100500011179800620047001080FB00F9
:109A48000100E10065003E0080808000200798004A
:109A58000020EF00104F98000020EF0010479800FA
:109A6800600047001080FB00E100500001179800DB
:109A7800610047001080FB000100E1004B003E0040
:109A88001E4890006004E1002B003A009E089000F8
:109A98007200470061884000FE0090007400470093
:109AA8001008E1001C0031009E0890006E0047007D
:109AB8001008E1001800360010002000100F980070
:109AC8006E0047008A1F7800800678000E0E90000E
:109AD8005E059000EE0590002082800000000100E5
:109AE8004F057800300F98000E089000200F98005E
:109AF8007E0190008001EB00EA0047006A00470001
:109B080031184100219049000E099000EE004700ED
:109B180070004700110851003E089000104078007E
:109B2800004F9800BE08900076004700618840000A
:109B380010C0B300104F9800680047009080FB00E9
:109B4800690047001080FB00008060006000E100B1
:109B5800060032008A1F7800FC808000AE05900065
:109B68003E05900024F207004F057800AE009000F3
:109B78006400470061885000690047001080FB00BE
:109B88004100DD00104F9800610047009080FB0005
:109B98000E1090000008E1000400320011C0B3006C
:109BA8006100470010C84000ADFF3700BE009000BC
:109BB8006600470061884000620047009080FB0013
:109BC8001E1090000008E10004003200AE40900032
:109BD8006200470061C8400094FF3700AE00900063
:109BE8000001210061885000CF0678004F067800F8
:109BF800CF0578004F0578000080FA0000000600C5
:009C08005C
:1068D8000400FA008D1F780080042100100798003A
:1068E8006060E10025003600600047008C1F7800DA
:1068F8008A9FBE0080067800208280000000010088
:106908004F05BE004F0678000002780013002000F3
:106918000301780084017800600047001010E1004E
:106928000D003E001E009000134878009E00900065
:1069380062004700618840006182410060004700B2
:106948001010E10004003200E10141000301780069
:1069580084017800F0FF37006000470010005600FF
:10696800000678000E0090008000EB000000450053
:1069780081804D000005BE00D9FF3700CF067800A2
:086988000080FA000000060087
:109C8C002000FA008A1F78008B1F78008C1F780048
:109C9C008D1F780050002100104078006004E10016
:109CAC000B003A00202020008A1F78001A20EF00B9
:109CBC001820EF00EA00290080057800031807003F
:109CCC004F0578005100210010C0B3008048780087
:109CDC00600121001050E100010031000501370046
:109CEC00800121001050E100010036000101370015
:109CFC000020EF00700798000020EF00205798001C
:109D0C0060012100100055004201DD0090808000B0
:109D1C00A1808000000798001107980002007800CD
:109D2C008000EB0068014000E081480060004700C3
:109D3C008205780003067800000578005A020700B7
:109D4C000E0090009E009000910188000000000021
:109D5C00104078000080FB0040079800600047002E
:109D6C001B0020000C002000000578004E020700AC
:109D7C000E0090009E0090009101880000000000F1
:109D8C00104078000080FB008000EB00200F980052
:109D9C00310F9800600047001B0020000C002000D1
:109DAC0000057800400207000E0090009E00900015
:109DBC009101880000000000104078008080FB00BA
:109DCC000001EB0080002000810178000202780085
:109DDC000000E900030035008301D0000482D200AA
:109DEC00FBFF3700F4004700740047003198410036
:109DFC0021104A00600047001B0020000C002000CE
:109E0C0000057800280207000E0090009E009000CC
:109E1C009101880000000000104078000080FB00D9
:109E2C008000EB00800278000002EB007400470019
:109E3C0030014200A0814A0090808000A180800007
:109E4C0020079800310798006400470082057800CD
:109E5C00030678000005780013020700708080006C
:109E6C006000E10052003A0080808000000F9800F2
:109E7C000020EF006007980000818000E100500096
:109E8C00710F98006C0047001008E1004400390085
:109E9C0010818000700798000020EF003057980068
:109EAC000020EF00500798004E009000E100500099
:109EBC00610F98006A0047001008E1002D0039007E
:109ECC003E5090006004E1000F003A002E0090001C
:109EDC00BE00900091018800000000001040780046
:109EEC0020579800640047008A1F78001B00200050
:109EFC000C00200000057800EB0107004F057800EE
:109F0C0010C0B30030579800720047009080FB00DF
:109F1C00730047001080FB000080600006003200D8
:109F2C008A1F7800FC8080008E0D90007E059000CA
:109F3C0030F107004F057800FE0090006E004700DE
:109F4C0061884000730047001080FB004100DD0079
:109F5C0030579800EA0047006E0890001100E100AD
:109F6C0004003200110020006A00470010884000F5
:109F7C00CDFF37008E0890007000470061884000CC
:109F8C00EC0047007E0890001100E1000400320054
:109F9C00EE0090006C00470061884000B6FF37006F
:109FAC00FE00900020022100618840005100370023
:109FBC0010818000000F98000020EF0060079800CF
:109FCC0000818000E1005000710F98006C00470088
:109FDC001008E10044003900808080007007980070
:109FEC000020EF00305798000020EF005007980039
:109FFC004E009000E1005000610F98006A0047008D
:10A00C001008E1002D0039003E5090006004E10082
:10A01C000F003A002E009000BE00900091018800C5
:10A02C0000000000104078002057980064004700A2
:10A03C008A1F78001B0020000C002000000578000F
:10A04C00990107004F05780010C0B30030579800F5
:10A05C00720047009080FB00730047001080FB00EB
:10A06C0000806000060032008A1F7800FC808000AF
:10A07C00FE0590000E0D9000DEF007004F057800F5
:10A08C00FE0090006E00470061885000730047008E
:10A09C001080FB004100DD0030579800EA004700BB
:10A0AC006E0890001100E100040032001100200045
:10A0BC006A00470010884000CDFF37008E089000E2
:10A0CC007000470061884000EC0047007E0890005B
:10A0DC001100E10004003200EE0090006C0047001B
:10A0EC0061884000B6FF3700FE009000000121009F
:10A0FC0061885000CF0678004F067800CF057800B5
:0CA10C004F0578000080FA0000000600FB
:020000040001F9
:10073C000020EF0040DA880001FB070034FB0700C3
:10074C0000FB07003FFB0700BBFA0700B4FA0700E9
:08075C00BCFA070000000600D2
:020000040000FA
:04F34C0000000600B7
:10F41C00BEED07006FEE07000020EF00A082880011
:10F42C00F0FF2F0090838800F0FF2F00A08388004E
:10F43C000020EF00B08388000020EF00C08388001C
:04F44C0000000600B6
:10AB18000020EF00D08388000020EF00E083880049
:10AB28000420EF00C410DD0000FE2D00810040006D
:10AB38001000200034A0B7000020EF008008780043
:10AB4800C410DD0000FE2D0001004000E2004000BE
:10AB58000020EF0080087800C410DD0000FE2D0002
:10AB680001004000E40040000020EF008008780069
:10AB7800C410DD0000FE2D0001004000E60040008A
:10AB88000020EF0080087800C410DD0000FE2D00D2
:10AB980001004000E80040000020EF008008780035
:10ABA800C410DD0000FE2D0001004000EA00400056
:10ABB8000020EF0080087800C410DD0000FE2D00A2
:10ABC80001004000EC0040000020EF008008780001
:10ABD800C410DD0000FE2D0001004000EE00400022
:10ABE8000020EF00800878006110E10002003200C8
:10ABF8000420EC00CBFF37000420EF00C410DD0078
:10AC080000FC2D00810040000020EF008008780043
:10AC1800C410DD0000FC2D0001004000E2004000EF
:10AC28000020EF0080087800C410DD0000FC2D0033
:10AC380001004000E40040000020EF008008780098
:10AC4800C410DD0000FC2D0001004000E6004000BB
:10AC58000020EF0080087800C410DD0000FC2D0003
:10AC680001004000E80040000020EF008008780064
:10AC7800C410DD0000FC2D0001004000EA00400087
:10AC88000020EF0080087800C410DD0000FC2D00D3
:10AC980001004000EC0040000020EF008008780030
:10ACA800C410DD0000FC2D0001004000EE00400053
:10ACB8000020EF00800878006110E10002003200F7
:0CACC8000420EC00CDFF37000000060067
:10ADE0000420EF00C110DD00A0B42100810040006C
:10ADF0000020EF00800878006910E10002003200B6
:10AE00000420EC00F7FF37000020EF00F0DA8800A4
:10AE10000420EF00C110DD0060B721008100400078
:10AE20000020EF00800878006910E1000200320085
:10AE30000420EC00F7FF37000020EF0050DC880012
:10AE40000420EF00C110DD00A05F21008100400060
:10AE50000020EF00800878006910E1000200320055
:10AE60000420EC00F7FF37000020EF0070B08800EE
:10AE70000420EF00C110DD0020B32100810040005C
:10AE80000020EF00800878006910E1000200320025
:10AE90000420EC00F7FF37000020EF0030DA8800D4
:10AEA0000420EF00C110DD0000B621008100400049
:10AEB0000020EF00800878006910E10002003200F5
:10AEC0000420EC00F7FF37000020EF00A0DB880033
:10AED0000420EF00C110DD0000612100810040006E
:10AEE0000020EF00800878006910E10002003200C5
:10AEF0000420EC00F7FF37000020EF0020B18800AD
:04AF00000000060047
:10F350008A1F78000020EF0000EE88000020EF00F8
:10F3600010EE88000C20EF00600320000601B800BA
:10F3700000B92100020040008002780006487800B1
:10F3800005057800DFEE0700600220008080420063
:10F390000020EF008008780080022000808042007A
:10F3A0000020EF00800878006E824200060178009D
:10F3B000CF91DE000070200011002000020040000C
:10F3C00083804800008ABE006E80420064014000D5
:10F3D00010102000510020000089BE0078804200FB
:10F3E000E20040006E80420003000900B01878007F
:10F3F000C130DD00C0DA2100810040000020EF00B4
:10F40000800878006930E100020032000C20EC0036
:0CF41000D5FF37004F0578000000060013
:10AF0400E10045000020EF0080487800780045000B
:10AF1400E10040000020EF0080487800F800450080
:10AF24000020EF00804878006E004500E8004000F3
:10AF34000020EF00800878004002200080004500D7
:10AF44000020EF00804878000420EF0062004500F4
:10AF54006300400082004000F0CFB30080487800D6
:10AF64006110E100020032000420EC00F7FF37001A
:10AF74000420EF006200450082004000F0CFB300DF
:10AF8400804878006110E100020032000420EC00E7
:10AF9400F8FF37000420EF00620045006A0040001B
:10AFA400820040000020EF00804878006010E1003B
:10AFB400020032000420EC00F7FF37000420EF0009
:10AFC4006200450068004000820040000020EF005D
:10AFD400804878006010E100020032000420EC0098
:10AFE400F7FF37000420EF006200450066004000D0
:10AFF400820040000020EF00804878006010E100EB
:10B00400020032000420EC00F7FF37006002200049
:10B01400800045000020EF008008780080022000B6
:10B02400800045000020EF00800878002002200006
:10B03400800045000020EF0080087800A002200076
:10B04400800045000020EF0080087800A002200066
:10B0540000004500E80040000020EF008008780070
:10B06400A002200000004500640140000020EF0021
:10B074000220EF000089BE00A0022000000045006D
:10B08400E20040000020EF0080087800A0022000C9
:10B0940000004500EA004000C0C1B30080487800C9
:04B0A40000000600A2
:10F450008A1F78008B1F78000820EF00C000200072
:10F460000401B800C052210002004000FBFF2F0041
:10F4700000057800710007006920E10002003200F9
:10F480000820EC00F5FF37000020EF0020AD8800D9
:10F490000820EF00200520000401B800605A210078
:10F4A00002004000FBFF2F000005780063C6070044
:10F4B0006020E100020032000820EC00F5FF370078
:10F4C0000020EF00C0AF88000820EF008008200077
:10F4D0000401B800204A210002004000FBFF2F0079
:10F4E000000578007EED07006020E1000200320098
:10F4F0000820EC00F5FF37000020EF0050A988003D
:10F500000820EF00004220000401B800E0072100BD
:10F5100002004000FBFF2F000005780042ED0700CD
:10F520006020E100020032000820EC00F5FF370007
:10F530000020EF00F0A48800014A21000020EF0025
:10F5400080487800114A21000020EF0080487800B0
:10F550000620EF00C518DD00807A21000100400080
:10F5600000057800090007007418E100020032006D
:10F570000620EC00F7FF37000020EF0040D18800A4
:0CF58000CF0578004F0578000000060061
:10F63C008B1F78001600E200030032008B002000C4
:10F64C00E4EC0700020037001620EF00E1EC0700A5
:08F65C00CF0578000000060054
:10A9E0000020EF00004D7800E20045000020EF005D
:10A9F000800878000620EF00618155000218E10010
:10AA000008003C0064004500830040000020EF0087
:10AA1000804878000218E100020032000620EC00B5
:08AA2000F5FF370000000600FD
:100E3C008B1F78001600E200030032008B042000A8
:100E4C00E4260700020037001620EF00E126070019
:100E5C00C0042000800045000020EF0080087800CE
:100E6C00E0042000800045000020EF00804878005E
:100E7C0000052000800045000020EF00800878006D
:080E8C00CF057800000006000C
:10AAE0008B1F78001600E200030032000B082000E4
:10AAF000BBFF0700020037001620EF00B8FF070079
:10AB000060082000800045000020EF0080087800E9
:08AB1000CF05780000000600EB
:10AA28008B1F78001600E200030032008B402000E4
:10AA3800E9FF0700020037001620EF00E6FF0700D5
:10AA480040412000000145000020EF000220EF00F7
:10AA58000089BE00C0402000800045000020EF00B3
:10AA680080487800D0402000800045000020EF009A
:10AA7800804878000420EF00E040200000004500F6
:10AA8800820040000020EF00804878006510E10057
:10AA9800020032000420EC00F7FF3700804120005C
:10AAA800000145000020EF000220EF000089BE00F1
:10AAB800E0412000800045000020EF008008780079
:10AAC800C0412000800045008040200080087800B8
:08AAD800CF0578000000060024
:10F58C000020EF00000D7800FA0045000020EF008D
:10F59C0080087800F80045000020EF008008780013
:10F5AC006C004500E80040000020EF008008780067
:10F5BC006C01450081D92A002020200032A0B70020
:10F5CC0000000000030009003119780062004500BA
:10F5DC00E80040000020EF00800878006201450040
:10F5EC0081D92A00000000000300090031197800BD
:10F5FC00FC0045000020EF0080087800F600450074
:10F60C000020EF0080487800FE0045000020EF004D
:08F61C008008780000000600E0
:0CF244000020EF0020EE88000000060013
:10F22C000020EF0060DC8800E1B8210010C0B300C2
:08F23C00804878000000060084
:10F250000200FA008A1F78008B1F7800010020004E
:10F2600000EE80006A00E10026003D0026E807006D
:10F27000800478006048E100200032000905780031
:10F2800020EF07001BC0B3000905780040E8070025
:10F2900009007800104078006004E10003003600A7
:10F2A0008BC0B3000905780039E807000900780031
:10F2B0006E004000680040000007980009007800D8
:10F2C0007800400000A0EC001620EF000005780058
:10F2D00022E807008E0090008008780000EE800091
:10F2E000C100DD00C0DA21000100400009087800FB
:10F2F00000EE80000020EC0000EE8800890078001D
:10F300000000370001007800CF0578004F05780035
:08F310000080FA000000060075
:109308000220EF000820EF00600320000401B800ED
:1093180000B9210002004000000178000020EC00A4
:109328001080FB00610060006000E10003003A006B
:109338000200780080007800040037006920E1000E
:10934800020032000820EC00EFFF3700010078002F
:04935800000006000B
:10939000610145009280FB000B80FB0000807000A3
:0893A0000049780000000600FE
:10935C001600E200010032005AF407002AF7070059
:10936C00800078006008E10004003A0055F4070022
:10937C0025F7070080007800000037000100780016
:04938C0000000600D7
:1064D000E4004500900020001103BE000000E90028
:1064E000030035000603D0008783D200FBFF37008E
:1064F0001A02BE00F00020000401BE000000E90006
:10650000030035008301D1000281D300FBFF370077
:10651000F01F200001002000000061008180610068
:106520000001730081817300F0FF2F00F10F200044
:1065300000036100818361001A02BE009000200008
:106540000401BE000000E900030035000201D00094
:106550008381D200FBFF3700F0FF2F00F10F2000F6
:1065600000016100818161001A00BE00020140004B
:106570008381480090BA2400A1072000001D41003B
:106580000195490064024500640045003001430064
:10659000A0814B0030CA2000B1012000001A410048
:1065A0000192490064044500640045001001BE00EA
:1065B000F0FF2F00F10F20000003610081836100D4
:1065C0001A01BE000000200001F02F00000261004F
:1065D00081826100820120000400BE000201E90006
:1065E000030035008100D1000080D300FBFF37009D
:1065F000001C7300019473001A01BE00F0FF2F000D
:10660000F10F2000001D61000195610000000600EF
:006610008A
:10701400E40045001A00780091026800BA01780083
:107024002A027800C200200003007800840078005F
:107034000201E900030035008100D1000080D30083
:10704400FBFF370000826A00E4014500C200200013
:107054001300BE000201E900030035008100D100E5
:107064000080D300FBFF370000016A00F0FF20001E
:0C707400800061000100780000000600B0
:020000040001F9
:100CB0008A1F78008B1F78008C1F78008D1F7800AA
:100CC000DCC2B3001BC0B3000AC7B3001BF40700AB
:100CD000ECC0B3001620EF001AC7B30017F40700EA
:100CE0008DF907002D0020004C0020003B01200062
:100CF0001A002000F0FF2F00801F78004000200025
:100D0000801F7800E0FB07004F00B100FDFF2F00BF
:100D10000B0020000C8020002AC0B300A1FA0700BD
:100D2000FDFF2F001620EF001820EF001420EF0029
:100D30007BFA0700FDFF2F000B0020000C80200035
:100D40001AC0B30076FA07002B0020001420EF0031
:100D5000B5FA07002B0020001A002000B2FA0700A5
:100D60003A002000B6FB07002B0020001420EF0003
:100D7000B5FB07002B0020001A002000B2FB070083
:100D80005BF50700FBFF2F001420EF0050F5070074
:100D90001620EF001A0020006AF507001B00200053
:100DA0001A0020005DF507001620EF001A00200051
:100DB0003DF507002B0020001A00200018F5070061
:100DC0001620EF001A0020000BF507008B00200012
:100DD0001A0020001DF507001620EF001A00200061
:100DE00027F5070020442000800578001A00200025
:100DF0001DF507006B0420001A0020005BF50700BA
:100E000000FE2D00800578001A002000E6F807009B
:100E1000FBFF2F001A0020004AF50700FBFF2F0000
:100E20001A0020002AF507001620EF001420EF001A
:100E300044F507001B0020001420EF0037F50700E1
:100E40001620EF001420EF0017F507002B002000FC
:100E50001420EF00F2F407001620EF001420EF003A
:100E6000E5F407008B0020001420EF00F7F40700E2
:100E70001620EF001420EF0001F5070020442000A9
:100E8000800578001420EF00F7F407006B042000C1
:100E90001420EF0035F5070000FF2D0080057800D5
:100EA0001420EF00C0F80700FBFF2F001420EF0014
:100EB00024F507001620EF002A00200004F50700A3
:100EC0001B0020002A00200014F507001B00200052
:100ED0002A002000F4F407001620EF002A0020006A
:100EE000CFF407001620EF002A002000C2F407000C
:100EF0008B0020002A002000D4F407001620EF0009
:100F00002A002000DEF4070000442000800578005D
:100F10002A002000D4F407002B0220002A00200021
:100F200012F5070000FC2D00800578002A00200043
:100F30009DF80700FBFF2F002A00200001F50700A5
:100F4000FAFF2F0021000700FAFF2F001200070010
:100F5000FAFF2F00D6000700FAFF2F008BF80700DA
:100F6000FAFF2F0096F80700FAFF2F00A8F80700F5
:100F70006A00200099F80700FAFF2F007DF80700AB
:100F80000164A800CF0678004F067800CF057800EE
:080F90004F0578000000060087
:020000040000FA
:10F3180001208000F08F2F00008160000140200054
:10F328000040200001087100010E2000004020006C
:10F3380090806000000820000008E100FAFF3A0011
:04F3480000000600BB
:10FC88000000FA004EB99700BEB99700C650DD00D3
:10FC980000412000018875004368DD008000710084
:10FCA8004860DD000081700001082000204120002C
:10FCB800010871000600E200030032000104200080
:10FCC80020412000108870000080FA000000060023
:00FCD8002C
:10F7A4000400FA008A1F78008B1F78008C1F7800F1
:10F7B4008D1F78000B0798001C0798006354E10024
:10F7C4001200310062E507000A80FB004100DD0001
:10F7D400C100DD000043200001024000204320005E
:10F7E4008102400060004700000578004DE70700F3
:10F7F4008D1F780085057800040578000E069000BA
:10F804009E0690002BE707002F00B100CF0678007A
:10F814004F067800CF0578004F0578000080FA0085
:04F8240000000600DA
:088D54000004A8000000060065
:109528001A01BE00F0FF2F00F1FF2100001D6100AD
:0895380001956100000006002E
:1094B8000000FA004EBA97008C0D78000C00BE0030
:1094C800010078008000EB0063006000000D780068
:1094D800D00020000C01BE000000E90003003500A8
:1094E8008301D1000281D300FBFF370000FE2F006B
:1094F8000100200000006100818061001A007000F6
:10950800000D78000800E200030032001A0078001D
:1095180068007000000D78000080FA000000060066
:0095280043
:10F720000400FA008A1F78008B1F78008C1F780075
:10F730008D1F78000B0798001C0798007054E1009B
:10F740001200310083E507000A80FB004100DD0064
:10F75000C100DD00004420000102400020442000E0
:10F760008102400060004700000578006EE7070056
:10F770008D1F780085057800040578000E0690003E
:10F780009E0690004CE707002F00B100CF067800DE
:10F790004F067800CF0578004F0578000080FA000A
:04F7A000000006005F
:10F828007050E1000220EF000100310002A0EE005C
:10F838006358E1000020EF000100310000A0EE0055
:10F84800008060001C003200C151DD00340020003F
:10F8580005002000030178000400BE000201E90051
:10F86800030035000000D0008180D200FBFF370084
:10F878000082EA008182EA008041200010086200CC
:10F88800A0412000108862008B0078000001EB0086
:10F89800030078000000E900030035008100D00073
:10F8A8000281D200FBFF37008041200010887000E1
:0CF8B800A04120001008710000000600B4
:08FC4000AA2088000000060064
:10FC480042E40700024220004250DE004100DD008D
:10FC58008000410001017800630065004200DD007A
:10FC680080017800F40020000020DD0000A0EE00F4
:10FC7800910860000358DD001209700000000600BA
:00FC88007C
