:020000040000FA
:060000007CEF07F0120086
:0800080007ED00F012000600F4
:0600100004EF08F01200ED
:060018000CEF08F01200DD
:02002A000000D4
:0600300079EF07F0120059
:09003600204572726F720D0A0080
:10004000010000000000FFFFFFFFFFFFFFFFFFFFB9
:10005000FFFFFFFFFFFFFFFFFFFFFFFFFFFFFFFFB0
:10006000FFFFFFFFFFFFFFFFFFFFFFFFFFFFFFFFA0
:10007000FFFFFFFFFFFFFFFFFFFFFFFFFFFFFFFF90
:100080004C6F636174696F6E206E6F742079657454
:1000900020646566696E6564000000000000000071
:1000A0000000000000000000000000000000000050
:1000B0000000000000000000000000000000000040
:1000C0003C6364693E3C69643E3C6C6F616465728C
:1000D0003E4F70656E4C4342205049432055534279
:1000E00020426F6F74204C6F6164657220466562B8
:1000F00020313120323031322031313A30333A350B
:10010000373C2F6C6F616465723E3C2F69643E3CE6
:100110007365206E613D224C6F6322206F723D2219
:100120002330303430222073703D22234645222074
:1001300062753D2223313433223E3C6279206E6168
:100140003D224E6F6465204964222073693D22364A
:10015000222F3E3C62792073693D223538222F3EA2
:100160003C6368206E613D224C6F63222073693DC1
:10017000223634222F3E3C2F73653E3C2F63646948
:020180003E003F
:0E018200310EB16ECF0EB36E2C0EB26E1200A7
:10019000A1A206D0CF0EB36E2C0EB26EA192010CAE
:1001A000000CD9CFE6FFE1CFD9FFD950FC0FE96EA3
:1001B000FF0EDA20EA6EEF50F66ED950FD0FE96EB1
:1001C000FF0EDA20EA6EEF50F76ED950FE0FE96E9F
:1001D000FF0EDA20EA6EEF50F86ED950FB0FE96E91
:1001E000FF0EDA20EA6EEF50EF0600090DE009007D
:1001F000F90EDBCFE9FFDB2AFA0EDBCFEAFF01E3E2
:10020000DB2AF5CFEFFFE9D7E552E7CFD9FF1200A0
:10021000D9CFE6FFE1CFD9FFD950FC0FE96EFF0E31
:10022000DA20EA6EEF50F66ED950FD0FE96EFF0E40
:10023000DA20EA6EEF50F76ED950FE0FE96EFF0E2E
:10024000DA20EA6EEF50F86E940EA66EF2CF0CF242
:10025000F29EF29C550EA76EAA0EA76EA6820CC245
:10026000F2FF0A00D950FB0FE96EFF0EDA20EA6EAA
:10027000EF50EF06000926E0F90EDBCFE9FFDB2A9D
:10028000FA0EDBCFEAFF01E3DB2AEF50F56E0F0039
:100290001F0EF6141F0808E0D950FB0FE96EFF0E81
:1002A000DA20EA6EEF500DE1840EA66EF2CF0CF26A
:1002B000F29EF29C550EA76EAA0EA76EA6820CC2E5
:1002C000F2FFD0D7A694E552E7CFD9FF1200D9CFDD
:1002D000E6FFE1CFD9FFE150FE0FE96EFF0EDA2015
:1002E000EA6EEFCF00F2020100511CE1120EE66E41
:1002F000000EE66E0E0EE66E400EE66EE66AE66AEA
:1003000050DF466E060EE15E46501250186E1350D6
:10031000196E14501A6E15501B6E16501C6E175025
:100320001D6E8BD00201010E006F026B18C003F22C
:1003300019C004F21AC005F21BC006F21CC007F275
:10034000050EE96E020EEA6ED890EF36010EEB361E
:10035000020EEB3604BF0581020EE96E020EEA6E54
:10036000D890EF36010EEB36020EEB36020EE96E38
:10037000020EEA6EEECF08F2EECF09F2EFCF0AF2EC
:100380000B6B496A18500827195009231A500A2381
:1003900049500B23A90E08274B0E09237A0E0A2376
:1003A000000E0B23080EE96E020EEA6EEECF18F077
:1003B000EECF19F0EFCF1AF00A0EE96E020EEA6ED8
:1003C000EF50E66E080EE96E020EEA6EE552E75057
:1003D000EF6E050EE96E020EEA6EEECF46F0EECF3E
:1003E00047F0EFCF48F0496A4650082747500923A5
:1003F00048500A2349500B231BC046F01CC047F04D
:100400001DC048F0496A1B5008271C5009231D5085
:100410000A2349500B23A30E08270C0E09231B0E99
:100420000A23000E0B23080EE96E020EEA6EEECFD1
:100430001BF0EECF1CF0EFCF1DF00201000508E02D
:100440001E501F1005E000011E1C29E11F1C27E1A2
:1004500018C01EF019C01FF019C046F01AC047F0AE
:10046000040ED89047324632E804FBE146501E1A8B
:1004700047501F1A1B501E1A1C501F1A1CC046F052
:100480001DC047F0040ED89047324632E804FBE125
:1004900046501E1A47501F1A0201010E006F0F0E20
:1004A0001F160201016B0F0140B764D01EC000F09F
:1004B0001FC001F00C6A0201015115E1026A700EC1
:1004C000036E16C046F017C047F0040ED8904732AE
:1004D0004632E804FBE1465002124750031256DB55
:1004E0000201010E46D0010511E1026A600E036EA1
:1004F000FF0E1514466E0F0E1614476E465002126C
:100500004750031243DB0201020E33D0020E015D9D
:1005100015E1026A500E036E13C046F014C047F096
:10052000040ED89047324632E804FBE146500212EE
:10053000475003122BDB0201030E1BD0030E015D9B
:1005400011E1026A400E036EFF0E1214466E0F0E8A
:100550001314476E465002124750031217DB020174
:10056000040E07D0040E015D05E10BDE0201026BF3
:10057000050E016F0DDB000907E01E50001804E1B5
:100580001F50011801E1CED603DE00098CE0020104
:10059000022B0251080801E386D700050FE1120E75
:1005A000E66E000EE66E0E0EE66E400EE66EE66A33
:1005B000E66A2EDE466E060EE15E4650026A070EC1
:1005C000036E1EC000F01FC001F00C6ADFDA0009E4
:1005D000FDE0010EE66E070EE66E06D8E552E55226
:1005E000E552E7CFD9FF1200D9CFE6FFE1CFD9FF1F
:1005F000E150FD0FE96EFF0EDA20EA6EEECF02F059
:10060000EDCF03F01EC000F01FC001F0060E0C6E0F
:100610001750046E1650056E1550066E1450076E76
:100620001350086E1250096EB1DA0009FDE0E55270
:10063000E7CFD9FF1200D9CFE6FFE1CFD9FF1EC027
:1006400000F01FC001F0E150FD0FE96EFF0EDA204F
:10065000EA6EEECF02F0EFCF03F0E00E0312010ED0
:100660000C6E4C0E046E92DA0009FDE0E552E7CF05
:10067000D9FF1200D9CFE6FFE1CFD9FF1EC000F0AD
:100680001FC001F0E150FD0FE96EFF0EDA20EA6EA7
:10069000EECF02F0EFCF03F0E00E0312030E0C6E6C
:1006A0004D0E046EE150FC0FE96EFF0EDA20EA6E8B
:1006B000EF50056EE150FB0FE96EFF0EDA20EA6E97
:1006C000EF50066E63DA0009FDE0E552E7CFD9FF8F
:1006D0001200D9CFE6FF0001300EA16F0E6AE15083
:1006E000FE0FE96EFF0EDA20EA6EEF500F6EE1505A
:1006F000FC0FE96EFF0EDA20EA6EEECF10F0EDCFC0
:1007000011F0E552E7CFD9FF12000F500E5C73E2F3
:10071000080E0F01401504E0080E301501E012002C
:100720001EC000F01FC001F0026AC00E036E0E5022
:1007300003E1026AB00E036E080E0C6E0E500F5CE1
:1007400008080CE30E500F5C0C6E0F50080803E312
:10075000026AE00E02D0026AD00E036E105002123E
:10076000115003120E50EA6AA00FE96E000EEA2241
:10077000EF50046E0E28EA6AA00FE96E000EEA221E
:10078000EF50056E020E0E24EA6AA00FE96E000E0D
:10079000EA22EF50066E030E0E24EA6AA00FE96EFD
:1007A000000EEA22EF50076E040E0E24EA6AA00F34
:1007B000E96E000EEA22EF50086E050E0E24EA6A7A
:1007C000A00FE96E000EEA22EF50096E060E0E240D
:1007D000EA6AA00FE96E000EEA22EF500A6E070ED9
:1007E0000E24EA6AA00FE96E000EEA22EF500B6EAB
:1007F000080E0E26CBD9120000C0E6FF01C0E6FFAE
:100800001ADFE552E55218EF00F012000B0E936E5E
:100810009468040E816E818A81980201800E006FB7
:100820000007FEE1206A1200D9CFE6FFE1CFD9FF31
:10083000E150FE0FE96EFF0EDA20EA6EEF500F0B6B
:10084000300F02010C6FE850390802E2070E0C2746
:100850000CC2E6FF84D9E552E552E7CFD9FF12007A
:10086000D9CFE6FFE1CFD9FFE150FE0FE96EFF0ED1
:10087000DA20EA6EEF380F0BE66ED6DFE552D9507C
:10088000FE0FE96EFF0EDA20EA6EEF50E66ECCDF67
:10089000E552E552E7CFD9FF1200D9CFE6FFE1CF0D
:1008A000D9FFD950FC0FE96EFF0EDA20EA6EEECFC9
:1008B000F6FFEECFF7FFEFCFF8FF0800F55016E098
:1008C000D950FC0FE96EFF0EDA20EA6EEFCFF6FF8B
:1008D000EE2AEFCFF7FF000EEE22EFCFF8FFEE2269
:1008E0000800F550E66E3BD9E552DBD7E552E7CF7D
:1008F000D9FF1200D9CFE6FFE150FE0FE96EFF0EDF
:10090000DA20EA6EEFCF0FF2300E02010F5D06E340
:100910000F51390803E3300E0F5D15D0410E0F5D06
:1009200005E30F51460802E3410E07D0610E0F5D4B
:1009300007E30F51660804E3610E0F5D0A0F03D051
:10094000010E406E000EE552E7CFD9FF1200D9CF5D
:10095000E6FFE1CFD9FFE150FD0FE96EFF0EDA208F
:10096000EA6EEF50E66EC6DFE552466EE66ED9508F
:10097000FE0FE96EFF0EDA20EA6EEF50E66EBADF88
:10098000E552E552E7CF46F0100DF3504610E55220
:10099000E7CFD9FF12003A0EE66EE1D8E552580EC5
:1009A000E66EDDD8E552010EE66E3EDFE5520350FD
:1009B000E66E56DFE5520250E66E52DFE552015018
:1009C000E66E32DFE5520050E66E4ADFE5524E0E2B
:1009D000E66EC5D8E55202010D6B0C500D5D0DE2BF
:1009E0000D51EA6A040FE96E000EEA22EF50E66E3E
:1009F00037DFE55202010D2BF0D73B0EE66EAFD884
:100A0000E5520D0EE66EABD8E5520A0EE66EA7D89B
:100A1000E552010C9AD8000901E1000C3A0E3F5C46
:100A200002E1206A000C3B0E3F5C0EE01D0E205CD4
:100A300001E3206A2050202AEA6A210FE96E000EA5
:100A4000EA223FC0EFFF000C2050202AEA6A210F63
:100A5000E96E000EEA223FC0EFFF406A580E215CAB
:100A600003E0780E215C61E12250E66E43DFE5523F
:100A7000036E2450E66E2350E66E69DFE552E552C0
:100A8000036E2650E66E2550E66E61DFE552E552B4
:100A9000026E2750E66E2EDFE552016E2950E66E9B
:100AA0002850E66E54DFE552E552006E40503DE1BD
:100AB0004E0E2A5C03E06E0E2A5C37E102010A0E3C
:100AC0000D6F0C6B080E0C5D2BE20D51EA6A210FC5
:100AD000E96E000EEA22EF503B0822E00D29EA6A97
:100AE000210FE96E000EEA22EF50E66E0D51EA6A20
:100AF000210FE96E000EEA22EF50E66E28DFE55284
:100B0000E552E66E02010C51EA6A040FE96E000E2E
:100B1000EA22E552E750EF6E0C2B020E0D27D2D7DA
:100B20000CC20CF0206A40500FE0360E466E000EEC
:100B3000476E486A46C0E6FFE66E48C0E6FFADDE97
:100B4000E552E552E552000C010C81B007D09468E3
:100B5000818A819A82503F6E818A010C000CD9CF24
:100B6000E6FFE1CFD9FF81B2FED7946AD950FE0FDC
:100B7000E96EFF0EDA20EA6EEF50826E818881986E
:100B80009468010EE552E7CFD9FF1200CBEF04F0D5
:100B90000AEF05F01E50001802E11F50011816E17F
:100BA0000350800B0DE11EC000F01FC001F0026A6F
:100BB000070E036E0C6AEADF000901E1FCD705D0DD
:100BC000010EE66E67EC01F0E55271D1A70E021836
:100BD00002E1800E031808E1B70EE66E900EE66E95
:100BE00003DDE552E55263D11E50466EB00E1F1074
:100BF000476E4650021802E14750031822E01E508B
:100C0000486EC00E1F10496E4850021802E149504C
:100C1000031817E01E504A6ED00E1F104B6E4A503C
:100C2000021802E14B5003180CE01E504C6EE00E0F
:100C30001F104D6E4C50021802E14D50031801E098
:100C400036D1F00E0314466E476AB00E461801E125
:100C5000475009E0F00E0314486E496AE00E481848
:100C600001E1495006E1416A00C042F001C043F091
:100C700013D00050421802E1015043180DE0000E5D
:100C8000E66EE66A00C0E6FF01C0E6FFF3DCE5526F
:100C9000E552E552E5520BD102010E6B0C500201F8
:100CA0000E5D19E2480E415C16E202010E51EA6A3D
:100CB000040FE96E000EEA22EF50E66E4150412A21
:100CC000EA6AA00FE96E000EEA22E552E750EF6EE5
:100CD00002010E2BE3D7F00E0314466E476AD00EC6
:100CE000461801E147500AE0F00E0314486E496AC5
:100CF000E00E481801E1495001E0D9D0426843684C
:100D0000416A200E0001A05D01E0C4D0EA0EE96E48
:100D1000000EEA6EA3C0EFFFE90EE96E000EEA6E68
:100D2000A4C0EFFFE80EE96E000EEA6EA5C0EFFF6B
:100D3000200E0001A15D1FE1FE0E0001A65D1AE17B
:100D4000A70EE66E000EE66E400EE66EE8C0E6FF09
:100D5000E9C0E6FFEAC0E6FF08EC01F0466E060EC9
:100D6000E15E465000C0E6FF01C0E6FF64DCE552EC
:100D7000E5529DD08FD0600E0001A15D59E1FF0EBC
:100D80000001A65D2FE1C00E466E000E476E486A58
:100D900046500001E82747500001E9234850000170
:100DA000EA23A7C00EF2A70EE66E000EE66E0EC294
:100DB000E6FFE8C0E6FFE9C0E6FFEAC0E6FFD1ECE7
:100DC00000F0466E060EE15E465000C0E6FF01C030
:100DD000E6FF070E02010E25E66E7BDCE552E552CA
:100DE000E55265D0FE0E0001A65D21E1A7C00EF21E
:100DF000A70EE66E000EE66E0EC2E6FFE8C0E6FF46
:100E0000E9C0E6FFEAC0E6FFD1EC00F0466E060E50
:100E1000E15E465000C0E6FF01C0E6FF070E02019A
:100E20000E25E66E56DCE552E552E55240D032D052
:100E3000A40E055C29E1A00EE66E000EE66E400EE3
:100E4000E66EE66A100EE66EE66AD1EC00F0466EDB
:100E5000060EE15E46500001C05112E00001C06B79
:100E6000A00EE66E000EE66E400EE66EE66A100E0E
:100E7000E66EE66A08EC01F0466E060EE15E46504C
:100E8000FF0000EF00F006D0A50E055C03E1FF00B7
:100E900000EF00F0000EE66EE66A00C0E6FF01C05B
:100EA000E6FF3AEC03F0E552E552E552E552120056
:100EB000870EE66E900EE66EF4EC02F0E552E55217
:100EC000416A4268436821DC63DE0009FCE062DEBF
:100ED000FAD70F0EC16E3C0E926E3B0E936E040E4F
:100EE000816E9468F16A446A456A90DC818C818ED7
:100EF0001200EFDF58EF07F010EE60F020EE60F028
:100F000094EC07F0200EF66E100EF76EF86A0800EB
:100F1000F55002E100EF08F0DCDFE66A67EC01F073
:080F2000E552C6DFFED7120006
:080F2800000EF36E00EE00F074
:100F3000030E01D81200EA6002D0EE6AFCD7F3502B
:080F4000E9601200EE6AFCD723
:020000040030CA
:0100010046B8
:0100020006F7
:010003001AE2
:01000500807A
:010006008178
:010008000FE8
:01000900C036
:01000A000FE6
:01000B00E014
:01000C000FE4
:01000D0040B2
:00000001FF
