:020000040000FA
:06000000F0EF06F0120013
:0800080007ED00F012000600F4
:0600100004EF08F01200ED
:060018000CEF08F01200DD
:02002A000000D4
:06003000EDEF06F01200E6
:10004000020000000000FFFFFFFFFFFFFFFFFFFFB8
:10005000FFFFFFFFFFFFFFFFFFFFFFFFFFFFFFFFB0
:10006000FFFFFFFFFFFFFFFFFFFFFFFFFFFFFFFFA0
:10007000FFFFFFFFFFFFFFFFFFFFFFFFFFFFFFFF90
:100080004C6F636174696F6E206E6F742079657454
:1000900020646566696E6564000000000000000071
:1000A0000000000000000000000000000000000050
:1000B0000000000000000000000000000000000040
:1000C0003C6364693E3C69643E3C6C6F616465728C
:1000D0003E4F70656E4C4342205049432043414E91
:1000E00020426F6F74204C6F61646572204A756E98
:1000F00020313320323031322031343A31393A3202
:10010000323C2F6C6F616465723E3C2F69643E3CEB
:100110007365206E613D224E6F646522206F723DD3
:10012000222330303430222073703D222346452272
:100130002062753D2223313433223E3C6279206EA9
:10014000613D224964222073693D2236222F3E3CC4
:1001500062792073693D223538222F3E3C63682046
:100160006E613D224E616D65222073693D223634F9
:0F017000222F3E3C2F73653E3C2F6364693E0097
:10018000310EB16ECF0EB36E2C0EB26E1200A1A264
:1001900006D0CF0EB36E2C0EB26EA192010C000CE5
:1001A000D9CFE6FFE1CFD9FFD950FC0FE96EFF0EA2
:1001B000DA20EA6EEF50F66ED950FD0FE96EFF0EB1
:1001C000DA20EA6EEF50F76ED950FE0FE96EFF0E9F
:1001D000DA20EA6EEF50F86ED950FB0FE96EFF0E91
:1001E000DA20EA6EEF50EF0600090DE00900F90E83
:1001F000DBCFE9FFDB2AFA0EDBCFEAFF01E3DB2AE4
:10020000F5CFEFFFE9D7E552E7CFD9FF1200D9CFFD
:10021000E6FFE1CFD9FFD950FC0FE96EFF0EDA20DF
:10022000EA6EEF50F66ED950FD0FE96EFF0EDA2040
:10023000EA6EEF50F76ED950FE0FE96EFF0EDA202E
:10024000EA6EEF50F86E940EA66EF2CF0CF2F29EAC
:10025000F29C550EA76EAA0EA76EA6820CC2F2FFE4
:100260000A00D950FB0FE96EFF0EDA20EA6EEF505C
:10027000EF06000926E0F90EDBCFE9FFDB2AFA0ED4
:10028000DBCFEAFF01E3DB2AEF50F56E0F001F0E14
:10029000F6141F0808E0D950FB0FE96EFF0EDA20B4
:1002A000EA6EEF500DE1840EA66EF2CF0CF2F29ED4
:1002B000F29C550EA76EAA0EA76EA6820CC2F2FF84
:1002C000D0D7A694E552E7CFD9FF1200D9CFE6FFE9
:1002D000E1CFD9FFE150FE0FE96EFF0EDA20EA6EA2
:1002E000EFCF00F2020100511CE1120EE66E000E8B
:1002F000E66E0E0EE66E400EE66EE66AE66A50DFC9
:10030000256E060EE15E25501250186E1350196EC0
:1003100014501A6E15501B6E16501C6E17501D6E21
:100320008BD00201010E006F026B18C003F219C0DE
:1003300004F21AC005F21BC006F21CC007F2050E3B
:10034000E96E020EEA6ED890EF36010EEB36020E21
:10035000EB3604BF0581020EE96E020EEA6ED890FC
:10036000EF36010EEB36020EEB36020EE96E020E90
:10037000EA6EEECF08F2EECF09F2EFCF0AF20B6B86
:10038000286A18500827195009231A500A232850A0
:100390000B23A90E08274B0E09237A0E0A23000E01
:1003A0000B23080EE96E020EEA6EEECF18F0EECFC8
:1003B00019F0EFCF1AF00A0EE96E020EEA6EEF5056
:1003C000E66E080EE96E020EEA6EE552E750EF6E39
:1003D000050EE96E020EEA6EEECF25F0EECF26F0A6
:1003E000EFCF27F0286A25500827265009232750E9
:1003F0000A2328500B231BC025F01CC026F01DC06B
:1004000027F0286A1B5008271C5009231D500A2377
:1004100028500B23A30E08270C0E09231B0E0A23BA
:10042000000E0B23080EE96E020EEA6EEECF1BF0F3
:10043000EECF1CF0EFCF1DF00201000508E01E50CA
:100440001F1005E000011E1C29E11F1C27E118C038
:100450001EF019C01FF019C025F01AC026F0040EB6
:10046000D89026322532E804FBE125501E1A26508A
:100470001F1A1B501E1A1C501F1A1CC025F01DC02D
:1004800026F0040ED89026322532E804FBE12550F0
:100490001E1A26501F1A0201010E006F0F0E1F16A2
:1004A0000201016B0F0140B764D01EC000F01FC0F5
:1004B00001F00C6A0201015115E1026A700E036E2F
:1004C00016C025F017C026F0040ED890263225322B
:1004D000E804FBE12550021226500312C2DA0201A1
:1004E000010E46D0010511E1026A600E036EFF0E97
:1004F0001514256E0F0E1614266E25500212265066
:100500000312AFDA0201020E33D0020E015D15E1D3
:10051000026A500E036E13C025F014C026F0040EBC
:10052000D89026322532E804FBE1255002122650ED
:10053000031297DA0201030E1BD0030E015D11E1D5
:10054000026A400E036EFF0E1214256E0F0E131476
:10055000266E255002122650031283DA0201040E81
:1005600007D0040E015D05E10BDE0201026B050EF2
:10057000016F79DA000907E01E50001804E11F50EE
:10058000011801E1CED603DE00098CE00201022B46
:100590000251080801E386D700050FE1120EE66E4E
:1005A000000EE66E0E0EE66E400EE66EE66AE66A37
:1005B0002EDE256E060EE15E2550026A070E036EE2
:1005C0001EC000F01FC001F00C6A4BDA0009FDE00C
:1005D000010EE66E070EE66E06D8E552E552E552CC
:1005E000E7CFD9FF1200D9CFE6FFE1CFD9FFE15025
:1005F000FD0FE96EFF0EDA20EA6EEECF02F0EDCFCE
:1006000003F01EC000F01FC001F0060E0C6E175064
:10061000046E1650056E1550066E1450076E13507A
:10062000086E1250096E1DDA0009FDE0E552E7CFB1
:10063000D9FF1200D9CFE6FFE1CFD9FF1EC000F0ED
:100640001FC001F0E150FD0FE96EFF0EDA20EA6EE7
:10065000EECF02F0EFCF03F0E00E0312010E0C6EAE
:100660004C0E046EFED90009FDE0E552E7CFD9FF3C
:100670001200D9CFE6FFE1CFD9FF1EC000F01FC0A6
:1006800001F0E150FD0FE96EFF0EDA20EA6EEECFC9
:1006900002F0EFCF03F0E00E0312030E0C6E4D0ECE
:1006A000046EE150FC0FE96EFF0EDA20EA6EEF50A7
:1006B000056EE150FB0FE96EFF0EDA20EA6EEF5097
:1006C000066ECFD90009FDE0E552E7CFD9FF120051
:1006D000D9CFE6FF0001300EA16F0E6AE150FE0F88
:1006E000E96EFF0EDA20EA6EEF500F6EE150FC0F5C
:1006F000E96EFF0EDA20EA6EEECF10F0EDCF11F0CA
:10070000E552E7CFD9FF12000F500E5C70E2080EE1
:100710000F01401501E012001EC000F01FC001F0E3
:10072000026AC00E036E0E5003E1026AB00E036E41
:10073000080E0C6E0E500F5C08080CE30E500F5C98
:100740000C6E0F50080803E3026AA00E02D0026A82
:10075000D00E036E10500212115003120E50EA6AAE
:10076000A00FE96E000EEA22EF50046E0E28EA6A2E
:10077000A00FE96E000EEA22EF50056E020E0E2465
:10078000EA6AA00FE96E000EEA22EF50066E030E31
:100790000E24EA6AA00FE96E000EEA22EF50076EFF
:1007A000040E0E24EA6AA00FE96E000EEA22EF5052
:1007B000086E050E0E24EA6AA00FE96E000EEA220A
:1007C000EF50096E060E0E24EA6AA00FE96E000EC5
:1007D000EA22EF500A6E070E0E24EA6AA00FE96EB5
:1007E000000EEA22EF500B6E080E0E263AD91200C8
:1007F00000C0E6FF01C0E6FF1DDFE552E55218EF3D
:1008000000F012001F0E6F166F8EE00E6F1480083E
:10081000FCE1030E706EDE0E716E030E726E200E22
:10082000736E800E776E778A0D01F86B606A0F0128
:10083000506B0E01206B306B406B506B606B706BBC
:100840000F01186B1C6B080E196F1D6F1A6B1E6B56
:100850001B6B1F6B0D01D469D569D86BF06BF16B05
:10086000F26BF36B0F01016F056F096F0D6F116F65
:10087000156F0D01616F656F696F716F756F796FBE
:10088000816F856F896F916F1F0E6F16E00E6F1469
:10089000FDE112000F0140B7000CFC0E40170CC028
:1008A00045FF03407F0B8009416F300E0214E8388A
:1008B0000F0B266EC00E0214E8407F0B256E010E52
:1008C0000314800DF350251008092610426F0F0EF7
:1008D0000214100D0F0E0114F310436F00C044FFFB
:1008E00004C046FF05C047FF06C048FF07C049FFD8
:1008F00008C04AFF09C04BFF0AC04CFF0BC04DFFA8
:100900004087010C74AE000C070E6F14060A2AE033
:10091000030A23E0010A1CE0070A15E0010A0EE0C1
:10092000030A07E0010A23E10201600E0D6F0F0EBA
:1009300022D00201500E0D6F0F0E1DD00201200EAD
:100940000D6F0E0E18D00201300E0D6F0E0E13D06B
:100950000201400E0D6F0E0E0ED00201500E0D6FF3
:100960000E0E09D00201600E0D6F0E0E04D00201B2
:10097000700E0D6F0E0E0E6F0D6A74AC02D00D86E8
:10098000749C010EEA6A0D25E96E0E51EA22EF50C1
:10099000E824036E020EEA6A0D25E96E0E51EA2282
:1009A000EF50800BE844010B0312020EEA6A0D259A
:1009B000E96E0E51EA22EF50600BE824026E020E3F
:1009C000EA6A0D25E96E0E51EA22EF50030B100D75
:1009D000F3500212030EEA6A0D25E96E0E51EA2267
:1009E000EF380F0B0212030EEA6A0D25E96E0E5165
:1009F000EA22EF500F0B016E040EEA6A0D25E96E34
:100A00000E51EA22EF50006E050EEA6A0D25E96EDE
:100A10000E51EA22EF500F0B0C6E0C6B0C500C5D5C
:100A200014E2060E0C25EA6A0D25E96E0E51EA2243
:100A3000EF50E66E0C51EA6A040FE96E000EEA22EE
:100A4000E552E750EF6E0C2BE9D7A4AE02D00D882B
:100A5000A49E0DC2E9FF0EC2EAFFEF9EA492749E0F
:100A6000010C4AEF04F082EF04F01E50001802E17E
:100A70001F50011815E10350800B0DE11EC000F05E
:100A80001FC001F0026A070E036E0C6AEADF00095C
:100A900001E1FCD704D0010EE66E18DCE5527DD1F1
:100AA000A70E021802E1880E031808E1B70EE66EE1
:100AB000880EE66E98DDE552E5526FD11E50256E28
:100AC000C00E1F10266E2550021802E12650031892
:100AD00022E01E50276ED00E1F10286E27500218DD
:100AE00002E12850031817E01E50296EB00E1F10A7
:100AF0002A6E2950021802E12A5003180CE01E50F9
:100B00002B6EA00E1F102C6E2B50021802E12C50E1
:100B1000031801E042D1F00E0314256E266AA00EE0
:100B2000251801E1265009E0F00E0314276E286A0B
:100B3000B00E271801E1285006E1206A00C021F01C
:100B400001C022F013D00050211802E101502218F8
:100B50000DE0000EE66EE66A00C0E6FF01C0E6FFAB
:100B600088DDE552E552E552E55217D102010F6BDF
:100B70000C5002010F5D19E2480E205C16E20201E2
:100B80000F51EA6A040FE96E000EEA22EF50E66E9A
:100B90002050202AEA6AA00FE96E000EEA22E552F0
:100BA000E750EF6E02010F2BE3D7F00E0314256E12
:100BB000266AD00E251801E126500AE0F00E031433
:100BC000276E286AA00E271801E1285001E0E5D021
:100BD00021682268206A200E0001A05D01E0D1D0CA
:100BE000EA0EE96E000EEA6EA3C0EFFFE90EE96EB1
:100BF000000EEA6EA4C0EFFFE80EE96E000EEA6E8A
:100C0000A5C0EFFFFB0E0001A65D09E10001FE0E8D
:100C1000A66FE80EE96E000EEA6E800EEF6E200EF3
:100C20000001A15D1FE1FE0E0001A65D1AE1A70E05
:100C3000E66E000EE66E400EE66EE8C0E6FFE9C026
:100C4000E6FFEAC0E6FF07EC01F0256E060EE15E66
:100C5000255000C0E6FF01C0E6FFECDCE552E5529E
:100C60009CD08FD0600E0001A15D59E1FF0E000104
:100C7000A65D2FE1C00E256E000E266E276A255058
:100C80000001E82726500001E92327500001EA234C
:100C9000A7C00FF2A70EE66E000EE66E0FC2E6FFCB
:100CA000E8C0E6FFE9C0E6FFEAC0E6FFD0EC00F0EE
:100CB000256E060EE15E255000C0E6FF01C0E6FF8E
:100CC000070E02010F25E66E03DDE552E552E552FF
:100CD00064D0FE0E0001A65D21E1A7C00FF2A70EB1
:100CE000E66E000EE66E0FC2E6FFE8C0E6FFE9C062
:100CF000E6FFEAC0E6FFD0EC00F0256E060EE15EEE
:100D0000255000C0E6FF01C0E6FF070E02010F25D7
:100D1000E66EDEDCE552E552E5523FD032D0A40E5D
:100D2000055C29E1A00EE66E000EE66E400EE66E52
:100D3000E66A100EE66EE66AD0EC00F0256E060E4E
:100D4000E15E25500001C05112E00001C06BA00E11
:100D5000E66E000EE66E400EE66EE66A100EE66E79
:100D6000E66A07EC01F0256E060EE15E2550FF00F5
:100D700000EF00F006D0A50E055C03E1FF0000EFD8
:100D800000F0000EE66EE66A00C0E6FF01C0E6FF76
:100D900070DCE552E552E552E5521200870EE66E30
:100DA000800EE66E20DCE552E552206A216822685A
:100DB000ABDC59DE0009FCE058DEFAD70F0EC16E3D
:100DC0003C0E926E3B0E936E040E816E9468F16A37
:100DD000236A246A818C818E1200F0DFCEEF06F048
:100DE00010EE60F020EE60F009EC07F0200EF66ED9
:100DF000100EF76EF86A0800F55002E100EF08F0F7
:100E0000DDDF00DDE66A66EC01F0E552C7DFFED704
:020E10001200CE
:0E0E1200000EF36E00EE00F0030E01D8120089
:100E2000EA6002D0EE6AFCD7F350E9601200EE6A85
:020E3000FCD7ED
:061000002CEF1AF01200B3
:021006000000E8
:0810080007ED08F012000600DC
:0610100031EF17F01200A1
:06101800BBEF17F012000F
:0110200000CF
:0E102200000EF36E00EE00F0030E01D8120077
:10103000EA6002D0EE6AFCD7F350E9601200EE6A73
:02104000FCD7DB
:1011000000000000000000000000000000000000DF
:1011100000000000000000000000000000000000CF
:1011200000000000000000000000000000000000BF
:1011300000000000000000000000000000000000AF
:101C4000310EB16ECF0EB36E2C0EB26E1200A1A289
:101C500006D0CF0EB36E2C0EB26EA192010C000C0A
:101C6000D9CFE6FFE1CFD9FFD950FC0FE96EFF0EC7
:101C7000DA20EA6EEF50F66ED950FD0FE96EFF0ED6
:101C8000DA20EA6EEF50F76ED950FE0FE96EFF0EC4
:101C9000DA20EA6EEF50F86ED950FB0FE96EFF0EB6
:101CA000DA20EA6EEF50EF0600090DE00900F90EA8
:101CB000DBCFE9FFDB2AFA0EDBCFEAFF01E3DB2A09
:101CC000F5CFEFFFE9D7E552E7CFD9FF1200D9CF23
:101CD000E6FFE1CFD9FFD950FC0FE96EFF0EDA2005
:101CE000EA6EEF50F66ED950FD0FE96EFF0EDA2066
:101CF000EA6EEF50F76ED950FE0FE96EFF0EDA2054
:101D0000EA6EEF50F86E940EA66EF2CF0CF1F29ED2
:101D1000F29C550EA76EAA0EA76EA6820CC1F2FF0A
:101D20000A00D950FB0FE96EFF0EDA20EA6EEF5081
:101D3000EF06000926E0F90EDBCFE9FFDB2AFA0EF9
:101D4000DBCFEAFF01E3DB2AEF50F56E0F001F0E39
:101D5000F6141F0808E0D950FB0FE96EFF0EDA20D9
:101D6000EA6EEF500DE1840EA66EF2CF0CF1F29EFA
:101D7000F29C550EA76EAA0EA76EA6820CC1F2FFAA
:101D8000D0D7A694E552E7CFD9FF1200D9CFE6FF0E
:101D9000E1CFD9FFE150FE0FE96EFF0EDA20EA6EC7
:101DA000EFCF00F1010100511CE1120EE66E000EB2
:101DB000E66E0E0EE66E400EE66EE66AE66A50DFEE
:101DC000476E060EE15E47501250186E1350196EA2
:101DD00014501A6E15501B6E16501C6E17501D6E47
:101DE0008BD00101010E006F026B18C003F119C006
:101DF00004F11AC005F11BC006F11CC007F1050E65
:101E0000E96E010EEA6ED890EF36010EEB36020E47
:101E1000EB3604BF0581020EE96E010EEA6ED89022
:101E2000EF36010EEB36020EEB36020EE96E010EB6
:101E3000EA6EEECF08F1EECF09F1EFCF0AF10B6BAE
:101E40004A6A18500827195009231A500A234A5081
:101E50000B23A90E08274B0E09237A0E0A23000E26
:101E60000B23080EE96E010EEA6EEECF18F0EECFEE
:101E700019F0EFCF1AF00A0EE96E010EEA6EEF507C
:101E8000E66E080EE96E010EEA6EE552E750EF6E5F
:101E9000050EE96E010EEA6EEECF47F0EECF48F088
:101EA000EFCF49F04A6A4750082748500923495064
:101EB0000A234A500B231BC047F01CC048F01DC02A
:101EC00049F04A6A1B5008271C5009231D500A2359
:101ED0004A500B23A30E08270C0E09231B0E0A23BE
:101EE000000E0B23080EE96E010EEA6EEECF1BF01A
:101EF000EECF1CF0EFCF1DF00101000508E01E50F1
:101F00001F1005E000011E1C29E11F1C27E118C05D
:101F10001EF019C01FF019C047F01AC048F0040E97
:101F2000D89048324732E804FBE147501E1A485027
:101F30001F1A1B501E1A1C501F1A1CC047F01DC030
:101F400048F0040ED89048324732E804FBE147508D
:101F50001E1A48501F1A0101010E006F0F0E1F16A6
:101F60000101016B0F0140B764D01EC000F01FC01B
:101F700001F00C6A0101015115E1026A700E036E55
:101F800016C047F017C048F0040ED89048324732C8
:101F9000E804FBE14750021248500312DBD901016B
:101FA000010E46D0010511E1026A600E036EFF0EBC
:101FB0001514476E0F0E1614486E47500212485003
:101FC0000312C8D90101020E33D0020E015D15E1E2
:101FD000026A500E036E13C047F014C048F0040E9E
:101FE000D89048324732E804FBE14750021248508B
:101FF0000312B0D90101030E1BD0030E015D11E1E4
:10200000026A400E036EFF0E1214476E0F0E131479
:10201000486E47500212485003129CD90101040E29
:1020200007D0040E015D05E10BDE0101026B050E18
:10203000016FC8D9000907E01E50001804E11F50C5
:10204000011801E1CED603DE00098CE00101022B6C
:102050000251080801E386D700050FE1120EE66E73
:10206000000EE66E0E0EE66E400EE66EE66AE66A5C
:102070002EDE476E060EE15E4750026A070E036EC3
:102080001EC000F01FC001F00C6A64D90009FDE019
:10209000010EE66E070EE66E06D8E552E552E552F1
:1020A000E7CFD9FF1200D9CFE6FFE1CFD9FFE1504A
:1020B000FD0FE96EFF0EDA20EA6EEECF02F0EDCFF3
:1020C00003F01EC000F01FC001F0060E0C6E17508A
:1020D000046E1650056E1550066E1450076E1350A0
:1020E000086E1250096E36D90009FDE0E552E7CFBF
:1020F000D9FF1200D9CFE6FFE1CFD9FF1EC000F013
:102100001FC001F0E150FD0FE96EFF0EDA20EA6E0C
:10211000EECF02F0EFCF03F0E00E0312010E0C6ED3
:102120004C0E046E17D90009FDE0E552E7CFD9FF48
:102130001200D9CFE6FFE1CFD9FF1EC000F01FC0CB
:1021400001F0E150FD0FE96EFF0EDA20EA6EEECFEE
:1021500002F0EFCF03F0E00E0312030E0C6E4D0EF3
:10216000046EE150FC0FE96EFF0EDA20EA6EEF50CC
:10217000056EE150FB0FE96EFF0EDA20EA6EEF50BC
:10218000066EE8D80009FDE0E552E7CFD9FF12005E
:10219000D9CFE6FF0201300E016F0E6AE150FE0F4B
:1021A000E96EFF0EDA20EA6EEF500F6EE150FC0F81
:1021B000E96EFF0EDA20EA6EEECF10F0EDCF11F0EF
:1021C000E552E7CFD9FF12000F500E5C70E2080E07
:1021D0000F01401501E012001EC000F01FC001F009
:1021E000026AC00E036E0E5003E1026AB00E036E67
:1021F000080E0C6E0E500F5C08080CE30E500F5CBE
:102200000C6E0F50080803E3026AA00E02D0026AA7
:10221000D00E036E10500212115003120E50EA6AD3
:10222000000FE96E020EEA22EF50046E0E28EA6AF1
:10223000000FE96E020EEA22EF50056E020E0E2428
:10224000EA6A000FE96E020EEA22EF50066E030EF4
:102250000E24EA6A000FE96E020EEA22EF50076EC2
:10226000040E0E24EA6A000FE96E020EEA22EF5015
:10227000086E050E0E24EA6A000FE96E020EEA22CD
:10228000EF50096E060E0E24EA6A000FE96E020E88
:10229000EA22EF500A6E070E0E24EA6A000FE96E7A
:1022A000020EEA22EF500B6E080E0E2653D81200D3
:1022B00000C0E6FF01C0E6FF1DDFE552E55218EF62
:1022C00000F012001F0E6F166F8EE00E6F14800864
:1022D000FCE1030E706EDE0E716E030E726E200E48
:1022E000736E800E776E778A0D01F86B606A0F014E
:1022F000506B0E01206B306B406B506B606B706BE2
:102300000F01186B1C6B080E196F1D6F1A6B1E6B7B
:102310001B6B1F6B0D01D469D569D86BF06BF16B2A
:10232000F26BF36B0F01016F056F096F0D6F116F8A
:10233000156F0D01616F656F696F716F756F796FE3
:10234000816F856F896F916F1F0E6F16E00E6F148E
:10235000FDE112000F0140B7000CFC0E40170CC04D
:1023600045FF03407F0B8009416F300E0214E838AF
:102370000F0B486EC00E0214E8407F0B476E010E33
:102380000314800DF350471008094810426F0F0ED8
:102390000214100D0F0E0114F310436F00C044FF20
:1023A00004C046FF05C047FF06C048FF07C049FFFD
:1023B00008C04AFF09C04BFF0AC04CFF0BC04DFFCD
:1023C0004087010C74AE000C070E6F14060A2AE059
:1023D000030A23E0010A1CE0070A15E0010A0EE0E7
:1023E000030A07E0010A23E10101600E0D6F0F0EE1
:1023F00022D00101500E0D6F0F0E1DD00101200ED5
:102400000D6F0E0E18D00101300E0D6F0E0E13D091
:102410000101400E0D6F0E0E0ED00101500E0D6F1A
:102420000E0E09D00101600E0D6F0E0E04D00101D9
:10243000700E0D6F0E0E0E6F0D6A74AC02D00D860D
:10244000749C010EEA6A0D25E96E0E51EA22EF50E6
:10245000E824036E020EEA6A0D25E96E0E51EA22A7
:10246000EF50800BE844010B0312020EEA6A0D25BF
:10247000E96E0E51EA22EF50600BE824026E020E64
:10248000EA6A0D25E96E0E51EA22EF50030B100D9A
:10249000F3500212030EEA6A0D25E96E0E51EA228C
:1024A000EF380F0B0212030EEA6A0D25E96E0E518A
:1024B000EA22EF500F0B016E040EEA6A0D25E96E59
:1024C0000E51EA22EF50006E050EEA6A0D25E96E04
:1024D0000E51EA22EF500F0B0C6E0C6B0C500C5D82
:1024E00014E2060E0C25EA6A0D25E96E0E51EA2269
:1024F000EF50E66E0C51EA6A040FE96E000EEA2214
:10250000E552E750EF6E0C2BE9D7A4AE02D00D8850
:10251000A49E0DC1E9FF0EC1EAFFEF9EA492749E36
:10252000010C0101056B066B080E065D0CE20651FD
:102530000001EA6AEC25E96EED51EA22EF50010153
:10254000051B062BF1D70551476E486A060ED89039
:1025500047364836E804FBE147C007F148C008F1B8
:102560000101400E075D0B0E085905E3400E075FA1
:102570000B0E085BF5D707C1F3FF08C1F4FF12008B
:102580000101036B080E035D1AE203510001EA6AC0
:10259000EE25E96EEF51EA22EFCF47F0070E010179
:1025A000D88003550001EA6AF025E96EF151EA226C
:1025B000EF50475C01E0000C0101032BE3D7010C55
:1025C000D9CFE6FFE1CFD9FF0101056BD950FE0F4E
:1025D000E96EFF0EDA20EA6EEF50055D19E2055153
:1025E0000001EA6AF225E96EF351EA22EFCF47F0E3
:1025F000010105510001EA6AF425E96EF551EA226C
:10260000EF50475C02E0000E04D00101052BDED73D
:10261000010EE552E7CFD9FF1200D9CFE6FFE1CF97
:10262000D9FF0101056BD950FE0FE96EFF0EDA20CC
:10263000EA6EEF50055D0EE205510001EA6AF625EB
:10264000E96EF751EA22EF5002E0000E04D00101DA
:10265000052BE9D7010EE552E7CFD9FF1200D9CFFC
:10266000E6FFE1CFD9FF020EE1260101006B400E2B
:10267000005D09E20051EA6AA00FE96E000EEA224D
:10268000EF6A002BF4D7D9CFE9FFDACFEAFFEE6A81
:10269000ED6AD9CFE9FFDACFEAFFEECF47F0EFCF0F
:1026A00048F0400E475C0B0E485828E2A00EE66E3C
:1026B000000EE66E400EE66ED9CFE9FFDACFEAFFF4
:1026C000EECF47F0EFCF48F0000E4726110E48221C
:1026D000496A47C0E6FF48C0E6FF49C0E6FF67EC2D
:1026E0000EF04A6E060EE15E4A50D9CFE9FFDACF0E
:1026F000EAFF400EEE26000EED22CBD7020EE15C83
:1027000002E2E16AE552E16EE552E7CFD9FF12003D
:10271000F8C0ECF0F9C0EDF004DFF3CF00F1F4CF36
:1027200001F1A00EE66E000EE66E400EE66E000EA3
:1027300001010025476E110E0121486E496A47C00C
:10274000E6FFE66E49C0E6FF30EC0EF04A6E060E7C
:10275000E15E4A500101026B370E025D30E2F8C0C3
:10276000F0F0F9C0F1F002510001EE6FEF6BA00E36
:10277000EE27000EEF2304DF00090DE0080E010133
:1027800002250001FE6FFF6BA00EFE27000EFF2347
:10279000CCEC17F010D0080EE66E010102510001DA
:1027A000F66FF76BA00EF627000EF72336DFE55223
:1027B000000901E01200090E01010227CDD7400EE9
:1027C0000027000E0123400E005D0B0E0159A9E306
:1027D000400E005F0B0E015BA4D7D9CFE6FFE1CF1F
:1027E000D9FF0101070E026F006F470EE76E001957
:1027F000E8AE02D0E73402D0E750005D0CE200C141
:10280000E9FFEA6AE9BEEA68000EE926020EEA225A
:10281000EF6A002BEAD7D950FD0FE96EFF0EDA20E0
:10282000EA6EEE50ED1003E10001EA6BEB6B3F0E38
:102830000001EA150101016F006F013503E2090E85
:10284000015FFBD7090E0127015119E1090E00258F
:10285000476E400EE76E4718E8AE02D0E73402D06C
:10286000E750475C0CE3400ED8800055476E486A3D
:1028700047BE486847500001EA274850EB23000153
:10288000400EEA5D0B0EEB5901E38AD0EA513F0B93
:102890001BE1A00EE66E000EE66E400EE66E000E28
:1028A000EA25476E110EEB21486E496A47C0E6FFE4
:1028B000E66E49C0E6FF30EC0EF04A6E060EE15EB1
:1028C0004A500101016B006B0101015119E1070E32
:1028D000E66E00290001F66FF76B800B01E0F769E7
:1028E000A00EF627000EF72398DEE552000908E057
:1028F000090E010100270001EA27000EEB232AD070
:1029000001010051002BE96EEA6AE9BEEA68A00EF7
:10291000E926000EEA22EF50E66E0251022BE96E24
:10292000EA6AE9BEEA68000EE926020EEA22E552EA
:10293000E750EF6E0001EA2B000EEB230101012BA3
:10294000470EE76E0219E8AE02D0E73402D0E75036
:10295000025D26E2090E0101E76E0119E8AE02D020
:10296000E73402D0E750015D01E3016B015101E062
:1029700086D7090E0025476E400EE76E4718E8AE71
:1029800002D0E73402D0E750475C01E278D7400E2E
:10299000D8800055476E486A47AE6CD748686AD7FA
:1029A000E552E7CFD9FF1200D9CFE6FFE1CFD9FF3B
:1029B0000101006B016B400E005D0B0E015901E33C
:1029C00079D0A00EE66E000EE66E400EE66E000EAA
:1029D0000025476E110E0121486E496A47C0E6FF87
:1029E000E66E49C0E6FF30EC0EF04A6E060EE15E80
:1029F0000101026B400EE76E0219E8AE02D0E73427
:102A000002D0E750025D51E2070EE66E0229000196
:102A1000F66FF76B800B01E0F769A00EF627000E4A
:102A2000F723FBDDE55200093CE1D950FD0FE96ECB
:102A3000FF0EDA20EA6EEE50ED102AE10101036B81
:102A4000080EE76E0319E8AE02D0E73402D0E75073
:102A5000035D1CE2070E0225D8800355E96EEA6A81
:102A6000E9BEEA68A00EE926000EEA22EF50E66E03
:102A700003C1E9FFEA6AE9BEEA68040EE926000E2E
:102A8000EA22E552E750EF6E032BDAD7010E13D09E
:102A9000D950FD0FE96EFF0EDA20EA6EEE06000E49
:102AA000EF5A090E01010227A5D7400E0027000E9C
:102AB000012381D7000EE552E7CFD9FF1200FAC0FB
:102AC000ECF0FBC0EDF02DDDF3CF00F1F4CF01F120
:102AD000A00EE66E000EE66E400EE66E000E0101E0
:102AE0000025476E110E0121486E496A47C0E6FF76
:102AF000E66E49C0E6FF30EC0EF04A6E060EE15E6F
:102B00004A500101026B370E025D26E2090EE66EA5
:102B1000FAC0F4F0FBC0F5F002510001F26FF36B64
:102B2000A00EF227000EF3234BDDE552000901E071
:102B30001200080EE66E010102510001F66FF76BFC
:102B4000A00EF627000EF72368DDE552000912E11A
:102B5000090E01010227D7D7400E0027000E0123DE
:102B6000400E005D0B0E0159B3E3400E005F0B0EEB
:102B7000015BAED7FAC0ECF0FBC0EDF0D2DCF3CFD6
:102B800000F1F4CF01F1A00EE66E000EE66E400EED
:102B9000E66E000E01010025476E110E0121486E00
:102BA000496A47C0E6FFE66E49C0E6FF30EC0EF02A
:102BB0004A6E060EE15E4A500101026B370E025D5D
:102BC00046E2070EE66E02290001F66FF76BA00ED3
:102BD000F627000EF72321DDE552000934E001015C
:102BE000036B090E035D16E203510001EA6AFA2540
:102BF000E96EFB51EA22EF50E66E01010251032516
:102C0000EA6AA00FE96E000EEA22E552E750EF6E85
:102C1000032BE7D7A00EE66E000EE66E400EE66EC2
:102C2000000E0025476E110E0121486E496A47C00B
:102C3000E6FFE66E49C0E6FF67EC0EF04A6E060E50
:102C4000E15E4A501200090E01010227B7D7400E7B
:102C50000027000E0123400E005D0B0E015993E387
:102C6000400E005F0B0E015B8ED7D9CFE6FFE1CFA0
:102C7000D9FFE150FD0FE96EFF0EDA20EA6EEE504B
:102C8000ED1003E1ECDC0001E06B0101070E046FC5
:102C9000090E0001E05D19E2470E0101045D15E235
:102CA0000451042BEA6A000FE96E020EEA22EF508B
:102CB000E66E0001E051E02BEA6AE10FE96E000EDA
:102CC000EA22E552E750EF6EE3D7090E0001E05D1E
:102CD00012E3E06B080EE66E0001E10EF66F000EE7
:102CE000F76F9BDCE552000906E10001E10EFA6F87
:102CF000000EFB6FE4DE470E0101045DC9E3E552FF
:102D0000E7CFD9FF1200FCC0ECF0FDC0EDF091EC74
:102D100012F0F3CF01F1F4CF02F1A00EE66E000E37
:102D2000E66E400EE66E000E01010125476E110EA3
:102D30000221486E496A47C0E6FFE66E49C0E6FFD9
:102D400030EC0EF04A6E060EE15E4A500101006B57
:102D5000036B370E035D5AE2080EE66EFCC0F4F01A
:102D6000FDC0F5F003510001F26FF36BA00EF227E6
:102D7000000EF32325DCE552000919E00101046B84
:102D8000090E045D0AE203510425EA6AA00FE96E08
:102D9000000EEA22EF6A042BF3D70351EA6AA00F70
:102DA000E96E000EEA22EF68010E006F2BD0080ECC
:102DB000E66E010103510001F66FF76BA00EF627D6
:102DC000000EF7232ADCE55200091CE00101005146
:102DD00047E0A00EE66E000EE66E400EE66E000EB8
:102DE0000125476E110E0221486E496A47C0E6FF71
:102DF000E66E49C0E6FF67EC0EF04A6E060EE15E35
:102E00004A501200090E01010327A3D7005118E010
:102E1000A00EE66E000EE66E400EE66E000E012578
:102E2000476E110E0221486E496A47C0E6FFE66E02
:102E300049C0E6FF67EC0EF04A6E060EE15E4A50AE
:102E4000400E01010127000E0223400E015D0B0E12
:102E5000025901E262D7400E015F0B0E025B5DD7A3
:102E60001200DACFE4FFE2CFDAFFE9CFE4FFEACFE6
:102E7000E4FFF3CFE4FFF4CFE4FFE652FB0ED76E9E
:102E80001E0ED66EF2943528030B356E205021109D
:102E900002E0246817D036A40BD03550E824090F7F
:102EA000EA6A250FE96E000EEA22EF50246E0AD07E
:102EB0003550E824010FEA6A250FE96E000EEA2278
:102EC000EF50246E236A080E235C0BE224AE02D07E
:102ED000818A01D0819A81888198249E2446232A60
:102EE000F2D72050211002E0246816D036A40BD06F
:102EF0003550E824080FEA6A250FE96E000EEA2231
:102F0000EF50246E09D03550E824EA6A250FE96EA7
:102F1000000EEA22EF50246E236A080E235C0BE2B7
:102F200024AE02D0818A01D0819A81888198249E22
:102F30002446232AF2D782840000818281923F0EA8
:102F40008216030E3514400DF3508212225001E018
:102F50008294E552E5CFF4FFE5CFF3FFE5CFEAFF3A
:102F6000E5CFE9FFE5CFDAFF1100226A8284120083
:102F7000010E226E1200D8CFE4FFE0CFE4FFE46E32
:102F8000DACFE4FFE652E552E5CFDAFFE550E5CFD0
:102F9000E0FFE5CFD8FF1000FEC0E9FFFFC0EAFF69
:102FA000EFCF05F1070E01010515036F0551E8404C
:102FB000E840E8401F0B070B046FC00E05170551D2
:102FC00011E10351EA6A370FE96E000EEA22EF1CA5
:102FD000476E0451EA6A250FE96E000EEA22475057
:102FE000EF1627D0400E055D11E10351EA6A370F55
:102FF000E96E000EEA22EF1C476E0451EA6A250FC3
:10300000E96E000EEA224750EF1635D0800E055DBE
:1030100022E10351EA6A370FE96E000EEA22EFCF90
:1030200047F00451EA6A250FE96E000EEA22475084
:10303000EF120351EA6A370FE96E000EEA22EF1C25
:10304000476E080E0425EA6A250FE96E000EEA2293
:103050004750EF1612000351EA6A370FE96E000E6F
:10306000EA22EFCF47F00451EA6A250FE96E000E1D
:10307000EA224750EF120351EA6A370FE96E000E59
:10308000EA22EFCF47F0080E0425EA6A250FE96E21
:10309000000EEA224750EF1212002FEF13F0D9CFA3
:1030A000E6FFE1CFD9FFD950FE0FE96EFF0EDA201F
:1030B000EA6EEF50EF0600090CE001013B0E006FD5
:1030C000020E016F0007000E015B00510111EBE0E1
:1030D000F9D7E552E7CFD9FF1200DF0E021802E15F
:1030E0008A0E03181BE0B70E021802E18A0E0318BD
:1030F00010E0A70E021802E1880E031801E012008A
:10310000B70EE66E880EE66E53EC10F0E552E5520F
:103110001200010E446E456A466A1200010E436EAB
:10312000425033E082B207D00001040EFC6F000E63
:10313000FD6F83EF16F004C0E1F005C0E2F006C0B9
:10314000E3F007C0E4F008C0E5F009C0E6F00AC00B
:10315000E7F00BC0E8F03F0E8014E66EE90EE96E72
:10316000000EEA6EE552E750EE6EED6A82B802D0CC
:103170000001E98D82B602D00001E98F0001E10E65
:10318000FA6F000EFB6F5FEF15F00001040EF86F91
:10319000000EF96F88EF13F0F00E0314476E486AC3
:1031A000B00E471801E1485009E0F00E0314496ED3
:1031B0004A6AA00E491801E14A5006E1416A00C07E
:1031C0003FF001C040F014D000503F1802E1015020
:1031D00040180EE0000EE66EE66A00C0E6FF01C091
:1031E000E6FF99EC10F0E552E552E552E55233D195
:1031F0000101096B0C500101095D19E2480E415CA7
:1032000016E201010951EA6A040FE96E000EEA2292
:10321000EF50E66E4150412AEA6A000FE96E020E55
:10322000EA22E552E750EF6E0101092BE3D7F00ED9
:103230000314476E486AD00E471801E148500AE06F
:10324000F00E0314496E4A6AA00E491801E14A5073
:1032500001E001D13F684068416A200E0201005D33
:1032600001E0ECD04A0EE96E020EEA6E03C2EFFFF7
:10327000490EE96E020EEA6E04C2EFFF480EE96ED7
:10328000020EEA6E05C2EFFFFB0E0201065D09E1C8
:103290000201FE0E066F480EE96E020EEA6E800E07
:1032A000EF6E200E0201015D33E1FE0E0201065DAC
:1032B0001BE1070EE66E020EE66E400EE66E48C299
:1032C000E6FF49C2E6FF4AC2E6FF67EC0EF0476E32
:1032D000060EE15E475000C0E6FF01C0E6FF7AEC53
:1032E00010F0E552E552B7D00201065110E148C294
:1032F000E6FF49C2E6FFB9DCE552E55200C0E6FF51
:1033000001C0E6FF7AEC10F0E552E552A4D096D069
:10331000600E0201015D76E1FF0E0201065D30E103
:103320004A0E476E370E486E496A475002014827D9
:10333000485002014923495002014A2307C209F1BA
:10334000070EE66E020EE66E09C1E6FF48C2E6FF12
:1033500049C2E6FF4AC2E6FF30EC0EF0476E060EA9
:10336000E15E475000C0E6FF01C0E6FF070E010125
:103370000925E66EC8EC10F0E552E552E5526BD037
:10338000FE0E0201065D22E107C209F1070EE66E9C
:10339000020EE66E09C1E6FF48C2E6FF49C2E6FF3B
:1033A0004AC2E6FF30EC0EF0476E060EE15E475073
:1033B00000C0E6FF01C0E6FF070E01010925E66E29
:1033C000C8EC10F0E552E552E55245D00201065135
:1033D00018E107C209F148C2E6FF49C2E6FFEDEC79
:1033E00013F0E552E55200C0E6FF01C0E6FF070E0C
:1033F00001010925E66EC8EC10F0E552E552E552F0
:103400002AD01CD0A50E055C04E1FF0000EF00F0FF
:1034100015D0A70E055C06E1F29EF29C828458EC62
:1034200011F00CD0A60E055C09E137DE00C0E6FF06
:1034300001C0E6FF7AEC10F0E552E5520550E66E69
:10344000E66A00C0E6FF01C0E6FF99EC10F0E55225
:10345000E552E552E55212000F0EC16E3F0E926E1C
:10346000896A090E936E8A6A040E816E1B0E946E31
:103470008B6A040E826EF16A820ED56ED76AD66AA6
:103480000A0E206E216A62EC11F0200EF26E040E1C
:10349000F16EF06A9E6AA16AA46A200E9D6EA06A0F
:1034A000A36A9F6AA26AA56A800ED06E010E376E6B
:1034B000020E386E040E396E080E3A6E100E3B6E18
:1034C000200E3C6E400E3D6E800E3E6E426A010E36
:1034D000226E01010F6B100E0F5D09E20F51EA6AB7
:1034E000250FE96E000EEA22EF6A0F2BF4D73F6832
:1034F0004068416A010E446E456A466AF28EF28C5B
:10350000000EE66E020EE66E400EE66E000E476E90
:10351000110E486E496A4A6A47C0E6FFE66E49C026
:10352000E6FF30EC0EF04B6E060EE15E4B500101F3
:10353000106B0F6B400E0F5D0AE20F51EA6A000F2D
:10354000E96E020EEA22EF5010130F2BF3D7105141
:1035500002E12FEC13F082B216D00A0EE66E9FDD68
:10356000E55282B210D02FEC13F001010F6B080E60
:103570000F5D09E20F51EA6A250FE96E000EEA229B
:10358000EF6A0F2BF4D7E66AC6EC0EF0E552818E97
:10359000819C870EE66E800EE66E53EC10F0E552CD
:1035A000E55227EC0EF0000901E17AD0435002E029
:1035B000818C01D0819C436A362A82B048D0425027
:1035C000422A020848E2030E426E818C01010F6B11
:1035D000100E0F5D09E20F51EA6A250FE96E000E29
:1035E000EA22EF6A0F2BF4D73F0E80140F6F070EFD
:1035F0000F15EA6A370FE96E000EEA22EF50E66E09
:103600000F51E840E840E8401F0B070BEA6A250F1E
:10361000E96E000EEA22E552E750EF6E070E0F1535
:10362000EA6A370FE96E000EEA22EF50E66E0F519C
:10363000E840E840E8401F0B070B080FEA6A250F37
:10364000E96E000EEA22E552E750EF6E04D04250D8
:1036500002E0426A819C2050211003E02006000E07
:10366000215A44501DE045C0E6FF46C0E6FFD4ECB9
:1036700014F0E552E552000912E01EC000F01FC030
:1036800001F06B0E026E820E036E080E0C6EAAEC39
:1036900011F0000905E0452A000E462201D0446AD7
:1036A000E4EC10F0E2EC11F0000901E17AD71E50D1
:1036B000001819E11F50011816E10350800B0EE1AC
:1036C0001EC000F01FC001F0026A070E036E0C6AF4
:1036D000AAEC11F0000901E064D7FAD7010EE66EFA
:1036E000C6EC0EF05DD71E50476EC00E1F10486E20
:1036F0001E50021802E14850031821E01E50496E86
:10370000D00E1F104A6E1E50021802E14A500318D4
:1037100016E01E504B6EB00E1F104C6E1E5002185D
:1037200002E14C5003180BE01E504D6EA00E1F100E
:103730004E6E1E50021807E14E50031804E1010EB0
:0A374000436E2ADD2ED7C9DC2CD71A
:06374A003C6364693E3C93
:1037500069643E3C736F6674776172653E4F706555
:103760006E4C4342205049432043414E4C45442037
:103770004A756E20313320323031322031343A33C1
:10378000313A31393C2F736F6674776172653E3C14
:103790002F69643E3C7365206E613D224E616D650C
:1037A000222073703D22234642222062753D22234F
:1037B000333033223E3C6368206E613D224E616DA2
:1037C00065222073693D223634222F3E3C2F7365DB
:1037D0003E3C7365206E613D224E6F6465204964F6
:1037E00022206F723D222330303430222073703D0E
:1037F00022234645222062753D2223333433223E64
:103800003C696E206E613D2253657269616C2220B5
:1038100073693D2231222F3E3C696E206E613D224C
:103820004D656D626572222073693D2233222F3E01
:103830003C6279206E613D2247726F757022207361
:10384000693D2232222F3E3C2F73653E3C7365203A
:103850006E613D224576656E7473222073703D2241
:1038600030222062753D2223333033223E3C677282
:10387000207265703D22313530223E3C6279206EE7
:10388000613D224576656E74222073693D2238229F
:103890002F3E3C6279206E613D22416374696F6EF8
:1038A000222F3E3C2F67723E3C2F73653E3C2F63B8
:0438B00064693E0009
:020000040030CA
:0100010046B8
:0100020006F7
:010003001AE2
:01000500807A
:010006008178
:010008000FE8
:01000900C036
:01000A000FE6
:01000B00E014
:01000C000FE4
:01000D0040B2
:00000001FF
