:100000000C946F000C9497000C9497000C9497003C
:100010000C9497000C9497000C9497000C94970004
:100020000C9497000C9497000C9497000C949700F4
:100030000C9497000C9497000C9497000C949700E4
:100040000C94B50D0C9497000C94750B0C949700C0
:100050000C9497000C9497000C9497000C949700C4
:100060000C9497000C94970004B6E704B6D304B63A
:10007000C704B6C302900703AC8103AC80029000B2
:1000800000000000240027002A00000000002500D6
:1000900028002B0000000000230026002900040493
:1000A0000404040404040202020202020303030320
:1000B00003030102040810204080010204081020FC
:1000C00001020408102000000007000201000003E4
:1000D00004060000000000000000300A2E0C11246D
:1000E0001FBECFEFD4E0DEBFCDBF11E0A0E0B1E096
:1000F000EEE2FFE102C005900D92A236B107D9F7FA
:1001000012E0A2E6B1E001C01D92A137B107E1F70C
:1001100010E0CEEDD0E004C02297FE010E94910FC6
:10012000CA3DD107C9F70E94450B0C94950F0C945A
:1001300000002A980E948A028FEF0E948A022A9A5F
:100140000895FF920F931F93182F062FF42E2A98CD
:1001500085E00E948A02812F0E948A02802F0E94DD
:100160008A028F2D0E948A022A9A1F910F91FF9076
:1001700008951F93182F2A9883E00E948A02812FE6
:100180000E948A028FEF0E948A022A9A1F91089584
:100190000F931F93182F062F2A9882E00E948A023D
:1001A000812F0E948A02802F0E948A022A9A1F9120
:1001B0000F9108950F931F93CF93DF93182F8830DB
:1001C00008F05AC02A9A229A2D982B982C98259A92
:1001D000239A24980E9485022A9880EC0E948A0221
:1001E0002A9A80E991E00197F1F72A9882E00E942B
:1001F0008A0288E20E948A02E3E01E9FE001112445
:10020000FE01E859FF4FE4918E2F0E948A02FE0101
:10021000E759FF4FE4918E2F0E948A02C659DF4FA3
:10022000FE010491802F0E948A0283E00E948A02CC
:100230002A9A8DE060E00E94C80080E664E60E9491
:10024000C80080E760E60E94C80053985B9A8CE083
:1002500060E00E94C8008AE20E94B900182F8FE077
:1002600060E00E94C800101739F48EE00E94B900C7
:10027000807ED9F781E001C080E0DF91CF911F91AE
:100280000F91089580EA0E9499000895DF92EF92FD
:10029000FF920F931F93CF93DF93EC0180EB0E94AB
:1002A0009900D82E809162018D2161F4D6FE06C09E
:1002B0008D2D80788093620180E907C0D7FC02C051
:1002C00080E03CC01092620184E92A980E948A0270
:1002D000CE010E94A6018170880F9C819D7F982B82
:1002E0009C838FEF0E948A02ED2CFF24970193E0FC
:1002F000369527959A95E1F721709C819E7F922BE8
:100300009C83082F0F700D8310E008C08FEF0E94B0
:100310008A02FE01E10FF11D86831F5F1017B0F303
:100320002A9AE6FE03C08CE261E002C08CE262E041
:1003300040E00E94A1008D2D87708F5FDF91CF91EB
:100340001F910F91FF90EF90DF9008951F93CF932F
:10035000DF93EC018FEF0E948A02182F8FEF0E942B
:100360008A02482F212F30E083FF21C08FEF8EBDFE
:1003700095E0220F331F9A95E1F73B832A830DB452
:1003800007FEFDCF8EB589838FEF8EBD842F8370DE
:100390009A81892B4695469546954C71842B8A8384
:1003A0000DB407FEFDCF8EB5888381E01AC08FEFB4
:1003B0008EBD83E0220F331F8A95E1F739832883AE
:1003C0000DB407FEFDCF8EB58FEF8EBD42954695DD
:1003D00047708881842B88830DB407FEFDCF8EB5CE
:1003E00080E0DF91CF911F910895FF920F931F93AB
:1003F000CF93DF93EC0180EA0E94990082FD02C056
:10040000FF240BC084FD03C092E0F92E06C086FFD6
:1004100002C0FF2437C084E0F82E2A988F2D806414
:100420000E948A026C816295660F660F607C660F7F
:10043000660BCE010E9449020D810F708C8180FFF6
:1004400005C0802F80640E948A020EC0802F0E9407
:100450008A0210E007C0FE01E10FF11D86810E94B3
:100460008A021F5F1017B8F32A9A85E08A95F1F780
:100470002A98FF2011F4FF24F3948F2D80680E94A6
:100480008A022A9A8F2DDF91CF911F910F91FF90B1
:100490000895CF93DF93EC016623E1F08A819B817D
:1004A00035E0969587953A95E1F78EBD9A810DB422
:1004B00007FEFDCF8EB5892F880F880F880F807EAD
:1004C00088609370892B0E948A0289810E948A0227
:1004D000888116C08881998123E0969587952A9511
:1004E000E1F78EBD88810DB407FEFDCF9EB58295E4
:1004F000880F807E0E948A0280E00E948A0280E04B
:100500000E948A02DF91CF91089581E58CBD81E040
:100510008DBD08958EBD0DB407FEFDCF8EB5089537
:1005200020E0FC0184858E3109F421E0822F0895BA
:100530000F931F93CF93DF93EC01888199810E94E1
:100540001207882399F0088519852A853B8589013A
:10055000222733274A815B8188819981B8010E94D3
:10056000D305888199810E94290781E0DF91CF918D
:100570001F910F910895CF93DF93EC0188819981AA
:100580000E941207882389F0288539854A855B8572
:100590009A014427552788819981B9010E946A05EB
:1005A000888199810E94290781E0DF91CF91089588
:1005B000EF92FF920F931F93CF93DF93EC017B0198
:1005C000888199810E9412078823C1F0EA81FB810A
:1005D000EE0DFF1D4081088519852A853B8589011F
:1005E0002227332788819981B70150E098010E9422
:1005F0002F05888199810E94290781E0DF91CF91A1
:100600001F910F91FF90EF900895CF93DF93EC012E
:100610006C856E3109F446C0663079F0663028F09A
:100620006A3021F16431F1F537C070E00E94D802E0
:100630008823C1F18C858F5F34C00E94FD0D6C83CF
:100640007D838E839F838AE08C8786E592E060E0DD
:1006500071E00E949C0C4A855B8560E070E086E555
:1006600092E020E130E00E94AA0D1CC00E94FD0D26
:100670002C813D814E815F812C503E4F4F4F5F4F0B
:10068000261737074807590768F4CE010E94BB02B6
:10069000882341F084E105C00E949802882311F06C
:1006A0008EE18C87DF91CF910895EF92FF920F93A7
:1006B0001F937C01FC01148620853185428553857A
:1006C000DA01C90181709070A070B070B095A095EA
:1006D000909581959F4FAF4FBF4F81709070A070E4
:1006E000B07D569547953795279582279327A42760
:1006F000B52780879187A287B38706E512E0C801F6
:1007000060E171E00E949C0CF70140855185628593
:100710007385C80120E130E00E94950DC80169E1B0
:1007200071E00E949C0CF7014285538560E070E007
:10073000C80120E130E00E94AA0D1F910F91FF90A7
:10074000EF900895AF92BF92CF92DF92EF92FF9217
:100750000F931F93DF93CF9300D000D000D0CDB77D
:10076000DEB76C015B01DC011896ED90FD900D91F8
:100770001C911B97780100271127CB010E942B05A4
:10078000E816F90689F4C5010E945205882331F064
:10079000C6010E94BB028823D9F306C0C5010E948E
:1007A0007805C6010E945503C5010E9432068823C0
:1007B00099F119821A821B821C821D821E82C50138
:1007C000BE016F5F7F4F0E941A06D6011296ED910F
:1007D000FC911397998180819817F1F49A81818116
:1007E0009817D1F49B8182819817B1F49C81838101
:1007F000981791F49D818481981771F49E81858169
:10080000981751F48D919C91BF010E944806F60102
:10081000808191810E94290726960FB6F894DEBF49
:100820000FBECDBFCF91DF911F910F91FF90EF9041
:10083000DF90CF90BF90AF9008952F923F924F924C
:100840005F926F927F928F929F92AF92BF92CF9260
:10085000DF92EF92FF920F931F93DF93CF93CDB769
:10086000DEB72E970FB6F894DEBF0FBECDBF9A87C6
:100870008987FA01DC0111967C936E9313965C9341
:100880004E9312978081E82EFF2400E010E08181D2
:10089000A82EBB24CC24DD248281282F30E040E028
:1008A00050E02D833E834F8358878381282E332445
:1008B000442455248481682E7724882499248581B2
:1008C000282F30E040E050E029833A834B835C835B
:1008D000D601C50125E0880F991FAA1FBB1F2A95C5
:1008E000D1F72D813E814F815885FAE0220F331FC9
:1008F000441F551FFA95D1F782279327A427B527C0
:100900008E259F25A027B127A2019101EFE0220F9C
:10091000331F441F551FEA95D1F782279327A42739
:10092000B527A401930174E1220F331F441F551F03
:100930007A95D1F782279327A427B52729813A8171
:100940004B815C81522F4427332722272B873C87FA
:100950004D875E8782279327A427B527E985FA85E7
:1009600080879187A287B3870097A105B10509F019
:1009700043C057E1EE0CFF1C001F111F5A95D1F721
:1009800043E1AA0CBB1CCC1CDD1C4A95D1F7EA0C38
:10099000FB1C0C1D1D1D29813A814B815C81E20EDF
:1009A000F31E041F151F8D819E81AF81B8853FE026
:1009B000880F991FAA1FBB1F3A95D1F7E80EF91EA1
:1009C0000A1F1B1F2BE0220C331C441C551C2A95AC
:1009D000D1F7E20CF31C041D151D97E0660C771C83
:1009E000881C991C9A95D1F7E60CF71C081D191D57
:1009F000E086F18602871387E985FA8580859185EF
:100A0000A285B3850097A105B10541F481E09CEA78
:100A1000A0E0B0E080879187A287B38789859A8517
:100A20000E9455032E960FB6F894DEBF0FBECDBFC1
:100A3000CF91DF911F910F91FF90EF90DF90CF90BA
:100A4000BF90AF909F908F907F906F905F904F90EE
:100A50003F902F900895FC018081918108950F931C
:100A60001F93FC01848182608483962F80E08070D4
:100A70009770842B952BA0E0B0E09770A070B070B9
:100A8000DC0199278827B06140E050E0822B932B4E
:100A9000A42BB52B80839183A283B38315821F91EE
:100AA0000F910895FC0180819181A281B381B3FFF0
:100AB00002C020E00DC020E080709070B770CD01C2
:100AC000AA27BB27807097708050964008F421E0D9
:100AD000822F0895FC0124812260248380E090E02D
:100AE0008F6F9761608371838283938315820895EA
:100AF000FC0180819181A281B381B3FF02C020E01B
:100B00000BC020E080709070B770CD01AA27BB2782
:100B10008F5F974009F421E0822F0895FC018481C2
:100B20008260848386859785A0E0B0E0AF64BB6176
:100B300080839183A283B38388E08583DB018C91DA
:100B4000868311968C911197878312968C911297B8
:100B5000808713968C911397818714968C911497A4
:100B6000828715968C911597838716968C91169788
:100B7000848717968C9185870895FC0180819181E7
:100B8000A281B381B3FD02C020E00BC020E08070E1
:100B90009070B770CD01AA27BB278F54934009F4FA
:100BA00021E0822F0895FC01DA017787668724818E
:100BB0002260248380E090E08F639B616083718377
:100BC0008283938386E085838C91868311968C91B2
:100BD0001197878312968C911297808713968C9128
:100BE0001397818714968C911497828715968C9110
:100BF00083870895FC01DB0186818C9387811196A0
:100C00008C931197808512968C93129781851396F9
:100C10008C931397828514968C93149783851596DD
:100C20008C931597848516968C93169785851796C1
:100C30008C930895FC01DB0186818C93878111964A
:100C40008C931197808512968C93129781851396B9
:100C50008C931397828514968C931497838515969D
:100C60008C930895FC0180819181A281B381B3FDB1
:100C700002C020E00BC020E080709070B770CD0102
:100C8000AA27BB278F55934009F421E0822F0895AE
:100C9000FC0184818260848386859785A0E0B0E032
:100CA000AF66BB6180839183A283B38386E0858333
:100CB000DB018C91868311968C9111978783129614
:100CC0008C911297808713968C9113978187149635
:100CD0008C911497828715968C9183870895FC01D7
:100CE00080819181A281B381B3FD02C020E00BC05D
:100CF00020E080709070B770CD01AA27BB278F5776
:100D0000934009F421E0822F0895FC0184818260E0
:100D1000848386859785A0E0B0E0AF68BB6180835F
:100D20009183A283B38388E08583DB018C918683E2
:100D300011968C911197878312968C9112978087C8
:100D400013968C911397818714968C9114978287B0
:100D500015968C911597838716968C911697848794
:100D600017968C9185870895FC0180819181A281DD
:100D7000B381B3FD02C020E00BC020E08070907012
:100D8000B770CD01AA27BB278F59934009F421E002
:100D9000822F0895FC0184818260848386859785F3
:100DA000A0E0B0E0AF6ABB6180839183A283B3838C
:100DB00088E08583DB018C91868311968C91119755
:100DC000878312968C911297808713968C91139734
:100DD000818714968C911497828715968C9115971C
:100DE000838716968C911697848717968C918587A2
:100DF0000895FC0180819181A281B381B3FD02C07D
:100E000020E00BC020E080709070B770CD01AA2761
:100E1000BB278F5B934009F421E0822F08950E9445
:100E2000460108950E94420190E08471843109F0E6
:100E300091E0892F0895CF93DF93EC010E94120770
:100E4000882321F0CE010E94F50181E0DF91CF914E
:100E50000895CF93DF93EC01CE010E941B078823F6
:100E6000D9F3DF91CF91089584E00E94DA000895CC
:100E7000AF92BF92CF92DF92EF92FF920F931F93A8
:100E8000DC0111967C936E9315965C934E931497A8
:100E900013963C932E93129717961C930E931697C6
:100EA0001996FC92EE9218971B96DC92CE921A97A6
:100EB0001D96BC92AE921C9740E050E020E030E0DE
:100EC0000FC01296ED91FC911397E20FF31F8085EE
:100ED00091858160918780874F5F5F4F265F3F4F8D
:100EE00016968D919C9117974817590754F31F96A2
:100EF0001C921E921E9740E050E020E030E00EC0B1
:100F0000ED91FC911197E20FF31F8085918581602F
:100F1000918780874F5F5F4F265F3F4F14968D917B
:100F20009C911597481759075CF351961C921E9295
:100F300050971F910F91FF90EF90DF90CF90BF904F
:100F4000AF900895DC01CB019B0153E0220F331FCA
:100F50005A95E1F7880F991F280F391F1296ED91C6
:100F6000FC911397E20FF31F808591858260918732
:100F700080871E964D915C911F97CB0146175707AE
:100F80000CF4CA011F969C938E931E970895BF92EE
:100F9000CF92DF92EF92FF920F931F93DF93CF9345
:100FA000CDB7DEB760970FB6F894DEBF0FBECDBFEA
:100FB0007C018B01CB010E946F06882309F466C077
:100FC0001F82188619861A861B861C861D861E8619
:100FD000C801BE01695F7F4F0E94FA05D7014D919C
:100FE0005C91119714966D917C911597BF80C88480
:100FF000D9840A851B85BC85AD859E85FA0120E0D4
:1010000030E021C08081B81609F062C18181C81624
:1010100009F05EC18281D81609F05AC18381081790
:1010200009F056C18481181709F052C18581B8179B
:1010300009F04EC18681A81709F04AC18781981727
:1010400009F046C104C026173707E4F24DC1F90183
:10105000EE0FFF1FC90163E0880F991F6A95E1F742
:10106000E80FF91FE40FF51F808591858160918756
:101070008087F70180899189821793070CF0C90155
:10108000D70151969C938E9350972EC1C8010E9410
:10109000B406882309F463C01F82188619861A864D
:1010A0001B861C861D861E86C801BE01695F7F4F98
:1010B0000E94FA05F7014281538166817781BF80E2
:1010C000C884D9840A851B85BC85AD859E85FA01B7
:1010D00020E030E021C08081B81609F0FDC0818198
:1010E000C81609F0F9C08281D81609F0F5C08381CD
:1010F000081709F0F1C08481181709F0EDC0858147
:10110000B81709F0E9C08681A81709F0E5C0878102
:10111000981709F0E1C004C026173707E4F2E4C0CD
:10112000F901EE0FFF1FC90113E0880F991F1A95EF
:10113000E1F7E80FF91FE40FF51F808591858160C5
:1011400091878087D7011E968D919C911F9782175A
:1011500093070CF0C901F70197878687C5C0C801BE
:101160000E94F906882309F468C019821A821B823A
:101170001C821D821E82C801BE016F5F7F4F0E94CC
:101180001A06D7011A96ED91FC911B9799818081DF
:10119000981709F0A9C09A818181981709F0A4C015
:1011A0009B818281981709F09FC09C818381981749
:1011B00009F09AC09D818481981709F095C09E819D
:1011C0008581981709F090C040E050E020E030E0C1
:1011D00010C0D7011296ED91FC911397E20FF31F07
:1011E000808591858160918780874F5F5F4F265F03
:1011F0003F4FF701868197814817590754F31786A7
:10120000168640E050E020E030E00EC0D701ED91BE
:10121000FC91E20FF31F8085918581609187808723
:101220004F5F5F4F265F3F4FF701848195814817DD
:10123000590764F3118A108A57C0C8010E94BD057E
:10124000882309F451C01F82188619861A861B86C6
:101250001C861D861E86C801BE01695F7F4F0E94E5
:10126000FA05D70114964D915C911597DF8008859A
:101270001985CA84BB847C856D859E85ED91FC9122
:1012800020E030E019C08081D81651F5818108171F
:1012900039F58281181721F58381C81609F58481F3
:1012A000B816F1F485817817D9F486816817C1F4EE
:1012B00087819817A9F404C02417350724F314C0B4
:1012C000D7011C96ED91FC911D97C90109950CC0A1
:1012D0002F5F3F4F3A96B7CE2F5F3F4F3A961CCFC6
:1012E0002F5F3F4F3A96E8CF60960FB6F894DEBF77
:1012F0000FBECDBFCF91DF911F910F91FF90EF9067
:10130000DF90CF90BF900895CF93DF93EC0155C04D
:10131000F901EE0FFF1FC901A3E0880F991FAA95DD
:10132000E1F7E80FF91FAA81BB81EA0FFB1F808557
:10133000918580FF1CC08E7F9187808788859985E5
:101340004E855F859A01220F331FBA01E3E0660FD5
:10135000771FEA95E1F7260F371FA20FB31F4F5FE4
:101360005F4F5F874E87BD010E94CA061DC081FF87
:1013700020C08D7F91878087888599854E855F8580
:101380009A01220F331FBA01E3E0660F771FEA9537
:10139000E1F7260F371FA20FB31F4F5F5F4F5F8725
:1013A0004E87BD010E948E05888599850E94290778
:1013B0004CC02F5F3F4F3F872E872E853F858E8104
:1013C0009F81281739070CF4A3CF3FC088859985E2
:1013D0000E9412078823C9F128893989F901EE0F83
:1013E000FF1FC901A3E0880F991FAA95E1F7E80F35
:1013F000F91FA881B981EA0FFB1F8085918580FFC5
:1014000020C08E7F918780878885998548895989F2
:101410009A01220F331FBA01E3E0660F771FEA95A6
:10142000E1F7260F371FA20FB31F4F5F5F4F598B96
:10143000488BBD010E948506888599850E942907F1
:101440000CC02F5F3F4F398B288B288939898C81BD
:101450009D81281739070CF4B9CFDF91CF910895FA
:101460008F929F92AF92BF92CF92DF92EF92FF92B4
:101470000F931F9385E8882E81E0982E02E0C02EFE
:10148000C092850113E0D12ED0928601B4E0EB2EFC
:10149000E0928701A5E0FA2EF092880106E0009321
:1014A000890117E010938A01F5E7AF2EF1E0BF2E16
:1014B0008BE891E0B501A4010E941D0491E0909396
:1014C0009801C0929901D0929A01E0929B01F0920A
:1014D0009C0100939D0110939E0188E080939F01E1
:1014E0008093A2011093A3010093A401F092A5019F
:1014F000E092A601D092A701C092A8019093A90101
:101500009093AC01C092AD01D092AE01E092AF01D8
:10151000F092B0010093B1011093B2018093B30136
:101520008093B6011093B7010093B801F092B9010E
:10153000E092BA01D092BB01C092BC019093BD0170
:10154000409156015091570100915401109155015D
:1015500080EC91E06CEA71E028E931E0750164010A
:10156000ECE4AE2EEBE0BE2E0E9438071F910F91E7
:10157000FF90EF90DF90CF90BF90AF909F908F90B3
:1015800008950F931F936AE070E080E090E00E945E
:101590000B0E85E691E00E940F07082F8BE891E083
:1015A0000E940503002331F08BE891E065E671E0CD
:1015B0000E94A2038BE891E00E9490028823B1F17F
:1015C000002331F080EC91E065E671E00E94C707EE
:1015D00080EC91E00E948409009163011091640104
:1015E0008EE00E94DC0E0817190701F18EE00E94C0
:1015F000DC0E9093640180936301892B59F486E596
:1016000092E061E271E00E94BB0C80EC91E060E04E
:1016100070E00AC086E592E064E271E00E94BB0CD3
:1016200080EC91E061E070E00E94A2071F910F91B1
:1016300008950F931F9306E512E0C80140E052ECB5
:1016400061E070E00E94B20BC8010E94A40CC801C6
:1016500067E271E00E94BB0C89E061E00E946F0EBE
:1016600089E061E00E948F0E8EE060E00E946F0EC4
:101670008EE061E00E948F0E0E9434078BE891E0BB
:101680000E9455031F910F9108950E94350E0E94EC
:10169000190B0E94C10AFDCFCF93DF93EC0186E5C1
:1016A00092E06EE371E00E949C0C86E592E0BE0140
:1016B0000E94850D209719F489E060E005C0C130D3
:1016C000D10529F489E061E00E948F0E0BC086E508
:1016D00092E067E471E00E949C0C86E592E0BE0116
:1016E0000E94850DDF91CF9108951F920F920FB642
:1016F0000F9211242F933F934F935F936F937F9398
:101700008F939F93AF93BF93EF93FF934091C60046
:10171000E0915202F0915302CF01019660E870E02F
:101720000E942B0F9C018091540290915502281722
:10173000390739F0EE52FE4F408330935302209325
:101740005202FF91EF91BF91AF919F918F917F9145
:101750006F915F914F913F912F910F900FBE0F901E
:101760001F901895AF92BF92CF92DF92EF92FF92A7
:101770000F931F93CF93DF936C017A018B01DC01F0
:101780001496AD90BC901597CB01BA0122E030E0E1
:1017900040E050E00E94600F205C3D4B404F5F4FA7
:1017A000CA01B901A80197010E94600FC901DA01BD
:1017B0000197A109B109292F3A2F4B2F552747FD32
:1017C0005A950196A11DB11DE5012883E601EE8120
:1017D000FF8181508083EA85FB85208141E050E0D4
:1017E000CA010E8402C0880F991F0A94E2F7282BC1
:1017F0002083EA85FB852081CA010F8402C0880FFF
:10180000991F0A94E2F7282B2083EA85FB858081C3
:10181000088802C0440F551F0A94E2F7842B808386
:10182000DF91CF911F910F91FF90EF90DF90CF90BC
:10183000BF90AF900895FC01A085B18521898C915E
:1018400090E0022E02C0959587950A94E2F780FFFA
:10185000F6CF0484F585E02D608308958CE591E052
:10186000909357028093560282ED91E09093590233
:101870008093580285EC90E090935B0280935A022B
:1018800084EC90E090935D0280935C0280EC90E0A9
:1018900090935F0280935E0281EC90E090936102EE
:1018A0008093600286EC90E09093630280936202E2
:1018B00084E08093640283E08093650287E08093F4
:1018C000660285E08093670208950F931F93CF937C
:1018D000DF938C01EB0109C02196D801ED91FC91B9
:1018E0000190F081E02DC801099568816623A1F778
:1018F000DF91CF911F910F910895EF92FF920F9377
:101900001F93CF93DF938C017B01EA010CC0D701B9
:101910006D917D01D801ED91FC910190F081E02D58
:10192000C80109952197209791F7DF91CF911F91D9
:101930000F91FF90EF900895DC01ED91FC910280F2
:10194000F381E02D099508950F931F938C01DC011D
:10195000ED91FC910190F081E02D6DE00995D801A9
:10196000ED91FC910190F081E02DC8016AE00995AC
:101970001F910F9108950F931F938C010E949C0C4F
:10198000C8010E94A40C1F910F9108952F923F92BD
:101990004F925F926F927F928F929F92AF92BF927F
:1019A000CF92DF92EF92FF920F931F93DF93CF932B
:1019B000CDB7DEB7A0970FB6F894DEBF0FBECDBF90
:1019C0001C016A017B01411551056105710549F44E
:1019D000DC01ED91FC910190F081E02D60E309952F
:1019E00054C0882499245401422E55246624772417
:1019F00001E010E00C0F1D1F080D191DC701B601F5
:101A0000A30192010E943E0FF80160830894811C9B
:101A1000911CA11CB11CC701B601A30192010E9437
:101A20003E0FC901DA016C017D01C114D104E1044A
:101A3000F104F1F681E0E82EF12CEC0EFD1EE80C2D
:101A4000F91C3E010894611C711CD501C401019769
:101A5000A109B1096C01C818D90814C0F601EE0D2E
:101A6000FF1D60816A3010F4605D01C0695CD101C6
:101A7000ED91FC910190F081E02DC1010995089450
:101A8000E108F1086E147F0449F7A0960FB6F894A8
:101A9000DEBF0FBECDBFCF91DF911F910F91FF90A1
:101AA000EF90DF90CF90BF90AF909F908F907F90FE
:101AB0006F905F904F903F902F900895EF92FF921C
:101AC0000F931F93CF93DF93EC017A018B0177FF84
:101AD0000FC0E881F9810190F081E02D6DE2099558
:101AE00010950095F094E094E11CF11C011D111D6E
:101AF000CE01B801A7012AE00E94C60CDF91CF9168
:101B00001F910F91FF90EF9008950F931F938C01F9
:101B1000AB01662757FD6095762F0E945E0DC801C8
:101B20000E94A40C1F910F910895DC01211531052D
:101B300041F4ED91FC910190F081E02D642F099525
:101B400008952A30310519F40E945E0D08950E940F
:101B5000C60C08950F931F938C010E94950DC80128
:101B60000E94A40C1F910F9108951F920F920FB61F
:101B70000F9211242F933F938F939F93AF93BF9313
:101B800080916C0290916D02A0916E02B0916F02F3
:101B9000309170020196A11DB11D232F2D5F2D37AD
:101BA00020F02D570196A11DB11D20937002809346
:101BB0006C0290936D02A0936E02B0936F028091BD
:101BC000680290916902A0916A02B0916B0201963D
:101BD000A11DB11D8093680290936902A0936A02CF
:101BE000B0936B02BF91AF919F918F913F912F91D5
:101BF0000F900FBE0F901F9018958FB7F8942091FB
:101C00006C0230916D0240916E0250916F028FBF55
:101C1000B901CA010895EF92FF920F931F937B01C0
:101C20008C018FB7F89440916C0250916D026091D5
:101C30006E0270916F028FBF2FB7F89480916C0283
:101C400090916D02A0916E02B0916F022FBF841B24
:101C5000950BA60BB70BE816F9060A071B0760F7EA
:101C60001F910F91FF90EF900895789484B5826052
:101C700084BD84B5816084BD85B5826085BD85B530
:101C8000816085BDEEE6F0E0808181608083E1E8DF
:101C9000F0E0808182608083808181608083E0E8E1
:101CA000F0E0808181608083E1EBF0E080818460FE
:101CB0008083E0EBF0E0808181608083EAE7F0E000
:101CC0008081846080838081826080838081816064
:101CD00080838081806880831092C1000895282FBE
:101CE00030E0C9018E549F4FFC01949122563F4F22
:101CF000F9018491882391F0E82FF0E0EE0FFF1FA7
:101D0000E058FF4FA591B491662329F48C919095EA
:101D100089238C9308958C91892B8C930895482F57
:101D200050E0CA018A539F4FFC012491CA018E548E
:101D30009F4FFC01949142565F4FFA013491332337
:101D4000D1F1222331F1233021F4809180008F776B
:101D500005C0243031F4809180008F7D8093800015
:101D600018C0213019F484B58F7704C0223021F4D3
:101D700084B58F7D84BD0DC0263021F48091B000E4
:101D80008F7705C0273029F48091B0008F7D809334
:101D9000B000E32FF0E0EE0FFF1FE657FF4FA591D5
:101DA000B491662329F48C91909589238C9308959E
:101DB0008C91892B8C930895682F70E0CB018A5306
:101DC0009F4FFC012491CB018E549F4FFC01449105
:101DD00062567F4FFB019491992319F420E030E083
:101DE00038C0222331F1233021F4809180008F7795
:101DF00005C0243031F4809180008F7D8093800075
:101E000018C0213019F484B58F7704C0223021F432
:101E100084B58F7D84BD0DC0263021F48091B00043
:101E20008F7705C0273029F48091B0008F7D809393
:101E3000B000892F90E0880F991F8C569F4FFC01AE
:101E4000A591B4918C9120E030E0842311F021E041
:101E500030E0C901089597FB092E07260AD077FDC7
:101E600004D049D006D000201AF4709561957F4FB8
:101E70000895F6F7909581959F4F0895A1E21A2E47
:101E8000AA1BBB1BFD010DC0AA1FBB1FEE1FFF1F1E
:101E9000A217B307E407F50720F0A21BB30BE40B6E
:101EA000F50B661F771F881F991F1A9469F76095B5
:101EB0007095809590959B01AC01BD01CF0108956F
:101EC00097FB092E05260ED057FD04D0D7DF0AD088
:101ED000001C38F450954095309521953F4F4F4F59
:101EE0005F4F0895F6F790958095709561957F4FB7
:101EF0008F4F9F4F0895AA1BBB1B51E107C0AA1F1C
:101F0000BB1FA617B70710F0A61BB70B881F991F9A
:101F10005A95A9F780959095BC01CD010895EE0FD3
:0E1F2000FF1F0590F491E02D0994F894FFCF77
:101F2E00616C6961732061737369676E656420000B
:101F3E006E6577206B6579200020616C6961732076
:101F4E00007030007031005374617274696E6720D6
:101F5E0043616E4D72726C63625465737400636F8D
:101F6E006E73756D6520006572726F7220696E6496
:101F7E006578200002000200000000001B0C650CBA
:021F8E007D0CC8
:00000001FF
