:1000000086D3040000000000D4D20000B2D2000069
:100010000000000090D200008ED10000000000001F
:1000200000000000000000000000000000000000D0
:100030000000000022EC00000000000000000000B2
:100040000000000018D3000064D30000000000008E
:10005000000000000000000000000000B0D100001F
:100060000000000000000000000000000000000090
:100070000000000000000000000000000000000080
:100080000000000000000000000000000000000070
:100090000000000000000000F6D200000000000098
:1000A0000000000000000000000000000000000050
:1000B0000000000000000000000000000000000040
:1000C0000000000000000000000000000000000030
:1000D0000000000000000000000000000000000020
:020000040001F9
:10A70C000F8C2500F0FF270020A0B7002020200090
:10A71C0032A0B700400020004420B700BC00FA0073
:10A72C008A1F78008B1F78008C1F78008D1F780093
:10A73C00F1F12F0020042000108860000E2EEF0095
:10A74C001E2EEF00008EA900048EA900F0FF2F0032
:10A75C00702C8A00F0FF2F00602C8A00F0FF2F0075
:10A76C00502C8A000020EF00902C8A000020EF0073
:10A77C00802C8A000C7020001D0020001A10200074
:10A78C005B00200045E707002AE90700FDE9070008
:10A79C00C2E807001420EF00BFE80700DDE807005F
:10A7AC00042EA900140EA900142EA900148EA900C1
:10A7BC00002EA900100EA900102EA900108EA900C1
:10A7CC0015EEA80015CEA90011EEA90011CEA90016
:10A7DC0060EF2200C0098900E000470030C5B300DB
:10A7EC008058780040C7B3008058780010C6B3007A
:10A7FC008058780020C7B3008058780040C7B30059
:10A80C008058780090C6B30080587800E0C6B3003A
:10A81C008058780070C6B3008058780000C2B3002E
:10A82C008058780040C4B3008058780030C4B3001E
:10A83C008058780030C4B3008058780000C2B30050
:10A84C008058780000C5B3008058780010C6B3005B
:10A85C008058780030C6B30080587800B0C6B3007A
:10A86C008058780050C6B3008058780040C7B300B9
:10A87C008058780030C7B30080587800D0C0B3003F
:10A88C0080587800A0C0B3008058780000C0B30096
:10A89C00805878006000470000057800C7E8070082
:10A8AC0021A8A80011E1A80005E1A80007A02F002D
:10A8BC000E20ED00FEFF3A0000000000000000003A
:10A8CC0095E80700E000470090C4B300805878007A
:10A8DC00E0C6B3008058780090C6B300805878006A
:10A8EC0040C7B3008058780090C6B30080587800F9
:10A8FC0010C6B30080587800C0C6B30080587800EA
:10A90C0090C6B30080587800A0C7B3008058780078
:10A91C0090C6B30080587800E0C6B3008058780029
:10A92C0070C6B3008058780000C2B300805878001D
:10A93C00F0C4B30080587800C0C6B30080587800CB
:10A94C0030C6B3008058780020C6B3008058780019
:10A95C0020C4B3008058780050C7B30080587800EA
:10A96C0030C7B30080587800D0C0B300805878004E
:10A97C00A0C0B3008058780000C0B30080587800A5
:10A98C0060004700000578008CE80700CFE707005F
:10A99C0028062000A7832A000E20ED00FEFF3A00B7
:10A9AC001020ED00FCFF3A00CA1E81007FCB07008F
:10A9BC0000A0EE00FCFF3A0028062000A7832A0026
:10A9CC000E20ED00FEFF3A001020ED00FCFF3A00D7
:10A9DC006AEF22000EE907000000E20021003200BD
:10A9EC00E000470000C5B30080587800F0C6B30003
:10A9FC008058780020C7B3008058780040C7B30057
:10AA0C008058780000C2B30080587800F0C4B300BE
:10AA1C008058780000C7B3008058780050C6B30047
:10AA2C0080587800E0C6B3008058780050C6B30058
:10AA3C008058780040C6B30080587800D0C0B3006E
:10AA4C0080587800A0C0B3008058780000C0B300D4
:10AA5C0080587800600047000005780057E8070030
:10AA6C002A003700E000470000C5B300805878008A
:10AA7C00F0C6B3008058780020C7B3008058780027
:10AA8C0040C7B3008058780000C2B30080587800EB
:10AA9C00F0C4B3008058780000C7B3008058780029
:10AAAC0050C6B30080587800E0C6B30080587800D8
:10AABC0000C2B3008058780060C6B300805878009C
:10AACC0010C6B3008058780090C6B3008058780048
:10AADC00C0C6B3008058780050C6B30080587800C8
:10AAEC0040C6B30080587800D0C0B30080587800BE
:10AAFC00A0C0B3008058780000C0B3008058780024
:10AB0C0060004700000578002CE807004B3D220050
:10AB1C00CAAF2B00C8E807006CEF22005BEF2200E5
:10AB2C004A3D22008EE60700509F98006000E1002D
:10AB3C0035003A00E000470040C5B300805878006B
:10AB4C0030C4B3008058780000C5B300805878003A
:10AB5C0000C2B3008058780030C4B300805878002D
:10AB6C00F0C6B30080587800E0C6B3008058780077
:10AB7C00E0C6B3008058780050C6B3008058780007
:10AB8C0030C6B3008058780040C7B30080587800B6
:10AB9C0090C6B30080587800F0C6B3008058780097
:10ABAC00E0C6B3008058780000C2B300805878002B
:10ABBC00F0C4B3008058780000C7B3008058780008
:10ABCC0050C6B30080587800E0C6B30080587800B7
:10ABDC0050C6B3008058780040C6B3008058780047
:10ABEC00D0C0B30080587800A0C0B3008058780063
:10ABFC0000C0B30080587800600047000005780062
:10AC0C00EEE70700060137005E9890006100E10056
:10AC1C003D003A00E000470040C5B3008058780082
:10AC2C0030C4B3008058780000C5B3008058780059
:10AC3C0000C2B3008058780030C4B300805878004C
:10AC4C00F0C6B30080587800E0C6B3008058780096
:10AC5C00E0C6B3008058780050C6B3008058780026
:10AC6C0030C6B3008058780040C7B30080587800D5
:10AC7C0090C6B30080587800F0C6B30080587800B6
:10AC8C00E0C6B3008058780000C2B300805878004A
:10AC9C0010C4B3008058780020C5B30080587800E9
:10ACAC0000C5B3008058780000C2B300805878000B
:10ACBC0060C6B3008058780010C6B3008058780086
:10ACCC0090C6B30080587800C0C6B3008058780096
:10ACDC0050C6B3008058780040C6B3008058780046
:10ACEC00D0C0B30080587800A0C0B3008058780062
:10ACFC0000C0B30080587800600047000005780061
:10AD0C00AEE70700C60037005E9890006200E100D5
:10AD1C003D003A00E000470040C5B3008058780081
:10AD2C0030C4B3008058780000C5B3008058780058
:10AD3C0000C2B3008058780030C4B300805878004B
:10AD4C00F0C6B30080587800E0C6B3008058780095
:10AD5C00E0C6B3008058780050C6B3008058780025
:10AD6C0030C6B3008058780040C7B30080587800D4
:10AD7C0090C6B30080587800F0C6B30080587800B5
:10AD8C00E0C6B3008058780000C2B3008058780049
:10AD9C00E0C4B30080587800F0C6B3008058780047
:10ADAC0000C2B3008058780030C5B30080587800DA
:10ADBC00F0C6B3008058780030C6B30080587800D5
:10ADCC00B0C6B3008058780050C6B30080587800E5
:10ADDC0040C7B3008058780030C7B3008058780063
:10ADEC00D0C0B30080587800A0C0B3008058780061
:10ADFC0000C0B30080587800600047000005780060
:10AE0C006EE70700860037005E9890006300E10053
:10AE1C003F003A00E000470040C5B300805878007E
:10AE2C0030C4B3008058780000C5B3008058780057
:10AE3C0000C2B3008058780030C4B300805878004A
:10AE4C00F0C6B30080587800E0C6B3008058780094
:10AE5C00E0C6B3008058780050C6B3008058780024
:10AE6C0030C6B3008058780040C7B30080587800D3
:10AE7C0090C6B30080587800F0C6B30080587800B4
:10AE8C00E0C6B3008058780000C2B3008058780048
:10AE9C0030C5B3008058780050C6B3008058780095
:10AEAC00E0C6B3008058780040C6B30080587800E4
:10AEBC0000C2B3008058780060C4B300805878009A
:10AECC0010C6B3008058780090C6B3008058780044
:10AEDC00C0C6B3008058780050C6B30080587800C4
:10AEEC0040C6B30080587800D0C0B30080587800BA
:10AEFC00A0C0B3008058780000C0B3008058780020
:10AF0C0060004700000578002CE70700440037007C
:10AF1C00E000470040C5B3008058780030C4B3004F
:10AF2C008058780000C5B3008058780000C2B30088
:10AF3C008058780030C4B30080587800F0C6B30055
:10AF4C0080587800E0C6B30080587800E0C6B300A3
:10AF5C008058780050C6B3008058780030C6B300D3
:10AF6C008058780040C7B3008058780090C6B30072
:10AF7C0080587800F0C6B30080587800E0C6B30063
:10AF8C008058780000C2B3008058780050C7B300D6
:10AF9C0080587800E0C6B30080587800B0C6B30083
:10AFAC0080587800E0C6B30080587800F0C6B30033
:10AFBC008058780070C7B30080587800E0C6B300A2
:10AFCC008058780000C2B3008058780020C5B300C8
:10AFDC008058780050C6B3008058780030C7B30052
:10AFEC008058780050C7B30080587800C0C6B300B2
:10AFFC008058780040C7B30080587800D0C0B300A8
:10B00C0080587800A0C0B3008058780000C0B3000E
:10B01C00805878006000470000057800E7E60700DC
:10B02C00E000470040C4B3008058780080C4B300EF
:10B03C008058780030C4B3008058780000C5B30045
:10B04C008058780000C2B3008058780020C5B30047
:10B05C008058780050C6B3008058780030C7B300D1
:10B06C008058780050C7B30080587800C0C6B30031
:10B07C008058780040C7B3008058780030C7B300C0
:10B08C0080587800D0C0B30080587800A0C0B300BE
:10B09C008058780000C0B3008058780060004700EA
:10B0AC0000057800C5E607008B562400AA3D220057
:10B0BC0005E50700C00220000000470092C4B30061
:10B0CC000258780002C7B3000258780002C2B300DD
:10B0DC000258780012C4B3000258780042C6B3007C
:10B0EC000258780042C6B3000258780022C7B30059
:10B0FC000258780052C6B3000258780032C7B30029
:10B10C000258780032C7B30002587800A2C3B300CB
:10B11C000258780002C2B30002587800815624000D
:10B12C007C9F0700C1B32B002220200092018800D5
:10B13C0000000000779F0700800078000020EF00DF
:10B14C0080587800C00220000000470000057800FD
:10B15C009AE607008B562400CA3E2200DAE4070068
:10B16C00C00220000000470072C4B30002587800EF
:10B17C0012C6B3000258780042C7B30002587800D8
:10B18C0052C6B3000258780072C7B3000258780058
:10B19C0012C6B3000258780092C7B3000258780068
:10B1AC0002C2B3000258780012C4B30002587800EF
:10B1BC0042C6B3000258780042C6B3000258780069
:10B1CC0022C7B3000258780052C6B3000258780068
:10B1DC0032C7B3000258780032C7B3000258780067
:10B1EC00A2C3B3000258780002C2B3000258780020
:10B1FC0081562400479F0700C1B32B00222020005A
:10B20C009201880000000000429F07008000780037
:10B21C000020EF0080587800C0022000000047009A
:10B22C000005780065E607008B5624000A3F2200D3
:10B23C00A5E40700C002200000004700D2C4B30000
:10B24C000258780012C6B3000258780032C7B30017
:10B25C0002587800B2C6B30002587800A2C3B300FB
:10B26C000258780002C2B3000258780081562400BC
:10B27C00289F0700C1B32B002220200092018800D8
:10B28C0000000000239F0700800078000020EF00E2
:10B29C0080587800C00220000000470000057800AC
:10B2AC0046E607008B5624004A3E220086E407003F
:10B2BC00C00220000000470042C4B30002587800CE
:10B2CC00E2C4B3000258780032C5B30002587800CB
:10B2DC0002C2B3000258780012C4B30002587800BE
:10B2EC0042C6B3000258780042C6B3000258780038
:10B2FC0022C7B3000258780052C6B3000258780037
:10B30C0032C7B3000258780032C7B3000258780035
:10B31C00A2C3B3000258780002C2B30002587800EE
:10B32C0081562400FB9E0700C1B32B002220200075
:10B33C009201880000000000F69E07008000780053
:10B34C000020EF0080587800C00220000000470069
:10B35C000005780019E60700803E200010208900C7
:10B36C00803E200020208900F0FF2F000020890063
:10B37C0050F60700005924001000E0002D003200A8
:10B38C00E0312200104078006004E1000220EF0060
:10B39C0001003A0002A0EE00001981006000E100FB
:10B3AC000020EF000100360000A0EE0000806000DD
:10B3BC000000320039FB0700E01889000100200072
:10B3CC000100E10002003200EA188100FCE90700EC
:10B3DC00D018810000A0EE001600320012F4070015
:10B3EC000000E2000200320079F207000E00370084
:10B3FC00902C82007400E1000220EF0001003A0062
:10B40C0002A0EE0080312200108070000600320095
:10B41C0090C107000000E200010032006CF207004E
:10B42C000020EF00902C8A001100200020592400ED
:10B43C00108840001A002000EBCA0700CA1E8100C9
:10B44C000AF40700048EAA00403222001000E0002B
:10B45C0022003200901E81006000E1001F003A00C3
:10B46C0026F40700C00220000000470042C5B300CC
:10B47C000258780092C6B30002587800D2C6B300C6
:10B48C000258780052C6B3000258780002C2B300CA
:10B49C0002587800D2C3B3000258780002C2B3003D
:10B4AC0002587800813B22009A9E0700C1B32B0002
:10B4BC00222020009201880000000000959E0700C9
:10B4CC00800078000020EF0080587800C002200037
:10B4DC000000470000057800B8E5070022F50700DA
:10B4EC006100E10098083A00E0004700B0C3B300E7
:10B4FC00805878000020EF008058780060004700EA
:10B50C000CC8B300800578006A3222006EF5070083
:10B51C00C00220000000470052C4B300025878005B
:10B52C0032C6B3000258780082C6B30002587800C5
:10B53C00F2C6B3000258780002C2B3000258780079
:10B54C0032C4B30002587800D2C6B3000258780057
:10B55C0042C6B30002587800A2C3B3000258780068
:10B56C0002C2B3000258780061322200699E0700C3
:10B57C00C1B32B00222020009201880000000000A3
:10B58C00649E0700800078000020EF00805878004F
:10B59C00C00220000000470000057800639D0700F2
:10B5AC00603222009040780050C7B300000CE100DC
:10B5BC0001003A000500370060322200904078000C
:10B5CC0050C5B300000CE10001003A0059083700E7
:10B5DC00603222009040780030C7B300000CE100CC
:10B5EC0001003A00050037006032220090407800DC
:10B5FC0030C5B300000CE10003003A00F0FF2F004F
:10B60C00802C8A004B083700603222009040780072
:10B61C0000C5B300000CE10001003A0045083700FA
:10B62C00603222009040780080C5B300000CE1002D
:10B63C0004003A001620EF00EA18810069F50700B3
:10B64C003C083700603222009040780010C4B300F0
:10B65C00000CE10001003A000500370060322200C6
:10B66C009040780010C6B300000CE10004003A00D2
:10B67C0089D40700C3F40700DBD307002D0837007B
:10B68C00603222009040780040C4B300000CE1000E
:10B69C0001003A000500370060322200904078002B
:10B6AC0040C6B300000CE1000F003A007AD407004A
:10B6BC00EDF40700A02C8A006000E10008003200C5
:10B6CC00AA2C8200BDB2070080BD8A009040780091
:10B6DC000181FB00E10F200081006100014878002E
:10B6EC00C1D3070013083700603222009040780065
:10B6FC0060C4B300000CE10001003A000500370003
:10B70C00603222009040780060C6B300000CE1006B
:10B71C0009003A0060D40700D3F40700A02C8A007B
:10B72C006000E10002003200AA2C82001CAF07006E
:10B73C00ADD30700FF07370060322200904078003D
:10B74C00A0C5B300000CE10001003A000500370071
:10B75C006032220090407800A0C7B300000CE100DA
:10B76C0001003A00F3073700603222009040780065
:10B77C0060C5B300000CE10003003A00FAFF2F0093
:10B78C00D5E80700EB0737006032220090407800C4
:10B79C0060C7B300000CE10003003A001420EF0076
:10B7AC00CDE80700E30737006032220090407800B4
:10B7BC00D0C4B300000CE10001003A0005003700D2
:10B7CC006032220090407800D0C6B300000CE1003B
:10B7DC0071003A000020EF0070BD8A004103200088
:10B7EC00E07A25001009B800E065240082004000D2
:10B7FC0040022000008040008C5624001005BE0042
:10B80C00B6E80700C002200000004700F2C4B300F5
:10B81C000258780062C6B3000258780062C6B300C2
:10B82C000258780032C7B3000258780052C6B300F1
:10B83C000258780042C7B30002587800A2C3B30084
:10B84C000258780002C2B3000258780081562400D6
:10B85C00B09D0700C1B32B0022202000920188006C
:10B86C0000000000AB9D0700800078000020EF0076
:10B87C0080587800C00220000000470000057800C6
:10B88C00CEE4070011052000E07A25001008E10045
:10B89C000400320011002000E07A250010884000DE
:10B8AC00CEFF37000020EF0070BD8A00410320005E
:10B8BC00E07A25001009B800E06524008200400001
:10B8CC0000032000008040008C5624001005BE00B0
:10B8DC0082E80700C00220000000470022C5B30028
:10B8EC000258780012C4B30002587800D2C4B300D6
:10B8FC000258780002C2B30002587800F2C4B300B8
:10B90C000258780062C6B3000258780062C6B300D1
:10B91C000258780032C7B3000258780052C6B30000
:10B92C000258780042C7B30002587800A2C3B30093
:10B93C000258780002C2B3000258780081562400E5
:10B94C00749D0700C1B32B002220200092018800B7
:10B95C00000000006F9D0700800078000020EF00C1
:10B96C0080587800C00220000000470000057800D5
:10B97C0092E4070011052000E07A25001008E10090
:10B98C000400320011002000E07A250010884000ED
:10B99C00C6FF3700670737006032220090407800FE
:10B9AC0090C3B300000CE10097003A00207B250007
:10B9BC008B562400104578002DB30700C0022000E0
:10B9CC0000004700F2C4B3000258780052C7B3001D
:10B9DC000258780042C7B3000258780002C7B3007F
:10B9EC000258780052C7B3000258780042C7B3001F
:10B9FC000258780002C2B30002587800D2C4B300D7
:10BA0C0002587800F2C6B3000258780042C6B30060
:10BA1C000258780052C6B30002587800A2C3B30093
:10BA2C000258780002C2B3000258780081562400F4
:10BA3C00389D0700C1B32B00222020009201880002
:10BA4C0000000000339D0700800078000020EF000C
:10BA5C0080587800C00220000000470000057800E4
:10BA6C0056E40700307B25008B56240010457800E7
:10BA7C00FFB20700C00220000000470002C5B3005F
:10BA8C000258780022C7B30002587800F2C6B300FF
:10BA9C000258780072C6B3000258780022C7B3006F
:10BAAC000258780012C6B30002587800D2C6B30010
:10BABC0002587800D2C6B3000258780092C6B30080
:10BACC0002587800E2C6B3000258780072C6B30080
:10BADC000258780002C2B30002587800D2C4B300F6
:10BAEC0002587800F2C6B3000258780042C6B30080
:10BAFC000258780052C6B30002587800A2C3B300B3
:10BB0C000258780002C2B300025878008156240013
:10BB1C00009D0700C1B32B00222020009201880059
:10BB2C0000000000FB9C0700800078000020EF0064
:10BB3C0080587800C0022000000047000005780003
:10BB4C001EE40700407B25008B562400104578002E
:10BB5C00C7B20700C00220000000470042C4B30077
:10BB6C000258780032C4B3000258780032C4B300D3
:10BB7C000258780002C2B3000258780022C4B30005
:10BB8C000258780052C7B3000258780032C7B3008D
:10BB9C000258780002C2B30002587800D2C4B30035
:10BBAC0002587800F2C6B3000258780042C6B300BF
:10BBBC000258780052C6B30002587800A2C3B300F2
:10BBCC000258780002C2B300025878008156240053
:10BBDC00D09C0700C1B32B002220200092018800CA
:10BBEC0000000000CB9C0700800078000020EF00D4
:10BBFC0080587800C0022000000047000005780043
:10BC0C00EEE30700CB06370060322200904078004C
:10BC1C0010C3B300000CE10002003A00F2E407008C
:10BC2C00C4063700603222009040780020C3B30075
:10BC3C00000CE10046023A008B5624000ABF820039
:10BC4C00A1CF0700C00220000000470032C5B3009E
:10BC5C000258780012C6B30002587800D2C6B3005E
:10BC6C000258780002C7B30002587800C2C6B3006D
:10BC7C000258780052C6B3000258780042C5B3008F
:10BC8C000258780092C6B30002587800D2C6B300AE
:10BC9C000258780052C6B3000258780032C5B3007F
:10BCAC000258780042C7B3000258780052C6B3005D
:10BCBC000258780002C7B30002587800C2C4B3001F
:10BCCC000258780092C6B30002587800D2C6B3006E
:10BCDC000258780092C6B3000258780042C7B300ED
:10BCEC000258780032C5B3000258780082C6B300FF
:10BCFC000258780052C7B3000258780042C7B3000C
:10BD0C000258780042C4B30002587800F2C6B3005F
:10BD1C000258780072C7B30002587800E2C6B3002C
:10BD2C0002587800A2C3B3000258780002C2B300D4
:10BD3C000258780081562400769C0700C1B32B0072
:10BD4C00222020009201880000000000719C070056
:10BD5C00800078000020EF0080587800C00220009E
:10BD6C00000047000005780094E307008B56240080
:10BD7C001ABF820054CF0700C00220000000470009
:10BD8C0032C5B3000258780012C6B30002587800CE
:10BD9C00D2C6B3000258780002C7B300025878002C
:10BDAC00C2C6B3000258780052C6B30002587800DD
:10BDBC0042C5B3000258780092C6B300025878000E
:10BDCC00D2C6B3000258780052C6B30002587800AD
:10BDDC0032C5B3000258780042C7B300025878004D
:10BDEC0052C6B3000258780002C7B300025878005C
:10BDFC00C2C4B3000258780092C6B300025878004F
:10BE0C00D2C6B3000258780092C6B300025878002C
:10BE1C0042C7B3000258780022C5B300025878001C
:10BE2C0052C6B3000258780032C7B30002587800EB
:10BE3C0042C7B3000258780012C6B300025878000B
:10BE4C0022C7B3000258780042C7B30002587800EA
:10BE5C00A2C3B3000258780002C2B30002587800A3
:10BE6C00815624002B9C0700C1B32B0022202000FC
:10BE7C009201880000000000269C070080007800DA
:10BE8C000020EF0080587800C0022000000047001E
:10BE9C000005780049E307008B5624002ABF820076
:10BEAC0009CF0700C00220000000470032C5B300D4
:10BEBC000258780012C6B30002587800D2C6B300FC
:10BECC000258780002C7B30002587800C2C6B3000B
:10BEDC000258780052C6B3000258780042C5B3002D
:10BEEC000258780092C6B30002587800D2C6B3004C
:10BEFC000258780052C6B3000258780032C5B3001D
:10BF0C000258780042C7B3000258780052C6B300FA
:10BF1C000258780002C7B30002587800C2C4B300BC
:10BF2C000258780092C6B30002587800D2C6B3000B
:10BF3C000258780092C6B3000258780042C7B3008A
:10BF4C000258780032C4B30002587800F2C6B3002D
:10BF5C000258780052C7B30002587800E2C6B3000A
:10BF6C000258780042C7B3000258780052C6B3009A
:10BF7C000258780022C7B30002587800A2C3B3005D
:10BF8C000258780002C2B30002587800815624008F
:10BF9C00E09B0700C1B32B002220200092018800F7
:10BFAC0000000000DB9B0700800078000020EF0001
:10BFBC0080587800C002200000004700000578007F
:10BFCC00FEE207008B5624004ABF8200BECE07005B
:10BFDC00C002200000004700F2C4B30002587800F1
:10BFEC0062C7B3000258780052C6B30002587800FA
:10BFFC0022C7B3000258780002C2B300025878007E
:10C00C0032C4B3000258780052C7B300025878000B
:10C01C0022C7B3000258780022C7B3000258780038
:10C02C0052C6B30002587800E2C6B300025878003A
:10C03C0042C7B3000258780002C2B300025878001D
:10C04C00C2C4B3000258780092C6B30002587800FC
:10C05C00D2C6B3000258780092C6B30002587800DA
:10C06C0042C7B30002587800A2C3B300025878004C
:10C07C0002C2B3000258780081562400A59B070029
:10C08C00C1B32B0022202000920188000000000088
:10C09C00A09B0700800078000020EF0080587800FB
:10C0AC00C00220000000470000057800C3E2070032
:10C0BC008B5624005ABF820083CE0700C00220009A
:10C0CC0000004700F2C4B3000258780062C7B30006
:10C0DC000258780052C6B3000258780022C7B30049
:10C0EC000258780002C2B3000258780032C4B30080
:10C0FC000258780052C7B3000258780022C7B30028
:10C10C000258780022C7B3000258780052C6B30018
:10C11C0002587800E2C6B3000258780042C7B30058
:10C12C000258780002C2B3000258780032C4B3003F
:10C13C0002587800F2C6B3000258780052C7B30018
:10C14C0002587800E2C6B3000258780042C7B30028
:10C15C000258780052C6B3000258780022C7B300C8
:10C16C0002587800A2C3B3000258780002C2B30090
:10C17C000258780081562400669B0700C1B32B003F
:10C18C00222020009201880000000000619B070023
:10C19C00800078000020EF0080587800C00220005A
:10C1AC00000047000005780084E207008B5624004D
:10C1BC003ABF820044CE0700C002200000004700B6
:10C1CC0022C4B3000258780092C6B300025878001B
:10C1DC0042C7B3000258780062C5B3000258780019
:10C1EC0012C6B30002587800C2C6B30002587800D9
:10C1FC0052C7B3000258780052C6B30002587800F8
:10C20C00A2C3B3000258780002C2B30002587800EF
:10C21C00815624003F9B0700C1B32B002220200035
:10C22C0092018800000000003A9B07008000780013
:10C23C000020EF0080587800C0022000000047006A
:10C24C00000578005DE2070030BF82008000EB0043
:10C25C005CCE07002276220063FF2300A1AC07000E
:10C26C003234230033B523009EAC07008C562400D7
:10C27C000005BE003BE50700C0022000000047009F
:10C28C00D2C4B3000258780052C6B30002587800EA
:10C29C0012C6B3000258780032C7B30002587800B7
:10C2AC0052C7B3000258780022C7B3000258780076
:10C2BC0052C6B3000258780042C6B3000258780048
:10C2CC0002C2B3000258780032C4B300025878009E
:10C2DC0052C7B3000258780022C7B3000258780046
:10C2EC0022C7B3000258780052C6B3000258780037
:10C2FC00E2C6B3000258780042C7B3000258780077
:10C30C00A2C3B3000258780002C2B30002587800EE
:10C31C0081562400FF9A070012C4B300025878001B
:10C32C00C1B32B00222020009201880000000000E5
:10C33C00F89A0700800078000020EF008058780001
:10C34C00C002200000004700000578001BE2070037
:10C35C008B562400BABD82007AE90700C002200087
:10C36C000000470092C4B3000258780002C2B30028
:10C37C0002587800C2C4B3000258780052C6B30009
:10C38C000258780062C7B3000258780052C6B30056
:10C39C0002587800C2C6B30002587800A2C3B3009A
:10C3AC000258780002C2B30002587800815624006B
:10C3BC00D89A0700C1B32B002220200092018800DC
:10C3CC0000000000D39A0700800078000020EF00E6
:10C3DC0080587800C002200000004700000578005B
:10C3EC00F6E107008B562400CABD820055E9070010
:10C3FC00C00220000000470092C4B300025878002D
:10C40C0002C2B3000258780042C5B300025878004B
:10C41C0092C6B30002587800D2C6B3000258780016
:10C42C0052C6B30002587800A2C3B3000258780079
:10C43C0002C2B3000258780081562400B59A070056
:10C44C00C1B32B00222020009201880000000000C4
:10C45C00B09A0700800078000020EF008058780028
:10C46C00C00220000000470000057800D3E107005F
:10C47C008B5624001A19810032E90700C0022000F3
:10C48C0000004700F2C4B3000258780062C7B30042
:10C49C000258780052C6B3000258780022C7B30085
:10C4AC0002587800C2C6B30002587800F2C6B30036
:10C4BC000258780012C6B3000258780042C6B30086
:10C4CC000258780042C4B3000258780052C6B30038
:10C4DC000258780042C7B3000258780052C6B30025
:10C4EC000258780032C6B3000258780042C7B30035
:10C4FC000258780052C6B3000258780042C6B30006
:10C50C0002587800A2C3B3000258780002C2B300EC
:10C51C0002587800815624007E9A0700C1B32B0084
:10C52C00222020009201880000000000799A070068
:10C53C00800078000020EF0080587800C0022000B6
:10C54C0000004700000578009CE1070079043700E3
:10C55C00603222009040780030C3B300000CE10040
:10C56C002D003A000020EF0070BD8A0050BD820003
:10C57C00E1005000519F9800E07A25001008E1007E
:10C58C002400350070BD8200C100DD006070250004
:10C59C0001004000900578007ABD820008E9070090
:10C5AC0070BD8200C100DD006070250001004000FC
:10C5BC001620EF001005780061E70700E000470047
:10C5CC00D0C0B30080587800A0C0B3008058780069
:10C5DC00D0C0B30080587800A0C0B3008058780059
:10C5EC0000C0B30080587800600047000005780058
:10C5FC0072E10700E17A25005E9890001100E100DD
:10C60C000400320011002000E07A25001088400060
:10C61C00D6FF370047043700603222009040780084
:10C62C0040C3B300000CE10002003A00B3E807007D
:10C63C0040043700603222009040780050C3B300B1
:10C64C00000CE10009003A000020EF000220EF008E
:10C65C0080188900911889000020EF000220EF005B
:10C66C00A0188900B118890032043700603222000A
:10C67C009040780070C3B300000CE10010033A0046
:10C68C00E000470010C3B3008058780090C3B3009B
:10C69C008058780020C3B30080587800E0C2B30003
:10C6AC008058780010C3B3008058780060C3B30082
:10C6BC008058780080C3B30080587800E0C2B30083
:10C6CC008058780000C3B30080587800E0C2B300F3
:10C6DC008058780010C3B3008058780020C3B30092
:10C6EC008058780070C3B300805878000020EF00A9
:10C6FC008058780060004700CB7D2500000578004D
:10C70C00CDE107001620EF00CA7D25007DF607005D
:10C71C00D0BE8A00E1FF2F000100E1005D003A006D
:10C72C00E000470000C5B3008058780090C6B30005
:10C73C0080587800E0C6B3008058780070C6B3000B
:10C74C008058780000C2B3008058780040C7B3000E
:10C75C008058780090C6B30080587800D0C6B300DB
:10C76C008058780050C6B3008058780000C2B300DF
:10C77C008058780060C6B30080587800F0C6B300CB
:10C78C008058780020C7B3008058780000C2B300EE
:10C79C008058780010C3B3008058780090C3B30061
:10C7AC008058780020C3B30080587800E0C2B300F2
:10C7BC008058780010C3B3008058780060C3B30071
:10C7CC008058780080C3B30080587800E0C2B30072
:10C7DC008058780000C3B30080587800E0C2B300E2
:10C7EC008058780010C3B3008058780020C3B30081
:10C7FC008058780070C3B3008058780000C2B30032
:10C80C0080587800D0C3B3008058780000C2B300C1
:10C81C0080587800E0C6B30080587800F0C6B300AA
:10C82C008058780000C2B3008058780020C7B3004D
:10C83C008058780050C6B3008058780030C7B300D9
:10C84C008058780000C7B30080587800F0C6B30059
:10C85C0080587800E0C6B3008058780030C7B30029
:10C86C008058780050C6B30080587800D0C0B30010
:10C87C0080587800A0C0B3008058780000C0B30086
:10C88C00805878006000470000057800CBE0070076
:10C89C0084003700D1BE8200F0FF2F000008E100B9
:10C8AC002D003A00E000470090C4B3008058780097
:10C8BC00E0C6B3008058780060C7B3008058780099
:10C8CC0010C6B30080587800C0C6B30080587800FA
:10C8DC0090C6B3008058780040C6B30080587800EA
:10C8EC0000C2B3008058780000C5B30080587800AF
:10C8FC0090C6B30080587800E0C6B300805878002A
:10C90C0070C6B3008058780000C2B300805878001D
:10C91C0030C5B30080587800C0C6B300805878008A
:10C92C00F0C6B3008058780040C7B3008058780038
:10C93C00D0C0B30080587800A0C0B30080587800F5
:10C94C0000C0B300805878006000470000057800F4
:10C95C009AE00700530037008B562400DABE8200A1
:10C96C00F8E70700C00220000000470002C5B30032
:10C97C000258780092C6B30002587800E2C6B300A1
:10C98C000258780072C6B3000258780002C2B30095
:10C99C000258780042C7B3000258780092C6B30020
:10C9AC0002587800D2C6B3000258780052C6B300C1
:10C9BC000258780002C2B3000258780062C6B30075
:10C9CC0002587800F2C6B3000258780022C7B300B0
:10C9DC000258780002C2B3000258780012C3B300A8
:10C9EC000258780092C3B3000258780022C3B300F7
:10C9FC0002587800E2C2B3000258780012C3B300A8
:10CA0C000258780062C3B3000258780082C3B300A6
:10CA1C0002587800E2C2B3000258780002C3B30097
:10CA2C0002587800E2C2B3000258780012C3B30077
:10CA3C000258780022C3B3000258780072C3B300C6
:10CA4C000258780002C2B30002587800D2C3B30077
:10CA5C000258780002C2B3000258780081562400B4
:10CA6C002C990700D2C6B3000258780032C7B30025
:10CA7C0002587800C1B32B002220200092018800BC
:10CA8C000000000023990700800078000020EF00D0
:10CA9C0080587800C0022000000047000005780094
:10CAAC0046E00700E000470010C3B3008058780050
:10CABC0090C3B3008058780020C3B300805878002E
:10CACC00E0C2B3008058780010C3B30080587800DF
:10CADC0060C3B3008058780080C3B30080587800DE
:10CAEC00E0C2B3008058780000C3B30080587800CF
:10CAFC00E0C2B3008058780080C3B300805878003F
:10CB0C000020EF008058780060004700CB7D2500A6
:10CB1C0000057800C8E007001620EF00CA7D25004C
:10CB2C0078F50700D0BE8A00E1FF2F000100E1007C
:10CB3C0059003A00E000470000C5B3008058780067
:10CB4C0090C6B30080587800E0C6B30080587800D7
:10CB5C0070C6B3008058780000C2B30080587800CB
:10CB6C0040C7B3008058780090C6B3008058780056
:10CB7C00D0C6B3008058780050C6B30080587800F7
:10CB8C0000C2B3008058780060C6B30080587800AB
:10CB9C00F0C6B3008058780020C7B30080587800E6
:10CBAC0000C2B3008058780010C3B30080587800DE
:10CBBC0090C3B3008058780020C3B300805878002D
:10CBCC00E0C2B3008058780010C3B30080587800DE
:10CBDC0060C3B3008058780080C3B30080587800DD
:10CBEC00E0C2B3008058780000C3B30080587800CE
:10CBFC00E0C2B3008058780080C3B300805878003E
:10CC0C0000C2B30080587800D0C3B30080587800BD
:10CC1C0000C2B30080587800E0C6B300805878009A
:10CC2C00F0C6B3008058780000C2B300805878007A
:10CC3C0020C7B3008058780050C6B30080587800E5
:10CC4C0030C7B3008058780000C7B3008058780014
:10CC5C00F0C6B30080587800E0C6B3008058780066
:10CC6C0030C7B3008058780050C6B30080587800A5
:10CC7C00D0C0B30080587800A0C0B30080587800B2
:10CC8C0000C0B300805878006000470000057800B1
:10CC9C00CADF070080003700D1BE8200F0FF2F00F2
:10CCAC000008E1002D003A00E000470090C4B300FA
:10CCBC0080587800E0C6B3008058780060C7B30095
:10CCCC008058780010C6B30080587800C0C6B300F6
:10CCDC008058780090C6B3008058780040C6B300E6
:10CCEC008058780000C2B3008058780000C5B300AB
:10CCFC008058780090C6B30080587800E0C6B30026
:10CD0C008058780070C6B3008058780000C2B30019
:10CD1C008058780030C5B30080587800C0C6B30086
:10CD2C0080587800F0C6B3008058780040C7B30034
:10CD3C0080587800D0C0B30080587800A0C0B300F1
:10CD4C008058780000C0B30080587800600047001D
:10CD5C000005780099DF07004F0037008B56240040
:10CD6C00DABE8200F7E60700C00220000000470090
:10CD7C0002C5B3000258780092C6B300025878007E
:10CD8C00E2C6B3000258780072C6B30002587800AD
:10CD9C0002C2B3000258780042C7B30002587800B0
:10CDAC0092C6B30002587800D2C6B300025878007D
:10CDBC0052C6B3000258780002C2B3000258780081
:10CDCC0062C6B30002587800F2C6B300025878006D
:10CDDC0022C7B3000258780002C2B3000258780090
:10CDEC0012C3B3000258780092C3B3000258780003
:10CDFC0022C3B30002587800E2C2B3000258780094
:10CE0C0012C3B3000258780062C3B3000258780012
:10CE1C0082C3B30002587800E2C2B3000258780013
:10CE2C0002C3B30002587800E2C2B3000258780083
:10CE3C0082C3B3000258780002C2B30002587800D3
:10CE4C00D2C3B3000258780002C2B3000258780073
:10CE5C00815624002F980700D2C6B30002587800E0
:10CE6C0032C7B30002587800C1B32B002220200037
:10CE7C0092018800000000002698070080007800CE
:10CE8C000020EF0080587800C0022000000047000E
:10CE9C000005780049DF0700E000470010C3B3002D
:10CEAC008058780090C3B3008058780020C3B3003A
:10CEBC0080587800E0C2B3008058780010C3B300EB
:10CECC008058780060C3B3008058780080C3B300EA
:10CEDC0080587800E0C2B3008058780000C3B300DB
:10CEEC0080587800E0C2B3008058780020C3B300AB
:10CEFC008058780030C3B3008058780040C3B3002A
:10CF0C00805878000020EF008058780060004700BF
:10CF1C00CB7D250000057800C7DF07001620EF0049
:10CF2C00CA7D250077F40700D0BE8A00E1FF2F00F0
:10CF3C000100E1005D003A00E000470000C5B300CD
:10CF4C008058780090C6B30080587800E0C6B300D3
:10CF5C008058780070C6B3008058780000C2B300C7
:10CF6C008058780040C7B3008058780090C6B30052
:10CF7C0080587800D0C6B3008058780050C6B300F3
:10CF8C008058780000C2B3008058780060C6B300A7
:10CF9C0080587800F0C6B3008058780020C7B300E2
:10CFAC008058780000C2B3008058780010C3B300DA
:10CFBC008058780090C3B3008058780020C3B30029
:10CFCC0080587800E0C2B3008058780010C3B300DA
:10CFDC008058780060C3B3008058780080C3B300D9
:10CFEC0080587800E0C2B3008058780000C3B300CA
:10CFFC0080587800E0C2B3008058780020C3B3009A
:10D00C008058780030C3B3008058780040C3B30018
:10D01C008058780000C2B30080587800D0C3B300A9
:10D02C008058780000C2B30080587800E0C6B30086
:10D03C0080587800F0C6B3008058780000C2B30066
:10D04C008058780020C7B3008058780050C6B300D1
:10D05C008058780030C7B3008058780000C7B30000
:10D06C0080587800F0C6B30080587800E0C6B30052
:10D07C008058780030C7B3008058780050C6B30091
:10D08C0080587800D0C0B30080587800A0C0B3009E
:10D09C008058780000C0B3008058780060004700CA
:10D0AC0000057800C5DE070084003700D1BE820081
:10D0BC00F0FF2F000008E1002D003A00E0004700CF
:10D0CC0090C4B30080587800E0C6B3008058780054
:10D0DC0060C7B3008058780010C6B3008058780041
:10D0EC00C0C6B3008058780090C6B3008058780052
:10D0FC0040C6B3008058780000C2B3008058780056
:10D10C0000C5B3008058780090C6B30080587800F2
:10D11C00E0C6B3008058780070C6B3008058780021
:10D12C0000C2B3008058780030C5B3008058780036
:10D13C00C0C6B30080587800F0C6B30080587800A1
:10D14C0040C7B30080587800D0C0B3008058780036
:10D15C00A0C0B3008058780000C0B300805878009D
:10D16C00600047000005780094DE0700530037008C
:10D17C008B562400DABE8200F2E50700C0022000C4
:10D18C000000470002C5B3000258780092C6B300F5
:10D19C0002587800E2C6B3000258780072C6B30099
:10D1AC000258780002C2B3000258780042C7B3009C
:10D1BC000258780092C6B30002587800D2C6B30069
:10D1CC000258780052C6B3000258780002C2B3006D
:10D1DC000258780062C6B30002587800F2C6B30059
:10D1EC000258780022C7B3000258780002C2B3007C
:10D1FC000258780012C3B3000258780092C3B300EF
:10D20C000258780022C3B30002587800E2C2B3007F
:10D21C000258780012C3B3000258780062C3B300FE
:10D22C000258780082C3B30002587800E2C2B300FF
:10D23C000258780002C3B30002587800E2C2B3006F
:10D24C000258780022C3B3000258780032C3B300EE
:10D25C000258780042C3B3000258780002C2B300EF
:10D26C0002587800D2C3B3000258780002C2B3004F
:10D27C00025878008156240026970700D2C6B300C6
:10D28C000258780032C7B30002587800C1B32B00A3
:10D29C002220200092018800000000001D9707004A
:10D2AC00800078000020EF0080587800C002200039
:10D2BC00000047000005780040DE07001D01370024
:10D2CC00603222009040780080C3B300000CE10073
:10D2DC0036003A00C3F307000000E20032003200CF
:10D2EC00E0004700E0C4B3008058780040C5B300AC
:10D2FC008058780000C5B30080587800F0C5B300A2
:10D30C008058780010C5B3008058780050C7B3001F
:10D31C008058780050C6B3008058780020C7B300FE
:10D32C008058780090C7B3008058780000C2B300D2
:10D33C008058780030C7B3008058780050C7B300CD
:10D34C008058780030C6B3008058780030C6B300DF
:10D35C008058780050C6B3008058780030C7B300AE
:10D36C008058780030C7B3008058780060C6B3008E
:10D37C008058780050C7B30080587800C0C6B300FE
:10D38C0080587800D0C0B30080587800A0C0B3009B
:10D39C008058780000C0B3008058780060004700C7
:10D3AC000005780005DE0700E2003700603222003D
:10D3BC0090407800B0C6B300000CE100DD003A00EC
:10D3CC00C15D240070C7B3008058780070C7B300EB
:10D3DC008058780070C7B30080587800E0C2B30062
:10D3EC0080587800D0C6B3008058780050C7B3007E
:10D3FC008058780030C7B3008058780040C7B3001D
:10D40C008058780010C6B30080587800E0C6B3008E
:10D41C008058780070C6B3008058780000C7B300FD
:10D42C008058780050C6B3008058780010C6B300FE
:10D43C0080587800B0C6B30080587800E0C2B300C2
:10D44C0080587800E0C6B3008058780050C6B3000E
:10D45C008058780040C7B300805878000020EF0057
:10D46C0080587800C00220000000470042C4B3007E
:10D47C0002587800E2C4B3000258780032C5B300F9
:10D48C000258780002C2B3000258780022C7B300D9
:10D49C000258780052C6B3000258780032C7B30065
:10D4AC0002587800F2C6B30002587800C2C6B30026
:10D4BC000258780062C7B3000258780092C6B300D5
:10D4CC0002587800E2C6B3000258780072C6B30066
:10D4DC0002587800A2C3B3000258780002C2B3000D
:10D4EC0002587800C15D24008A960700C1B32B0056
:10D4FC002220200092018800000000008596070081
:10D50C00800078000020EF0080587800C0022000D6
:10D51C000000470000057800A8DD0700CB7D250042
:10D52C00CA5D240090F207000000E20052003200B5
:10D53C00E000470040C4B30080587800E0C4B3005A
:10D54C008058780030C5B3008058780000C2B30012
:10D55C008058780020C5B3008058780050C6B300BE
:10D56C008058780030C7B30080587800F0C6B300FC
:10D57C0080587800C0C6B3008058780060C7B300EC
:10D58C008058780050C6B3008058780000C2B300B1
:10D59C008058780030C7B3008058780050C7B3006B
:10D5AC008058780030C6B3008058780030C6B3007D
:10D5BC008058780050C6B3008058780030C7B3004C
:10D5CC008058780030C7B3008058780060C6B3002C
:10D5DC008058780050C7B30080587800C0C6B3009C
:10D5EC0080587800D0C0B30080587800A0C0B30039
:10D5FC008058780000C0B300805878006000470065
:10D60C00000578006DDD07008B562400CA7D2500CF
:10D61C00ADDB0700C002200000004700C15D240004
:10D62C003C96070002C2B30002587800D2C3B30084
:10D63C000258780002C2B3000258780081562400C8
:10D64C0034960700C1B32B002220200092018800E1
:10D65C00000000002F960700800078000020EF00EB
:10D66C0080587800C00220000000470000057800B8
:10D67C0052DD07002E003700E000470040C4B30025
:10D68C0080587800E0C4B3008058780030C5B300EF
:10D69C008058780000C2B3008058780020C5B300D1
:10D6AC008058780050C6B3008058780030C7B3005B
:10D6BC0080587800F0C6B30080587800C0C6B3001C
:10D6CC008058780060C7B3008058780050C6B3000B
:10D6DC008058780000C2B3008058780060C6B30050
:10D6EC008058780010C6B3008058780090C6B300FC
:10D6FC0080587800C0C6B3008058780050C6B3007C
:10D70C008058780040C6B30080587800D0C0B30071
:10D71C0080587800A0C0B3008058780000C0B300D7
:10D72C0080587800600047000005780023DD070072
:10D73C00000037008CEC07006100E10002003A00A9
:10D74C00CCB90700FBFF37000AF73700CF0678008B
:10D75C004F067800CF0578004F0578000080FA005E
:04D76C00FFFF370084
:1044A8008BF2070032F2070084F20700EAF20700F5
:1044B8008C9FBE008A9FBE00B1F307004F05BE0067
:0C44C8004F06BE00AFF307000000060026
:100ED8008A1F78000820EF00E00020000401B80015
:100EE8002003210002004000000578005FF9070098
:100EF800100520000020E100020032000820EC006C
:100F0800F5FF37001000200000198900E1312200A8
:100F18000020EF00804878000020EF0010198900B9
:100F2800217B25000020EF0080487800217B2500E8
:100F38000020EF0080487800317B25000020EF007A
:100F480080487800417B25000020EF008048780029
:100F5800517B25000020EF0080487800803E20006B
:100F6800B0BD8A0040062000C0BD8A00C17B2500B4
:100F78000020EF00804878000420EF00D07B250097
:100F8800820040000020EF00804878007B10E100DC
:100F9800020032000420EC00F8FF3700917D2500A4
:100FA8000020EF00804878000020EF0030BF8A0062
:100FB8001000200000BF8A00800C200010BF8A00AB
:100FC8000020EF0020BF8A00803E200040BF8A003A
:100FD8000020EF0050BF8A00C17E25000020EF00EE
:0C0FE800804878004F05780000000600EB
:020000040000FA
:10F474000020EF00004D7800E20045000020EF007E
:10F4840080087800660145000020EF000220EF00AC
:10F494000089BE00EA0045000020EF0080087800E3
:10F4A400E4004500C0C1B30080487800EC0045008A
:0CF4B4000020EF00800878000000060037
:020000040001F9
:100D78000020EF0070028900A11322000020EF007C
:100D880080487800B11322000020EF0080487800E6
:100D98000020EF000220EF00E0098900F109890036
:100DA800011422000020EF008048780091142200EE
:100DB8000020EF00804878000820EF00E0002000C5
:100DC8000401B80060162200020140000020EF0074
:100DD8000220EF000089BE00E00020000401B800F6
:100DE8006016220002004000E40040000020EF00EE
:100DF80080487800E00020000401B8006016220056
:100E080002004000ED0040000020EF00804878001C
:100E18007D20E100020032000820EC00E7FF3700E7
:100E28000020EF000220EF00500A8900610A8900C3
:100E3800E11422000020EF0080487800711522009C
:100E48000020EF00804878000020EF000220EF002B
:100E5800C00A8900D10A8900C11522000020EF00CC
:100E680080487800511622000020EF008048780062
:100E78000020EF00501889000020EF00601889005A
:100E88000020EF00701889000020EF000220EF001A
:100E9800A0188900B11889000020EF000220EF0097
:100EA80080188900911889000020EF00C018890077
:0C0EB8000020EF00D018890000000600A8
:100EC40000002000B003890000002000A003890076
:040ED4000000060014
:101060008A1F78000820EF00A00020000401B800CB
:10107000C055210002004000000578009DF20700E5
:10108000300A20000020E100020032000820EC00BD
:10109000F5FF370051BC21000020EF0080487800A8
:1010A00041BC21000020EF00804878000820EF00BC
:1010B000A00520000401B80000C921000200400082
:1010C0000005780054F207006920E10002003200B8
:1010D0000820EC00F6FF3700510122000020EF004D
:1010E00080487800410122000020EF00804878000D
:1010F0000820EF00600520000401B800E04A21004C
:101100000200400000057800DCF207006120E100E9
:10111000020032000820EC00F6FF3700B155210034
:101120000020EF0080487800A15521000020EF004A
:10113000804878000820EF00400120000401B8003A
:1011400060BC2100020040000005780024F3070085
:101150006920E100020032000820EC00F6FF3700B1
:10116000F1C821000020EF0080487800E1C821008C
:101170000020EF00804878004F057800000006004E
:001180006F
:020000040000FA
:10DAF4000020EF00004D7800E20045000020EF0018
:10DB040080087800E40045000020EF0080087800D9
:10DB1400E60045000020EF0080487800E80045005A
:10DB24000020EF0080087800E70045000020EF00A7
:08DB34008048780000000600A3
:10DA18006050E100340032000020EF00004D780033
:10DA2800E20045000020EF0080087800E40045008F
:10DA38000020EF0080087800E60045000020EF0095
:10DA480080487800E70045000020EF008048780013
:10DA5800E80045000020EF0080087800EA00450053
:10DA68000020EF0080487800600520008000450015
:10DA78000020EF00800878003005200000004500F5
:10DA8800E200400010C0B300804878003005200054
:10DA9800800045000020EF00804878003005200015
:10DAA80000004500E10040000020EF0080487800B9
:10DAB80080052000800045000020EF0080487800A5
:10DAC8000420EF006B004500820040000020EF00BA
:10DAD80080487800700420000010E1000200320045
:0CDAE8000420EC00F7FF370000000600EF
:10DC7C000020EF00004D7800E20045000020EF008E
:10DC8C0080087800E40045000020EF008008780050
:10DC9C00E60045000020EF0080487800E7004500D2
:10DCAC000020EF0080487800E80045000020EF00DD
:10DCBC00804878006A0145000020EF000220EF0048
:10DCCC000089BE00EE0045000020EF00804878007F
:10DCDC00F0042000800045000020EF008048780010
:10DCEC000420EF006F004500820040000020EF0090
:10DCFC0080487800F00320000010E10002003200A0
:10DD0C000420EC00F7FF37000005200080004500E0
:10DD1C0000C8B30080487800200520008000450032
:10DD2C000020EF00800878004005200080004500AE
:0CDD3C00000020008008780000000600B5
:10DDE0000020EF00004D7800E20045000020EF0029
:10DDF00080087800E40045000020EF0080087800EB
:10DE0000E60045000020EF0080487800E70045006C
:10DE10000020EF0080487800E80045000020EF0077
:10DE200080087800EA0045000020EF008048780074
:10DE30000420EF006B004500820040000020EF004E
:10DE4000804878006710E100020032000420EC00F6
:08DE5000F8FF37000000060096
:020000040001F9
:04138800000006005B
:10138C000200FA000020EF0060BD8A000020EF0090
:10139C0050BD8A000820EF006020E10009003400F5
:1013AC00400320000401B800E06524000200400066
:1013BC008A9FBE008BC0B300000578007FF2070047
:1013CC004F05BE00400320000401B800E065240076
:1013DC0002004000841F78008C9FBE008A9FBE00D4
:1013EC00840578000005780054F207004F05BE0014
:1013FC004F06BE004F027800400320000401B800E5
:10140C00E065240002004000841F78008C9FBE0021
:10141C008A9FBE0084057800000578006CEF0700F9
:10142C004F05BE004F06BE004F027800400320005F
:10143C000401B800E06524000201400004007800BB
:10144C00CF80DE000000460081804E00841F7800B3
:10145C008C9FBE008A9FBE000B0678008A05780020
:10146C0002057800809FBE00DEEE07004F00B10041
:10147C004F05BE004F06BE004F027800400320000F
:10148C000401B800E0652400020040000448780024
:10149C00100520000020E100020032000820EC00C2
:1014AC00BDFF3700E9652400E280440070804000F5
:1014BC0000079800688040008A9FBE001620EF004D
:1014CC0000057800BAEE07008E00900080087800C6
:1014DC001BC0B3000905780038F207004F05BE00A9
:1014EC0050BD8200C100DD0060702500010040008D
:1014FC000908780050BD82000020EC0050BD8A0025
:10150C008C9FBE008A9FBE000905780039EF07004A
:10151C004F05BE004F06BE000080FA00000006001A
:00152C00BF
:020000040000FA
:10DDC800610145009280FB000B80FB000080700021
:08DDD80000497800000006007C
:10DD48000200FA008B1F78008BC0B30086E807003A
:10DD5800CF0578000000E2001200320040022000E7
:10DD680000004500000798000B0078008000EB00D9
:10DD780061005000E080580002702000030020007D
:10DD880006E90700022020000300200000014100EE
:10DD9800818149000E009000021878000310780075
:10DDA8000500370040022000000145000020EF0078
:10DDB8000220EF000089BE000080FA000000060083
:00DDC8005B
:107F7000610045009080FB000B80FB00808060006A
:107F80000B80FB000008E1000220EF0001003A0036
:0C7F900002A0EE000100780000000600D6
:1081A4000000FA00020AB800500088000200B8007B
:1081B40081004200032AB800810042000080FA00D6
:0481C40000000600B1
:10D1DC000003200000024500E00020000B01B80015
:10D1EC0020032100020040008000EB00008ABE00FA
:04D1FC000000060029
:10CFF0000000FA003EB99700CEB99700FC0045004A
:10D000000020EF0080087800FE0045000020EF00BF
:10D010008008780000022000800045000020EF001A
:10D020008008780020022000800045000020EF00EA
:10D0300080087800E10045000020EF00804878007B
:10D04000F60045000020EF0080487800F70045001A
:10D050000020EF008048780080022000800045001A
:10D060000020EF0080087800A0022000800045002A
:10D070000020EF00800878006058E10060E0E100E7
:10D080000220EF000100320002A0EE006010E1007B
:10D090006098E1000020EF000100320000A0EE00E7
:10D0A0000080600011003200620045000288BE006E
:10D0B00062004500640040000B1878000C107800F6
:10D0C00062004500E800400003000900B018780045
:10D0D000F40045000020EF0080487800740045000F
:10D0E000E10040000020EF00804878000420EF00BD
:10D0F00079004500820040000020EF008048780061
:10D100006010E100020032000420EC00F8FF37005C
:10D110000420EF0078004500820040000020EF006E
:10D12000804878006010E100020032000420EC002A
:10D13000F8FF37000420EF007A004500820040002D
:10D140000020EF00804878006010E100020032000B
:10D150000420EC00F8FF3700FB0045000020EF0042
:10D160008048780080022000800045000020EF0009
:10D1700080087800A0022000800045000020EF0019
:10D1800080087800C0022000800045000020EF00E9
:10D1900080087800E0022000800045000020EF00B9
:10D1A00080087800F40045000020EF0080487800F7
:10D1B00074004500E10040000020EF008048780046
:10D1C00001EC07008A1F780000057800A908070015
:0CD1D0004F0578000080FA000000060007
:1081C8000220EF006050E1000400320000032000AC
:1081D800000045009000780000003700010078009A
:0481E800000006008D
:10CFBC001600E200010032000CEC07005BEC0700ED
:10CFCC00800078006008E10004003A0007EC0700DC
:10CFDC0056EC070080007800000037000100780054
:04CFEC00000006003B
:107FF800E4004500900020001103BE000000E900E5
:10800800030035000603D0008783D200FBFF37004A
:108018001A02BE00F00020000401BE000000E900C2
:10802800030035008301D1000281D300FBFF370034
:10803800F01F200001002000000061008180610025
:108048000001730081817300F0FF2F00F10F200001
:1080580000036100818361001A02BE0090002000C5
:108068000401BE000000E900030035000201D00051
:108078008381D200FBFF3700F0FF2F00F10F2000B3
:1080880000016100818161001A00BE000201400008
:108098008381480090BA2400A1072000001D4100F8
:1080A8000195490064024500640045003001430021
:1080B800A0814B0030CA2000B1012000001A410005
:1080C8000192490064044500640045001001BE00A7
:1080D800F0FF2F00F10F2000000361008183610091
:1080E8001A01BE000000200001F02F00000261000C
:1080F80081826100820120000400BE000201E900C3
:10810800030035008100D1000080D300FBFF370059
:10811800001C7300019473001A01BE00F0FF2F00C9
:10812800F10F2000001D61000195610000000600AC
:0081380047
:10813800E40045001A00780091026800BA0178004E
:108148002A027800C200200003007800840078002A
:108158000201E900030035008100D1000080D3004E
:10816800FBFF370000826A00E4014500C2002000DE
:108178001300BE000201E900030035008100D100B0
:108188000080D300FBFF370000016A00F0FF2000E9
:0C8198008000610001007800000006007B
:10D20000F1EB0700800178000220EF000148780070
:10D21000EA8041000020EF0080087800E2804100B1
:10D220000020EF0080087800668141000020EF00B8
:0CD230000220EF000089BE000000060094
:020000040001F9
:104C40008A1F78008B1F78008C1F78000E2EEF00D3
:104C50001E2EEF00F18F2F002074200010886000BE
:104C60004207A8004207AF00FEFF370001FE2F00F9
:104C70004074200010886000E001200046A7B700C3
:104C800044E7A90044C7A900013020002074200097
:104C9000108870004207A8004207AF00FEFF3700EF
:104CA00042A7AE00FEFF370007A02F000E20ED0048
:104CB000FEFF3A000000000000000000A9F107001C
:104CC000ECC0B3001BC0B300CAC2B3002CF1070094
:104CD0001CC0B3001620EF00AAC2B30028F10700E1
:104CE000E3CF07000A4028003B0020002DF1070019
:104CF000A800200057402C000E20ED00FEFF3A00D7
:104D00001020ED00FCFF3A00000000000421A90083
:104D10004188A80041A8A80041C8A800A0732000AD
:104D200002A1B7000068A9002068A8001021A9000E
:104D30004388A90043A8A80043C8A9001081A8007F
:104D400010A1A800400D23000CA1B70000E8A900A5
:104D500020E8A80011E1A8001221A9004408A90038
:104D60004428A8004448A9001281A80012A1A80064
:104D7000D00720000EA1B7000108A9002108A80053
:104D800013E1A8002021A9004E08A8004E28A90080
:104D90004E48A8002081A80020A1A80010272000CC
:104DA0001CA1B7000388A9002388A8000E0EA80044
:104DB000F0FF210024A3B7002043A8002083A9000E
:104DC00020A3A80020C3A80020E3A8003303A90063
:104DD0002243A8002263A8002283A80022A3A800DF
:104DE00022C3A9004688A80046A8A80046C8A90072
:104DF00001A8A90021E3A800070820000E20ED006B
:104E0000FEFF3A0000000000000000004F0678009E
:0C4E1000CF0578004F0578000000060078
:101364000000FA00217420006204200073052000AC
:10137400824878008348780042C7A9000080FA00B8
:04138400000006005F
:101180000000FA008D1F78001A20EF009EF0070083
:101190008000780001007800CF0678000080FA0017
:0411A0000000060045
:020000040000FA
:10D408000200FA00F00F200000079800605CE100BD
:10D4180043003A006168E10001003A00CF0F0700BD
:10D428007454E10003003A00006820000C487800BA
:10D438003800370030C2B3000054E10003003A005E
:10D44800106820000C4878003200370040C2B30052
:10D458000054E10003003A00206820000C487800DE
:10D468002C00370050C2B3000054E10003003A001A
:10D47800306820000C4878002600370060C2B300EE
:10D488000054E10003003A00406820000C4878008E
:10D498002000370070C2B3000054E10003003A00D6
:10D4A800506820000C4878001A00370080C2B3008A
:10D4B8000054E10003003A00606820000C4878003E
:10D4C8001400370090C2B3000054E10003003A0092
:10D4D800706820000C4878000E003700A0C2B30026
:10D4E8000054E10003003A00806820000C487800EE
:10D4F80008003700B0C2B3000054E10003003A004E
:10D50800906820000C487800020037000020EF00E7
:10D51800000798006168E10001003A00D2ED0700B9
:10D52800615CE1004E003A006168E10001003A00E8
:10D538008A0F07006064E10003003A00106A2000C7
:10D548000A487800430037006164E10003003A00AC
:10D55800206A20000A4878003E0037006264E10033
:10D5680003003A00606A20000A4878003900370052
:10D578006364E10003003A00E06A20000A4878008A
:10D58800340037006464E10003003A00E06A2000D8
:10D598000A4878002F0037006564E10003003A006C
:10D5A800106B20000A4878002A0037006664E10002
:10D5B80003003A00006B20000A4878002500370075
:10D5C8006764E10003003A00606B20000A487800B5
:10D5D800200037006E64E10003003A00406C200030
:10D5E8000A4878001B0037006F64E10003003A0026
:10D5F800606C20000A487800160037007064E1006B
:10D6080003003A00C06C20000A4878001100370077
:10D618007164E10003003A00D06C20000A487800E9
:10D628000C0037007264E10003003A00E06C20004F
:10D638000A487800070037007364E10003003A00E5
:10D64800406D20000A487800020037000020EF00F3
:10D65800000798006168E10001003A0082ED0700C8
:10D668007454E10005003A001600AE00008EA900CF
:10D678001600AF00008EA8004A00370030C2B30081
:10D688000054E10005003A001600AE00106EA90033
:10D698001600AF00106EA8004200370040C2B30069
:10D6A8000054E10005003A001600AE00108EA900F3
:10D6B8001600AF00108EA8003A00370050C2B30021
:10D6C8000054E10005003A001600AE0010AEA900B3
:10D6D8001600AF0010AEA8003200370060C2B300D9
:10D6E8000054E10005003A001600AE0010CEA90073
:10D6F8001600AF0010CEA8002A00370070C2B30091
:10D708000054E10005003A001600AE0010EEA90032
:10D718001600AF0010EEA8002200370080C2B30048
:10D728000054E10005003A001600AE00110EA900F1
:10D738001600AF00110EA8001A00370090C2B300FF
:10D748000054E10005003A001600AE00112EA900B1
:10D758001600AF00112EA80012003700A0C2B300B7
:10D768000054E10005003A001600AE00114EA90071
:10D778001600AF00114EA8000A003700B0C2B3006F
:10D788000054E10005003A001600AE00116EA90031
:10D798001600AF00116EA800020037000020EF004D
:10D7A800000798000E0090000080FA0000000600B4
:00D7B80071
:108C70000000FA0021742000620420007305200027
:108C8000824878008348780042C7A8000080FA0034
:048C900000000600DA
:020000040001F9
:1011A4000C00FA0040452800B000890000F4250036
:1011B400F0008900A04B2C000001890000F32500F9
:1011C400E00089002022EF000000280022A2B700DE
:1011D4002062A90018F00700823E200003002000CE
:1011E400EFDB070000079800110798005400200067
:1011F4000A01BE000402E900030035000201D00028
:101204008381D200FBFF3700220798003307980040
:101214008A9FBE000082EB008AF407004007980012
:10122400510798002E019000BE0190000E0090001E
:101234009E0090000082EB0059F407004F05BE00A9
:10124400000798001107980064004700B000780078
:10125400200178000201D1008180D300680047009A
:101264003008E1002090E10005003D008E00900070
:101274001E01900060004700619840006010490022
:101284000E0090009E0090006000E1006088E10084
:101294002A003A00E8EF0700823E20000300200005
:1012A400BFDB0700000798001107980034002000F6
:1012B4000A01BE000402E900030035000201D00067
:1012C4008381D200FBFF3700220798003307980080
:1012D4000082EB005BF40700400798005107980078
:1012E4002E019000BE0190000E0090009E00900020
:1012F4000082EB002AF40700000798001107980009
:1013040064004700B0007800200178000201D10099
:101314008180D300680047003008E1002090E1009C
:1013240005003D008E0090001E0190006000470003
:1013340061984000601049002062A8008E0090006F
:1013440080222000618850002222A90021E2A80006
:101354002342A800BFF207000080FA000000060044
:0013640089
:020000040000FA
:10D23C0002A02F00030020000200BE000000060028
:00D24C00E2
:10DE580007A02F000E20ED00FEFF3A000000000092
:08DE68000000000000000600AC
:10E448000000FA00020007007872040000000000D3
:10E458000800E20002003A00100007000000060071
:10E46800811F78000200E20002003D0060001000F9
:10E47800E08018000600E20002003D006001110083
:10E48800E0811900050007004F00E00002003B0092
:10E4980060001000E080180000000600020007007D
:10E4A8000480BE00000006006022B80006022000BA
:10E4B8000000D0008180D2000482D2008582D20080
:10E4C8000000A8000202520083825A0003003B00A9
:10E4D8000202420083824A000000A1000603E9000C
:10E4E800F3FF3A00000006000080FA000000060072
:00E4F80024
:10E3A4000000FA00020007002072040000000000D0
:10E3B4000800E20002003A00100007000000060016
:10E3C400839F68000200E20002003D00600010002C
:10E3D400E08018000600E20002003D006001110028
:10E3E400E0811900050007004F00E00002003B0037
:10E3F40060001000E0801800000006006022B800F1
:10E40400060220000000D0008180D2000482D200E5
:10E414008582D2000000A8000202520083825A00C2
:10E4240003003B000202420083824A000000A10074
:10E434000603E900F3FF3A00000006000080FA003A
:04E4440000000600CE
:020000040001F9
:104F90008A1F78008B1F78008C1F78008D1F780087
:104FA0000DC1B3008C0D22008B0722000A052200E0
:104FB00000012000801F780019EF07002F00B100CA
:104FC0001A20EF001820EF001620EF000A00210041
:104FD0000020EF00801F780011EF07002F00B100C4
:104FE000CF0678004F067800CF0578004F0578008F
:044FF00000000600B7
:100C20000000FA000EFA9700FCF607000B0D7800A2
:100C3000E20045000020EF00804878006300450096
:100C40000D487800E40045000020EF00804878005F
:100C5000E50045000020EF0080487800E6004500F0
:100C60000020EF0080487800E80045000020EF00F9
:100C7000800878000A20EF00630045001080FB0028
:100C8000E10150000328E1000C003C001A0078004C
:100C900000017800600020000500B800000041005D
:100CA000E50040000020EF00804878000328E100C4
:100CB000020032000A20EC00EFFF37006A00450016
:100CC0000C0878006A004500E20040000020EF00B8
:100CD000804878006A0045006300400004487800BE
:100CE0006A004500E40040000020EF0080487800E2
:100CF0006A004500E50040000020EF0080487800D1
:100D00006A004500E60040000020EF0080487800BF
:100D10006A004500E80040000020EF0080087800ED
:100D20000820EF006A004500630040001080FB00CF
:100D3000E10150000320E1000D003C006A00450085
:100D40001000780000017800600020000400B80066
:100D500000004100E50040000020EF0080487800DE
:100D60000320E100020032000820EC00EDFF370014
:080D70000080FA0000000600FB
:020000040000FA
:10E81C00FB0045000020EF0080487800FD0045001B
:10E82C0070C0B30080487800FE0045000020EF0067
:10E83C0080487800FA0045000020EF0080487800FE
:10E84C0030022000800045000020EF008048780056
:10E85C002002200080004500F0CFB30080487800F3
:04E86C0000000600A2
:020000040001F9
:104AA800B10221000020EF00804878004102210077
:104AB80000C8B30080487800D10221000020EF0030
:104AC80080487800510221000020EF0080487800DB
:104AD800610221000020EF00804878000020EF00EC
:104AE80040818800A10221000020EF008048780062
:104AF800C10221000020EF0080487800E102210077
:104B08000020EF0080487800F0FF2F0080818800A7
:084B1800104EA8000000060089
:044AA4000000060008
:044B2000000006008B
:104BC8000000FA000220EF001A4078000041780047
:104BD80002407800014178006004E1000A003200D8
:104BE8008A1F78000085FB002DEF07004F0578002D
:104BF800E14041000180FB000000450010407800C2
:104C080001417800F4FF37000080FA000000060038
:004C18009C
:1008A8000000FA0011118000001020000080600094
:1008B8006000E10002003A0000000000F9FF370084
:0C08C8002A1188000080FA0000000600E1
:104B24000600FA008A1F78008B1F78008C1F78001B
:104B34008D1F7800600047001A20EF001820EF0056
:104B4400FBCFB3000005780020002000801F780010
:104B54000020EF00801F78000020EF00801F780005
:104B64003EEF07006F00B1001020EF006000470027
:104B7400FCFF2F00800578000A0522009DEE070047
:104B840000A0EE000500320007C820000E20ED0052
:104B9400FEFF3A0000000000000000007340E10046
:104BA400020032001020EC00F0FF3700CF0678003E
:104BB4004F067800CF0578004F0578000080FA0092
:044BC40000000600E7
:100860000000FA008EF897006EF19700CEF1970025
:100870000B4D7800610045000C487800620045008F
:100880000D48780063004500014878006400450089
:100890000248780065004500034878000080FA00AF
:0408A000000006004E
:1005F8008B1F78008C1F78008D1F78000420EF0077
:100608001800E2004B003200EA004500628040001A
:10061800E3804000104078001104E10043003100FD
:10062800EA014500648041001082FB001300780055
:1006380000017800600020000400B80000034100B9
:10064800E100420081037800638041001040780097
:100658000080FB000008E100020035000E20EF00DA
:1006680000003700E182450062824500E3814500D1
:10067800E4804500658045001080FB00670160004C
:1006880011407800934078008A1F780094467800DB
:10069800154678009B45780006057800821F78008B
:1006A8000080FB00801F78000180FB00801F78001D
:1006B800690007006F00B100060578000DF6070015
:1006C8004F0578006A00450064004000074878003C
:1006D8006A014500620041001080FB00E100400013
:1006E80066004100104078000080FB000008E1002F
:1006F800060036006A004500E600400000A0EC0055
:100708001080FB000020EC00804878006A0045005B
:10071800E20040001180FB000020EC0080487800D7
:10072800F0FF2F0080007800010037008200780079
:100738004400370062004500E3004500104078009F
:100748001104E1003E003100640045009081FB0087
:100758001A00780000017800600020000300B8004B
:1007680000034100E18041008103780063004500F7
:10077800104078000080FB000008E100020035000E
:100788000E20EF0000003700E1824500628245003C
:10079800E3814500E4804500658045001080FB004A
:1007A8006701600011407800934078008A1F780044
:1007B80094467800154678009B4578000605780031
:1007C800821F78000080FB00801F78000180FB00FA
:1007D800801F7800200007006F00B1000605780030
:1007E800C4F507004F057800640045000748780005
:1007F800620045001080FB00E100400066004500F3
:10080800104078000080FB000008E1000500360079
:10081800E6004500620045001080FB000020EC0067
:1008280080487800E20045001180FB000020EC00C1
:1008380080487800F0FF2F00800078000100370022
:100848008200780001007800CF0678004F06780013
:08085800CF0578000000060046
:020000040000FA
:10DEFC00E50045001180FB00670060008048780059
:10DF0C001A4178006014E1000220EF0001003A0091
:10DF1C0002A0EE00F0CFB3000014E1000020EF00EF
:10DF2C0001003A0000A0EE0080807000E0CFB3004A
:10DF3C000014E1000020EF0001003A0000A0EE0008
:10DF4C000080700006003200650145009280FB00E5
:10DF5C000008200000807000004978002100370084
:10DF6C009A40780000C8B300000CE10005003100B5
:10DF7C00E50045001180FB006800700080487800C7
:10DF8C00180037009A40780000CCB300000CE10078
:10DF9C0005003100E50045001180FB0070007000A9
:10DFAC00804878000F0037009A40780080CEB3008C
:10DFBC00000CE10006003100650145009280FB0079
:10DFCC000002200000807000004978000500370036
:10DFDC00650145009280FB00000420000080700069
:08DFEC00004978000000060066
:020000040001F9
:1048D8008A1F78008B1F78008C1F78008D1F780046
:1048E800E13D22000020EF0080487800F13D2200E1
:1048F80040C1B30080487800013E220050CAB3008E
:1049080080487800113E220060C7B30080487800D4
:10491800213E220090C1B30080487800313E220039
:10492800F0C3B30080487800A13D220000CCB3005A
:1049380080487800B13D220080CAB30080487800E2
:10494800C13D22000020EF0080487800D13D2200C0
:1049580000C8B30080487800C13E220000CCB300F4
:1049680080487800D13E220080CAB3008048780091
:10497800E13E22000020EF0080487800F13E22004E
:1049880010C0B30080487800413E220000CCB3003C
:1049980080487800513E220080CAB30080487800E1
:1049A800613E22000020EF0080487800713E22001E
:1049B80010C0B30080487800013F2200F0CFB30058
:1049C80080487800113F2200F0CFB300804878007B
:1049D800213F2200F0CFB30080487800313F220009
:1049E8000020EF0080487800813E220010C8B30004
:1049F80080487800913E220060C0B300804878006B
:104A0800A13E2200F0C0B30080487800B13E2200E9
:104A1800D0C1B300804878002D002000CC012000D0
:104A28001620EF000A02200000102000801F7800E6
:104A38000020EF00801F78000020EF00801F780022
:104A48000020EF00801F7800ECEF07008F00B10016
:104A580041E2A90001FE2F002024200010886000F8
:104A68004282BF00E3007000202420007888700094
:104A780041E2A8001420EF0027FD0700401F200096
:104A880010208900F7F30700CF0678004F0678005A
:0C4A9800CF0578004F05780000000600F4
:100A04000000FA00CEB897003EBA97002EB99700BE
:100A14009EB997004022EF004222EF00802620007A
:100A2400D0008900C02B2000C00089000B00750095
:100A34000C0070000D0070000100700004007000D4
:100A440082007000202420000388700040C2A900A6
:0C0A540041E2A8000080FA00000006004B
:103F20000200FA008A1F78008B1F78008C1F78002F
:103F30008A1F78004DE8070000082200A12A2D0002
:103F400080C08A0091C08A0010EE2200010020008B
:103F5000D0328A00E1328A0042E807000020EF00F8
:103F6000201989000020EF000220EF0030C58A00F0
:103F700041C58A000020EF00901E89000020EF005C
:103F800020C58A000020EF00C0328A000020EF0028
:103F9000D02C8A00D10422000020EF008048780055
:103FA000713A22000020EF00804878000020EF00E6
:103FB00060C08A00813B220000C2B30080587800B4
:103FC0000020EF008058780014CEA8000000000008
:103FD00010CEA900AA0020001AE807004F057800BB
:103FE00015E807008A1F7800AA00200015E80700DE
:103FF0004F0578009EE707008A1F78000B0021001C
:104000004AC0B30066D40700EBFF25006AC0B300C6
:1040100063D407000B0026006AC1B30060D4070018
:104020001B0026008AC1B3005DD407000B002100ED
:10403000AAC8B3005AD4070000002100002E8A004D
:104040001620EF001420EF0055D407000B8020004D
:104050006AC8B30052D40700EB5E2000AAC4B300C4
:104060004FD407005B0120004AC4B3004CD40700C2
:104070004F0578006050E1001F003200E03D220053
:10408000104078000047980060004700E1004000C1
:10409000F03D2200904878008E0590004AC6B3009B
:1040A0003FD40700003E22001040780000479800EF
:1040B00060004700E1004000103E22009048780078
:1040C0008E0590002AC6B30035D40700203E22009A
:1040D000104078000047980060004700E100400071
:1040E000303E2200904878008E0590000AC6B3004A
:1040F0002BD40700210037004AC6B30069D307005C
:1041000000079800E13D22000E40900080487800B2
:10411000600047000020EC0090407800F03D220055
:10412000014878002AC6B3005ED307000007980054
:10413000013E22000E409000804878006000470059
:104140000020EC0090407800103E220001487800EA
:104150000AC6B30053D3070000079800213E22008F
:104160000E40900080487800600047000020EC007E
:1041700090407800303E2200014878002AC4B30005
:1041800048D30700000798006100700000079800FE
:10419000800578002AC4B30001D407001B5E20000C
:1041A0004AC0B3003BDF07001B002000EAC1B30098
:1041B000EFD2070091E207008BE207007EE10700E3
:1041C000DED607004CD607001820EF001620EF00BF
:1041D0001420EF00F8D6070087DB07002AC0B300E1
:1041E00094DB0700AA00200096E70700A00020004B
:1041F000B0C58A000020EF0070C08A000020EF00E8
:104200000220EF00C0C58A00D1C58A000046250003
:1042100001002000E01F8900F11F8900915824004F
:104220000020EF00804878000020EF00A01F8900E8
:104230000020EF00D01F89000020EF00C01F890080
:10424000401F200010208900401F200020208900EE
:10425000F00F2000302B8A004F067800CF05780041
:0C4260004F0578000080FA000000060006
:020000040000FA
:08E06C002108A90000000600D4
:08E064002108A80000000600DD
:10E044000020EF000A00E1000400310016ED070093
:10E054000060FE000020EC00FAFF3700000006001C
:00E06400BC
:1094AC00079021000E20ED00FEFF3A0000000000A6
:0894BC000000000000000600A2
:0CE038000000000014CEA800000006004C
:10DE70008A1F78008B1F78004B2321006AC1B300F2
:10DE8000C7EC07006AC1B30006EC0700412321007C
:10DE90000100E10001003A0001003700F6FF370001
:10DEA0000B012000EAC6B300B1EB0700AAC1B30022
:10DEB000FCEB070001A021008100600000A0210010
:10DEC0000008E10001003A0001003700F7FF3700C9
:10DED00076ED07006AC1B300F2EB07006000E100D5
:10DEE00001003A0001003700E3FF37006FED070043
:0CDEF000CF0578004F0578000000060008
:1091A0008A1F78008B1F78008C1F78000B067800D0
:1091B0008A4578002AC2B3002BF007004F067800DA
:0C91C000CF0578004F0578000000060085
:105268008A1F7800B0F80700C3F807000B457800DC
:10527800C1F807000C457800BFF80700800120003E
:105288000020EC001040780000457800BAF80700CC
:0C529800672307004F05780000000600A7
:0835300014CEA9000000060002
:10358000401280004022AF00FEFF37000A80FB009F
:1035900048A2B7004002AE00FEFF37004112800093
:0835A000014078000000060064
:108EA4008A1F78008B1F78008A4578000AC2B300B5
:108EB40069F807008000780001007800CF05780089
:088EC4004F05780000000600D4
:10705C000400FA008A1F780032F1070045F107009E
:10706C000B45780043F107001420EF0041F10700B5
:10707C0000479800600047000020EC0010079800C3
:10708C001420EF003BF107009E0090008048780030
:10709C00E61B07000E0090004F0578000080FA00F8
:0470AC0000000600DA
:108D70008A1F78008B1F78008C1F78000B06780004
:108D80008A4578004AC2B30037F107004F067800E1
:0C8D9000CF0578004F05780000000600B9
:10BE94008A1F78008A80FB000010200001007000D7
:10BEA4008B1F7800800578004AC5B300BBF40700F7
:10BEB400CF0578006AC6B300B8F407008A1F78007B
:10BEC400AAC6B300F6F307004F05780061006000CE
:10BED4006000E100F9FF3A004F0578000000060019
:00BEE4005E
:10CBFC00803E2000002D8A0000A82400412824003B
:10CC0C00E02C8A00F12C8A0000A824004128240082
:0CCC1C00902D8A00A12D8A000000060067
:10CBE800803E2000C02C8A000020EF00B02C8A0074
:04CBF8000000060033
:10C7B8008A1F78000E20EF00633CE1000A00310078
:10C7C8008780FB00200120000101B800E0612400FF
:10C7D800020040000005780038F3070061C04300FC
:10C7E80080437800F4FF37004F057800000006000A
:00C7F80041
:1094C4008B1F78008C1F7800680045008A1F780085
:1094D4004C0020001620EF000005780045F5070039
:1094E4004F0578006C0045008A1F78006C0020004E
:1094F4001620EF00000578003EF507004F057800C0
:10950400E20045000020EF00800878000020EF0012
:10951400000D7800640145000020EF000220EF00F8
:109524000089BE004F067800CF05780000000600D1
:0095340037
:1069F8000C0378000A0278008B82FB000C00E2008E
:106A0800030032000603E90006800900055A7800F1
:046A18000000060074
:109D3C008A1F78000420EF006914E100090031004B
:109D4C000280FB00C400DD004081250001004000C2
:109D5C0000057800EBFB07006140410000417800F2
:0C9D6C00F5FF37004F05780000000600EE
:108D10008B1F78008C1F78004C0020001620EF007D
:108D200035F70700640045008A1F78006C002000BA
:108D30001620EF00000578002FF707004F05780098
:108D4000EA0045000020EF0080087800EC004500B4
:108D50000020EF0080087800EE0045000020EF00C2
:108D6000804878004F067800CF05780000000600A4
:008D700003
:109AF8008A1F78008B1F78008C1F78000E20EF00DB
:109B0800683CE100870031008780FB00C0422000EC
:109B18000101B80060402200820040000020EF00F0
:109B2800800878008780FB00C04220000101B8004F
:109B38006040220002004000E20040000020EF00E8
:109B4800800878008780FB00C04220000101B8002F
:109B58006040220002004000640040004C002000E9
:109B68001620EF0000057800A1F307008780FB00AE
:109B7800C04220000101B8006040220002004000FD
:109B8800680040006C0020001620EF0000057800F7
:109B980097F307008780FB00C04220000101B8004E
:109BA8006040220002004000EE0040000020EF006C
:109BB800800878008780FB00C04220000101B800BF
:109BC8006040220002004000700140000020EF00C9
:109BD8000220EF000089BE008780FB00C042200001
:109BE8000101B800604022000200400074014000FA
:109BF8000020EF000220EF000089BE008780FB00F4
