:10F000000C944A780C9469780C9469780C9469781B
:10F010000C9469780C9469780C9469780C946978EC
:10F020000C9469780C9469780C9469780C946978DC
:10F030000C9469780C9469780C9469780C946978CC
:10F040000C9469780C9469780C9469780C946978BC
:10F050000C9469780C9469780C9469780C946978AC
:10F060000C9469780C9469780C9469780C9469789C
:10F070000C9469780C9469780C9469780C9469788C
:10F080000C9469780C9469780C9469780C9469787C
:10F090000C94697811241FBECFEFD0E1DEBFCDBF45
:10F0A00011E0A0E0B1E0ECE2F9EF00E00BBF02C03C
:10F0B00007900D92AC33B107D9F712E0ACE3B1E0A1
:10F0C00001C01D92A734B107E1F70E9486790C9424
:10F0D000947C0C940078982F80913C01813019F039
:10F0E000823041F008958091C00085FFFCCF90935D
:10F0F000C60008958091C80085FFFCCF9093CE0094
:10F1000008951F93982F9595959595959595905D54
:10F110008F708A3054F4182F105D892F0E946B78FD
:10F12000812F0E946B781F910895182F195A892FEB
:10F130000E946B78812F0E946B781F910895EF9247
:10F14000FF920F931F9380913C01813069F18230CF
:10F1500031F080E01F910F91FF90EF900895EE2421
:10F16000FF2487018091C80087FD17C00894E11C27
:10F17000F11C011D111D81E4E81682E4F8068FE000
:10F18000080780E0180770F3E0913E01F0913F011D
:10F1900009958091C80087FFE9CF8091CE001F912B
:10F1A0000F91FF90EF900895EE24FF248701809146
:10F1B000C00087FD17C00894E11CF11C011D111D42
:10F1C00081E4E81682E4F8068FE0080780E018077B
:10F1D00070F3E0913E01F0913F0109958091C000EC
:10F1E00087FFE9CF8091C6001F910F91FF90EF90AC
:10F1F00008951F930E949F78182F0E946B781136F4
:10F2000034F410330CF01053812F1F9108951755CB
:10F21000812F1F9108951F930E94F978182F0E9443
:10F22000F9781295107F810F1F910895982F2091E2
:10F230003C01992339F0213031F0223061F09150B6
:10F240009923C9F708958091C00087FFFCCF809172
:10F25000C6009150F5CF8091C80087FFFCCF809108
:10F26000CE009150EDCF1F93182F0E949F788032CF
:10F2700081F080913D018F5F80933D01853011F0D9
:10F280001F910895E0913E01F0913F0109951F9172
:10F29000089584E10E946B78812F0E946B7880E151
:10F2A0000E946B781F9108950E949F78803271F0C0
:10F2B00080913D018F5F80933D01853009F0089575
:10F2C000E0913E01F0913F010995089584E10E948B
:10F2D0006B7880E10E946B78089540E951E08823C3
:10F2E000A1F0A09828EE33E0FA013197F1F7215010
:10F2F0003040D1F7A09A28EE33E0FA013197F1F7C8
:10F3000021503040D1F7815061F70895CF92DF92BC
:10F31000EF92FF920F931F93CF93DF93000081E052
:10F3200080933C0180E18093C4001092C50010924C
:10F33000C00086E08093C20088E18093C100689895
:10F34000709A989A83E00E946D79FF24F3940E944A
:10F350009F788033C9F18133D1F1803409F457C0EB
:10F36000813409F45DC0823409F46CC0853409F439
:10F370006FC0803549F1823539F1813529F1853504
:10F3800009F46CC0863509F474C0843609F47DC074
:10F39000843709F4E7C0853709F44BC1863709F48F
:10F3A0004DC0813209F45EC180913D018F5F809331
:10F3B0003D01853061F6E0913E01F0913F010995F4
:10F3C0000E949F78803339F60E945479C0CF0E9402
:10F3D0009F78803249F784E10E946B7881E40E9433
:10F3E0006B7886E50E946B7882E50E946B7880E2FC
:10F3F0000E946B7889E40E946B7883E50E946B78A9
:10F4000080E50E946B7880E10E946B78A0CF0E941B
:10F410009F788638C8F20E949F780E94547997CFCF
:10F420000E949F78803809F499C0813809F4FDC0A2
:10F43000823809F413C1883909F48CC080E00E9435
:10F44000337985CF84E10E9416790E9454797FCF69
:10F4500085E00E9416790E94547979CF0E949F78A6
:10F46000809340010E949F78809341010E945479CB
:10F470006ECF0E949F78803309F448C183E00E94D8
:10F48000167980E00E94337962CF0E949F78809342
:10F4900043020E949F7880934202809146028E7FB1
:10F4A000809346020E949F78853409F440C1809180
:10F4B000420290914302892B89F000E010E00E9403
:10F4C0009F78F801EE5BFE4F80830F5F1F4F8091A6
:10F4D0004202909143020817190788F30E949F780F
:10F4E000803209F061CF8091460280FF32C12091C5
:10F4F000400130914101220F331F3093410120938D
:10F5000040018091420290914302892BE1F000E09A
:10F5100010E0F801EE5BFE4FC90160810E94877C1C
:10F5200020914001309141012F5F3F4F30934101C5
:10F53000209340010F5F1F4F809142029091430240
:10F540000817190730F384E10E946B7880E10E946C
:10F550006B78FDCE83E00E943379F9CE82E00E9481
:10F560003379F5CE0E949F78809343020E949F7862
:10F5700080934202209140013091410137FDDDC06E
:10F58000809146028D7F80934602220F331F309375
:10F590004101209340010E949F78853409F4D3C033
:10F5A000809146028E7F809346020E949F7880322F
:10F5B00009F0CDCE84E10E946B7880914202909157
:10F5C0004302892B09F446C000E010E0209140017D
:10F5D0003091410117C0F90184910E946B7820910C
:10F5E0004001309141012F5F3F4F30934101209303
:10F5F00040010F5F1F4F8091420290914302081714
:10F60000190740F58091460280FD70C081FFE3CF6D
:10F61000C901A0E0B0E080509040AF4FBF4FABBFFA
:10F62000FC0187910E946B78DACF81E00E943379E8
:10F630008ECE0E949F78803209F0B6CE84E10E947F
:10F640006B788EE10E946B7887E90E946B7881E885
:10F650000E946B7880E10E946B7879CE80E10E94F5
:10F66000337975CE0E949F78813209F070CE0E9466
:10F670009F78813209F06BCE989AA09A109244023A
:10F680008FE40E946B78E0914402EF5FE0934402C4
:10F69000F0E0E050FF4F8081882399F78AE00E94D4
:10F6A0006B788DE00E946B788AE30E946B7880E231
:10F6B0000E946B780E949F78182F0E946B781437F5
:10F6C00009F4CBC0123709F4D4C0173709F4E7C0E6
:10F6D000153709F4B9C0123609F4F8C01A36F1F634
:10F6E000E0913E01F0913F010995D8CFC9010E94F8
:10F6F0007F7C0E946B7820914001309141012F5F07
:10F700003F4F309341012093400173CF0E949F7877
:10F710000E949F78182F0E949F78112309F48CC0B3
:10F72000113009F48DC081E80E94337910CE8091A8
:10F730004602816080934602BACE80914602826082
:10F740008093460222CF80914602816080934602D8
:10F750002CCF809141018823880F880B8F218093C3
:10F7600045028BBF8091400190914101880F991F04
:10F7700090934101809340018091420280FF09C033
:10F7800080914202909143020196909343028093AC
:10F790004202F894F999FECF1127E0914001F091CF
:10F7A0004101C2E4D1E080914202909143021030C5
:10F7B00091F40091570001700130D9F303E00093F8
:10F7C0005700E8950091570001700130D9F301E12D
:10F7D00000935700E8950990199000915700017027
:10F7E0000130D9F301E000935700E89513951038E4
:10F7F00098F011270091570001700130D9F305E00E
:10F8000000935700E8950091570001700130D9F33B
:10F8100001E100935700E8953296029709F0C7CFAF
:10F82000103011F00296E5CF112484E10E946B782C
:10F8300080E10E946B788BCD8EE10E94337987CD79
:10F8400087E90E94337983CD0E949F780E946B786C
:10F850000E949F780E946B78F7CF909B05C0A0987C
:10F8600081E30E946B781ACFA09A80E30E946B78A4
:10F8700015CF0E949F780E946B780E940B79182FF9
:10F880000E940B79082F8DE30E946B78F12EEE24F5
:10F89000F701E00FF11D80810E948178FFCE0E9468
:10F8A0009F780E946B780E940B79182F0E940B7929
:10F8B000082F0E949F780E946B780E940B79D12EAE
:10F8C000CC24F601E00FF11D8083E8CE82E60E9491
:10F8D0006B7885E70E946B7883E70E946B7880E8FD
:10F8E00085BF109274001092750080E091E1FC01D8
:10F8F000819180E091E13097D1F3CF01F8CFF99970
:10F90000FECF92BD81BDF89A992780B50895262F24
:10F91000F999FECF92BD81BD20BD0FB6F894FA9A39
:0CF92000F99A0FBE01960895F894FFCFED
:10F92C004F70656E4C4342202F2041543930434177
:10F93C004E313238202D2028432920442E452E20AC
:10F94C00476F6F646D616E2D57696C736F6E202DF0
:0CF95C00203131313230390A0D008000BA
:040000030000F00009
:00000001FF
