:100000000C946E000C9496000C9496000C94960040
:100010000C9496000C9496000C9496000C94960008
:100020000C9496000C9496000C9496000C949600F8
:100030000C9496000C9496000C9496000C949600E8
:100040000C946F0C0C9496000C94FB090C94960085
:100050000C9496000C9496000C9496000C949600C8
:100060000C9496000C94960004B6E704B6D304B63C
:10007000C704B6C302900703AC8103AC80029000B2
:1000800000000000240027002A00000000002500D6
:1000900028002B0000000000230026002900040493
:1000A0000404040404040202020202020303030320
:1000B00003030102040810204080010204081020FC
:1000C00001020408102000000007000201000003E4
:1000D00004060000000000000000F00A11241FBE0A
:1000E000CFEFD4E0DEBFCDBF11E0A0E0B1E0ECE6A1
:1000F000FCE102C005900D92A839B107D9F712E0D2
:10010000A8E9B1E001C01D92A338B107E1F710E002
:10011000CCEDD0E004C02297FE010E94C40DCA3D80
:10012000D107C9F70E94CB090C94340E0C9400003F
:10013000A0E0B0E0EEE9F0E00C94FE0DEC012B0144
:100140006A016115710519F0FB0191838083C11467
:10015000D10449F0C6010297839728F020E030E0EF
:1001600040E050E0DCC0A9908A2D90E00E94D30DC1
:10017000892BC9F7FDE2AF1621F4A99033243394FB
:1001800005C08BE2A81609F4A9903324C114D10448
:1001900021F0E0E1CE16D10411F5F0E3AF1669F4D9
:1001A0008881883711F0883541F4A980229682E051
:1001B000382A20E1C22ED12C12C0C114D10479F406
:1001C000E0E3AE1659F199E9E92E99E9F92E99E99A
:1001D000092F99E1192F8AE0C82ED12C3AC0FAE0F4
:1001E000CF16D10491F080E1C816D10429F0E8E0DF
:1001F000CE16D104F9F415C0BFEFEB2EBFEFFB2EE6
:10020000BFEF0B2FBFE01B2F24C0A9E9EA2EA9E9FD
:10021000FA2EA9E90A2FA9E11A2F1BC0F8E0CF2E68
:10022000D12CEFEFEE2EEFEFFE2EEFEF0E2FEFE1E2
:100230001E2F0FC09601442737FD4095542F6FEFB6
:100240007FEF8FEF9FEF0E94710DC901DA017C01F2
:100250008D0120E030E040E050E060E0360188248D
:1002600077FC8094982C70EDB72EBA0CF9E0FB1552
:1002700070F48A2D81548A3118F499ECB92E06C095
:100280008A2D81568A3148F589EAB82EBA0C8B2D11
:1002900090E08C159D050CF56F3FE9F0E216F30632
:1002A00004071507B8F0CA01B901A40193010E941F
:1002B000DE0D9B01AC018B2D90E0A0E0B0E0280F9B
:1002C000391F4A1F5B1F281739074A075B0710F0C1
:1002D00061E001C06FEFA990C6CF4114510451F005
:1002E000662311F0219703C031FE04C02297F2016A
:1002F000D183C08330FE07C050954095309521953D
:100300003F4F4F4F5F4F67FF0AC082E290E09093EC
:100310008202809381022FEF3FEF4FEF5FEFB90131
:10032000CA01CDB7DEB7E1E10C941A0EDC016C9185
:1003300061566A3108F0605E6F5B6D93C1F7089596
:10034000FA01CF93FF93EF932230CCF02532BCF427
:10035000C22F2C2F332744275527FF93EF930E945A
:10036000710DEF91FF91605D6A330CF0695D6193EF
:10037000B901CA01605070408040904051F710822E
:100380008F919F91CF910C94E203AEE0B0E0EBEC43
:10039000F1E00C940B0E8C0177FF02C060E070E876
:1003A000615070407E836D831A83098386E08C835D
:1003B000CE010196BA01A9010E94EF012D813E8173
:1003C00037FD09C0EF81F8852E173F070CF4F901BE
:1003D000E00FF11F10822E96E4E00C94270EABE0A4
:1003E000B0E0E5EFF1E00C94FD0D3C012B015A016A
:1003F000FC0117821682838181FD03C06FEF7FEFBE
:10040000C6C19AE0892E1E010894211C311CF301FB
:100410002381F20123FD859123FF81912F01882300
:1004200009F4B2C1853239F423FD859123FF81910E
:100430002F01853229F490E0B3010E94F203E7CF47
:10044000982FFF24EE249924FFE1FF15D0F09B3272
:1004500069F09C3228F4903259F0933291F40EC036
:100460009D3249F0903369F441E024C052E0F52A0E
:1004700084E0F82A28C098E0F92A25C0E0E1FE2AA5
:1004800022C0F7FC29C0892F80538A3070F4F6FE11
:1004900005C0989C902C1124980E15C0E89CE02C67
:1004A0001124E80EF0E2FF2A0EC09E3229F4F6FC79
:1004B0006BC140E4F42A07C09C3619F450E8F52AD1
:1004C00002C0983649F4F20123FD959123FF9191E2
:1004D0002F01992309F0B8CF892F8554833018F064
:1004E0008052833038F444E050E0A40EB51E5FE340
:1004F00059830FC0933631F0933779F0933509F073
:1005000056C020C0F5018081898342E050E0A40EEE
:10051000B51E610101E010E012C0F501C080D1807C
:10052000F6FC03C06FEF7FEF02C0692D70E042E080
:1005300050E0A40EB51EC6010E94D7038C015FE7F0
:10054000F52214C0F501C080D180F6FC03C06FEF26
:100550007FEF02C0692D70E042E050E0A40EB51EAE
:10056000C6010E94CC038C0150E8F52AF3FE07C0B7
:100570001AC080E290E0B3010E94F203EA948E2D4B
:1005800090E008171907A8F30EC0F601F7FC859153
:10059000F7FE81916F0190E0B3010E94F203E11038
:1005A000EA94015010400115110579F7EAC094361C
:1005B00011F0993669F5F7FE08C0F5012081318107
:1005C0004281538184E090E00AC0F50180819181ED
:1005D0009C01442737FD4095542F82E090E0A80EFF
:1005E000B91E9FE6F92257FF09C0509540953095F6
:1005F00021953F4F4F4F5F4FE0E8FE2ACA01B901F6
:10060000A1012AE030E00E941E04D82ED21840C07A
:10061000953729F41F2D1F7E2AE030E01DC01F2DC5
:10062000197F9F3661F0903720F4983509F0ACC0FF
:100630000FC0903739F0983709F0A6C004C028E001
:1006400030E00AC0106114FD146020E130E004C005
:1006500014FD166020E132E017FF08C0F50160814B
:1006600071818281938144E050E008C0F50180816E
:100670009181BC0180E090E042E050E0A40EB51E04
:10068000A1010E941E04D82ED2188FE7F82EF12265
:10069000F6FE0BC05EEFF522D91438F4F4FE07C065
:1006A000F2FC05C08FEEF82202C01D2D01C0192DED
:1006B000F4FE0DC0FE01ED0DF11D8081803319F4B3
:1006C00099EEF92208C01F5FF2FE05C003C08F2D0E
:1006D000867809F01F5F0F2DF3FC14C0F0FE0FC0E9
:1006E0001E1510F09D2C0BC09D2C9E0C911A1E2DDA
:1006F00006C080E290E0B3010E94F2031F5F1E1566
:10070000C0F304C01E1510F4E11A01C0EE2404FF6A
:100710000FC080E390E0B3010E94F20302FF1DC00E
:1007200001FD03C088E790E00EC088E590E00BC0B3
:10073000802F867891F001FF02C08BE201C080E239
:10074000F7FC8DE290E0B3010E94F20306C080E363
:1007500090E0B3010E94F2039A94D914C0F3DA94A2
:10076000F101ED0DF11D808190E0B3010E94F203D3
:10077000DD20A9F706C080E290E0B3010E94F203F9
:10078000EA94EE20C1F743CEF30166817781CB0175
:100790002B96E2E10C94190EFC010590615070401B
:1007A0000110D8F7809590958E0F9F1F0895FC013A
:1007B0006150704001900110D8F7809590958E0F90
:1007C0009F1F0895DC01FC01672F71917723E1F7EA
:1007D000329704C07C916D9370836291AE17BF070E
:1007E000C8F308950F931F93CF93DF938C01EB0110
:1007F0008B8181FF1BC082FF0DC02E813F818C81C8
:100800009D812817390764F4E881F9810193F98300
:10081000E88306C0E885F985802F0995892B31F496
:100820008E819F8101969F838E8302C00FEF1FEF01
:10083000C801DF91CF911F910F910895FA01AA2766
:10084000283051F1203181F1E8946F936E7F6E5F13
:100850007F4F8F4F9F4FAF4FB1E03ED0B4E03CD0C1
:10086000670F781F891F9A1FA11D680F791F8A1FA4
:10087000911DA11D6A0F711D811D911DA11D20D00B
:1008800009F468943F912AE0269F11243019305DC5
:100890003193DEF6CF010895462F4770405D4193B6
:1008A000B3E00FD0C9F7F6CF462F4F70405D4A3303
:1008B00018F0495D31FD4052419302D0A9F7EACFCB
:1008C000B4E0A6959795879577956795BA95C9F7FA
:1008D00000976105710508959B01AC010A2E0694ED
:1008E0005795479537952795BA95C9F7620F731FA6
:1008F000841F951FA01D08952A980E94E7078FEF77
:100900000E94E7072A9A0895FF920F931F93182FCA
:10091000062FF42E2A9885E00E94E707812F0E9477
:10092000E707802F0E94E7078F2D0E94E7072A9A8A
:100930001F910F91FF9008951F93182F2A9883E01D
:100940000E94E707812F0E94E7078FEF0E94E707C9
:100950002A9A1F9108950F931F93182F062F2A98F4
:1009600082E00E94E707812F0E94E707802F0E9404
:10097000E7072A9A1F910F9108950F931F93CF9322
:10098000DF93182F883008F05AC02A9A229A2D989F
:100990002B982C98259A239A24980E94E2072A984B
:1009A00080EC0E94E7072A9A80E991E00197F1F72D
:1009B0002A9882E00E94E70788E20E94E707E3E0C6
:1009C0001E9FE0011124FE01E859FF4FE4918E2F94
:1009D0000E94E707FE01E759FF4FE4918E2F0E9426
:1009E000E707C659DF4FFE010491802F0E94E707F9
:1009F00083E00E94E7072A9A8DE060E00E94AB0442
:100A000080E664E60E94AB0480E760E60E94AB04E7
:100A100053985B9A8CE060E00E94AB048AE20E94EB
:100A20009C04182F8FE060E00E94AB04101739F48B
:100A30008EE00E949C04807ED9F781E001C080E0B6
:100A4000DF91CF911F910F91089580EA0E947C045D
:100A50000895DF92EF92FF920F931F93CF93DF934E
:100A6000EC0180EB0E947C04D82E809198018D21AE
:100A700061F4D6FE06C08D2D80788093980180E9C0
:100A800007C0D7FC02C080E03CC01092980184E906
:100A90002A980E94E707CE010E9489058170880F7D
:100AA0009C819D7F982B9C838FEF0E94E707ED2C04
:100AB000FF24970193E0369527959A95E1F72170E9
:100AC0009C819E7F922B9C83082F0F700D8310E0DA
:100AD00008C08FEF0E94E707FE01E10FF11D86833A
:100AE0001F5F1017B0F32A9AE6FE03C08CE261E0A4
:100AF00002C08CE262E040E00E9484048D2D877089
:100B00008F5FDF91CF911F910F91FF90EF90DF905A
:100B100008951F93CF93DF93EC018FEF0E94E707B7
:100B2000182F8FEF0E94E707482F212F30E083FF17
:100B300021C08FEF8EBD95E0220F331F9A95E1F70C
:100B40003B832A830DB407FEFDCF8EB589838FEFDB
:100B50008EBD842F83709A81892B46954695469544
:100B60004C71842B8A830DB407FEFDCF8EB588832C
:100B700081E01AC08FEF8EBD83E0220F331F8A956C
:100B8000E1F7398328830DB407FEFDCF8EB58FEFD3
:100B90008EBD4295469547708881842B88830DB41D
:100BA00007FEFDCF8EB580E0DF91CF911F910895B4
:100BB0002F923F924F925F926F927F928F929F926D
:100BC000AF92BF92CF92DF92EF92FF920F931F935B
:100BD000DF93CF9300D00F92CDB7DEB78EE00E94A7
:100BE0009C0489838FE060EE40E80E94840400E862
:100BF00010E08EE00E949C048027807ED1F700D018
:100C000080E091E0ADB7BEB712969C938E9311979A
:100C10000E94D2091B821A8260E1462E512C50E2BA
:100C2000652E712C40E3842E912C30E4A32EB12C40
:100C300020E5C22ED12C90E6E92EF12C00E710E041
:100C40000F900F9086E2282E81E0382E8A810E9434
:100C50009C0400D000D000D0EDB7FEB7319626E15D
:100C600031E0ADB7BEB712963C932E931197AA818F
:100C7000BB81B383A283848315820E94D209EDB71E
:100C8000FEB736960FB6F894FEBF0FBEEDBF842DAB
:100C90000E949C0400D000D000D0EDB7FEB7319682
:100CA000ADB7BEB712963C922E92119753824282F4
:100CB000848315820E94D209EDB7FEB736960FB62F
:100CC000F894FEBF0FBEEDBF862D0E949C0400D09D
:100CD00000D000D0EDB7FEB73196ADB7BEB71296D3
:100CE0003C922E92119773826282848315820E94B5
:100CF000D209EDB7FEB736960FB6F894FEBF0FBE19
:100D0000EDBF882D0E949C0400D000D000D0EDB72C
:100D1000FEB73196ADB7BEB712963C922E921197A0
:100D200093828282848315820E94D209EDB7FEB736
:100D300036960FB6F894FEBF0FBEEDBF8A2D0E9407
:100D40009C0400D000D000D0EDB7FEB73196ADB70F
:100D5000BEB712963C922E921197B382A2828483E0
:100D600015820E94D209EDB7FEB736960FB6F894F9
:100D7000FEBF0FBEEDBF8C2D0E949C0400D000D0A2
:100D800000D0EDB7FEB73196ADB7BEB712963C9224
:100D90002E921197D382C282848315820E94D20937
:100DA000EDB7FEB736960FB6F894FEBF0FBEEDBF97
:100DB0008E2D0E949C0400D000D000D0EDB7FEB76D
:100DC0003196ADB7BEB712963C922E921197F38230
:100DD000E282848315820E94D209EDB7FEB736966F
:100DE0000FB6F894FEBF0FBEEDBF802F0E949C048B
:100DF00000D000D000D0EDB7FEB7319623E331E04C
:100E0000ADB7BEB712963C932E931197138302830E
:100E1000848315820E94D2098A819B8101969B83DB
:100E20008A830894411C511C0894611C711C08940D
:100E3000811C911C0894A11CB11C0894C11CD11CDC
:100E40000894E11CF11C0F5F1F4FADB7BEB716969B
:100E50000FB6F894BEBF0FBEADBF409709F0F6CEF7
:100E60008FE060EE49810E94840419818EE00E9427
:100E70009C048127807ED1F70F900F900F90CF9127
:100E8000DF911F910F91FF90EF90DF90CF90BF9077
:100E9000AF909F908F907F906F905F904F903F901A
:100EA0002F900895FF920F931F93CF93DF93EC0140
:100EB00080EA0E947C0482FD02C0FF240BC084FDF6
:100EC00003C092E0F92E06C086FF02C0FF2437C09F
:100ED00084E0F82E2A988F2D80640E94E7076C81A9
:100EE0006295660F660F607C660F660BCE010E94EE
:100EF000A6070D810F708C8180FF05C0802F806454
:100F00000E94E7070EC0802F0E94E70710E007C08D
:100F1000FE01E10FF11D86810E94E7071F5F101798
:100F2000B8F32A9A85E08A95F1F72A98FF2011F400
:100F3000FF24F3948F2D80680E94E7072A9A8F2D53
:100F4000DF91CF911F910F91FF900895CF93DF9381
:100F5000EC016623E1F08A819B8135E096958795C7
:100F60003A95E1F78EBD9A810DB407FEFDCF8EB59F
:100F7000892F880F880F880F807E88609370892B57
:100F80000E94E70789810E94E707888116C088814F
:100F9000998123E0969587952A95E1F78EBD888102
:100FA0000DB407FEFDCF9EB58295880F807E0E940E
:100FB000E70780E00E94E70780E00E94E707DF91F3
:100FC000CF91089581E58CBD81E08DBD08958EBDE2
:100FD0000DB407FEFDCF8EB50895FC0180818136EA
:100FE00018F0982F975507C0813418F0982F975311
:100FF00002C0982F90538181813610F0875505C02B
:10100000813410F0875301C080539295907F892BD3
:1010100008951F93182F682F62956F706A3010F033
:10102000695C01C0605D86E692E00E945E0B612F04
:101030006F706A3010F0695C01C0605D86E692E016
:101040000E945E0B1F910895EF92FF920F931F93E2
:10105000DF93CF9300D0CDB7DEB7DC018B018C914D
:101060008A3309F086C0FD01E40FF11D31978081BC
:101070008B3309F07EC0443008F47BC011968C910C
:101080001197883519F0833509F073C08EE0F801A7
:1010900011928A95E9F790E011968C911197883515
:1010A00009F491E0990FF80184818D7F892B848365
:1010B000CD010296BE016F5F7F4F40E150E00E947C
:1010C00098009B01AC01D8016D937D938D939C9307
:1010D000139714968C9181FF06C0205030404040F9
:1010E000504238F046C0205038404040504008F050
:1010F00040C0E981FA8180818E3429F53196FA83E6
:10110000E983D80115961C9212C0C7010E94ED0711
:10111000F8019581E90FF11D86839F5FD80115962F
:101120009C93E2E0F0E0EE0EFF1EFA82E982E98095
:10113000FA80D7018C91992787FD90950E94C80D60
:10114000892B19F718C08235B1F4D80114968C9107
:101150001497816014968C9314972181822F99277C
:1011600087FD9095C0970A9730F4205315962C93DD
:1011700002C000E010E0C8010F900F90CF91DF9106
:101180001F910F91FF90EF9008950E94250590E028
:101190008471843109F091E0892F08951F9386E6C8
:1011A00092E00E94A10A90E0803291051CF489E04F
:1011B00060E005C08136910524F089E061E00E947D
:1011C000110D8091B5019091B601892BE9F586E664
:1011D00092E00E94B50A97FD37C08A33910531F03D
:1011E0004091E1018B33910529F507C08AE3809393
:1011F000C10181E08093E10127C04032C0F4E42FB7
:10120000F0E0EF53FE4F8BE380834F5F4093E101AB
:10121000E42FF0E0EF53FE4F108281EC91E067EA9B
:1012200071E00E9424089093B6018093B50110925A
:10123000E1010AC0403240F4E42FF0E0EF53FE4FEA
:1012400080834F5F4093E1018091B5019091B60199
:10125000892B81F00E94C508882361F08091B50137
:101260009091B6010E945207882321F01092B60196
:101270001092B50189E991E00E942905882309F4BB
:1012800057C086E692E06AE30E94660B80919D015A
:1012900081FD02C063E501C068E586E692E00E9438
:1012A000660B6091990170919A0180919B019091D8
:1012B0009C0147EB51E020E130E00E94A0010E9438
:1012C0009601BC0186E692E00E946E0B80919D0122
:1012D00080FF0FC086E692E062E50E94660B609197
:1012E0009E0170E0605D7F4F86E692E00E94670C91
:1012F00013C086E692E06EE40E94660B10E008C020
:10130000E12FF0E0E756FE4F86810E9409081F5F3B
:1013100080919E011817A0F386E692E06BE30E948D
:101320008D0B8EE0E9E9F1E0DF011D928A95E9F786
:101330001F9108950F931F9389E061E00E94F10CC3
:1013400089E060E00E94110D06E612E0C80145E167
:1013500056E165E070E00E94380AC8010E94760BF1
:10136000C80160E471E00E949D0B84E00E94BD040E
:10137000C80167E671E00E949D0B0E94D805C80174
:101380006BE771E00E949D0B1092B6011092B501BF
:101390001F910F9108950E94B70C0E949A090E9414
:1013A000CE08FDCF0F931F93DF93CF93CDB7DEB75A
:1013B000A0970FB6F894DEBF0FBECDBFFE01B79663
:1013C000419151918E010F5F1F4FC80160E270E0A3
:1013D0009F010E94C50186E692E0B8010E946E0B53
:1013E000A0960FB6F894DEBF0FBECDBFCF91DF91B0
:1013F0001F910F9108951F920F920FB60F92112413
:101400002F933F934F935F936F937F938F939F930C
:10141000AF93BF93EF93FF934091C600E0916202B8
:10142000F0916302CF01019660E870E00E945E0DCA
:101430009C0180916402909165022817390739F068
:10144000EE51FE4F40833093630220936202FF917E
:10145000EF91BF91AF919F918F917F916F915F912C
:101460004F913F912F910F900FBE0F901F901895A5
:10147000AF92BF92CF92DF92EF92FF920F931F93A2
:10148000CF93DF936C017A018B01DC011496AD9050
:10149000BC901597CB01BA0122E030E040E050E06B
:1014A0000E94930D205C3D4B404F5F4FCA01B90134
:1014B000A80197010E94930DC901DA010197A109C2
:1014C000B109292F3A2F4B2F552747FD5A950196E1
:1014D000A11DB11DE5012883E601EE81FF81815048
:1014E0008083EA85FB85208141E050E0CA010E84BB
:1014F00002C0880F991F0A94E2F7282B2083EA85FF
:10150000FB852081CA010F8402C0880F991F0A94AD
:10151000E2F7282B2083EA85FB858081088802C0BA
:10152000440F551F0A94E2F7842B8083DF91CF91FB
:101530001F910F91FF90EF90DF90CF90BF90AF90F1
:101540000895DC011296ED91FC911397E058FF4F3E
:101550008191919180589F4F20813181821B930B03
:1015600060E870E00E945E0D0895CF93DF93DC0188
:101570001296ED91FC911397EF01CE57DF4F488102
:101580005981E058FF4F80819181E058F0408417E5
:10159000950719F42FEF3FEF0CC0E40FF51F2081E2
:1015A000CA01019660E870E00E945E0D998388830D
:1015B00030E0C901DF91CF910895FC01A085B1858C
:1015C00021898C9190E0022E02C0959587950A940E
:1015D000E2F780FFF6CF0484F585E02D608308955F
:1015E00082E991E0909367028093660282EE91E037
:1015F000909369028093680285EC90E090936B026F
:1016000080936A0284EC90E090936D0280936C0268
:1016100080EC90E090936F0280936E0281EC90E0FA
:10162000909371028093700286EC90E09093730225
:101630008093720284E08093740283E08093750249
:1016400087E08093760285E08093770208950F9378
:101650001F93CF93DF938C01EB0109C02196D80132
:10166000ED91FC910190F081E02DC8010995688110
:101670006623A1F7DF91CF911F910F910895EF920B
:10168000FF920F931F93CF93DF938C017B01EA01AD
:101690000CC0D7016D917D01D801ED91FC910190B5
:1016A000F081E02DC80109952197209791F7DF91EE
:1016B000CF911F910F91FF90EF900895DC01ED9174
:1016C000FC910190F081E02D09950895DC01ED91E8
:1016D000FC910190F081E02D09950895DC01ED91D8
:1016E000FC910280F381E02D099508950F931F93DB
:1016F0008C01DC01ED91FC910190F081E02D6DE019
:101700000995D801ED91FC910190F081E02DC8017F
:101710006AE009951F910F9108950F931F938C0113
:10172000DC01ED91FC910190F081E02D0995C8015B
:101730000E94760B1F910F9108950F931F938C01B8
:101740000E946E0BC8010E94760B1F910F910895A5
:101750002F923F924F925F926F927F928F929F92C1
:10176000AF92BF92CF92DF92EF92FF920F931F93AF
:10177000DF93CF93CDB7DEB7A0970FB6F894DEBF57
:101780000FBECDBF1C016A017B01411551056105EA
:10179000710549F4DC01ED91FC910190F081E02D9F
:1017A00060E3099554C0882499245401422E55249D
:1017B0006624772401E010E00C0F1D1F080D191D91
:1017C000C701B601A30192010E94710DF801608367
:1017D0000894811C911CA11CB11CC701B601A30176
:1017E00092010E94710DC901DA016C017D01C114E1
:1017F000D104E104F104F1F681E0E82EF12CEC0EC5
:10180000FD1EE80CF91C3E010894611C711CD501F9
:10181000C4010197A109B1096C01C818D90814C005
:10182000F601EE0DFF1D60816A3010F4605D01C0AD
:10183000695CD101ED91FC910190F081E02DC10135
:1018400009950894E108F1086E147F0449F7A09601
:101850000FB6F894DEBF0FBECDBFCF91DF911F91C1
:101860000F91FF90EF90DF90CF90BF90AF909F903F
:101870008F907F906F905F904F903F902F90089542
:10188000EF92FF920F931F93CF93DF93EC017A01B6
:101890008B0177FF0FC0E881F9810190F081E02D85
:1018A0006DE2099510950095F094E094E11CF11C0F
:1018B000011D111DCE01B801A7012AE00E94A80B4D
:1018C000DF91CF911F910F91FF90EF900895AB01A1
:1018D000662757FD6095762F0E94400C08951F9251
:1018E0000F920FB60F9211242F933F938F939F93D4
:1018F000AF93BF9380917C0290917D02A0917E0274
:10190000B0917F02309180020196A11DB11D232F5D
:101910002D5F2D3720F02D570196A11DB11D20936D
:10192000800280937C0290937D02A0937E02B0930C
:101930007F028091780290917902A0917A02B09111
:101940007B020196A11DB11D8093780290937902CC
:10195000A0937A02B0937B02BF91AF919F918F9138
:101960003F912F910F900FBE0F901F901895789474
:1019700084B5826084BD84B5816084BD85B5826094
:1019800085BD85B5816085BDEEE6F0E08081816032
:101990008083E1E8F0E080818260808380818160E3
:1019A0008083E0E8F0E0808181608083E1EBF0E01B
:1019B000808184608083E0EBF0E0808181608083BF
:1019C000EAE7F0E0808184608083808182608083A8
:1019D0008081816080838081806880831092C100D3
:1019E0000895282F30E0C9018E549F4FFC01949137
:1019F00022563F4FF9018491882391F0E82FF0E0BF
:101A0000EE0FFF1FE058FF4FA591B491662329F414
:101A10008C91909589238C9308958C91892B8C932C
:101A20000895482F50E0CA018A539F4FFC0124912A
:101A3000CA018E549F4FFC01949142565F4FFA01A8
:101A400034913323D1F1222331F1233021F48091D9
:101A500080008F7705C0243031F4809180008F7D25
:101A60008093800018C0213019F484B58F7704C0AA
:101A7000223021F484B58F7D84BD0DC0263021F441
:101A80008091B0008F7705C0273029F48091B00095
:101A90008F7D8093B000E32FF0E0EE0FFF1FE6573D
:101AA000FF4FA591B491662329F48C9190958923D9
:101AB0008C9308958C91892B8C93089597FB092E14
:101AC00007260AD077FD04D049D006D000201AF4AA
:101AD000709561957F4F0895F6F7909581959F4F8A
:101AE0000895A1E21A2EAA1BBB1BFD010DC0AA1F5F
:101AF000BB1FEE1FFF1FA217B307E407F50720F077
:101B0000A21BB30BE40BF50B661F771F881F991FF1
:101B10001A9469F760957095809590959B01AC013A
:101B2000BD01CF01089597FB092E05260ED057FD64
:101B300004D0D7DF0AD0001C38F45095409530957A
:101B400021953F4F4F4F5F4F0895F6F79095809541
:101B5000709561957F4F8F4F9F4F0895AA1BBB1BB8
:101B600051E107C0AA1FBB1FA617B70710F0A61B9D
:101B7000B70B881F991F5A95A9F780959095BC01BE
:101B8000CD010895EE0FFF1F0590F491E02D09940B
:101B9000911111C080538A5028F0865C8062815672
:101BA0008650B8F70895911106C0803219F0895017
:101BB0008550D0F70895992788270895629FD0010E
:101BC000739FF001829FE00DF11D649FE00DF11DF8
:101BD000929FF00D839FF00D749FF00D659FF00DA7
:101BE0009927729FB00DE11DF91F639FB00DE11D94
:101BF000F91FBD01CF01112408952F923F924F92FA
:101C00005F926F927F928F929F92AF92BF92CF928C
:101C1000DF92EF92FF920F931F93CF93DF93CDB795
:101C2000DEB7CA1BDB0B0FB6F894DEBF0FBECDBF0D
:101C300009942A88398848885F846E847D848C84DE
:101C40009B84AA84B984C884DF80EE80FD800C81E7
:101C50001B81AA81B981CE0FD11D0FB6F894DEBFCA
:0C1C60000FBECDBFED010895F894FFCF3A
:101C6C003A44204D43503235313520526567647506
:101C7C006D70203B0A003A44202533693A20253008
:101C8C003278202020002533693A20253032782004
:101C9C002020002533693A2025303278203B0A0079
:101CAC003A49204C454475696E6F2043414E2D5581
:101CBC0053422041646170746F722056657273696F
:101CCC006F6E3A20313B003A49204265666F72656F
:101CDC002072656764756D70203B003A492041663F
:101CEC007465722072656764756D70203B0000002E
:081CFC000000DD0A270B3F0B7D
:00000001FF
