:020000040000FA
:0600000046EF07F01200BC
:0800080007ED00F012000600F4
:0600100004EF08F01200ED
:060018000CEF08F01200DD
:06002000010001000100D7
:02002A000000D4
:0600300043EF07F012008F
:09003600204572726F720D0A0080
:10004000010000000000FFFFFFFFFFFFFFFFFFFFB9
:10005000FFFFFFFFFFFFFFFFFFFFFFFFFFFFFFFFB0
:10006000FFFFFFFFFFFFFFFFFFFFFFFFFFFFFFFFA0
:10007000FFFFFFFFFFFFFFFFFFFFFFFFFFFFFFFF90
:100080004F70656E4C4342205049432052533233E7
:100090003220426F6F74204C6F6164657220204A79
:1000A000616E20323520323031302031343A3331F4
:1000B0003A323400000000000000000000000000A0
:1000C00055736572206964656E74696669636174ED
:1000D000696F6E206E6F742079657420646566693F
:1000E0006E656400000000000000000000000000D9
:1000F0000000000000000000000000000000000000
:0E01000001002A00000048000000020000007C
:02010E00310EB0
:10011000B16E3C0EB36EB00EB26E1200A1A206D04C
:100120003C0EB36EB00EB26EA192010C000CD9CF92
:10013000E6FFE1CFD9FFD950FC0FE96EFF0EDA20C0
:10014000EA6EEF50F66ED950FD0FE96EFF0EDA2021
:10015000EA6EEF50F76ED950FE0FE96EFF0EDA200F
:10016000EA6EEF50F86ED950FB0FE96EFF0EDA2001
:10017000EA6EEF50EF0600090DE00900F90EDBCF43
:10018000E9FFDB2AFA0EDBCFEAFF01E3DB2AF5CF3A
:10019000EFFFE9D7E552E7CFD9FF1200D9CFE6FF4D
:1001A000E1CFD9FFD950FC0FE96EFF0EDA20EA6EDD
:1001B000EF50F66ED950FD0FE96EFF0EDA20EA6EB1
:1001C000EF50F76ED950FE0FE96EFF0EDA20EA6E9F
:1001D000EF50F86E940EA66EF2CF0DF2F29EF29CE6
:1001E000550EA76EAA0EA76EA6820DC2F2FF0A00D8
:1001F000D950FB0FE96EFF0EDA20EA6EEF50EF06E2
:10020000000926E0F90EDBCFE9FFDB2AFA0EDBCF8F
:10021000EAFF01E3DB2AEF50F56E0F00070EF6143C
:10022000070808E0D950FB0FE96EFF0EDA20EA6EEE
:10023000EF500DE1840EA66EF2CF0DF2F29EF29C0D
:10024000550EA76EAA0EA76EA6820DC2F2FFD0D7DA
:10025000A694E552E7CFD9FF1200D9CFE6FFE1CF50
:10026000D9FFE150FE0FE96EFF0EDA20EA6EEFCF04
:1002700000F2020100511CE10E0EE66E000EE66E69
:100280000E0EE66E400EE66EE66AE66A50DF446EDB
:10029000060EE15E44500E50146E0F50156E105055
:1002A000166E1150176E1250186E1350196E87D0BB
:1002B0000201010E006F036B14C004F215C005F2B9
:1002C00016C006F217C007F218C008F2060EE96E53
:1002D000020EEA6ED890EF36010EEB36020EEB36C8
:1002E00005BF0681030EE96E020EEA6ED890EF3666
:1002F000010EEB36020EEB36030EE96E020EEA6ECD
:10030000EECF09F2EECF0AF2EFCF0BF20C6B476A99
:100310001450092715500A2316500B2347500C235D
:10032000A90E09274B0E0A237A0E0B23000E0C236D
:10033000090EE96E020EEA6EEECF14F0EECF15F064
:10034000EFCF16F00B0EE96E020EEA6EEF50E66E7E
:10035000090EE96E020EEA6EE552E750EF6E060EE8
:10036000E96E020EEA6EEECF44F0EECF45F0EFCF2D
:1003700046F0476A4450092745500A2346500B234C
:1003800047500C2319C046F0476A175009271850E8
:100390000A2319500B2347500C23A30E09270C0ED8
:1003A0000A231B0E0B23000E0C23090EE96E020E0E
:1003B000EA6EEECF17F0EECF18F0EFCF19F0020192
:1003C000000508E01A501B1005E000011A1C2BE183
:1003D0001B1C29E114C01AF015C01BF015C044F015
:1003E00016C045F0040ED89045324432E804FBE1D3
:1003F00044501A1A45501B1A17501A1A18501B1A33
:1004000018C044F019C045F0040ED890453244326B
:10041000E804FBE144501A1A45501B1A0F0E1B1634
:100420000201010E006F1AC000F01BC001F0026A49
:10043000036A12C044F013C045F0040ED890453250
:100440004432E804FBE144500212455003120C6AA6
:1004500036DB0009FDE0026A100E036EFF0E111478
:10046000446E0F0E1214456E445002124550031292
:1004700026DB0009FDE0026A200E036E0FC044F087
:1004800010C045F0040ED89045324432E804FBE138
:10049000445002124550031212DB0009FDE0026ACB
:1004A000300E036EFF0E0E14446E0F0E0F14456EC9
:1004B000445002124550031202DB0009FDE027DE22
:1004C0000201036B0A0E0201035D0FE227DE000941
:1004D00002E00201032BFCDA0009F4E01A500018D4
:1004E000F1E11B500118EEE1E3D600050FE10E0E1D
:1004F000E66E000EE66E0E0EE66E400EE66EE66AE4
:10050000E66A4CDE446E060EE15E4450E552E7CFEB
:10051000D9FF1200D9CFE6FFE1CFD9FF1AC000F012
:100520001BC001F0E150FC0FE96EFF0EDA20EA6E0D
:10053000EECF02F0EFCF03F0E00E0312020E0C6ECE
:10054000100E046EE150FE0FE96EFF0EDA20EA6E27
:10055000EF50056EB4DA0009FDE0E552E7CFD9FFB0
:100560001200D9CFE6FFE1CFD9FFE20EE96E000E0F
:10057000EA6E05C0EFFFE10EE96E000EEA6E06C0FE
:10058000EFFFE00EE96E000EEA6E07C0EFFFA00E6F
:10059000E66E000EE66E400EE66EE0C0E6FFE1C0DD
:1005A000E6FFE2C0E6FFC3DD446E060EE15E4450A6
:1005B0000201006B016B400E005D5AE21AC000F0B0
:1005C0001BC001F0D950FD0FE96EFF0EDA20EA6E74
:1005D000EECF02F0EFCF03F00250E00E0312080E50
:1005E0000C6E01C204F00051EA6AA00FE96E000E21
:1005F000EA22EF50056E0029EA6AA00FE96E000EAC
:10060000EA22EF50066E020E0025EA6AA00FE96E9C
:10061000000EEA22EF50076E030E0025EA6AA00FD3
:10062000E96E000EEA22EF50086E040E0025EA6A19
:10063000A00FE96E000EEA22EF50096E050E0025AC
:10064000EA6AA00FE96E000EEA22EF500A6E060E6B
:100650000025EA6AA00FE96E000EEA22EF500B6E49
:100660002EDA0009FDE0070E02010027012BA3D7B7
:10067000E552E7CFD9FF120000C0E6FF01C0E6FF58
:10068000E66A48DFE552E552E55218EF00F0120045
:10069000D9CFE6FFA69EA69CE150FD0FE96EFF0EA6
:1006A000DA20EA6EEF50A96EA680A850E552E7CF97
:1006B000D9FF1200D9CFE6FFA69EA69CE150FD0F00
:1006C000E96EFF0EDA20EA6EEF50A96EE150FC0FE2
:1006D000E96EFF0EDA20EA6EEF50A86EA684F2CF24
:1006E00000F2F29EF29C550EA76EAA0EA76EA6828D
:1006F00000C2F2FFA694A6B2FED7E552E7CFD9FF1B
:1007000012003A0E936E040E816EBF0E946E220E8E
:10071000AF6EB06A080EB86E240EAC6E900EAB6E63
:1007200081900201800E006F0007FEE11C6A12003A
:10073000D9CFE6FFE1CFD9FFE150FE0FE96EFF0E02
:10074000DA20EA6EEF500F0B300F02010D6FE85008
:10075000390802E2070E0D270DC2E6FF80D9E552E7
:10076000E552E7CFD9FF1200D9CFE6FFE1CFD9FF9D
:10077000E150FE0FE96EFF0EDA20EA6EEF380F0B44
:10078000E66ED6DFE552D950FE0FE96EFF0EDA2095
:10079000EA6EEF50E66ECCDFE552E552E7CFD9FFC7
:1007A0001200D9CFE6FFE1CFD9FFD950FC0FE96E97
:1007B000FF0EDA20EA6EEECFF6FFEECFF7FFEFCFB7
:1007C000F8FF0800F55016E0D950FC0FE96EFF0E57
:1007D000DA20EA6EEFCFF6FFEE2AEFCFF7FF000E3A
:1007E000EE22EFCFF8FFEE220800F550E66E37D983
:1007F000E552DBD7E552E7CFD9FF1200D9CFE6FFAC
:10080000E150FE0FE96EFF0EDA20EA6EEFCF10F234
:10081000300E0201105D06E31051390803E3300E7B
:10082000105D15D0410E105D05E31051460802E33E
:10083000410E07D0610E105D07E31051660804E316
:10084000610E105D0A0F03D0010E3C6E000EE552E2
:10085000E7CFD9FF1200D9CFE6FFE1CFD9FFE150B2
:10086000FD0FE96EFF0EDA20EA6EEF50E66EC6DF8E
:10087000E552446EE66ED950FE0FE96EFF0EDA20A7
:10088000EA6EEF50E66EBADFE552E552E7CF44F08C
:10089000100DF3504410E552E7CFD9FF12003A0E85
:1008A000E66EDDD8E552580EE66ED9D8E552010E57
:1008B000E66E3EDFE5520350E66E56DFE55202502B
:1008C000E66E52DFE5520150E66E32DFE55200502F
:1008D000E66E4ADFE5524E0EE66EC1D8E5520201E1
:1008E0000E6B0C500E5D0DE20E51EA6A040FE96EBC
:1008F000000EEA22EF50E66E37DFE55202010E2BC2
:10090000F0D73B0EE66EABD8E5520D0EE66EA7D8DB
:10091000E5520A0EE66EA3D8E552010C9AD80009FA
:1009200001E1000C3A0E3B5C02E11C6A000C3B0E3C
:100930003B5C0EE01D0E1C5C01E31C6A1C501C2A73
:10094000EA6A1D0FE96E000EEA223BC0EFFF000CC1
:100950001C501C2AEA6A1D0FE96E000EEA223BC0F9
:10096000EFFF3C6A580E1D5C03E0780E1D5C61E1F0
:100970001E50E66E43DFE552036E2050E66E1F50B8
:10098000E66E69DFE552E552036E2250E66E2150B5
:10099000E66E61DFE552E552026E2350E66E2EDF11
:1009A000E552016E2550E66E2450E66E54DFE552A6
:1009B000E552006E3C503DE14E0E265C03E06E0EAB
:1009C000265C37E102010A0E0E6F0D6B080E0D5DFD
:1009D0002BE20E51EA6A1D0FE96E000EEA22EF507B
:1009E0003B0822E00E29EA6A1D0FE96E000EEA229A
:1009F000EF50E66E0E51EA6A1D0FE96E000EEA2214
:100A0000EF50E66E28DFE552E552E66E02010D5129
:100A1000EA6A040FE96E000EEA22E552E750EF6E33
:100A20000D2B020E0E27D2D70DC20CF01C6A3C50C3
:100A30000FE0360E446E000E456E466A44C0E6FF77
:100A4000E66E46C0E6FFADDEE552E552E552000C2B
:100A5000010C9EAA03D0AE503B6E010C000CD9CF06
:100A6000E6FFE1CFD9FF4228435C02E1000E13D03C
:100A7000D950FE0FE96EFF0EDA20EA6EEF50E66EF7
:100A80004250422AEA6A000FE96E010EEA22E5525C
:100A9000E750EF6E010EE552E7CFD9FF1200435049
:100AA000425C01E112009EA812004350432AEA6A08
:100AB000000FE96E010EEA22EF50AD6E1200EFDF7B
:100AC0004250435CFF0FE00B01E1000C4FEF04F0DC
:100AD0008EEF04F01A50001802E11B50011816E1C5
:100AE0000350800B0DE11AC000F01BC001F002683A
:100AF0007F0E036E0C6AE3DF000901E1FCD705D02D
:100B0000010EE66E2DEC01F0E55279D1010E0218CE
:100B100002E1800E03181EE10050026EE00E01108B
:100B2000036E1AC000F01BC001F0070E0C6E500ED1
:100B3000046E1350056E1250066E1150076E105061
:100B4000086E0F50096E0E500A6EB9DF000901E100
:100B5000FCD755D11A50446EE00E1B10456E445020
:100B6000021802E14550031801E049D1230E045C4C
:100B70001CE100C048F001C049F0E20EE96E000E31
:100B8000EA6E05C0EFFFE10EE96E000EEA6E06C0E8
:100B9000EFFFE00EE96E000EEA6E07C0EFFF3F6860
:100BA000030E406E3D6A3E6A2AD1F00E041401E045
:100BB0009DD03F50401001E199D00050481802E10B
:100BC000015049180CE000C0E6FF01C0E6FF050E29
:100BD000E66EA0DCE552E552E55211D186D0045014
:100BE000416E4150F66EF76AD890F636F736DC0E55
:100BF000F6260E0EF7220900F5503F160900F550B3
:100C00004016070E4102F350416E0201010E0F6FB4
:100C1000080E02010F5D19E2400E415C16E202016E
:100C20000F51EA6A040FE96E000EEA22EF50E66EF9
:100C30004150412AEA6AA00FE96E000EEA22E5520D
:100C4000E750EF6E02010F2BE3D73F5040104DE10C
:100C5000E20EE96E000EEA6EEF50010813E3A00EFB
:100C6000E66E000EE66E400EE66EE0C0E6FFE1C006
:100C7000E6FFE2C0E6FFCEEC00F0446E060EE15E59
:100C800044502AD0E20EE96E000EEA6EEF50F008F2
:100C900023E1416A400E415C1FE24150EA6AA00F25
:100CA000E96E000EEA22EF50E66E4150466E476A4A
:100CB000E00EE96E000EEA6E4650EE24446E475098
:100CC000EE20456E44C0E6FF45C0E6FFF3DCE5528A
:100CD000E552E552412ADED748C0E6FF49C0E6FFAB
:100CE000E66A18DCE552E552E55289D0220E045C32
:100CF00008E100C0E6FF01C0E6FF33DCE552E55243
:100D00007ED0200E045C0BE100C0E6FF01C0E6FFD0
:100D1000E66A8AEC02F0E552E552E55270D0520ED6
:100D2000045C04E1FF0000EF00F069D0210E045CD8
:100D300029E1A00EE66E000EE66E400EE66EE66A53
:100D4000100EE66EE66A97EC00F0446E060EE15E69
:100D500044500001C75112E00001C76BA00EE66EBF
:100D6000000EE66E400EE66EE66A100EE66EE66A6D
:100D7000CEEC00F0446E060EE15E4450FF0000EF42
:100D800000F03DD0300E045C03E0510E045C0BE13A
:100D900000C0E6FF01C0E6FFE66A8AEC02F0E55219
:100DA000E552E5522CD0400E045C06E0320E045CA5
:100DB00003E0370E045C0CE100C0E6FF01C0E6FF73
:100DC000030EE66E8AEC02F0E552E552E55217D0CA
:100DD000410E045C09E0340E045C06E0380E045C4D
:100DE00003E0360E045C0BE100C0E6FF01C0E6FF45
:100DF000040EE66E8AEC02F0E552E552E55212006E
:100E00001AC000F01BC001F0030E026E800E036ECC
:100E10000C6A55DE0009FDE042DE8EEC00F00009B0
:100E200019E03D2A000E3E223F50401013E0140E00
:100E3000D8803D54000E3E540DE248C0E6FF49C044
:100E4000E6FF020EE66E8AEC02F0E552E552E5524C
:100E50003F6A406A3DDE0009DFE03CDEDDD70F0E71
:100E6000C16E3C0E926E3B0E936E040E816E9468C2
:100E7000F16A426A436A45DC87EC00F03D6A3E6AEB
:100E8000818C818E1200EBDF00EF07F010EE60F036
:100E900020EE60F05EEC07F0270EF66E100EF76E97
:100EA000F86A0800F55002E100EF08F0D8DFE66AC2
:0C0EB0002DEC01F0E552A4DFFED712008B
:040EBC00000EF36EC3
:100EC00000EE00F0030E01D81200EA6002D0EE6AD4
:0C0ED000FCD7F350E9601200EE6AFCD77A
:040EDC00FE03FD0311
:100EE000FB03F703EF03DF03BF037F03FF02FF01F1
:06100000FFEF0FF01200EB
:021006000000E8
:0810080007ED08F012000600DC
:0610100033EF0EF01200A8
:061018003AEF0EF0120099
:1010200000010001000100007A2100009200FFFF92
:10103000FFFFFFFFFFFFFFFFFFFFFFFFFFFFFFFFC0
:101040004F70656E4C434220666F72204D4552478B
:101050002043414E5253204A616E203235203230B7
:1010600031302031343A33313A323500000000005B
:101070000000000000000000000000000000000070
:10108000310EB16E3C0EB36EB00EB26E1200A1A264
:1010900006D03C0EB36EB00EB26EA192010C000CE5
:1010A000D9CFE6FFE1CFD9FFD950FC0FE96EFF0E93
:1010B000DA20EA6EEF50F66ED950FD0FE96EFF0EA2
:1010C000DA20EA6EEF50F76ED950FE0FE96EFF0E90
:1010D000DA20EA6EEF50F86ED950FB0FE96EFF0E82
:1010E000DA20EA6EEF50EF0600090DE00900F90E74
:1010F000DBCFE9FFDB2AFA0EDBCFEAFF01E3DB2AD5
:10110000F5CFEFFFE9D7E552E7CFD9FF1200D9CFEE
:10111000E6FFE1CFD9FFD950FC0FE96EFF0EDA20D0
:10112000EA6EEF50F66ED950FD0FE96EFF0EDA2031
:10113000EA6EEF50F76ED950FE0FE96EFF0EDA201F
:10114000EA6EEF50F86E940EA66EF2CF8DF2F29E1C
:10115000F29C550EA76EAA0EA76EA6828DC2F2FF54
:101160000A00D950FB0FE96EFF0EDA20EA6EEF504D
:10117000EF06000926E0F90EDBCFE9FFDB2AFA0EC5
:10118000DBCFEAFF01E3DB2AEF50F56E0F00070E1D
:10119000F614070808E0D950FB0FE96EFF0EDA20BD
:1011A000EA6EEF500DE1840EA66EF2CF8DF2F29E44
:1011B000F29C550EA76EAA0EA76EA6828DC2F2FFF4
:1011C000D0D7A694E552E7CFD9FF1200D9CFE6FFDA
:1011D000E1CFD9FFE150FE0FE96EFF0EDA20EA6E93
:1011E000EFCF80F2020180511CE10E0EE66E000E80
:1011F000E66E0E0EE66E400EE66EE66AE66A50DFBA
:101200004D6E060EE15E4D500E50146E0F50156E71
:101210001050166E1150176E1250186E1350196E32
:1012200087D00201010E806F836B14C084F215C059
:1012300085F216C086F217C087F218C088F2860EB3
:10124000E96E020EEA6ED890EF36010EEB36020E12
:10125000EB3685BF8681830EE96E020EEA6ED8906A
:10126000EF36010EEB36020EEB36830EE96E020E00
:10127000EA6EEECF89F2EECF8AF2EFCF8BF28C6B73
:10128000506A1450892715508A2316508B235050CA
:101290008C23A90E89274B0E8A237A0E8B23000EEE
:1012A0008C23890EE96E020EEA6EEECF14F0EECFBB
:1012B00015F0EFCF16F08B0EE96E020EEA6EEF50CE
:1012C000E66E890EE96E020EEA6EE552E750EF6EA9
:1012D000860EE96E020EEA6EEECF4DF0EECF4EF0C6
:1012E000EFCF4FF0506A4D5089274E508A234F5010
:1012F0008B2350508C2319C04FF0506A1750892708
:1013000018508A2319508B2350508C23A30E892701
:101310000C0E8A231B0E8B23000E8C23890EE96E84
:10132000020EEA6EEECF17F0EECF18F0EFCF19F005
:101330000201800508E01A501B1005E000011A1C8C
:101340002BE11B1C29E114C01AF015C01BF015C0BD
:101350004DF016C04EF0040ED8904E324D32E804D7
:10136000FBE14D501A1A4E501B1A17501A1A1850FA
:101370001B1A18C04DF019C04EF0040ED8904E3212
:101380004D32E804FBE14D501A1A4E501B1A0F0E55
:101390001B160201010E806F1AC000F01BC001F085
:1013A000026A036A12C04DF013C04EF0040ED890CA
:1013B0004E324D32E804FBE14D5002124E50031202
:1013C0000C6AB6EC0EF00009FCE0026A100E036E27
:1013D000FF0E11144D6E0F0E12144E6E4D50021270
:1013E0004E500312B6EC0EF00009FCE0026A200E2B
:1013F000036E0FC04DF010C04EF0040ED8904E3268
:101400004D32E804FBE14D5002124E500312B6EC8F
:101410000EF00009FCE0026A300E036EFF0E0E149F
:101420004D6E0F0E0F144E6E4D5002124E500312A1
:10143000B6EC0EF00009FCE023DE0201836B0A0E1D
:101440000201835D10E223DE000902E00201832B2A
:10145000BCEC0EF00009F3E01A500018F0E11B504C
:101460000118EDE1DED680050FE10E0EE66E000EEE
:10147000E66E0E0EE66E400EE66EE66AE66A47DE41
:101480004D6E060EE15E4D50E552E7CFD9FF1200DA
:10149000D9CFE6FFE1CFD9FF1AC000F01BC001F0A1
:1014A000E150FC0FE96EFF0EDA20EA6EEECF02F09B
:1014B000EFCF03F0E00E0312020E0C6E100E046E5E
:1014C000E150FE0FE96EFF0EDA20EA6EEF50056E76
:1014D000B6EC0EF00009FCE0E552E7CFD9FF1200B0
:1014E000D9CFE6FFE1CFD9FFE20EE96E000EEA6E3A
:1014F00005C0EFFFE10EE96E000EEA6E06C0EFFFD9
:10150000E00EE96E000EEA6E07C0EFFFA00EE66E79
:10151000000EE66E400EE66EE0C0E6FFE1C0E6FFBC
:10152000E2C0E6FFBDDD4D6E060EE15E4D500201EC
:10153000806B816B400E805D5AE21AC000F01BC0C8
:1015400001F0D950FD0FE96EFF0EDA20EA6EEECF02
:1015500002F0EFCF03F00250E00E0312080E0C6E03
:1015600081C204F08051EA6AA00FE96E000EEA22FF
:10157000EF50056E8029EA6AA00FE96E000EEA229C
:10158000EF50066E020E8025EA6AA00FE96E000E8B
:10159000EA22EF50076E030E8025EA6AA00FE96E7B
:1015A000000EEA22EF50086E040E8025EA6AA00FB2
:1015B000E96E000EEA22EF50096E050E8025EA6AF8
:1015C000A00FE96E000EEA22EF500A6E060E80258B
:1015D000EA6AA00FE96E000EEA22EF500B6EC6DB3E
:1015E0000009FDE0070E02018027812BA3D7E552F9
:1015F000E7CFD9FF120000C0E6FF01C0E6FFE66AB0
:1016000047DFE552E552E55218EF00F012001F0ED9
:101610006F166F8EE00E6F148008FCE1030E706E83
:10162000DE0E716E030E726E200E736E800E776E7C
:10163000778A0D01F86B606A0F01506B0E01206B09
:10164000306B406B506B606B706B0F01186B1C6BD9
:10165000080E196F1D6F1A6B1E6B1B6B1F6B0D0134
:10166000D469D569D86BF06BF16BF26BF36B0F013A
:10167000016F056F096F0D6F116F156F0D01616FB0
:10168000656F696F716F756F796F816F856F896F26
:10169000916F1F0E6F16E00E6F14FDE11200020134
:1016A000400E8D6F0F0E8E6F8DC2E9FFEA6EEF5008
:1016B000080B15E0300E8D6F0F0E8E6F8DC2E9FF97
:1016C000EA6EEF50080B0BE0200E8D6F0F0E8E6F41
:1016D0008DC2E9FFEA6EEF50080B01E0000CFC0E32
:1016E0008DC2E9FF8EC2EAFFE850EF16050EEA6AE6
:1016F0008D25E96E8E51EA220CC0EFFF03407F0B6F
:101700008009E66E010EEA6A8D25E96E8E51EA22A5
:10171000E552E750EF6E300E0214E8380F0B4E6EB4
:10172000C00E0214E8407F0B4D6E010E0314800DB5
:10173000F3504D1008094E10E66E020EEA6A8D2530
:10174000E96E8E51EA22E552E750EF6E0F0E021459
:10175000100D0F0E0114F310E66E030EEA6A8D25CC
:10176000E96E8E51EA22E552E750EF6E040EEA6A06
:101770008D25E96E8E51EA2200C0EFFF8F6B0C5071
:101780008F5D14E28F51EA6A040FE96E000EEA22BF
:10179000EF50E66E060E8F25EA6A8D25E96E8E51B2
:1017A000EA22E552E750EF6E8F2BE9D78DC2E9FFB1
:1017B0008EC2EAFFEF86010C74AE000C070E6F14A8
:1017C000060A2AE0030A23E0010A1CE0070A15E0E2
:1017D000010A0EE0030A07E0010A23E10201600E9C
:1017E0008E6F0F0E22D00201500E8E6F0F0E1DD085
:1017F0000201200E8E6F0E0E18D00201300E8E6F79
:101800000E0E13D00201400E8E6F0E0E0ED002018E
:10181000500E8E6F0E0E09D00201600E8E6F0E0EEE
:1018200004D00201700E8E6F0E0E8F6F0D6A74ACB5
:1018300002D00D86749C010EEA6A8E25E96E8F51E6
:10184000EA22EF50E824036E020EEA6A8E25E96E62
:101850008F51EA22EF50800BE844010B0312020E75
:10186000EA6A8E25E96E8F51EA22EF50600BE82478
:10187000026E020EEA6A8E25E96E8F51EA22EF505F
:10188000030B100DF3500212030EEA6A8E25E96E67
:101890008F51EA22EF380F0B0212030EEA6A8E25EF
:1018A000E96E8F51EA22EF500F0B016E040EEA6AC7
:1018B0008E25E96E8F51EA22EF50006E050EEA6A1E
:1018C0008E25E96E8F51EA22EF500F0B0C6E8D6B57
:1018D0000C508D5D14E2060E8D25EA6A8E25E96EA8
:1018E0008F51EA22EF50E66E8D51EA6A040FE96EDD
:1018F000000EEA22E552E750EF6E8D2BE9D7A4AE39
:1019000002D00D88A49E8EC2E9FF8FC2EAFFEF9E2F
:10191000A492749E010C3A0E936E040E816EBF0E5B
:10192000946E220EAF6EB06A080EB86E240EAC6EC6
:10193000900EAB6E81900201800E806F8007FEE1F9
:101940001C6A1200D9CFE6FFE1CFD9FFE150FE0FAC
:10195000E96EFF0EDA20EA6EEF500F0B300F020136
:101960008D6FE850390802E2070E8D278DC2E6FF21
:10197000DDD9E552E552E7CFD9FF1200D9CFE6FF16
:10198000E1CFD9FFE150FE0FE96EFF0EDA20EA6EDB
:10199000EF380F0BE66ED6DFE552D950FE0FE96E39
:1019A000FF0EDA20EA6EEF50E66ECCDFE552E5522C
:1019B000E7CFD9FF1200D9CFE6FFE1CFD9FFD95049
:1019C000FC0FE96EFF0EDA20EA6EEECFF6FFEECFE7
:1019D000F7FFEFCFF8FF0800F55016E0D950FC0FE5
:1019E000E96EFF0EDA20EA6EEFCFF6FFEE2AEFCFB8
:1019F000F7FF000EEE22EFCFF8FFEE220800F550C1
:101A0000E66E94D9E552DBD7E552E7CFD9FF120055
:101A1000D9CFE6FFE150FE0FE96EFF0EDA20EA6E45
:101A2000EFCF8FF2300E02018F5D06E38F51390840
:101A300003E3300E8F5D15D0410E8F5D05E38F51AE
:101A4000460802E3410E07D0610E8F5D07E38F5118
:101A5000660804E3610E8F5D0A0F03D0010E3C6E31
:101A6000000EE552E7CFD9FF1200D9CFE6FFE1CF54
:101A7000D9FFE150FD0FE96EFF0EDA20EA6EEF505C
:101A8000E66EC6DFE5524D6EE66ED950FE0FE96E8A
:101A9000FF0EDA20EA6EEF50E66EBADFE552E5524D
:101AA000E7CF4DF0100DF3504D10E552E7CFD9FFC1
:101AB00012003A0EE66E3AD9E552580EE66E36D965
:101AC000E552010EE66E3EDFE5520350E66E56DF4C
:101AD000E5520250E66E52DFE5520150E66E32DF0B
:101AE000E5520050E66E4ADFE5524E0EE66E1ED914
:101AF000E55202018E6B0C508E5D0DE28E51EA6A4A
:101B0000040FE96E000EEA22EF50E66E37DFE55271
:101B100002018E2BF0D73B0EE66E08D9E5520D0E72
:101B2000E66E04D9E5520A0EE66E00D9E552010CC4
:101B3000E0D8000901E1000C3A0E3B5C02E11C6AAE
:101B4000000C3B0E3B5C0EE01D0E1C5C01E31C6AAE
:101B50001C501C2AEA6A1D0FE96E000EEA223BC0E7
:101B6000EFFF000C1C501C2AEA6A1D0FE96E000EE4
:101B7000EA223BC0EFFF3C6A580E1D5C03E0780E82
:101B80001D5C61E11E50E66E43DFE552036E20509E
:101B9000E66E1F50E66E69DFE552E552036E225095
:101BA000E66E2150E66E61DFE552E552026E23508B
:101BB000E66E2EDFE552016E2550E66E2450E66E8D
:101BC00054DFE552E552006E3C503DE14E0E265C7E
:101BD00003E06E0E265C37E102010A0E8E6F8D6BFC
:101BE000080E8D5D2BE28E51EA6A1D0FE96E000E24
:101BF000EA22EF503B0822E08E29EA6A1D0FE96EC7
:101C0000000EEA22EF50E66E8E51EA6A1D0FE96E71
:101C1000000EEA22EF50E66E28DFE552E552E66E4E
:101C200002018D51EA6A040FE96E000EEA22E552C4
:101C3000E750EF6E8D2B020E8E27D2D78DC20CF09F
:101C40001C6A3C500FE0AC0E4D6E220E4E6E4F6A79
:101C50004DC0E6FFE66E4FC0E6FFADDEE552E55251
:101C6000E552000C010CDACFE4FFE652E552E5CF75
:101C7000DAFF1100D8CFE4FFE0CFE4FFE46EDACF63
:101C8000E4FFE9CFE4FFEACFE4FFE6529EAA14D0D6
:101C90004B504B2AEA6A000FE96E020EEA22AECFE1
:101CA000EFFF4B9EABB2AB984B504C5C7F0B516E31
:101CB0000A0E515C01E281809EA80ED04A50495C18
:101CC00002E19D9809D04A504A2AEA6A000FE96E5B
:101CD000010EEA22EF50AD6EE552E5CFEAFFE5CF07
:101CE000E9FFE5CFDAFFE550E5CFE0FFE5CFD8FF2C
:101CF00010009D9A4C504B5C03E102018F6B13D096
:101D00004C504C2AEA6A000FE96E020EEA22EF50AC
:101D10003B6E4C9E0201010E8F6F4B504C5C7F0B53
:101D2000140801E281909D8A8F511200D9CFE6FFFD
:101D30009D98E150FE0FE96EFF0EDA20EA6EEF503B
:101D4000E66E4950492AEA6A000FE96E010EEA225E
:101D5000E552E750EF6E4A50495C02E14904496E92
:101D60009D88010EE552E7CFD9FF120098DC0009EB
:101D700001E1000C9EDE010C1FDD000902E099DE8E
:101D8000010CD6DE000904E08ADC0009FDE0010C4C
:101D9000000C1A50001802E11B50011816E1035004
:101DA000800B0DE11AC000F01BC001F002687F0E2D
:101DB000036E0C6ADBDF000901E1FCD705D0010EE0
:101DC000E66EE6EC08F0E55219D1010E021802E1C8
:101DD000800E03181EE10050026EE00E0110036E2B
:101DE0001AC000F01BC001F0070E0C6E500E046EFE
:101DF0001350056E1250066E1150076E1050086E8B
:101E00000F50096E0E500A6EB1DF000901E1FCD7D8
:101E1000F5D0100E021802E1800E031803E1010E46
:101E2000486EECD01A504D6EE00E1B104E6E4D50A9
:101E3000021802E14E50031801E0E0D0010E486E96
:101E4000200E045C05E1F29EF29CFBEC0AF0D6D079
:101E5000520E045C04E1FF0000EF00F0CFD0220E30
:101E6000045C09E100C0E6FF01C0E6FF70EC0AF087
:101E7000E552E552C3D0230E045C1BE100C046F0DE
:101E800001C047F0E20EE96E000EEA6E05C0EFFFFA
:101E9000E10EE96E000EEA6E06C0EFFFE00EE96E9D
:101EA000000EEA6E07C0EFFF4468030E456E436AFA
:101EB000A5D0F00E041468E14450451065E00050D0
:101EC000461802E1015047180DE000C0E6FF01C0CE
:101ED000E6FF050EE66E48EC0AF0E552E552E552E3
:101EE0008DD051D00450406E4050F66EF76AD890B5
:101EF000F636F7360C0EF626220EF7220900F550BC
:101F000044160900F5504516070E4002F350406E86
:101F1000010E3D6E080E3D5C17E2400E405C14E27F
:101F20003D50EA6A040FE96E000EEA22EF50E66EB9
:101F30004050402AEA6AA00FE96E000EEA22E552FC
:101F4000E750EF6E3D2AE6D7445045101CE1A00E45
:101F5000E66E000EE66E400EE66EE0C0E6FFE1C003
:101F6000E6FFE2C0E6FF87EC08F04D6E060EE15E8C
:101F70004D5046C0E6FF47C0E6FFE66A48EC0AF06F
:101F8000E552E552E5523AD0300E045C03E0510EC2
:101F9000045C0BE100C0E6FF01C0E6FFE66A48EC26
:101FA0000AF0E552E552E55229D0400E045C06E005
:101FB000320E045C03E0370E045C0CE100C0E6FF67
:101FC00001C0E6FF030EE66E48EC0AF0E552E5526A
:101FD000E55214D0410E045C06E0340E045C03E0CC
:101FE000380E045C0BE100C0E6FF01C0E6FF040E02
:101FF000E66E48EC0AF0E552E552E55212000F0E8B
:10200000C16E200E926E87DC40EC08F007EC0BF0FE
:10201000D08E9F6AA26AA56A9D8AF28CF28E818E0A
:10202000819CE66AE6EC08F0E552760E4D6E220ED3
:102030004E6E4F6A4DC0E6FFE66E4FC0E6FFBBDC5A
:10204000E552E552E5521C6A1AC000F01BC001F0CF
:10205000020E026E800E036E0C6A88DE0009FDE03F
:1020600047EC08F000091AE0485002E0818C01D0EA
:10207000819C486A432A4450451010E0435014089C
:102080000DE246C0E6FF47C0E6FF020EE66E48ECF2
:102090000AF0E552E552E552446A456A6DDE0009F0
:1020A00021E00DA60ED05D0E4D6E220E4E6E4F6AD3
:1020B0004DC0E6FFE66E4FC0E6FF7DDCE552E5521F
:1020C000E5520DA80ED0440E4D6E220E4E6E4F6A94
:1020D0004DC0E6FFE66E4FC0E6FF6DDCE552E5520F
:1020E000E55257DE4150765C22E07650416E340E68
:1020F0004D6E220E4E6E4F6A4DC0E6FFE66E4FC02B
:10210000E6FF59DCE552E552E5527650E66E36DCE4
:10211000E552300E4D6E220E4E6E4F6A4DC0E6FFF8
:10212000E66E4FC0E6FF47DCE552E552E55242500D
:10213000755C96E07550426E200E4D6E220E4E6E0E
:102140004F6A4DC0E6FFE66E4FC0E6FF34DCE55255
:10215000E552E5527550E66E11DCE552300E4D6EDB
:10216000220E4E6E4F6A4DC0E6FFE66E4FC0E6FF90
:0A21700022DCE552E552E55273D778
:06217A003C584D4C3E0DE7
:102180000A3C4E6F6465537472696E673E4F7065AA
:102190006E4C434220666F72204D455247204341AA
:1021A0004E5253204A616E20323520323031302079
:1021B00031343A33313A32353C2F4E6F64655374C3
:1021C00072696E673E0D0A3C4576656E74446174B3
:1021D000613E0D0A3C2F4576656E74446174613E24
:1021E0000D0A3C4E6F64655661726961626C653EB2
:1021F0000D0A3C2F4E6F64655661726961626C65B1
:102200003E0D0A3C2F584D4C3E0D0A00FE03FD03C7
:10221000FB03F703EF03DF03BF037F03FF02FF01AD
:102220002D4543414E205258455252434E542000B2
:102230002D0D0A002D4543414E205458455252431E
:102240004E5420002D4543414E20496E76616C6905
:1022500064206D6573736167652D0D0A002D45431C
:10226000414E20427566666572206F766572666CB7
:102270006F772D0D0A000D0A5374617274204F7030
:10228000656E4C434220666F72204D455247204395
:10229000414E5253204A616E203235203230313067
:1022A0002031343A33313A32350D0A00204572720A
:0522B0006F720D0A0031
:0A22B600000EF36E00EE00F0030EC0
:1022C00001D81200EA6002D0EE6AFCD7F350E96050
:0622D0001200EE6AFCD7CB
:020000040030CA
:0100010046B8
:010002000EEF
:010003001AE2
:01000500807A
:010006008178
:010008000FE8
:01000900C036
:01000A000FE6
:01000B00E014
:01000C000FE4
:01000D0040B2
:00000001FF
