:020000040000FA
:06000000ADEF07F0120055
:0800080007ED00F012000600F4
:0600100004EF08F01200ED
:060018000CEF08F01200DD
:02002A000000D4
:06003000AAEF07F0120028
:09003600204572726F720D0A0080
:10004000010000000000FFFFFFFFFFFFFFFFFFFFB9
:10005000FFFFFFFFFFFFFFFFFFFFFFFFFFFFFFFFB0
:10006000FFFFFFFFFFFFFFFFFFFFFFFFFFFFFFFFA0
:10007000FFFFFFFFFFFFFFFFFFFFFFFFFFFFFFFF90
:100080004C6F636174696F6E206E6F742079657454
:1000900020646566696E6564000000000000000071
:1000A0000000000000000000000000000000000050
:1000B0000000000000000000000000000000000040
:1000C0003C6364693E3C69643E3C6C6F616465728C
:1000D0003E4F70656E4C434220504943205253328C
:1000E000333220426F6F74204C6F61646572202040
:1000F0004A756E20303220323031322031373A3476
:10010000353A35343C2F6C6F616465723E3C2F6923
:10011000643E3C7365206E613D224E6F6465222013
:100120006F723D222330303430222073703D222301
:100130004645222062753D2223313433223E3C6203
:1001400079206E613D224964222073693D22362266
:100150002F3E3C62792073693D223538222F3E3C88
:100160006368206E613D224E616D65222073693D9A
:10017000223634222F3E3C2F73653E3C2F63646948
:020180003E003F
:0E018200310EB16ECF0EB36E2C0EB26E1200A7
:10019000A1A206D0CF0EB36E2C0EB26EA192010CAE
:1001A000000CD9CFE6FFE1CFD9FFD950FC0FE96EA3
:1001B000FF0EDA20EA6EEF50F66ED950FD0FE96EB1
:1001C000FF0EDA20EA6EEF50F76ED950FE0FE96E9F
:1001D000FF0EDA20EA6EEF50F86ED950FB0FE96E91
:1001E000FF0EDA20EA6EEF50EF0600090DE009007D
:1001F000F90EDBCFE9FFDB2AFA0EDBCFEAFF01E3E2
:10020000DB2AF5CFEFFFE9D7E552E7CFD9FF1200A0
:10021000D9CFE6FFE1CFD9FFD950FC0FE96EFF0E31
:10022000DA20EA6EEF50F66ED950FD0FE96EFF0E40
:10023000DA20EA6EEF50F76ED950FE0FE96EFF0E2E
:10024000DA20EA6EEF50F86E940EA66EF2CF0CF242
:10025000F29EF29C550EA76EAA0EA76EA6820CC245
:10026000F2FF0A00D950FB0FE96EFF0EDA20EA6EAA
:10027000EF50EF06000926E0F90EDBCFE9FFDB2A9D
:10028000FA0EDBCFEAFF01E3DB2AEF50F56E0F0039
:100290001F0EF6141F0808E0D950FB0FE96EFF0E81
:1002A000DA20EA6EEF500DE1840EA66EF2CF0CF26A
:1002B000F29EF29C550EA76EAA0EA76EA6820CC2E5
:1002C000F2FFD0D7A694E552E7CFD9FF1200D9CFDD
:1002D000E6FFE1CFD9FFE150FE0FE96EFF0EDA2015
:1002E000EA6EEFCF00F2020100511CE1120EE66E41
:1002F000000EE66E0E0EE66E400EE66EE66AE66AEA
:1003000050DF466E060EE15E46501250186E1350D6
:10031000196E14501A6E15501B6E16501C6E175025
:100320001D6E8BD00201010E006F026B18C003F22C
:1003300019C004F21AC005F21BC006F21CC007F275
:10034000050EE96E020EEA6ED890EF36010EEB361E
:10035000020EEB3604BF0581020EE96E020EEA6E54
:10036000D890EF36010EEB36020EEB36020EE96E38
:10037000020EEA6EEECF08F2EECF09F2EFCF0AF2EC
:100380000B6B496A18500827195009231A500A2381
:1003900049500B23A90E08274B0E09237A0E0A2376
:1003A000000E0B23080EE96E020EEA6EEECF18F077
:1003B000EECF19F0EFCF1AF00A0EE96E020EEA6ED8
:1003C000EF50E66E080EE96E020EEA6EE552E75057
:1003D000EF6E050EE96E020EEA6EEECF46F0EECF3E
:1003E00047F0EFCF48F0496A4650082747500923A5
:1003F00048500A2349500B231BC046F01CC047F04D
:100400001DC048F0496A1B5008271C5009231D5085
:100410000A2349500B23A30E08270C0E09231B0E99
:100420000A23000E0B23080EE96E020EEA6EEECFD1
:100430001BF0EECF1CF0EFCF1DF00201000508E02D
:100440001E501F1005E000011E1C29E11F1C27E1A2
:1004500018C01EF019C01FF019C046F01AC047F0AE
:10046000040ED89047324632E804FBE146501E1A8B
:1004700047501F1A1B501E1A1C501F1A1CC046F052
:100480001DC047F0040ED89047324632E804FBE125
:1004900046501E1A47501F1A0201010E006F0F0E20
:1004A0001F160201016B0F0140B764D01EC000F09F
:1004B0001FC001F00C6A0201015115E1026A700EC1
:1004C000036E16C046F017C047F0040ED8904732AE
:1004D0004632E804FBE1465002124750031271DB3A
:1004E0000201010E46D0010511E1026A600E036EA1
:1004F000FF0E1514466E0F0E1614476E465002126C
:10050000475003125EDB0201020E33D0020E015D82
:1005100015E1026A500E036E13C046F014C047F096
:10052000040ED89047324632E804FBE146500212EE
:100530004750031246DB0201030E1BD0030E015D80
:1005400011E1026A400E036EFF0E1214466E0F0E8A
:100550001314476E465002124750031232DB020159
:10056000040E07D0040E015D05E10BDE0201026BF3
:10057000050E016F2FDB000907E01E50001804E193
:100580001F50011801E1CED603DE00098CE0020104
:10059000022B0251080801E386D700050FE1120E75
:1005A000E66E000EE66E0E0EE66E400EE66EE66A33
:1005B000E66A2EDE466E060EE15E4650026A070EC1
:1005C000036E1EC000F01FC001F00C6AFADA0009C9
:1005D000FDE0010EE66E070EE66E06D8E552E55226
:1005E000E552E7CFD9FF1200D9CFE6FFE1CFD9FF1F
:1005F000E150FD0FE96EFF0EDA20EA6EEECF02F059
:10060000EDCF03F01EC000F01FC001F0060E0C6E0F
:100610001750046E1650056E1550066E1450076E76
:100620001350086E1250096ECCDA0009FDE0E55255
:10063000E7CFD9FF1200D9CFE6FFE1CFD9FF1EC027
:1006400000F01FC001F0E150FD0FE96EFF0EDA204F
:10065000EA6EEECF02F0EFCF03F0E00E0312010ED0
:100660000C6E4C0E046EADDA0009FDE0E552E7CFEA
:10067000D9FF1200D9CFE6FFE1CFD9FF1EC000F0AD
:100680001FC001F0E150FD0FE96EFF0EDA20EA6EA7
:10069000EECF02F0EFCF03F0E00E0312030E0C6E6C
:1006A0004D0E046EE150FC0FE96EFF0EDA20EA6E8B
:1006B000EF50056EE150FB0FE96EFF0EDA20EA6E97
:1006C000EF50066E7EDA0009FDE0E552E7CFD9FF74
:1006D0001200D9CFE6FF0001300EA16F0E6AE15083
:1006E000FE0FE96EFF0EDA20EA6EEF500F6EE1505A
:1006F000FC0FE96EFF0EDA20EA6EEECF10F0EDCFC0
:1007000011F0E552E7CFD9FF12000F500E5C70E2F6
:10071000080E0F01401501E012001EC000F01FC0BE
:1007200001F0026AC00E036E0E5003E1026AB00EC1
:10073000036E080E0C6E0E500F5C08080CE30E5092
:100740000F5C0C6E0F50080803E3026AA00E02D083
:10075000026AD00E036E10500212115003120E5096
:10076000EA6AA00FE96E000EEA22EF50046E0E282E
:10077000EA6AA00FE96E000EEA22EF50056E020E43
:100780000E24EA6AA00FE96E000EEA22EF50066E10
:10079000030E0E24EA6AA00FE96E000EEA22EF5063
:1007A000076E040E0E24EA6AA00FE96E000EEA221C
:1007B000EF50086E050E0E24EA6AA00FE96E000ED7
:1007C000EA22EF50096E060E0E24EA6AA00FE96EC7
:1007D000000EEA22EF500A6E070E0E24EA6AA00FFE
:1007E000E96E000EEA22EF500B6E080E0E26E9D9D4
:1007F000120000C0E6FF01C0E6FF1DDFE552E55232
:1008000018EF00F012003A0E936E040E816EBF0EC8
:10081000946E220EAF6EB06A080EB86E240EAC6EE7
:10082000900EAB6E81900201800E006F0007FEE11A
:10083000206A1200D9CFE6FFE1CFD9FFE150FE0FC9
:10084000E96EFF0EDA20EA6EEF500F0B300F020157
:100850000C6FE850390802E2070E0C270CC2E6FFC5
:1008600080D9E552E552E7CFD9FF1200D9CFE6FF94
:10087000E1CFD9FFE150FE0FE96EFF0EDA20EA6EFC
:10088000EF380F0BE66ED6DFE552D950FE0FE96E5A
:10089000FF0EDA20EA6EEF50E66ECCDFE552E5524D
:1008A000E7CFD9FF1200D9CFE6FFE1CFD9FFD9506A
:1008B000FC0FE96EFF0EDA20EA6EEECFF6FFEECF08
:1008C000F7FFEFCFF8FF0800F55016E0D950FC0F06
:1008D000E96EFF0EDA20EA6EEFCFF6FFEE2AEFCFD9
:1008E000F7FF000EEE22EFCFF8FFEE220800F550E2
:1008F000E66E37D9E552DBD7E552E7CFD9FF1200D4
:10090000D9CFE6FFE150FE0FE96EFF0EDA20EA6E66
:10091000EFCF0FF2300E02010F5D06E30F513908E1
:1009200003E3300E0F5D15D0410E0F5D05E30F514F
:10093000460802E3410E07D0610E0F5D07E30F5139
:10094000660804E3610E0F5D0A0F03D0010E406ECE
:10095000000EE552E7CFD9FF1200D9CFE6FFE1CF75
:10096000D9FFE150FD0FE96EFF0EDA20EA6EEF507D
:10097000E66EC6DFE552466EE66ED950FE0FE96EB2
:10098000FF0EDA20EA6EEF50E66EBADFE552E5526E
:10099000E7CF46F0100DF3504610E552E7CFD9FFF0
:1009A00012003A0EE66EDDD8E552580EE66ED9D842
:1009B000E552010EE66E3EDFE5520350E66E56DF6D
:1009C000E5520250E66E52DFE5520150E66E32DF2C
:1009D000E5520050E66E4ADFE5524E0EE66EC1D893
:1009E000E55202010D6B0C500D5D0DE20D51EA6AEE
:1009F000040FE96E000EEA22EF50E66E37DFE55293
:100A000002010D2BF0D73B0EE66EABD8E5520D0E72
:100A1000E66EA7D8E5520A0EE66EA3D8E552010CA1
:100A20009AD8000901E1000C3A0E3F5C02E1206A0D
:100A3000000C3B0E3F5C0EE01D0E205C01E3206AC3
:100A40002050202AEA6A210FE96E000EEA223FC0F8
:100A5000EFFF000C2050202AEA6A210FE96E000EF9
:100A6000EA223FC0EFFF406A580E215C03E0780E97
:100A7000215C61E12250E66E43DFE552036E2450B3
:100A8000E66E2350E66E69DFE552E552036E2650AE
:100A9000E66E2550E66E61DFE552E552026E2750A4
:100AA000E66E2EDFE552016E2950E66E2850E66EA6
:100AB00054DFE552E552006E40503DE14E0E2A5C97
:100AC00003E06E0E2A5C37E102010A0E0D6F0C6B1B
:100AD000080E0C5D2BE20D51EA6A210FE96E000E43
:100AE000EA22EF503B0822E00D29EA6A210FE96E65
:100AF000000EEA22EF50E66E0D51EA6A210FE96E10
:100B0000000EEA22EF50E66E28DFE552E552E66E6F
:100B100002010C51EA6A040FE96E000EEA22E55266
:100B2000E750EF6E0C2B020E0D27D2D70CC20CF043
:100B3000206A40500FE0360E466E000E476E486A3F
:100B400046C0E6FFE66E48C0E6FFADDEE552E55280
:100B5000E552000C010C9EAA03D0AE503F6E010C72
:100B6000000CD9CFE6FFE1CFD9FF4428455C02E174
:100B7000000E13D0D950FE0FE96EFF0EDA20EA6E98
:100B8000EF50E66E4450442AEA6A000FE96E010E07
:100B9000EA22E552E750EF6E010EE552E7CFD9FFAA
:100BA00012004550445C01E112009EA8120045501D
:100BB000452AEA6A000FE96E010EEA22EF50AD6E97
:100BC0001200EFDF4450455CFF0FE00B01E1000C29
:100BD000D1EF04F010EF05F01E50001802E11F5095
:100BE000011816E10350800B0DE11EC000F01FC07C
:100BF00001F0026A070E036E0C6AE3DF000901E1EF
:100C0000FCD705D0010EE66E67EC01F0E5527ED10F
:100C1000A70E021802E1880E031808E1B70EE66E6F
:100C2000880EE66EE1DCE552E55270D11E50466E4C
:100C3000C00E1F10476E4650021802E147500318BD
:100C400022E01E50486ED00E1F10496E4850021808
:100C500002E14950031817E01E504A6EB00E1F10F3
:100C60004B6E4A50021802E14B5003180CE01E5024
:100C70004C6EA00E1F104D6E4C50021802E14D50EC
:100C8000031801E043D1F00E0314466E476AA00E2C
:100C9000461801E1475009E0F00E0314486E496A16
:100CA000B00E481801E1495006E1416A00C042F027
:100CB00001C043F013D00050421802E10150431824
:100CC0000DE0000EE66EE66A00C0E6FF01C0E6FF3A
:100CD000D1DCE552E552E552E55218D102010E6B26
:100CE0000C5002010E5D19E2480E415C16E2020151
:100CF0000E51EA6A040FE96E000EEA22EF50E66E2A
:100D00004150412AEA6AA00FE96E000EEA22E5523C
:100D1000E750EF6E02010E2BE3D7F00E0314466E80
:100D2000476AD00E461801E147500AE0F00E03145E
:100D3000486E496AA00E481801E1495001E0E6D02A
:100D400042684368416A200E0001A05D01E0D1D0F5
:100D5000EA0EE96E000EEA6EA3C0EFFFE90EE96E3F
:100D6000000EEA6EA4C0EFFFE80EE96E000EEA6E18
:100D7000A5C0EFFFFB0E0001A65D09E10001FE0E1C
:100D8000A66FE80EE96E000EEA6E800EEF6E200E82
:100D90000001A15D1FE1FE0E0001A65D1AE1A70E94
:100DA000E66E000EE66E400EE66EE8C0E6FFE9C0B5
:100DB000E6FFEAC0E6FF08EC01F0466E060EE15ED3
:100DC000465000C0E6FF01C0E6FF35DCE552E552C3
:100DD0009DD08FD0600E0001A15D59E1FF0E000192
:100DE000A65D2FE1C00E466E000E476E486A465063
:100DF0000001E82747500001E92348500001EA2399
:100E0000A7C00EF2A70EE66E000EE66E0EC2E6FF5B
:100E1000E8C0E6FFE9C0E6FFEAC0E6FFD1EC00F07B
:100E2000466E060EE15E465000C0E6FF01C0E6FFDA
:100E3000070E02010E25E66E4CDCE552E552E55246
:100E400065D0FE0E0001A65D21E1A7C00EF2A70E3F
:100E5000E66E000EE66E0EC2E6FFE8C0E6FFE9C0F1
:100E6000E6FFEAC0E6FFD1EC00F0466E060EE15E5A
:100E7000465000C0E6FF01C0E6FF070E02010E2546
:100E8000E66E27DCE552E552E55240D032D0A40EA2
:100E9000055C29E1A00EE66E000EE66E400EE66EE1
:100EA000E66A100EE66EE66AD1EC00F0466E060EBB
:100EB000E15E46500001C05112E00001C06BA00E7F
:100EC000E66E000EE66E400EE66EE66A100EE66E08
:100ED000E66A08EC01F0466E060EE15E4650FF0041
:100EE00000EF00F006D0A50E055C03E1FF0000EF67
:100EF00000F0000EE66EE66A00C0E6FF01C0E6FF05
:100F00003AEC03F0E552E552E552E5521200870E45
:100F1000E66E800EE66EF4EC02F0E552E552416AB0
:100F2000426843683EDE85EC03F054DE0009FAE0D7
:100F300053DEF8D70F0EC16E3C0E926E3B0E936ED1
:100F4000040E816E9468F16A446A456A5CDC818CA7
:100F5000818E1200EFDF87EF07F010EE60F020EED9
:100F600060F0C5EC07F0200EF66E100EF76EF86A12
:100F70000800F55002E100EF08F0DCDFE66A67ECFC
:0A0F800001F0E552C4DFFED71200B5
:060F8A00000EF36E00EE04
:100F900000F0030E01D81200EA6002D0EE6AFCD71E
:0A0FA000F350E9601200EE6AFCD77E
:061000004BEF10F012009E
:021006000000E8
:0810080007ED08F012000600DC
:0610100034EF0EF01200A7
:061018003BEF0EF0120098
:0110200000CF
:0E102200310EB16ECF0EB36E2C0EB26E1200F8
:10103000A1A206D0CF0EB36E2C0EB26EA192010CFF
:10104000000CD9CFE6FFE1CFD9FFD950FC0FE96EF4
:10105000FF0EDA20EA6EEF50F66ED950FD0FE96E02
:10106000FF0EDA20EA6EEF50F76ED950FE0FE96EF0
:10107000FF0EDA20EA6EEF50F86ED950FB0FE96EE2
:10108000FF0EDA20EA6EEF50EF0600090DE00900CE
:10109000F90EDBCFE9FFDB2AFA0EDBCFEAFF01E333
:1010A000DB2AF5CFEFFFE9D7E552E7CFD9FF1200F2
:1010B000D9CFE6FFE1CFD9FFD950FC0FE96EFF0E83
:1010C000DA20EA6EEF50F66ED950FD0FE96EFF0E92
:1010D000DA20EA6EEF50F76ED950FE0FE96EFF0E80
:1010E000DA20EA6EEF50F86E940EA66EF2CF8CF214
:1010F000F29EF29C550EA76EAA0EA76EA6828CC217
:10110000F2FF0A00D950FB0FE96EFF0EDA20EA6EFB
:10111000EF50EF06000926E0F90EDBCFE9FFDB2AEE
:10112000FA0EDBCFEAFF01E3DB2AEF50F56E0F008A
:101130001F0EF6141F0808E0D950FB0FE96EFF0ED2
:10114000DA20EA6EEF500DE1840EA66EF2CF8CF23B
:10115000F29EF29C550EA76EAA0EA76EA6828CC2B6
:10116000F2FFD0D7A694E552E7CFD9FF1200D9CF2E
:10117000E6FFE1CFD9FFE150FE0FE96EFF0EDA2066
:10118000EA6EEFCF80F2020180511CE1120EE66E92
:10119000000EE66E0E0EE66E400EE66EE66AE66A3B
:1011A00050DF4F6E060EE15E4F501250186E135016
:1011B000196E14501A6E15501B6E16501C6E175077
:1011C0001D6E8BD00201010E806F826B18C083F2FE
:1011D00019C084F21AC085F21BC086F21CC087F2C7
:1011E000850EE96E020EEA6ED890EF36010EEB36F0
:1011F000020EEB3684BF8581820EE96E020EEA6E26
:10120000D890EF36010EEB36020EEB36820EE96E09
:10121000020EEA6EEECF88F2EECF89F2EFCF8AF2BD
:101220008B6B526A18508827195089231A508A23C9
:1012300052508B23A90E88274B0E89237A0E8A23BE
:10124000000E8B23880EE96E020EEA6EEECF18F0C8
:10125000EECF19F0EFCF1AF08A0EE96E020EEA6EA9
:10126000EF50E66E880EE96E020EEA6EE552E75028
:10127000EF6E850EE96E020EEA6EEECF4FF0EECF06
:1012800050F0EFCF51F0526A4F50882750508923C9
:1012900051508A2352508B231BC04FF01CC050F07A
:1012A0001DC051F0526A1B5088271C5089231D50C5
:1012B0008A2352508B23A30E88270C0E89231B0EE2
:1012C0008A23000E8B23880EE96E020EEA6EEECFA3
:1012D0001BF0EECF1CF0EFCF1DF00201800508E0FF
:1012E0001E501F1005E000011E1C29E11F1C27E1F4
:1012F00018C01EF019C01FF019C04FF01AC050F0EE
:10130000040ED89050324F32E804FBE14F501E1AC1
:1013100050501F1A1B501E1A1C501F1A1CC04FF091
:101320001DC050F0040ED89050324F32E804FBE15B
:101330004F501E1A50501F1A0201010E806F0F0EDF
:101340001F160201816B0F0140B768D01EC000F06C
:101350001FC001F00C6A0201815116E1026A700E91
:10136000036E16C04FF017C050F0040ED8905032E4
:101370004F32E804FBE14F50021250500312B7EC19
:101380000EF00201010E49D0810512E1026A600EE1
:10139000036EFF0E15144F6E0F0E1614506E4F5045
:1013A000021250500312B7EC0EF00201020E35D0BB
:1013B000020E815D16E1026A500E036E13C04FF0FB
:1013C00014C050F0040ED89050324F32E804FBE1C4
:1013D0004F50021250500312B7EC0EF00201030EF0
:1013E0001CD0030E815D12E1026A400E036EFF0EF7
:1013F00012144F6E0F0E1314506E4F5002125050B5
:101400000312B7EC0EF00201040E07D0040E815D4A
:1014100005E107DE0201826B050E816FBDEC0EF067
:10142000000907E01E50001804E11F50011801E1F7
:10143000C9D6FEDD000901E186D70201822B825167
:10144000080801E380D780050FE1120EE66E000E5A
:10145000E66E0E0EE66E400EE66EE66AE66A28DE80
:101460004F6E060EE15E4F50026A070E036E1EC0FD
:1014700000F01FC001F00C6AB7EC0EF00009FCE0B0
:10148000010EE66E070EE66E06D8E552E552E5520D
:10149000E7CFD9FF1200D9CFE6FFE1CFD9FFE15066
:1014A000FD0FE96EFF0EDA20EA6EEECF02F0EDCF0F
:1014B00003F01EC000F01FC001F0060E0C6E1750A6
:1014C000046E1650056E1550066E1450076E1350BC
:1014D000086E1250096EB7EC0EF00009FCE0E55200
:1014E000E7CFD9FF1200D9CFE6FFE1CFD9FF1EC069
:1014F00000F01FC001F0E150FD0FE96EFF0EDA2091
:10150000EA6EEECF02F0EFCF03F0E00E0312010E11
:101510000C6E4C0E046EB7EC0EF00009FCE0E552C8
:10152000E7CFD9FF1200D9CFE6FFE1CFD9FF1EC028
:1015300000F01FC001F0E150FD0FE96EFF0EDA2050
:10154000EA6EEECF02F0EFCF03F0E00E0312030ECF
:101550000C6E4D0E046EE150FC0FE96EFF0EDA20AA
:10156000EA6EEF50056EE150FB0FE96EFF0EDA20D8
:10157000EA6EEF50066EB7EC0EF00009FCE0E552A3
:10158000E7CFD9FF1200D9CFE6FF0001300EA16FDF
:101590000E6AE150FE0FE96EFF0EDA20EA6EEF50A0
:1015A0000F6EE150FC0FE96EFF0EDA20EA6EEECF0F
:1015B00010F0EDCF11F0E552E7CFD9FF12000F5038
:1015C0000E5C70E2080E0F01401501E012001EC013
:1015D00000F01FC001F0026AC00E036E0E5003E15E
:1015E000026AB00E036E080E0C6E0E500F5C0808F7
:1015F0000CE30E500F5C0C6E0F50080803E3026AF8
:10160000A00E02D0026AD00E036E105002121150CA
:1016100003120E50EA6AA00FE96E000EEA22EF50A4
:10162000046E0E28EA6AA00FE96E000EEA22EF505F
:10163000056E020E0E24EA6AA00FE96E000EEA2281
:10164000EF50066E030E0E24EA6AA00FE96E000E3C
:10165000EA22EF50076E040E0E24EA6AA00FE96E2C
:10166000000EEA22EF50086E050E0E24EA6AA00F63
:10167000E96E000EEA22EF50096E060E0E24EA6AA9
:10168000A00FE96E000EEA22EF500A6E070E0E243C
:10169000EA6AA00FE96E000EEA22EF500B6E080E08
:1016A0000E2665DB120000C0E6FF01C0E6FF1BDF6F
:1016B000E552E55218EF00F012001F0E6F166F8E04
:1016C000E00E6F148008FCE1030E706EDE0E716E8A
:1016D000030E726E200E736E800E776E778A0D0188
:1016E000F86B606A0F01506B0E01206B306B406B22
:1016F000506B606B706B0F01186B1C6B080E196FD1
:101700001D6F1A6B1E6B1B6B1F6B0D01D469D569A6
:10171000D86BF06BF16BF26BF36B0F01016F056F20
:10172000096F0D6F116F156F0D01616F656F696F37
:10173000716F756F796F816F856F896F916F1F0EF4
:101740006F16E00E6F14FDE112000F0140B7000CA0
:10175000FC0E40170CC045FF03407F0B8009416F12
:10176000300E0214E8380F0B506EC00E0214E84021
:101770007F0B4F6E010E0314800DF3504F100809BC
:101780005010426F0F0E0214100D0F0E0114F310C3
:10179000436F00C044FF04C046FF05C047FF06C0BA
:1017A00048FF07C049FF08C04AFF09C04BFF0AC0F5
:1017B0004CFF0BC04DFF4087010C74AE000C070EB0
:1017C0006F14060A2AE0030A23E0010A1CE0070A54
:1017D00015E0010A0EE0030A07E0010A23E1020115
:1017E000600E8D6F0F0E22D00201500E8D6F0F0E06
:1017F0001DD00201200E8D6F0E0E18D00201300E8A
:101800008D6F0E0E13D00201400E8D6F0E0E0ED096
:101810000201500E8D6F0E0E09D00201600E8D6F09
:101820000E0E04D00201700E8D6F0E0E8E6F0D6ABB
:1018300074AC02D00D86749C010EEA6A8D25E96EA7
:101840008E51EA22EF50E824036E020EEA6A8D25DB
:10185000E96E8E51EA22EF50800BE844010B03122F
:10186000020EEA6A8D25E96E8E51EA22EF50600B76
:10187000E824026E020EEA6A8D25E96E8E51EA2294
:10188000EF50030B100DF3500212030EEA6A8D2580
:10189000E96E8E51EA22EF380F0B0212030EEA6A4C
:1018A0008D25E96E8E51EA22EF500F0B016E040E6A
:1018B000EA6A8D25E96E8E51EA22EF50006E050E20
:1018C000EA6A8D25E96E8E51EA22EF500F0B0C6EFD
:1018D0008C6B0C508C5D14E2060E8C25EA6A8D250B
:1018E000E96E8E51EA22EF50E66E8C51EA6A040FDF
:1018F000E96E000EEA22E552E750EF6E8C2BE9D735
:10190000A4AE02D00D88A49E8DC2E9FF8EC2EAFF6C
:10191000EF9EA492749E010C3A0E936E040E816E9B
:10192000BF0E946E220EAF6EB06A080EB86E240E13
:10193000AC6E900EAB6E81900201800E806F8007BE
:10194000FEE1206A1200D9CFE6FFE1CFD9FFE150D6
:10195000FE0FE96EFF0EDA20EA6EEF500F0B300F2C
:1019600002018C6FE850390802E2070E8C278CC206
:10197000E6FFDDD9E552E552E7CFD9FF1200D9CF16
:10198000E6FFE1CFD9FFE150FE0FE96EFF0EDA204E
:10199000EA6EEF380F0BE66ED6DFE552D950FE0F38
:1019A000E96EFF0EDA20EA6EEF50E66ECCDFE5520C
:1019B000E552E7CFD9FF1200D9CFE6FFE1CFD9FF3B
:1019C000D950FC0FE96EFF0EDA20EA6EEECFF6FF7B
:1019D000EECFF7FFEFCFF8FF0800F55016E0D95033
:1019E000FC0FE96EFF0EDA20EA6EEFCFF6FFEE2A6B
:1019F000EFCFF7FF000EEE22EFCFF8FFEE22080048
:101A0000F550E66E94D9E552DBD7E552E7CFD9FF22
:101A10001200D9CFE6FFE150FE0FE96EFF0EDA208B
:101A2000EA6EEFCF8EF2300E02018E5D06E38E512C
:101A3000390803E3300E8E5D15D0410E8E5D05E34F
:101A40008E51460802E3410E07D0610E8E5D07E31A
:101A50008E51660804E3610E8E5D0A0F03D0010EFD
:101A6000406E000EE552E7CFD9FF1200D9CFE6FF56
:101A7000E1CFD9FFE150FD0FE96EFF0EDA20EA6EEB
:101A8000EF50E66EC6DFE5524F6EE66ED950FE0FA0
:101A9000E96EFF0EDA20EA6EEF50E66EBADFE5522D
:101AA000E552E7CF4FF0100DF3504F10E552E7CF5E
:101AB000D9FF12003A0EE66E3AD9E552580EE66E9C
:101AC00036D9E552010EE66E3EDFE5520350E66E72
:101AD00056DFE5520250E66E52DFE5520150E66EE7
:101AE00032DFE5520050E66E4ADFE5524E0EE66EFA
:101AF0001ED9E55202018D6B0C508D5D0DE28D51AA
:101B0000EA6A040FE96E000EEA22EF50E66E37DF54
:101B1000E55202018D2BF0D73B0EE66E08D9E55257
:101B20000D0EE66E04D9E5520A0EE66E00D9E552B6
:101B3000010CE0D8000901E1000C3A0E3F5C02E123
:101B4000206A000C3B0E3F5C0EE01D0E205C01E3A2
:101B5000206A2050202AEA6A210FE96E000EEA224C
:101B60003FC0EFFF000C2050202AEA6A210FE96EE7
:101B7000000EEA223FC0EFFF406A580E215C03E0EE
:101B8000780E215C61E12250E66E43DFE552036E80
:101B90002450E66E2350E66E69DFE552E552036E8F
:101BA0002650E66E2550E66E61DFE552E552026E84
:101BB0002750E66E2EDFE552016E2950E66E285062
:101BC000E66E54DFE552E552006E40503DE14E0EA8
:101BD0002A5C03E06E0E2A5C37E102010A0E8D6F6B
:101BE0008C6B080E8C5D2BE28D51EA6A210FE96E39
:101BF000000EEA22EF503B0822E08D29EA6A210F0D
:101C0000E96E000EEA22EF50E66E8D51EA6A210F6E
:101C1000E96E000EEA22EF50E66E28DFE552E5524B
:101C2000E66E02018C51EA6A040FE96E000EEA22A8
:101C3000E552E750EF6E8C2B020E8D27D2D78CC267
:101C40000CF0206A40500FE0540E4F6E230E506E81
:101C5000516A4FC0E6FFE66E51C0E6FFADDEE552C9
:101C6000E552E552000C010CDACFE4FFE652E552F2
:101C7000E5CFDAFF1100D8CFE4FFE0CFE4FFE46E58
:101C8000DACFE4FFE9CFE4FFEACFE4FFE6529EAA11
:101C900014D04D504D2AEA6A000FE96E020EEA2276
:101CA000AECFEFFF4D9EABB2AB984D504E5C7F0B6D
:101CB000576E0A0E575C01E281809EA80ED04C50F0
:101CC0004B5C02E19D9809D04C504C2AEA6A000F07
:101CD000E96E010EEA22EF50AD6EE552E5CFEAFF64
:101CE000E5CFE9FFE5CFDAFFE550E5CFE0FFE5CF4F
:101CF000D8FF10009D9A4E504D5C03E102018E6B9F
:101D000013D04E504E2AEA6A000FE96E020EEA2204
:101D1000EF503F6E4E9E0201010E8E6F4D504E5C95
:101D20007F0B140801E281909D8A8E511200D9CF59
:101D3000E6FF9D98E150FE0FE96EFF0EDA20EA6E95
:101D4000EF50E66E4B504B2AEA6A000FE96E010E27
:101D5000EA22E552E750EF6E4C504B5C02E14B0437
:101D60004B6E9D88010EE552E7CFD9FF1200EDDCE6
:101D7000000901E1000C9EDE010C1FDD000902E0FC
:101D800099DE010CD6DE000904E0DFDC0009FDE08D
:101D9000010C000C1E50001802E11F50011816E142
:101DA0000350800B0DE11EC000F01FC001F0026A5D
:101DB000070E036E0C6ADBDF000901E1FCD705D0DA
:101DC000010EE66EB7EC08F0E55264D1A70E0218DA
:101DD00002E1880E031809E1B70EE66E880EE66E82
:101DE0004BEC0AF0E552E55255D1DF0E021802E144
:101DF0008A0E031803E1010E4A6E4CD11E504F6E3D
:101E0000B00E1F10506E4F50021802E150500318D0
:101E100022E01E50516EC00E1F10526E515002181B
:101E200002E15250031817E01E50536ED00E1F10DF
:101E3000546E5350021802E1545003180CE01E5027
:101E4000556EA00E1F10566E5550021802E15650E6
:101E5000031801E01FD1010E4A6EF00E03144F6EFD
:101E6000506AB00E4F1801E1505009E0F00E031413
:101E7000516E526AA00E511801E1525006E1476AB4
:101E800000C048F001C049F014D00050481802E1E9
:101E9000015049180EE0000EE66EE66A00C0E6FF4B
:101EA00001C0E6FF93EC0AF0E552E552E552E55237
:101EB000F1D0416A0C50415C17E2480E475C14E2D5
:101EC0004150EA6A040FE96E000EEA22EF50E66E16
:101ED0004750472AEA6AA00FE96E000EEA22E5524F
:101EE000E750EF6E412AE6D7F00E03144F6E506AAA
:101EF000D00E4F1801E150500AE0F00E0314516E5D
:101F0000526AA00E511801E1525001E0C3D0486856
:101F10004968476A200E0001A05D01E0AED0EA0EDC
:101F2000E96E000EEA6EA3C0EFFFE90EE96E000E47
:101F3000EA6EA4C0EFFFE80EE96E000EEA6EA5C0DF
:101F4000EFFFFB0E0001A65D09E10001FE0EA66F8A
:101F5000E80EE96E000EEA6E800EEF6E200E0001B4
:101F6000A15D20E1FE0E0001A65D1BE1A70EE66E5D
:101F7000000EE66E400EE66EE8C0E6FFE9C0E6FF42
:101F8000EAC0E6FF58EC08F04F6E060EE15E4F50D7
:101F900000C0E6FF01C0E6FF73EC0AF0E552E5522F
:101FA00079D06BD0600E0001A15D59E1FF0E0001F8
:101FB000A65D2FE1EC0E4F6E210E506E516A4F5010
:101FC0000001E82750500001E92351500001EA23A5
:101FD000A7C041F0A70EE66E000EE66E4150E66E19
:101FE000E8C0E6FFE9C0E6FFEAC0E6FF21EC08F042
:101FF0004F6E060EE15E4F5000C0E6FF01C0E6FFE7
:10200000070E4124E66EC3EC0AF0E552E552E552B4
:1020100041D0FE0E0001A65D21E1A7C041F0A70E50
:10202000E66E000EE66E4150E66EE8C0E6FFE9C0DF
:10203000E6FFEAC0E6FF21EC08F04F6E060EE15E17
:102040004F5000C0E6FF01C0E6FF070E4124E66ED8
:10205000C3EC0AF0E552E552E5521CD00ED0A50EB5
:10206000055C04E1FF0000EF00F007D0A70E055C5F
:1020700004E1F29EF29C53EC0BF00550E66EE66A2A
:1020800000C0E6FF01C0E6FF93EC0AF0E552E5521E
:10209000E552E55212000F0EC16E200E926E3CDC2E
:1020A0005DEC0BF0D08E9F6AA26AA56A9D8AF28CC5
:1020B000F28E818E819CE66AB7EC08F0E5524A0EFA
:1020C0004F6E230E506E516A4FC0E6FFE66E51C050
:1020D000E6FF72DCE552E552E552206A476A48683D
:1020E0004968870EE66E800EE66E4BEC0AF0E5520C
:1020F000E55218EC08F0000906E04A5002E0818C35
:1021000001D0819C4A6ADFEC0AF037DE000921E049
:102110000DA60ED0310E4F6E230E506E516A4FC079
:10212000E6FFE66E51C0E6FF47DCE552E552E552B8
:102130000DA80ED0180E4F6E230E506E516A4FC070
:10214000E6FFE66E51C0E6FF37DCE552E552E552A8
:1021500021DE4550765C23E07650456E080E4F6ECA
:10216000230E506E516A4FC0E6FFE66E51C0E6FF87
:1021700023DCE552E552E5527650E66EBFEC0CF0FA
:10218000E552040E4F6E230E506E516A4FC0E6FFAB
:10219000E66E51C0E6FF10DCE552E552E5524650CE
:1021A000755CA7E07550466EF40E4F6E220E506EB1
:1021B000516A4FC0E6FFE66E51C0E6FFDCEC0CF062
:1021C000E552E552E5527550E66EBFEC0CF0E55273
:1021D000040E4F6E230E506E516A4FC0E6FFE66E3E
:0C21E00051C0E6FFDCEC0CF0E55281D7AA
:0421EC003C63646983
:1021F0003E3C69643E3C736F6674776172653E4F26
:1022000070656E4C4342205049432043414E525327
:10221000204A756E20303220323031322031373A48
:1022200034353A35353C2F736F6674776172653E8D
:102230003C2F69643E3C7365206E613D224E616DAA
:1022400065222073703D22234642222062753D2282
:1022500023313033223E3C6368206E613D224E6163
:102260006D65222073693D223634222F3E3C2F7348
:10227000653E3C7365206E613D224E6F646520496A
:102280006422206F723D222330303430222073705C
:102290003D22234645222062753D222331343322DC
:1022A0003E3C696E206E613D2253657269616C220D
:1022B0002073693D2231222F3E3C696E206E613DC4
:1022C000224D656D626572222073693D2233222F93
:1022D0003E3C6279206E613D2247726F757022200C
:1022E00073693D2232222F3E3C2F73653E3C2F63A3
:0422F00064693E00DF
:0C22F4002D4543414E20525845525243A4
:102300004E5420002D0D0A002D4543414E205458B7
:10231000455252434E5420002D4543414E20496EB4
:1023200076616C6964206D6573736167652D0D0A54
:10233000002D4543414E20427566666572206F76DA
:102340006572666C6F772D0D0A000D0A5374617209
:0D235000740D0A00204572726F720D0A00B4
:02235E00000E6F
:10236000F36E00EE00F0030E01D81200EA6002D016
:0E237000EE6AFCD7F350E9601200EE6AFCD76B
:020000040030CA
:0100010046B8
:0100020006F7
:010003001AE2
:01000500807A
:010006008178
:010008000FE8
:01000900C036
:01000A000FE6
:01000B00E014
:01000C000FE4
:01000D0040B2
:00000001FF
OpenLCB for CBUS-PIC CANRS232 02 June 2012 17:45:57
