:020000040000FA
:060000000BEF07F01200F7
:0800080007ED00F012000600F4
:0600100004EF08F01200ED
:060018000CEF08F01200DD
:02002A000000D4
:0600300008EF07F01200CA
:10004000020000000000FFFFFFFFFFFFFFFFFFFFB8
:10005000FFFFFFFFFFFFFFFFFFFFFFFFFFFFFFFFB0
:10006000FFFFFFFFFFFFFFFFFFFFFFFFFFFFFFFFA0
:10007000FFFFFFFFFFFFFFFFFFFFFFFFFFFFFFFF90
:100080004C6F636174696F6E206E6F742079657454
:1000900020646566696E6564000000000000000071
:1000A0000000000000000000000000000000000050
:1000B0000000000000000000000000000000000040
:1000C0003C6364693E3C69643E3C6C6F616465728C
:1000D0003E4F70656E4C4342205049432043414E91
:1000E00020426F6F74204C6F61646572204A756C9A
:1000F00020323620323031312032333A33313A3007
:10010000323C2F6C6F616465723E3C2F69643E3CEB
:100110007365206E613D224C6F6322206F723D2219
:100120002330303430222073703D22234645222074
:1001300062753D2223313433223E3C6279206E6168
:100140003D224E6F6465204964222073693D22364A
:10015000222F3E3C62792073693D223538222F3EA2
:100160003C6368206E613D224C6F63222073693DC1
:10017000223634222F3E3C2F73653E3C2F63646948
:020180003E003F
:0E018200310EB16ECF0EB36E2C0EB26E1200A7
:10019000A1A206D0CF0EB36E2C0EB26EA192010CAE
:1001A000000CD9CFE6FFE1CFD9FFD950FC0FE96EA3
:1001B000FF0EDA20EA6EEF50F66ED950FD0FE96EB1
:1001C000FF0EDA20EA6EEF50F76ED950FE0FE96E9F
:1001D000FF0EDA20EA6EEF50F86ED950FB0FE96E91
:1001E000FF0EDA20EA6EEF50EF0600090DE009007D
:1001F000F90EDBCFE9FFDB2AFA0EDBCFEAFF01E3E2
:10020000DB2AF5CFEFFFE9D7E552E7CFD9FF1200A0
:10021000D9CFE6FFE1CFD9FFD950FC0FE96EFF0E31
:10022000DA20EA6EEF50F66ED950FD0FE96EFF0E40
:10023000DA20EA6EEF50F76ED950FE0FE96EFF0E2E
:10024000DA20EA6EEF50F86E940EA66EF2CF0CF242
:10025000F29EF29C550EA76EAA0EA76EA6820CC245
:10026000F2FF0A00D950FB0FE96EFF0EDA20EA6EAA
:10027000EF50EF06000926E0F90EDBCFE9FFDB2A9D
:10028000FA0EDBCFEAFF01E3DB2AEF50F56E0F0039
:10029000070EF614070808E0D950FB0FE96EFF0EB1
:1002A000DA20EA6EEF500DE1840EA66EF2CF0CF26A
:1002B000F29EF29C550EA76EAA0EA76EA6820CC2E5
:1002C000F2FFD0D7A694E552E7CFD9FF1200D9CFDD
:1002D000E6FFE1CFD9FFE150FE0FE96EFF0EDA2015
:1002E000EA6EEFCF00F2020100511CE1120EE66E41
:1002F000000EE66E0E0EE66E400EE66EE66AE66AEA
:1003000050DF256E060EE15E25501250186E135018
:10031000196E14501A6E15501B6E16501C6E175025
:100320001D6E8BD00201010E006F026B18C003F22C
:1003300019C004F21AC005F21BC006F21CC007F275
:10034000050EE96E020EEA6ED890EF36010EEB361E
:10035000020EEB3604BF0581020EE96E020EEA6E54
:10036000D890EF36010EEB36020EEB36020EE96E38
:10037000020EEA6EEECF08F2EECF09F2EFCF0AF2EC
:100380000B6B286A18500827195009231A500A23A2
:1003900028500B23A90E08274B0E09237A0E0A2397
:1003A000000E0B23080EE96E020EEA6EEECF18F077
:1003B000EECF19F0EFCF1AF00A0EE96E020EEA6ED8
:1003C000EF50E66E080EE96E020EEA6EE552E75057
:1003D000EF6E050EE96E020EEA6EEECF25F0EECF5F
:1003E00026F0EFCF27F0286A25500827265009234A
:1003F00027500A2328500B231BC025F01CC026F0D1
:100400001DC027F0286A1B5008271C5009231D50C7
:100410000A2328500B23A30E08270C0E09231B0EBA
:100420000A23000E0B23080EE96E020EEA6EEECFD1
:100430001BF0EECF1CF0EFCF1DF00201000508E02D
:100440001E501F1005E000011E1C29E11F1C27E1A2
:1004500018C01EF019C01FF019C025F01AC026F0F0
:10046000040ED89026322532E804FBE125501E1AEE
:1004700026501F1A1B501E1A1C501F1A1CC025F094
:100480001DC026F0040ED89026322532E804FBE188
:1004900025501E1A26501F1A0201010E006F0F0E62
:1004A0001F160201016B0F0140B764D01EC000F09F
:1004B0001FC001F00C6A0201015115E1026A700EC1
:1004C000036E16C025F017C026F0040ED890263211
:1004D0002532E804FBE125500212265003120CDB02
:1004E0000201010E46D0010511E1026A600E036EA1
:1004F000FF0E1514256E0F0E1614266E25500212CF
:1005000026500312F9DA0201020E33D0020E015D09
:1005100015E1026A500E036E13C025F014C026F0D8
:10052000040ED89026322532E804FBE12550021251
:1005300026500312E1DA0201030E1BD0030E015D07
:1005400011E1026A400E036EFF0E1214256E0F0EAB
:100550001314266E2550021226500312CDDA020122
:10056000040E07D0040E015D05E10BDE0201026BF3
:10057000050E016FC3DA000907E01E50001804E100
:100580001F50011801E1CED603DE00098CE0020104
:10059000022B0251060801E386D700050FE1120E77
:1005A000E66E000EE66E0E0EE66E400EE66EE66A33
:1005B000E66A2EDE256E060EE15E2550026A070E03
:1005C000036E1EC000F01FC001F00C6A95DA00092E
:1005D000FDE0010EE66E070EE66E06D8E552E55226
:1005E000E552E7CFD9FF1200D9CFE6FFE1CFD9FF1F
:1005F000E150FD0FE96EFF0EDA20EA6EEECF02F059
:10060000EDCF03F01EC000F01FC001F0060E0C6E0F
:100610001750046E1650056E1550066E1450076E76
:100620001350086E1250096E67DA0009FDE0E552BA
:10063000E7CFD9FF1200D9CFE6FFE1CFD9FF1EC027
:1006400000F01FC001F0E150FD0FE96EFF0EDA204F
:10065000EA6EEECF02F0EFCF03F0E00E0312010ED0
:100660000C6E4C0E046E48DA0009FDE0E552E7CF4F
:10067000D9FF1200D9CFE6FFE1CFD9FF1EC000F0AD
:100680001FC001F0E150FD0FE96EFF0EDA20EA6EA7
:10069000EECF02F0EFCF03F0E00E0312030E0C6E6C
:1006A0004D0E046EE150FC0FE96EFF0EDA20EA6E8B
:1006B000EF50056EE150FB0FE96EFF0EDA20EA6E97
:1006C000EF50066E19DA0009FDE0E552E7CFD9FFD9
:1006D0001200D9CFE6FF0001300EA16F0E6AE15083
:1006E000FE0FE96EFF0EDA20EA6EEF500F6EE1505A
:1006F000FC0FE96EFF0EDA20EA6EEECF10F0EDCFC0
:1007000011F0E552E7CFD9FF12000F500E5C6FE2F7
:10071000080E0F01401504E0080E301501E012002C
:100720001EC000F01FC001F01050026EC00E11106C
:10073000036E080E0C6E0E500F5C08080FE30E508F
:100740000F5C0C6E0F50080804E31050026EE00EB0
:1007500003D01050026ED00E1110036E0E50EA6AD4
:10076000A00FE96E000EEA22EF50046E0E28EA6A2E
:10077000A00FE96E000EEA22EF50056E020E0E2465
:10078000EA6AA00FE96E000EEA22EF50066E030E31
:100790000E24EA6AA00FE96E000EEA22EF50076EFF
:1007A000040E0E24EA6AA00FE96E000EEA22EF5052
:1007B000086E050E0E24EA6AA00FE96E000EEA220A
:1007C000EF50096E060E0E24EA6AA00FE96E000EC5
:1007D000EA22EF500A6E070E0E24EA6AA00FE96EB5
:1007E000000EEA22EF500B6E080E0E2685D912007D
:1007F00000C0E6FF01C0E6FF1EDFE552E55218EF3C
:1008000000F012001F0E6F166F8EE00E6F1480083E
:10081000FCE1030E706EDE0E716E030E726E200E22
:10082000736E800E776E778A0D01F86B606A0F0128
:10083000506B0E01206B306B406B506B606B706BBC
:100840000F01186B1C6B080E196F1D6F1A6B1E6B56
:100850001B6B1F6B0D01D469D569D86BF06BF16B05
:10086000F26BF36B0F01016F056F096F0D6F116F65
:10087000156F0D01616F656F696F716F756F796FBE
:10088000816F856F896F916F1F0E6F16E00E6F1469
:10089000FDE112000201400E0C6F0F0E0D6F0CC235
:1008A000E9FFEA6EEF50080B0BE0300E0C6F0F0EF5
:1008B0000D6F0CC2E9FFEA6EEF50080B01E0000C6F
:1008C000FC0E0CC2E9FF0DC2EAFFE850EF16050E60
:1008D000EA6A0C25E96E0D51EA220CC0EFFF0340D5
:1008E0007F0B8009E66E010EEA6A0C25E96E0D5158
:1008F000EA22E552E750EF6E300E0214E8380F0B93
:10090000266EC00E0214E8407F0B256E010E031404
:10091000800DF350251008092610E66E020EEA6AD3
:100920000C25E96E0D51EA22E552E750EF6E0F0EED
:100930000214100D0F0E0114F310E66E030EEA6A96
:100940000C25E96E0D51EA22E552E750EF6E040ED8
:10095000EA6A0C25E96E0D51EA2200C0EFFF0E6B2A
:100960000C500E5D14E20E51EA6A040FE96E000E9F
:10097000EA22EF50E66E060E0E25EA6A0C25E96EB5
:100980000D51EA22E552E750EF6E0E2BE9D70CC26B
:10099000E9FF0DC2EAFFEF86010C74AE000C070EF2
:1009A0006F14060A2AE0030A23E0010A1CE0070A82
:1009B00015E0010A0EE0030A07E0010A23E1020143
:1009C000600E0D6F0F0E22D00201500E0D6F0F0E34
:1009D0001DD00201200E0D6F0E0E18D00201300E38
:1009E0000D6F0E0E13D00201400E0D6F0E0E0ED0C5
:1009F0000201500E0D6F0E0E09D00201600E0D6F38
:100A00000E0E04D00201700E0D6F0E0E0E6F0D6AE9
:100A100074AC02D00D86749C010EEA6A0D25E96E55
:100A20000E51EA22EF50E824036E020EEA6A0D2509
:100A3000E96E0E51EA22EF50800BE844010B0312DD
:100A4000020EEA6A0D25E96E0E51EA22EF50600BA4
:100A5000E824026E020EEA6A0D25E96E0E51EA22C2
:100A6000EF50030B100DF3500212030EEA6A0D252E
:100A7000E96E0E51EA22EF380F0B0212030EEA6AFA
:100A80000D25E96E0E51EA22EF500F0B016E040E98
:100A9000EA6A0D25E96E0E51EA22EF50006E050E4E
:100AA000EA6A0D25E96E0E51EA22EF500F0B0C6E2B
:100AB0000C6B0C500C5D14E2060E0C25EA6A0D2539
:100AC000E96E0E51EA22EF50E66E0C51EA6A040F0D
:100AD000E96E000EEA22E552E750EF6E0C2BE9D7E3
:100AE000A4AE02D00D88A49E0DC2E9FF0EC2EAFF9B
:100AF000EF9EA492749E010C4AEF04F0CDEF04F037
:100B00001E50001802E11F50011816E10350800B1F
:100B10000DE11EC000F01FC001F0026A070E036E57
:100B20000C6AEADF000901E1FCD705D0010EE66E90
:100B300067EC01F0E5524BD1AF0E021802E1800ED6
:100B4000031808E1BF0EE66E900EE66E4DDDE5522D
:100B5000E5523DD1FF0E0214256ECF0E0314266E12
:100B60001E50276EC00E1F10286E2750251802E158
:100B70002850261801E02BD10001211C01E1221C84
:100B800005E100C021F001C022F013D0005021186F
:100B900002E1015022180DE0000EE66EE66A00C088
:100BA000E6FF01C0E6FF66DDE552E552E552E5529B
:100BB0000ED102010F6B0C5002010F5D19E2480EBD
:100BC000205C16E202010F51EA6A040FE96E000E82
:100BD000EA22EF50E66E2050202AEA6AA00FE96E62
:100BE000000EEA22E552E750EF6E02010F2BE3D729
:100BF000000E0214256EF00E0314266E255002E13D
:100C0000D00E26180CE0000E0214276EF00E03140E
:100C1000286E275002E1E00E281801E0D8D02168A4
:100C20002268206A200E0001A05D01E0C4D0EA0E17
:100C3000E96E000EEA6EA3C0EFFFE90EE96E000E4A
:100C4000EA6EA4C0EFFFE80EE96E000EEA6EA5C0E2
:100C5000EFFF200E0001A15D1FE1FE0E0001A65D69
:100C60001AE1A70EE66E000EE66E400EE66EE8C0D4
:100C7000E6FFE9C0E6FFEAC0E6FF08EC01F0256EFA
:100C8000060EE15E255000C0E6FF01C0E6FFD3DCA2
:100C9000E552E5529CD08FD0600E0001A15D59E174
:100CA000FF0E0001A65D2FE1C00E256E000E266E20
:100CB000276A25500001E82726500001E923275024
:100CC0000001EA23A7C00FF2A70EE66E000EE66E43
:100CD0000FC2E6FFE8C0E6FFE9C0E6FFEAC0E6FFB4
:100CE000D1EC00F0256E060EE15E255000C0E6FF57
:100CF00001C0E6FF070E02010F25E66EEADCE552B1
:100D0000E552E55264D0FE0E0001A65D21E1A7C0C8
:100D10000FF2A70EE66E000EE66E0FC2E6FFE8C009
:100D2000E6FFE9C0E6FFEAC0E6FFD1EC00F0256E81
:100D3000060EE15E255000C0E6FF01C0E6FF070E8B
:100D400002010F25E66EC5DCE552E552E5523FD0C3
:100D500032D0A40E055C29E1A00EE66E000EE66E10
:100D6000400EE66EE66A100EE66EE66AD1EC00F022
:100D7000256E060EE15E25500001C05112E0000113
:100D8000C06BA00EE66E000EE66E400EE66EE66AE2
:100D9000100EE66EE66A08EC01F0256E060EE15EC6
:100DA0002550FF0000EF00F006D0A50E055C03E122
:100DB000FF0000EF00F0000EE66EE66A00C0E6FFFE
:100DC00001C0E6FF57DCE552E552E552E55212005C
:100DD0008F0EE66E900EE66EF4EC02F0E552E552F0
:100DE000206A2168226891DC89DE0009FCE088DE47
:100DF000FAD70F0EC16E3C0E926E3B0E936E040E30
:100E0000816E9468F16A236A246A818C818E120053
:100E1000F0DFE8EF06F010EE60F020EE60F024EC7A
:100E200007F0200EF66E100EF76EF86A0800F55007
:100E300002E100EF08F0DDDFE5DCE66A67EC01F0D7
:080E4000E552C6DFFED71200E7
:080E4800000EF36E00EE00F055
:100E5000030E01D81200EA6002D0EE6AFCD7F3500C
:080E6000E9601200EE6AFCD704
:06100000CCEF0EF012001F
:021006000000E8
:0810080007ED08F012000600DC
:06101000CCEF0CF0120011
:06101800D3EF0CF0120002
:0110200000CF
:0E102200310EB16ECF0EB36E2C0EB26E1200F8
:10103000A1A206D0CF0EB36E2C0EB26EA192010CFF
:10104000000CD9CFE6FFE1CFD9FFD950FC0FE96EF4
:10105000FF0EDA20EA6EEF50F66ED950FD0FE96E02
:10106000FF0EDA20EA6EEF50F76ED950FE0FE96EF0
:10107000FF0EDA20EA6EEF50F86ED950FB0FE96EE2
:10108000FF0EDA20EA6EEF50EF0600090DE00900CE
:10109000F90EDBCFE9FFDB2AFA0EDBCFEAFF01E333
:1010A000DB2AF5CFEFFFE9D7E552E7CFD9FF1200F2
:1010B000D9CFE6FFE1CFD9FFD950FC0FE96EFF0E83
:1010C000DA20EA6EEF50F66ED950FD0FE96EFF0E92
:1010D000DA20EA6EEF50F76ED950FE0FE96EFF0E80
:1010E000DA20EA6EEF50F86E940EA66EF2CF0CF195
:1010F000F29EF29C550EA76EAA0EA76EA6820CC198
:10110000F2FF0A00D950FB0FE96EFF0EDA20EA6EFB
:10111000EF50EF06000926E0F90EDBCFE9FFDB2AEE
:10112000FA0EDBCFEAFF01E3DB2AEF50F56E0F008A
:10113000070EF614070808E0D950FB0FE96EFF0E02
:10114000DA20EA6EEF500DE1840EA66EF2CF0CF1BC
:10115000F29EF29C550EA76EAA0EA76EA6820CC137
:10116000F2FFD0D7A694E552E7CFD9FF1200D9CF2E
:10117000E6FFE1CFD9FFE150FE0FE96EFF0EDA2066
:10118000EA6EEFCF00F1010100511CE1120EE66E94
:10119000000EE66E0E0EE66E400EE66EE66AE66A3B
:1011A00050DF496E060EE15E49501250186E135022
:1011B000196E14501A6E15501B6E16501C6E175077
:1011C0001D6E8BD00101010E006F026B18C003F180
:1011D00019C004F11AC005F11BC006F11CC007F1CB
:1011E000050EE96E010EEA6ED890EF36010EEB3671
:1011F000020EEB3604BF0581020EE96E010EEA6EA7
:10120000D890EF36010EEB36020EEB36020EE96E89
:10121000010EEA6EEECF08F1EECF09F1EFCF0AF141
:101220000B6B4C6A18500827195009231A500A23CF
:101230004C500B23A90E08274B0E09237A0E0A23C4
:10124000000E0B23080EE96E010EEA6EEECF18F0C9
:10125000EECF19F0EFCF1AF00A0EE96E010EEA6E2A
:10126000EF50E66E080EE96E010EEA6EE552E750A9
:10127000EF6E050EE96E010EEA6EEECF49F0EECF8D
:101280004AF0EFCF4BF04C6A495008274A500923E7
:101290004B500A234C500B231BC049F01CC04AF092
:1012A0001DC04BF04C6A1B5008271C5009231D50D1
:1012B0000A234C500B23A30E08270C0E09231B0EE8
:1012C0000A23000E0B23080EE96E010EEA6EEECF24
:1012D0001BF0EECF1CF0EFCF1DF00101000508E080
:1012E0001E501F1005E000011E1C29E11F1C27E1F4
:1012F00018C01EF019C01FF019C049F01AC04AF0FA
:10130000040ED8904A324932E804FBE149501E1AD3
:101310004A501F1A1B501E1A1C501F1A1CC049F09D
:101320001DC04AF0040ED8904A324932E804FBE16D
:1013300049501E1A4A501F1A0101010E006F0F0E6C
:101340001F160101016B0F0140B764D01EC000F0F1
:101350001FC001F00C6A0101015115E1026A700E13
:10136000036E16C049F017C04AF0040ED8904A32F6
:101370004932E804FBE1495002124A500312A2DB51
:101380000101010E46D0010511E1026A600E036EF3
:10139000FF0E1514496E0F0E16144A6E49500212B4
:1013A0004A5003128FDB0101020E33D0020E015DA1
:1013B00015E1026A500E036E13C049F014C04AF0E2
:1013C000040ED8904A324932E804FBE14950021237
:1013D0004A50031277DB0101030E1BD0030E015D9F
:1013E00011E1026A400E036EFF0E1214496E0F0ED9
:1013F00013144A6E495002124A50031263DB010172
:10140000040E07D0040E015D05E10BDE0101026B45
:10141000050E016F59DB000907E01E50001804E1BA
:101420001F50011801E1CED603DE00098CE0010156
:10143000022B0251060801E386D700050FE1120EC8
:10144000E66E000EE66E0E0EE66E400EE66EE66A84
:10145000E66A2EDE496E060EE15E4950026A070E0C
:10146000036E1EC000F01FC001F00C6A2BDB0009E8
:10147000FDE0010EE66E070EE66E06D8E552E55277
:10148000E552E7CFD9FF1200D9CFE6FFE1CFD9FF70
:10149000E150FD0FE96EFF0EDA20EA6EEECF02F0AA
:1014A000EDCF03F01EC000F01FC001F0060E0C6E61
:1014B0001750046E1650056E1550066E1450076EC8
:1014C0001350086E1250096EFDDA0009FDE0E55276
:1014D000E7CFD9FF1200D9CFE6FFE1CFD9FF1EC079
:1014E00000F01FC001F0E150FD0FE96EFF0EDA20A1
:1014F000EA6EEECF02F0EFCF03F0E00E0312010E22
:101500000C6E4C0E046EDEDA0009FDE0E552E7CF0A
:10151000D9FF1200D9CFE6FFE1CFD9FF1EC000F0FE
:101520001FC001F0E150FD0FE96EFF0EDA20EA6EF8
:10153000EECF02F0EFCF03F0E00E0312030E0C6EBD
:101540004D0E046EE150FC0FE96EFF0EDA20EA6EDC
:10155000EF50056EE150FB0FE96EFF0EDA20EA6EE8
:10156000EF50066EAFDA0009FDE0E552E7CFD9FF94
:101570001200D9CFE6FF0001300EA16F0E6AE150D4
:10158000FE0FE96EFF0EDA20EA6EEF500F6EE150AB
:10159000FC0FE96EFF0EDA20EA6EEECF10F0EDCF11
:1015A00011F0E552E7CFD9FF12000F500E5C6FE249
:1015B000080E0F01401504E0080E301501E012007E
:1015C0001EC000F01FC001F01050026EC00E1110BE
:1015D000036E080E0C6E0E500F5C08080FE30E50E1
:1015E0000F5C0C6E0F50080804E31050026EE00E02
:1015F00003D01050026ED00E1110036E0E50EA6A26
:10160000A00FE96E000EEA22EF50046E0E28EA6A7F
:10161000A00FE96E000EEA22EF50056E020E0E24B6
:10162000EA6AA00FE96E000EEA22EF50066E030E82
:101630000E24EA6AA00FE96E000EEA22EF50076E50
:10164000040E0E24EA6AA00FE96E000EEA22EF50A3
:10165000086E050E0E24EA6AA00FE96E000EEA225B
:10166000EF50096E060E0E24EA6AA00FE96E000E16
:10167000EA22EF500A6E070E0E24EA6AA00FE96E06
:10168000000EEA22EF500B6E080E0E261BDA120037
:1016900000C0E6FF01C0E6FF1EDFE552E55218EF8D
:1016A00000F012001F0E6F166F8EE00E6F14800890
:1016B000FCE1030E706EDE0E716E030E726E200E74
:1016C000736E800E776E778A0D01F86B606A0F017A
:1016D000506B0E01206B306B406B506B606B706B0E
:1016E0000F01186B1C6B080E196F1D6F1A6B1E6BA8
:1016F0001B6B1F6B0D01D469D569D86BF06BF16B57
:10170000F26BF36B0F01016F056F096F0D6F116FB6
:10171000156F0D01616F656F696F716F756F796F0F
:10172000816F856F896F916F1F0E6F16E00E6F14BA
:10173000FDE112000101400E0C6F0F0E0D6F0CC188
:10174000E9FFEA6EEF50080B0BE0300E0C6F0F0E46
:101750000D6F0CC1E9FFEA6EEF50080B01E0000CC1
:10176000FC0E0CC1E9FF0DC1EAFFE850EF16050EB3
:10177000EA6A0C25E96E0D51EA220CC0EFFF034026
:101780007F0B8009E66E010EEA6A0C25E96E0D51A9
:10179000EA22E552E750EF6E300E0214E8380F0BE4
:1017A0004A6EC00E0214E8407F0B496E010E03140E
:1017B000800DF350491008094A10E66E020EEA6ADD
:1017C0000C25E96E0D51EA22E552E750EF6E0F0E3F
:1017D0000214100D0F0E0114F310E66E030EEA6AE8
:1017E0000C25E96E0D51EA22E552E750EF6E040E2A
:1017F000EA6A0C25E96E0D51EA2200C0EFFF0E6B7C
:101800000C500E5D14E20E51EA6A040FE96E000EF0
:10181000EA22EF50E66E060E0E25EA6A0C25E96E06
:101820000D51EA22E552E750EF6E0E2BE9D70CC1BD
:10183000E9FF0DC1EAFFEF86010C74AE000C070E44
:101840006F14060A2AE0030A23E0010A1CE0070AD3
:1018500015E0010A0EE0030A07E0010A23E1010195
:10186000600E0D6F0F0E22D00101500E0D6F0F0E86
:101870001DD00101200E0D6F0E0E18D00101300E8B
:101880000D6F0E0E13D00101400E0D6F0E0E0ED017
:101890000101500E0D6F0E0E09D00101600E0D6F8B
:1018A0000E0E04D00101700E0D6F0E0E0E6F0D6A3C
:1018B00074AC02D00D86749C010EEA6A0D25E96EA7
:1018C0000E51EA22EF50E824036E020EEA6A0D255B
:1018D000E96E0E51EA22EF50800BE844010B03122F
:1018E000020EEA6A0D25E96E0E51EA22EF50600BF6
:1018F000E824026E020EEA6A0D25E96E0E51EA2214
:10190000EF50030B100DF3500212030EEA6A0D257F
:10191000E96E0E51EA22EF380F0B0212030EEA6A4B
:101920000D25E96E0E51EA22EF500F0B016E040EE9
:10193000EA6A0D25E96E0E51EA22EF50006E050E9F
:10194000EA6A0D25E96E0E51EA22EF500F0B0C6E7C
:101950000C6B0C500C5D14E2060E0C25EA6A0D258A
:10196000E96E0E51EA22EF50E66E0C51EA6A040F5E
:10197000E96E000EEA22E552E750EF6E0C2BE9D734
:10198000A4AE02D00D88A49E0DC1E9FF0EC1EAFFEE
:10199000EF9EA492749E010CDACFE4FFE652E5526A
:1019A000E5CFDAFF1100D8CFE4FFE0CFE4FFE46E2B
:1019B000DACFE4FFE9CFE4FFEACFE4FFE6529EAAE4
:1019C0000CD04650462AEA6A000FE96E020EEA225F
:1019D000AECFEFFF469EABB2AB98E552E5CFEAFF44
:1019E000E5CFE9FFE5CFDAFFE550E5CFE0FFE5CF52
:1019F000D8FF10009D9A4750465C03E10101006B3F
:101A00000DD04750472AEA6A000FE96E020EEA221B
:101A1000EF50486E479E0101010E006F9D8A0051F4
:101A20001200D9CFE6FFE150FE0FE96EFF0EDA207B
:101A3000EA6EEFCF00F1300E0101005D06E30051C8
:101A4000390803E3300E005D15D0410E005D05E35B
:101A50000051460802E3410E07D0610E005D07E326
:101A60000051660804E3610E005D0A0F03D0010E09
:101A7000256E000EE552E7CFD9FF1200D9CFE6FF61
:101A8000E1CFD9FFE150FD0FE96EFF0EDA20EA6EDB
:101A9000EF50E66EC6DFE552496EE66ED950FE0F96
:101AA000E96EFF0EDA20EA6EEF50E66EBADFE5521D
:101AB000E552E7CF49F0100DF3504910E552E7CF5A
:101AC000D9FF12009AEF0BF01DEF0CF01E5000181A
:101AD00018E11F50011815E10350800B0CE11EC0E6
:101AE00000F01FC001F0026A070E036E0C6AEADF05
:101AF000000906E1FCD7010EE66EB7EC08F0E552EE
:101B00001200AF0E02180BE1800E031808E1BF0EA1
:101B1000E66E900EE66EB8DCE552E5521200DF0E7E
:101B2000021805E1820E031802E1010E266E120072
:101B30000001201C01E1211C05E100C020F001C0D2
:101B400021F013D00050201802E1015021180DE0BF
:101B5000630EE66EE66A00C0E6FF01C0E6FFDADC6F
:101B6000E552E552E552E55216D10101006B0C50E9
:101B70000101005D19E2480E225C16E201010051EC
:101B8000EA6A040FE96E000EEA22EF50E66E225078
:101B9000222AEA6AA00FE96E000EEA22E552E75017
:101BA000EF6E0101002BE3D7000E0214496EF00E18
:101BB00003144A6E495002E1D00E4A180CE0000EA0
:101BC00002144B6EF00E03144C6E4B5002E1E00E0B
:101BD0004C1801E0E0D020682168226A200E000144
:101BE000A05D01E0CBD0EA0EE96E000EEA6EA3C064
:101BF000EFFFE90EE96E000EEA6EA4C0EFFFE80EFB
:101C0000E96E000EEA6EA5C0EFFF200E0001A15D97
:101C10001FE1FE0E0001A65D1AE1A70EE66E000EA2
:101C2000E66E400EE66EE8C0E6FFE9C0E6FFEAC0F9
:101C3000E6FF58EC08F0496E060EE15E495000C020
:101C4000E6FF01C0E6FF47DCE552E552A4D096D09E
:101C5000600E0001A15D59E1FF0E0001A65D2FE1BC
:101C6000FC0E496E1E0E4A6E4B6A49500001E82771
:101C70004A500001E9234B500001EA23A7C000F1BC
:101C8000A70EE66E000EE66E00C1E6FFE8C0E6FFB6
:101C9000E9C0E6FFEAC0E6FF21EC08F0496E060E57
:101CA000E15E495000C0E6FF01C0E6FF070E0101FA
:101CB0000025E66E5EDCE552E552E5526CD0FE0E84
:101CC0000001A65D21E1A7C000F1A70EE66E000E9F
:101CD000E66E00C1E6FFE8C0E6FFE9C0E6FFEAC045
:101CE000E6FF21EC08F0496E060EE15E495000C0A7
:101CF000E6FF01C0E6FF070E01010025E66E39DCB4
:101D0000E552E552E55247D039D0A40E055C29E1F1
:101D1000A00EE66E000EE66E400EE66EE66A100E4F
:101D2000E66EE66A21EC08F0496E060EE15E495067
:101D30000001C75112E00001C76BA00EE66E000E55
:101D4000E66E400EE66EE66A100EE66EE66A58EC47
:101D500008F0496E060EE15E4950FF0000EF00F00A
:101D60000DD0A50E055C04E1FF0000EF00F006D0E9
:101D7000A70E055C03E1F29EF29C8ADC0550E66E3C
:101D8000E66A00C0E6FF01C0E6FF8AEC0AF0E55211
:101D9000E552E552E55212000F0EC16E200E926E12
:101DA0000A0E936E040E816E800E946E9F0EAF6EBF
:101DB000010EB06E080EB86E240EAC6E900EAB6EB7
:101DC000476A466A6FDCD08E9F6AA26AA56A9D8ABE
:101DD000F28CF28E818E819C20682168226A800EAE
:101DE000236E2306FEE1E66AB7EC08F0E5528F0E9B
:101DF000E66E900EE66E44EC0AF0E552E552276A74
:101E000018EC08F0000906E0265002E0818C01D0B1
:101E1000819C266AD5EC0AF057DE000916E0FF0E19
:101E20000214496ECF0E03144A6E1E504B6EC00E44
:101E30001F104C6E1E50491807E14C504A1804E11F
:101E4000010E266E75DE01D041DED4DD0009D8E03A
:101E5000020E485C05E1020E286E010E276ED0D7F7
:101E6000030E485C3DE1020E285C38E1256A1EC085
:101E700000F01FC001F0110E026E800E036E050E01
:101E80000C6E2A50E66E2950E66EF8DDE552E552FA
:101E9000046E2C50E66E2B50E66EF0DDE552E552F6
:101EA000056E2E50E66E2D50E66EE8DDE552E552E9
:101EB000066E3050E66E2F50E66EE0DDE552E552DC
:101EC000076E3250E66E3150E66ED8DDE552E552CF
:101ED000086E255003E1F6DD0009FDE0276A90D782
:101EE0001D0E275C01E3276A2750272AEA6A280F7C
:0C1EF000E96E000EEA2248C0EFFF82D726
:041EFC003C63646976
:101F00003E3C69643E3C736F6674776172653E4F18
:101F100070656E4C4342205049432052464944204C
:101F2000696E707574204A756C20323620323031FB
:101F3000312032333A33313A31393C2F736F667482
:101F4000776172653E3C2F69643E3C7365206E612B
:101F50003D224C6F636174696F6E22206F723D2267
:101F60002330303830222073703D22234645222012
:101F700062753D2223313033223E3C6368206E611E
:101F80003D224C6F636174696F6E222073693D223C
:101F90003634222F3E3C2F73653E3C7365206E61C4
:101FA0003D224E6F646520496422206F723D2223DA
:101FB00030303430222073703D2223464522206287
:101FC000753D2223313433223E3C696E206E613DE3
:101FD0002253657269616C222073693D2231222F80
:101FE0003E3C696E206E613D224D656D62657222D8
:101FF0002073693D2233222F3E3C6279206E613D81
:102000002247726F7570222073693D2232222F3E63
:0C2010003C2F73653E3C2F6364693E006A
:04201C00000EF36E51
:1020200000EE00F0030E01D81200EA6002D0EE6A62
:0C203000FCD7F350E9601200EE6AFCD708
:020000040030CA
:0100010046B8
:0100020006F7
:010003001AE2
:01000500807A
:010006008178
:010008000FE8
:01000900C036
:01000A000FE6
:01000B00E014
:01000C000FE4
:01000D0040B2
:00000001FF
OpenLCB for CBUS-PIC CANRFID 26 July 2011 23:31:21
