:020000040000FA
:06000000EDEF06F0120016
:0800080007ED00F012000600F4
:0600100004EF08F01200ED
:060018000CEF08F01200DD
:06002000010001000100D7
:02002A000000D4
:06003000EAEF06F01200E9
:10004000020000000000FFFFFFFFFFFFFFFFFFFFB8
:10005000FFFFFFFFFFFFFFFFFFFFFFFFFFFFFFFFB0
:10006000FFFFFFFFFFFFFFFFFFFFFFFFFFFFFFFFA0
:10007000FFFFFFFFFFFFFFFFFFFFFFFFFFFFFFFF90
:100080004F70656E4C4342205049432043414E20FF
:10009000426F6F74204C6F616465722041756720F8
:1000A000303320323031302032313A35383A30373F
:1000B0000000000000000000000000000000000040
:1000C00055736572206964656E74696669636174ED
:1000D000696F6E206E6F742079657420646566693F
:1000E0006E65640030303030303030303030303099
:1000F0003030303030303030303030303030303000
:0E01000001002A00000027000000020000009D
:02010E00310EB0
:10011000B16E3C0EB36EB00EB26E1200A1A206D04C
:100120003C0EB36EB00EB26EA192010C000CD9CF92
:10013000E6FFE1CFD9FFD950FC0FE96EFF0EDA20C0
:10014000EA6EEF50F66ED950FD0FE96EFF0EDA2021
:10015000EA6EEF50F76ED950FE0FE96EFF0EDA200F
:10016000EA6EEF50F86ED950FB0FE96EFF0EDA2001
:10017000EA6EEF50EF0600090DE00900F90EDBCF43
:10018000E9FFDB2AFA0EDBCFEAFF01E3DB2AF5CF3A
:10019000EFFFE9D7E552E7CFD9FF1200D9CFE6FF4D
:1001A000E1CFD9FFD950FC0FE96EFF0EDA20EA6EDD
:1001B000EF50F66ED950FD0FE96EFF0EDA20EA6EB1
:1001C000EF50F76ED950FE0FE96EFF0EDA20EA6E9F
:1001D000EF50F86E940EA66EF2CF0DF2F29EF29CE6
:1001E000550EA76EAA0EA76EA6820DC2F2FF0A00D8
:1001F000D950FB0FE96EFF0EDA20EA6EEF50EF06E2
:10020000000926E0F90EDBCFE9FFDB2AFA0EDBCF8F
:10021000EAFF01E3DB2AEF50F56E0F00070EF6143C
:10022000070808E0D950FB0FE96EFF0EDA20EA6EEE
:10023000EF500DE1840EA66EF2CF0DF2F29EF29C0D
:10024000550EA76EAA0EA76EA6820DC2F2FFD0D7DA
:10025000A694E552E7CFD9FF1200D9CFE6FFE1CF50
:10026000D9FFE150FE0FE96EFF0EDA20EA6EEFCF04
:1002700000F2020100511CE10E0EE66E000EE66E69
:100280000E0EE66E400EE66EE66AE66A50DF236EFC
:10029000060EE15E23500E50146E0F50156E105076
:1002A000166E1150176E1250186E1350196E87D0BB
:1002B0000201010E006F036B14C004F215C005F2B9
:1002C00016C006F217C007F218C008F2060EE96E53
:1002D000020EEA6ED890EF36010EEB36020EEB36C8
:1002E00005BF0681030EE96E020EEA6ED890EF3666
:1002F000010EEB36020EEB36030EE96E020EEA6ECD
:10030000EECF09F2EECF0AF2EFCF0BF20C6B266ABA
:100310001450092715500A2316500B2326500C237E
:10032000A90E09274B0E0A237A0E0B23000E0C236D
:10033000090EE96E020EEA6EEECF14F0EECF15F064
:10034000EFCF16F00B0EE96E020EEA6EEF50E66E7E
:10035000090EE96E020EEA6EE552E750EF6E060EE8
:10036000E96E020EEA6EEECF23F0EECF24F0EFCF6F
:1003700025F0266A2350092724500A2325500B23F1
:1003800026500C2319C025F0266A1750092718504B
:100390000A2319500B2326500C23A30E09270C0EF9
:1003A0000A231B0E0B23000E0C23090EE96E020E0E
:1003B000EA6EEECF17F0EECF18F0EFCF19F0020192
:1003C000000508E01A501B1005E000011A1C2BE183
:1003D0001B1C29E114C01AF015C01BF015C023F036
:1003E00016C024F0040ED89024322332E804FBE136
:1003F00023501A1A24501B1A17501A1A18501B1A75
:1004000018C023F019C024F0040ED89024322332EF
:10041000E804FBE123501A1A24501B1A0F0E1B1676
:100420000201010E006F1AC000F01BC001F0026A49
:10043000036A12C023F013C024F0040ED8902432B3
:100440002332E804FBE123500212245003120C6A09
:1004500003DB0009FDE0026A100E036EFF0E1114AB
:10046000236E0F0E1214246E235002122450031216
:10047000F3DA0009FDE0026A200E036E0FC023F0DC
:1004800010C024F0040ED89024322332E804FBE19B
:100490002350021224500312DFDA0009FDE0026A41
:1004A000300E036EFF0E0E14236E0F0E0F14246E0B
:1004B0002350021224500312CFDA0009FDE027DE98
:1004C0000201036B0A0E0201035D0FE227DE000941
:1004D00002E00201032BC2DA0009F4E01A5000180E
:1004E000F1E11B500118EEE1E3D600050FE10E0E1D
:1004F000E66E000EE66E0E0EE66E400EE66EE66AE4
:10050000E66A4CDE236E060EE15E2350E552E7CF2D
:10051000D9FF1200D9CFE6FFE1CFD9FFE150FD0F9F
:10052000E96EFF0EDA20EA6EEECF02F0EDCF03F0B7
:100530001AC000F01BC001F0060E0C6E1350046EC2
:100540001250056E1150066E1050076E0F50086E57
:100550000E50096E81DA0009FDE0E552E7CFD9FFC0
:100560001200D9CFE6FFE1CFD9FF1AC000F01BC0BF
:1005700001F0E150FC0FE96EFF0EDA20EA6EEECFDB
:1005800002F0EFCF03F0E00E0312020E0C6E100E1D
:10059000046EE150FE0FE96EFF0EDA20EA6EEF50B6
:1005A000056E5ADA0009FDE0E552E7CFD9FF1200E7
:1005B000D9CFE6FFE1CFD9FFE20EE96E000EEA6E79
:1005C00005C0EFFFE10EE96E000EEA6E06C0EFFF18
:1005D000E00EE96E000EEA6E07C0EFFFA00EE66EB9
:1005E000000EE66E400EE66EE0C0E6FFE1C0E6FFFC
:1005F000E2C0E6FF9CDD236E060EE15E23500201A1
:10060000006B016B400E005D5AE21AC000F01BC087
:1006100001F0D950FD0FE96EFF0EDA20EA6EEECF41
:1006200002F0EFCF03F00250E00E0312080E0C6E42
:1006300001C204F00051EA6AA00FE96E000EEA223E
:10064000EF50056E0029EA6AA00FE96E000EEA225B
:10065000EF50066E020E0025EA6AA00FE96E000E4A
:10066000EA22EF50076E030E0025EA6AA00FE96E3A
:10067000000EEA22EF50086E040E0025EA6AA00F71
:10068000E96E000EEA22EF50096E050E0025EA6AB7
:10069000A00FE96E000EEA22EF500A6E060E00254A
:1006A000EA6AA00FE96E000EEA22EF500B6ED4D971
:1006B0000009FDE0070E02010027012BA3D7E55238
:1006C000E7CFD9FF120000C0E6FF01C0E6FFE66AEF
:1006D00048DFE552E552E55218EF00F01200D9CF9D
:1006E000E6FFA69EA69CE150FD0FE96EFF0EDA2004
:1006F000EA6EEF50A96EA680A850E552E7CFD9FF69
:100700001200D9CFE6FFA69EA69CE150FD0FE96E30
:10071000FF0EDA20EA6EEF50A96EE150FC0FE96E91
:10072000FF0EDA20EA6EEF50A86EA684F2CF00F238
:10073000F29EF29C550EA76EAA0EA76EA68200C26C
:10074000F2FFA694A6B2FED7E552E7CFD9FF12007A
:100750001F0E6F166F8EE00E6F148008FCE1030E03
:10076000706EDE0E716E030E726E200E736E800E52
:10077000776E778A0D01F86B606A0F01506B0E017E
:10078000206B306B406B506B606B706B0F01186BA4
:100790001C6B080E196F1D6F1A6B1E6B1B6B1F6B8A
:1007A0000D01D469D569D86BF06BF16BF26BF36B0B
:1007B0000F01016F056F096F0D6F116F156F0D013F
:1007C000616F656F696F716F756F796F816F856F1D
:1007D000896F916F1F0E6F16E00E6F14FDE112000E
:1007E0000201400E0D6F0F0E0E6F0DC2E9FFEA6E93
:1007F000EF50080B15E0300E0D6F0F0E0E6F0DC28F
:10080000E9FFEA6EEF50080B0BE0200E0D6F0F0EA4
:100810000E6F0DC2E9FFEA6EEF50080B01E0000C0D
:10082000FC0E0DC2E9FF0EC2EAFFE850EF16050EFE
:10083000EA6A0D25E96E0E51EA220CC0EFFF034073
:100840007F0B8009E66E010EEA6A0D25E96E0E51F6
:10085000EA22E552E750EF6E300E0214E8380F0B33
:10086000246EC00E0214E8407F0B236E010E0314A9
:10087000800DF350231008092410E66E020EEA6A78
:100880000D25E96E0E51EA22E552E750EF6E0F0E8C
:100890000214100D0F0E0114F310E66E030EEA6A37
:1008A0000D25E96E0E51EA22E552E750EF6E040E77
:1008B000EA6A0D25E96E0E51EA2200C0EFFF0F6BC8
:1008C0000C500F5D14E20F51EA6A040FE96E000E3E
:1008D000EA22EF50E66E060E0F25EA6A0D25E96E54
:1008E0000E51EA22E552E750EF6E0F2BE9D70DC209
:1008F000E9FF0EC2EAFFEF86010C74AE000C070E92
:100900006F14060A2AE0030A23E0010A1CE0070A22
:1009100015E0010A0EE0030A07E0010A23E10201E3
:10092000600E0E6F0F0E22D00201500E0E6F0F0ED2
:100930001DD00201200E0E6F0E0E18D00201300ED7
:100940000E6F0E0E13D00201400E0E6F0E0E0ED063
:100950000201500E0E6F0E0E09D00201600E0E6FD6
:100960000E0E04D00201700E0E6F0E0E0F6F0D6A88
:1009700074AC02D00D86749C010EEA6A0E25E96EF5
:100980000F51EA22EF50E824036E020EEA6A0E25A8
:10099000E96E0F51EA22EF50800BE844010B03127D
:1009A000020EEA6A0E25E96E0F51EA22EF50600B43
:1009B000E824026E020EEA6A0E25E96E0F51EA2261
:1009C000EF50030B100DF3500212030EEA6A0E25CE
:1009D000E96E0F51EA22EF380F0B0212030EEA6A9A
:1009E0000E25E96E0F51EA22EF500F0B016E040E37
:1009F000EA6A0E25E96E0F51EA22EF50006E050EED
:100A0000EA6A0E25E96E0F51EA22EF500F0B0C6EC9
:100A10000D6B0C500D5D14E2060E0D25EA6A0E25D5
:100A2000E96E0F51EA22EF50E66E0D51EA6A040FAB
:100A3000E96E000EEA22E552E750EF6E0D2BE9D782
:100A4000A4AE02D00D88A49E0EC2E9FF0FC2EAFF39
:100A5000EF9EA492749E010CF0EF03F07DEF04F082
:100A60001A50001802E11B50011816E10350800BC8
:100A70000DE11AC000F01BC001F002687F0E036E8A
:100A80000C6AEADF000901E1FCD705D0010EE66E31
:100A90002DEC01F0E55260D1010E021802E1800E4A
:100AA000031808E1040EE66E800EE66E33DDE552B3
:100AB000E55252D11A50236EE00E1B10246E2350C3
:100AC000021802E12450031801E046D1230E045C11
:100AD0001CE100C027F001C028F0E20EE96E000E14
:100AE000EA6E05C0EFFFE10EE96E000EEA6E06C089
:100AF000EFFFE00EE96E000EEA6E07C0EFFF1E6822
:100B0000030E1F6E1C6A1D6A27D1F00E041401E04B
:100B10009DD01E501F1001E199D00050271802E10E
:100B2000015028180CE000C0E6FF01C0E6FF050EEA
:100B3000E66E17DDE552E552E5520ED186D004503F
:100B4000206E2050F66EF76AD890F636F7362C0EE7
:100B5000F6260E0EF7220900F5501E160900F55074
:100B60001F16070E2002F350206E0201010E106FB7
:100B7000080E0201105D19E2400E205C16E202012F
:100B80001051EA6A040FE96E000EEA22EF50E66E99
:100B90002050202AEA6AA00FE96E000EEA22E552F0
:100BA000E750EF6E0201102BE3D71E501F104DE1EE
:100BB000E20EE96E000EEA6EEF50010813E3A00E9C
:100BC000E66E000EE66E400EE66EE0C0E6FFE1C0A7
:100BD000E6FFE2C0E6FFCEEC00F0236E060EE15E1B
:100BE00023502AD0E20EE96E000EEA6EEF50F008B4
:100BF00023E1206A400E205C1FE22050EA6AA00F29
:100C0000E96E000EEA22EF50E66E2050256E266A4D
:100C1000E00EE96E000EEA6E2550EE24236E26509B
:100C2000EE20246E23C0E6FF24C0E6FF6ADDE55215
:100C3000E552E552202ADED727C0E6FF28C0E6FFAE
:100C4000E66A8FDCE552E552E55286D0220E045C5E
:100C500008E100C0E6FF01C0E6FFAADCE552E5526C
:100C60007BD0200E045C0AE100C0E6FF01C0E6FF75
:100C7000E66A77DCE552E552E5526ED0520E045C2E
:100C800004E1FF0000EF00F067D0210E045C29E1D1
:100C9000A00EE66E000EE66E400EE66EE66A100EE0
:100CA000E66EE66A97EC00F0236E060EE15E2350D6
:100CB0000001C75112E00001C76BA00EE66E000EE6
:100CC000E66E400EE66EE66A100EE66EE66ACEEC62
:100CD00000F0236E060EE15E2350FF0000EF00F0EF
:100CE0003BD0300E045C03E0510E045C0AE100C00E
:100CF000E6FF01C0E6FFE66A34DCE552E552E55264
:100D00002BD0400E045C06E0320E045C03E0370E8C
:100D1000045C0BE100C0E6FF01C0E6FF030EE66ED7
:100D200020DCE552E552E55217D0410E045C09E0A3
:100D3000340E045C06E0380E045C03E0360E045CFE
:100D40000BE100C0E6FF01C0E6FF040EE66EB1EC69
:100D500002F0E552E552E5521200030EE66E800EF7
:100D6000E66E8AEC02F0E552E5528EEC00F00009E6
:100D700019E01C2A000E1D221E501F1013E0140E35
:100D8000D8801C54000E1D540DE227C0E6FF28C079
:100D9000E6FF020EE66EB1EC02F0E552E552E552D6
:100DA0001E6A1F6A5BDE0009E0E05ADEDED70F0E26
:100DB000C16E3C0E926E3B0E936E040E816E946873
:100DC000F16A216A226A87EC00F01C6A1D6A818C34
:100DD000818E1200ECDFADEF06F010EE60F020EE39
:100DE00060F006EC07F0270EF66E100EF76EF86A4C
:100DF0000800F55002E100EF08F0D9DFA9DCE66A4F
:0C0E00002DEC01F0E552A9DFFED7120036
:040E0C00000EF36E73
:100E100000EE00F0030E01D81200EA6002D0EE6A84
:0C0E2000FCD7F350E9601200EE6AFCD72A
:040E2C00FE03FD03C1
:100E3000FB03F703EF03DF03BF037F03FF02FF01A1
:061000006AEF0EF0120081
:021006000000E8
:0810080007ED08F012000600DC
:06101000ACEF0CF0120031
:06101800B3EF0CF0120022
:101020000001000100010000321E00009800FFFFD7
:10103000FFFFFFFFFFFFFFFFFFFFFFFFFFFFFFFFC0
:101040004F70656E4C4342205246494420696E7091
:10105000757420666F722043414E5253204175676C
:1010600020303320323031302032313A35383A3284
:101070003000000000000000000000000000000040
:10108000310EB16E3C0EB36EB00EB26E1200A1A264
:1010900006D03C0EB36EB00EB26EA192010C000CE5
:1010A000D9CFE6FFE1CFD9FFD950FC0FE96EFF0E93
:1010B000DA20EA6EEF50F66ED950FD0FE96EFF0EA2
:1010C000DA20EA6EEF50F76ED950FE0FE96EFF0E90
:1010D000DA20EA6EEF50F86ED950FB0FE96EFF0E82
:1010E000DA20EA6EEF50EF0600090DE00900F90E74
:1010F000DBCFE9FFDB2AFA0EDBCFEAFF01E3DB2AD5
:10110000F5CFEFFFE9D7E552E7CFD9FF1200D9CFEE
:10111000E6FFE1CFD9FFD950FC0FE96EFF0EDA20D0
:10112000EA6EEF50F66ED950FD0FE96EFF0EDA2031
:10113000EA6EEF50F76ED950FE0FE96EFF0EDA201F
:10114000EA6EEF50F86E940EA66EF2CF0DF1F29E9D
:10115000F29C550EA76EAA0EA76EA6820DC1F2FFD5
:101160000A00D950FB0FE96EFF0EDA20EA6EEF504D
:10117000EF06000926E0F90EDBCFE9FFDB2AFA0EC5
:10118000DBCFEAFF01E3DB2AEF50F56E0F00070E1D
:10119000F614070808E0D950FB0FE96EFF0EDA20BD
:1011A000EA6EEF500DE1840EA66EF2CF0DF1F29EC5
:1011B000F29C550EA76EAA0EA76EA6820DC1F2FF75
:1011C000D0D7A694E552E7CFD9FF1200D9CFE6FFDA
:1011D000E1CFD9FFE150FE0FE96EFF0EDA20EA6E93
:1011E000EFCF00F1010100511CE10E0EE66E000E82
:1011F000E66E0E0EE66E400EE66EE66AE66A50DFBA
:10120000476E060EE15E47500E50146E0F50156E7D
:101210001050166E1150176E1250186E1350196E32
:1012200087D00101010E006F036B14C004F115C0DB
:1012300005F116C006F117C007F118C008F1060E37
:10124000E96E010EEA6ED890EF36010EEB36020E13
:10125000EB3605BF0681030EE96E010EEA6ED890EB
:10126000EF36010EEB36020EEB36030EE96E010E81
:10127000EA6EEECF09F1EECF0AF1EFCF0BF10C6B76
:101280004A6A1450092715500A2316500B234A5056
:101290000C23A90E09274B0E0A237A0E0B23000EEE
:1012A0000C23090EE96E010EEA6EEECF14F0EECFBC
:1012B00015F0EFCF16F00B0EE96E010EEA6EEF504F
:1012C000E66E090EE96E010EEA6EE552E750EF6E2A
:1012D000060EE96E010EEA6EEECF47F0EECF48F053
:1012E000EFCF49F04A6A4750092748500A2349502E
:1012F0000B234A500C2319C049F04A6A175009279A
:1013000018500A2319500B234A500C23A30E092707
:101310000C0E0A231B0E0B23000E0C23090EE96E84
:10132000010EEA6EEECF17F0EECF18F0EFCF19F006
:101330000101000508E01A501B1005E000011A1C0D
:101340002BE11B1C29E114C01AF015C01BF015C0BD
:1013500047F016C048F0040ED89048324732E804EF
:10136000FBE147501A1A48501B1A17501A1A185006
:101370001B1A18C047F019C048F0040ED890483224
:101380004732E804FBE147501A1A48501B1A0F0E67
:101390001B160101010E006F1AC000F01BC001F006
:1013A000026A036A12C047F013C048F0040ED890D6
:1013B00048324732E804FBE147500212485003121A
:1013C0000C6A60DB0009FDE0026A100E036EFF0E7E
:1013D0001114476E0F0E1214486E475002124850F7
:1013E000031250DB0009FDE0026A200E036E0FC0FD
:1013F00047F010C048F0040ED89048324732E80455
:10140000FBE147500212485003123CDB0009FDE0AB
:10141000026A300E036EFF0E0E14476E0F0E0F148D
:10142000486E47500212485003122CDB0009FDE0C1
:1014300027DE0101036B0A0E0101035D0FE227DEC7
:10144000000902E00101032B1FDB0009F4E01A5040
:101450000018F1E11B500118EEE1E3D600050FE1A1
:101460000E0EE66E000EE66E0E0EE66E400EE66E98
:10147000E66AE66A4CDE476E060EE15E4750E552CC
:10148000E7CFD9FF1200D9CFE6FFE1CFD9FFE15076
:10149000FD0FE96EFF0EDA20EA6EEECF02F0EDCF1F
:1014A00003F01AC000F01BC001F0060E0C6E1350C2
:1014B000046E1250056E1150066E1050076E0F50DC
:1014C000086E0E50096EDEDA0009FDE0E552E7CF46
:1014D000D9FF1200D9CFE6FFE1CFD9FF1AC000F043
:1014E0001BC001F0E150FC0FE96EFF0EDA20EA6E3E
:1014F000EECF02F0EFCF03F0E00E0312020E0C6EFF
:10150000100E046EE150FE0FE96EFF0EDA20EA6E57
:10151000EF50056EB7DA0009FDE0E552E7CFD9FFDD
:101520001200D9CFE6FFE1CFD9FFE20EE96E000E3F
:10153000EA6E05C0EFFFE10EE96E000EEA6E06C02E
:10154000EFFFE00EE96E000EEA6E07C0EFFFA00E9F
:10155000E66E000EE66E400EE66EE0C0E6FFE1C00D
:10156000E6FFE2C0E6FF9CDD476E060EE15E4750F7
:101570000101006B016B400E005D5AE21AC000F0E1
:101580001BC001F0D950FD0FE96EFF0EDA20EA6EA4
:10159000EECF02F0EFCF03F00250E00E0312080E80
:1015A0000C6E01C104F00051EA6AA00FE96E000E52
:1015B000EA22EF50056E0029EA6AA00FE96E000EDC
:1015C000EA22EF50066E020E0025EA6AA00FE96ECD
:1015D000000EEA22EF50076E030E0025EA6AA00F04
:1015E000E96E000EEA22EF50086E040E0025EA6A4A
:1015F000A00FE96E000EEA22EF50096E050E0025DD
:10160000EA6AA00FE96E000EEA22EF500A6E060E9B
:101610000025EA6AA00FE96E000EEA22EF500B6E79
:1016200031DA0009FDE0070E01010027012BA3D7E5
:10163000E552E7CFD9FF120000C0E6FF01C0E6FF88
:10164000E66A48DFE552E552E55218EF00F0120075
:101650001F0E6F166F8EE00E6F148008FCE1030EF4
:10166000706EDE0E716E030E726E200E736E800E43
:10167000776E778A0D01F86B606A0F01506B0E016F
:10168000206B306B406B506B606B706B0F01186B95
:101690001C6B080E196F1D6F1A6B1E6B1B6B1F6B7B
:1016A0000D01D469D569D86BF06BF16BF26BF36BFC
:1016B0000F01016F056F096F0D6F116F156F0D0130
:1016C000616F656F696F716F756F796F816F856F0E
:1016D000896F916F1F0E6F16E00E6F14FDE11200FF
:1016E0000101400E0D6F0F0E0E6F0DC1E9FFEA6E86
:1016F000EF50080B15E0300E0D6F0F0E0E6F0DC181
:10170000E9FFEA6EEF50080B0BE0200E0D6F0F0E95
:101710000E6F0DC1E9FFEA6EEF50080B01E0000CFF
:10172000FC0E0DC1E9FF0EC1EAFFE850EF16050EF1
:10173000EA6A0D25E96E0E51EA220CC0EFFF034064
:101740007F0B8009E66E010EEA6A0D25E96E0E51E7
:10175000EA22E552E750EF6E300E0214E8380F0B24
:10176000486EC00E0214E8407F0B476E010E031452
:10177000800DF350471008094810E66E020EEA6A21
:101780000D25E96E0E51EA22E552E750EF6E0F0E7D
:101790000214100D0F0E0114F310E66E030EEA6A28
:1017A0000D25E96E0E51EA22E552E750EF6E040E68
:1017B000EA6A0D25E96E0E51EA2200C0EFFF0F6BB9
:1017C0000C500F5D14E20F51EA6A040FE96E000E2F
:1017D000EA22EF50E66E060E0F25EA6A0D25E96E45
:1017E0000E51EA22E552E750EF6E0F2BE9D70DC1FB
:1017F000E9FF0EC1EAFFEF86010C74AE000C070E84
:101800006F14060A2AE0030A23E0010A1CE0070A13
:1018100015E0010A0EE0030A07E0010A23E10101D5
:10182000600E0E6F0F0E22D00101500E0E6F0F0EC4
:101830001DD00101200E0E6F0E0E18D00101300ECA
:101840000E6F0E0E13D00101400E0E6F0E0E0ED055
:101850000101500E0E6F0E0E09D00101600E0E6FC9
:101860000E0E04D00101700E0E6F0E0E0F6F0D6A7A
:1018700074AC02D00D86749C010EEA6A0E25E96EE6
:101880000F51EA22EF50E824036E020EEA6A0E2599
:10189000E96E0F51EA22EF50800BE844010B03126E
:1018A000020EEA6A0E25E96E0F51EA22EF50600B34
:1018B000E824026E020EEA6A0E25E96E0F51EA2252
:1018C000EF50030B100DF3500212030EEA6A0E25BF
:1018D000E96E0F51EA22EF380F0B0212030EEA6A8B
:1018E0000E25E96E0F51EA22EF500F0B016E040E28
:1018F000EA6A0E25E96E0F51EA22EF50006E050EDE
:10190000EA6A0E25E96E0F51EA22EF500F0B0C6EBA
:101910000D6B0C500D5D14E2060E0D25EA6A0E25C6
:10192000E96E0F51EA22EF50E66E0D51EA6A040F9C
:10193000E96E000EEA22E552E750EF6E0D2BE9D773
:10194000A4AE02D00D88A49E0EC1E9FF0FC1EAFF2C
:10195000EF9EA492749E010CDACFE4FFE652E552AA
:10196000E5CFDAFF1100D8CFE4FFE0CFE4FFE46E6B
:10197000DACFE4FFE9CFE4FFEACFE4FFE6529EAA24
:101980000CD04450442AEA6A000FE96E020EEA22A3
:10199000AECFEFFF449EABB2AB98E552E5CFEAFF86
:1019A000E5CFE9FFE5CFDAFFE550E5CFE0FFE5CF92
:1019B000D8FF10009D9A4550445C03E10101006B83
:1019C0000DD04550452AEA6A000FE96E020EEA2260
:1019D000EF50466E459E0101010E006F9D8A005139
:1019E0001200D9CFE6FFE150FE0FE96EFF0EDA20BC
:1019F000EA6EEFCF00F1300E0101005D06E3005109
:101A0000390803E3300E005D15D0410E005D05E39B
:101A10000051460802E3410E07D0610E005D07E366
:101A20000051660804E3610E005D0A0F03D0010E49
:101A3000236E000EE552E7CFD9FF1200D9CFE6FFA3
:101A4000E1CFD9FFE150FD0FE96EFF0EDA20EA6E1B
:101A5000EF50E66EC6DFE552476EE66ED950FE0FD8
:101A6000E96EFF0EDA20EA6EEF50E66EBADFE5525D
:101A7000E552E7CF47F0100DF3504710E552E7CF9E
:101A8000D9FF120070EF0BF0FDEF0BF01A500018A9
:101A900002E11B50011816E10350800B0DE11AC042
:101AA00000F01BC001F002687F0E036E0C6AEADFD3
:101AB000000901E1FCD705D0010EE66EE6EC08F066
:101AC000E55207D1010E021802E1800E031808E169
:101AD000040EE66E800EE66ED6DCE552E552F9D0D5
:101AE000100E021802E1800E031803E1010E246EAD
:101AF000F0D01A50476EE00E1B10486E4750021887
:101B000002E14850031801E0E4D0010E246E200EDB
:101B1000045C04E1F29EF29C8FDDDBD0220E045CBB
:101B200008E100C0E6FF01C0E6FFFBDCE552E5523C
:101B3000D0D0520E045C04E1FF0000EF00F0C9D0E9
:101B4000230E045C1BE100C01EF001C01FF0E20E7A
:101B5000E96E000EEA6E05C0EFFFE10EE96E000EC1
:101B6000EA6E06C0EFFFE00EE96E000EEA6E07C0F7
:101B7000EFFF1C68030E1D6E206AABD0F00E04143C
:101B800070E11C501D106DE000501E1802E1015064
:101B90001F1816E000C0E6FF01C0E6FF050EE66E66
:101BA00099DCE552E552E5521EC0E6FF1FC0E6FF94
:101BB000050EE66E8FDCE552E552E5528AD050D034
:101BC0000450226E2250F66EF76AD890F636F73639
:101BD000CA0EF6261E0EF7220900F5501C16090043
:101BE000F5501D16070E2202F350226E010E216ED3
:101BF000080E215C17E2400E225C14E22150EA6AD2
:101C0000040FE96E000EEA22EF50E66E2250222AFF
:101C1000EA6AA00FE96E000EEA22E552E750EF6E85
:101C2000212AE6D71C501D101BE1A00EE66E000E07
:101C3000E66E400EE66EE0C0E6FFE1C0E6FFE2C001
:101C4000E6FF87EC08F0476E060EE15E47501EC0C7
:101C5000E6FF1FC0E6FFE66A3DDCE552E552E552CD
:101C600038D0300E045C03E0510E045C0AE100C081
:101C7000E6FF01C0E6FFE66A2DDCE552E552E552DB
:101C800028D0400E045C06E0320E045C03E0370E00
:101C9000045C0BE100C0E6FF01C0E6FF030EE66E48
:101CA00019DCE552E552E55214D0410E045C06E021
:101CB000340E045C03E0380E045C0BE100C0E6FF68
:101CC00001C0E6FF040EE66E6AEC0AF0E552E5524A
:101CD000E55212000F0EC16E200E926E0A0E936E28
:101CE000040E816E800E946E9F0EAF6E010EB06E6C
:101CF000080EB86E240EAC6E900EAB6E456A446A48
:101D0000206A40EC08F0A4DCD08E9F6AA26AA56A23
:101D10009D8AF28CF28E818E819C800E216E21062E
:101D2000FEE1E66AE6EC08F0E552020EE66E800E91
:101D3000E66E43EC0AF0E552E552256A47EC08F0FE
:101D400000091AE0245002E0818C01D0819C246AB1
:101D5000202A1C501D1010E0205014080DE21EC057
:101D6000E6FF1FC0E6FF020EE66E6AEC0AF0E552DF
:101D7000E552E5521C6A1D6A87DE000901E086DE35
:101D800019DE0009DBE0020E465C05E1020E266E5C
:101D9000010E256ED3D7030E465C3DE1020E265C94
:101DA00038E1236A1AC000F01BC001F0110E026E68
:101DB000800E036E050E0C6E2850E66E2750E66E00
:101DC0003DDEE552E552046E2A50E66E2950E66E7D
:101DD00035DEE552E552056E2C50E66E2B50E66E70
:101DE0002DDEE552E552066E2E50E66E2D50E66E63
:101DF00025DEE552E552076E3050E66E2F50E66E56
:101E00001DDEE552E552086E235003E13BDE00097A
:101E1000FDE0256A93D71D0E255C01E3256A255058
:101E2000252AEA6A260FE96E000EEA2246C0EFFF75
:021E300085D754
:0E1E32003C584D4C3E0D0A3C4E6F6465537497
:101E400072696E673E4F70656E4C43422052464940
:101E50004420696E70757420666F722043414E5243
:101E600053204175672030332032303130203231F9
:101E70003A35383A32303C2F4E6F6465537472698C
:101E80006E673E0D0A3C4576656E74446174613E32
:101E90000D0A3C2F4576656E74446174613E0D0AEF
:101EA0003C4E6F64655661726961626C653E0D0AF5
:101EB0003C2F4E6F64655661726961626C653E0DC0
:101EC0000A3C2F584D4C3E0D0A00FE03FD03FB0358
:0E1ED000F703EF03DF03BF037F03FF02FF01F1
:021EDE00000EF4
:101EE000F36E00EE00F0030E01D81200EA6002D09B
:0E1EF000EE6AFCD7F350E9601200EE6AFCD7F0
:020000040030CA
:0100010046B8
:010002000EEF
:010003001AE2
:01000500807A
:010006008178
:010008000FE8
:01000900C036
:01000A000FE6
:01000B00E014
:01000C000FE4
:01000D0040B2
:00000001FF
