:020000040000FA
:06000000DEEF06F0120025
:0800080007ED00F012000600F4
:0600100004EF08F01200ED
:060018000CEF08F01200DD
:06002000010001000100D7
:02002A000000D4
:06003000DBEF06F01200F8
:10004000020000000000FFFFFFFFFFFFFFFFFFFFB8
:10005000FFFFFFFFFFFFFFFFFFFFFFFFFFFFFFFFB0
:10006000FFFFFFFFFFFFFFFFFFFFFFFFFFFFFFFFA0
:10007000FFFFFFFFFFFFFFFFFFFFFFFFFFFFFFFF90
:100080004F70656E4C4342205049432043414E20FF
:10009000426F6F74204C6F61646572204465632009
:1000A000303320323030392032333A30343A32393A
:1000B0000001010101010101010101010101010131
:1000C00055736572206964656E74696669636174ED
:1000D000696F6E206E6F742079657420646566693F
:1000E0006E65640030303030303030303030303099
:1000F0003030303030303030303030303030303000
:0E01000001002A00000025000000020000009F
:02010E00310EB0
:10011000B16E3C0EB36EB00EB26E1200A1A206D04C
:100120003C0EB36EB00EB26EA192010C000CD9CF92
:10013000E6FFE1CFD9FFD950FC0FE96EFF0EDA20C0
:10014000EA6EEF50F66ED950FD0FE96EFF0EDA2021
:10015000EA6EEF50F76ED950FE0FE96EFF0EDA200F
:10016000EA6EEF50F86ED950FB0FE96EFF0EDA2001
:10017000EA6EEF50EF0600090DE00900F90EDBCF43
:10018000E9FFDB2AFA0EDBCFEAFF01E3DB2AF5CF3A
:10019000EFFFE9D7E552E7CFD9FF1200D9CFE6FF4D
:1001A000E1CFD9FFD950FC0FE96EFF0EDA20EA6EDD
:1001B000EF50F66ED950FD0FE96EFF0EDA20EA6EB1
:1001C000EF50F76ED950FE0FE96EFF0EDA20EA6E9F
:1001D000EF50F86E940EA66EF2CF0DF1F29EF29CE7
:1001E000550EA76EAA0EA76EA6820DC1F2FF0A00D9
:1001F000D950FB0FE96EFF0EDA20EA6EEF50EF06E2
:10020000000926E0F90EDBCFE9FFDB2AFA0EDBCF8F
:10021000EAFF01E3DB2AEF50F56E0F00070EF6143C
:10022000070808E0D950FB0FE96EFF0EDA20EA6EEE
:10023000EF500DE1840EA66EF2CF0DF1F29EF29C0E
:10024000550EA76EAA0EA76EA6820DC1F2FFD0D7DB
:10025000A694E552E7CFD9FF1200D9CFE6FFE1CF50
:10026000D9FFE150FE0FE96EFF0EDA20EA6EEFCF04
:1002700000F1010100511CE10E0EE66E000EE66E6B
:100280000E0EE66E400EE66EE66AE66A50DF216EFE
:10029000060EE15E21500EC014F00FC015F010C024
:1002A00016F011C017F012C018F013C019F087D063
:1002B0000101010E006F036B14C004F115C005F1BC
:1002C00016C006F117C007F118C008F1060EE96E56
:1002D000010EEA6ED890EF36010EEB36020EEB36C9
:1002E00005BF0681030EE96E010EEA6ED890EF3667
:1002F000010EEB36020EEB36030EE96E010EEA6ECE
:10030000EECF09F1EECF0AF1EFCF0BF10C6B246ABF
:100310001450092715500A2316500B2324500C2380
:10032000A90E09274B0E0A237A0E0B23000E0C236D
:10033000090EE96E010EEA6EEECF14F0EECF15F065
:10034000EFCF16F00B0EE96E010EEA6EEF50E66E7F
:10035000090EE96E010EEA6EE552E750EF6E060EE9
:10036000E96E010EEA6EEECF21F0EECF22F0EFCF74
:1003700023F0246A2150092722500A2323500B23FB
:1003800024500C2319C023F0246A17500927185051
:100390000A2319500B2324500C23A30E09270C0EFB
:1003A0000A231B0E0B23000E0C23090EE96E010E0F
:1003B000EA6EEECF17F0EECF18F0EFCF19F0010193
:1003C000000508E01A501B1005E000011A1C2BE183
:1003D0001B1C29E114C01AF015C01BF015C021F038
:1003E00016C022F0040ED89022322132E804FBE13C
:1003F00021501A1A22501B1A17501A1A18501B1A79
:1004000018C021F019C022F0040ED89022322132F7
:10041000E804FBE121501A1A22501B1A0F0E1B167A
:100420000101010E006F1AC000F01BC001F0026A4A
:10043000036AF00E1214216EFF0E1314226E040EC6
:10044000D89022322132E804FBE1215002122250DE
:1004500003120C6ADEDA0009FDE0026A100E036E78
:10046000FF0E1114216E0F0E1214226E2150021273
:1004700022500312CEDA0009FDE0026A200E036E5C
:10048000F00E0F14216EFF0E1014226E040ED89081
:1004900022322132E804FBE12150021222500312E1
:1004A000B8DA0009FDE0026A300E036EFF0E0E148A
:1004B000216E0F0E0F14226E2150021222500312D1
:1004C000A8DA0009FDE023DE0101036B0A0E010139
:1004D000035D0FE223DE000902E00101032B9BDA3A
:1004E0000009F4E01A500018F1E11B500118EEE188
:1004F000DFD600050FE10E0EE66E000EE66E0E0E64
:10050000E66E400EE66EE66AE66A48DE216E060E8C
:10051000E15E2150E552E7CFD9FF1200D9CFE6FFC7
:10052000E1CFD9FF1AC000F01BC001F0E150FC0F71
:10053000E96EFF0EDA20EA6EEECF02F0EFCF03F0A5
:10054000E00E0312020E0C6E100E046EE150FE0F50
:10055000E96EFF0EDA20EA6EEF50056E5ADA0009F6
:10056000FDE0E552E7CFD9FF1200D9CFE6FFE1CF9A
:10057000D9FFE20EE96E000EEA6E05C0EFFFE10E54
:10058000E96E000EEA6E06C0EFFFE00EE96E000EA7
:10059000EA6E07C0EFFFA00EE66E000EE66E400E9C
:1005A000E66EE0C0E6FFE1C0E6FFE2C0E6FFBFDDC9
:1005B000216E060EE15E21500101006B016B400EC1
:1005C000005D5AE21AC000F01BC001F0D950FD0FC7
:1005D000E96EFF0EDA20EA6EEECF02F0EFCF03F005
:1005E0000250E00E0312080E0C6E01C104F000511F
:1005F000EA6AA00FE96E000EEA22EF50056E0029AC
:10060000EA6AA00FE96E000EEA22EF50066E020EB3
:100610000025EA6AA00FE96E000EEA22EF50076E8D
:10062000030E0025EA6AA00FE96E000EEA22EF50E1
:10063000086E040E0025EA6AA00FE96E000EEA2299
:10064000EF50096E050E0025EA6AA00FE96E000E54
:10065000EA22EF500A6E060E0025EA6AA00FE96E44
:10066000000EEA22EF500B6ED4D90009FDE0070E10
:1006700001010027012BA3D7E552E7CFD9FF1200D4
:1006800000C0E6FF01C0E6FFE66A48DFE552E5523A
:10069000E55218EF00F01200D9CFE6FFA69EA69C07
:1006A000E150FD0FE96EFF0EDA20EA6EEF50A96E01
:1006B000A680A850E552E7CFD9FF1200D9CFE6FFB8
:1006C000A69EA69CE150FD0FE96EFF0EDA20EA6EB1
:1006D000EF50A96EE150FC0FE96EFF0EDA20EA6ED2
:1006E000EF50A86EA684F2CF00F1F29EF29C550E58
:1006F000A76EAA0EA76EA68200C1F2FFA694A6B2AC
:10070000FED7E552E7CFD9FF12001F0E6F166F8E8E
:10071000E00E6F148008FCE1030E706EDE0E716E49
:10072000030E726E200E736E800E776E778A0D0147
:10073000F86B606A0F01506B0E01206B306B406BE1
:10074000506B606B706B0F01186B1C6B080E196F90
:100750001D6F1A6B1E6B1B6B1F6B0D01D469D56966
:10076000D86BF06BF16BF26BF36B0F01016F056FE0
:10077000096F0D6F116F156F0D01616F656F696FF7
:10078000716F756F796F816F856F896F916F1F0EB4
:100790006F16E00E6F14FDE112000101400E0D6FA7
:1007A0000F0E0E6F0DC1E9FFEA6EEF50080B15E05A
:1007B000300E0D6F0F0E0E6F0DC1E9FFEA6EEF5098
:1007C000080B0BE0200E0D6F0F0E0E6F0DC1E9FF31
:1007D000EA6EEF50080B01E0000CFC0E0DC1E9FFC2
:1007E0000EC1EAFFE850EF16050EEA6A0D25E96E24
:1007F0000E51EA220CC0EFFF03407F0B8009E66E2A
:10080000010EEA6A0D25E96E0E51EA22E552E75023
:10081000EF6E300E0214E8380F0B226EC00E021479
:10082000E8407F0B216E010E0314800DF350211060
:1008300008092210E66E020EEA6A0D25E96E0E51D5
:10084000EA22E552E750EF6E0F0E0214100D0F0E64
:100850000114F310E66E030EEA6A0D25E96E0E51DF
:10086000EA22E552E750EF6E040EEA6A0D25E96EC2
:100870000E51EA2200C0EFFF0F6B0C500F5D14E227
:100880000F51EA6A040FE96E000EEA22EF50E66E9D
:10089000060E0F25EA6A0D25E96E0E51EA22E55291
:1008A000E750EF6E0F2BE9D70DC1E9FF0EC1EAFF4C
:1008B000EF86010C74AE000C070E6F14060A2AE0D6
:1008C000030A23E0010A1CE0070A15E0010A0EE012
:1008D000030A07E0010A23E10101600E0E6F0F0E0B
:1008E00022D00101500E0E6F0F0E1DD00101200EFF
:1008F0000E6F0E0E18D00101300E0E6F0E0E13D0BB
:100900000101400E0E6F0E0E0ED00101500E0E6F43
:100910000E0E09D00101600E0E6F0E0E04D0010103
:10092000700E0E6F0E0E0F6F0D6A74AC02D00D8636
:10093000749C010EEA6A0E25E96E0F51EA22EF500F
:10094000E824036E020EEA6A0E25E96E0F51EA22D0
:10095000EF50800BE844010B0312020EEA6A0E25E9
:10096000E96E0F51EA22EF50600BE824026E020E8E
:10097000EA6A0E25E96E0F51EA22EF50030B100DC3
:10098000F3500212030EEA6A0E25E96E0F51EA22B5
:10099000EF380F0B0212030EEA6A0E25E96E0F51B3
:1009A000EA22EF500F0B016E040EEA6A0E25E96E83
:1009B0000F51EA22EF50006E050EEA6A0E25E96E2D
:1009C0000F51EA22EF500F0B0C6E0D6B0C500D5DAA
:1009D00014E2060E0D25EA6A0E25E96E0F51EA2291
:1009E000EF50E66E0D51EA6A040FE96E000EEA223E
:1009F000E552E750EF6E0D2BE9D7A4AE02D00D887B
:100A0000A49E0EC1E9FF0FC1EAFFEF9EA492749E5F
:100A1000010CCDEF03F05AEF04F01A50001802E178
:100A20001B50011815E10350800B0DE11AC000F0B6
:100A30001BC001F002687F0E036E0C6AEADF00093A
:100A400001E1FCD704D0010EE66E07DCE55273D15C
:100A5000010E021802E1800E03181EE10050026E22
:100A6000E00E0110036E1AC000F01BC001F0070E6B
:100A70000C6E500E046E1350056E1250066E11501F
:100A8000076E1050086E0F50096E0E500A6EC1DFCF
:100A9000000901E1FCD74FD11A50216EE00E1B1066
:100AA000226E2150021802E12250031801E043D1C6
:100AB000230E045C1CE100C025F001C026F0E20E0C
:100AC000E96E000EEA6E05C0EFFFE10EE96E000E62
:100AD000EA6E06C0EFFFE00EE96E000EEA6E07C098
:100AE000EFFF1E68030E1F6E1C6A1D6A24D1F00EF4
:100AF000041401E09DD01E501F1001E199D0005058
:100B0000251802E1015026180CE000C0E6FF01C0E4
:100B1000E6FF050EE66E02DDE552E552E5520BD129
:100B200086D00450206E2050F66EF76AD890F636C4
:100B3000F7360E0EF6260E0EF7220900F5501E1699
:100B40000900F5501F16070E2002F350206E010118
:100B5000010E106F080E0101105D19E2400E205CBD
:100B600016E201011051EA6A040FE96E000EEA2252
:100B7000EF50E66E2050202AEA6AA00FE96E000EC0
:100B8000EA22E552E750EF6E0101102BE3D71E5029
:100B90001F104DE1E20EE96E000EEA6EEF50010803
:100BA00013E3A00EE66E000EE66E400EE66EE0C0A9
:100BB000E6FFE1C0E6FFE2C0E6FFCEEC00F0216E0A
:100BC000060EE15E21502AD0E20EE96E000EEA6EBA
:100BD000EF50F00823E1206A400E205C1FE2205015
:100BE000EA6AA00FE96E000EEA22EF50E66E20508E
:100BF000236E246AE00EE96E000EEA6E2350EE24A6
:100C0000216E2450EE20226E21C0E6FF22C0E6FFB6
:100C100055DDE552E552E552202ADED725C0E6FF34
:100C200026C0E6FFE66A7ADCE552E552E55283D05B
:100C3000220E045C08E100C0E6FF01C0E6FF95DC7F
:100C4000E552E55278D0200E045C0AE100C0E6FFD0
:100C500001C0E6FFE66A62DCE552E552E5526BD080
:100C6000520E045C04E1FF0000EF00F064D0210E9E
:100C7000045C29E1A00EE66E000EE66E400EE66E04
:100C8000E66A100EE66EE66A97EC00F0216E060E3C
:100C9000E15E21500001C75112E00001C76BA00EB8
:100CA000E66E000EE66E400EE66EE66A100EE66E2A
:100CB000E66ACEEC00F0216E060EE15E2150FF00E8
:100CC00000EF00F038D0300E045C03E0510E045CFD
:100CD0000AE100C0E6FF01C0E6FFE66A1FDCE5525C
:100CE000E552E55228D0400E045C06E0320E045C6A
:100CF00003E0370E045C0BE100C0E6FF01C0E6FF35
:100D0000030EE66E0BDCE552E552E55214D0410EBF
:100D1000045C06E0340E045C03E0380E045C0BE176
:100D200000C0E6FF01C0E6FF040EE66E8EEC02F0A6
:100D3000E552E552E55212001AC000F01BC001F066
:100D4000030E026E800E036E0C6A63DE0009FDE086
:100D50008EEC00F0000919E01C2A000E1D221E5026
:100D60001F1013E0140ED8801C54000E1D540DE209
:100D700025C0E6FF26C0E6FF020EE66E8EEC02F00E
:100D8000E552E552E5521E6A1F6A45DE0009E0E0C1
:100D900044DEDED70F0EC16E3C0E926E3B0E936E9C
:100DA000040E816E9468F16A87EC00F01C6A1D6A7B
:100DB000818C818E1200EEDF9CEF06F010EE60F069
:100DC00020EE60F0F7EC06F0270EF66E100EF76ED0
:100DD000F86A0800F55002E100EF08F0DBDF95DC6F
:0E0DE000E66A2DEC01F0E552A7DFFED7120007
:020DEE00000EF5
:100DF000F36E00EE00F0030E01D81200EA6002D09C
:0E0E0000EE6AFCD7F350E9601200EE6AFCD7F0
:020E0E00FE03E1
:100E1000FD03FB03F703EF03DF03BF037F03FF02C1
:020E2000FF01D0
:061000005DEF15F0120087
:021006000000E8
:0810080007ED08F012000600DC
:06101000BAEF16F0120019
:06101800C1EF16F012000A
:101020000001000100010000A42D0000BD00FFFF31
:10103000FFFFFFFFFFFFFFFFFFFFFFFFFFFFFFFFC0
:101040004F70656E4C4342204D4552472043414E00
:101050004143453320636F6E74726F6C2070616E14
:10106000656C20737769746368204465632030344D
:1010700020323030392031313A35353A31360000BE
:101080000000000000000000000000000000000060
:101090000000000000000000000000000000000050
:1010A0000000000000000000000000000000000040
:1010B0000000000000000000000000000000000030
:10188000310EB16E3C0EB36EB00EB26E1200A1A25C
:1018900006D03C0EB36EB00EB26EA192010C000CDD
:1018A000D9CFE6FFE1CFD9FFD950FC0FE96EFF0E8B
:1018B000DA20EA6EEF50F66ED950FD0FE96EFF0E9A
:1018C000DA20EA6EEF50F76ED950FE0FE96EFF0E88
:1018D000DA20EA6EEF50F86ED950FB0FE96EFF0E7A
:1018E000DA20EA6EEF50EF0600090DE00900F90E6C
:1018F000DBCFE9FFDB2AFA0EDBCFEAFF01E3DB2ACD
:10190000F5CFEFFFE9D7E552E7CFD9FF1200D9CFE6
:10191000E6FFE1CFD9FFD950FC0FE96EFF0EDA20C8
:10192000EA6EEF50F66ED950FD0FE96EFF0EDA2029
:10193000EA6EEF50F76ED950FE0FE96EFF0EDA2017
:10194000EA6EEF50F86E940EA66EF2CF12F1F29E90
:10195000F29C550EA76EAA0EA76EA68212C1F2FFC8
:101960000A00D950FB0FE96EFF0EDA20EA6EEF5045
:10197000EF06000926E0F90EDBCFE9FFDB2AFA0EBD
:10198000DBCFEAFF01E3DB2AEF50F56E0F00070E15
:10199000F614070808E0D950FB0FE96EFF0EDA20B5
:1019A000EA6EEF500DE1840EA66EF2CF12F1F29EB8
:1019B000F29C550EA76EAA0EA76EA68212C1F2FF68
:1019C000D0D7A694E552E7CFD9FF1200D9CFE6FFD2
:1019D000E1CFD9FFE150FE0FE96EFF0EDA20EA6E8B
:1019E000EFCF00F1010100511CE10E0EE66E000E7A
:1019F000E66E0E0EE66E400EE66EE66AE66A50DFB2
:101A0000586E060EE15E58500EC014F00FC015F06F
:101A100010C016F011C017F012C018F013C019F062
:101A200087D00101010E006F036B14C004F115C0D3
:101A300005F116C006F117C007F118C008F1060E2F
:101A4000E96E010EEA6ED890EF36010EEB36020E0B
:101A5000EB3605BF0681030EE96E010EEA6ED890E3
:101A6000EF36010EEB36020EEB36030EE96E010E79
:101A7000EA6EEECF09F1EECF0AF1EFCF0BF10C6B6E
:101A80005B6A1450092715500A2316500B235B502C
:101A90000C23A90E09274B0E0A237A0E0B23000EE6
:101AA0000C23090EE96E010EEA6EEECF14F0EECFB4
:101AB00015F0EFCF16F00B0EE96E010EEA6EEF5047
:101AC000E66E090EE96E010EEA6EE552E750EF6E22
:101AD000060EE96E010EEA6EEECF58F0EECF59F029
:101AE000EFCF5AF05B6A5850092759500A235A50D1
:101AF0000B235B500C2319C05AF05B6A175009275F
:101B000018500A2319500B235B500C23A30E0927EE
:101B10000C0E0A231B0E0B23000E0C23090EE96E7C
:101B2000010EEA6EEECF17F0EECF18F0EFCF19F0FE
:101B30000101000508E01A501B1005E000011A1C05
:101B40002BE11B1C29E114C01AF015C01BF015C0B5
:101B500058F016C059F0040ED89059325832E804A3
:101B6000FBE158501A1A59501B1A17501A1A1850DC
:101B70001B1A18C058F019C059F0040ED8905932E9
:101B80005832E804FBE158501A1A59501B1A0F0E2C
:101B90001B160101010E006F1AC000F01BC001F0FE
:101BA000026A036AF00E1214586EFF0E1314596E77
:101BB000040ED89059325832E804FBE15850021212
:101BC000595003120C6AABDA0009FDE0026A100EEC
:101BD000036EFF0E1114586E0F0E1214596E5850EA
:101BE0000212595003129BDA0009FDE0026A200E2E
:101BF000036EF00E0F14586EFF0E1014596E040E83
:101C0000D89059325832E804FBE15850021259502A
:101C1000031285DA0009FDE0026A300E036EFF0E42
:101C20000E14586E0F0E0F14596E58500212595060
:101C3000031275DA0009FDE023DE0101036B0A0ED1
:101C40000101035D0FE223DE000902E00101032B25
:101C500068DA0009F4E01A500018F1E11B5001188D
:101C6000EEE1DFD600050FE10E0EE66E000EE66E29
:101C70000E0EE66E400EE66EE66AE66A48DE586EC6
:101C8000060EE15E5850E552E7CFD9FF1200D9CFDA
:101C9000E6FFE1CFD9FF1AC000F01BC001F0E15010
:101CA000FC0FE96EFF0EDA20EA6EEECF02F0EFCF06
:101CB00003F0E00E0312020E0C6E100E046EE150E3
:101CC000FE0FE96EFF0EDA20EA6EEF50056E27DA9E
:101CD0000009FDE0E552E7CFD9FF1200D9CFE6FFBA
:101CE000E1CFD9FFE20EE96E000EEA6E05C0EFFF0C
:101CF000E10EE96E000EEA6E06C0EFFFE00EE96E3F
:101D0000000EEA6E07C0EFFFA00EE66E000EE66E54
:101D1000400EE66EE0C0E6FFE1C0E6FFE2C0E6FF8F
:101D2000BFDD586E060EE15E58500101006B016B7D
:101D3000400E005D5AE21AC000F01BC001F0D950FD
:101D4000FD0FE96EFF0EDA20EA6EEECF02F0EFCF64
:101D500003F00250E00E0312080E0C6E01C104F0F5
:101D60000051EA6AA00FE96E000EEA22EF50056EFC
:101D70000029EA6AA00FE96E000EEA22EF50066E13
:101D8000020E0025EA6AA00FE96E000EEA22EF506B
:101D9000076E030E0025EA6AA00FE96E000EEA2224
:101DA000EF50086E040E0025EA6AA00FE96E000EDF
:101DB000EA22EF50096E050E0025EA6AA00FE96ECF
:101DC000000EEA22EF500A6E060E0025EA6AA00F06
:101DD000E96E000EEA22EF500B6EA1D90009FDE07A
:101DE000070E01010027012BA3D7E552E7CFD9FF4A
:101DF000120000C0E6FF01C0E6FFE66A48DFE552D8
:101E0000E552E55218EF00F012001F0E6F166F8EAC
:101E1000E00E6F148008FCE1030E706EDE0E716E32
:101E2000030E726E200E736E800E776E778A0D0130
:101E3000F86B606A0F01506B0E01206B306B406BCA
:101E4000506B606B706B0F01186B1C6B080E196F79
:101E50001D6F1A6B1E6B1B6B1F6B0D01D469D5694F
:101E6000D86BF06BF16BF26BF36B0F01016F056FC9
:101E7000096F0D6F116F156F0D01616F656F696FE0
:101E8000716F756F796F816F856F896F916F1F0E9D
:101E90006F16E00E6F14FDE112000101400E126F8B
:101EA0000F0E136F12C1E9FFEA6EEF50080B15E039
:101EB000300E126F0F0E136F12C1E9FFEA6EEF5072
:101EC000080B0BE0200E126F0F0E136F12C1E9FF0B
:101ED000EA6EEF50080B01E0000CFC0E12C1E9FFA6
:101EE00013C1EAFFE850EF16050EEA6A1225E96E03
:101EF0001351EA220CC0EFFF03407F0B8009E66E0E
:101F0000010EEA6A1225E96E1351EA22E552E75002
:101F1000EF6E300E0214E8380F0B596EC00E02142B
:101F2000E8407F0B586E010E0314800DF3505810DB
:101F300008095910E66E020EEA6A1225E96E13517D
:101F4000EA22E552E750EF6E0F0E0214100D0F0E4D
:101F50000114F310E66E030EEA6A1225E96E1351BE
:101F6000EA22E552E750EF6E040EEA6A1225E96EA6
:101F70001351EA2200C0EFFF146B0C50145D14E201
:101F80001451EA6A040FE96E000EEA22EF50E66E81
:101F9000060E1425EA6A1225E96E1351EA22E5526B
:101FA000E750EF6E142BE9D712C1E9FF13C1EAFF26
:101FB000EF86010C74AE000C070E6F14060A2AE0BF
:101FC000030A23E0010A1CE0070A15E0010A0EE0FB
:101FD000030A07E0010A23E10101600E136F0F0EEF
:101FE00022D00101500E136F0F0E1DD00101200EE3
:101FF000136F0E0E18D00101300E136F0E0E13D09A
:102000000101400E136F0E0E0ED00101500E136F22
:102010000E0E09D00101600E136F0E0E04D00101E7
:10202000700E136F0E0E146F0D6A74AC02D00D8615
:10203000749C010EEA6A1325E96E1451EA22EF50EE
:10204000E824036E020EEA6A1325E96E1451EA22AF
:10205000EF50800BE844010B0312020EEA6A1325CD
:10206000E96E1451EA22EF50600BE824026E020E72
:10207000EA6A1325E96E1451EA22EF50030B100DA2
:10208000F3500212030EEA6A1325E96E1451EA2294
:10209000EF380F0B0212030EEA6A1325E96E145192
:1020A000EA22EF500F0B016E040EEA6A1325E96E67
:1020B0001451EA22EF50006E050EEA6A1325E96E0C
:1020C0001451EA22EF500F0B0C6E126B0C50125D84
:1020D00014E2060E1225EA6A1325E96E1451EA226B
:1020E000EF50E66E1251EA6A040FE96E000EEA2222
:1020F000E552E750EF6E122BE9D7A4AE02D00D885F
:10210000A49E13C1E9FF14C1EAFFEF9EA492749E3E
:10211000010C0101850E086F0807FEE112004DEF6A
:102120000FF0DAEF0FF00101026B036B000E025D9E
:10213000080E03595CE2016B400E015D3BE2006B4F
:10214000060E005D16E2050ED8800055EA6A0E0FF5
:10215000E96E000EEA22EF50E66E01510025EA6AB0
:10216000A00FE96E000EEA22E552E750EF6E002B59
:10217000E7D7060E0125EA6AA00FE96E000EEA22F3
:10218000EF6A0151596A0225586E03515922030E14
:10219000D89059325832E804FBE1070E01010125BD
:1021A000EA6AA00FE96E000EEA2258C0EFFF080E9F
:1021B0000127C2D7A00EE66E000EE66E400EE66E58
:1021C000800E0225586E100E0321596E5A6A58C0AF
:1021D000E6FFE66E5AC0E6FF87EC0CF05B6E060E7B
:1021E000E15E400E01010227000E03239FD712007B
:1021F000D9CFE6FFE1CFD9FFE150FD0FE96EFF0E29
:10220000DA20EA6EEECF58F0EFCF59F0000E585CAE
:10221000010E59580BE300C0E6FF01C0E6FF030EB4
:10222000E66E35DDE552E552E552A5D0D950FD0FF9
:10223000E96EFF0EDA20EA6EEECF00F1EFCF01F18A
:102240000101D89000370137D89000370137D89076
:1022500000370137000EE96E010EEA6EEF503F0BBA
:10226000526EA00EE66E000EE66E400EE66EC00EDA
:102270000015586E070E0115596E800E5826100E67
:1022800059225A6A58C0E6FF59C0E6FF5AC0E6FF15
:1022900050EC0CF05B6E060EE15E5B500050026E7F
:1022A000E00E0110036E1AC000F01BC001F0380EE2
:1022B000046E5250EA6AA00FE96E000EEA22EF5057
:1022C000056E5228EA6AA00FE96E000EEA22EF506E
:1022D000066E020E5224EA6AA00FE96E000EEA2290
:1022E000EF50076E030E5224EA6AA00FE96E000E4B
:1022F000EA22EF50086E040E5224EA6AA00FE96E3B
:10230000000EEA22EF50096E050E5224EA6AA00F71
:10231000E96E000EEA22EF500A6E060E5224EA6AB7
:10232000A00FE96E000EEA22EF500B6E080E0C6E45
:10233000F6DE0009FDE0390E046E070E5224EA6A4B
:10234000A00FE96E000EEA22EF50056ED950FE0F85
:10235000E96EFF0EDA20EA6EEF50066ED950FD0FDF
:10236000E96EFF0EDA20EA6EEF50076E040E0C6E77
:10237000D6DE0009FDE0E552E7CFD9FF1200D9CF44
:10238000E6FFE1CFD9FFE150FD0FE96EFF0EDA2045
:10239000EA6EEECF58F0EFCF59F0000E585C010E08
:1023A000595807E300C0E6FF01C0E6FF040EE66EE1
:1023B00073D0D950FD0FE96EFF0EDA20EA6EEECF32
:1023C00000F1EFCF01F10101D89000370137D8902B
:1023D00000370137D89000370137000EE96E010E43
:1023E000EA6EEF503F0B526EA00EE66E000EE66EE8
:1023F000400EE66EC00E0015586E070E0115596EA0
:10240000800E5826100E59225A6A58C0E6FF59C04D
:10241000E6FF5AC0E6FF50EC0CF05B6E060EE15E84
:102420005B500101026B080E025D14E20251EA6A80
:10243000450FE96E000EEA22EF50E66E025152247B
:10244000EA6AA00FE96E000EEA22E552E750EF6E4D
:10245000022BE9D7A00EE66E000EE66E400EE66E89
:10246000C00E0015586E070E0115596E800E5826C5
:10247000100E59225A6A58C0E6FF59C0E6FF5AC0EA
:10248000E6FF87EC0CF05B6E060EE15E5B5054C01D
:10249000E6FF55C0E6FFE66A47EC0EF0E552E5526E
:1024A000E552E552E7CFD9FF1200D9CFE6FFE1CFE1
:1024B000D9FF526A080E525C09E25250EA6A450F8F
:1024C000E96E000EEA22EF68522AF4D7D950FD0FC8
:1024D000E96EFF0EDA20EA6EEECFE6FFEFCFE6FF01
:1024E0004EDFE552E552E552E7CFD9FF1200010178
:1024F000036B100E035D01E3A1D003C180FF09DE71
:1025000082CF02F101010351EA6A1D0FE96E000E4C
:10251000EA22EF500219586E0351EA6A2D0FE96E54
:10252000000EEA22EF500219E81C5814006F035104
:10253000EA6A2D0FE96E000EEA2202C1EFFF016B7D
:10254000005101E179D00151EA6A3D0FE96E000EB8
:10255000EA22EF5000156EE00151EA6A3D0FE96E84
:10256000000EEA22EF1C00170151E824586E0339CF
:10257000F00B5810046F0151EA6A3D0FE96E000E2E
:10258000EA22EF50021501E104810451066F076B46
:10259000D89006370737D89006370737D8900637D0
:1025A00007371AC000F01BC001F0100E026E800E3B
:1025B000036E080E0C6E056B046B080E045D23E2BF
:1025C0000451F76A0625F66E0751F722800EF626AB
:1025D000100EF7220800F550E66E0451EA6A040F67
:1025E000E96E000EEA22E552E750EF6E0451EA6A06
:1025F000040FE96E000EEA22EF50FF0802E0010E20
:10260000056F042BDAD7055104E089DD000901E1EB
:10261000120001010151EA6A3D0FE96E000EEA2243
:10262000EFCF58F00351EA6A1D0FE96E000EEA225F
:102630005850EF1A012B84D7032B5BD712001A5086
:10264000001818E11B50011815E10350800B0CE134
:102650001AC000F01BC001F002687F0E036E0C6A06
:102660005EDD000906E1FCD7010EE66EE6EC0CF03B
:10267000E5521200010E02181FE1800E03181CE142
:102680000050026EE00E0110036E1AC000F01BC075
:1026900001F0070E0C6E500E046E1350056E1250B2
:1026A000066E1150076E1050086E0F50096E0E50D6
:1026B0000A6E35DD0009FDE01200200E045C05E124
:1026C000F29EF29CF9EC0EF0F7D1520E045C04E19C
:1026D000FF0000EF00F0F0D1220E045C09E100C021
:1026E000E6FF01C0E6FF6EEC0EF0E552E552E4D1E4
:1026F000230E045C1BE100C054F001C055F0E20E53
:10270000E96E000EEA6E05C0EFFFE10EE96E000E05
:10271000EA6E06C0EFFFE00EE96E000EEA6E07C03B
:10272000EFFF5068030E516E1C6AC6D1F00E041400
:1027300001E0C5D05050511001E1C1D000505418F3
:1027400002E10150551817E000C0E6FF01C0E6FFA6
:10275000050EE66E47EC0EF0E552E552E55254C028
:10276000E6FF55C0E6FF050EE66E47EC0EF0E552BB
:10277000E552E552A3D00450536E5350090A36E097
:10278000010A31E00F0A2BE0010A25E0030A1FE0ED
:10279000010A19E0070A13E0010A0DE0030A07E045
:1027A000010A01E026D05090030E511622D050921B
:1027B000030E51161ED05094030E51161AD0509687
:1027C000030E511616D05098030E511612D0509A7F
:1027D000030E51160ED0509C030E51160AD0509E77
:1027E000030E511606D0020E511603D0010E5116DB
:1027F00000D0070E5302F350536E5350532AEA6A27
:10280000A00FE96E000EEA2205C0EFFF400E535CF8
:1028100036E25350532AEA6AA00FE96E000EEA220C
:1028200006C0EFFF5350532AEA6AA00FE96E000E6C
:10283000EA2207C0EFFF5350532AEA6AA00FE96E5D
:10284000000EEA2208C0EFFF5350532AEA6AA00F95
:10285000E96E000EEA2209C0EFFF5350532AEA6ADC
:10286000A00FE96E000EEA220AC0EFFF5350532A70
:10287000EA6AA00FE96E000EEA220BC0EFFF50508B
:1028800051101CE1A00EE66E000EE66E400EE66EE4
:10289000E0C0E6FFE1C0E6FFE2C0E6FF87EC0CF037
:1028A000586E060EE15E585054C0E6FF55C0E6FF74
:1028B000E66A47EC0EF0E552E552E552FDD0510EC6
:1028C000045C0CE130DC00C0E6FF01C0E6FFE66A14
:1028D00047EC0EF0E552E552E552EED0360E045CC0
:1028E00020E1526A080E525C09E25250EA6A450F32
:1028F000E96E000EEA22EF68522AF4D705505A6EAC
:102900005AC05BF05A6A065000015A10586E5BC0FC
:1029100059F058C0E6FF59C0E6FF31DDE552E552F7
:10292000CBD0370E045C13E105505A6E5AC05BF0F1
:102930005A6A065000015A10586E5BC059F058C0D0
:10294000E6FF59C0E6FF54DCE552E552B5D0380E3B
:10295000045C48E1526A070E525C13E25228EA6AAC
:10296000040FE96E000EEA22EF50E66E5250EA6A5A
:10297000450FE96E000EEA22E552E750EF6E522A4B
:10298000EAD74D5008E100C054F001C055F0010EE7
:102990004D6E1C6A91D00050541802E10150551838
:1029A00018E000C0E6FF01C0E6FF050EE66E47EC4A
:1029B0000EF0E552E552E55254C0E6FF55C0E6FF81
:1029C000050EE66E47EC0EF0E552E552E5524D6A13
:1029D00073D04EC0E6FF4FC0E6FFD1DCE552E552B2
:1029E0004D6A6AD0390E045C36E105504C6E0650D3
:1029F0004F6E07504E6E4D5007E100C054F001C0BD
:102A000055F04D821C6A58D00050541802E1015014
:102A1000551818E000C0E6FF01C0E6FF050EE66E9F
:102A200047EC0EF0E552E552E55254C0E6FF55C0C2
:102A3000E6FF050EE66E47EC0EF0E552E552E55274
:102A40004D6A3AD04EC0E6FF4FC0E6FF98DCE55233
:102A5000E5524D6A31D0300E045C0BE100C0E6FF58
:102A600001C0E6FFE66A47EC0EF0E552E552E5529A
:102A700023D0400E045C03E0320E045C0CE100C085
:102A8000E6FF01C0E6FF030EE66E47EC0EF0E552EE
:102A9000E552E55211D0410E045C03E0340E045CB3
:102AA0000BE100C0E6FF01C0E6FF040EE66E47EC56
:102AB0000EF0E552E552E5521200F26AC26A0F0EBC
:102AC000C16E300E926E380E936E81849468D08EF3
:102AD000A66A05EC0FF040EC0CF0A56A9F6AA26AAA
:102AE0009D6AA06AA36AF16AF06A9E6AA16AA46AF2
:102AF000A10ECD6EB10ECF6EE00ECE6E9F809D808A
:102B0000010E3D6E020E3E6E040E3F6E080E406ECC
:102B1000100E416E200E426E400E436E800E446ECB
:102B2000E66AE6EC0CF0E552800E566E140E576E17
:102B3000818E819CA00EE66E000EE66E400EE66E63
:102B4000800E586E100E596E5A6A58C0E6FFE66E37
:102B50005AC0E6FF50EC0CF05B6E060EE15E5B5077
:102B600001010E6B400E0E5D10E20E51EA6AA00FDD
:102B7000E96E000EEA22EF5008E13F0E0E5D02E121
:102B800093EC10F001010E2BEDD71C6A4D6A0E6B11
:102B9000100E0E5D17E20EC180FF89EC10F00101EE
:102BA0000E51EA6A2D0FE96E000EEA2282CFEFFF86
:102BB0000E51EA6A1D0FE96E000EEA2282CFEFFF86
:102BC0000E2BE6D71AC000F01BC001F0020E026EF9
:102BD000800E036E0C6A8FEC10F00009FCE047ECED
:102BE0000CF0000928E01C2A5050511010E01C5035
:102BF00014080DE254C0E6FF55C0E6FF020EE66E73
:102C000047EC0EF0E552E552E552506A516A4D50DC
:102C10000FE01C5014080CE254C0E6FF55C0E6FF5C
:102C2000020EE66E47EC0EF0E552E552E5524D6AB3
:102C3000575001E057069EA06CD09E90B10ECF6E0B
:102C4000E00ECE6E54DC575064E18050200B61E101
:102C500056505FE056061AC000F01BC001F0100E7F
:102C6000026E800E036E080E0C6E56505624010143
:102C7000106F116B070E5614EA6A3D0FE96E000ED5
:102C8000EA22EFCF58F056505640E840E8401F0B7C
:102C9000EA6A1D0FE96E000EEA22EF50581401E1B6
:102CA0001081D89010371137D89010371137D8903D
:102CB000103711370F6B0E6B080E0E5D23E20E51AD
:102CC000F76A1025F66E1151F722800EF626100EC7
:102CD000F7220800F550E66E0E51EA6A040FE96E1D
:102CE000000EEA22E552E750EF6E0E51EA6A040F39
:102CF000E96E000EEA22EF50FF0802E0010E0F6FAE
:102D00000E2BDAD70F5105E08FEC10F0000901E12E
:102D1000120091EC10F0000901E161D71A5000187F
:102D20001AE11B50011817E10350800B0EE11AC085
:102D300000F01BC001F002687F0E036E0C6A8FEC7E
:102D400010F0000901E04BD7FAD7010EE66EE6EC71
:102D50000CF0E55244D71A50586EE00E1B10596E15
:102D60001A50021805E15950031802E1A6DC37D7C2
:102D700066DC35D7DACFE4FFE652E552E5CFDAFF7D
:102D80001100D8CFE4FFE0CFE4FFE46EDACFE4FF38
:102D9000E652E552E5CFDAFFE550E5CFE0FFE5CFBB
:042DA000D8FF100048
:0C2DA4003C584D4C3E0D0A3C4E6F6465DF
:102DB000537472696E673E4F70656E4C4342204D8E
:102DC0004552472043414E4143453320636F6E7463
:102DD000726F6C2070616E656C20737769746368C4
:102DE0002044656320303420323030392031313A8C
:102DF00035353A31363C2F4E6F6465537472696EC7
:102E0000673E0D0A3C4576656E74446174613E0D03
:102E10000A3C2F4576656E74446174613E0D0A3C30
:102E20004E6F64655661726961626C653E0D0A2081
:102E3000203C4E616D653E526566726573683C2F3D
:102E40004E616D653E0D0A3C2F4E6F646556617292
:102E50006961626C653E0D0A3C2F584D4C3E0D0A6F
:012E60000071
:0E2E6200000EF36E00EE00F0030E01D8120019
:102E7000EA6002D0EE6AFCD7F350E9601200EE6A15
:022E8000FCD77D
:020000040030CA
:0100010046B8
:010002000EEF
:010003001AE2
:01000500807A
:010006008178
:010008000FE8
:01000900C036
:01000A000FE6
:01000B00E014
:01000C000FE4
:01000D0040B2
:00000001FF
